{
  "_format": "hh-sol-artifact-1",
  "contractName": "MockPriceOracle",
  "sourceName": "contracts/MockPriceOracle.sol",
  "abi": [
    {
      "inputs": [
        {
          "internalType": "address",
          "name": "nftContract",
          "type": "address"
        }
      ],
      "name": "getAveragePrice",
      "outputs": [
        {
          "internalType": "uint256",
          "name": "averagePrice",
          "type": "uint256"
        }
      ],
      "stateMutability": "view",
      "type": "function"
    },
    {
      "inputs": [
        {
          "internalType": "address",
          "name": "nftContract",
          "type": "address"
        }
      ],
      "name": "getFloorPrice",
      "outputs": [
        {
          "internalType": "uint256",
          "name": "floorPrice",
          "type": "uint256"
        }
      ],
      "stateMutability": "view",
      "type": "function"
    },
    {
      "inputs": [
        {
          "internalType": "address",
          "name": "nftContract",
          "type": "address"
        }
      ],
      "name": "getLastSalePrice",
      "outputs": [
        {
          "internalType": "uint256",
          "name": "lastSalePrice",
          "type": "uint256"
        }
      ],
      "stateMutability": "view",
      "type": "function"
    },
    {
      "inputs": [
        {
          "internalType": "address",
          "name": "nftContract",
          "type": "address"
        },
        {
          "internalType": "uint256",
          "name": "tokenId",
          "type": "uint256"
        }
      ],
      "name": "getPricePerSecond",
      "outputs": [
        {
          "internalType": "uint256",
          "name": "pricePerSecond",
          "type": "uint256"
        }
      ],
      "stateMutability": "view",
      "type": "function"
    },
    {
      "inputs": [
        {
          "internalType": "address",
          "name": "nftContract",
          "type": "address"
        },
        {
          "internalType": "uint256",
          "name": "tokenId",
          "type": "uint256"
        }
      ],
      "name": "hasPrice",
      "outputs": [
        {
          "internalType": "bool",
          "name": "",
          "type": "bool"
        }
      ],
      "stateMutability": "view",
      "type": "function"
    },
    {
      "inputs": [
        {
          "internalType": "address",
          "name": "nftContract",
          "type": "address"
        },
        {
          "internalType": "uint256",
          "name": "averagePrice",
          "type": "uint256"
        }
      ],
      "name": "setAveragePrice",
      "outputs": [],
      "stateMutability": "nonpayable",
      "type": "function"
    },
    {
      "inputs": [
        {
          "internalType": "address",
          "name": "nftContract",
          "type": "address"
        },
        {
          "internalType": "uint256",
          "name": "floorPrice",
          "type": "uint256"
        }
      ],
      "name": "setFloorPrice",
      "outputs": [],
      "stateMutability": "nonpayable",
      "type": "function"
    },
    {
      "inputs": [
        {
          "internalType": "address",
          "name": "nftContract",
          "type": "address"
        },
        {
          "internalType": "uint256",
          "name": "lastSalePrice",
          "type": "uint256"
        }
      ],
      "name": "setLastSalePrice",
      "outputs": [],
      "stateMutability": "nonpayable",
      "type": "function"
    },
    {
      "inputs": [
        {
          "internalType": "address",
          "name": "nftContract",
          "type": "address"
        },
        {
          "internalType": "uint256",
          "name": "tokenId",
          "type": "uint256"
        },
        {
          "internalType": "uint256",
          "name": "pricePerSecond",
          "type": "uint256"
        }
      ],
      "name": "updatePrice",
      "outputs": [],
      "stateMutability": "nonpayable",
      "type": "function"
    }
  ],
  "bytecode": "0x608060405234801561001057600080fd5b5061041f806100206000396000f3fe608060405234801561001057600080fd5b50600436106100935760003560e01c80636a4c38b5116100665780636a4c38b514610127578063b2a09dbf14610170578063b78d928a14610183578063c3e214fc146101ad578063e57d6fb7146101c057600080fd5b80630ceff683146100985780631db593e5146100c45780634980917a146100ea57806369e26eab14610114575b600080fd5b6100c26100a636600461036a565b6001600160a01b03909116600090815260016020526040902055565b005b6100d76100d2366004610394565b610212565b6040519081526020015b60405180910390f35b6100c26100f836600461036a565b6001600160a01b03909116600090815260026020526040902055565b6100d761012236600461036a565b61025d565b61016061013536600461036a565b6001600160a01b03919091166000908152600460209081526040808320938352929052205460ff1690565b60405190151581526020016100e1565b6100d761017e366004610394565b6102c0565b6100c261019136600461036a565b6001600160a01b03909116600090815260036020526040902055565b6100d76101bb366004610394565b610307565b6100c26101ce3660046103b6565b6001600160a01b039092166000818152602081815260408083208584528252808320959095559181526004825283812092815291905220805460ff19166001179055565b6001600160a01b03811660009081526003602052604081205461023d57671bc16d674ec80000610257565b6001600160a01b0382166000908152600360205260409020545b92915050565b6001600160a01b038216600090815260046020908152604080832084845290915281205460ff16156102b157506001600160a01b038216600090815260208181526040808320848452909152902054610257565b5066038d7ea4c6800092915050565b6001600160a01b0381166000908152600260205260408120546102eb576714d1120d7b160000610257565b506001600160a01b031660009081526002602052604090205490565b6001600160a01b03811660009081526001602052604081205461033257670de0b6b3a7640000610257565b506001600160a01b031660009081526001602052604090205490565b80356001600160a01b038116811461036557600080fd5b919050565b6000806040838503121561037d57600080fd5b6103868361034e565b946020939093013593505050565b6000602082840312156103a657600080fd5b6103af8261034e565b9392505050565b6000806000606084860312156103cb57600080fd5b6103d48461034e565b9560208501359550604090940135939250505056fea26469706673582212203bcc1140b53231d3ed98e1576830a3b7b00efdbe1d637c2bfe24fe4b1654e89664736f6c63430008130033",
  "linkReferences": {},
  "deployedLinkReferences": {}
}