{
  "_format": "hh-sol-artifact-1",
  "contractName": "MockPriceOracle",
  "sourceName": "contracts/MockPriceOracle.sol",
  "abi": [
    {
      "inputs": [
        {
          "internalType": "address",
          "name": "nftContract",
          "type": "address"
        }
      ],
      "name": "getFloorPrice",
      "outputs": [
        {
          "internalType": "uint256",
          "name": "floorPrice",
          "type": "uint256"
        }
      ],
      "stateMutability": "view",
      "type": "function"
    },
    {
      "inputs": [
        {
          "internalType": "address",
          "name": "nftContract",
          "type": "address"
        },
        {
          "internalType": "uint256",
          "name": "tokenId",
          "type": "uint256"
        }
      ],
      "name": "getPricePerSecond",
      "outputs": [
        {
          "internalType": "uint256",
          "name": "pricePerSecond",
          "type": "uint256"
        }
      ],
      "stateMutability": "view",
      "type": "function"
    },
    {
      "inputs": [
        {
          "internalType": "address",
          "name": "nftContract",
          "type": "address"
        },
        {
          "internalType": "uint256",
          "name": "tokenId",
          "type": "uint256"
        }
      ],
      "name": "hasPrice",
      "outputs": [
        {
          "internalType": "bool",
          "name": "",
          "type": "bool"
        }
      ],
      "stateMutability": "view",
      "type": "function"
    },
    {
      "inputs": [
        {
          "internalType": "address",
          "name": "nftContract",
          "type": "address"
        },
        {
          "internalType": "uint256",
          "name": "floorPrice",
          "type": "uint256"
        }
      ],
      "name": "setFloorPrice",
      "outputs": [],
      "stateMutability": "nonpayable",
      "type": "function"
    },
    {
      "inputs": [
        {
          "internalType": "address",
          "name": "nftContract",
          "type": "address"
        },
        {
          "internalType": "uint256",
          "name": "tokenId",
          "type": "uint256"
        },
        {
          "internalType": "uint256",
          "name": "pricePerSecond",
          "type": "uint256"
        }
      ],
      "name": "updatePrice",
      "outputs": [],
      "stateMutability": "nonpayable",
      "type": "function"
    }
  ],
  "bytecode": "0x608060405234801561001057600080fd5b506102d8806100206000396000f3fe608060405234801561001057600080fd5b50600436106100575760003560e01c80630ceff6831461005c57806369e26eab146100885780636a4c38b5146100ae578063c3e214fc146100f7578063e57d6fb71461010a575b600080fd5b61008661006a366004610223565b6001600160a01b03909116600090815260016020526040902055565b005b61009b610096366004610223565b61015c565b6040519081526020015b60405180910390f35b6100e76100bc366004610223565b6001600160a01b03919091166000908152600260209081526040808320938352929052205460ff1690565b60405190151581526020016100a5565b61009b61010536600461024d565b6101c0565b61008661011836600461026f565b6001600160a01b039092166000818152602081815260408083208584528252808320959095559181526002825283812092815291905220805460ff19166001179055565b6001600160a01b038216600090815260026020908152604080832084845290915281205460ff16156101b057506001600160a01b0382166000908152602081815260408083208484529091529020546101ba565b5066038d7ea4c680005b92915050565b6001600160a01b0381166000908152600160205260408120546101eb57670de0b6b3a76400006101ba565b506001600160a01b031660009081526001602052604090205490565b80356001600160a01b038116811461021e57600080fd5b919050565b6000806040838503121561023657600080fd5b61023f83610207565b946020939093013593505050565b60006020828403121561025f57600080fd5b61026882610207565b9392505050565b60008060006060848603121561028457600080fd5b61028d84610207565b9560208501359550604090940135939250505056fea2646970667358221220614a7be822203701e2a60b0862bb59e556fe1ae1f4dcb2d65a8a18e5bc53337a64736f6c63430008130033",
  "linkReferences": {},
  "deployedLinkReferences": {}
}