{
  "_format": "hh-sol-artifact-1",
  "contractName": "MockPriceOracle",
  "sourceName": "contracts/MockPriceOracle.sol",
  "abi": [
    {
      "inputs": [],
      "stateMutability": "nonpayable",
      "type": "constructor"
    },
    {
      "anonymous": false,
      "inputs": [
        {
          "indexed": true,
          "internalType": "address",
          "name": "previousOwner",
          "type": "address"
        },
        {
          "indexed": true,
          "internalType": "address",
          "name": "newOwner",
          "type": "address"
        }
      ],
      "name": "OwnershipTransferred",
      "type": "event"
    },
    {
      "anonymous": false,
      "inputs": [
        {
          "indexed": true,
          "internalType": "address",
          "name": "nftContract",
          "type": "address"
        },
        {
          "indexed": true,
          "internalType": "uint256",
          "name": "tokenId",
          "type": "uint256"
        },
        {
          "indexed": false,
          "internalType": "uint256",
          "name": "newPrice",
          "type": "uint256"
        }
      ],
      "name": "PriceUpdated",
      "type": "event"
    },
    {
      "inputs": [],
      "name": "DEFAULT_ART_NFT_PRICE",
      "outputs": [
        {
          "internalType": "uint256",
          "name": "",
          "type": "uint256"
        }
      ],
      "stateMutability": "view",
      "type": "function"
    },
    {
      "inputs": [],
      "name": "DEFAULT_GAMING_NFT_PRICE",
      "outputs": [
        {
          "internalType": "uint256",
          "name": "",
          "type": "uint256"
        }
      ],
      "stateMutability": "view",
      "type": "function"
    },
    {
      "inputs": [],
      "name": "DEFAULT_METAVERSE_NFT_PRICE",
      "outputs": [
        {
          "internalType": "uint256",
          "name": "",
          "type": "uint256"
        }
      ],
      "stateMutability": "view",
      "type": "function"
    },
    {
      "inputs": [
        {
          "internalType": "address[]",
          "name": "nftContracts",
          "type": "address[]"
        },
        {
          "internalType": "uint256[]",
          "name": "tokenIds",
          "type": "uint256[]"
        },
        {
          "internalType": "uint256[]",
          "name": "newPrices",
          "type": "uint256[]"
        }
      ],
      "name": "batchUpdatePrices",
      "outputs": [],
      "stateMutability": "nonpayable",
      "type": "function"
    },
    {
      "inputs": [
        {
          "internalType": "address",
          "name": "nftContract",
          "type": "address"
        },
        {
          "internalType": "uint256",
          "name": "tokenId",
          "type": "uint256"
        }
      ],
      "name": "getLastUpdated",
      "outputs": [
        {
          "internalType": "uint256",
          "name": "timestamp",
          "type": "uint256"
        }
      ],
      "stateMutability": "view",
      "type": "function"
    },
    {
      "inputs": [
        {
          "internalType": "address",
          "name": "nftContract",
          "type": "address"
        },
        {
          "internalType": "uint256",
          "name": "tokenId",
          "type": "uint256"
        }
      ],
      "name": "getPrice",
      "outputs": [
        {
          "internalType": "uint256",
          "name": "pricePerSecond",
          "type": "uint256"
        }
      ],
      "stateMutability": "payable",
      "type": "function"
    },
    {
      "inputs": [],
      "name": "owner",
      "outputs": [
        {
          "internalType": "address",
          "name": "",
          "type": "address"
        }
      ],
      "stateMutability": "view",
      "type": "function"
    },
    {
      "inputs": [
        {
          "internalType": "address",
          "name": "",
          "type": "address"
        },
        {
          "internalType": "uint256",
          "name": "",
          "type": "uint256"
        }
      ],
      "name": "prices",
      "outputs": [
        {
          "internalType": "uint256",
          "name": "pricePerSecond",
          "type": "uint256"
        },
        {
          "internalType": "uint256",
          "name": "lastUpdated",
          "type": "uint256"
        },
        {
          "internalType": "bool",
          "name": "exists",
          "type": "bool"
        }
      ],
      "stateMutability": "view",
      "type": "function"
    },
    {
      "inputs": [],
      "name": "renounceOwnership",
      "outputs": [],
      "stateMutability": "nonpayable",
      "type": "function"
    },
    {
      "inputs": [
        {
          "internalType": "uint256",
          "name": "gamingPrice",
          "type": "uint256"
        },
        {
          "internalType": "uint256",
          "name": "artPrice",
          "type": "uint256"
        },
        {
          "internalType": "uint256",
          "name": "metaversePrice",
          "type": "uint256"
        }
      ],
      "name": "setDefaultPrices",
      "outputs": [],
      "stateMutability": "nonpayable",
      "type": "function"
    },
    {
      "inputs": [
        {
          "internalType": "address",
          "name": "newOwner",
          "type": "address"
        }
      ],
      "name": "transferOwnership",
      "outputs": [],
      "stateMutability": "nonpayable",
      "type": "function"
    },
    {
      "inputs": [
        {
          "internalType": "address",
          "name": "nftContract",
          "type": "address"
        },
        {
          "internalType": "uint256",
          "name": "tokenId",
          "type": "uint256"
        },
        {
          "internalType": "uint256",
          "name": "newPrice",
          "type": "uint256"
        }
      ],
      "name": "updatePrice",
      "outputs": [],
      "stateMutability": "nonpayable",
      "type": "function"
    }
  ],
  "bytecode": "0x608060405234801561001057600080fd5b5061001a3361001f565b61006f565b600080546001600160a01b038381166001600160a01b0319831681178455604051919092169283917f8be0079c531659141344cd1fd0a4f28419497f9722a3daafe3b4186f6b6457e09190a35050565b610b3b8061007e6000396000f3fe6080604052600436106100a75760003560e01c80638da5cb5b116100645780638da5cb5b1461015d578063b866fe9514610185578063bbc492c01461019e578063c78560b014610201578063e57d6fb714610221578063f2fde38b1461024157600080fd5b806302da448d146100ac578063308169b7146100df57806337b27a85146100f9578063449e815d1461011b57806353f0fa351461012e578063715018a614610148575b600080fd5b3480156100b857600080fd5b506100cc6100c73660046108f5565b610261565b6040519081526020015b60405180910390f35b3480156100eb57600080fd5b506100cc6501d1a94a200081565b34801561010557600080fd5b5061011961011436600461096b565b6102c7565b005b6100cc6101293660046108f5565b610551565b34801561013a57600080fd5b506100cc6502ba7def300081565b34801561015457600080fd5b506101196105fa565b34801561016957600080fd5b506000546040516001600160a01b0390911681526020016100d6565b34801561019157600080fd5b506100cc64e8d4a5100081565b3480156101aa57600080fd5b506101e46101b93660046108f5565b6001602081815260009384526040808520909152918352912080549181015460029091015460ff1683565b6040805193845260208401929092521515908201526060016100d6565b34801561020d57600080fd5b5061011961021c366004610a05565b61060e565b34801561022d57600080fd5b5061011961023c366004610a31565b610690565b34801561024d57600080fd5b5061011961025c366004610a64565b6107b6565b6001600160a01b03821660009081526001602081815260408084208585528252808420815160608101835281548152938101549284019290925260029091015460ff1615159082018190526102b75760006102bd565b80602001515b9150505b92915050565b6102cf61082f565b84831461031c5760405162461bcd60e51b8152602060048201526016602482015275082e4e4c2f2e640d8cadccee8d040dad2e6dac2e8c6d60531b60448201526064015b60405180910390fd5b8281146103645760405162461bcd60e51b8152602060048201526016602482015275082e4e4c2f2e640d8cadccee8d040dad2e6dac2e8c6d60531b6044820152606401610313565b60005b8581101561054857600083838381811061038357610383610a86565b90506020020135116103d75760405162461bcd60e51b815260206004820152601c60248201527f5072696365206d7573742062652067726561746572207468616e2030000000006044820152606401610313565b60405180606001604052808484848181106103f4576103f4610a86565b905060200201358152602001428152602001600115158152506001600089898581811061042357610423610a86565b90506020020160208101906104389190610a64565b6001600160a01b03166001600160a01b03168152602001908152602001600020600087878581811061046c5761046c610a86565b602090810292909201358352508181019290925260409081016000208351815591830151600183015591909101516002909101805460ff19169115159190911790558484828181106104c0576104c0610a86565b905060200201358787838181106104d9576104d9610a86565b90506020020160208101906104ee9190610a64565b6001600160a01b0316600080516020610ae683398151915285858581811061051857610518610a86565b9050602002013560405161052e91815260200190565b60405180910390a38061054081610a9c565b915050610367565b50505050505050565b6001600160a01b03821660009081526001602081815260408084208585528252808420815160608101835281548152938101549284019290925260029091015460ff16158015918301919091526105aa575190506102c1565b6105b5600384610ac3565b6000036105ca5764e8d4a510009150506102c1565b6105d5600384610ac3565b6001036105eb576501d1a94a20009150506102c1565b6502ba7def30009150506102c1565b61060261082f565b61060c6000610889565b565b61061661082f565b6040518381526000908190600080516020610ae68339815191529060200160405180910390a3604051828152600190600090600080516020610ae68339815191529060200160405180910390a3604051818152600290600090600080516020610ae6833981519152906020015b60405180910390a3505050565b600081116106e05760405162461bcd60e51b815260206004820152601c60248201527f5072696365206d7573742062652067726561746572207468616e2030000000006044820152606401610313565b6000546001600160a01b0316331461073a5760405162461bcd60e51b815260206004820152601c60248201527f4f6e6c79206f776e65722063616e2075706461746520707269636573000000006044820152606401610313565b6040805160608101825282815242602080830191825260018385018181526001600160a01b03891660008181528385528781208a8252855287902095518655935191850191909155516002909301805460ff1916931515939093179092559151838152849291600080516020610ae68339815191529101610683565b6107be61082f565b6001600160a01b0381166108235760405162461bcd60e51b815260206004820152602660248201527f4f776e61626c653a206e6577206f776e657220697320746865207a65726f206160448201526564647265737360d01b6064820152608401610313565b61082c81610889565b50565b6000546001600160a01b0316331461060c5760405162461bcd60e51b815260206004820181905260248201527f4f776e61626c653a2063616c6c6572206973206e6f7420746865206f776e65726044820152606401610313565b600080546001600160a01b038381166001600160a01b0319831681178455604051919092169283917f8be0079c531659141344cd1fd0a4f28419497f9722a3daafe3b4186f6b6457e09190a35050565b80356001600160a01b03811681146108f057600080fd5b919050565b6000806040838503121561090857600080fd5b610911836108d9565b946020939093013593505050565b60008083601f84011261093157600080fd5b50813567ffffffffffffffff81111561094957600080fd5b6020830191508360208260051b850101111561096457600080fd5b9250929050565b6000806000806000806060878903121561098457600080fd5b863567ffffffffffffffff8082111561099c57600080fd5b6109a88a838b0161091f565b909850965060208901359150808211156109c157600080fd5b6109cd8a838b0161091f565b909650945060408901359150808211156109e657600080fd5b506109f389828a0161091f565b979a9699509497509295939492505050565b600080600060608486031215610a1a57600080fd5b505081359360208301359350604090920135919050565b600080600060608486031215610a4657600080fd5b610a4f846108d9565b95602085013595506040909401359392505050565b600060208284031215610a7657600080fd5b610a7f826108d9565b9392505050565b634e487b7160e01b600052603260045260246000fd5b600060018201610abc57634e487b7160e01b600052601160045260246000fd5b5060010190565b600082610ae057634e487b7160e01b600052601260045260246000fd5b50069056feb556fac599c3c70efb9ab1fa725ecace6c81cc48d1455f886607def065f3e0c0a2646970667358221220f32b7d28d137f389b19c8bb5a3bce2a91112360851d1d411cba5457a6da83c1164736f6c63430008130033",
  "linkReferences": {},
  "deployedLinkReferences": {}
}