{
  "_format": "hh-sol-artifact-1",
  "contractName": "ReputationSystem",
  "sourceName": "contracts/ReputationSystem.sol",
  "abi": [
    {
      "anonymous": false,
      "inputs": [
        {
          "indexed": true,
          "internalType": "address",
          "name": "user",
          "type": "address"
        },
        {
          "indexed": true,
          "internalType": "uint256",
          "name": "achievementId",
          "type": "uint256"
        },
        {
          "indexed": false,
          "internalType": "string",
          "name": "name",
          "type": "string"
        }
      ],
      "name": "AchievementUnlocked",
      "type": "event"
    },
    {
      "anonymous": false,
      "inputs": [
        {
          "indexed": true,
          "internalType": "address",
          "name": "user",
          "type": "address"
        },
        {
          "indexed": false,
          "internalType": "uint256",
          "name": "multiplier",
          "type": "uint256"
        }
      ],
      "name": "CollateralMultiplierUpdated",
      "type": "event"
    },
    {
      "anonymous": false,
      "inputs": [
        {
          "indexed": true,
          "internalType": "address",
          "name": "previousOwner",
          "type": "address"
        },
        {
          "indexed": true,
          "internalType": "address",
          "name": "newOwner",
          "type": "address"
        }
      ],
      "name": "OwnershipTransferred",
      "type": "event"
    },
    {
      "anonymous": false,
      "inputs": [
        {
          "indexed": true,
          "internalType": "address",
          "name": "user",
          "type": "address"
        },
        {
          "indexed": false,
          "internalType": "uint256",
          "name": "newScore",
          "type": "uint256"
        },
        {
          "indexed": false,
          "internalType": "bool",
          "name": "success",
          "type": "bool"
        }
      ],
      "name": "ReputationUpdated",
      "type": "event"
    },
    {
      "anonymous": false,
      "inputs": [
        {
          "indexed": true,
          "internalType": "address",
          "name": "user",
          "type": "address"
        }
      ],
      "name": "UserBlacklisted",
      "type": "event"
    },
    {
      "anonymous": false,
      "inputs": [
        {
          "indexed": true,
          "internalType": "address",
          "name": "user",
          "type": "address"
        }
      ],
      "name": "UserWhitelisted",
      "type": "event"
    },
    {
      "inputs": [],
      "name": "COLLATERAL_FREE_THRESHOLD",
      "outputs": [
        {
          "internalType": "uint256",
          "name": "",
          "type": "uint256"
        }
      ],
      "stateMutability": "view",
      "type": "function"
    },
    {
      "inputs": [],
      "name": "MAX_SCORE",
      "outputs": [
        {
          "internalType": "uint256",
          "name": "",
          "type": "uint256"
        }
      ],
      "stateMutability": "view",
      "type": "function"
    },
    {
      "inputs": [],
      "name": "REDUCED_COLLATERAL_THRESHOLD",
      "outputs": [
        {
          "internalType": "uint256",
          "name": "",
          "type": "uint256"
        }
      ],
      "stateMutability": "view",
      "type": "function"
    },
    {
      "inputs": [],
      "name": "REPUTATION_GAIN",
      "outputs": [
        {
          "internalType": "uint256",
          "name": "",
          "type": "uint256"
        }
      ],
      "stateMutability": "view",
      "type": "function"
    },
    {
      "inputs": [],
      "name": "REPUTATION_LOSS",
      "outputs": [
        {
          "internalType": "uint256",
          "name": "",
          "type": "uint256"
        }
      ],
      "stateMutability": "view",
      "type": "function"
    },
    {
      "inputs": [
        {
          "internalType": "address",
          "name": "_contract",
          "type": "address"
        }
      ],
      "name": "addAuthorizedContract",
      "outputs": [],
      "stateMutability": "nonpayable",
      "type": "function"
    },
    {
      "inputs": [
        {
          "internalType": "address",
          "name": "",
          "type": "address"
        }
      ],
      "name": "authorizedContracts",
      "outputs": [
        {
          "internalType": "bool",
          "name": "",
          "type": "bool"
        }
      ],
      "stateMutability": "view",
      "type": "function"
    },
    {
      "inputs": [
        {
          "internalType": "address",
          "name": "user",
          "type": "address"
        }
      ],
      "name": "blacklistUser",
      "outputs": [],
      "stateMutability": "nonpayable",
      "type": "function"
    },
    {
      "inputs": [
        {
          "internalType": "string",
          "name": "name",
          "type": "string"
        },
        {
          "internalType": "uint256",
          "name": "requiredRentals",
          "type": "uint256"
        }
      ],
      "name": "createAchievement",
      "outputs": [],
      "stateMutability": "nonpayable",
      "type": "function"
    },
    {
      "inputs": [
        {
          "internalType": "uint256",
          "name": "index",
          "type": "uint256"
        }
      ],
      "name": "getAchievement",
      "outputs": [
        {
          "internalType": "string",
          "name": "name",
          "type": "string"
        },
        {
          "internalType": "uint256",
          "name": "requiredRentals",
          "type": "uint256"
        }
      ],
      "stateMutability": "pure",
      "type": "function"
    },
    {
      "inputs": [
        {
          "internalType": "address",
          "name": "user",
          "type": "address"
        }
      ],
      "name": "getCollateralMultiplier",
      "outputs": [
        {
          "internalType": "uint256",
          "name": "multiplier",
          "type": "uint256"
        }
      ],
      "stateMutability": "view",
      "type": "function"
    },
    {
      "inputs": [
        {
          "internalType": "address",
          "name": "user",
          "type": "address"
        }
      ],
      "name": "getRentalStats",
      "outputs": [
        {
          "internalType": "uint256",
          "name": "totalRentals",
          "type": "uint256"
        },
        {
          "internalType": "uint256",
          "name": "successfulRentals",
          "type": "uint256"
        },
        {
          "internalType": "uint256",
          "name": "successRate",
          "type": "uint256"
        }
      ],
      "stateMutability": "view",
      "type": "function"
    },
    {
      "inputs": [
        {
          "internalType": "address",
          "name": "user",
          "type": "address"
        }
      ],
      "name": "getReputationData",
      "outputs": [
        {
          "components": [
            {
              "internalType": "uint256",
              "name": "score",
              "type": "uint256"
            },
            {
              "internalType": "uint256",
              "name": "totalRentals",
              "type": "uint256"
            },
            {
              "internalType": "uint256",
              "name": "successfulRentals",
              "type": "uint256"
            },
            {
              "internalType": "uint256",
              "name": "lastUpdate",
              "type": "uint256"
            },
            {
              "internalType": "bool",
              "name": "isWhitelisted",
              "type": "bool"
            },
            {
              "internalType": "bool",
              "name": "isBlacklisted",
              "type": "bool"
            },
            {
              "internalType": "uint256",
              "name": "collateralMultiplier",
              "type": "uint256"
            }
          ],
          "internalType": "struct ReputationSystem.Reputation",
          "name": "rep",
          "type": "tuple"
        }
      ],
      "stateMutability": "view",
      "type": "function"
    },
    {
      "inputs": [
        {
          "internalType": "address",
          "name": "user",
          "type": "address"
        }
      ],
      "name": "getReputationScore",
      "outputs": [
        {
          "internalType": "uint256",
          "name": "",
          "type": "uint256"
        }
      ],
      "stateMutability": "view",
      "type": "function"
    },
    {
      "inputs": [
        {
          "internalType": "address",
          "name": "user",
          "type": "address"
        }
      ],
      "name": "getReputationTier",
      "outputs": [
        {
          "internalType": "uint256",
          "name": "tier",
          "type": "uint256"
        }
      ],
      "stateMutability": "view",
      "type": "function"
    },
    {
      "inputs": [
        {
          "internalType": "address",
          "name": "user",
          "type": "address"
        }
      ],
      "name": "getSuccessRate",
      "outputs": [
        {
          "internalType": "uint256",
          "name": "",
          "type": "uint256"
        }
      ],
      "stateMutability": "view",
      "type": "function"
    },
    {
      "inputs": [],
      "name": "getTotalAchievements",
      "outputs": [
        {
          "internalType": "uint256",
          "name": "",
          "type": "uint256"
        }
      ],
      "stateMutability": "pure",
      "type": "function"
    },
    {
      "inputs": [
        {
          "internalType": "address",
          "name": "user",
          "type": "address"
        }
      ],
      "name": "getUserAchievements",
      "outputs": [
        {
          "internalType": "uint256[]",
          "name": "",
          "type": "uint256[]"
        }
      ],
      "stateMutability": "view",
      "type": "function"
    },
    {
      "inputs": [
        {
          "internalType": "address",
          "name": "user",
          "type": "address"
        }
      ],
      "name": "getUserReputation",
      "outputs": [
        {
          "internalType": "uint256",
          "name": "",
          "type": "uint256"
        }
      ],
      "stateMutability": "view",
      "type": "function"
    },
    {
      "inputs": [
        {
          "internalType": "address",
          "name": "user",
          "type": "address"
        },
        {
          "internalType": "uint256",
          "name": "achievementIndex",
          "type": "uint256"
        }
      ],
      "name": "hasAchievement",
      "outputs": [
        {
          "internalType": "bool",
          "name": "",
          "type": "bool"
        }
      ],
      "stateMutability": "view",
      "type": "function"
    },
    {
      "inputs": [],
      "name": "owner",
      "outputs": [
        {
          "internalType": "address",
          "name": "",
          "type": "address"
        }
      ],
      "stateMutability": "view",
      "type": "function"
    },
    {
      "inputs": [
        {
          "internalType": "address",
          "name": "_contract",
          "type": "address"
        }
      ],
      "name": "removeAuthorizedContract",
      "outputs": [],
      "stateMutability": "nonpayable",
      "type": "function"
    },
    {
      "inputs": [
        {
          "internalType": "address",
          "name": "user",
          "type": "address"
        }
      ],
      "name": "removeUserFromLists",
      "outputs": [],
      "stateMutability": "nonpayable",
      "type": "function"
    },
    {
      "inputs": [],
      "name": "renounceOwnership",
      "outputs": [],
      "stateMutability": "nonpayable",
      "type": "function"
    },
    {
      "inputs": [],
      "name": "rentalContract",
      "outputs": [
        {
          "internalType": "address",
          "name": "",
          "type": "address"
        }
      ],
      "stateMutability": "view",
      "type": "function"
    },
    {
      "inputs": [
        {
          "internalType": "address",
          "name": "",
          "type": "address"
        }
      ],
      "name": "reputations",
      "outputs": [
        {
          "internalType": "uint256",
          "name": "score",
          "type": "uint256"
        },
        {
          "internalType": "uint256",
          "name": "totalRentals",
          "type": "uint256"
        },
        {
          "internalType": "uint256",
          "name": "successfulRentals",
          "type": "uint256"
        },
        {
          "internalType": "uint256",
          "name": "lastUpdate",
          "type": "uint256"
        },
        {
          "internalType": "bool",
          "name": "isWhitelisted",
          "type": "bool"
        },
        {
          "internalType": "bool",
          "name": "isBlacklisted",
          "type": "bool"
        },
        {
          "internalType": "uint256",
          "name": "collateralMultiplier",
          "type": "uint256"
        }
      ],
      "stateMutability": "view",
      "type": "function"
    },
    {
      "inputs": [
        {
          "internalType": "address",
          "name": "user",
          "type": "address"
        }
      ],
      "name": "requiresCollateral",
      "outputs": [
        {
          "internalType": "bool",
          "name": "",
          "type": "bool"
        }
      ],
      "stateMutability": "view",
      "type": "function"
    },
    {
      "inputs": [
        {
          "internalType": "address",
          "name": "_rentalContract",
          "type": "address"
        }
      ],
      "name": "setRentalContract",
      "outputs": [],
      "stateMutability": "nonpayable",
      "type": "function"
    },
    {
      "inputs": [
        {
          "internalType": "address",
          "name": "user",
          "type": "address"
        },
        {
          "internalType": "uint256",
          "name": "score",
          "type": "uint256"
        }
      ],
      "name": "setReputationScore",
      "outputs": [],
      "stateMutability": "nonpayable",
      "type": "function"
    },
    {
      "inputs": [
        {
          "internalType": "address",
          "name": "user",
          "type": "address"
        },
        {
          "internalType": "bool",
          "name": "blacklisted",
          "type": "bool"
        }
      ],
      "name": "setUserBlacklisted",
      "outputs": [],
      "stateMutability": "nonpayable",
      "type": "function"
    },
    {
      "inputs": [
        {
          "internalType": "address",
          "name": "newOwner",
          "type": "address"
        }
      ],
      "name": "transferOwnership",
      "outputs": [],
      "stateMutability": "nonpayable",
      "type": "function"
    },
    {
      "inputs": [
        {
          "internalType": "address",
          "name": "user",
          "type": "address"
        },
        {
          "internalType": "bool",
          "name": "success",
          "type": "bool"
        }
      ],
      "name": "updateReputation",
      "outputs": [],
      "stateMutability": "nonpayable",
      "type": "function"
    },
    {
      "inputs": [
        {
          "internalType": "address",
          "name": "user",
          "type": "address"
        }
      ],
      "name": "whitelistUser",
      "outputs": [],
      "stateMutability": "nonpayable",
      "type": "function"
    }
  ],
  "bytecode": "0x608060405234801561001057600080fd5b5061001a3361001f565b61006f565b600080546001600160a01b038381166001600160a01b0319831681178455604051919092169283917f8be0079c531659141344cd1fd0a4f28419497f9722a3daafe3b4186f6b6457e09190a35050565b6117068061007e6000396000f3fe608060405234801561001057600080fd5b50600436106101fb5760003560e01c806398eaa4a71161011a578063e2c13e32116100ad578063f0860c011161007c578063f0860c011461050b578063f09153c414610512578063f2ccc54314610532578063f2fde38b14610553578063fcbca4561461056657600080fd5b8063e2c13e32146104bf578063e6b165ed146104d2578063e8f4e9d4146104e5578063eeade3a2146104f857600080fd5b8063baccbfdb116100e9578063baccbfdb14610329578063bddb7c8314610476578063cb51037314610489578063d5b9221b1461049c57600080fd5b806398eaa4a71461040a578063a0d541fa1461041d578063ab5eba1614610425578063b6b3a2611461044857600080fd5b80636a01703f116101925780637a00d3c4116101615780637a00d3c4146103525780637b8b5f72146103bf57806385196798146103d25780638da5cb5b146103e557600080fd5b80636a01703f146103065780636be2cefb1461030e578063715018a61461032157806375a67d5c1461032957600080fd5b806346ff0967116101ce57806346ff0967146102c45780634a3b6c2f146102cd5780634a4c560d146102e05780635a63427e146102f357600080fd5b8063018174351461020057806306fa15a71461021c57806318870e35146102a657806327ff6223146102bb575b600080fd5b6102096101f481565b6040519081526020015b60405180910390f35b61026d61022a36600461142e565b600160208190526000918252604090912080549181015460028201546003830154600484015460059094015492939192909160ff80821692610100909204169087565b60408051978852602088019690965294860193909352606085019190915215156080840152151560a083015260c082015260e001610213565b6102b96102b4366004611449565b610579565b005b6102096103e881565b6102096102ee81565b6102b96102db366004611489565b61068f565b6102b96102ee36600461142e565b6106d8565b6102b961030136600461142e565b61073e565b610209600a81565b61020961031c36600461142e565b610768565b6102b961083a565b61020961033736600461142e565b6001600160a01b031660009081526001602052604090205490565b61036561036036600461142e565b61084e565b6040516102139190600060e0820190508251825260208301516020830152604083015160408301526060830151606083015260808301511515608083015260a0830151151560a083015260c083015160c083015292915050565b6102b96103cd36600461142e565b610908565b6102096103e036600461142e565b610982565b6000546001600160a01b03165b6040516001600160a01b039091168152602001610213565b6102b961041836600461142e565b610a1c565b610209601481565b610438610433366004611449565b610a48565b6040519015158152602001610213565b61045b61045636600461142e565b610b1a565b60408051938452602084019290925290820152606001610213565b6102b961048436600461153e565b610bd2565b61020961049736600461142e565b610c67565b6104386104aa36600461142e565b60036020526000908152604090205460ff1681565b6102b96104cd36600461153e565b610d0b565b6102b96104e036600461142e565b610e73565b6002546103f2906001600160a01b031681565b61043861050636600461142e565b610e9c565b6003610209565b61052561052036600461142e565b610f34565b604051610213919061157a565b6105456105403660046115be565b61112b565b6040516102139291906115d7565b6102b961056136600461142e565b611216565b6102b961057436600461142e565b61128f565b6105816112f4565b6103e88111156105d05760405162461bcd60e51b815260206004820152601560248201527453636f72652065786365656473206d6178696d756d60581b60448201526064015b60405180910390fd5b6001600160a01b03821660009081526001602052604090208181556105f48261134e565b600582015542600382015560408051838152600160208201526001600160a01b038516917fdb3885afbba6debf9c1bda35746ffcd3e3c749b3742be7c9a0904981b5befb99910160405180910390a2826001600160a01b03167f22812190fa3c1db0f86a47a0e51ca5dbc2d016c8f250f0a25f0f21726db4c7dd826005015460405161068291815260200190565b60405180910390a2505050565b6106976112f4565b60408051600081526001602082015233917fdb3885afbba6debf9c1bda35746ffcd3e3c749b3742be7c9a0904981b5befb9991015b60405180910390a25050565b6106e06112f4565b6001600160a01b038116600081815260016020819052604080832060048101805461ffff191690931790925560058201839055519092917f7409cb8e690bcd1487fd4fd27dad3fa92388d201ba6f953631d6d6b26299f84991a25050565b6107466112f4565b600280546001600160a01b0319166001600160a01b0392909216919091179055565b6001600160a01b0381166000908152600160208181526040808420815160e08101835281548152938101549284019290925260028201549083015260038101546060830152600481015460ff808216158015608086015261010090920416151560a084015260059091015460c08301526107e55750600492915050565b8060a00151156107f85750600092915050565b80516103841161080b5750600392915050565b80516102ee1161081e5750600292915050565b80516101f4116108315750600192915050565b50600092915050565b6108426112f4565b61084c60006113b1565b565b6108926040518060e0016040528060008152602001600081526020016000815260200160008152602001600015158152602001600015158152602001600081525090565b506001600160a01b0316600090815260016020818152604092839020835160e08101855281548152928101549183019190915260028101549282019290925260038201546060820152600482015460ff8082161515608084015261010090910416151560a082015260059091015460c082015290565b6109106112f4565b6001600160a01b038116600090815260016020526040902060048101805461ffff1916905580546109409061134e565b600582018190556040519081526001600160a01b038316907f22812190fa3c1db0f86a47a0e51ca5dbc2d016c8f250f0a25f0f21726db4c7dd906020016106cc565b6001600160a01b0381166000908152600160208181526040808420815160e08101835281548152938101549284019290925260028201549083015260038101546060830152600481015460ff808216151560808501526101009091041615801560a084015260059091015460c08301526109ff5750606492915050565b806080015115610a125750600092915050565b60c0015192915050565b610a246112f4565b6001600160a01b03166000908152600360205260409020805460ff19166001179055565b6001600160a01b0382166000908152600160208181526040808420815160e08101835281548152938101549284019290925260028201549083015260038101546060830152600481015460ff8082161515608085015261010090910416151560a08301526005015460c0820152828203610acb5760200151600111159050610b14565b82600103610ae25760200151600511159050610b14565b82600203610b0e57600a816020015110158015610b06575080602001518160400151145b915050610b14565b60009150505b92915050565b6001600160a01b0381166000908152600160208181526040808420815160e081018352815481529381015492840183905260028101549184019190915260038101546060840152600481015460ff8082161515608086015261010090910416151560a08401526005015460c0830152829182918290610b9a576000610bb9565b60208201516040830151610baf906064611642565b610bb99190611659565b6020830151604090930151929792965094509092505050565b610bda6112f4565b6001600160a01b0382166000908152600160205260409020600481018054831580156101000261ff001990921691909117909155610c575760048101805460ff191690556040516001600160a01b038416907f7f8b7dc89dae85811a7a85800b892b5816ad5d381c856f1b56490f8fc470c9cb90600090a2505050565b600401805461ffff191690555050565b6001600160a01b0381166000908152600160208181526040808420815160e081018352815481529381015492840183905260028101549184019190915260038101546060840152600481015460ff8082161515608086015261010090910416151560a08401526005015460c08301528203610ce55750600092915050565b60208101516040820151610cfa906064611642565b610d049190611659565b9392505050565b6002546001600160a01b0316331480610d3357503360009081526003602052604090205460ff165b610d705760405162461bcd60e51b815260206004820152600e60248201526d139bdd08185d5d1a1bdc9a5e995960921b60448201526064016105c7565b6001600160a01b03821660009081526001602052604081206003810154909103610da1576101f48155606460058201555b600181018054906000610db38361167b565b91905055508115610df857600281018054906000610dd08361167b565b9190505550610df16103e8600a8360000154610dec9190611694565b611401565b8155610e19565b8054601410610e08576000610e16565b8054610e16906014906116a7565b81555b8054610e249061134e565b600582015542600382015580546040805191825283151560208301526001600160a01b038516917fdb3885afbba6debf9c1bda35746ffcd3e3c749b3742be7c9a0904981b5befb999101610682565b610e7b6112f4565b6001600160a01b03166000908152600360205260409020805460ff19169055565b6001600160a01b0381166000908152600160208181526040808420815160e08101835281548152938101549284019290925260028201549083015260038101546060830152600481015460ff808216151560808501526101009091041615801560a084015260059091015460c0830152610f195750600192915050565b806080015180610f2c575080516102ee11155b159392505050565b6001600160a01b0381166000908152600160208181526040808420815160e081018352815481529381015484840152600281015484830152600380820154606080870191909152600483015460ff80821615156080808a019190915261010090920416151560a088015260059093015460c0870152835182815292830190935291949290919082018580368337019050509050600060018360200151106110015760008282610fe28161167b565b935081518110610ff457610ff46116ba565b6020026020010181815250505b6005836020015110611039576001828261101a8161167b565b93508151811061102c5761102c6116ba565b6020026020010181815250505b600a836020015110158015611055575082602001518360400151145b1561108657600282826110678161167b565b935081518110611079576110796116ba565b6020026020010181815250505b60008167ffffffffffffffff8111156110a1576110a1611473565b6040519080825280602002602001820160405280156110ca578160200160208202803683370190505b50905060005b82811015611121578381815181106110ea576110ea6116ba565b6020026020010151828281518110611104576111046116ba565b6020908102919091010152806111198161167b565b9150506110d0565b5095945050505050565b606060008260000361116357505060408051808201909152600c81526b119a5c9cdd0814995b9d185b60a21b60208201529160019150565b8260010361119857505060408051808201909152600d81526c52656e74616c204e6f7669636560981b60208201529160059150565b826002036111ce57505060408051808201909152600e81526d14195c999958dd08149958dbdc9960921b602082015291600a9150565b60405162461bcd60e51b815260206004820152601960248201527f496e76616c696420616368696576656d656e7420696e6465780000000000000060448201526064016105c7565b61121e6112f4565b6001600160a01b0381166112835760405162461bcd60e51b815260206004820152602660248201527f4f776e61626c653a206e6577206f776e657220697320746865207a65726f206160448201526564647265737360d01b60648201526084016105c7565b61128c816113b1565b50565b6112976112f4565b6001600160a01b03811660008181526001602052604080822060048101805461ffff19166101001790556064600582015590519092917f7f8b7dc89dae85811a7a85800b892b5816ad5d381c856f1b56490f8fc470c9cb91a25050565b6000546001600160a01b0316331461084c5760405162461bcd60e51b815260206004820181905260248201527f4f776e61626c653a2063616c6c6572206973206e6f7420746865206f776e657260448201526064016105c7565b60006102ee821061136157506000919050565b6101f482106113a4576113786101f46102ee6116a7565b6113846101f4846116a7565b61138f906064611642565b6113999190611659565b610b149060646116a7565b506064919050565b919050565b600080546001600160a01b038381166001600160a01b0319831681178455604051919092169283917f8be0079c531659141344cd1fd0a4f28419497f9722a3daafe3b4186f6b6457e09190a35050565b60008183106114105781610d04565b5090919050565b80356001600160a01b03811681146113ac57600080fd5b60006020828403121561144057600080fd5b610d0482611417565b6000806040838503121561145c57600080fd5b61146583611417565b946020939093013593505050565b634e487b7160e01b600052604160045260246000fd5b6000806040838503121561149c57600080fd5b823567ffffffffffffffff808211156114b457600080fd5b818501915085601f8301126114c857600080fd5b8135818111156114da576114da611473565b604051601f8201601f19908116603f0116810190838211818310171561150257611502611473565b8160405282815288602084870101111561151b57600080fd5b826020860160208301376000602093820184015298969091013596505050505050565b6000806040838503121561155157600080fd5b61155a83611417565b91506020830135801515811461156f57600080fd5b809150509250929050565b6020808252825182820181905260009190848201906040850190845b818110156115b257835183529284019291840191600101611596565b50909695505050505050565b6000602082840312156115d057600080fd5b5035919050565b604081526000835180604084015260005b8181101561160557602081870181015160608684010152016115e8565b506000606082850101526060601f19601f8301168401019150508260208301529392505050565b634e487b7160e01b600052601160045260246000fd5b8082028115828204841417610b1457610b1461162c565b60008261167657634e487b7160e01b600052601260045260246000fd5b500490565b60006001820161168d5761168d61162c565b5060010190565b80820180821115610b1457610b1461162c565b81810381811115610b1457610b1461162c565b634e487b7160e01b600052603260045260246000fdfea2646970667358221220f5c747dfcf90e264974a167edc875dd9a6f9bc8c1408e50b7e75f2a8a26009b864736f6c63430008130033",
  "linkReferences": {},
  "deployedLinkReferences": {}
}