{
  "_format": "hh-sol-artifact-1",
  "contractName": "ReputationSystem",
  "sourceName": "contracts/ReputationSystem.sol",
  "abi": [
    {
      "anonymous": false,
      "inputs": [
        {
          "indexed": true,
          "internalType": "address",
          "name": "user",
          "type": "address"
        },
        {
          "indexed": false,
          "internalType": "uint256",
          "name": "multiplier",
          "type": "uint256"
        }
      ],
      "name": "CollateralMultiplierUpdated",
      "type": "event"
    },
    {
      "anonymous": false,
      "inputs": [
        {
          "indexed": true,
          "internalType": "address",
          "name": "previousOwner",
          "type": "address"
        },
        {
          "indexed": true,
          "internalType": "address",
          "name": "newOwner",
          "type": "address"
        }
      ],
      "name": "OwnershipTransferred",
      "type": "event"
    },
    {
      "anonymous": false,
      "inputs": [
        {
          "indexed": true,
          "internalType": "address",
          "name": "user",
          "type": "address"
        },
        {
          "indexed": false,
          "internalType": "uint256",
          "name": "newScore",
          "type": "uint256"
        },
        {
          "indexed": false,
          "internalType": "bool",
          "name": "success",
          "type": "bool"
        }
      ],
      "name": "ReputationUpdated",
      "type": "event"
    },
    {
      "anonymous": false,
      "inputs": [
        {
          "indexed": true,
          "internalType": "address",
          "name": "user",
          "type": "address"
        }
      ],
      "name": "UserBlacklisted",
      "type": "event"
    },
    {
      "anonymous": false,
      "inputs": [
        {
          "indexed": true,
          "internalType": "address",
          "name": "user",
          "type": "address"
        }
      ],
      "name": "UserWhitelisted",
      "type": "event"
    },
    {
      "inputs": [],
      "name": "COLLATERAL_FREE_THRESHOLD",
      "outputs": [
        {
          "internalType": "uint256",
          "name": "",
          "type": "uint256"
        }
      ],
      "stateMutability": "view",
      "type": "function"
    },
    {
      "inputs": [],
      "name": "MAX_SCORE",
      "outputs": [
        {
          "internalType": "uint256",
          "name": "",
          "type": "uint256"
        }
      ],
      "stateMutability": "view",
      "type": "function"
    },
    {
      "inputs": [],
      "name": "REDUCED_COLLATERAL_THRESHOLD",
      "outputs": [
        {
          "internalType": "uint256",
          "name": "",
          "type": "uint256"
        }
      ],
      "stateMutability": "view",
      "type": "function"
    },
    {
      "inputs": [],
      "name": "REPUTATION_GAIN",
      "outputs": [
        {
          "internalType": "uint256",
          "name": "",
          "type": "uint256"
        }
      ],
      "stateMutability": "view",
      "type": "function"
    },
    {
      "inputs": [],
      "name": "REPUTATION_LOSS",
      "outputs": [
        {
          "internalType": "uint256",
          "name": "",
          "type": "uint256"
        }
      ],
      "stateMutability": "view",
      "type": "function"
    },
    {
      "inputs": [
        {
          "internalType": "address",
          "name": "_contract",
          "type": "address"
        }
      ],
      "name": "addAuthorizedContract",
      "outputs": [],
      "stateMutability": "nonpayable",
      "type": "function"
    },
    {
      "inputs": [
        {
          "internalType": "address",
          "name": "user",
          "type": "address"
        }
      ],
      "name": "blacklistUser",
      "outputs": [],
      "stateMutability": "nonpayable",
      "type": "function"
    },
    {
      "inputs": [
        {
          "internalType": "address",
          "name": "user",
          "type": "address"
        }
      ],
      "name": "getCollateralMultiplier",
      "outputs": [
        {
          "internalType": "uint256",
          "name": "multiplier",
          "type": "uint256"
        }
      ],
      "stateMutability": "view",
      "type": "function"
    },
    {
      "inputs": [
        {
          "internalType": "address",
          "name": "user",
          "type": "address"
        }
      ],
      "name": "getRentalStats",
      "outputs": [
        {
          "internalType": "uint256",
          "name": "totalRentals",
          "type": "uint256"
        },
        {
          "internalType": "uint256",
          "name": "successfulRentals",
          "type": "uint256"
        },
        {
          "internalType": "uint256",
          "name": "successRate",
          "type": "uint256"
        }
      ],
      "stateMutability": "view",
      "type": "function"
    },
    {
      "inputs": [
        {
          "internalType": "address",
          "name": "user",
          "type": "address"
        }
      ],
      "name": "getReputationData",
      "outputs": [
        {
          "components": [
            {
              "internalType": "uint256",
              "name": "score",
              "type": "uint256"
            },
            {
              "internalType": "uint256",
              "name": "totalRentals",
              "type": "uint256"
            },
            {
              "internalType": "uint256",
              "name": "successfulRentals",
              "type": "uint256"
            },
            {
              "internalType": "uint256",
              "name": "lastUpdate",
              "type": "uint256"
            },
            {
              "internalType": "bool",
              "name": "isWhitelisted",
              "type": "bool"
            },
            {
              "internalType": "bool",
              "name": "isBlacklisted",
              "type": "bool"
            },
            {
              "internalType": "uint256",
              "name": "collateralMultiplier",
              "type": "uint256"
            }
          ],
          "internalType": "struct ReputationSystem.Reputation",
          "name": "rep",
          "type": "tuple"
        }
      ],
      "stateMutability": "view",
      "type": "function"
    },
    {
      "inputs": [
        {
          "internalType": "address",
          "name": "user",
          "type": "address"
        }
      ],
      "name": "getReputationScore",
      "outputs": [
        {
          "internalType": "uint256",
          "name": "",
          "type": "uint256"
        }
      ],
      "stateMutability": "view",
      "type": "function"
    },
    {
      "inputs": [
        {
          "internalType": "address",
          "name": "user",
          "type": "address"
        }
      ],
      "name": "getReputationTier",
      "outputs": [
        {
          "internalType": "uint256",
          "name": "tier",
          "type": "uint256"
        }
      ],
      "stateMutability": "view",
      "type": "function"
    },
    {
      "inputs": [],
      "name": "owner",
      "outputs": [
        {
          "internalType": "address",
          "name": "",
          "type": "address"
        }
      ],
      "stateMutability": "view",
      "type": "function"
    },
    {
      "inputs": [
        {
          "internalType": "address",
          "name": "user",
          "type": "address"
        }
      ],
      "name": "removeUserFromLists",
      "outputs": [],
      "stateMutability": "nonpayable",
      "type": "function"
    },
    {
      "inputs": [],
      "name": "renounceOwnership",
      "outputs": [],
      "stateMutability": "nonpayable",
      "type": "function"
    },
    {
      "inputs": [],
      "name": "rentalContract",
      "outputs": [
        {
          "internalType": "address",
          "name": "",
          "type": "address"
        }
      ],
      "stateMutability": "view",
      "type": "function"
    },
    {
      "inputs": [
        {
          "internalType": "address",
          "name": "",
          "type": "address"
        }
      ],
      "name": "reputations",
      "outputs": [
        {
          "internalType": "uint256",
          "name": "score",
          "type": "uint256"
        },
        {
          "internalType": "uint256",
          "name": "totalRentals",
          "type": "uint256"
        },
        {
          "internalType": "uint256",
          "name": "successfulRentals",
          "type": "uint256"
        },
        {
          "internalType": "uint256",
          "name": "lastUpdate",
          "type": "uint256"
        },
        {
          "internalType": "bool",
          "name": "isWhitelisted",
          "type": "bool"
        },
        {
          "internalType": "bool",
          "name": "isBlacklisted",
          "type": "bool"
        },
        {
          "internalType": "uint256",
          "name": "collateralMultiplier",
          "type": "uint256"
        }
      ],
      "stateMutability": "view",
      "type": "function"
    },
    {
      "inputs": [
        {
          "internalType": "address",
          "name": "user",
          "type": "address"
        }
      ],
      "name": "requiresCollateral",
      "outputs": [
        {
          "internalType": "bool",
          "name": "",
          "type": "bool"
        }
      ],
      "stateMutability": "view",
      "type": "function"
    },
    {
      "inputs": [
        {
          "internalType": "address",
          "name": "_rentalContract",
          "type": "address"
        }
      ],
      "name": "setRentalContract",
      "outputs": [],
      "stateMutability": "nonpayable",
      "type": "function"
    },
    {
      "inputs": [
        {
          "internalType": "address",
          "name": "user",
          "type": "address"
        },
        {
          "internalType": "uint256",
          "name": "score",
          "type": "uint256"
        }
      ],
      "name": "setReputationScore",
      "outputs": [],
      "stateMutability": "nonpayable",
      "type": "function"
    },
    {
      "inputs": [
        {
          "internalType": "address",
          "name": "newOwner",
          "type": "address"
        }
      ],
      "name": "transferOwnership",
      "outputs": [],
      "stateMutability": "nonpayable",
      "type": "function"
    },
    {
      "inputs": [
        {
          "internalType": "address",
          "name": "user",
          "type": "address"
        },
        {
          "internalType": "bool",
          "name": "success",
          "type": "bool"
        }
      ],
      "name": "updateReputation",
      "outputs": [],
      "stateMutability": "nonpayable",
      "type": "function"
    },
    {
      "inputs": [
        {
          "internalType": "address",
          "name": "user",
          "type": "address"
        }
      ],
      "name": "whitelistUser",
      "outputs": [],
      "stateMutability": "nonpayable",
      "type": "function"
    }
  ],
  "bytecode": "0x608060405234801561001057600080fd5b5061001a3361001f565b61006f565b600080546001600160a01b038381166001600160a01b0319831681178455604051919092169283917f8be0079c531659141344cd1fd0a4f28419497f9722a3daafe3b4186f6b6457e09190a35050565b610e6b8061007e6000396000f3fe608060405234801561001057600080fd5b506004361061014d5760003560e01c80637a00d3c4116100c3578063b6b3a2611161007c578063b6b3a26114610351578063e2c13e321461037f578063e8f4e9d414610392578063eeade3a2146103a5578063f2fde38b146103c8578063fcbca456146103db57600080fd5b80637a00d3c4146102915780637b8b5f72146102fe57806385196798146103115780638da5cb5b1461032457806398eaa4a714610232578063a0d541fa1461034957600080fd5b80634a4c560d116101155780634a4c560d1461021f5780635a63427e146102325780636a01703f146102455780636be2cefb1461024d578063715018a61461026057806375a67d5c1461026857600080fd5b8063018174351461015257806306fa15a71461016e57806318870e35146101f857806327ff62231461020d57806346ff096714610216575b600080fd5b61015b6101f481565b6040519081526020015b60405180910390f35b6101bf61017c366004610d26565b600160208190526000918252604090912080549181015460028201546003830154600484015460059094015492939192909160ff80821692610100909204169087565b60408051978852602088019690965294860193909352606085019190915215156080840152151560a083015260c082015260e001610165565b61020b610206366004610d41565b6103ee565b005b61015b6103e881565b61015b6102ee81565b61020b61022d366004610d26565b610504565b61020b610240366004610d26565b61056a565b61015b600a81565b61015b61025b366004610d26565b610594565b61020b610666565b61015b610276366004610d26565b6001600160a01b031660009081526001602052604090205490565b6102a461029f366004610d26565b61067a565b6040516101659190600060e0820190508251825260208301516020830152604083015160408301526060830151606083015260808301511515608083015260a0830151151560a083015260c083015160c083015292915050565b61020b61030c366004610d26565b610734565b61015b61031f366004610d26565b6107b5565b6000546001600160a01b03165b6040516001600160a01b039091168152602001610165565b61015b601481565b61036461035f366004610d26565b61084f565b60408051938452602084019290925290820152606001610165565b61020b61038d366004610d6b565b610907565b600254610331906001600160a01b031681565b6103b86103b3366004610d26565b610a6e565b6040519015158152602001610165565b61020b6103d6366004610d26565b610b06565b61020b6103e9366004610d26565b610b7f565b6103f6610be4565b6103e88111156104455760405162461bcd60e51b815260206004820152601560248201527453636f72652065786365656473206d6178696d756d60581b60448201526064015b60405180910390fd5b6001600160a01b038216600090815260016020526040902081815561046982610c3e565b600582015542600382015560408051838152600160208201526001600160a01b038516917fdb3885afbba6debf9c1bda35746ffcd3e3c749b3742be7c9a0904981b5befb99910160405180910390a2826001600160a01b03167f22812190fa3c1db0f86a47a0e51ca5dbc2d016c8f250f0a25f0f21726db4c7dd82600501546040516104f791815260200190565b60405180910390a2505050565b61050c610be4565b6001600160a01b038116600081815260016020819052604080832060048101805461ffff191690931790925560058201839055519092917f7409cb8e690bcd1487fd4fd27dad3fa92388d201ba6f953631d6d6b26299f84991a25050565b610572610be4565b600280546001600160a01b0319166001600160a01b0392909216919091179055565b6001600160a01b0381166000908152600160208181526040808420815160e08101835281548152938101549284019290925260028201549083015260038101546060830152600481015460ff808216158015608086015261010090920416151560a084015260059091015460c08301526106115750600492915050565b8060a00151156106245750600092915050565b8051610384116106375750600392915050565b80516102ee1161064a5750600292915050565b80516101f41161065d5750600192915050565b50600092915050565b61066e610be4565b6106786000610ca7565b565b6106be6040518060e0016040528060008152602001600081526020016000815260200160008152602001600015158152602001600015158152602001600081525090565b506001600160a01b0316600090815260016020818152604092839020835160e08101855281548152928101549183019190915260028101549282019290925260038201546060820152600482015460ff8082161515608084015261010090910416151560a082015260059091015460c082015290565b61073c610be4565b6001600160a01b038116600090815260016020526040902060048101805461ffff19169055805461076c90610c3e565b600582018190556040519081526001600160a01b038316907f22812190fa3c1db0f86a47a0e51ca5dbc2d016c8f250f0a25f0f21726db4c7dd9060200160405180910390a25050565b6001600160a01b0381166000908152600160208181526040808420815160e08101835281548152938101549284019290925260028201549083015260038101546060830152600481015460ff808216151560808501526101009091041615801560a084015260059091015460c08301526108325750606492915050565b8060800151156108455750600092915050565b60c0015192915050565b6001600160a01b0381166000908152600160208181526040808420815160e081018352815481529381015492840183905260028101549184019190915260038101546060840152600481015460ff8082161515608086015261010090910416151560a08401526005015460c08301528291829182906108cf5760006108ee565b602082015160408301516108e4906064610dbd565b6108ee9190610dd4565b6020830151604090930151929792965094509092505050565b6002546001600160a01b0316331461096b5760405162461bcd60e51b815260206004820152602160248201527f43616c6c6572206973206e6f74207468652072656e74616c20636f6e747261636044820152601d60fa1b606482015260840161043c565b6001600160a01b0382166000908152600160205260408120600381015490910361099c576101f48155606460058201555b6001810180549060006109ae83610df6565b919050555081156109f3576002810180549060006109cb83610df6565b91905055506109ec6103e8600a83600001546109e79190610e0f565b610cf7565b8155610a14565b8054601410610a03576000610a11565b8054610a1190601490610e22565b81555b8054610a1f90610c3e565b600582015542600382015580546040805191825283151560208301526001600160a01b038516917fdb3885afbba6debf9c1bda35746ffcd3e3c749b3742be7c9a0904981b5befb9991016104f7565b6001600160a01b0381166000908152600160208181526040808420815160e08101835281548152938101549284019290925260028201549083015260038101546060830152600481015460ff808216151560808501526101009091041615801560a084015260059091015460c0830152610aeb5750600192915050565b806080015180610afe575080516102ee11155b159392505050565b610b0e610be4565b6001600160a01b038116610b735760405162461bcd60e51b815260206004820152602660248201527f4f776e61626c653a206e6577206f776e657220697320746865207a65726f206160448201526564647265737360d01b606482015260840161043c565b610b7c81610ca7565b50565b610b87610be4565b6001600160a01b03811660008181526001602052604080822060048101805461ffff19166101001790556064600582015590519092917f7f8b7dc89dae85811a7a85800b892b5816ad5d381c856f1b56490f8fc470c9cb91a25050565b6000546001600160a01b031633146106785760405162461bcd60e51b815260206004820181905260248201527f4f776e61626c653a2063616c6c6572206973206e6f7420746865206f776e6572604482015260640161043c565b60006102ee8210610c5157506000919050565b6101f48210610c9a57610c686101f46102ee610e22565b610c746101f484610e22565b610c7f906064610dbd565b610c899190610dd4565b610c94906064610e22565b92915050565b506064919050565b919050565b600080546001600160a01b038381166001600160a01b0319831681178455604051919092169283917f8be0079c531659141344cd1fd0a4f28419497f9722a3daafe3b4186f6b6457e09190a35050565b6000818310610d065781610d08565b825b9392505050565b80356001600160a01b0381168114610ca257600080fd5b600060208284031215610d3857600080fd5b610d0882610d0f565b60008060408385031215610d5457600080fd5b610d5d83610d0f565b946020939093013593505050565b60008060408385031215610d7e57600080fd5b610d8783610d0f565b915060208301358015158114610d9c57600080fd5b809150509250929050565b634e487b7160e01b600052601160045260246000fd5b8082028115828204841417610c9457610c94610da7565b600082610df157634e487b7160e01b600052601260045260246000fd5b500490565b600060018201610e0857610e08610da7565b5060010190565b80820180821115610c9457610c94610da7565b81810381811115610c9457610c94610da756fea2646970667358221220bf4d2eb3adb4f294d5b6a0570999f832c22439812fdb6abe7dd66a7bc860e20164736f6c63430008130033",
  "linkReferences": {},
  "deployedLinkReferences": {}
}