{
  "_format": "hh-sol-artifact-1",
  "contractName": "ReputationSystem",
  "sourceName": "contracts/ReputationSystem.sol",
  "abi": [
    {
      "inputs": [],
      "stateMutability": "nonpayable",
      "type": "constructor"
    },
    {
      "anonymous": false,
      "inputs": [
        {
          "indexed": true,
          "internalType": "address",
          "name": "user",
          "type": "address"
        },
        {
          "indexed": true,
          "internalType": "uint256",
          "name": "achievementId",
          "type": "uint256"
        },
        {
          "indexed": false,
          "internalType": "string",
          "name": "achievementName",
          "type": "string"
        }
      ],
      "name": "AchievementUnlocked",
      "type": "event"
    },
    {
      "anonymous": false,
      "inputs": [
        {
          "indexed": true,
          "internalType": "address",
          "name": "previousOwner",
          "type": "address"
        },
        {
          "indexed": true,
          "internalType": "address",
          "name": "newOwner",
          "type": "address"
        }
      ],
      "name": "OwnershipTransferred",
      "type": "event"
    },
    {
      "anonymous": false,
      "inputs": [
        {
          "indexed": true,
          "internalType": "address",
          "name": "user",
          "type": "address"
        },
        {
          "indexed": false,
          "internalType": "uint256",
          "name": "oldScore",
          "type": "uint256"
        },
        {
          "indexed": false,
          "internalType": "uint256",
          "name": "newScore",
          "type": "uint256"
        },
        {
          "indexed": false,
          "internalType": "bool",
          "name": "success",
          "type": "bool"
        }
      ],
      "name": "ReputationUpdated",
      "type": "event"
    },
    {
      "anonymous": false,
      "inputs": [
        {
          "indexed": true,
          "internalType": "address",
          "name": "user",
          "type": "address"
        },
        {
          "indexed": false,
          "internalType": "bool",
          "name": "blacklisted",
          "type": "bool"
        }
      ],
      "name": "UserBlacklisted",
      "type": "event"
    },
    {
      "inputs": [],
      "name": "MAX_REPUTATION_SCORE",
      "outputs": [
        {
          "internalType": "uint256",
          "name": "",
          "type": "uint256"
        }
      ],
      "stateMutability": "view",
      "type": "function"
    },
    {
      "inputs": [],
      "name": "REPUTATION_GAIN",
      "outputs": [
        {
          "internalType": "uint256",
          "name": "",
          "type": "uint256"
        }
      ],
      "stateMutability": "view",
      "type": "function"
    },
    {
      "inputs": [],
      "name": "REPUTATION_LOSS",
      "outputs": [
        {
          "internalType": "uint256",
          "name": "",
          "type": "uint256"
        }
      ],
      "stateMutability": "view",
      "type": "function"
    },
    {
      "inputs": [],
      "name": "REPUTATION_THRESHOLD_HIGH",
      "outputs": [
        {
          "internalType": "uint256",
          "name": "",
          "type": "uint256"
        }
      ],
      "stateMutability": "view",
      "type": "function"
    },
    {
      "inputs": [],
      "name": "REPUTATION_THRESHOLD_LOW",
      "outputs": [
        {
          "internalType": "uint256",
          "name": "",
          "type": "uint256"
        }
      ],
      "stateMutability": "view",
      "type": "function"
    },
    {
      "inputs": [],
      "name": "REPUTATION_THRESHOLD_MID",
      "outputs": [
        {
          "internalType": "uint256",
          "name": "",
          "type": "uint256"
        }
      ],
      "stateMutability": "view",
      "type": "function"
    },
    {
      "inputs": [
        {
          "internalType": "uint256",
          "name": "",
          "type": "uint256"
        }
      ],
      "name": "achievements",
      "outputs": [
        {
          "internalType": "string",
          "name": "name",
          "type": "string"
        },
        {
          "internalType": "string",
          "name": "description",
          "type": "string"
        },
        {
          "internalType": "uint256",
          "name": "requirement",
          "type": "uint256"
        },
        {
          "internalType": "uint256",
          "name": "rewardPoints",
          "type": "uint256"
        },
        {
          "internalType": "bool",
          "name": "active",
          "type": "bool"
        }
      ],
      "stateMutability": "view",
      "type": "function"
    },
    {
      "inputs": [
        {
          "internalType": "address",
          "name": "contractAddr",
          "type": "address"
        }
      ],
      "name": "addAuthorizedContract",
      "outputs": [],
      "stateMutability": "nonpayable",
      "type": "function"
    },
    {
      "inputs": [
        {
          "internalType": "address",
          "name": "",
          "type": "address"
        }
      ],
      "name": "authorizedContracts",
      "outputs": [
        {
          "internalType": "bool",
          "name": "",
          "type": "bool"
        }
      ],
      "stateMutability": "view",
      "type": "function"
    },
    {
      "inputs": [
        {
          "internalType": "string",
          "name": "name",
          "type": "string"
        },
        {
          "internalType": "string",
          "name": "description",
          "type": "string"
        },
        {
          "internalType": "uint256",
          "name": "requirement",
          "type": "uint256"
        },
        {
          "internalType": "uint256",
          "name": "rewardPoints",
          "type": "uint256"
        }
      ],
      "name": "createAchievement",
      "outputs": [],
      "stateMutability": "nonpayable",
      "type": "function"
    },
    {
      "inputs": [
        {
          "internalType": "uint256",
          "name": "achievementId",
          "type": "uint256"
        }
      ],
      "name": "getAchievement",
      "outputs": [
        {
          "components": [
            {
              "internalType": "string",
              "name": "name",
              "type": "string"
            },
            {
              "internalType": "string",
              "name": "description",
              "type": "string"
            },
            {
              "internalType": "uint256",
              "name": "requirement",
              "type": "uint256"
            },
            {
              "internalType": "uint256",
              "name": "rewardPoints",
              "type": "uint256"
            },
            {
              "internalType": "bool",
              "name": "active",
              "type": "bool"
            }
          ],
          "internalType": "struct ReputationSystem.Achievement",
          "name": "",
          "type": "tuple"
        }
      ],
      "stateMutability": "view",
      "type": "function"
    },
    {
      "inputs": [
        {
          "internalType": "address",
          "name": "user",
          "type": "address"
        }
      ],
      "name": "getCollateralMultiplier",
      "outputs": [
        {
          "internalType": "uint256",
          "name": "",
          "type": "uint256"
        }
      ],
      "stateMutability": "view",
      "type": "function"
    },
    {
      "inputs": [
        {
          "internalType": "address",
          "name": "user",
          "type": "address"
        }
      ],
      "name": "getSuccessRate",
      "outputs": [
        {
          "internalType": "uint256",
          "name": "",
          "type": "uint256"
        }
      ],
      "stateMutability": "view",
      "type": "function"
    },
    {
      "inputs": [],
      "name": "getTotalAchievements",
      "outputs": [
        {
          "internalType": "uint256",
          "name": "",
          "type": "uint256"
        }
      ],
      "stateMutability": "view",
      "type": "function"
    },
    {
      "inputs": [
        {
          "internalType": "address",
          "name": "user",
          "type": "address"
        }
      ],
      "name": "getUserAchievements",
      "outputs": [
        {
          "internalType": "uint256[]",
          "name": "",
          "type": "uint256[]"
        }
      ],
      "stateMutability": "view",
      "type": "function"
    },
    {
      "inputs": [
        {
          "internalType": "address",
          "name": "user",
          "type": "address"
        }
      ],
      "name": "getUserReputation",
      "outputs": [
        {
          "components": [
            {
              "internalType": "uint256",
              "name": "totalRentals",
              "type": "uint256"
            },
            {
              "internalType": "uint256",
              "name": "successfulRentals",
              "type": "uint256"
            },
            {
              "internalType": "uint256",
              "name": "reputationScore",
              "type": "uint256"
            },
            {
              "internalType": "uint256",
              "name": "lastUpdated",
              "type": "uint256"
            },
            {
              "internalType": "bool",
              "name": "blacklisted",
              "type": "bool"
            }
          ],
          "internalType": "struct ReputationSystem.UserReputation",
          "name": "",
          "type": "tuple"
        }
      ],
      "stateMutability": "view",
      "type": "function"
    },
    {
      "inputs": [
        {
          "internalType": "address",
          "name": "user",
          "type": "address"
        },
        {
          "internalType": "uint256",
          "name": "achievementId",
          "type": "uint256"
        }
      ],
      "name": "hasAchievement",
      "outputs": [
        {
          "internalType": "bool",
          "name": "",
          "type": "bool"
        }
      ],
      "stateMutability": "view",
      "type": "function"
    },
    {
      "inputs": [],
      "name": "nextAchievementId",
      "outputs": [
        {
          "internalType": "uint256",
          "name": "",
          "type": "uint256"
        }
      ],
      "stateMutability": "view",
      "type": "function"
    },
    {
      "inputs": [],
      "name": "owner",
      "outputs": [
        {
          "internalType": "address",
          "name": "",
          "type": "address"
        }
      ],
      "stateMutability": "view",
      "type": "function"
    },
    {
      "inputs": [
        {
          "internalType": "address",
          "name": "contractAddr",
          "type": "address"
        }
      ],
      "name": "removeAuthorizedContract",
      "outputs": [],
      "stateMutability": "nonpayable",
      "type": "function"
    },
    {
      "inputs": [],
      "name": "renounceOwnership",
      "outputs": [],
      "stateMutability": "nonpayable",
      "type": "function"
    },
    {
      "inputs": [
        {
          "internalType": "address",
          "name": "user",
          "type": "address"
        },
        {
          "internalType": "bool",
          "name": "blacklisted",
          "type": "bool"
        }
      ],
      "name": "setUserBlacklisted",
      "outputs": [],
      "stateMutability": "nonpayable",
      "type": "function"
    },
    {
      "inputs": [
        {
          "internalType": "address",
          "name": "newOwner",
          "type": "address"
        }
      ],
      "name": "transferOwnership",
      "outputs": [],
      "stateMutability": "nonpayable",
      "type": "function"
    },
    {
      "inputs": [
        {
          "internalType": "address",
          "name": "user",
          "type": "address"
        },
        {
          "internalType": "bool",
          "name": "success",
          "type": "bool"
        }
      ],
      "name": "updateReputation",
      "outputs": [],
      "stateMutability": "nonpayable",
      "type": "function"
    },
    {
      "inputs": [
        {
          "internalType": "address",
          "name": "",
          "type": "address"
        },
        {
          "internalType": "uint256",
          "name": "",
          "type": "uint256"
        }
      ],
      "name": "userAchievements",
      "outputs": [
        {
          "internalType": "bool",
          "name": "",
          "type": "bool"
        }
      ],
      "stateMutability": "view",
      "type": "function"
    },
    {
      "inputs": [
        {
          "internalType": "address",
          "name": "",
          "type": "address"
        }
      ],
      "name": "userReputations",
      "outputs": [
        {
          "internalType": "uint256",
          "name": "totalRentals",
          "type": "uint256"
        },
        {
          "internalType": "uint256",
          "name": "successfulRentals",
          "type": "uint256"
        },
        {
          "internalType": "uint256",
          "name": "reputationScore",
          "type": "uint256"
        },
        {
          "internalType": "uint256",
          "name": "lastUpdated",
          "type": "uint256"
        },
        {
          "internalType": "bool",
          "name": "blacklisted",
          "type": "bool"
        }
      ],
      "stateMutability": "view",
      "type": "function"
    }
  ],
  "bytecode": "0x60806040523480156200001157600080fd5b506200001d3362000233565b6200008c6040518060400160405280600c81526020016b119a5c9cdd0814995b9d185b60a21b8152506040518060400160405280601a81526020017f436f6d706c65746520796f75722066697273742072656e74616c000000000000815250600160326200028360201b60201c565b620000fc6040518060400160405280600d81526020016c52656e74616c204e6f7669636560981b8152506040518060400160405280601381526020017f436f6d706c6574652031302072656e74616c7300000000000000000000000000815250600a60646200028360201b60201c565b6200016c6040518060400160405280600d81526020016c14995b9d185b08115e1c195c9d609a1b8152506040518060400160405280601381526020017f436f6d706c6574652035302072656e74616c7300000000000000000000000000815250603260c86200028360201b60201c565b620001dd6040518060400160405280600d81526020016c2932b73a30b61026b0b9ba32b960991b8152506040518060400160405280601481526020017f436f6d706c657465203130302072656e74616c73000000000000000000000000815250606461012c6200028360201b60201c565b6200022d6040518060400160405280600e81526020016d14195c999958dd08149958dbdc9960921b8152506040518060600160405280602b815260200162001b6a602b913960146101f462000283565b620004cc565b600080546001600160a01b038381166001600160a01b0319831681178455604051919092169283917f8be0079c531659141344cd1fd0a4f28419497f9722a3daafe3b4186f6b6457e09190a35050565b6005805460009182620002968362000333565b909155506040805160a081018252878152602080820188905281830187905260608201869052600160808301526000848152600390915291909120815192935090918190620002e6908262000400565b5060208201516001820190620002fd908262000400565b5060408201516002820155606082015160038201556080909101516004909101805460ff19169115159190911790555050505050565b6000600182016200035457634e487b7160e01b600052601160045260246000fd5b5060010190565b634e487b7160e01b600052604160045260246000fd5b600181811c908216806200038657607f821691505b602082108103620003a757634e487b7160e01b600052602260045260246000fd5b50919050565b601f821115620003fb57600081815260208120601f850160051c81016020861015620003d65750805b601f850160051c820191505b81811015620003f757828155600101620003e2565b5050505b505050565b81516001600160401b038111156200041c576200041c6200035b565b62000434816200042d845462000371565b84620003ad565b602080601f8311600181146200046c5760008415620004535750858301515b600019600386901b1c1916600185901b178555620003f7565b600085815260208120601f198616915b828110156200049d578886015182559484019460019091019084016200047c565b5085821015620004bc5787850151600019600388901b60f8161c191681555b5050505050600190811b01905550565b61168e80620004dc6000396000f3fe608060405234801561001057600080fd5b506004361061018e5760003560e01c8063a0d541fa116100de578063e2c13e3211610097578063f09153c411610071578063f09153c414610383578063f2ccc543146103a3578063f2fde38b146103c3578063f8b11691146103d657600080fd5b8063e2c13e3214610355578063e6b165ed14610368578063f0860c011461037b57600080fd5b8063a0d541fa1461029a578063ab5eba16146102a2578063baccbfdb146102b5578063bddb7c831461030c578063cb5103731461031f578063d5b9221b1461033257600080fd5b80636a01703f1161014b578063779c215911610125578063779c21591461025057806385196798146102595780638da5cb5b1461026c57806398eaa4a71461028757600080fd5b80636a01703f1461022b578063715018a614610233578063720514961461023d57600080fd5b806324548c601461019357806327aed72e146101d6578063347201ec146101fa57806342be153e14610211578063451135481461021a578063661d7cc214610223575b600080fd5b6101c16101a1366004611101565b600260209081526000928352604080842090915290825290205460ff1681565b60405190151581526020015b60405180910390f35b6101e96101e436600461112b565b61043f565b6040516101cd95949392919061118a565b6102036101f481565b6040519081526020016101cd565b61020360055481565b6102036103e881565b610203606481565b610203600a81565b61023b610582565b005b61023b61024b366004611272565b610596565b61020361032081565b6102036102673660046112e6565b6105b0565b6000546040516001600160a01b0390911681526020016101cd565b61023b6102953660046112e6565b610640565b610203601981565b6101c16102b0366004611101565b61066c565b6102c86102c33660046112e6565b61069a565b6040516101cd9190600060a0820190508251825260208301516020830152604083015160408301526060830151606083015260808301511515608083015292915050565b61023b61031a366004611301565b61072a565b61020361032d3660046112e6565b610794565b6101c16103403660046112e6565b60046020526000908152604090205460ff1681565b61023b610363366004611301565b61081e565b61023b6103763660046112e6565b6109ef565b600554610203565b6103966103913660046112e6565b610a18565b6040516101cd919061133d565b6103b66103b136600461112b565b610b3e565b6040516101cd9190611381565b61023b6103d13660046112e6565b610cd8565b6104156103e43660046112e6565b6001602081905260009182526040909120805491810154600282015460038301546004909301549192909160ff1685565b6040805195865260208601949094529284019190915260608301521515608082015260a0016101cd565b60036020526000908152604090208054819061045a906113e7565b80601f0160208091040260200160405190810160405280929190818152602001828054610486906113e7565b80156104d35780601f106104a8576101008083540402835291602001916104d3565b820191906000526020600020905b8154815290600101906020018083116104b657829003601f168201915b5050505050908060010180546104e8906113e7565b80601f0160208091040260200160405190810160405280929190818152602001828054610514906113e7565b80156105615780601f1061053657610100808354040283529160200191610561565b820191906000526020600020905b81548152906001019060200180831161054457829003601f168201915b50505050600283015460038401546004909401549293909290915060ff1685565b61058a610d51565b6105946000610dab565b565b61059e610d51565b6105aa84848484610dfb565b50505050565b6001600160a01b03811660009081526001602052604081206004015460ff16156105dd5750614e20919050565b6001600160a01b038216600090815260016020526040902060020154610320811061060b5750600092915050565b6101f4811061061e57506109c492915050565b60648110610630575061138892915050565b5061271092915050565b50919050565b610648610d51565b6001600160a01b03166000908152600460205260409020805460ff19166001179055565b6001600160a01b038216600090815260026020908152604080832084845290915290205460ff165b92915050565b6106ce6040518060a00160405280600081526020016000815260200160008152602001600081526020016000151581525090565b506001600160a01b0316600090815260016020818152604092839020835160a0810185528154815292810154918301919091526002810154928201929092526003820154606082015260049091015460ff161515608082015290565b610732610d51565b6001600160a01b038216600081815260016020908152604091829020600401805460ff191685151590811790915591519182527f5b7ef9d8e7fd7ff1dae13005391bc3aa7cc048c7ba41af348e5da4dcbe7323e0910160405180910390a25050565b6001600160a01b0381166000908152600160208181526040808420815160a08101835281548082529482015493810193909352600281015491830191909152600381015460608301526004015460ff16151560808201529082036107fb5750600092915050565b8051602082015161080d906064611431565b6108179190611448565b9392505050565b3360009081526004602052604090205460ff168061084657506000546001600160a01b031633145b6108885760405162461bcd60e51b815260206004820152600e60248201526d139bdd08185d5d1a1bdc9a5e995960921b60448201526064015b60405180910390fd5b6001600160a01b03821660009081526001602052604090206004015460ff16156108ea5760405162461bcd60e51b8152602060048201526013602482015272155cd95c881a5cc8189b1858dadb1a5cdd1959606a1b604482015260640161087f565b6001600160a01b038216600090815260016020819052604090912060028101548154919290916109199161146a565b8255821561095d576001808301546109309161146a565b60018301556002820154610953906103e89061094e90600a9061146a565b610ea5565b6002830155610987565b6019826002015411610970576000610981565b60198260020154610981919061147d565b60028301555b42600383015561099684610ebb565b6002820154604080518381526020810192909252841515908201526001600160a01b038516907f57937c3230bca65bddb26bb4536ac3c4186490482e16ca58549f88791c7f9ed79060600160405180910390a250505050565b6109f7610d51565b6001600160a01b03166000908152600460205260409020805460ff19169055565b60606000805b600554811015610a74576001600160a01b038416600090815260026020908152604080832084845290915290205460ff1615610a625781610a5e81611490565b9250505b80610a6c81611490565b915050610a1e565b5060008167ffffffffffffffff811115610a9057610a906111cf565b604051908082528060200260200182016040528015610ab9578160200160208202803683370190505b5090506000805b600554811015610b34576001600160a01b038616600090815260026020908152604080832084845290915290205460ff1615610b225780838381518110610b0957610b096114a9565b602090810291909101015281610b1e81611490565b9250505b80610b2c81611490565b915050610ac0565b5090949350505050565b610b726040518060a00160405280606081526020016060815260200160008152602001600081526020016000151581525090565b60008281526003602052604090819020815160a08101909252805482908290610b9a906113e7565b80601f0160208091040260200160405190810160405280929190818152602001828054610bc6906113e7565b8015610c135780601f10610be857610100808354040283529160200191610c13565b820191906000526020600020905b815481529060010190602001808311610bf657829003601f168201915b50505050508152602001600182018054610c2c906113e7565b80601f0160208091040260200160405190810160405280929190818152602001828054610c58906113e7565b8015610ca55780601f10610c7a57610100808354040283529160200191610ca5565b820191906000526020600020905b815481529060010190602001808311610c8857829003601f168201915b5050509183525050600282015460208201526003820154604082015260049091015460ff16151560609091015292915050565b610ce0610d51565b6001600160a01b038116610d455760405162461bcd60e51b815260206004820152602660248201527f4f776e61626c653a206e6577206f776e657220697320746865207a65726f206160448201526564647265737360d01b606482015260840161087f565b610d4e81610dab565b50565b6000546001600160a01b031633146105945760405162461bcd60e51b815260206004820181905260248201527f4f776e61626c653a2063616c6c6572206973206e6f7420746865206f776e6572604482015260640161087f565b600080546001600160a01b038381166001600160a01b0319831681178455604051919092169283917f8be0079c531659141344cd1fd0a4f28419497f9722a3daafe3b4186f6b6457e09190a35050565b6005805460009182610e0c83611490565b909155506040805160a081018252878152602080820188905281830187905260608201869052600160808301526000848152600390915291909120815192935090918190610e5a908261150d565b5060208201516001820190610e6f908261150d565b5060408201516002820155606082015160038201556080909101516004909101805460ff19169115159190911790555050505050565b6000818310610eb45781610817565b5090919050565b6001600160a01b0381166000908152600160208181526040808420815160a081018352815481529381015492840192909252600282015490830152600381015460608301526004015460ff1615156080820152905b6005548110156110e05760008181526003602052604090206004015460ff161580610f5e57506001600160a01b038316600090815260026020908152604080832084845290915290205460ff165b6110ce57600081158015610f7457508251600111155b15610f8157506001611009565b816001148015610f9357508251600a11155b15610fa057506001611009565b816002148015610fb257508251603211155b15610fbf57506001611009565b816003148015610fd157508251606411155b15610fde57506001611009565b816004148015610ff057508251601411155b8015611000575082516020840151145b15611009575060015b80156110cc576001600160a01b03841660008181526002602081815260408084208785528252808420805460ff19166001908117909155600380845282862001549585529091529091200154611067916103e89161094e919061146a565b6001600160a01b03851660008181526001602090815260408083206002019490945585825260039052829020915184927f5808713f30d1d277897adb26ef9590a7ff17fddbde59fbfc3139ad01929ce421916110c391906115cd565b60405180910390a35b505b806110d881611490565b915050610f10565b505050565b80356001600160a01b03811681146110fc57600080fd5b919050565b6000806040838503121561111457600080fd5b61111d836110e5565b946020939093013593505050565b60006020828403121561113d57600080fd5b5035919050565b6000815180845260005b8181101561116a5760208185018101518683018201520161114e565b506000602082860101526020601f19601f83011685010191505092915050565b60a08152600061119d60a0830188611144565b82810360208401526111af8188611144565b604084019690965250506060810192909252151560809091015292915050565b634e487b7160e01b600052604160045260246000fd5b600082601f8301126111f657600080fd5b813567ffffffffffffffff80821115611211576112116111cf565b604051601f8301601f19908116603f01168101908282118183101715611239576112396111cf565b8160405283815286602085880101111561125257600080fd5b836020870160208301376000602085830101528094505050505092915050565b6000806000806080858703121561128857600080fd5b843567ffffffffffffffff808211156112a057600080fd5b6112ac888389016111e5565b955060208701359150808211156112c257600080fd5b506112cf878288016111e5565b949794965050505060408301359260600135919050565b6000602082840312156112f857600080fd5b610817826110e5565b6000806040838503121561131457600080fd5b61131d836110e5565b91506020830135801515811461133257600080fd5b809150509250929050565b6020808252825182820181905260009190848201906040850190845b8181101561137557835183529284019291840191600101611359565b50909695505050505050565b602081526000825160a0602084015261139d60c0840182611144565b90506020840151601f198483030160408501526113ba8282611144565b91505060408401516060840152606084015160808401526080840151151560a08401528091505092915050565b600181811c908216806113fb57607f821691505b60208210810361063a57634e487b7160e01b600052602260045260246000fd5b634e487b7160e01b600052601160045260246000fd5b80820281158282048414176106945761069461141b565b60008261146557634e487b7160e01b600052601260045260246000fd5b500490565b808201808211156106945761069461141b565b818103818111156106945761069461141b565b6000600182016114a2576114a261141b565b5060010190565b634e487b7160e01b600052603260045260246000fd5b601f8211156110e057600081815260208120601f850160051c810160208610156114e65750805b601f850160051c820191505b81811015611505578281556001016114f2565b505050505050565b815167ffffffffffffffff811115611527576115276111cf565b61153b8161153584546113e7565b846114bf565b602080601f83116001811461157057600084156115585750858301515b600019600386901b1c1916600185901b178555611505565b600085815260208120601f198616915b8281101561159f57888601518255948401946001909101908401611580565b50858210156115bd5787850151600019600388901b60f8161c191681555b5050505050600190811b01905550565b60006020808352600084546115e1816113e7565b80848701526040600180841660008114611602576001811461161c5761164a565b60ff1985168984015283151560051b89018301955061164a565b896000528660002060005b858110156116425781548b8201860152908301908801611627565b8a0184019650505b50939897505050505050505056fea264697066735822122022a17bc91ef71b847adc184de8ba0ac5f1c3cacb84fb5258bb0a21cc3a07995464736f6c634300081300334d61696e7461696e20313030252073756363657373207261746520776974682032302b2072656e74616c73",
  "linkReferences": {},
  "deployedLinkReferences": {}
}