{
  "_format": "hh-sol-artifact-1",
  "contractName": "MultiCaller",
  "sourceName": "contracts/utils/MultiCaller.sol",
  "abi": [
    {
      "inputs": [],
      "name": "MULTICALL_V3",
      "outputs": [
        {
          "internalType": "address",
          "name": "",
          "type": "address"
        }
      ],
      "stateMutability": "view",
      "type": "function"
    },
    {
      "inputs": [
        {
          "internalType": "address",
          "name": "nftContract",
          "type": "address"
        },
        {
          "internalType": "uint256",
          "name": "tokenId",
          "type": "uint256"
        },
        {
          "internalType": "address",
          "name": "user",
          "type": "address"
        },
        {
          "internalType": "uint64",
          "name": "expires",
          "type": "uint64"
        }
      ],
      "name": "createRentalCalls",
      "outputs": [
        {
          "components": [
            {
              "internalType": "address",
              "name": "target",
              "type": "address"
            },
            {
              "internalType": "bytes",
              "name": "callData",
              "type": "bytes"
            }
          ],
          "internalType": "struct IMultiCall.Call[]",
          "name": "",
          "type": "tuple[]"
        }
      ],
      "stateMutability": "view",
      "type": "function"
    },
    {
      "inputs": [
        {
          "components": [
            {
              "internalType": "address",
              "name": "target",
              "type": "address"
            },
            {
              "internalType": "bytes",
              "name": "callData",
              "type": "bytes"
            }
          ],
          "internalType": "struct IMultiCall.Call[]",
          "name": "calls",
          "type": "tuple[]"
        }
      ],
      "name": "multiCall",
      "outputs": [
        {
          "internalType": "bytes[]",
          "name": "results",
          "type": "bytes[]"
        }
      ],
      "stateMutability": "nonpayable",
      "type": "function"
    }
  ],
  "bytecode": "0x608060405234801561001057600080fd5b50610793806100206000396000f3fe608060405234801561001057600080fd5b50600436106100415760003560e01c80631e8c992614610046578063bdedd7051461006f578063df0525d71461008f575b600080fd5b6100596100543660046102ce565b6100c2565b604051610066919061037a565b60405180910390f35b61008261007d3660046104b3565b610226565b60405161006691906105ed565b6100aa73841b8199e6d3db3c6f264f6c2bd8848b3ca6422381565b6040516001600160a01b039091168152602001610066565b604080516002808252606082810190935260009190816020015b6040805180820190915260008152606060208201528152602001906001900390816100dc579050506040805180820182526001600160a01b038916815290513060248201526044810188905291925090602082019060640160408051601f198184030181529190526020810180516001600160e01b031663095ea7b360e01b1790529052815182906000906101735761017361064f565b60200260200101819052506040518060400160405280876001600160a01b031681526020018686866040516024016101d1939291909283526001600160a01b0391909116602083015267ffffffffffffffff16604082015260600190565b60408051601f198184030181529190526020810180516001600160e01b03166370182b2f60e11b17905290528151829060019081106102125761021261064f565b602090810291909101015295945050505050565b604051631296dd2160e11b815260609060009073841b8199e6d3db3c6f264f6c2bd8848b3ca642239063252dba429061026390869060040161037a565b6000604051808303816000875af1158015610282573d6000803e3d6000fd5b505050506040513d6000823e601f3d908101601f191682016040526102aa9190810190610665565b949350505050565b80356001600160a01b03811681146102c957600080fd5b919050565b600080600080608085870312156102e457600080fd5b6102ed856102b2565b935060208501359250610302604086016102b2565b9150606085013567ffffffffffffffff8116811461031f57600080fd5b939692955090935050565b60005b8381101561034557818101518382015260200161032d565b50506000910152565b6000815180845261036681602086016020860161032a565b601f01601f19169290920160200192915050565b60006020808301818452808551808352604092508286019150828160051b87010184880160005b838110156103e957888303603f19018552815180516001600160a01b031684528701518784018790526103d68785018261034e565b95880195935050908601906001016103a1565b509098975050505050505050565b634e487b7160e01b600052604160045260246000fd5b6040805190810167ffffffffffffffff81118282101715610430576104306103f7565b60405290565b604051601f8201601f1916810167ffffffffffffffff8111828210171561045f5761045f6103f7565b604052919050565b600067ffffffffffffffff821115610481576104816103f7565b5060051b60200190565b600067ffffffffffffffff8211156104a5576104a56103f7565b50601f01601f191660200190565b600060208083850312156104c657600080fd5b823567ffffffffffffffff808211156104de57600080fd5b818501915085601f8301126104f257600080fd5b813561050561050082610467565b610436565b81815260059190911b8301840190848101908883111561052457600080fd5b8585015b838110156105e0578035858111156105405760008081fd5b86016040818c03601f19018113156105585760008081fd5b61056061040d565b61056b8a84016102b2565b8152818301358881111561057f5760008081fd5b8084019350508c603f8401126105955760008081fd5b898301356105a56105008261048b565b8181528e848387010111156105ba5760008081fd5b818486018d83013760009181018c0191909152818b015285525050918601918601610528565b5098975050505050505050565b6000602080830181845280855180835260408601915060408160051b870101925083870160005b8281101561064257603f1988860301845261063085835161034e565b94509285019290850190600101610614565b5092979650505050505050565b634e487b7160e01b600052603260045260246000fd5b600080604080848603121561067957600080fd5b8351925060208085015167ffffffffffffffff8082111561069957600080fd5b818701915087601f8301126106ad57600080fd5b81516106bb61050082610467565b81815260059190911b8301840190848101908a8311156106da57600080fd5b8585015b8381101561074b578051858111156106f65760008081fd5b8601603f81018d136107085760008081fd5b878101516107186105008261048b565b8181528e8b83850101111561072d5760008081fd5b61073c828b83018d860161032a565b855250509186019186016106de565b5080975050505050505050925092905056fea2646970667358221220e5b021c9bda8fefd9c72e12c3aeed447e5014b30b2df886ce6e861feffe91adb64736f6c63430008130033",
  "linkReferences": {},
  "deployedLinkReferences": {}
}