{
  "_format": "hh-sol-artifact-1",
  "contractName": "UtilityTracker",
  "sourceName": "contracts/UtilityTracker.sol",
  "abi": [
    {
      "anonymous": false,
      "inputs": [
        {
          "indexed": true,
          "internalType": "address",
          "name": "previousOwner",
          "type": "address"
        },
        {
          "indexed": true,
          "internalType": "address",
          "name": "newOwner",
          "type": "address"
        }
      ],
      "name": "OwnershipTransferred",
      "type": "event"
    },
    {
      "anonymous": false,
      "inputs": [
        {
          "indexed": true,
          "internalType": "bytes32",
          "name": "nftKey",
          "type": "bytes32"
        },
        {
          "indexed": false,
          "internalType": "uint256",
          "name": "utilityScore",
          "type": "uint256"
        },
        {
          "indexed": false,
          "internalType": "uint256",
          "name": "totalUsageTime",
          "type": "uint256"
        },
        {
          "indexed": false,
          "internalType": "uint256",
          "name": "totalRentals",
          "type": "uint256"
        }
      ],
      "name": "UtilityAnalyticsUpdated",
      "type": "event"
    },
    {
      "anonymous": false,
      "inputs": [
        {
          "indexed": true,
          "internalType": "uint256",
          "name": "usageId",
          "type": "uint256"
        },
        {
          "indexed": true,
          "internalType": "address",
          "name": "nftContract",
          "type": "address"
        },
        {
          "indexed": true,
          "internalType": "uint256",
          "name": "tokenId",
          "type": "uint256"
        },
        {
          "indexed": false,
          "internalType": "address",
          "name": "user",
          "type": "address"
        },
        {
          "indexed": false,
          "internalType": "uint256",
          "name": "utilityType",
          "type": "uint256"
        },
        {
          "indexed": false,
          "internalType": "uint256",
          "name": "duration",
          "type": "uint256"
        },
        {
          "indexed": false,
          "internalType": "uint256",
          "name": "utilityValue",
          "type": "uint256"
        }
      ],
      "name": "UtilityUsageRecorded",
      "type": "event"
    },
    {
      "inputs": [],
      "name": "ART_UTILITY",
      "outputs": [
        {
          "internalType": "uint256",
          "name": "",
          "type": "uint256"
        }
      ],
      "stateMutability": "view",
      "type": "function"
    },
    {
      "inputs": [],
      "name": "GAMING_UTILITY",
      "outputs": [
        {
          "internalType": "uint256",
          "name": "",
          "type": "uint256"
        }
      ],
      "stateMutability": "view",
      "type": "function"
    },
    {
      "inputs": [],
      "name": "MAX_UTILITY_SCORE",
      "outputs": [
        {
          "internalType": "uint256",
          "name": "",
          "type": "uint256"
        }
      ],
      "stateMutability": "view",
      "type": "function"
    },
    {
      "inputs": [],
      "name": "METAVERSE_UTILITY",
      "outputs": [
        {
          "internalType": "uint256",
          "name": "",
          "type": "uint256"
        }
      ],
      "stateMutability": "view",
      "type": "function"
    },
    {
      "inputs": [],
      "name": "REAL_WORLD_UTILITY",
      "outputs": [
        {
          "internalType": "uint256",
          "name": "",
          "type": "uint256"
        }
      ],
      "stateMutability": "view",
      "type": "function"
    },
    {
      "inputs": [
        {
          "internalType": "address",
          "name": "nftContract",
          "type": "address"
        },
        {
          "internalType": "uint256",
          "name": "tokenId",
          "type": "uint256"
        }
      ],
      "name": "getNFTAnalytics",
      "outputs": [
        {
          "components": [
            {
              "internalType": "uint256",
              "name": "totalUsageTime",
              "type": "uint256"
            },
            {
              "internalType": "uint256",
              "name": "totalRentals",
              "type": "uint256"
            },
            {
              "internalType": "uint256",
              "name": "averageRentalDuration",
              "type": "uint256"
            },
            {
              "internalType": "uint256",
              "name": "peakUsageHours",
              "type": "uint256"
            },
            {
              "internalType": "uint256",
              "name": "utilityScore",
              "type": "uint256"
            },
            {
              "internalType": "uint256",
              "name": "lastUsed",
              "type": "uint256"
            }
          ],
          "internalType": "struct UtilityTracker.UtilityAnalytics",
          "name": "",
          "type": "tuple"
        }
      ],
      "stateMutability": "view",
      "type": "function"
    },
    {
      "inputs": [
        {
          "internalType": "address",
          "name": "nftContract",
          "type": "address"
        },
        {
          "internalType": "uint256",
          "name": "tokenId",
          "type": "uint256"
        }
      ],
      "name": "getPopularRentalDuration",
      "outputs": [
        {
          "internalType": "uint256",
          "name": "",
          "type": "uint256"
        }
      ],
      "stateMutability": "view",
      "type": "function"
    },
    {
      "inputs": [
        {
          "internalType": "address",
          "name": "user",
          "type": "address"
        }
      ],
      "name": "getUserUtilityHistory",
      "outputs": [
        {
          "internalType": "uint256[]",
          "name": "",
          "type": "uint256[]"
        }
      ],
      "stateMutability": "view",
      "type": "function"
    },
    {
      "inputs": [
        {
          "internalType": "address",
          "name": "user",
          "type": "address"
        }
      ],
      "name": "getUserUtilityScore",
      "outputs": [
        {
          "internalType": "uint256",
          "name": "",
          "type": "uint256"
        }
      ],
      "stateMutability": "view",
      "type": "function"
    },
    {
      "inputs": [
        {
          "internalType": "address",
          "name": "nftContract",
          "type": "address"
        },
        {
          "internalType": "uint256",
          "name": "tokenId",
          "type": "uint256"
        },
        {
          "internalType": "uint256",
          "name": "basePrice",
          "type": "uint256"
        }
      ],
      "name": "getUtilityBasedPrice",
      "outputs": [
        {
          "internalType": "uint256",
          "name": "",
          "type": "uint256"
        }
      ],
      "stateMutability": "view",
      "type": "function"
    },
    {
      "inputs": [
        {
          "internalType": "uint256",
          "name": "utilityType",
          "type": "uint256"
        }
      ],
      "name": "getUtilityTypeName",
      "outputs": [
        {
          "internalType": "string",
          "name": "",
          "type": "string"
        }
      ],
      "stateMutability": "pure",
      "type": "function"
    },
    {
      "inputs": [
        {
          "internalType": "uint256",
          "name": "usageId",
          "type": "uint256"
        }
      ],
      "name": "getUtilityUsage",
      "outputs": [
        {
          "components": [
            {
              "internalType": "address",
              "name": "nftContract",
              "type": "address"
            },
            {
              "internalType": "uint256",
              "name": "tokenId",
              "type": "uint256"
            },
            {
              "internalType": "address",
              "name": "user",
              "type": "address"
            },
            {
              "internalType": "uint256",
              "name": "startTime",
              "type": "uint256"
            },
            {
              "internalType": "uint256",
              "name": "endTime",
              "type": "uint256"
            },
            {
              "internalType": "uint256",
              "name": "utilityType",
              "type": "uint256"
            },
            {
              "internalType": "uint256",
              "name": "utilityValue",
              "type": "uint256"
            },
            {
              "internalType": "bool",
              "name": "completed",
              "type": "bool"
            }
          ],
          "internalType": "struct UtilityTracker.UtilityUsage",
          "name": "",
          "type": "tuple"
        }
      ],
      "stateMutability": "view",
      "type": "function"
    },
    {
      "inputs": [
        {
          "internalType": "address",
          "name": "nftContract",
          "type": "address"
        },
        {
          "internalType": "uint256",
          "name": "tokenId",
          "type": "uint256"
        }
      ],
      "name": "hasHighUtilityDemand",
      "outputs": [
        {
          "internalType": "bool",
          "name": "",
          "type": "bool"
        }
      ],
      "stateMutability": "view",
      "type": "function"
    },
    {
      "inputs": [],
      "name": "nextUsageId",
      "outputs": [
        {
          "internalType": "uint256",
          "name": "",
          "type": "uint256"
        }
      ],
      "stateMutability": "view",
      "type": "function"
    },
    {
      "inputs": [
        {
          "internalType": "bytes32",
          "name": "",
          "type": "bytes32"
        }
      ],
      "name": "nftAnalytics",
      "outputs": [
        {
          "internalType": "uint256",
          "name": "totalUsageTime",
          "type": "uint256"
        },
        {
          "internalType": "uint256",
          "name": "totalRentals",
          "type": "uint256"
        },
        {
          "internalType": "uint256",
          "name": "averageRentalDuration",
          "type": "uint256"
        },
        {
          "internalType": "uint256",
          "name": "peakUsageHours",
          "type": "uint256"
        },
        {
          "internalType": "uint256",
          "name": "utilityScore",
          "type": "uint256"
        },
        {
          "internalType": "uint256",
          "name": "lastUsed",
          "type": "uint256"
        }
      ],
      "stateMutability": "view",
      "type": "function"
    },
    {
      "inputs": [],
      "name": "owner",
      "outputs": [
        {
          "internalType": "address",
          "name": "",
          "type": "address"
        }
      ],
      "stateMutability": "view",
      "type": "function"
    },
    {
      "inputs": [
        {
          "internalType": "address",
          "name": "nftContract",
          "type": "address"
        },
        {
          "internalType": "uint256",
          "name": "tokenId",
          "type": "uint256"
        },
        {
          "internalType": "address",
          "name": "user",
          "type": "address"
        },
        {
          "internalType": "uint256",
          "name": "startTime",
          "type": "uint256"
        },
        {
          "internalType": "uint256",
          "name": "endTime",
          "type": "uint256"
        },
        {
          "internalType": "uint256",
          "name": "utilityType",
          "type": "uint256"
        },
        {
          "internalType": "uint256",
          "name": "utilityValue",
          "type": "uint256"
        }
      ],
      "name": "recordUtilityUsage",
      "outputs": [],
      "stateMutability": "nonpayable",
      "type": "function"
    },
    {
      "inputs": [],
      "name": "renounceOwnership",
      "outputs": [],
      "stateMutability": "nonpayable",
      "type": "function"
    },
    {
      "inputs": [
        {
          "internalType": "address",
          "name": "newOwner",
          "type": "address"
        }
      ],
      "name": "transferOwnership",
      "outputs": [],
      "stateMutability": "nonpayable",
      "type": "function"
    },
    {
      "inputs": [
        {
          "internalType": "address",
          "name": "",
          "type": "address"
        },
        {
          "internalType": "uint256",
          "name": "",
          "type": "uint256"
        }
      ],
      "name": "userUtilityHistory",
      "outputs": [
        {
          "internalType": "uint256",
          "name": "",
          "type": "uint256"
        }
      ],
      "stateMutability": "view",
      "type": "function"
    },
    {
      "inputs": [
        {
          "internalType": "address",
          "name": "",
          "type": "address"
        }
      ],
      "name": "userUtilityScore",
      "outputs": [
        {
          "internalType": "uint256",
          "name": "",
          "type": "uint256"
        }
      ],
      "stateMutability": "view",
      "type": "function"
    },
    {
      "inputs": [
        {
          "internalType": "uint256",
          "name": "",
          "type": "uint256"
        }
      ],
      "name": "utilityUsages",
      "outputs": [
        {
          "internalType": "address",
          "name": "nftContract",
          "type": "address"
        },
        {
          "internalType": "uint256",
          "name": "tokenId",
          "type": "uint256"
        },
        {
          "internalType": "address",
          "name": "user",
          "type": "address"
        },
        {
          "internalType": "uint256",
          "name": "startTime",
          "type": "uint256"
        },
        {
          "internalType": "uint256",
          "name": "endTime",
          "type": "uint256"
        },
        {
          "internalType": "uint256",
          "name": "utilityType",
          "type": "uint256"
        },
        {
          "internalType": "uint256",
          "name": "utilityValue",
          "type": "uint256"
        },
        {
          "internalType": "bool",
          "name": "completed",
          "type": "bool"
        }
      ],
      "stateMutability": "view",
      "type": "function"
    }
  ],
  "bytecode": "0x608060405234801561001057600080fd5b50600160005561001f33610024565b610076565b600180546001600160a01b038381166001600160a01b0319831681179093556040519116919082907f8be0079c531659141344cd1fd0a4f28419497f9722a3daafe3b4186f6b6457e090600090a35050565b6112d0806100856000396000f3fe608060405234801561001057600080fd5b50600436106101425760003560e01c806393df7217116100b8578063d3016c141161007c578063d3016c1414610348578063e1a1ecc21461035b578063e38d7cd614610409578063f0b3a1a01461042c578063f2fde38b146104a3578063faeb2d65146104b657600080fd5b806393df7217146102e55780639faccb99146102f8578063a09a27ba14610318578063b84d6b9c14610338578063b8a2dad71461034057600080fd5b8063306409ce1161010a578063306409ce1461021d5780634473192114610225578063526cab891461024e57806353e7dfdb146102ad578063715018a6146102c05780638da5cb5b146102ca57600080fd5b806308fb97ce146101475780631530c3f314610170578063171664bf146101ec5780631feef7451461020257806320e868bb1461020a575b600080fd5b61015a610155366004611066565b6104bf565b6040516101679190611081565b60405180910390f35b61018361017e3660046110c5565b61052b565b6040805182516001600160a01b03908116825260208085015190830152838301511691810191909152606080830151908201526080808301519082015260a0808301519082015260c0808301519082015260e09182015115159181019190915261010001610167565b6101f4600181565b604051908152602001610167565b6101f4606481565b6101f46102183660046110de565b610607565b6101f4600281565b6101f4610233366004611066565b6001600160a01b031660009081526005602052604090205490565b61026161025c366004611111565b6106d5565b6040516101679190600060c082019050825182526020830151602083015260408301516040830152606083015160608301526080830151608083015260a083015160a083015292915050565b6101f46102bb366004611111565b610791565b6102c86107c2565b005b6001546040516001600160a01b039091168152602001610167565b6102c86102f336600461113b565b6107d6565b6101f4610306366004611066565b60056020526000908152604090205481565b61032b6103263660046110c5565b610b07565b604051610167919061119c565b6101f4600081565b6101f4600381565b6101f4610356366004611111565b610bd5565b6103bd6103693660046110c5565b6002602081905260009182526040909120805460018201549282015460038301546004840154600585015460068601546007909601546001600160a01b039586169796959094169492939192909160ff1688565b604080516001600160a01b03998a168152602081019890985295909716948601949094526060850192909252608084015260a083015260c082015290151560e082015261010001610167565b61041c610417366004611111565b610c19565b6040519015158152602001610167565b61047661043a3660046110c5565b60036020528060005260406000206000915090508060000154908060010154908060020154908060030154908060040154908060050154905086565b604080519687526020870195909552938501929092526060840152608083015260a082015260c001610167565b6102c86104b1366004611066565b610cb6565b6101f460065481565b6001600160a01b03811660009081526004602090815260409182902080548351818402810184019094528084526060939283018282801561051f57602002820191906000526020600020905b81548152602001906001019080831161050b575b50505050509050919050565b61058760405180610100016040528060006001600160a01b031681526020016000815260200160006001600160a01b03168152602001600081526020016000815260200160008152602001600081526020016000151581525090565b5060009081526002602081815260409283902083516101008101855281546001600160a01b03908116825260018301549382019390935292810154909116928201929092526003820154606082015260048201546080820152600582015460a0820152600682015460c082015260079091015460ff16151560e082015290565b600080848460405160200161061d9291906111ea565b60408051601f1981840301815282825280516020918201206000818152600380845284822060c08701865280548752600181015494870185905260028101549587019590955284015460608601526004840154608086015260059093015460a0850152935090036106925783925050506106ce565b6000600282608001516106a59190611222565b6106b0906064611244565b905060646106be8287611257565b6106c89190611222565b93505050505b9392505050565b61070e6040518060c001604052806000815260200160008152602001600081526020016000815260200160008152602001600081525090565b600083836040516020016107239291906111ea565b60408051601f198184030181528282528051602091820120600090815260038083529083902060c08501845280548552600181015492850192909252600282015492840192909252908101546060830152600481015460808301526005015460a08201529150505b92915050565b600460205281600052604060002081815481106107ad57600080fd5b90600052602060002001600091509150505481565b6107ca610d2f565b6107d46000610d89565b565b6107de610d2f565b6107e6610ddb565b83831161082f5760405162461bcd60e51b8152602060048201526012602482015271496e76616c69642074696d652072616e676560701b60448201526064015b60405180910390fd5b60038211156108775760405162461bcd60e51b8152602060048201526014602482015273496e76616c6964207574696c697479207479706560601b6044820152606401610826565b600081116108d35760405162461bcd60e51b8152602060048201526024808201527f5574696c6974792076616c7565206d75737420626520677265617465722074686044820152630616e20360e41b6064820152608401610826565b60068054600091826108e48361126e565b90915550905060006108f68686611287565b90506040518061010001604052808a6001600160a01b03168152602001898152602001886001600160a01b03168152602001878152602001868152602001858152602001848152602001600115158152506002600084815260200190815260200160002060008201518160000160006101000a8154816001600160a01b0302191690836001600160a01b031602179055506020820151816001015560408201518160020160006101000a8154816001600160a01b0302191690836001600160a01b03160217905550606082015181600301556080820151816004015560a0820151816005015560c0820151816006015560e08201518160070160006101000a81548160ff02191690831515021790555090505060046000886001600160a01b03166001600160a01b0316815260200190815260200160002082908060018154018082558091505060019003906000526020600020016000909190919091505560008989604051602001610a6a9291906111ea565b604051602081830303815290604052805190602001209050610a8d818386610e34565b610a98888386610fc7565b604080516001600160a01b038a8116825260208201889052918101849052606081018690528a918c169085907f686e976d00cbae95669f03f0c5aa82f3732f044ef6aaae926137348cbfadc2a69060800160405180910390a4505050610afe6001600055565b50505050505050565b606081610b3057505060408051808201909152600681526547616d696e6760d01b602082015290565b60018203610b57575050604080518082019091526003815262105c9d60ea1b602082015290565b60028203610b845750506040805180820190915260098152684d657461766572736560b81b602082015290565b60038203610bb257505060408051808201909152600a8152691499585b0815dbdc9b1960b21b602082015290565b50506040805180820190915260078152662ab735b737bbb760c91b602082015290565b6000808383604051602001610beb9291906111ea565b60408051808303601f1901815291815281516020928301206000908152600392839052200154949350505050565b6000808383604051602001610c2f9291906111ea565b60408051601f198184030181528282528051602091820120600081815260038084529084902060c0860185528054865260018101549386019390935260028301549385019390935291810154606084015260048101546080840181905260059091015460a08401529092506046108015610cad5750600a8160200151115b95945050505050565b610cbe610d2f565b6001600160a01b038116610d235760405162461bcd60e51b815260206004820152602660248201527f4f776e61626c653a206e6577206f776e657220697320746865207a65726f206160448201526564647265737360d01b6064820152608401610826565b610d2c81610d89565b50565b6001546001600160a01b031633146107d45760405162461bcd60e51b815260206004820181905260248201527f4f776e61626c653a2063616c6c6572206973206e6f7420746865206f776e65726044820152606401610826565b600180546001600160a01b038381166001600160a01b0319831681179093556040519116919082907f8be0079c531659141344cd1fd0a4f28419497f9722a3daafe3b4186f6b6457e090600090a35050565b600260005403610e2d5760405162461bcd60e51b815260206004820152601f60248201527f5265656e7472616e637947756172643a207265656e7472616e742063616c6c006044820152606401610826565b6002600055565b6000838152600360205260408120805490918491839190610e56908490611244565b909155505060018181018054600090610e70908490611244565b909155505060018101548154610e869190611222565b60028201554260058201556003810154831115610ea557600381018390555b600181015460028201546005830154600090610ec19042611287565b905060006064610ed285600a611257565b11610ee757610ee284600a611257565b610eea565b60645b905060006032610efc610e1086611222565b11610f1257610f0d610e1085611222565b610f15565b60325b9050600062093a808410610f2a576000610f2d565b60325b60ff169050606481610f3f8486611244565b610f499190611244565b11610f685780610f598385611244565b610f639190611244565b610f6b565b60645b6004880181905587546001890154604080519384526020840192909252908201528a907fa8378c549a7f82c74ea81caa111c9b264005b6dfb21ccd21b98ead3d68ad6c8d9060600160405180910390a250505050505050505050565b6001600160a01b03831660009081526005602052604081205490610fec606484611222565b610ff8610e1086611222565b6110029190611244565b905060646110108284611244565b116110245761101f8183611244565b611027565b60645b6001600160a01b0390951660009081526005602052604090209490945550505050565b80356001600160a01b038116811461106157600080fd5b919050565b60006020828403121561107857600080fd5b6106ce8261104a565b6020808252825182820181905260009190848201906040850190845b818110156110b95783518352928401929184019160010161109d565b50909695505050505050565b6000602082840312156110d757600080fd5b5035919050565b6000806000606084860312156110f357600080fd5b6110fc8461104a565b95602085013595506040909401359392505050565b6000806040838503121561112457600080fd5b61112d8361104a565b946020939093013593505050565b600080600080600080600060e0888a03121561115657600080fd5b61115f8861104a565b9650602088013595506111746040890161104a565b969995985095966060810135965060808101359560a0820135955060c0909101359350915050565b600060208083528351808285015260005b818110156111c9578581018301518582016040015282016111ad565b506000604082860101526040601f19601f8301168501019250505092915050565b60609290921b6bffffffffffffffffffffffff19168252601482015260340190565b634e487b7160e01b600052601160045260246000fd5b60008261123f57634e487b7160e01b600052601260045260246000fd5b500490565b8082018082111561078b5761078b61120c565b808202811582820484141761078b5761078b61120c565b6000600182016112805761128061120c565b5060010190565b8181038181111561078b5761078b61120c56fea26469706673582212208bd646789b203b5883e3124b336b025cd0216ec63c435a4157b7ae64f97aca3e64736f6c63430008130033",
  "linkReferences": {},
  "deployedLinkReferences": {}
}