{
  "_format": "hh-sol-artifact-1",
  "contractName": "NFTFlow",
  "sourceName": "contracts/NFTFlow.sol",
  "abi": [
    {
      "inputs": [
        {
          "internalType": "address",
          "name": "_priceOracle",
          "type": "address"
        },
        {
          "internalType": "address",
          "name": "_paymentStreamContract",
          "type": "address"
        },
        {
          "internalType": "address",
          "name": "_reputationContract",
          "type": "address"
        }
      ],
      "stateMutability": "nonpayable",
      "type": "constructor"
    },
    {
      "anonymous": false,
      "inputs": [
        {
          "indexed": true,
          "internalType": "address",
          "name": "user",
          "type": "address"
        },
        {
          "indexed": false,
          "internalType": "uint256",
          "name": "amount",
          "type": "uint256"
        }
      ],
      "name": "CollateralDeposited",
      "type": "event"
    },
    {
      "anonymous": false,
      "inputs": [
        {
          "indexed": true,
          "internalType": "address",
          "name": "user",
          "type": "address"
        },
        {
          "indexed": false,
          "internalType": "uint256",
          "name": "amount",
          "type": "uint256"
        }
      ],
      "name": "CollateralWithdrawn",
      "type": "event"
    },
    {
      "anonymous": false,
      "inputs": [
        {
          "indexed": true,
          "internalType": "address",
          "name": "previousOwner",
          "type": "address"
        },
        {
          "indexed": true,
          "internalType": "address",
          "name": "newOwner",
          "type": "address"
        }
      ],
      "name": "OwnershipTransferred",
      "type": "event"
    },
    {
      "anonymous": false,
      "inputs": [
        {
          "indexed": false,
          "internalType": "address",
          "name": "account",
          "type": "address"
        }
      ],
      "name": "Paused",
      "type": "event"
    },
    {
      "anonymous": false,
      "inputs": [
        {
          "indexed": true,
          "internalType": "uint256",
          "name": "rentalId",
          "type": "uint256"
        },
        {
          "indexed": true,
          "internalType": "address",
          "name": "renter",
          "type": "address"
        },
        {
          "indexed": false,
          "internalType": "bool",
          "name": "successful",
          "type": "bool"
        }
      ],
      "name": "RentalCompleted",
      "type": "event"
    },
    {
      "anonymous": false,
      "inputs": [
        {
          "indexed": true,
          "internalType": "uint256",
          "name": "rentalId",
          "type": "uint256"
        },
        {
          "indexed": true,
          "internalType": "address",
          "name": "nftContract",
          "type": "address"
        },
        {
          "indexed": true,
          "internalType": "uint256",
          "name": "tokenId",
          "type": "uint256"
        },
        {
          "indexed": false,
          "internalType": "address",
          "name": "owner",
          "type": "address"
        },
        {
          "indexed": false,
          "internalType": "address",
          "name": "renter",
          "type": "address"
        },
        {
          "indexed": false,
          "internalType": "uint256",
          "name": "duration",
          "type": "uint256"
        },
        {
          "indexed": false,
          "internalType": "uint256",
          "name": "totalCost",
          "type": "uint256"
        }
      ],
      "name": "RentalCreated",
      "type": "event"
    },
    {
      "anonymous": false,
      "inputs": [
        {
          "indexed": true,
          "internalType": "bytes32",
          "name": "listingId",
          "type": "bytes32"
        },
        {
          "indexed": true,
          "internalType": "address",
          "name": "nftContract",
          "type": "address"
        },
        {
          "indexed": true,
          "internalType": "uint256",
          "name": "tokenId",
          "type": "uint256"
        },
        {
          "indexed": false,
          "internalType": "address",
          "name": "owner",
          "type": "address"
        },
        {
          "indexed": false,
          "internalType": "uint256",
          "name": "pricePerSecond",
          "type": "uint256"
        }
      ],
      "name": "RentalListed",
      "type": "event"
    },
    {
      "anonymous": false,
      "inputs": [
        {
          "indexed": false,
          "internalType": "address",
          "name": "account",
          "type": "address"
        }
      ],
      "name": "Unpaused",
      "type": "event"
    },
    {
      "inputs": [],
      "name": "MAX_RENTAL_DURATION",
      "outputs": [
        {
          "internalType": "uint256",
          "name": "",
          "type": "uint256"
        }
      ],
      "stateMutability": "view",
      "type": "function"
    },
    {
      "inputs": [],
      "name": "MIN_RENTAL_DURATION",
      "outputs": [
        {
          "internalType": "uint256",
          "name": "",
          "type": "uint256"
        }
      ],
      "stateMutability": "view",
      "type": "function"
    },
    {
      "inputs": [
        {
          "internalType": "uint256",
          "name": "rentalId",
          "type": "uint256"
        }
      ],
      "name": "completeRental",
      "outputs": [],
      "stateMutability": "nonpayable",
      "type": "function"
    },
    {
      "inputs": [],
      "name": "depositCollateral",
      "outputs": [],
      "stateMutability": "payable",
      "type": "function"
    },
    {
      "inputs": [
        {
          "internalType": "bytes32",
          "name": "listingId",
          "type": "bytes32"
        }
      ],
      "name": "getListing",
      "outputs": [
        {
          "components": [
            {
              "internalType": "address",
              "name": "nftContract",
              "type": "address"
            },
            {
              "internalType": "uint256",
              "name": "tokenId",
              "type": "uint256"
            },
            {
              "internalType": "address",
              "name": "owner",
              "type": "address"
            },
            {
              "internalType": "uint256",
              "name": "pricePerSecond",
              "type": "uint256"
            },
            {
              "internalType": "uint256",
              "name": "minRentalDuration",
              "type": "uint256"
            },
            {
              "internalType": "uint256",
              "name": "maxRentalDuration",
              "type": "uint256"
            },
            {
              "internalType": "uint256",
              "name": "collateralRequired",
              "type": "uint256"
            },
            {
              "internalType": "bool",
              "name": "active",
              "type": "bool"
            }
          ],
          "internalType": "struct NFTFlow.RentalListing",
          "name": "",
          "type": "tuple"
        }
      ],
      "stateMutability": "view",
      "type": "function"
    },
    {
      "inputs": [
        {
          "internalType": "uint256",
          "name": "rentalId",
          "type": "uint256"
        }
      ],
      "name": "getRental",
      "outputs": [
        {
          "components": [
            {
              "internalType": "address",
              "name": "nftContract",
              "type": "address"
            },
            {
              "internalType": "uint256",
              "name": "tokenId",
              "type": "uint256"
            },
            {
              "internalType": "address",
              "name": "owner",
              "type": "address"
            },
            {
              "internalType": "address",
              "name": "renter",
              "type": "address"
            },
            {
              "internalType": "uint256",
              "name": "pricePerSecond",
              "type": "uint256"
            },
            {
              "internalType": "uint256",
              "name": "startTime",
              "type": "uint256"
            },
            {
              "internalType": "uint256",
              "name": "endTime",
              "type": "uint256"
            },
            {
              "internalType": "uint256",
              "name": "collateralAmount",
              "type": "uint256"
            },
            {
              "internalType": "bool",
              "name": "active",
              "type": "bool"
            },
            {
              "internalType": "bool",
              "name": "completed",
              "type": "bool"
            }
          ],
          "internalType": "struct NFTFlow.Rental",
          "name": "",
          "type": "tuple"
        }
      ],
      "stateMutability": "view",
      "type": "function"
    },
    {
      "inputs": [
        {
          "internalType": "address",
          "name": "nftContract",
          "type": "address"
        },
        {
          "internalType": "uint256",
          "name": "tokenId",
          "type": "uint256"
        },
        {
          "internalType": "uint256",
          "name": "pricePerSecond",
          "type": "uint256"
        },
        {
          "internalType": "uint256",
          "name": "minDuration",
          "type": "uint256"
        },
        {
          "internalType": "uint256",
          "name": "maxDuration",
          "type": "uint256"
        },
        {
          "internalType": "uint256",
          "name": "collateralRequired",
          "type": "uint256"
        }
      ],
      "name": "listForRental",
      "outputs": [],
      "stateMutability": "nonpayable",
      "type": "function"
    },
    {
      "inputs": [
        {
          "internalType": "bytes32",
          "name": "",
          "type": "bytes32"
        }
      ],
      "name": "listings",
      "outputs": [
        {
          "internalType": "address",
          "name": "nftContract",
          "type": "address"
        },
        {
          "internalType": "uint256",
          "name": "tokenId",
          "type": "uint256"
        },
        {
          "internalType": "address",
          "name": "owner",
          "type": "address"
        },
        {
          "internalType": "uint256",
          "name": "pricePerSecond",
          "type": "uint256"
        },
        {
          "internalType": "uint256",
          "name": "minRentalDuration",
          "type": "uint256"
        },
        {
          "internalType": "uint256",
          "name": "maxRentalDuration",
          "type": "uint256"
        },
        {
          "internalType": "uint256",
          "name": "collateralRequired",
          "type": "uint256"
        },
        {
          "internalType": "bool",
          "name": "active",
          "type": "bool"
        }
      ],
      "stateMutability": "view",
      "type": "function"
    },
    {
      "inputs": [],
      "name": "nextRentalId",
      "outputs": [
        {
          "internalType": "uint256",
          "name": "",
          "type": "uint256"
        }
      ],
      "stateMutability": "view",
      "type": "function"
    },
    {
      "inputs": [],
      "name": "owner",
      "outputs": [
        {
          "internalType": "address",
          "name": "",
          "type": "address"
        }
      ],
      "stateMutability": "view",
      "type": "function"
    },
    {
      "inputs": [
        {
          "internalType": "address",
          "name": "",
          "type": "address"
        },
        {
          "internalType": "uint256",
          "name": "",
          "type": "uint256"
        }
      ],
      "name": "ownerListings",
      "outputs": [
        {
          "internalType": "uint256",
          "name": "",
          "type": "uint256"
        }
      ],
      "stateMutability": "view",
      "type": "function"
    },
    {
      "inputs": [],
      "name": "pause",
      "outputs": [],
      "stateMutability": "nonpayable",
      "type": "function"
    },
    {
      "inputs": [],
      "name": "paused",
      "outputs": [
        {
          "internalType": "bool",
          "name": "",
          "type": "bool"
        }
      ],
      "stateMutability": "view",
      "type": "function"
    },
    {
      "inputs": [],
      "name": "paymentStreamContract",
      "outputs": [
        {
          "internalType": "address",
          "name": "",
          "type": "address"
        }
      ],
      "stateMutability": "view",
      "type": "function"
    },
    {
      "inputs": [],
      "name": "platformFeePercentage",
      "outputs": [
        {
          "internalType": "uint256",
          "name": "",
          "type": "uint256"
        }
      ],
      "stateMutability": "view",
      "type": "function"
    },
    {
      "inputs": [],
      "name": "priceOracle",
      "outputs": [
        {
          "internalType": "contract IPriceOracle",
          "name": "",
          "type": "address"
        }
      ],
      "stateMutability": "view",
      "type": "function"
    },
    {
      "inputs": [],
      "name": "renounceOwnership",
      "outputs": [],
      "stateMutability": "nonpayable",
      "type": "function"
    },
    {
      "inputs": [
        {
          "internalType": "bytes32",
          "name": "listingId",
          "type": "bytes32"
        },
        {
          "internalType": "uint256",
          "name": "duration",
          "type": "uint256"
        }
      ],
      "name": "rentNFT",
      "outputs": [],
      "stateMutability": "payable",
      "type": "function"
    },
    {
      "inputs": [
        {
          "internalType": "uint256",
          "name": "",
          "type": "uint256"
        }
      ],
      "name": "rentals",
      "outputs": [
        {
          "internalType": "address",
          "name": "nftContract",
          "type": "address"
        },
        {
          "internalType": "uint256",
          "name": "tokenId",
          "type": "uint256"
        },
        {
          "internalType": "address",
          "name": "owner",
          "type": "address"
        },
        {
          "internalType": "address",
          "name": "renter",
          "type": "address"
        },
        {
          "internalType": "uint256",
          "name": "pricePerSecond",
          "type": "uint256"
        },
        {
          "internalType": "uint256",
          "name": "startTime",
          "type": "uint256"
        },
        {
          "internalType": "uint256",
          "name": "endTime",
          "type": "uint256"
        },
        {
          "internalType": "uint256",
          "name": "collateralAmount",
          "type": "uint256"
        },
        {
          "internalType": "bool",
          "name": "active",
          "type": "bool"
        },
        {
          "internalType": "bool",
          "name": "completed",
          "type": "bool"
        }
      ],
      "stateMutability": "view",
      "type": "function"
    },
    {
      "inputs": [],
      "name": "reputationContract",
      "outputs": [
        {
          "internalType": "address",
          "name": "",
          "type": "address"
        }
      ],
      "stateMutability": "view",
      "type": "function"
    },
    {
      "inputs": [
        {
          "internalType": "address",
          "name": "newOwner",
          "type": "address"
        }
      ],
      "name": "transferOwnership",
      "outputs": [],
      "stateMutability": "nonpayable",
      "type": "function"
    },
    {
      "inputs": [],
      "name": "unpause",
      "outputs": [],
      "stateMutability": "nonpayable",
      "type": "function"
    },
    {
      "inputs": [
        {
          "internalType": "uint256",
          "name": "newFeePercentage",
          "type": "uint256"
        }
      ],
      "name": "updatePlatformFee",
      "outputs": [],
      "stateMutability": "nonpayable",
      "type": "function"
    },
    {
      "inputs": [
        {
          "internalType": "address",
          "name": "",
          "type": "address"
        }
      ],
      "name": "userCollateralBalance",
      "outputs": [
        {
          "internalType": "uint256",
          "name": "",
          "type": "uint256"
        }
      ],
      "stateMutability": "view",
      "type": "function"
    },
    {
      "inputs": [
        {
          "internalType": "address",
          "name": "",
          "type": "address"
        },
        {
          "internalType": "uint256",
          "name": "",
          "type": "uint256"
        }
      ],
      "name": "userRentals",
      "outputs": [
        {
          "internalType": "uint256",
          "name": "",
          "type": "uint256"
        }
      ],
      "stateMutability": "view",
      "type": "function"
    },
    {
      "inputs": [
        {
          "internalType": "uint256",
          "name": "amount",
          "type": "uint256"
        }
      ],
      "name": "withdrawCollateral",
      "outputs": [],
      "stateMutability": "nonpayable",
      "type": "function"
    },
    {
      "inputs": [],
      "name": "withdrawPlatformFees",
      "outputs": [],
      "stateMutability": "nonpayable",
      "type": "function"
    }
  ],
  "bytecode": "0x608060405260fa6008553480156200001657600080fd5b50604051620020193803806200201983398101604081905262000039916200010d565b60016000819055805460ff19169055620000533362000096565b600b80546001600160a01b039485166001600160a01b0319918216179091556009805493851693821693909317909255600a805491909316911617905562000157565b600180546001600160a01b03838116610100818102610100600160a81b031985161790945560405193909204169182907f8be0079c531659141344cd1fd0a4f28419497f9722a3daafe3b4186f6b6457e090600090a35050565b80516001600160a01b03811681146200010857600080fd5b919050565b6000806000606084860312156200012357600080fd5b6200012e84620000f0565b92506200013e60208501620000f0565b91506200014e60408501620000f0565b90509250925092565b611eb280620001676000396000f3fe60806040526004361061019c5760003560e01c80638456cb59116100ec578063b5af30621161008a578063cdd78cfc11610064578063cdd78cfc14610716578063d0b7830b1461072c578063f0609f3514610741578063f2fde38b1461076157600080fd5b8063b5af306214610617578063c18b8db414610644578063c8af69a61461070057600080fd5b80638da5cb5b116100c65780638da5cb5b146104d657806399124a65146104f9578063aa0b598814610519578063af94a1d11461053957600080fd5b80638456cb591461048157806387bc142514610496578063896f018f146104b657600080fd5b806358e679ed1161015957806361715bb51161013357806361715bb51461032e578063652bd29e1461034e5780636f75814014610464578063715018a61461046c57600080fd5b806358e679ed146102cb5780635c975abb146102eb5780636112fe2e1461030e57600080fd5b80630a60d6c8146101a1578063175c0d16146101c95780632630c12f146102525780633f4ba83a1461028a5780634f65473c146102a157806351b1de1a146102b8575b600080fd5b3480156101ad57600080fd5b506101b6600181565b6040519081526020015b60405180910390f35b3480156101d557600080fd5b506101e96101e4366004611c22565b610781565b6040805182516001600160a01b03908116825260208085015190830152838301511691810191909152606080830151908201526080808301519082015260a0808301519082015260c0808301519082015260e091820151151591810191909152610100016101c0565b34801561025e57600080fd5b50600b54610272906001600160a01b031681565b6040516001600160a01b0390911681526020016101c0565b34801561029657600080fd5b5061029f61085d565b005b3480156102ad57600080fd5b506101b662278d0081565b61029f6102c6366004611c3b565b61086f565b3480156102d757600080fd5b506101b66102e6366004611c72565b610e57565b3480156102f757600080fd5b5060015460ff1660405190151581526020016101c0565b34801561031a57600080fd5b5061029f610329366004611c22565b610e88565b34801561033a57600080fd5b5061029f610349366004611c9e565b610f82565b34801561035a57600080fd5b50610457610369366004611c22565b6040805161014081018252600080825260208201819052918101829052606081018290526080810182905260a0810182905260c0810182905260e0810182905261010081018290526101208101919091525060009081526002602081815260409283902083516101408101855281546001600160a01b03908116825260018301549382019390935292810154821693830193909352600383015416606082015260048201546080820152600582015460a0820152600682015460c0820152600782015460e082015260089091015460ff80821615156101008085019190915290910416151561012082015290565b6040516101c09190611cea565b61029f61143a565b34801561047857600080fd5b5061029f6114f5565b34801561048d57600080fd5b5061029f611507565b3480156104a257600080fd5b50600a54610272906001600160a01b031681565b3480156104c257600080fd5b5061029f6104d1366004611c22565b611517565b3480156104e257600080fd5b5060015461010090046001600160a01b0316610272565b34801561050557600080fd5b506101b6610514366004611c72565b611849565b34801561052557600080fd5b5061029f610534366004611c22565b611865565b34801561054557600080fd5b506105b9610554366004611c22565b60026020819052600091825260409091208054600182015492820154600383015460048401546005850154600686015460078701546008909701546001600160a01b039687169897958716969094169492939192909160ff808216916101009004168a565b604080516001600160a01b039b8c168152602081019a909a52978a1697890197909752979094166060870152608086019290925260a085015260c084015260e0830152911515610100820152901515610120820152610140016101c0565b34801561062357600080fd5b506101b6610632366004611d8b565b60066020526000908152604090205481565b34801561065057600080fd5b506106b461065f366004611c22565b6003602081905260009182526040909120805460018201546002830154938301546004840154600585015460068601546007909601546001600160a01b03958616979496959094169492939192909160ff1688565b604080516001600160a01b03998a168152602081019890985295909716948601949094526060850192909252608084015260a083015260c082015290151560e0820152610100016101c0565b34801561070c57600080fd5b506101b660075481565b34801561072257600080fd5b506101b660085481565b34801561073857600080fd5b5061029f6118b3565b34801561074d57600080fd5b50600954610272906001600160a01b031681565b34801561076d57600080fd5b5061029f61077c366004611d8b565b6118fb565b6107dd60405180610100016040528060006001600160a01b031681526020016000815260200160006001600160a01b03168152602001600081526020016000815260200160008152602001600081526020016000151581525090565b5060009081526003602081815260409283902083516101008101855281546001600160a01b03908116825260018301549382019390935260028201549092169382019390935290820154606082015260048201546080820152600582015460a0820152600682015460c082015260079091015460ff16151560e082015290565b610865611971565b61086d6119d1565b565b610877611a23565b61087f611a7c565b6000828152600360205260409020600781015460ff166108db5760405162461bcd60e51b81526020600482015260126024820152714c697374696e67206e6f742061637469766560701b60448201526064015b60405180910390fd5b80600401548210156109245760405162461bcd60e51b8152602060048201526012602482015271111d5c985d1a5bdb881d1bdbc81cda1bdc9d60721b60448201526064016108d2565b806005015482111561096c5760405162461bcd60e51b81526020600482015260116024820152704475726174696f6e20746f6f206c6f6e6760781b60448201526064016108d2565b600082826003015461097e9190611dc5565b90506000612710600854836109939190611dc5565b61099d9190611ddc565b905060006109ab8284611dfe565b90508360060154836109bd9190611e11565b341015610a035760405162461bcd60e51b8152602060048201526014602482015273125b9cdd59999a58da595b9d081c185e5b595b9d60621b60448201526064016108d2565b6006840154600a546001600160a01b031615610a2757610a24600282611ddc565b90505b336000908152600660205260409020548190610a44903490611e11565b1015610a925760405162461bcd60e51b815260206004820152601760248201527f496e73756666696369656e7420636f6c6c61746572616c00000000000000000060448201526064016108d2565b6007805460009182610aa383611e24565b909155509050426000610ab68983611e11565b90506040518061014001604052808960000160009054906101000a90046001600160a01b03166001600160a01b03168152602001896001015481526020018960020160009054906101000a90046001600160a01b03166001600160a01b03168152602001336001600160a01b031681526020018960030154815260200183815260200182815260200189600601548152602001600115158152602001600015158152506002600085815260200190815260200160002060008201518160000160006101000a8154816001600160a01b0302191690836001600160a01b031602179055506020820151816001015560408201518160020160006101000a8154816001600160a01b0302191690836001600160a01b0316021790555060608201518160030160006101000a8154816001600160a01b0302191690836001600160a01b031602179055506080820151816004015560a0820151816005015560c0820151816006015560e082015181600701556101008201518160080160006101000a81548160ff0219169083151502179055506101208201518160080160016101000a81548160ff02191690831515021790555090505060046000336001600160a01b03166001600160a01b03168152602001908152602001600020839080600181540180825580915050600190039060005260206000200160009091909190915055610cde8860000160009054906101000a90046001600160a01b0316632b424ad760e21b611ac2565b15610d5d57875460018901546040516370182b2f60e11b8152600481019190915233602482015267ffffffffffffffff831660448201526001600160a01b039091169063e030565e90606401600060405180830381600087803b158015610d4457600080fd5b505af1158015610d58573d6000803e3d6000fd5b505050505b60028801546040516001600160a01b039091169086156108fc029087906000818181858888f19350505050158015610d99573d6000803e3d6000fd5b50600680890154336000908152602092909252604090912054610dbc9190611e11565b336000818152600660209081526040918290209390935560078b01805460ff1916905560018b01548b5460028d015483516001600160a01b039182168152958601949094529184018d9052606084018b90529291169085907fbacc113f3ec4503bc2d38fa318397620aadf15e1340a4165723fecc423e438009060800160405180910390a45050505050505050610e536001600055565b5050565b60046020528160005260406000208181548110610e7357600080fd5b90600052602060002001600091509150505481565b610e90611a23565b33600090815260066020526040902054811115610ee65760405162461bcd60e51b8152602060048201526014602482015273496e73756666696369656e742062616c616e636560601b60448201526064016108d2565b33600090815260066020526040902054610f01908290611dfe565b33600081815260066020526040808220939093559151909183156108fc02918491818181858888f19350505050158015610f3f573d6000803e3d6000fd5b5060405181815233907fc30fcfbcaac9e0deffa719714eaa82396ff506a0d0d0eebe170830177288715d9060200160405180910390a2610f7f6001600055565b50565b610f8a611a23565b610f92611a7c565b6040516331a9108f60e11b81526004810186905233906001600160a01b03881690636352211e90602401602060405180830381865afa158015610fd9573d6000803e3d6000fd5b505050506040513d601f19601f82011682018060405250810190610ffd9190611e3d565b6001600160a01b0316146110455760405162461bcd60e51b815260206004820152600f60248201526e2737ba103a37b5b2b71037bbb732b960891b60448201526064016108d2565b60405163e985e9c560e01b81523360048201523060248201526001600160a01b0387169063e985e9c590604401602060405180830381865afa15801561108f573d6000803e3d6000fd5b505050506040513d601f19601f820116820180604052508101906110b39190611e5a565b6110f75760405162461bcd60e51b815260206004820152601560248201527410dbdb9d1c9858dd081b9bdd08185c1c1c9bdd9959605a1b60448201526064016108d2565b600084116111475760405162461bcd60e51b815260206004820152601c60248201527f5072696365206d7573742062652067726561746572207468616e20300000000060448201526064016108d2565b600183101561118d5760405162461bcd60e51b8152602060048201526012602482015271111d5c985d1a5bdb881d1bdbc81cda1bdc9d60721b60448201526064016108d2565b62278d008211156111d45760405162461bcd60e51b81526020600482015260116024820152704475726174696f6e20746f6f206c6f6e6760781b60448201526064016108d2565b8183111561121d5760405162461bcd60e51b8152602060048201526016602482015275496e76616c6964206475726174696f6e2072616e676560501b60448201526064016108d2565b6040516bffffffffffffffffffffffff19606088811b821660208401526034830188905233901b166054820152426068820152600090608801604051602081830303815290604052805190602001209050604051806101000160405280886001600160a01b03168152602001878152602001336001600160a01b03168152602001868152602001858152602001848152602001838152602001600115158152506003600083815260200190815260200160002060008201518160000160006101000a8154816001600160a01b0302191690836001600160a01b031602179055506020820151816001015560408201518160020160006101000a8154816001600160a01b0302191690836001600160a01b03160217905550606082015181600301556080820151816004015560a0820151816005015560c0820151816006015560e08201518160070160006101000a81548160ff02191690831515021790555090505060056000336001600160a01b03166001600160a01b031681526020019081526020016000208160001c908060018154018082558091505060019003906000526020600020016000909190919091505585876001600160a01b0316827fe201bdef34c816547640c53cd3bb3d0a8404dc5f12ed053c263487fd335ff2df338960405161141f9291906001600160a01b03929092168252602082015260400190565b60405180910390a4506114326001600055565b505050505050565b6000341161148a5760405162461bcd60e51b815260206004820152601860248201527f4d757374206465706f73697420736f6d6520616d6f756e74000000000000000060448201526064016108d2565b336000908152600660205260409020546114a5903490611e11565b33600081815260066020526040908190209290925590517fd7243f6f8212d5188fd054141cf6ea89cfc0d91facb8c3afe2f88a1358480142906114eb9034815260200190565b60405180910390a2565b6114fd611971565b61086d6000611b44565b61150f611971565b61086d611b9e565b61151f611a23565b6000818152600260205260409020600881015460ff166115755760405162461bcd60e51b815260206004820152601160248201527052656e74616c206e6f742061637469766560781b60448201526064016108d2565b80600601544210156115be5760405162461bcd60e51b815260206004820152601260248201527114995b9d185b081b9bdd08195e1c1a5c995960721b60448201526064016108d2565b60038101546001600160a01b03163314806115e5575060028101546001600160a01b031633145b6116225760405162461bcd60e51b815260206004820152600e60248201526d139bdd08185d5d1a1bdc9a5e995960921b60448201526064016108d2565b60088101805461ffff19166101001790556007810154156116c257600781015460038201546001600160a01b03166000908152600660205260409020546116699190611dfe565b6003820180546001600160a01b039081166000908152600660205260408082209490945591546007850154935191169280156108fc0292909190818181858888f193505050501580156116c0573d6000803e3d6000fd5b505b80546116de906001600160a01b0316632b424ad760e21b611ac2565b1561175557805460018201546040516370182b2f60e11b8152600481019190915260006024820181905260448201526001600160a01b039091169063e030565e90606401600060405180830381600087803b15801561173c57600080fd5b505af1158015611750573d6000803e3d6000fd5b505050505b8054600182015460028301546040516bffffffffffffffffffffffff19606094851b811660208301526034820193909352921b16605482015260009060680160408051601f1981840301815291815281516020928301206002808601546000838152600390955292909320909201549192506001600160a01b039081169116036117f6576000818152600360205260409020600701805460ff191660011790555b6003820154604051600181526001600160a01b039091169084907fea5be4bd41e659698e0312f0e0e9203de0198dcc69698e45d6fc74d24f62558e9060200160405180910390a35050610f7f6001600055565b60056020528160005260406000208181548110610e7357600080fd5b61186d611971565b6103e88111156118ae5760405162461bcd60e51b815260206004820152600c60248201526b08ccaca40e8dede40d0d2ced60a31b60448201526064016108d2565b600855565b6118bb611971565b6001546040516001600160a01b0361010090920491909116904780156108fc02916000818181858888f19350505050158015610f7f573d6000803e3d6000fd5b611903611971565b6001600160a01b0381166119685760405162461bcd60e51b815260206004820152602660248201527f4f776e61626c653a206e6577206f776e657220697320746865207a65726f206160448201526564647265737360d01b60648201526084016108d2565b610f7f81611b44565b6001546001600160a01b0361010090910416331461086d5760405162461bcd60e51b815260206004820181905260248201527f4f776e61626c653a2063616c6c6572206973206e6f7420746865206f776e657260448201526064016108d2565b6119d9611bd9565b6001805460ff191690557f5db9ee0a495bf2e6ff9c91a7834c1ba4fdd244a5e8aa4e537bd38aeae4b073aa335b6040516001600160a01b03909116815260200160405180910390a1565b600260005403611a755760405162461bcd60e51b815260206004820152601f60248201527f5265656e7472616e637947756172643a207265656e7472616e742063616c6c0060448201526064016108d2565b6002600055565b60015460ff161561086d5760405162461bcd60e51b815260206004820152601060248201526f14185d5cd8589b194e881c185d5cd95960821b60448201526064016108d2565b6040516301ffc9a760e01b81526001600160e01b0319821660048201526000906001600160a01b038416906301ffc9a790602401602060405180830381865afa925050508015611b2f575060408051601f3d908101601f19168201909252611b2c91810190611e5a565b60015b611b3b57506000611b3e565b90505b92915050565b600180546001600160a01b03838116610100818102610100600160a81b031985161790945560405193909204169182907f8be0079c531659141344cd1fd0a4f28419497f9722a3daafe3b4186f6b6457e090600090a35050565b611ba6611a7c565b6001805460ff1916811790557f62e78cea01bee320cd4e420270b5ea74000d11b0c9f74754ebdbfc544b05a25833611a06565b60015460ff1661086d5760405162461bcd60e51b815260206004820152601460248201527314185d5cd8589b194e881b9bdd081c185d5cd95960621b60448201526064016108d2565b600060208284031215611c3457600080fd5b5035919050565b60008060408385031215611c4e57600080fd5b50508035926020909101359150565b6001600160a01b0381168114610f7f57600080fd5b60008060408385031215611c8557600080fd5b8235611c9081611c5d565b946020939093013593505050565b60008060008060008060c08789031215611cb757600080fd5b8635611cc281611c5d565b9860208801359850604088013597606081013597506080810135965060a00135945092505050565b81516001600160a01b031681526101408101602083015160208301526040830151611d2060408401826001600160a01b03169052565b506060830151611d3b60608401826001600160a01b03169052565b506080830151608083015260a083015160a083015260c083015160c083015260e083015160e083015261010080840151611d788285018215159052565b5050610120928301511515919092015290565b600060208284031215611d9d57600080fd5b8135611da881611c5d565b9392505050565b634e487b7160e01b600052601160045260246000fd5b8082028115828204841417611b3e57611b3e611daf565b600082611df957634e487b7160e01b600052601260045260246000fd5b500490565b81810381811115611b3e57611b3e611daf565b80820180821115611b3e57611b3e611daf565b600060018201611e3657611e36611daf565b5060010190565b600060208284031215611e4f57600080fd5b8151611da881611c5d565b600060208284031215611e6c57600080fd5b81518015158114611da857600080fdfea2646970667358221220dd4bcf25ef9bcb3cc3fa8887a86bb7d358f0999c5190f2368dc6b22ad9beb52964736f6c63430008130033",
  "linkReferences": {},
  "deployedLinkReferences": {}
}