{
  "_format": "hh-sol-artifact-1",
  "contractName": "NFTFlow",
  "sourceName": "contracts/NFTFlow.sol",
  "abi": [
    {
      "inputs": [
        {
          "internalType": "address",
          "name": "_priceOracle",
          "type": "address"
        },
        {
          "internalType": "address",
          "name": "_paymentStreamContract",
          "type": "address"
        },
        {
          "internalType": "address",
          "name": "_reputationContract",
          "type": "address"
        },
        {
          "internalType": "address",
          "name": "_utilityTrackerContract",
          "type": "address"
        }
      ],
      "stateMutability": "nonpayable",
      "type": "constructor"
    },
    {
      "anonymous": false,
      "inputs": [
        {
          "indexed": true,
          "internalType": "address",
          "name": "user",
          "type": "address"
        },
        {
          "indexed": false,
          "internalType": "uint256",
          "name": "amount",
          "type": "uint256"
        }
      ],
      "name": "CollateralDeposited",
      "type": "event"
    },
    {
      "anonymous": false,
      "inputs": [
        {
          "indexed": true,
          "internalType": "address",
          "name": "user",
          "type": "address"
        },
        {
          "indexed": false,
          "internalType": "uint256",
          "name": "amount",
          "type": "uint256"
        }
      ],
      "name": "CollateralWithdrawn",
      "type": "event"
    },
    {
      "anonymous": false,
      "inputs": [
        {
          "indexed": true,
          "internalType": "address",
          "name": "previousOwner",
          "type": "address"
        },
        {
          "indexed": true,
          "internalType": "address",
          "name": "newOwner",
          "type": "address"
        }
      ],
      "name": "OwnershipTransferred",
      "type": "event"
    },
    {
      "anonymous": false,
      "inputs": [
        {
          "indexed": false,
          "internalType": "address",
          "name": "account",
          "type": "address"
        }
      ],
      "name": "Paused",
      "type": "event"
    },
    {
      "anonymous": false,
      "inputs": [
        {
          "indexed": true,
          "internalType": "uint256",
          "name": "rentalId",
          "type": "uint256"
        },
        {
          "indexed": true,
          "internalType": "address",
          "name": "renter",
          "type": "address"
        },
        {
          "indexed": false,
          "internalType": "bool",
          "name": "successful",
          "type": "bool"
        }
      ],
      "name": "RentalCompleted",
      "type": "event"
    },
    {
      "anonymous": false,
      "inputs": [
        {
          "indexed": true,
          "internalType": "uint256",
          "name": "rentalId",
          "type": "uint256"
        },
        {
          "indexed": true,
          "internalType": "address",
          "name": "nftContract",
          "type": "address"
        },
        {
          "indexed": true,
          "internalType": "uint256",
          "name": "tokenId",
          "type": "uint256"
        },
        {
          "indexed": false,
          "internalType": "address",
          "name": "owner",
          "type": "address"
        },
        {
          "indexed": false,
          "internalType": "address",
          "name": "renter",
          "type": "address"
        },
        {
          "indexed": false,
          "internalType": "uint256",
          "name": "duration",
          "type": "uint256"
        },
        {
          "indexed": false,
          "internalType": "uint256",
          "name": "totalCost",
          "type": "uint256"
        }
      ],
      "name": "RentalCreated",
      "type": "event"
    },
    {
      "anonymous": false,
      "inputs": [
        {
          "indexed": true,
          "internalType": "bytes32",
          "name": "listingId",
          "type": "bytes32"
        },
        {
          "indexed": true,
          "internalType": "address",
          "name": "nftContract",
          "type": "address"
        },
        {
          "indexed": true,
          "internalType": "uint256",
          "name": "tokenId",
          "type": "uint256"
        },
        {
          "indexed": false,
          "internalType": "address",
          "name": "owner",
          "type": "address"
        },
        {
          "indexed": false,
          "internalType": "uint256",
          "name": "pricePerSecond",
          "type": "uint256"
        }
      ],
      "name": "RentalListed",
      "type": "event"
    },
    {
      "anonymous": false,
      "inputs": [
        {
          "indexed": false,
          "internalType": "address",
          "name": "account",
          "type": "address"
        }
      ],
      "name": "Unpaused",
      "type": "event"
    },
    {
      "inputs": [],
      "name": "MAX_RENTAL_DURATION",
      "outputs": [
        {
          "internalType": "uint256",
          "name": "",
          "type": "uint256"
        }
      ],
      "stateMutability": "view",
      "type": "function"
    },
    {
      "inputs": [],
      "name": "MIN_RENTAL_DURATION",
      "outputs": [
        {
          "internalType": "uint256",
          "name": "",
          "type": "uint256"
        }
      ],
      "stateMutability": "view",
      "type": "function"
    },
    {
      "inputs": [
        {
          "internalType": "uint256",
          "name": "rentalId",
          "type": "uint256"
        }
      ],
      "name": "completeRental",
      "outputs": [],
      "stateMutability": "nonpayable",
      "type": "function"
    },
    {
      "inputs": [],
      "name": "depositCollateral",
      "outputs": [],
      "stateMutability": "payable",
      "type": "function"
    },
    {
      "inputs": [
        {
          "internalType": "bytes32",
          "name": "listingId",
          "type": "bytes32"
        }
      ],
      "name": "getListing",
      "outputs": [
        {
          "components": [
            {
              "internalType": "address",
              "name": "nftContract",
              "type": "address"
            },
            {
              "internalType": "uint256",
              "name": "tokenId",
              "type": "uint256"
            },
            {
              "internalType": "address",
              "name": "owner",
              "type": "address"
            },
            {
              "internalType": "uint256",
              "name": "pricePerSecond",
              "type": "uint256"
            },
            {
              "internalType": "uint256",
              "name": "minRentalDuration",
              "type": "uint256"
            },
            {
              "internalType": "uint256",
              "name": "maxRentalDuration",
              "type": "uint256"
            },
            {
              "internalType": "uint256",
              "name": "collateralRequired",
              "type": "uint256"
            },
            {
              "internalType": "bool",
              "name": "active",
              "type": "bool"
            }
          ],
          "internalType": "struct NFTFlow.RentalListing",
          "name": "",
          "type": "tuple"
        }
      ],
      "stateMutability": "view",
      "type": "function"
    },
    {
      "inputs": [
        {
          "internalType": "uint256",
          "name": "rentalId",
          "type": "uint256"
        }
      ],
      "name": "getRental",
      "outputs": [
        {
          "components": [
            {
              "internalType": "address",
              "name": "nftContract",
              "type": "address"
            },
            {
              "internalType": "uint256",
              "name": "tokenId",
              "type": "uint256"
            },
            {
              "internalType": "address",
              "name": "owner",
              "type": "address"
            },
            {
              "internalType": "address",
              "name": "renter",
              "type": "address"
            },
            {
              "internalType": "uint256",
              "name": "pricePerSecond",
              "type": "uint256"
            },
            {
              "internalType": "uint256",
              "name": "startTime",
              "type": "uint256"
            },
            {
              "internalType": "uint256",
              "name": "endTime",
              "type": "uint256"
            },
            {
              "internalType": "uint256",
              "name": "collateralAmount",
              "type": "uint256"
            },
            {
              "internalType": "bool",
              "name": "active",
              "type": "bool"
            },
            {
              "internalType": "bool",
              "name": "completed",
              "type": "bool"
            }
          ],
          "internalType": "struct NFTFlow.Rental",
          "name": "",
          "type": "tuple"
        }
      ],
      "stateMutability": "view",
      "type": "function"
    },
    {
      "inputs": [
        {
          "internalType": "address",
          "name": "nftContract",
          "type": "address"
        },
        {
          "internalType": "uint256",
          "name": "tokenId",
          "type": "uint256"
        },
        {
          "internalType": "uint256",
          "name": "basePrice",
          "type": "uint256"
        }
      ],
      "name": "getUtilityBasedPrice",
      "outputs": [
        {
          "internalType": "uint256",
          "name": "",
          "type": "uint256"
        }
      ],
      "stateMutability": "view",
      "type": "function"
    },
    {
      "inputs": [
        {
          "internalType": "address",
          "name": "nftContract",
          "type": "address"
        },
        {
          "internalType": "uint256",
          "name": "tokenId",
          "type": "uint256"
        }
      ],
      "name": "hasHighUtilityDemand",
      "outputs": [
        {
          "internalType": "bool",
          "name": "",
          "type": "bool"
        }
      ],
      "stateMutability": "view",
      "type": "function"
    },
    {
      "inputs": [
        {
          "internalType": "address",
          "name": "nftContract",
          "type": "address"
        },
        {
          "internalType": "uint256",
          "name": "tokenId",
          "type": "uint256"
        },
        {
          "internalType": "uint256",
          "name": "pricePerSecond",
          "type": "uint256"
        },
        {
          "internalType": "uint256",
          "name": "minDuration",
          "type": "uint256"
        },
        {
          "internalType": "uint256",
          "name": "maxDuration",
          "type": "uint256"
        },
        {
          "internalType": "uint256",
          "name": "collateralRequired",
          "type": "uint256"
        }
      ],
      "name": "listForRental",
      "outputs": [],
      "stateMutability": "nonpayable",
      "type": "function"
    },
    {
      "inputs": [
        {
          "internalType": "bytes32",
          "name": "",
          "type": "bytes32"
        }
      ],
      "name": "listings",
      "outputs": [
        {
          "internalType": "address",
          "name": "nftContract",
          "type": "address"
        },
        {
          "internalType": "uint256",
          "name": "tokenId",
          "type": "uint256"
        },
        {
          "internalType": "address",
          "name": "owner",
          "type": "address"
        },
        {
          "internalType": "uint256",
          "name": "pricePerSecond",
          "type": "uint256"
        },
        {
          "internalType": "uint256",
          "name": "minRentalDuration",
          "type": "uint256"
        },
        {
          "internalType": "uint256",
          "name": "maxRentalDuration",
          "type": "uint256"
        },
        {
          "internalType": "uint256",
          "name": "collateralRequired",
          "type": "uint256"
        },
        {
          "internalType": "bool",
          "name": "active",
          "type": "bool"
        }
      ],
      "stateMutability": "view",
      "type": "function"
    },
    {
      "inputs": [],
      "name": "nextRentalId",
      "outputs": [
        {
          "internalType": "uint256",
          "name": "",
          "type": "uint256"
        }
      ],
      "stateMutability": "view",
      "type": "function"
    },
    {
      "inputs": [],
      "name": "owner",
      "outputs": [
        {
          "internalType": "address",
          "name": "",
          "type": "address"
        }
      ],
      "stateMutability": "view",
      "type": "function"
    },
    {
      "inputs": [
        {
          "internalType": "address",
          "name": "",
          "type": "address"
        },
        {
          "internalType": "uint256",
          "name": "",
          "type": "uint256"
        }
      ],
      "name": "ownerListings",
      "outputs": [
        {
          "internalType": "uint256",
          "name": "",
          "type": "uint256"
        }
      ],
      "stateMutability": "view",
      "type": "function"
    },
    {
      "inputs": [],
      "name": "pause",
      "outputs": [],
      "stateMutability": "nonpayable",
      "type": "function"
    },
    {
      "inputs": [],
      "name": "paused",
      "outputs": [
        {
          "internalType": "bool",
          "name": "",
          "type": "bool"
        }
      ],
      "stateMutability": "view",
      "type": "function"
    },
    {
      "inputs": [],
      "name": "paymentStreamContract",
      "outputs": [
        {
          "internalType": "address",
          "name": "",
          "type": "address"
        }
      ],
      "stateMutability": "view",
      "type": "function"
    },
    {
      "inputs": [],
      "name": "platformFeePercentage",
      "outputs": [
        {
          "internalType": "uint256",
          "name": "",
          "type": "uint256"
        }
      ],
      "stateMutability": "view",
      "type": "function"
    },
    {
      "inputs": [],
      "name": "priceOracle",
      "outputs": [
        {
          "internalType": "contract IPriceOracle",
          "name": "",
          "type": "address"
        }
      ],
      "stateMutability": "view",
      "type": "function"
    },
    {
      "inputs": [],
      "name": "renounceOwnership",
      "outputs": [],
      "stateMutability": "nonpayable",
      "type": "function"
    },
    {
      "inputs": [
        {
          "internalType": "bytes32",
          "name": "listingId",
          "type": "bytes32"
        },
        {
          "internalType": "uint256",
          "name": "duration",
          "type": "uint256"
        }
      ],
      "name": "rentNFT",
      "outputs": [],
      "stateMutability": "payable",
      "type": "function"
    },
    {
      "inputs": [
        {
          "internalType": "uint256",
          "name": "",
          "type": "uint256"
        }
      ],
      "name": "rentals",
      "outputs": [
        {
          "internalType": "address",
          "name": "nftContract",
          "type": "address"
        },
        {
          "internalType": "uint256",
          "name": "tokenId",
          "type": "uint256"
        },
        {
          "internalType": "address",
          "name": "owner",
          "type": "address"
        },
        {
          "internalType": "address",
          "name": "renter",
          "type": "address"
        },
        {
          "internalType": "uint256",
          "name": "pricePerSecond",
          "type": "uint256"
        },
        {
          "internalType": "uint256",
          "name": "startTime",
          "type": "uint256"
        },
        {
          "internalType": "uint256",
          "name": "endTime",
          "type": "uint256"
        },
        {
          "internalType": "uint256",
          "name": "collateralAmount",
          "type": "uint256"
        },
        {
          "internalType": "bool",
          "name": "active",
          "type": "bool"
        },
        {
          "internalType": "bool",
          "name": "completed",
          "type": "bool"
        }
      ],
      "stateMutability": "view",
      "type": "function"
    },
    {
      "inputs": [],
      "name": "reputationContract",
      "outputs": [
        {
          "internalType": "address",
          "name": "",
          "type": "address"
        }
      ],
      "stateMutability": "view",
      "type": "function"
    },
    {
      "inputs": [
        {
          "internalType": "address",
          "name": "newOwner",
          "type": "address"
        }
      ],
      "name": "transferOwnership",
      "outputs": [],
      "stateMutability": "nonpayable",
      "type": "function"
    },
    {
      "inputs": [],
      "name": "unpause",
      "outputs": [],
      "stateMutability": "nonpayable",
      "type": "function"
    },
    {
      "inputs": [
        {
          "internalType": "uint256",
          "name": "newFeePercentage",
          "type": "uint256"
        }
      ],
      "name": "updatePlatformFee",
      "outputs": [],
      "stateMutability": "nonpayable",
      "type": "function"
    },
    {
      "inputs": [
        {
          "internalType": "address",
          "name": "",
          "type": "address"
        }
      ],
      "name": "userCollateralBalance",
      "outputs": [
        {
          "internalType": "uint256",
          "name": "",
          "type": "uint256"
        }
      ],
      "stateMutability": "view",
      "type": "function"
    },
    {
      "inputs": [
        {
          "internalType": "address",
          "name": "",
          "type": "address"
        },
        {
          "internalType": "uint256",
          "name": "",
          "type": "uint256"
        }
      ],
      "name": "userRentals",
      "outputs": [
        {
          "internalType": "uint256",
          "name": "",
          "type": "uint256"
        }
      ],
      "stateMutability": "view",
      "type": "function"
    },
    {
      "inputs": [],
      "name": "utilityTrackerContract",
      "outputs": [
        {
          "internalType": "address",
          "name": "",
          "type": "address"
        }
      ],
      "stateMutability": "view",
      "type": "function"
    },
    {
      "inputs": [
        {
          "internalType": "uint256",
          "name": "amount",
          "type": "uint256"
        }
      ],
      "name": "withdrawCollateral",
      "outputs": [],
      "stateMutability": "nonpayable",
      "type": "function"
    },
    {
      "inputs": [],
      "name": "withdrawPlatformFees",
      "outputs": [],
      "stateMutability": "nonpayable",
      "type": "function"
    }
  ],
  "bytecode": "0x608060405260fa6008553480156200001657600080fd5b50604051620024563803806200245683398101604081905262000039916200011e565b60016000819055805460ff191690556200005333620000a7565b600c80546001600160a01b039586166001600160a01b0319918216179091556009805494861694821694909417909355600a805492851692841692909217909155600b80549190931691161790556200017b565b600180546001600160a01b03838116610100818102610100600160a81b031985161790945560405193909204169182907f8be0079c531659141344cd1fd0a4f28419497f9722a3daafe3b4186f6b6457e090600090a35050565b80516001600160a01b03811681146200011957600080fd5b919050565b600080600080608085870312156200013557600080fd5b620001408562000101565b9350620001506020860162000101565b9250620001606040860162000101565b9150620001706060860162000101565b905092959194509250565b6122cb806200018b6000396000f3fe6080604052600436106101cd5760003560e01c80638456cb59116100f7578063b5af306211610095578063d0b7830b11610064578063d0b7830b1461079e578063e38d7cd6146107b3578063f0609f35146107d3578063f2fde38b146107f357600080fd5b8063b5af306214610689578063c18b8db4146106b6578063c8af69a614610772578063cdd78cfc1461078857600080fd5b80638da5cb5b116100d15780638da5cb5b1461054857806399124a651461056b578063aa0b59881461058b578063af94a1d1146105ab57600080fd5b80638456cb59146104f357806387bc142514610508578063896f018f1461052857600080fd5b80635704acf81161016f57806361715bb51161013e57806361715bb5146103a0578063652bd29e146103c05780636f758140146104d6578063715018a6146104de57600080fd5b80635704acf81461031c57806358e679ed1461033c5780635c975abb1461035c5780636112fe2e1461038057600080fd5b80632630c12f116101ab5780632630c12f146102a35780633f4ba83a146102db5780634f65473c146102f257806351b1de1a1461030957600080fd5b80630a60d6c8146101d2578063175c0d16146101fa57806320e868bb14610283575b600080fd5b3480156101de57600080fd5b506101e7600181565b6040519081526020015b60405180910390f35b34801561020657600080fd5b5061021a610215366004611fc5565b610813565b6040805182516001600160a01b03908116825260208085015190830152838301511691810191909152606080830151908201526080808301519082015260a0808301519082015260c0808301519082015260e091820151151591810191909152610100016101f1565b34801561028f57600080fd5b506101e761029e366004611ff3565b6108ef565b3480156102af57600080fd5b50600c546102c3906001600160a01b031681565b6040516001600160a01b0390911681526020016101f1565b3480156102e757600080fd5b506102f06109ef565b005b3480156102fe57600080fd5b506101e762278d0081565b6102f0610317366004612028565b610a01565b34801561032857600080fd5b50600b546102c3906001600160a01b031681565b34801561034857600080fd5b506101e761035736600461204a565b610fe9565b34801561036857600080fd5b5060015460ff165b60405190151581526020016101f1565b34801561038c57600080fd5b506102f061039b366004611fc5565b61101a565b3480156103ac57600080fd5b506102f06103bb366004612076565b611114565b3480156103cc57600080fd5b506104c96103db366004611fc5565b6040805161014081018252600080825260208201819052918101829052606081018290526080810182905260a0810182905260c0810182905260e0810182905261010081018290526101208101919091525060009081526002602081815260409283902083516101408101855281546001600160a01b03908116825260018301549382019390935292810154821693830193909352600383015416606082015260048201546080820152600582015460a0820152600682015460c0820152600782015460e082015260089091015460ff80821615156101008085019190915290910416151561012082015290565b6040516101f191906120c2565b6102f06115cc565b3480156104ea57600080fd5b506102f0611687565b3480156104ff57600080fd5b506102f0611699565b34801561051457600080fd5b50600a546102c3906001600160a01b031681565b34801561053457600080fd5b506102f0610543366004611fc5565b6116a9565b34801561055457600080fd5b5060015461010090046001600160a01b03166102c3565b34801561057757600080fd5b506101e761058636600461204a565b611af4565b34801561059757600080fd5b506102f06105a6366004611fc5565b611b10565b3480156105b757600080fd5b5061062b6105c6366004611fc5565b60026020819052600091825260409091208054600182015492820154600383015460048401546005850154600686015460078701546008909701546001600160a01b039687169897958716969094169492939192909160ff808216916101009004168a565b604080516001600160a01b039b8c168152602081019a909a52978a1697890197909752979094166060870152608086019290925260a085015260c084015260e0830152911515610100820152901515610120820152610140016101f1565b34801561069557600080fd5b506101e76106a4366004612163565b60066020526000908152604090205481565b3480156106c257600080fd5b506107266106d1366004611fc5565b6003602081905260009182526040909120805460018201546002830154938301546004840154600585015460068601546007909601546001600160a01b03958616979496959094169492939192909160ff1688565b604080516001600160a01b03998a168152602081019890985295909716948601949094526060850192909252608084015260a083015260c082015290151560e0820152610100016101f1565b34801561077e57600080fd5b506101e760075481565b34801561079457600080fd5b506101e760085481565b3480156107aa57600080fd5b506102f0611b5e565b3480156107bf57600080fd5b506103706107ce36600461204a565b611ba6565b3480156107df57600080fd5b506009546102c3906001600160a01b031681565b3480156107ff57600080fd5b506102f061080e366004612163565b611ca0565b61086f60405180610100016040528060006001600160a01b031681526020016000815260200160006001600160a01b03168152602001600081526020016000815260200160008152602001600081526020016000151581525090565b5060009081526003602081815260409283902083516101008101855281546001600160a01b03908116825260018301549382019390935260028201549092169382019390935290820154606082015260048201546080820152600582015460a0820152600682015460c082015260079091015460ff16151560e082015290565b600b546000906001600160a01b03166109095750806109e8565b600b546040516001600160a01b0386811660248301526044820186905260648201859052600092839291169060840160408051601f198184030181529181526020820180516001600160e01b03166320e868bb60e01b1790525161096d9190612180565b600060405180830381855afa9150503d80600081146109a8576040519150601f19603f3d011682016040523d82523d6000602084013e6109ad565b606091505b50915091508180156109c0575060008151115b156109e257808060200190518101906109d991906121af565b925050506109e8565b83925050505b9392505050565b6109f7611d16565b6109ff611d76565b565b610a09611dc8565b610a11611e21565b6000828152600360205260409020600781015460ff16610a6d5760405162461bcd60e51b81526020600482015260126024820152714c697374696e67206e6f742061637469766560701b60448201526064015b60405180910390fd5b8060040154821015610ab65760405162461bcd60e51b8152602060048201526012602482015271111d5c985d1a5bdb881d1bdbc81cda1bdc9d60721b6044820152606401610a64565b8060050154821115610afe5760405162461bcd60e51b81526020600482015260116024820152704475726174696f6e20746f6f206c6f6e6760781b6044820152606401610a64565b6000828260030154610b1091906121de565b9050600061271060085483610b2591906121de565b610b2f91906121f5565b90506000610b3d8284612217565b9050836006015483610b4f919061222a565b341015610b955760405162461bcd60e51b8152602060048201526014602482015273125b9cdd59999a58da595b9d081c185e5b595b9d60621b6044820152606401610a64565b6006840154600a546001600160a01b031615610bb957610bb66002826121f5565b90505b336000908152600660205260409020548190610bd690349061222a565b1015610c245760405162461bcd60e51b815260206004820152601760248201527f496e73756666696369656e7420636f6c6c61746572616c0000000000000000006044820152606401610a64565b6007805460009182610c358361223d565b909155509050426000610c48898361222a565b90506040518061014001604052808960000160009054906101000a90046001600160a01b03166001600160a01b03168152602001896001015481526020018960020160009054906101000a90046001600160a01b03166001600160a01b03168152602001336001600160a01b031681526020018960030154815260200183815260200182815260200189600601548152602001600115158152602001600015158152506002600085815260200190815260200160002060008201518160000160006101000a8154816001600160a01b0302191690836001600160a01b031602179055506020820151816001015560408201518160020160006101000a8154816001600160a01b0302191690836001600160a01b0316021790555060608201518160030160006101000a8154816001600160a01b0302191690836001600160a01b031602179055506080820151816004015560a0820151816005015560c0820151816006015560e082015181600701556101008201518160080160006101000a81548160ff0219169083151502179055506101208201518160080160016101000a81548160ff02191690831515021790555090505060046000336001600160a01b03166001600160a01b03168152602001908152602001600020839080600181540180825580915050600190039060005260206000200160009091909190915055610e708860000160009054906101000a90046001600160a01b0316632b424ad760e21b611e67565b15610eef57875460018901546040516370182b2f60e11b8152600481019190915233602482015267ffffffffffffffff831660448201526001600160a01b039091169063e030565e90606401600060405180830381600087803b158015610ed657600080fd5b505af1158015610eea573d6000803e3d6000fd5b505050505b60028801546040516001600160a01b039091169086156108fc029087906000818181858888f19350505050158015610f2b573d6000803e3d6000fd5b50600680890154336000908152602092909252604090912054610f4e919061222a565b336000818152600660209081526040918290209390935560078b01805460ff1916905560018b01548b5460028d015483516001600160a01b039182168152958601949094529184018d9052606084018b90529291169085907fbacc113f3ec4503bc2d38fa318397620aadf15e1340a4165723fecc423e438009060800160405180910390a45050505050505050610fe56001600055565b5050565b6004602052816000526040600020818154811061100557600080fd5b90600052602060002001600091509150505481565b611022611dc8565b336000908152600660205260409020548111156110785760405162461bcd60e51b8152602060048201526014602482015273496e73756666696369656e742062616c616e636560601b6044820152606401610a64565b33600090815260066020526040902054611093908290612217565b33600081815260066020526040808220939093559151909183156108fc02918491818181858888f193505050501580156110d1573d6000803e3d6000fd5b5060405181815233907fc30fcfbcaac9e0deffa719714eaa82396ff506a0d0d0eebe170830177288715d9060200160405180910390a26111116001600055565b50565b61111c611dc8565b611124611e21565b6040516331a9108f60e11b81526004810186905233906001600160a01b03881690636352211e90602401602060405180830381865afa15801561116b573d6000803e3d6000fd5b505050506040513d601f19601f8201168201806040525081019061118f9190612256565b6001600160a01b0316146111d75760405162461bcd60e51b815260206004820152600f60248201526e2737ba103a37b5b2b71037bbb732b960891b6044820152606401610a64565b60405163e985e9c560e01b81523360048201523060248201526001600160a01b0387169063e985e9c590604401602060405180830381865afa158015611221573d6000803e3d6000fd5b505050506040513d601f19601f820116820180604052508101906112459190612273565b6112895760405162461bcd60e51b815260206004820152601560248201527410dbdb9d1c9858dd081b9bdd08185c1c1c9bdd9959605a1b6044820152606401610a64565b600084116112d95760405162461bcd60e51b815260206004820152601c60248201527f5072696365206d7573742062652067726561746572207468616e2030000000006044820152606401610a64565b600183101561131f5760405162461bcd60e51b8152602060048201526012602482015271111d5c985d1a5bdb881d1bdbc81cda1bdc9d60721b6044820152606401610a64565b62278d008211156113665760405162461bcd60e51b81526020600482015260116024820152704475726174696f6e20746f6f206c6f6e6760781b6044820152606401610a64565b818311156113af5760405162461bcd60e51b8152602060048201526016602482015275496e76616c6964206475726174696f6e2072616e676560501b6044820152606401610a64565b6040516bffffffffffffffffffffffff19606088811b821660208401526034830188905233901b166054820152426068820152600090608801604051602081830303815290604052805190602001209050604051806101000160405280886001600160a01b03168152602001878152602001336001600160a01b03168152602001868152602001858152602001848152602001838152602001600115158152506003600083815260200190815260200160002060008201518160000160006101000a8154816001600160a01b0302191690836001600160a01b031602179055506020820151816001015560408201518160020160006101000a8154816001600160a01b0302191690836001600160a01b03160217905550606082015181600301556080820151816004015560a0820151816005015560c0820151816006015560e08201518160070160006101000a81548160ff02191690831515021790555090505060056000336001600160a01b03166001600160a01b031681526020019081526020016000208160001c908060018154018082558091505060019003906000526020600020016000909190919091505585876001600160a01b0316827fe201bdef34c816547640c53cd3bb3d0a8404dc5f12ed053c263487fd335ff2df33896040516115b19291906001600160a01b03929092168252602082015260400190565b60405180910390a4506115c46001600055565b505050505050565b6000341161161c5760405162461bcd60e51b815260206004820152601860248201527f4d757374206465706f73697420736f6d6520616d6f756e7400000000000000006044820152606401610a64565b3360009081526006602052604090205461163790349061222a565b33600081815260066020526040908190209290925590517fd7243f6f8212d5188fd054141cf6ea89cfc0d91facb8c3afe2f88a13584801429061167d9034815260200190565b60405180910390a2565b61168f611d16565b6109ff6000611ee7565b6116a1611d16565b6109ff611f41565b6116b1611dc8565b6000818152600260205260409020600881015460ff166117075760405162461bcd60e51b815260206004820152601160248201527052656e74616c206e6f742061637469766560781b6044820152606401610a64565b80600601544210156117505760405162461bcd60e51b815260206004820152601260248201527114995b9d185b081b9bdd08195e1c1a5c995960721b6044820152606401610a64565b60038101546001600160a01b0316331480611777575060028101546001600160a01b031633145b6117b45760405162461bcd60e51b815260206004820152600e60248201526d139bdd08185d5d1a1bdc9a5e995960921b6044820152606401610a64565b60088101805461ffff191661010017905560078101541561185457600781015460038201546001600160a01b03166000908152600660205260409020546117fb9190612217565b6003820180546001600160a01b039081166000908152600660205260408082209490945591546007850154935191169280156108fc0292909190818181858888f19350505050158015611852573d6000803e3d6000fd5b505b8054611870906001600160a01b0316632b424ad760e21b611e67565b156118e757805460018201546040516370182b2f60e11b8152600481019190915260006024820181905260448201526001600160a01b039091169063e030565e90606401600060405180830381600087803b1580156118ce57600080fd5b505af11580156118e2573d6000803e3d6000fd5b505050505b600b546001600160a01b031615611a005760008160050154826006015461190e9190612217565b9050600081836004015461192291906121de565b600b54845460018601546003870154600588015460068901546040516001600160a01b03958616602482015260448101949094529184166064840152608483015260a4820152600060c4820181905260e482018590529394509116906101040160408051601f198184030181529181526020820180516001600160e01b03166393df721760e01b179052516119b79190612180565b6000604051808303816000865af19150503d80600081146119f4576040519150601f19603f3d011682016040523d82523d6000602084013e6119f9565b606091505b5050505050505b8054600182015460028301546040516bffffffffffffffffffffffff19606094851b811660208301526034820193909352921b16605482015260009060680160408051601f1981840301815291815281516020928301206002808601546000838152600390955292909320909201549192506001600160a01b03908116911603611aa1576000818152600360205260409020600701805460ff191660011790555b6003820154604051600181526001600160a01b039091169084907fea5be4bd41e659698e0312f0e0e9203de0198dcc69698e45d6fc74d24f62558e9060200160405180910390a350506111116001600055565b6005602052816000526040600020818154811061100557600080fd5b611b18611d16565b6103e8811115611b595760405162461bcd60e51b815260206004820152600c60248201526b08ccaca40e8dede40d0d2ced60a31b6044820152606401610a64565b600855565b611b66611d16565b6001546040516001600160a01b0361010090920491909116904780156108fc02916000818181858888f19350505050158015611111573d6000803e3d6000fd5b600b546000906001600160a01b0316611bc157506000611c9a565b600b546040516001600160a01b03858116602483015260448201859052600092839291169060640160408051601f198184030181529181526020820180516001600160e01b03166371c6be6b60e11b17905251611c1e9190612180565b600060405180830381855afa9150503d8060008114611c59576040519150601f19603f3d011682016040523d82523d6000602084013e611c5e565b606091505b5091509150818015611c71575060008151115b15611c935780806020019051810190611c8a9190612273565b92505050611c9a565b6000925050505b92915050565b611ca8611d16565b6001600160a01b038116611d0d5760405162461bcd60e51b815260206004820152602660248201527f4f776e61626c653a206e6577206f776e657220697320746865207a65726f206160448201526564647265737360d01b6064820152608401610a64565b61111181611ee7565b6001546001600160a01b036101009091041633146109ff5760405162461bcd60e51b815260206004820181905260248201527f4f776e61626c653a2063616c6c6572206973206e6f7420746865206f776e65726044820152606401610a64565b611d7e611f7c565b6001805460ff191690557f5db9ee0a495bf2e6ff9c91a7834c1ba4fdd244a5e8aa4e537bd38aeae4b073aa335b6040516001600160a01b03909116815260200160405180910390a1565b600260005403611e1a5760405162461bcd60e51b815260206004820152601f60248201527f5265656e7472616e637947756172643a207265656e7472616e742063616c6c006044820152606401610a64565b6002600055565b60015460ff16156109ff5760405162461bcd60e51b815260206004820152601060248201526f14185d5cd8589b194e881c185d5cd95960821b6044820152606401610a64565b6040516301ffc9a760e01b81526001600160e01b0319821660048201526000906001600160a01b038416906301ffc9a790602401602060405180830381865afa925050508015611ed4575060408051601f3d908101601f19168201909252611ed191810190612273565b60015b611ee057506000611c9a565b9050611c9a565b600180546001600160a01b03838116610100818102610100600160a81b031985161790945560405193909204169182907f8be0079c531659141344cd1fd0a4f28419497f9722a3daafe3b4186f6b6457e090600090a35050565b611f49611e21565b6001805460ff1916811790557f62e78cea01bee320cd4e420270b5ea74000d11b0c9f74754ebdbfc544b05a25833611dab565b60015460ff166109ff5760405162461bcd60e51b815260206004820152601460248201527314185d5cd8589b194e881b9bdd081c185d5cd95960621b6044820152606401610a64565b600060208284031215611fd757600080fd5b5035919050565b6001600160a01b038116811461111157600080fd5b60008060006060848603121561200857600080fd5b833561201381611fde565b95602085013595506040909401359392505050565b6000806040838503121561203b57600080fd5b50508035926020909101359150565b6000806040838503121561205d57600080fd5b823561206881611fde565b946020939093013593505050565b60008060008060008060c0878903121561208f57600080fd5b863561209a81611fde565b9860208801359850604088013597606081013597506080810135965060a00135945092505050565b81516001600160a01b0316815261014081016020830151602083015260408301516120f860408401826001600160a01b03169052565b50606083015161211360608401826001600160a01b03169052565b506080830151608083015260a083015160a083015260c083015160c083015260e083015160e0830152610100808401516121508285018215159052565b5050610120928301511515919092015290565b60006020828403121561217557600080fd5b81356109e881611fde565b6000825160005b818110156121a15760208186018101518583015201612187565b506000920191825250919050565b6000602082840312156121c157600080fd5b5051919050565b634e487b7160e01b600052601160045260246000fd5b8082028115828204841417611c9a57611c9a6121c8565b60008261221257634e487b7160e01b600052601260045260246000fd5b500490565b81810381811115611c9a57611c9a6121c8565b80820180821115611c9a57611c9a6121c8565b60006001820161224f5761224f6121c8565b5060010190565b60006020828403121561226857600080fd5b81516109e881611fde565b60006020828403121561228557600080fd5b815180151581146109e857600080fdfea264697066735822122016c82c04f0fba899d2a3d1e835afd24893908f8fa954feb04a58166809708c4064736f6c63430008130033",
  "linkReferences": {},
  "deployedLinkReferences": {}
}