{
  "_format": "hh-sol-artifact-1",
  "contractName": "NFTFlowSomniaOptimized",
  "sourceName": "contracts/NFTFlowSomniaOptimized.sol",
  "abi": [
    {
      "inputs": [
        {
          "internalType": "address",
          "name": "_paymentStreamFactory",
          "type": "address"
        },
        {
          "internalType": "address",
          "name": "_reputationSystem",
          "type": "address"
        },
        {
          "internalType": "address",
          "name": "_priceOracle",
          "type": "address"
        }
      ],
      "stateMutability": "nonpayable",
      "type": "constructor"
    },
    {
      "anonymous": false,
      "inputs": [
        {
          "indexed": true,
          "internalType": "bytes32",
          "name": "listingId",
          "type": "bytes32"
        },
        {
          "indexed": true,
          "internalType": "address",
          "name": "nftContract",
          "type": "address"
        },
        {
          "indexed": true,
          "internalType": "uint256",
          "name": "tokenId",
          "type": "uint256"
        },
        {
          "indexed": false,
          "internalType": "address",
          "name": "owner",
          "type": "address"
        },
        {
          "indexed": false,
          "internalType": "uint256",
          "name": "pricePerSecond",
          "type": "uint256"
        },
        {
          "indexed": false,
          "internalType": "uint256",
          "name": "minDuration",
          "type": "uint256"
        },
        {
          "indexed": false,
          "internalType": "uint256",
          "name": "maxDuration",
          "type": "uint256"
        },
        {
          "indexed": false,
          "internalType": "uint8",
          "name": "utilityType",
          "type": "uint8"
        }
      ],
      "name": "NFTListedForRent",
      "type": "event"
    },
    {
      "anonymous": false,
      "inputs": [
        {
          "indexed": true,
          "internalType": "bytes32",
          "name": "rentalId",
          "type": "bytes32"
        },
        {
          "indexed": true,
          "internalType": "address",
          "name": "nftContract",
          "type": "address"
        },
        {
          "indexed": true,
          "internalType": "uint256",
          "name": "tokenId",
          "type": "uint256"
        },
        {
          "indexed": false,
          "internalType": "address",
          "name": "lender",
          "type": "address"
        },
        {
          "indexed": false,
          "internalType": "address",
          "name": "tenant",
          "type": "address"
        },
        {
          "indexed": false,
          "internalType": "uint256",
          "name": "startTime",
          "type": "uint256"
        },
        {
          "indexed": false,
          "internalType": "uint256",
          "name": "endTime",
          "type": "uint256"
        },
        {
          "indexed": false,
          "internalType": "uint256",
          "name": "pricePerSecond",
          "type": "uint256"
        },
        {
          "indexed": false,
          "internalType": "uint256",
          "name": "totalPrice",
          "type": "uint256"
        }
      ],
      "name": "NFTRented",
      "type": "event"
    },
    {
      "anonymous": false,
      "inputs": [
        {
          "indexed": true,
          "internalType": "address",
          "name": "previousOwner",
          "type": "address"
        },
        {
          "indexed": true,
          "internalType": "address",
          "name": "newOwner",
          "type": "address"
        }
      ],
      "name": "OwnershipTransferred",
      "type": "event"
    },
    {
      "anonymous": false,
      "inputs": [
        {
          "indexed": true,
          "internalType": "bytes32",
          "name": "rentalId",
          "type": "bytes32"
        },
        {
          "indexed": false,
          "internalType": "uint256",
          "name": "releasedAmount",
          "type": "uint256"
        }
      ],
      "name": "PaymentStreamUpdated",
      "type": "event"
    },
    {
      "anonymous": false,
      "inputs": [
        {
          "indexed": true,
          "internalType": "bytes32",
          "name": "rentalId",
          "type": "bytes32"
        },
        {
          "indexed": false,
          "internalType": "uint256",
          "name": "refundAmount",
          "type": "uint256"
        }
      ],
      "name": "RentalCancelled",
      "type": "event"
    },
    {
      "anonymous": false,
      "inputs": [
        {
          "indexed": true,
          "internalType": "bytes32",
          "name": "rentalId",
          "type": "bytes32"
        },
        {
          "indexed": false,
          "internalType": "uint256",
          "name": "finalAmount",
          "type": "uint256"
        }
      ],
      "name": "RentalCompleted",
      "type": "event"
    },
    {
      "inputs": [],
      "name": "MAX_PRICE_PER_SECOND",
      "outputs": [
        {
          "internalType": "uint256",
          "name": "",
          "type": "uint256"
        }
      ],
      "stateMutability": "view",
      "type": "function"
    },
    {
      "inputs": [],
      "name": "MAX_RENTAL_DURATION",
      "outputs": [
        {
          "internalType": "uint256",
          "name": "",
          "type": "uint256"
        }
      ],
      "stateMutability": "view",
      "type": "function"
    },
    {
      "inputs": [],
      "name": "MIN_PRICE_PER_SECOND",
      "outputs": [
        {
          "internalType": "uint256",
          "name": "",
          "type": "uint256"
        }
      ],
      "stateMutability": "view",
      "type": "function"
    },
    {
      "inputs": [],
      "name": "MIN_RENTAL_DURATION",
      "outputs": [
        {
          "internalType": "uint256",
          "name": "",
          "type": "uint256"
        }
      ],
      "stateMutability": "view",
      "type": "function"
    },
    {
      "inputs": [
        {
          "internalType": "bytes32",
          "name": "rentalId",
          "type": "bytes32"
        }
      ],
      "name": "cancelRental",
      "outputs": [],
      "stateMutability": "nonpayable",
      "type": "function"
    },
    {
      "inputs": [
        {
          "internalType": "bytes32",
          "name": "rentalId",
          "type": "bytes32"
        }
      ],
      "name": "completeRental",
      "outputs": [],
      "stateMutability": "nonpayable",
      "type": "function"
    },
    {
      "inputs": [],
      "name": "emergencyWithdraw",
      "outputs": [],
      "stateMutability": "nonpayable",
      "type": "function"
    },
    {
      "inputs": [],
      "name": "getAvailableNFTs",
      "outputs": [
        {
          "components": [
            {
              "internalType": "address",
              "name": "nftContract",
              "type": "address"
            },
            {
              "internalType": "uint256",
              "name": "tokenId",
              "type": "uint256"
            },
            {
              "internalType": "address",
              "name": "owner",
              "type": "address"
            },
            {
              "internalType": "uint96",
              "name": "pricePerSecond",
              "type": "uint96"
            },
            {
              "internalType": "uint32",
              "name": "minDuration",
              "type": "uint32"
            },
            {
              "internalType": "uint32",
              "name": "maxDuration",
              "type": "uint32"
            },
            {
              "internalType": "uint96",
              "name": "collateralRequired",
              "type": "uint96"
            },
            {
              "internalType": "bool",
              "name": "isActive",
              "type": "bool"
            },
            {
              "internalType": "uint8",
              "name": "utilityType",
              "type": "uint8"
            }
          ],
          "internalType": "struct NFTFlowSomniaOptimized.NFTListing[]",
          "name": "",
          "type": "tuple[]"
        }
      ],
      "stateMutability": "view",
      "type": "function"
    },
    {
      "inputs": [],
      "name": "getRentalStats",
      "outputs": [
        {
          "internalType": "uint256",
          "name": "totalRentals",
          "type": "uint256"
        },
        {
          "internalType": "uint256",
          "name": "activeRentals",
          "type": "uint256"
        },
        {
          "internalType": "uint256",
          "name": "totalVolume",
          "type": "uint256"
        },
        {
          "internalType": "uint256",
          "name": "averageRentalDuration",
          "type": "uint256"
        }
      ],
      "stateMutability": "view",
      "type": "function"
    },
    {
      "inputs": [
        {
          "internalType": "address",
          "name": "user",
          "type": "address"
        }
      ],
      "name": "getUserRentals",
      "outputs": [
        {
          "internalType": "bytes32[]",
          "name": "",
          "type": "bytes32[]"
        }
      ],
      "stateMutability": "view",
      "type": "function"
    },
    {
      "inputs": [
        {
          "internalType": "address",
          "name": "nftContract",
          "type": "address"
        },
        {
          "internalType": "uint256",
          "name": "tokenId",
          "type": "uint256"
        },
        {
          "internalType": "uint256",
          "name": "pricePerSecond",
          "type": "uint256"
        },
        {
          "internalType": "uint256",
          "name": "minDuration",
          "type": "uint256"
        },
        {
          "internalType": "uint256",
          "name": "maxDuration",
          "type": "uint256"
        },
        {
          "internalType": "uint256",
          "name": "collateralRequired",
          "type": "uint256"
        },
        {
          "internalType": "uint8",
          "name": "utilityType",
          "type": "uint8"
        }
      ],
      "name": "listNFTForRent",
      "outputs": [],
      "stateMutability": "nonpayable",
      "type": "function"
    },
    {
      "inputs": [
        {
          "internalType": "bytes32",
          "name": "",
          "type": "bytes32"
        }
      ],
      "name": "listings",
      "outputs": [
        {
          "internalType": "address",
          "name": "nftContract",
          "type": "address"
        },
        {
          "internalType": "uint256",
          "name": "tokenId",
          "type": "uint256"
        },
        {
          "internalType": "address",
          "name": "owner",
          "type": "address"
        },
        {
          "internalType": "uint96",
          "name": "pricePerSecond",
          "type": "uint96"
        },
        {
          "internalType": "uint32",
          "name": "minDuration",
          "type": "uint32"
        },
        {
          "internalType": "uint32",
          "name": "maxDuration",
          "type": "uint32"
        },
        {
          "internalType": "uint96",
          "name": "collateralRequired",
          "type": "uint96"
        },
        {
          "internalType": "bool",
          "name": "isActive",
          "type": "bool"
        },
        {
          "internalType": "uint8",
          "name": "utilityType",
          "type": "uint8"
        }
      ],
      "stateMutability": "view",
      "type": "function"
    },
    {
      "inputs": [],
      "name": "owner",
      "outputs": [
        {
          "internalType": "address",
          "name": "",
          "type": "address"
        }
      ],
      "stateMutability": "view",
      "type": "function"
    },
    {
      "inputs": [],
      "name": "paymentStreamFactory",
      "outputs": [
        {
          "internalType": "contract PaymentStream",
          "name": "",
          "type": "address"
        }
      ],
      "stateMutability": "view",
      "type": "function"
    },
    {
      "inputs": [],
      "name": "priceOracle",
      "outputs": [
        {
          "internalType": "contract IPriceOracle",
          "name": "",
          "type": "address"
        }
      ],
      "stateMutability": "view",
      "type": "function"
    },
    {
      "inputs": [],
      "name": "renounceOwnership",
      "outputs": [],
      "stateMutability": "nonpayable",
      "type": "function"
    },
    {
      "inputs": [
        {
          "internalType": "bytes32",
          "name": "listingId",
          "type": "bytes32"
        },
        {
          "internalType": "uint256",
          "name": "duration",
          "type": "uint256"
        }
      ],
      "name": "rentNFT",
      "outputs": [],
      "stateMutability": "payable",
      "type": "function"
    },
    {
      "inputs": [
        {
          "internalType": "bytes32",
          "name": "",
          "type": "bytes32"
        }
      ],
      "name": "rentals",
      "outputs": [
        {
          "internalType": "address",
          "name": "lender",
          "type": "address"
        },
        {
          "internalType": "address",
          "name": "tenant",
          "type": "address"
        },
        {
          "internalType": "address",
          "name": "nftContract",
          "type": "address"
        },
        {
          "internalType": "uint256",
          "name": "tokenId",
          "type": "uint256"
        },
        {
          "internalType": "uint40",
          "name": "startTime",
          "type": "uint40"
        },
        {
          "internalType": "uint40",
          "name": "endTime",
          "type": "uint40"
        },
        {
          "internalType": "uint96",
          "name": "totalPrice",
          "type": "uint96"
        },
        {
          "internalType": "uint256",
          "name": "paymentStreamId",
          "type": "uint256"
        },
        {
          "internalType": "bool",
          "name": "isActive",
          "type": "bool"
        },
        {
          "internalType": "uint8",
          "name": "rentalType",
          "type": "uint8"
        }
      ],
      "stateMutability": "view",
      "type": "function"
    },
    {
      "inputs": [
        {
          "internalType": "address",
          "name": "",
          "type": "address"
        }
      ],
      "name": "reputationScore",
      "outputs": [
        {
          "internalType": "uint256",
          "name": "",
          "type": "uint256"
        }
      ],
      "stateMutability": "view",
      "type": "function"
    },
    {
      "inputs": [],
      "name": "reputationSystem",
      "outputs": [
        {
          "internalType": "contract ReputationSystem",
          "name": "",
          "type": "address"
        }
      ],
      "stateMutability": "view",
      "type": "function"
    },
    {
      "inputs": [
        {
          "internalType": "address",
          "name": "newOwner",
          "type": "address"
        }
      ],
      "name": "transferOwnership",
      "outputs": [],
      "stateMutability": "nonpayable",
      "type": "function"
    },
    {
      "inputs": [
        {
          "internalType": "address",
          "name": "newOracle",
          "type": "address"
        }
      ],
      "name": "updatePriceOracle",
      "outputs": [],
      "stateMutability": "nonpayable",
      "type": "function"
    },
    {
      "inputs": [
        {
          "internalType": "address",
          "name": "",
          "type": "address"
        }
      ],
      "name": "userRentalCount",
      "outputs": [
        {
          "internalType": "uint256",
          "name": "",
          "type": "uint256"
        }
      ],
      "stateMutability": "view",
      "type": "function"
    }
  ],
  "bytecode": "0x60806040523480156200001157600080fd5b506040516200207e3803806200207e8339810160408190526200003491620000f6565b6001600055620000443362000087565b600680546001600160a01b039485166001600160a01b03199182161790915560078054938516938216939093179092556008805491909316911617905562000140565b600180546001600160a01b038381166001600160a01b0319831681179093556040519116919082907f8be0079c531659141344cd1fd0a4f28419497f9722a3daafe3b4186f6b6457e090600090a35050565b80516001600160a01b0381168114620000f157600080fd5b919050565b6000806000606084860312156200010c57600080fd5b6200011784620000d9565b92506200012760208501620000d9565b91506200013760408501620000d9565b90509250925092565b611f2e80620001506000396000f3fe6080604052600436106101405760003560e01c8063715018a6116100b6578063c18b8db41161006f578063c18b8db414610496578063d743bf8014610593578063d84b89cd146105ac578063db2e21bc146105cc578063f2054a43146105e1578063f2fde38b146105fc57600080fd5b8063715018a6146102db5780637df8768e146102f057806388b22ef4146103f95780638da5cb5b146104265780639fbc72e514610444578063b7c399641461047657600080fd5b806339d1fc821161010857806339d1fc82146102095780633b6702a1146102295780634f65473c1461026457806350d061cb1461027b57806351b1de1a146102a85780636587eda1146102bb57600080fd5b80630a60d6c8146101455780631d1f41111461016d57806322ac1fbe1461018f5780632630c12f146101c757806332702c95146101e7575b600080fd5b34801561015157600080fd5b5061015a603c81565b6040519081526020015b60405180910390f35b34801561017957600080fd5b5061018d610188366004611b90565b61061c565b005b34801561019b57600080fd5b506006546101af906001600160a01b031681565b6040516001600160a01b039091168152602001610164565b3480156101d357600080fd5b506008546101af906001600160a01b031681565b3480156101f357600080fd5b506101fc610b6f565b6040516101649190611bff565b34801561021557600080fd5b5061018d610224366004611cc7565b610be9565b34801561023557600080fd5b50610257610244366004611cc7565b5060408051600081526020810190915290565b6040516101649190611ceb565b34801561027057600080fd5b5061015a62278d0081565b34801561028757600080fd5b5061015a610296366004611cc7565b60046020526000908152604090205481565b61018d6102b6366004611d2f565b610c62565b3480156102c757600080fd5b506007546101af906001600160a01b031681565b3480156102e757600080fd5b5061018d611586565b3480156102fc57600080fd5b5061038961030b366004611d51565b600260208190526000918252604090912080546001820154928201546003830154600484015460058501546006909501546001600160a01b03948516968516959490931693919264ffffffffff8083169365010000000000840490911692600160501b90046001600160601b03169160ff808216916101009004168a565b604080516001600160a01b039b8c168152998b1660208b01529790991696880196909652606087019490945264ffffffffff9283166080870152911660a08501526001600160601b031660c084015260e0830152151561010082015260ff90911661012082015261014001610164565b34801561040557600080fd5b5061015a610414366004611cc7565b60056020526000908152604090205481565b34801561043257600080fd5b506001546001600160a01b03166101af565b34801561045057600080fd5b506000808080604080519485526020850193909352918301526060820152608001610164565b34801561048257600080fd5b5061018d610491366004611d51565b61159a565b3480156104a257600080fd5b5061052a6104b1366004611d51565b600360208190526000918252604090912080546001820154600283015492909301546001600160a01b039182169392918216916001600160601b03600160a01b9182900481169263ffffffff80821693640100000000830490911692600160401b8304169160ff918104821691600160a81b9091041689565b604080516001600160a01b039a8b168152602081019990995296909816958701959095526001600160601b03938416606087015263ffffffff9283166080870152911660a08501521660c0830152151560e082015260ff90911661010082015261012001610164565b34801561059f57600080fd5b5061015a64e8d4a5100081565b3480156105b857600080fd5b5061018d6105c7366004611d51565b6117e3565b3480156105d857600080fd5b5061018d6119bc565b3480156105ed57600080fd5b5061015a662386f26fc1000081565b34801561060857600080fd5b5061018d610617366004611cc7565b611a00565b6040516331a9108f60e11b81526004810187905233906001600160a01b03891690636352211e90602401602060405180830381865afa158015610663573d6000803e3d6000fd5b505050506040513d601f19601f820116820180604052508101906106879190611d6a565b6001600160a01b0316146106d25760405162461bcd60e51b815260206004820152600d60248201526c2737ba1027232a1037bbb732b960991b60448201526064015b60405180910390fd5b64e8d4a5100085101580156106ee5750662386f26fc100008511155b61072a5760405162461bcd60e51b815260206004820152600d60248201526c496e76616c696420707269636560981b60448201526064016106c9565b603c8410156107745760405162461bcd60e51b8152602060048201526016602482015275135a5b88191d5c985d1a5bdb881d1bdbc81cda1bdc9d60521b60448201526064016106c9565b62278d008311156107bf5760405162461bcd60e51b81526020600482015260156024820152744d6178206475726174696f6e20746f6f206c6f6e6760581b60448201526064016106c9565b828411156108085760405162461bcd60e51b8152602060048201526016602482015275496e76616c6964206475726174696f6e2072616e676560501b60448201526064016106c9565b60008160ff1611801561081f5750600a8160ff1611155b6108625760405162461bcd60e51b8152602060048201526014602482015273496e76616c6964207574696c697479207479706560601b60448201526064016106c9565b60405163095ea7b360e01b8152306004820152602481018790526001600160a01b0388169063095ea7b390604401600060405180830381600087803b1580156108aa57600080fd5b505af11580156108be573d6000803e3d6000fd5b50506040516bffffffffffffffffffffffff1960608b811b82166020840152603483018b905242605484015233901b166074820152600092506088019050604051602081830303815290604052805190602001209050604051806101200160405280896001600160a01b03168152602001888152602001336001600160a01b03168152602001876001600160601b031681526020018663ffffffff1681526020018563ffffffff168152602001846001600160601b031681526020016001151581526020018360ff168152506003600083815260200190815260200160002060008201518160000160006101000a8154816001600160a01b0302191690836001600160a01b031602179055506020820151816001015560408201518160020160006101000a8154816001600160a01b0302191690836001600160a01b0316021790555060608201518160020160146101000a8154816001600160601b0302191690836001600160601b0316021790555060808201518160030160006101000a81548163ffffffff021916908363ffffffff16021790555060a08201518160030160046101000a81548163ffffffff021916908363ffffffff16021790555060c08201518160030160086101000a8154816001600160601b0302191690836001600160601b0316021790555060e08201518160030160146101000a81548160ff0219169083151502179055506101008201518160030160156101000a81548160ff021916908360ff16021790555090505086886001600160a01b0316827f3b1024a750caa8bd40a6130bde6ffe101daaa57f076291ffc0e4a5ee77166bc1338a8a8a89604051610b5d9594939291906001600160a01b0395909516855260208501939093526040840191909152606083015260ff16608082015260a00190565b60405180910390a45050505050505050565b604080516000808252602082019092526060919081610be2565b604080516101208101825260008082526020808301829052928201819052606082018190526080820181905260a0820181905260c0820181905260e082018190526101008201528252600019909201910181610b895790505b5092915050565b610bf1611a76565b6001600160a01b038116610c405760405162461bcd60e51b8152602060048201526016602482015275496e76616c6964206f7261636c65206164647265737360501b60448201526064016106c9565b600880546001600160a01b0319166001600160a01b0392909216919091179055565b610c6a611ad0565b600082815260036020819052604090912090810154600160a01b900460ff16610cca5760405162461bcd60e51b81526020600482015260126024820152714c697374696e67206e6f742061637469766560701b60448201526064016106c9565b600381015463ffffffff16821015610d195760405162461bcd60e51b8152602060048201526012602482015271111d5c985d1a5bdb881d1bdbc81cda1bdc9d60721b60448201526064016106c9565b6003810154640100000000900463ffffffff16821115610d6f5760405162461bcd60e51b81526020600482015260116024820152704475726174696f6e20746f6f206c6f6e6760781b60448201526064016106c9565b6002810154336001600160a01b0390911603610dc35760405162461bcd60e51b815260206004820152601360248201527210d85b9b9bdd081c995b9d081bdddb88139195606a1b60448201526064016106c9565b8054600182015460405160609290921b6bffffffffffffffffffffffff19166020830152603482015260009060540160408051601f1981840301815291815281516020928301206000818152600290935291206006015490915060ff1615610e625760405162461bcd60e51b815260206004820152601260248201527113919508185b1c9958591e481c995b9d195960721b60448201526064016106c9565b6002820154600090610e85908590600160a01b90046001600160601b0316611d9d565b905080341015610ece5760405162461bcd60e51b8152602060048201526014602482015273125b9cdd59999a58da595b9d081c185e5b595b9d60621b60448201526064016106c9565b600754604051631d699f5760e21b81523360048201526000916001600160a01b0316906375a67d5c90602401602060405180830381865afa158015610f17573d6000803e3d6000fd5b505050506040513d601f19601f82011682018060405250810190610f3b9190611dba565b6003850154909150600160401b90046001600160601b03166064821015610fb557610f668184611dd3565b341015610fb55760405162461bcd60e51b815260206004820152601760248201527f496e73756666696369656e7420636f6c6c61746572616c00000000000000000060448201526064016106c9565b60408051600280825260608201909252600091816020015b6060815260200190600190039081610fcd579050506001870154604051306024820152604481019190915290915060640160408051601f198184030181529190526020810180516001600160e01b031663095ea7b360e01b1790528151829060009061103b5761103b611de6565b60209081029190910101526001860154336110568942611dd3565b60405160240161106893929190611dfc565b60408051601f198184030181529190526020810180516001600160e01b03166370182b2f60e11b1790528151829060019081106110a7576110a7611de6565b6020026020010181905250600073841b8199e6d3db3c6f264f6c2bd8848b3ca642236001600160a01b0316826040516024016110e39190611e49565b60408051601f198184030181529181526020820180516001600160e01b0316631296dd2160e11b179052516111189190611ec3565b600060405180830381855af49150503d8060008114611153576040519150601f19603f3d011682016040523d82523d6000602084013e611158565b606091505b505090508061119c5760405162461bcd60e51b815260206004820152601060248201526f135d5b1d1a58d85b1b0819985a5b195960821b60448201526064016106c9565b60065460028801546000916001600160a01b03908116916332f6700c91349116426111c78e82611dd3565b8d5460405160e087901b6001600160e01b03191681526001600160a01b0394851660048201526024810193909352604483019190915291909116606482015260840160206040518083038185885af1158015611227573d6000803e3d6000fd5b50505050506040513d601f19601f8201168201806040525081019061124c9190611dba565b604080516101408101825260028b01546001600160a01b0390811682523360208301528b54169181019190915260018a015460608201524264ffffffffff811660808301529192509060a08201906112a5908c90611dd3565b64ffffffffff168152602001876001600160601b031681526020018281526020016001151581526020018960030160159054906101000a900460ff1660ff168152506002600089815260200190815260200160002060008201518160000160006101000a8154816001600160a01b0302191690836001600160a01b0316021790555060208201518160010160006101000a8154816001600160a01b0302191690836001600160a01b0316021790555060408201518160020160006101000a8154816001600160a01b0302191690836001600160a01b031602179055506060820151816003015560808201518160040160006101000a81548164ffffffffff021916908364ffffffffff16021790555060a08201518160040160056101000a81548164ffffffffff021916908364ffffffffff16021790555060c082015181600401600a6101000a8154816001600160601b0302191690836001600160601b0316021790555060e082015181600501556101008201518160060160006101000a81548160ff0219169083151502179055506101208201518160060160016101000a81548160ff021916908360ff16021790555090505060056000336001600160a01b03166001600160a01b03168152602001908152602001600020600081548092919061149090611edf565b919050555087600101548860000160009054906101000a90046001600160a01b03166001600160a01b0316887ffcf18ebecb31688d90b1ab9b00bd6ca725c79374e553a0c1865c0a975a02beb38b60020160009054906101000a90046001600160a01b031633428f426115039190611dd3565b8f60020160149054906101000a90046001600160601b03166001600160601b03168e604051611568969594939291906001600160a01b03968716815294909516602085015260408401929092526060830152608082015260a081019190915260c00190565b60405180910390a450505050505050506115826001600055565b5050565b61158e611a76565b6115986000611b29565b565b6000818152600260205260409020600681015460ff166115f05760405162461bcd60e51b815260206004820152601160248201527052656e74616c206e6f742061637469766560781b60448201526064016106c9565b600481015465010000000000900464ffffffffff164210156116545760405162461bcd60e51b815260206004820152601760248201527f52656e74616c20706572696f64206e6f7420656e64656400000000000000000060448201526064016106c9565b60018101546001600160a01b0316331480611678575080546001600160a01b031633145b6116b55760405162461bcd60e51b815260206004820152600e60248201526d139bdd08185d5d1a1bdc9a5e995960921b60448201526064016106c9565b600281015460038201546040516370182b2f60e11b81526001600160a01b039092169163e030565e916116ef916000908190600401611dfc565b600060405180830381600087803b15801561170957600080fd5b505af192505050801561171a575060015b506007546001828101546040516371609f1960e11b81526001600160a01b03918216600482015260248101929092529091169063e2c13e3290604401600060405180830381600087803b15801561177057600080fd5b505af1158015611784573d6000803e3d6000fd5b5050505060068101805460ff191690556004810154604051600160501b9091046001600160601b0316815282907f4abb891df6b8fece73cebbbdee5177ddf081a610cf2dbc7b4f49eeaa4b1a733d906020015b60405180910390a25050565b6000818152600260205260409020600681015460ff166118395760405162461bcd60e51b815260206004820152601160248201527052656e74616c206e6f742061637469766560781b60448201526064016106c9565b60018101546001600160a01b031633148061185d575080546001600160a01b031633145b61189a5760405162461bcd60e51b815260206004820152600e60248201526d139bdd08185d5d1a1bdc9a5e995960921b60448201526064016106c9565b6006546005820154604051636db9241b60e01b81526001600160a01b0390921691636db9241b916118d19160040190815260200190565b600060405180830381600087803b1580156118eb57600080fd5b505af11580156118ff573d6000803e3d6000fd5b50505050600281015460038201546040516370182b2f60e11b81526001600160a01b039092169163e030565e9161193d916000908190600401611dfc565b600060405180830381600087803b15801561195757600080fd5b505af1925050508015611968575060015b5060068101805460ff191690556004810154604051600160501b9091046001600160601b0316815282907f86ee28fda2d012392f3abd3d46f268713b253e11305d22db5803a337e97890c5906020016117d7565b6119c4611a76565b6001546040516001600160a01b03909116904780156108fc02916000818181858888f193505050501580156119fd573d6000803e3d6000fd5b50565b611a08611a76565b6001600160a01b038116611a6d5760405162461bcd60e51b815260206004820152602660248201527f4f776e61626c653a206e6577206f776e657220697320746865207a65726f206160448201526564647265737360d01b60648201526084016106c9565b6119fd81611b29565b6001546001600160a01b031633146115985760405162461bcd60e51b815260206004820181905260248201527f4f776e61626c653a2063616c6c6572206973206e6f7420746865206f776e657260448201526064016106c9565b600260005403611b225760405162461bcd60e51b815260206004820152601f60248201527f5265656e7472616e637947756172643a207265656e7472616e742063616c6c0060448201526064016106c9565b6002600055565b600180546001600160a01b038381166001600160a01b0319831681179093556040519116919082907f8be0079c531659141344cd1fd0a4f28419497f9722a3daafe3b4186f6b6457e090600090a35050565b6001600160a01b03811681146119fd57600080fd5b600080600080600080600060e0888a031215611bab57600080fd5b8735611bb681611b7b565b96506020880135955060408801359450606088013593506080880135925060a0880135915060c088013560ff81168114611bef57600080fd5b8091505092959891949750929550565b602080825282518282018190526000919060409081850190868401855b82811015611cba57815180516001600160a01b03908116865287820151888701528682015116868601526060808201516001600160601b039081169187019190915260808083015163ffffffff9081169188019190915260a0808401519091169087015260c0808301519091169086015260e0808201511515908601526101009081015160ff16908501526101209093019290850190600101611c1c565b5091979650505050505050565b600060208284031215611cd957600080fd5b8135611ce481611b7b565b9392505050565b6020808252825182820181905260009190848201906040850190845b81811015611d2357835183529284019291840191600101611d07565b50909695505050505050565b60008060408385031215611d4257600080fd5b50508035926020909101359150565b600060208284031215611d6357600080fd5b5035919050565b600060208284031215611d7c57600080fd5b8151611ce481611b7b565b634e487b7160e01b600052601160045260246000fd5b8082028115828204841417611db457611db4611d87565b92915050565b600060208284031215611dcc57600080fd5b5051919050565b80820180821115611db457611db4611d87565b634e487b7160e01b600052603260045260246000fd5b9283526001600160a01b0391909116602083015267ffffffffffffffff16604082015260600190565b60005b83811015611e40578181015183820152602001611e28565b50506000910152565b6000602080830181845280855180835260408601915060408160051b870101925083870160005b82811015611eb657878503603f1901845281518051808752611e97818989018a8501611e25565b601f01601f191695909501860194509285019290850190600101611e70565b5092979650505050505050565b60008251611ed5818460208701611e25565b9190910192915050565b600060018201611ef157611ef1611d87565b506001019056fea26469706673582212204a79a38f6d4f4e680b74e49023c4f9c9d022b6c6c4ef72740c3561768222e4c364736f6c63430008130033",
  "linkReferences": {},
  "deployedLinkReferences": {}
}