{"contracts/ReputationSystem.sol":{"ReputationSystem":{"abi":[{"anonymous":false,"inputs":[{"indexed":true,"internalType":"address","name":"user","type":"address"},{"indexed":false,"internalType":"uint256","name":"multiplier","type":"uint256"}],"name":"CollateralMultiplierUpdated","type":"event"},{"anonymous":false,"inputs":[{"indexed":true,"internalType":"address","name":"previousOwner","type":"address"},{"indexed":true,"internalType":"address","name":"newOwner","type":"address"}],"name":"OwnershipTransferred","type":"event"},{"anonymous":false,"inputs":[{"indexed":true,"internalType":"address","name":"user","type":"address"},{"indexed":false,"internalType":"uint256","name":"newScore","type":"uint256"},{"indexed":false,"internalType":"bool","name":"success","type":"bool"}],"name":"ReputationUpdated","type":"event"},{"anonymous":false,"inputs":[{"indexed":true,"internalType":"address","name":"user","type":"address"}],"name":"UserBlacklisted","type":"event"},{"anonymous":false,"inputs":[{"indexed":true,"internalType":"address","name":"user","type":"address"}],"name":"UserWhitelisted","type":"event"},{"inputs":[],"name":"COLLATERAL_FREE_THRESHOLD","outputs":[{"internalType":"uint256","name":"","type":"uint256"}],"stateMutability":"view","type":"function"},{"inputs":[],"name":"MAX_SCORE","outputs":[{"internalType":"uint256","name":"","type":"uint256"}],"stateMutability":"view","type":"function"},{"inputs":[],"name":"REDUCED_COLLATERAL_THRESHOLD","outputs":[{"internalType":"uint256","name":"","type":"uint256"}],"stateMutability":"view","type":"function"},{"inputs":[],"name":"REPUTATION_GAIN","outputs":[{"internalType":"uint256","name":"","type":"uint256"}],"stateMutability":"view","type":"function"},{"inputs":[],"name":"REPUTATION_LOSS","outputs":[{"internalType":"uint256","name":"","type":"uint256"}],"stateMutability":"view","type":"function"},{"inputs":[{"internalType":"address","name":"_contract","type":"address"}],"name":"addAuthorizedContract","outputs":[],"stateMutability":"nonpayable","type":"function"},{"inputs":[{"internalType":"address","name":"user","type":"address"}],"name":"blacklistUser","outputs":[],"stateMutability":"nonpayable","type":"function"},{"inputs":[{"internalType":"address","name":"user","type":"address"}],"name":"getCollateralMultiplier","outputs":[{"internalType":"uint256","name":"multiplier","type":"uint256"}],"stateMutability":"view","type":"function"},{"inputs":[{"internalType":"address","name":"user","type":"address"}],"name":"getRentalStats","outputs":[{"internalType":"uint256","name":"totalRentals","type":"uint256"},{"internalType":"uint256","name":"successfulRentals","type":"uint256"},{"internalType":"uint256","name":"successRate","type":"uint256"}],"stateMutability":"view","type":"function"},{"inputs":[{"internalType":"address","name":"user","type":"address"}],"name":"getReputationData","outputs":[{"components":[{"internalType":"uint256","name":"score","type":"uint256"},{"internalType":"uint256","name":"totalRentals","type":"uint256"},{"internalType":"uint256","name":"successfulRentals","type":"uint256"},{"internalType":"uint256","name":"lastUpdate","type":"uint256"},{"internalType":"bool","name":"isWhitelisted","type":"bool"},{"internalType":"bool","name":"isBlacklisted","type":"bool"},{"internalType":"uint256","name":"collateralMultiplier","type":"uint256"}],"internalType":"struct ReputationSystem.Reputation","name":"rep","type":"tuple"}],"stateMutability":"view","type":"function"},{"inputs":[{"internalType":"address","name":"user","type":"address"}],"name":"getReputationScore","outputs":[{"internalType":"uint256","name":"","type":"uint256"}],"stateMutability":"view","type":"function"},{"inputs":[{"internalType":"address","name":"user","type":"address"}],"name":"getReputationTier","outputs":[{"internalType":"uint256","name":"tier","type":"uint256"}],"stateMutability":"view","type":"function"},{"inputs":[],"name":"owner","outputs":[{"internalType":"address","name":"","type":"address"}],"stateMutability":"view","type":"function"},{"inputs":[{"internalType":"address","name":"user","type":"address"}],"name":"removeUserFromLists","outputs":[],"stateMutability":"nonpayable","type":"function"},{"inputs":[],"name":"renounceOwnership","outputs":[],"stateMutability":"nonpayable","type":"function"},{"inputs":[],"name":"rentalContract","outputs":[{"internalType":"address","name":"","type":"address"}],"stateMutability":"view","type":"function"},{"inputs":[{"internalType":"address","name":"","type":"address"}],"name":"reputations","outputs":[{"internalType":"uint256","name":"score","type":"uint256"},{"internalType":"uint256","name":"totalRentals","type":"uint256"},{"internalType":"uint256","name":"successfulRentals","type":"uint256"},{"internalType":"uint256","name":"lastUpdate","type":"uint256"},{"internalType":"bool","name":"isWhitelisted","type":"bool"},{"internalType":"bool","name":"isBlacklisted","type":"bool"},{"internalType":"uint256","name":"collateralMultiplier","type":"uint256"}],"stateMutability":"view","type":"function"},{"inputs":[{"internalType":"address","name":"user","type":"address"}],"name":"requiresCollateral","outputs":[{"internalType":"bool","name":"","type":"bool"}],"stateMutability":"view","type":"function"},{"inputs":[{"internalType":"address","name":"_rentalContract","type":"address"}],"name":"setRentalContract","outputs":[],"stateMutability":"nonpayable","type":"function"},{"inputs":[{"internalType":"address","name":"user","type":"address"},{"internalType":"uint256","name":"score","type":"uint256"}],"name":"setReputationScore","outputs":[],"stateMutability":"nonpayable","type":"function"},{"inputs":[{"internalType":"address","name":"newOwner","type":"address"}],"name":"transferOwnership","outputs":[],"stateMutability":"nonpayable","type":"function"},{"inputs":[{"internalType":"address","name":"user","type":"address"},{"internalType":"bool","name":"success","type":"bool"}],"name":"updateReputation","outputs":[],"stateMutability":"nonpayable","type":"function"},{"inputs":[{"internalType":"address","name":"user","type":"address"}],"name":"whitelistUser","outputs":[],"stateMutability":"nonpayable","type":"function"}],"evm":{"bytecode":{"linkReferences":{},"object":"608060405234801561001057600080fd5b5061001a3361001f565b61006f565b600080546001600160a01b038381166001600160a01b0319831681178455604051919092169283917f8be0079c531659141344cd1fd0a4f28419497f9722a3daafe3b4186f6b6457e09190a35050565b610e6b8061007e6000396000f3fe608060405234801561001057600080fd5b506004361061014d5760003560e01c80637a00d3c4116100c3578063b6b3a2611161007c578063b6b3a26114610351578063e2c13e321461037f578063e8f4e9d414610392578063eeade3a2146103a5578063f2fde38b146103c8578063fcbca456146103db57600080fd5b80637a00d3c4146102915780637b8b5f72146102fe57806385196798146103115780638da5cb5b1461032457806398eaa4a714610232578063a0d541fa1461034957600080fd5b80634a4c560d116101155780634a4c560d1461021f5780635a63427e146102325780636a01703f146102455780636be2cefb1461024d578063715018a61461026057806375a67d5c1461026857600080fd5b8063018174351461015257806306fa15a71461016e57806318870e35146101f857806327ff62231461020d57806346ff096714610216575b600080fd5b61015b6101f481565b6040519081526020015b60405180910390f35b6101bf61017c366004610d26565b600160208190526000918252604090912080549181015460028201546003830154600484015460059094015492939192909160ff80821692610100909204169087565b60408051978852602088019690965294860193909352606085019190915215156080840152151560a083015260c082015260e001610165565b61020b610206366004610d41565b6103ee565b005b61015b6103e881565b61015b6102ee81565b61020b61022d366004610d26565b610504565b61020b610240366004610d26565b61056a565b61015b600a81565b61015b61025b366004610d26565b610594565b61020b610666565b61015b610276366004610d26565b6001600160a01b031660009081526001602052604090205490565b6102a461029f366004610d26565b61067a565b6040516101659190600060e0820190508251825260208301516020830152604083015160408301526060830151606083015260808301511515608083015260a0830151151560a083015260c083015160c083015292915050565b61020b61030c366004610d26565b610734565b61015b61031f366004610d26565b6107b5565b6000546001600160a01b03165b6040516001600160a01b039091168152602001610165565b61015b601481565b61036461035f366004610d26565b61084f565b60408051938452602084019290925290820152606001610165565b61020b61038d366004610d6b565b610907565b600254610331906001600160a01b031681565b6103b86103b3366004610d26565b610a6e565b6040519015158152602001610165565b61020b6103d6366004610d26565b610b06565b61020b6103e9366004610d26565b610b7f565b6103f6610be4565b6103e88111156104455760405162461bcd60e51b815260206004820152601560248201527453636f72652065786365656473206d6178696d756d60581b60448201526064015b60405180910390fd5b6001600160a01b038216600090815260016020526040902081815561046982610c3e565b600582015542600382015560408051838152600160208201526001600160a01b038516917fdb3885afbba6debf9c1bda35746ffcd3e3c749b3742be7c9a0904981b5befb99910160405180910390a2826001600160a01b03167f22812190fa3c1db0f86a47a0e51ca5dbc2d016c8f250f0a25f0f21726db4c7dd82600501546040516104f791815260200190565b60405180910390a2505050565b61050c610be4565b6001600160a01b038116600081815260016020819052604080832060048101805461ffff191690931790925560058201839055519092917f7409cb8e690bcd1487fd4fd27dad3fa92388d201ba6f953631d6d6b26299f84991a25050565b610572610be4565b600280546001600160a01b0319166001600160a01b0392909216919091179055565b6001600160a01b0381166000908152600160208181526040808420815160e08101835281548152938101549284019290925260028201549083015260038101546060830152600481015460ff808216158015608086015261010090920416151560a084015260059091015460c08301526106115750600492915050565b8060a00151156106245750600092915050565b8051610384116106375750600392915050565b80516102ee1161064a5750600292915050565b80516101f41161065d5750600192915050565b50600092915050565b61066e610be4565b6106786000610ca7565b565b6106be6040518060e0016040528060008152602001600081526020016000815260200160008152602001600015158152602001600015158152602001600081525090565b506001600160a01b0316600090815260016020818152604092839020835160e08101855281548152928101549183019190915260028101549282019290925260038201546060820152600482015460ff8082161515608084015261010090910416151560a082015260059091015460c082015290565b61073c610be4565b6001600160a01b038116600090815260016020526040902060048101805461ffff19169055805461076c90610c3e565b600582018190556040519081526001600160a01b038316907f22812190fa3c1db0f86a47a0e51ca5dbc2d016c8f250f0a25f0f21726db4c7dd9060200160405180910390a25050565b6001600160a01b0381166000908152600160208181526040808420815160e08101835281548152938101549284019290925260028201549083015260038101546060830152600481015460ff808216151560808501526101009091041615801560a084015260059091015460c08301526108325750606492915050565b8060800151156108455750600092915050565b60c0015192915050565b6001600160a01b0381166000908152600160208181526040808420815160e081018352815481529381015492840183905260028101549184019190915260038101546060840152600481015460ff8082161515608086015261010090910416151560a08401526005015460c08301528291829182906108cf5760006108ee565b602082015160408301516108e4906064610dbd565b6108ee9190610dd4565b6020830151604090930151929792965094509092505050565b6002546001600160a01b0316331461096b5760405162461bcd60e51b815260206004820152602160248201527f43616c6c6572206973206e6f74207468652072656e74616c20636f6e747261636044820152601d60fa1b606482015260840161043c565b6001600160a01b0382166000908152600160205260408120600381015490910361099c576101f48155606460058201555b6001810180549060006109ae83610df6565b919050555081156109f3576002810180549060006109cb83610df6565b91905055506109ec6103e8600a83600001546109e79190610e0f565b610cf7565b8155610a14565b8054601410610a03576000610a11565b8054610a1190601490610e22565b81555b8054610a1f90610c3e565b600582015542600382015580546040805191825283151560208301526001600160a01b038516917fdb3885afbba6debf9c1bda35746ffcd3e3c749b3742be7c9a0904981b5befb9991016104f7565b6001600160a01b0381166000908152600160208181526040808420815160e08101835281548152938101549284019290925260028201549083015260038101546060830152600481015460ff808216151560808501526101009091041615801560a084015260059091015460c0830152610aeb5750600192915050565b806080015180610afe575080516102ee11155b159392505050565b610b0e610be4565b6001600160a01b038116610b735760405162461bcd60e51b815260206004820152602660248201527f4f776e61626c653a206e6577206f776e657220697320746865207a65726f206160448201526564647265737360d01b606482015260840161043c565b610b7c81610ca7565b50565b610b87610be4565b6001600160a01b03811660008181526001602052604080822060048101805461ffff19166101001790556064600582015590519092917f7f8b7dc89dae85811a7a85800b892b5816ad5d381c856f1b56490f8fc470c9cb91a25050565b6000546001600160a01b031633146106785760405162461bcd60e51b815260206004820181905260248201527f4f776e61626c653a2063616c6c6572206973206e6f7420746865206f776e6572604482015260640161043c565b60006102ee8210610c5157506000919050565b6101f48210610c9a57610c686101f46102ee610e22565b610c746101f484610e22565b610c7f906064610dbd565b610c899190610dd4565b610c94906064610e22565b92915050565b506064919050565b919050565b600080546001600160a01b038381166001600160a01b0319831681178455604051919092169283917f8be0079c531659141344cd1fd0a4f28419497f9722a3daafe3b4186f6b6457e09190a35050565b6000818310610d065781610d08565b825b9392505050565b80356001600160a01b0381168114610ca257600080fd5b600060208284031215610d3857600080fd5b610d0882610d0f565b60008060408385031215610d5457600080fd5b610d5d83610d0f565b946020939093013593505050565b60008060408385031215610d7e57600080fd5b610d8783610d0f565b915060208301358015158114610d9c57600080fd5b809150509250929050565b634e487b7160e01b600052601160045260246000fd5b8082028115828204841417610c9457610c94610da7565b600082610df157634e487b7160e01b600052601260045260246000fd5b500490565b600060018201610e0857610e08610da7565b5060010190565b80820180821115610c9457610c94610da7565b81810381811115610c9457610c94610da756fea2646970667358221220bf4d2eb3adb4f294d5b6a0570999f832c22439812fdb6abe7dd66a7bc860e20164736f6c63430008130033","opcodes":"PUSH1 0x80 PUSH1 0x40 MSTORE CALLVALUE DUP1 ISZERO PUSH2 0x10 JUMPI PUSH1 0x0 DUP1 REVERT JUMPDEST POP PUSH2 0x1A CALLER PUSH2 0x1F JUMP JUMPDEST PUSH2 0x6F JUMP JUMPDEST PUSH1 0x0 DUP1 SLOAD PUSH1 0x1 PUSH1 0x1 PUSH1 0xA0 SHL SUB DUP4 DUP2 AND PUSH1 0x1 PUSH1 0x1 PUSH1 0xA0 SHL SUB NOT DUP4 AND DUP2 OR DUP5 SSTORE PUSH1 0x40 MLOAD SWAP2 SWAP1 SWAP3 AND SWAP3 DUP4 SWAP2 PUSH32 0x8BE0079C531659141344CD1FD0A4F28419497F9722A3DAAFE3B4186F6B6457E0 SWAP2 SWAP1 LOG3 POP POP JUMP JUMPDEST PUSH2 0xE6B DUP1 PUSH2 0x7E PUSH1 0x0 CODECOPY PUSH1 0x0 RETURN INVALID PUSH1 0x80 PUSH1 0x40 MSTORE CALLVALUE DUP1 ISZERO PUSH2 0x10 JUMPI PUSH1 0x0 DUP1 REVERT JUMPDEST POP PUSH1 0x4 CALLDATASIZE LT PUSH2 0x14D JUMPI PUSH1 0x0 CALLDATALOAD PUSH1 0xE0 SHR DUP1 PUSH4 0x7A00D3C4 GT PUSH2 0xC3 JUMPI DUP1 PUSH4 0xB6B3A261 GT PUSH2 0x7C JUMPI DUP1 PUSH4 0xB6B3A261 EQ PUSH2 0x351 JUMPI DUP1 PUSH4 0xE2C13E32 EQ PUSH2 0x37F JUMPI DUP1 PUSH4 0xE8F4E9D4 EQ PUSH2 0x392 JUMPI DUP1 PUSH4 0xEEADE3A2 EQ PUSH2 0x3A5 JUMPI DUP1 PUSH4 0xF2FDE38B EQ PUSH2 0x3C8 JUMPI DUP1 PUSH4 0xFCBCA456 EQ PUSH2 0x3DB JUMPI PUSH1 0x0 DUP1 REVERT JUMPDEST DUP1 PUSH4 0x7A00D3C4 EQ PUSH2 0x291 JUMPI DUP1 PUSH4 0x7B8B5F72 EQ PUSH2 0x2FE JUMPI DUP1 PUSH4 0x85196798 EQ PUSH2 0x311 JUMPI DUP1 PUSH4 0x8DA5CB5B EQ PUSH2 0x324 JUMPI DUP1 PUSH4 0x98EAA4A7 EQ PUSH2 0x232 JUMPI DUP1 PUSH4 0xA0D541FA EQ PUSH2 0x349 JUMPI PUSH1 0x0 DUP1 REVERT JUMPDEST DUP1 PUSH4 0x4A4C560D GT PUSH2 0x115 JUMPI DUP1 PUSH4 0x4A4C560D EQ PUSH2 0x21F JUMPI DUP1 PUSH4 0x5A63427E EQ PUSH2 0x232 JUMPI DUP1 PUSH4 0x6A01703F EQ PUSH2 0x245 JUMPI DUP1 PUSH4 0x6BE2CEFB EQ PUSH2 0x24D JUMPI DUP1 PUSH4 0x715018A6 EQ PUSH2 0x260 JUMPI DUP1 PUSH4 0x75A67D5C EQ PUSH2 0x268 JUMPI PUSH1 0x0 DUP1 REVERT JUMPDEST DUP1 PUSH4 0x1817435 EQ PUSH2 0x152 JUMPI DUP1 PUSH4 0x6FA15A7 EQ PUSH2 0x16E JUMPI DUP1 PUSH4 0x18870E35 EQ PUSH2 0x1F8 JUMPI DUP1 PUSH4 0x27FF6223 EQ PUSH2 0x20D JUMPI DUP1 PUSH4 0x46FF0967 EQ PUSH2 0x216 JUMPI JUMPDEST PUSH1 0x0 DUP1 REVERT JUMPDEST PUSH2 0x15B PUSH2 0x1F4 DUP2 JUMP JUMPDEST PUSH1 0x40 MLOAD SWAP1 DUP2 MSTORE PUSH1 0x20 ADD JUMPDEST PUSH1 0x40 MLOAD DUP1 SWAP2 SUB SWAP1 RETURN JUMPDEST PUSH2 0x1BF PUSH2 0x17C CALLDATASIZE PUSH1 0x4 PUSH2 0xD26 JUMP JUMPDEST PUSH1 0x1 PUSH1 0x20 DUP2 SWAP1 MSTORE PUSH1 0x0 SWAP2 DUP3 MSTORE PUSH1 0x40 SWAP1 SWAP2 KECCAK256 DUP1 SLOAD SWAP2 DUP2 ADD SLOAD PUSH1 0x2 DUP3 ADD SLOAD PUSH1 0x3 DUP4 ADD SLOAD PUSH1 0x4 DUP5 ADD SLOAD PUSH1 0x5 SWAP1 SWAP5 ADD SLOAD SWAP3 SWAP4 SWAP2 SWAP3 SWAP1 SWAP2 PUSH1 0xFF DUP1 DUP3 AND SWAP3 PUSH2 0x100 SWAP1 SWAP3 DIV AND SWAP1 DUP8 JUMP JUMPDEST PUSH1 0x40 DUP1 MLOAD SWAP8 DUP9 MSTORE PUSH1 0x20 DUP9 ADD SWAP7 SWAP1 SWAP7 MSTORE SWAP5 DUP7 ADD SWAP4 SWAP1 SWAP4 MSTORE PUSH1 0x60 DUP6 ADD SWAP2 SWAP1 SWAP2 MSTORE ISZERO ISZERO PUSH1 0x80 DUP5 ADD MSTORE ISZERO ISZERO PUSH1 0xA0 DUP4 ADD MSTORE PUSH1 0xC0 DUP3 ADD MSTORE PUSH1 0xE0 ADD PUSH2 0x165 JUMP JUMPDEST PUSH2 0x20B PUSH2 0x206 CALLDATASIZE PUSH1 0x4 PUSH2 0xD41 JUMP JUMPDEST PUSH2 0x3EE JUMP JUMPDEST STOP JUMPDEST PUSH2 0x15B PUSH2 0x3E8 DUP2 JUMP JUMPDEST PUSH2 0x15B PUSH2 0x2EE DUP2 JUMP JUMPDEST PUSH2 0x20B PUSH2 0x22D CALLDATASIZE PUSH1 0x4 PUSH2 0xD26 JUMP JUMPDEST PUSH2 0x504 JUMP JUMPDEST PUSH2 0x20B PUSH2 0x240 CALLDATASIZE PUSH1 0x4 PUSH2 0xD26 JUMP JUMPDEST PUSH2 0x56A JUMP JUMPDEST PUSH2 0x15B PUSH1 0xA DUP2 JUMP JUMPDEST PUSH2 0x15B PUSH2 0x25B CALLDATASIZE PUSH1 0x4 PUSH2 0xD26 JUMP JUMPDEST PUSH2 0x594 JUMP JUMPDEST PUSH2 0x20B PUSH2 0x666 JUMP JUMPDEST PUSH2 0x15B PUSH2 0x276 CALLDATASIZE PUSH1 0x4 PUSH2 0xD26 JUMP JUMPDEST PUSH1 0x1 PUSH1 0x1 PUSH1 0xA0 SHL SUB AND PUSH1 0x0 SWAP1 DUP2 MSTORE PUSH1 0x1 PUSH1 0x20 MSTORE PUSH1 0x40 SWAP1 KECCAK256 SLOAD SWAP1 JUMP JUMPDEST PUSH2 0x2A4 PUSH2 0x29F CALLDATASIZE PUSH1 0x4 PUSH2 0xD26 JUMP JUMPDEST PUSH2 0x67A JUMP JUMPDEST PUSH1 0x40 MLOAD PUSH2 0x165 SWAP2 SWAP1 PUSH1 0x0 PUSH1 0xE0 DUP3 ADD SWAP1 POP DUP3 MLOAD DUP3 MSTORE PUSH1 0x20 DUP4 ADD MLOAD PUSH1 0x20 DUP4 ADD MSTORE PUSH1 0x40 DUP4 ADD MLOAD PUSH1 0x40 DUP4 ADD MSTORE PUSH1 0x60 DUP4 ADD MLOAD PUSH1 0x60 DUP4 ADD MSTORE PUSH1 0x80 DUP4 ADD MLOAD ISZERO ISZERO PUSH1 0x80 DUP4 ADD MSTORE PUSH1 0xA0 DUP4 ADD MLOAD ISZERO ISZERO PUSH1 0xA0 DUP4 ADD MSTORE PUSH1 0xC0 DUP4 ADD MLOAD PUSH1 0xC0 DUP4 ADD MSTORE SWAP3 SWAP2 POP POP JUMP JUMPDEST PUSH2 0x20B PUSH2 0x30C CALLDATASIZE PUSH1 0x4 PUSH2 0xD26 JUMP JUMPDEST PUSH2 0x734 JUMP JUMPDEST PUSH2 0x15B PUSH2 0x31F CALLDATASIZE PUSH1 0x4 PUSH2 0xD26 JUMP JUMPDEST PUSH2 0x7B5 JUMP JUMPDEST PUSH1 0x0 SLOAD PUSH1 0x1 PUSH1 0x1 PUSH1 0xA0 SHL SUB AND JUMPDEST PUSH1 0x40 MLOAD PUSH1 0x1 PUSH1 0x1 PUSH1 0xA0 SHL SUB SWAP1 SWAP2 AND DUP2 MSTORE PUSH1 0x20 ADD PUSH2 0x165 JUMP JUMPDEST PUSH2 0x15B PUSH1 0x14 DUP2 JUMP JUMPDEST PUSH2 0x364 PUSH2 0x35F CALLDATASIZE PUSH1 0x4 PUSH2 0xD26 JUMP JUMPDEST PUSH2 0x84F JUMP JUMPDEST PUSH1 0x40 DUP1 MLOAD SWAP4 DUP5 MSTORE PUSH1 0x20 DUP5 ADD SWAP3 SWAP1 SWAP3 MSTORE SWAP1 DUP3 ADD MSTORE PUSH1 0x60 ADD PUSH2 0x165 JUMP JUMPDEST PUSH2 0x20B PUSH2 0x38D CALLDATASIZE PUSH1 0x4 PUSH2 0xD6B JUMP JUMPDEST PUSH2 0x907 JUMP JUMPDEST PUSH1 0x2 SLOAD PUSH2 0x331 SWAP1 PUSH1 0x1 PUSH1 0x1 PUSH1 0xA0 SHL SUB AND DUP2 JUMP JUMPDEST PUSH2 0x3B8 PUSH2 0x3B3 CALLDATASIZE PUSH1 0x4 PUSH2 0xD26 JUMP JUMPDEST PUSH2 0xA6E JUMP JUMPDEST PUSH1 0x40 MLOAD SWAP1 ISZERO ISZERO DUP2 MSTORE PUSH1 0x20 ADD PUSH2 0x165 JUMP JUMPDEST PUSH2 0x20B PUSH2 0x3D6 CALLDATASIZE PUSH1 0x4 PUSH2 0xD26 JUMP JUMPDEST PUSH2 0xB06 JUMP JUMPDEST PUSH2 0x20B PUSH2 0x3E9 CALLDATASIZE PUSH1 0x4 PUSH2 0xD26 JUMP JUMPDEST PUSH2 0xB7F JUMP JUMPDEST PUSH2 0x3F6 PUSH2 0xBE4 JUMP JUMPDEST PUSH2 0x3E8 DUP2 GT ISZERO PUSH2 0x445 JUMPI PUSH1 0x40 MLOAD PUSH3 0x461BCD PUSH1 0xE5 SHL DUP2 MSTORE PUSH1 0x20 PUSH1 0x4 DUP3 ADD MSTORE PUSH1 0x15 PUSH1 0x24 DUP3 ADD MSTORE PUSH21 0x53636F72652065786365656473206D6178696D756D PUSH1 0x58 SHL PUSH1 0x44 DUP3 ADD MSTORE PUSH1 0x64 ADD JUMPDEST PUSH1 0x40 MLOAD DUP1 SWAP2 SUB SWAP1 REVERT JUMPDEST PUSH1 0x1 PUSH1 0x1 PUSH1 0xA0 SHL SUB DUP3 AND PUSH1 0x0 SWAP1 DUP2 MSTORE PUSH1 0x1 PUSH1 0x20 MSTORE PUSH1 0x40 SWAP1 KECCAK256 DUP2 DUP2 SSTORE PUSH2 0x469 DUP3 PUSH2 0xC3E JUMP JUMPDEST PUSH1 0x5 DUP3 ADD SSTORE TIMESTAMP PUSH1 0x3 DUP3 ADD SSTORE PUSH1 0x40 DUP1 MLOAD DUP4 DUP2 MSTORE PUSH1 0x1 PUSH1 0x20 DUP3 ADD MSTORE PUSH1 0x1 PUSH1 0x1 PUSH1 0xA0 SHL SUB DUP6 AND SWAP2 PUSH32 0xDB3885AFBBA6DEBF9C1BDA35746FFCD3E3C749B3742BE7C9A0904981B5BEFB99 SWAP2 ADD PUSH1 0x40 MLOAD DUP1 SWAP2 SUB SWAP1 LOG2 DUP3 PUSH1 0x1 PUSH1 0x1 PUSH1 0xA0 SHL SUB AND PUSH32 0x22812190FA3C1DB0F86A47A0E51CA5DBC2D016C8F250F0A25F0F21726DB4C7DD DUP3 PUSH1 0x5 ADD SLOAD PUSH1 0x40 MLOAD PUSH2 0x4F7 SWAP2 DUP2 MSTORE PUSH1 0x20 ADD SWAP1 JUMP JUMPDEST PUSH1 0x40 MLOAD DUP1 SWAP2 SUB SWAP1 LOG2 POP POP POP JUMP JUMPDEST PUSH2 0x50C PUSH2 0xBE4 JUMP JUMPDEST PUSH1 0x1 PUSH1 0x1 PUSH1 0xA0 SHL SUB DUP2 AND PUSH1 0x0 DUP2 DUP2 MSTORE PUSH1 0x1 PUSH1 0x20 DUP2 SWAP1 MSTORE PUSH1 0x40 DUP1 DUP4 KECCAK256 PUSH1 0x4 DUP2 ADD DUP1 SLOAD PUSH2 0xFFFF NOT AND SWAP1 SWAP4 OR SWAP1 SWAP3 SSTORE PUSH1 0x5 DUP3 ADD DUP4 SWAP1 SSTORE MLOAD SWAP1 SWAP3 SWAP2 PUSH32 0x7409CB8E690BCD1487FD4FD27DAD3FA92388D201BA6F953631D6D6B26299F849 SWAP2 LOG2 POP POP JUMP JUMPDEST PUSH2 0x572 PUSH2 0xBE4 JUMP JUMPDEST PUSH1 0x2 DUP1 SLOAD PUSH1 0x1 PUSH1 0x1 PUSH1 0xA0 SHL SUB NOT AND PUSH1 0x1 PUSH1 0x1 PUSH1 0xA0 SHL SUB SWAP3 SWAP1 SWAP3 AND SWAP2 SWAP1 SWAP2 OR SWAP1 SSTORE JUMP JUMPDEST PUSH1 0x1 PUSH1 0x1 PUSH1 0xA0 SHL SUB DUP2 AND PUSH1 0x0 SWAP1 DUP2 MSTORE PUSH1 0x1 PUSH1 0x20 DUP2 DUP2 MSTORE PUSH1 0x40 DUP1 DUP5 KECCAK256 DUP2 MLOAD PUSH1 0xE0 DUP2 ADD DUP4 MSTORE DUP2 SLOAD DUP2 MSTORE SWAP4 DUP2 ADD SLOAD SWAP3 DUP5 ADD SWAP3 SWAP1 SWAP3 MSTORE PUSH1 0x2 DUP3 ADD SLOAD SWAP1 DUP4 ADD MSTORE PUSH1 0x3 DUP2 ADD SLOAD PUSH1 0x60 DUP4 ADD MSTORE PUSH1 0x4 DUP2 ADD SLOAD PUSH1 0xFF DUP1 DUP3 AND ISZERO DUP1 ISZERO PUSH1 0x80 DUP7 ADD MSTORE PUSH2 0x100 SWAP1 SWAP3 DIV AND ISZERO ISZERO PUSH1 0xA0 DUP5 ADD MSTORE PUSH1 0x5 SWAP1 SWAP2 ADD SLOAD PUSH1 0xC0 DUP4 ADD MSTORE PUSH2 0x611 JUMPI POP PUSH1 0x4 SWAP3 SWAP2 POP POP JUMP JUMPDEST DUP1 PUSH1 0xA0 ADD MLOAD ISZERO PUSH2 0x624 JUMPI POP PUSH1 0x0 SWAP3 SWAP2 POP POP JUMP JUMPDEST DUP1 MLOAD PUSH2 0x384 GT PUSH2 0x637 JUMPI POP PUSH1 0x3 SWAP3 SWAP2 POP POP JUMP JUMPDEST DUP1 MLOAD PUSH2 0x2EE GT PUSH2 0x64A JUMPI POP PUSH1 0x2 SWAP3 SWAP2 POP POP JUMP JUMPDEST DUP1 MLOAD PUSH2 0x1F4 GT PUSH2 0x65D JUMPI POP PUSH1 0x1 SWAP3 SWAP2 POP POP JUMP JUMPDEST POP PUSH1 0x0 SWAP3 SWAP2 POP POP JUMP JUMPDEST PUSH2 0x66E PUSH2 0xBE4 JUMP JUMPDEST PUSH2 0x678 PUSH1 0x0 PUSH2 0xCA7 JUMP JUMPDEST JUMP JUMPDEST PUSH2 0x6BE PUSH1 0x40 MLOAD DUP1 PUSH1 0xE0 ADD PUSH1 0x40 MSTORE DUP1 PUSH1 0x0 DUP2 MSTORE PUSH1 0x20 ADD PUSH1 0x0 DUP2 MSTORE PUSH1 0x20 ADD PUSH1 0x0 DUP2 MSTORE PUSH1 0x20 ADD PUSH1 0x0 DUP2 MSTORE PUSH1 0x20 ADD PUSH1 0x0 ISZERO ISZERO DUP2 MSTORE PUSH1 0x20 ADD PUSH1 0x0 ISZERO ISZERO DUP2 MSTORE PUSH1 0x20 ADD PUSH1 0x0 DUP2 MSTORE POP SWAP1 JUMP JUMPDEST POP PUSH1 0x1 PUSH1 0x1 PUSH1 0xA0 SHL SUB AND PUSH1 0x0 SWAP1 DUP2 MSTORE PUSH1 0x1 PUSH1 0x20 DUP2 DUP2 MSTORE PUSH1 0x40 SWAP3 DUP4 SWAP1 KECCAK256 DUP4 MLOAD PUSH1 0xE0 DUP2 ADD DUP6 MSTORE DUP2 SLOAD DUP2 MSTORE SWAP3 DUP2 ADD SLOAD SWAP2 DUP4 ADD SWAP2 SWAP1 SWAP2 MSTORE PUSH1 0x2 DUP2 ADD SLOAD SWAP3 DUP3 ADD SWAP3 SWAP1 SWAP3 MSTORE PUSH1 0x3 DUP3 ADD SLOAD PUSH1 0x60 DUP3 ADD MSTORE PUSH1 0x4 DUP3 ADD SLOAD PUSH1 0xFF DUP1 DUP3 AND ISZERO ISZERO PUSH1 0x80 DUP5 ADD MSTORE PUSH2 0x100 SWAP1 SWAP2 DIV AND ISZERO ISZERO PUSH1 0xA0 DUP3 ADD MSTORE PUSH1 0x5 SWAP1 SWAP2 ADD SLOAD PUSH1 0xC0 DUP3 ADD MSTORE SWAP1 JUMP JUMPDEST PUSH2 0x73C PUSH2 0xBE4 JUMP JUMPDEST PUSH1 0x1 PUSH1 0x1 PUSH1 0xA0 SHL SUB DUP2 AND PUSH1 0x0 SWAP1 DUP2 MSTORE PUSH1 0x1 PUSH1 0x20 MSTORE PUSH1 0x40 SWAP1 KECCAK256 PUSH1 0x4 DUP2 ADD DUP1 SLOAD PUSH2 0xFFFF NOT AND SWAP1 SSTORE DUP1 SLOAD PUSH2 0x76C SWAP1 PUSH2 0xC3E JUMP JUMPDEST PUSH1 0x5 DUP3 ADD DUP2 SWAP1 SSTORE PUSH1 0x40 MLOAD SWAP1 DUP2 MSTORE PUSH1 0x1 PUSH1 0x1 PUSH1 0xA0 SHL SUB DUP4 AND SWAP1 PUSH32 0x22812190FA3C1DB0F86A47A0E51CA5DBC2D016C8F250F0A25F0F21726DB4C7DD SWAP1 PUSH1 0x20 ADD PUSH1 0x40 MLOAD DUP1 SWAP2 SUB SWAP1 LOG2 POP POP JUMP JUMPDEST PUSH1 0x1 PUSH1 0x1 PUSH1 0xA0 SHL SUB DUP2 AND PUSH1 0x0 SWAP1 DUP2 MSTORE PUSH1 0x1 PUSH1 0x20 DUP2 DUP2 MSTORE PUSH1 0x40 DUP1 DUP5 KECCAK256 DUP2 MLOAD PUSH1 0xE0 DUP2 ADD DUP4 MSTORE DUP2 SLOAD DUP2 MSTORE SWAP4 DUP2 ADD SLOAD SWAP3 DUP5 ADD SWAP3 SWAP1 SWAP3 MSTORE PUSH1 0x2 DUP3 ADD SLOAD SWAP1 DUP4 ADD MSTORE PUSH1 0x3 DUP2 ADD SLOAD PUSH1 0x60 DUP4 ADD MSTORE PUSH1 0x4 DUP2 ADD SLOAD PUSH1 0xFF DUP1 DUP3 AND ISZERO ISZERO PUSH1 0x80 DUP6 ADD MSTORE PUSH2 0x100 SWAP1 SWAP2 DIV AND ISZERO DUP1 ISZERO PUSH1 0xA0 DUP5 ADD MSTORE PUSH1 0x5 SWAP1 SWAP2 ADD SLOAD PUSH1 0xC0 DUP4 ADD MSTORE PUSH2 0x832 JUMPI POP PUSH1 0x64 SWAP3 SWAP2 POP POP JUMP JUMPDEST DUP1 PUSH1 0x80 ADD MLOAD ISZERO PUSH2 0x845 JUMPI POP PUSH1 0x0 SWAP3 SWAP2 POP POP JUMP JUMPDEST PUSH1 0xC0 ADD MLOAD SWAP3 SWAP2 POP POP JUMP JUMPDEST PUSH1 0x1 PUSH1 0x1 PUSH1 0xA0 SHL SUB DUP2 AND PUSH1 0x0 SWAP1 DUP2 MSTORE PUSH1 0x1 PUSH1 0x20 DUP2 DUP2 MSTORE PUSH1 0x40 DUP1 DUP5 KECCAK256 DUP2 MLOAD PUSH1 0xE0 DUP2 ADD DUP4 MSTORE DUP2 SLOAD DUP2 MSTORE SWAP4 DUP2 ADD SLOAD SWAP3 DUP5 ADD DUP4 SWAP1 MSTORE PUSH1 0x2 DUP2 ADD SLOAD SWAP2 DUP5 ADD SWAP2 SWAP1 SWAP2 MSTORE PUSH1 0x3 DUP2 ADD SLOAD PUSH1 0x60 DUP5 ADD MSTORE PUSH1 0x4 DUP2 ADD SLOAD PUSH1 0xFF DUP1 DUP3 AND ISZERO ISZERO PUSH1 0x80 DUP7 ADD MSTORE PUSH2 0x100 SWAP1 SWAP2 DIV AND ISZERO ISZERO PUSH1 0xA0 DUP5 ADD MSTORE PUSH1 0x5 ADD SLOAD PUSH1 0xC0 DUP4 ADD MSTORE DUP3 SWAP2 DUP3 SWAP2 DUP3 SWAP1 PUSH2 0x8CF JUMPI PUSH1 0x0 PUSH2 0x8EE JUMP JUMPDEST PUSH1 0x20 DUP3 ADD MLOAD PUSH1 0x40 DUP4 ADD MLOAD PUSH2 0x8E4 SWAP1 PUSH1 0x64 PUSH2 0xDBD JUMP JUMPDEST PUSH2 0x8EE SWAP2 SWAP1 PUSH2 0xDD4 JUMP JUMPDEST PUSH1 0x20 DUP4 ADD MLOAD PUSH1 0x40 SWAP1 SWAP4 ADD MLOAD SWAP3 SWAP8 SWAP3 SWAP7 POP SWAP5 POP SWAP1 SWAP3 POP POP POP JUMP JUMPDEST PUSH1 0x2 SLOAD PUSH1 0x1 PUSH1 0x1 PUSH1 0xA0 SHL SUB AND CALLER EQ PUSH2 0x96B JUMPI PUSH1 0x40 MLOAD PUSH3 0x461BCD PUSH1 0xE5 SHL DUP2 MSTORE PUSH1 0x20 PUSH1 0x4 DUP3 ADD MSTORE PUSH1 0x21 PUSH1 0x24 DUP3 ADD MSTORE PUSH32 0x43616C6C6572206973206E6F74207468652072656E74616C20636F6E74726163 PUSH1 0x44 DUP3 ADD MSTORE PUSH1 0x1D PUSH1 0xFA SHL PUSH1 0x64 DUP3 ADD MSTORE PUSH1 0x84 ADD PUSH2 0x43C JUMP JUMPDEST PUSH1 0x1 PUSH1 0x1 PUSH1 0xA0 SHL SUB DUP3 AND PUSH1 0x0 SWAP1 DUP2 MSTORE PUSH1 0x1 PUSH1 0x20 MSTORE PUSH1 0x40 DUP2 KECCAK256 PUSH1 0x3 DUP2 ADD SLOAD SWAP1 SWAP2 SUB PUSH2 0x99C JUMPI PUSH2 0x1F4 DUP2 SSTORE PUSH1 0x64 PUSH1 0x5 DUP3 ADD SSTORE JUMPDEST PUSH1 0x1 DUP2 ADD DUP1 SLOAD SWAP1 PUSH1 0x0 PUSH2 0x9AE DUP4 PUSH2 0xDF6 JUMP JUMPDEST SWAP2 SWAP1 POP SSTORE POP DUP2 ISZERO PUSH2 0x9F3 JUMPI PUSH1 0x2 DUP2 ADD DUP1 SLOAD SWAP1 PUSH1 0x0 PUSH2 0x9CB DUP4 PUSH2 0xDF6 JUMP JUMPDEST SWAP2 SWAP1 POP SSTORE POP PUSH2 0x9EC PUSH2 0x3E8 PUSH1 0xA DUP4 PUSH1 0x0 ADD SLOAD PUSH2 0x9E7 SWAP2 SWAP1 PUSH2 0xE0F JUMP JUMPDEST PUSH2 0xCF7 JUMP JUMPDEST DUP2 SSTORE PUSH2 0xA14 JUMP JUMPDEST DUP1 SLOAD PUSH1 0x14 LT PUSH2 0xA03 JUMPI PUSH1 0x0 PUSH2 0xA11 JUMP JUMPDEST DUP1 SLOAD PUSH2 0xA11 SWAP1 PUSH1 0x14 SWAP1 PUSH2 0xE22 JUMP JUMPDEST DUP2 SSTORE JUMPDEST DUP1 SLOAD PUSH2 0xA1F SWAP1 PUSH2 0xC3E JUMP JUMPDEST PUSH1 0x5 DUP3 ADD SSTORE TIMESTAMP PUSH1 0x3 DUP3 ADD SSTORE DUP1 SLOAD PUSH1 0x40 DUP1 MLOAD SWAP2 DUP3 MSTORE DUP4 ISZERO ISZERO PUSH1 0x20 DUP4 ADD MSTORE PUSH1 0x1 PUSH1 0x1 PUSH1 0xA0 SHL SUB DUP6 AND SWAP2 PUSH32 0xDB3885AFBBA6DEBF9C1BDA35746FFCD3E3C749B3742BE7C9A0904981B5BEFB99 SWAP2 ADD PUSH2 0x4F7 JUMP JUMPDEST PUSH1 0x1 PUSH1 0x1 PUSH1 0xA0 SHL SUB DUP2 AND PUSH1 0x0 SWAP1 DUP2 MSTORE PUSH1 0x1 PUSH1 0x20 DUP2 DUP2 MSTORE PUSH1 0x40 DUP1 DUP5 KECCAK256 DUP2 MLOAD PUSH1 0xE0 DUP2 ADD DUP4 MSTORE DUP2 SLOAD DUP2 MSTORE SWAP4 DUP2 ADD SLOAD SWAP3 DUP5 ADD SWAP3 SWAP1 SWAP3 MSTORE PUSH1 0x2 DUP3 ADD SLOAD SWAP1 DUP4 ADD MSTORE PUSH1 0x3 DUP2 ADD SLOAD PUSH1 0x60 DUP4 ADD MSTORE PUSH1 0x4 DUP2 ADD SLOAD PUSH1 0xFF DUP1 DUP3 AND ISZERO ISZERO PUSH1 0x80 DUP6 ADD MSTORE PUSH2 0x100 SWAP1 SWAP2 DIV AND ISZERO DUP1 ISZERO PUSH1 0xA0 DUP5 ADD MSTORE PUSH1 0x5 SWAP1 SWAP2 ADD SLOAD PUSH1 0xC0 DUP4 ADD MSTORE PUSH2 0xAEB JUMPI POP PUSH1 0x1 SWAP3 SWAP2 POP POP JUMP JUMPDEST DUP1 PUSH1 0x80 ADD MLOAD DUP1 PUSH2 0xAFE JUMPI POP DUP1 MLOAD PUSH2 0x2EE GT ISZERO JUMPDEST ISZERO SWAP4 SWAP3 POP POP POP JUMP JUMPDEST PUSH2 0xB0E PUSH2 0xBE4 JUMP JUMPDEST PUSH1 0x1 PUSH1 0x1 PUSH1 0xA0 SHL SUB DUP2 AND PUSH2 0xB73 JUMPI PUSH1 0x40 MLOAD PUSH3 0x461BCD PUSH1 0xE5 SHL DUP2 MSTORE PUSH1 0x20 PUSH1 0x4 DUP3 ADD MSTORE PUSH1 0x26 PUSH1 0x24 DUP3 ADD MSTORE PUSH32 0x4F776E61626C653A206E6577206F776E657220697320746865207A65726F2061 PUSH1 0x44 DUP3 ADD MSTORE PUSH6 0x646472657373 PUSH1 0xD0 SHL PUSH1 0x64 DUP3 ADD MSTORE PUSH1 0x84 ADD PUSH2 0x43C JUMP JUMPDEST PUSH2 0xB7C DUP2 PUSH2 0xCA7 JUMP JUMPDEST POP JUMP JUMPDEST PUSH2 0xB87 PUSH2 0xBE4 JUMP JUMPDEST PUSH1 0x1 PUSH1 0x1 PUSH1 0xA0 SHL SUB DUP2 AND PUSH1 0x0 DUP2 DUP2 MSTORE PUSH1 0x1 PUSH1 0x20 MSTORE PUSH1 0x40 DUP1 DUP3 KECCAK256 PUSH1 0x4 DUP2 ADD DUP1 SLOAD PUSH2 0xFFFF NOT AND PUSH2 0x100 OR SWAP1 SSTORE PUSH1 0x64 PUSH1 0x5 DUP3 ADD SSTORE SWAP1 MLOAD SWAP1 SWAP3 SWAP2 PUSH32 0x7F8B7DC89DAE85811A7A85800B892B5816AD5D381C856F1B56490F8FC470C9CB SWAP2 LOG2 POP POP JUMP JUMPDEST PUSH1 0x0 SLOAD PUSH1 0x1 PUSH1 0x1 PUSH1 0xA0 SHL SUB AND CALLER EQ PUSH2 0x678 JUMPI PUSH1 0x40 MLOAD PUSH3 0x461BCD PUSH1 0xE5 SHL DUP2 MSTORE PUSH1 0x20 PUSH1 0x4 DUP3 ADD DUP2 SWAP1 MSTORE PUSH1 0x24 DUP3 ADD MSTORE PUSH32 0x4F776E61626C653A2063616C6C6572206973206E6F7420746865206F776E6572 PUSH1 0x44 DUP3 ADD MSTORE PUSH1 0x64 ADD PUSH2 0x43C JUMP JUMPDEST PUSH1 0x0 PUSH2 0x2EE DUP3 LT PUSH2 0xC51 JUMPI POP PUSH1 0x0 SWAP2 SWAP1 POP JUMP JUMPDEST PUSH2 0x1F4 DUP3 LT PUSH2 0xC9A JUMPI PUSH2 0xC68 PUSH2 0x1F4 PUSH2 0x2EE PUSH2 0xE22 JUMP JUMPDEST PUSH2 0xC74 PUSH2 0x1F4 DUP5 PUSH2 0xE22 JUMP JUMPDEST PUSH2 0xC7F SWAP1 PUSH1 0x64 PUSH2 0xDBD JUMP JUMPDEST PUSH2 0xC89 SWAP2 SWAP1 PUSH2 0xDD4 JUMP JUMPDEST PUSH2 0xC94 SWAP1 PUSH1 0x64 PUSH2 0xE22 JUMP JUMPDEST SWAP3 SWAP2 POP POP JUMP JUMPDEST POP PUSH1 0x64 SWAP2 SWAP1 POP JUMP JUMPDEST SWAP2 SWAP1 POP JUMP JUMPDEST PUSH1 0x0 DUP1 SLOAD PUSH1 0x1 PUSH1 0x1 PUSH1 0xA0 SHL SUB DUP4 DUP2 AND PUSH1 0x1 PUSH1 0x1 PUSH1 0xA0 SHL SUB NOT DUP4 AND DUP2 OR DUP5 SSTORE PUSH1 0x40 MLOAD SWAP2 SWAP1 SWAP3 AND SWAP3 DUP4 SWAP2 PUSH32 0x8BE0079C531659141344CD1FD0A4F28419497F9722A3DAAFE3B4186F6B6457E0 SWAP2 SWAP1 LOG3 POP POP JUMP JUMPDEST PUSH1 0x0 DUP2 DUP4 LT PUSH2 0xD06 JUMPI DUP2 PUSH2 0xD08 JUMP JUMPDEST DUP3 JUMPDEST SWAP4 SWAP3 POP POP POP JUMP JUMPDEST DUP1 CALLDATALOAD PUSH1 0x1 PUSH1 0x1 PUSH1 0xA0 SHL SUB DUP2 AND DUP2 EQ PUSH2 0xCA2 JUMPI PUSH1 0x0 DUP1 REVERT JUMPDEST PUSH1 0x0 PUSH1 0x20 DUP3 DUP5 SUB SLT ISZERO PUSH2 0xD38 JUMPI PUSH1 0x0 DUP1 REVERT JUMPDEST PUSH2 0xD08 DUP3 PUSH2 0xD0F JUMP JUMPDEST PUSH1 0x0 DUP1 PUSH1 0x40 DUP4 DUP6 SUB SLT ISZERO PUSH2 0xD54 JUMPI PUSH1 0x0 DUP1 REVERT JUMPDEST PUSH2 0xD5D DUP4 PUSH2 0xD0F JUMP JUMPDEST SWAP5 PUSH1 0x20 SWAP4 SWAP1 SWAP4 ADD CALLDATALOAD SWAP4 POP POP POP JUMP JUMPDEST PUSH1 0x0 DUP1 PUSH1 0x40 DUP4 DUP6 SUB SLT ISZERO PUSH2 0xD7E JUMPI PUSH1 0x0 DUP1 REVERT JUMPDEST PUSH2 0xD87 DUP4 PUSH2 0xD0F JUMP JUMPDEST SWAP2 POP PUSH1 0x20 DUP4 ADD CALLDATALOAD DUP1 ISZERO ISZERO DUP2 EQ PUSH2 0xD9C JUMPI PUSH1 0x0 DUP1 REVERT JUMPDEST DUP1 SWAP2 POP POP SWAP3 POP SWAP3 SWAP1 POP JUMP JUMPDEST PUSH4 0x4E487B71 PUSH1 0xE0 SHL PUSH1 0x0 MSTORE PUSH1 0x11 PUSH1 0x4 MSTORE PUSH1 0x24 PUSH1 0x0 REVERT JUMPDEST DUP1 DUP3 MUL DUP2 ISZERO DUP3 DUP3 DIV DUP5 EQ OR PUSH2 0xC94 JUMPI PUSH2 0xC94 PUSH2 0xDA7 JUMP JUMPDEST PUSH1 0x0 DUP3 PUSH2 0xDF1 JUMPI PUSH4 0x4E487B71 PUSH1 0xE0 SHL PUSH1 0x0 MSTORE PUSH1 0x12 PUSH1 0x4 MSTORE PUSH1 0x24 PUSH1 0x0 REVERT JUMPDEST POP DIV SWAP1 JUMP JUMPDEST PUSH1 0x0 PUSH1 0x1 DUP3 ADD PUSH2 0xE08 JUMPI PUSH2 0xE08 PUSH2 0xDA7 JUMP JUMPDEST POP PUSH1 0x1 ADD SWAP1 JUMP JUMPDEST DUP1 DUP3 ADD DUP1 DUP3 GT ISZERO PUSH2 0xC94 JUMPI PUSH2 0xC94 PUSH2 0xDA7 JUMP JUMPDEST DUP2 DUP2 SUB DUP2 DUP2 GT ISZERO PUSH2 0xC94 JUMPI PUSH2 0xC94 PUSH2 0xDA7 JUMP INVALID LOG2 PUSH5 0x6970667358 0x22 SLT KECCAK256 0xBF 0x4D 0x2E 0xB3 0xAD 0xB4 CALLCODE SWAP5 0xD5 0xB6 LOG0 JUMPI MULMOD SWAP10 0xF8 ORIGIN 0xC2 0x24 CODECOPY DUP2 0x2F 0xDB PUSH11 0xBE7DD66A7BC860E2016473 PUSH16 0x6C634300081300330000000000000000 "},"methodIdentifiers":{"COLLATERAL_FREE_THRESHOLD()":"46ff0967","MAX_SCORE()":"27ff6223","REDUCED_COLLATERAL_THRESHOLD()":"01817435","REPUTATION_GAIN()":"6a01703f","REPUTATION_LOSS()":"a0d541fa","addAuthorizedContract(address)":"98eaa4a7","blacklistUser(address)":"fcbca456","getCollateralMultiplier(address)":"85196798","getRentalStats(address)":"b6b3a261","getReputationData(address)":"7a00d3c4","getReputationScore(address)":"75a67d5c","getReputationTier(address)":"6be2cefb","owner()":"8da5cb5b","removeUserFromLists(address)":"7b8b5f72","renounceOwnership()":"715018a6","rentalContract()":"e8f4e9d4","reputations(address)":"06fa15a7","requiresCollateral(address)":"eeade3a2","setRentalContract(address)":"5a63427e","setReputationScore(address,uint256)":"18870e35","transferOwnership(address)":"f2fde38b","updateReputation(address,bool)":"e2c13e32","whitelistUser(address)":"4a4c560d"}}}}}