{"contracts/DynamicPricing.sol":{"DynamicPricing":{"abi":[{"inputs":[{"internalType":"address","name":"_priceOracle","type":"address"},{"internalType":"address","name":"_reputationSystem","type":"address"}],"stateMutability":"nonpayable","type":"constructor"},{"anonymous":false,"inputs":[{"indexed":true,"internalType":"address","name":"nftContract","type":"address"},{"indexed":false,"internalType":"uint256","name":"floorPrice","type":"uint256"},{"indexed":false,"internalType":"uint256","name":"averagePrice","type":"uint256"},{"indexed":false,"internalType":"uint256","name":"lastSalePrice","type":"uint256"}],"name":"CollectionPricingUpdated","type":"event"},{"anonymous":false,"inputs":[{"indexed":true,"internalType":"address","name":"previousOwner","type":"address"},{"indexed":true,"internalType":"address","name":"newOwner","type":"address"}],"name":"OwnershipTransferred","type":"event"},{"anonymous":false,"inputs":[{"indexed":true,"internalType":"address","name":"nftContract","type":"address"},{"indexed":true,"internalType":"uint256","name":"tokenId","type":"uint256"},{"indexed":false,"internalType":"uint256","name":"newUtilizationRate","type":"uint256"},{"indexed":false,"internalType":"uint256","name":"newPrice","type":"uint256"}],"name":"PricingDataUpdated","type":"event"},{"anonymous":false,"inputs":[{"indexed":false,"internalType":"uint256","name":"highDemandMultiplier","type":"uint256"},{"indexed":false,"internalType":"uint256","name":"lowDemandMultiplier","type":"uint256"},{"indexed":false,"internalType":"uint256","name":"maxMultiplier","type":"uint256"},{"indexed":false,"internalType":"uint256","name":"minMultiplier","type":"uint256"}],"name":"PricingParametersUpdated","type":"event"},{"inputs":[],"name":"BASIS_POINTS","outputs":[{"internalType":"uint256","name":"","type":"uint256"}],"stateMutability":"view","type":"function"},{"inputs":[],"name":"HIGH_UTILIZATION_THRESHOLD","outputs":[{"internalType":"uint256","name":"","type":"uint256"}],"stateMutability":"view","type":"function"},{"inputs":[],"name":"LOW_UTILIZATION_THRESHOLD","outputs":[{"internalType":"uint256","name":"","type":"uint256"}],"stateMutability":"view","type":"function"},{"inputs":[],"name":"ORACLE_DIVISOR","outputs":[{"internalType":"uint256","name":"","type":"uint256"}],"stateMutability":"view","type":"function"},{"inputs":[],"name":"ROLLING_WINDOW","outputs":[{"internalType":"uint256","name":"","type":"uint256"}],"stateMutability":"view","type":"function"},{"inputs":[{"internalType":"address","name":"contractAddr","type":"address"}],"name":"addAuthorizedContract","outputs":[],"stateMutability":"nonpayable","type":"function"},{"inputs":[{"internalType":"address","name":"","type":"address"}],"name":"authorizedContracts","outputs":[{"internalType":"bool","name":"","type":"bool"}],"stateMutability":"view","type":"function"},{"inputs":[{"internalType":"address","name":"","type":"address"}],"name":"collectionPricing","outputs":[{"internalType":"uint256","name":"floorPrice","type":"uint256"},{"internalType":"uint256","name":"averagePrice","type":"uint256"},{"internalType":"uint256","name":"lastSalePrice","type":"uint256"},{"internalType":"uint256","name":"rarityScore","type":"uint256"},{"internalType":"uint256","name":"lastUpdate","type":"uint256"}],"stateMutability":"view","type":"function"},{"inputs":[{"internalType":"address","name":"nftContract","type":"address"}],"name":"getCollectionPricing","outputs":[{"components":[{"internalType":"uint256","name":"floorPrice","type":"uint256"},{"internalType":"uint256","name":"averagePrice","type":"uint256"},{"internalType":"uint256","name":"lastSalePrice","type":"uint256"},{"internalType":"uint256","name":"rarityScore","type":"uint256"},{"internalType":"uint256","name":"lastUpdate","type":"uint256"}],"internalType":"struct DynamicPricing.CollectionPricing","name":"","type":"tuple"}],"stateMutability":"view","type":"function"},{"inputs":[{"internalType":"address","name":"nftContract","type":"address"},{"internalType":"uint256","name":"tokenId","type":"uint256"},{"internalType":"uint256","name":"basePrice","type":"uint256"},{"internalType":"address","name":"user","type":"address"}],"name":"getComprehensivePricing","outputs":[{"internalType":"uint256","name":"dynamicPrice","type":"uint256"},{"internalType":"uint256","name":"utilizationRate","type":"uint256"},{"internalType":"uint256","name":"utilizationMultiplier","type":"uint256"},{"internalType":"uint256","name":"oraclePrice","type":"uint256"},{"internalType":"uint256","name":"reputationDiscount","type":"uint256"},{"internalType":"uint256","name":"finalPrice","type":"uint256"}],"stateMutability":"view","type":"function"},{"inputs":[{"internalType":"address","name":"nftContract","type":"address"},{"internalType":"uint256","name":"tokenId","type":"uint256"},{"internalType":"uint256","name":"basePrice","type":"uint256"},{"internalType":"address","name":"user","type":"address"}],"name":"getDynamicPrice","outputs":[{"internalType":"uint256","name":"","type":"uint256"}],"stateMutability":"view","type":"function"},{"inputs":[{"internalType":"address","name":"nftContract","type":"address"},{"internalType":"uint256","name":"tokenId","type":"uint256"}],"name":"getPricingData","outputs":[{"components":[{"internalType":"uint256","name":"basePrice","type":"uint256"},{"internalType":"uint256","name":"utilizationRate","type":"uint256"},{"internalType":"uint256","name":"lastUpdate","type":"uint256"},{"internalType":"uint256","name":"rentalCount","type":"uint256"},{"internalType":"uint256","name":"totalRentalTime","type":"uint256"},{"internalType":"uint256","name":"rollingWindowStart","type":"uint256"}],"internalType":"struct DynamicPricing.PricingData","name":"","type":"tuple"}],"stateMutability":"view","type":"function"},{"inputs":[{"internalType":"address","name":"nftContract","type":"address"},{"internalType":"uint256","name":"","type":"uint256"}],"name":"getSuggestedPrice","outputs":[{"internalType":"uint256","name":"","type":"uint256"}],"stateMutability":"view","type":"function"},{"inputs":[{"internalType":"address","name":"nftContract","type":"address"},{"internalType":"uint256","name":"tokenId","type":"uint256"}],"name":"getUtilizationRate","outputs":[{"internalType":"uint256","name":"","type":"uint256"}],"stateMutability":"view","type":"function"},{"inputs":[{"internalType":"address","name":"nftContract","type":"address"},{"internalType":"uint256","name":"tokenId","type":"uint256"}],"name":"hasHighUtilityDemand","outputs":[{"internalType":"bool","name":"","type":"bool"}],"stateMutability":"view","type":"function"},{"inputs":[],"name":"highDemandMultiplier","outputs":[{"internalType":"uint256","name":"","type":"uint256"}],"stateMutability":"view","type":"function"},{"inputs":[],"name":"highReputationDiscount","outputs":[{"internalType":"uint256","name":"","type":"uint256"}],"stateMutability":"view","type":"function"},{"inputs":[],"name":"lowDemandMultiplier","outputs":[{"internalType":"uint256","name":"","type":"uint256"}],"stateMutability":"view","type":"function"},{"inputs":[],"name":"lowReputationDiscount","outputs":[{"internalType":"uint256","name":"","type":"uint256"}],"stateMutability":"view","type":"function"},{"inputs":[],"name":"maxMultiplier","outputs":[{"internalType":"uint256","name":"","type":"uint256"}],"stateMutability":"view","type":"function"},{"inputs":[],"name":"midReputationDiscount","outputs":[{"internalType":"uint256","name":"","type":"uint256"}],"stateMutability":"view","type":"function"},{"inputs":[],"name":"minMultiplier","outputs":[{"internalType":"uint256","name":"","type":"uint256"}],"stateMutability":"view","type":"function"},{"inputs":[{"internalType":"address","name":"","type":"address"},{"internalType":"uint256","name":"","type":"uint256"}],"name":"nftPricingData","outputs":[{"internalType":"uint256","name":"basePrice","type":"uint256"},{"internalType":"uint256","name":"utilizationRate","type":"uint256"},{"internalType":"uint256","name":"lastUpdate","type":"uint256"},{"internalType":"uint256","name":"rentalCount","type":"uint256"},{"internalType":"uint256","name":"totalRentalTime","type":"uint256"},{"internalType":"uint256","name":"rollingWindowStart","type":"uint256"}],"stateMutability":"view","type":"function"},{"inputs":[],"name":"oraclePriceMultiplier","outputs":[{"internalType":"uint256","name":"","type":"uint256"}],"stateMutability":"view","type":"function"},{"inputs":[],"name":"owner","outputs":[{"internalType":"address","name":"","type":"address"}],"stateMutability":"view","type":"function"},{"inputs":[],"name":"priceOracle","outputs":[{"internalType":"contract IPriceOracle","name":"","type":"address"}],"stateMutability":"view","type":"function"},{"inputs":[{"internalType":"address","name":"contractAddr","type":"address"}],"name":"removeAuthorizedContract","outputs":[],"stateMutability":"nonpayable","type":"function"},{"inputs":[],"name":"renounceOwnership","outputs":[],"stateMutability":"nonpayable","type":"function"},{"inputs":[],"name":"reputationSystem","outputs":[{"internalType":"contract ReputationSystem","name":"","type":"address"}],"stateMutability":"view","type":"function"},{"inputs":[{"internalType":"address","name":"newOwner","type":"address"}],"name":"transferOwnership","outputs":[],"stateMutability":"nonpayable","type":"function"},{"inputs":[{"internalType":"address","name":"nftContract","type":"address"}],"name":"updateCollectionPricing","outputs":[],"stateMutability":"nonpayable","type":"function"},{"inputs":[{"internalType":"uint256","name":"_multiplier","type":"uint256"}],"name":"updateOraclePriceMultiplier","outputs":[],"stateMutability":"nonpayable","type":"function"},{"inputs":[{"internalType":"address","name":"_priceOracle","type":"address"}],"name":"updatePriceOracle","outputs":[],"stateMutability":"nonpayable","type":"function"},{"inputs":[{"internalType":"address","name":"nftContract","type":"address"},{"internalType":"uint256","name":"tokenId","type":"uint256"},{"internalType":"uint256","name":"rentalDuration","type":"uint256"},{"internalType":"uint256","name":"pricePerSecond","type":"uint256"}],"name":"updatePricingData","outputs":[],"stateMutability":"nonpayable","type":"function"},{"inputs":[{"internalType":"uint256","name":"_highDemandMultiplier","type":"uint256"},{"internalType":"uint256","name":"_lowDemandMultiplier","type":"uint256"},{"internalType":"uint256","name":"_maxMultiplier","type":"uint256"},{"internalType":"uint256","name":"_minMultiplier","type":"uint256"}],"name":"updatePricingParameters","outputs":[],"stateMutability":"nonpayable","type":"function"},{"inputs":[{"internalType":"uint256","name":"_highReputationDiscount","type":"uint256"},{"internalType":"uint256","name":"_midReputationDiscount","type":"uint256"},{"internalType":"uint256","name":"_lowReputationDiscount","type":"uint256"}],"name":"updateReputationDiscounts","outputs":[],"stateMutability":"nonpayable","type":"function"},{"inputs":[{"internalType":"address","name":"_reputationSystem","type":"address"}],"name":"updateReputationSystem","outputs":[],"stateMutability":"nonpayable","type":"function"}],"evm":{"bytecode":{"linkReferences":{},"object":"6080604052613a98600755611d4c600855614e20600955611388600a556101f4600b5560fa600c556064600d55600b600e553480156200003e57600080fd5b506040516200182a3803806200182a83398101604081905262000061916200010f565b6200006c33620000a2565b60018055600580546001600160a01b039384166001600160a01b0319918216179091556006805492909316911617905562000147565b600080546001600160a01b038381166001600160a01b0319831681178455604051919092169283917f8be0079c531659141344cd1fd0a4f28419497f9722a3daafe3b4186f6b6457e09190a35050565b80516001600160a01b03811681146200010a57600080fd5b919050565b600080604083850312156200012357600080fd5b6200012e83620000f2565b91506200013e60208401620000f2565b90509250929050565b6116d380620001576000396000f3fe608060405234801561001057600080fd5b50600436106102275760003560e01c806366255cda11610130578063a24e0d87116100b8578063e38d7cd61161007c578063e38d7cd6146105cd578063e6b165ed1461060b578063ec2f37bd1461061e578063ed350a5514610627578063f2fde38b1461063257600080fd5b8063a24e0d871461056c578063b6254a9f14610575578063baf5a2361461057e578063d5b9221b14610591578063e1f1c4a7146105c457600080fd5b806388eabf8d116100ff57806388eabf8d146104b95780638da5cb5b146104c2578063965dbc9b146104d357806398eaa4a714610520578063a1b7c8bd1461053357600080fd5b806366255cda14610482578063715018a6146104955780637cfdd9371461049d578063889ccfcf146104a657600080fd5b80633e678bf2116101b35780635b0a8fad116101825780635b0a8fad146104365780635fa84c5a14610440578063629433e614610449578063653f6a991461045c5780636587eda11461046f57600080fd5b80633e678bf2146103b257806340b482a6146103c5578063469ef8a1146103ce5780634e26df031461042d57600080fd5b806320854c6b116101fa57806320854c6b146103035780632630c12f146103165780632821d34c14610341578063318f262a1461034a57806339d1fc821461039f57600080fd5b80630187aea01461022c5780630cf501631461024857806319813ea41461025d5780631b32145c1461029d575b600080fd5b61023560095481565b6040519081526020015b60405180910390f35b61025b610256366004611474565b610645565b005b61027061026b3660046114a9565b6106a7565b604080519687526020870195909552938501929092526060840152608083015260a082015260c00161023f565b6102db6102ab3660046114ef565b60036020819052600091825260409091208054600182015460028301549383015460049093015491939092909185565b604080519586526020860194909452928401919091526060830152608082015260a00161023f565b61025b61031136600461150a565b610822565b600554610329906001600160a01b031681565b6040516001600160a01b03909116815260200161023f565b610235600c5481565b61035d6103583660046114ef565b6109b3565b60405161023f9190600060a082019050825182526020830151602083015260408301516040830152606083015160608301526080830151608083015292915050565b61025b6103ad3660046114ef565b610a3c565b6102356103c0366004611543565b610ab5565b61023560075481565b6103e16103dc366004611543565b610acb565b60405161023f9190600060c082019050825182526020830151602083015260408301516040830152606083015160608301526080830151608083015260a083015160a083015292915050565b610235600e5481565b61023562093a8081565b610235600d5481565b61025b61045736600461156d565b610b6f565b61025b61046a36600461159f565b610c79565b600654610329906001600160a01b031681565b61025b6104903660046114ef565b610cf5565b61025b610d1f565b610235611f4081565b61025b6104b43660046114ef565b610d33565b61023560085481565b6000546001600160a01b0316610329565b6102706104e1366004611543565b60026020818152600093845260408085209091529183529120805460018201549282015460038301546004840154600590940154929493919290919086565b61025b61052e3660046114ef565b610f86565b610235610541366004611543565b6001600160a01b03919091166000908152600260209081526040808320938352929052206001015490565b610235600a5481565b610235600b5481565b61023561058c3660046114a9565b610fb2565b6105b461059f3660046114ef565b60046020526000908152604090205460ff1681565b604051901515815260200161023f565b61023561271081565b6105b46105db366004611543565b6001600160a01b039190911660009081526002602090815260408083209383529290522060010154611f40111590565b61025b6106193660046114ef565b6110c1565b6102356107d081565b610235633b9aca0081565b61025b6106403660046114ef565b6110ea565b61064d611160565b600081116106a25760405162461bcd60e51b815260206004820152601b60248201527f4d756c7469706c696572206d75737420626520706f736974697665000000000060448201526064015b60405180910390fd5b600e55565b6001600160a01b03841660009081526002602081815260408084208785528252808420815160c081018352815481526001820154938101849052938101549184019190915260038101546060840152600481015460808401526005015460a083015290829081908190819061071c8b8b6111ba565b94506107288b8b6112ae565b93506107338861135c565b9250612710610742868b6115e1565b61074c91906115f8565b965083156107865761271061076385610bb86115e1565b61076f89611b586115e1565b610779919061161a565b61078391906115f8565b96505b82156107b057612710610799848261162d565b6107a390896115e1565b6107ad91906115f8565b96505b6000612710600a548b6107c391906115e1565b6107cd91906115f8565b905060006127106009548c6107e291906115e1565b6107ec91906115f8565b9050818910156107fe57819350610812565b8089111561080e57809350610812565b8893505b5050509499939850945094509450565b3360009081526004602052604090205460ff168061084a57506000546001600160a01b031633145b6108875760405162461bcd60e51b815260206004820152600e60248201526d139bdd08185d5d1a1bdc9a5e995960921b6044820152606401610699565b6001600160a01b03841660009081526002602090815260408083208684529091529020600581015462093a80906108be904261162d565b11156108e5576108d162093a804261162d565b600582015560006003820181905560048201555b6003810180549060006108f783611640565b919050555082816004016000828254610910919061161a565b90915550504260028201819055600582015460009161092f919061162d565b9050801561095a5780612710836004015461094a91906115e1565b61095491906115f8565b60018301555b84866001600160a01b03167ff3d963898720bf292f7c54f617aa2c4e570cf4d3a5209174b7ce9d98ca0f35918460010154866040516109a3929190918252602082015260400190565b60405180910390a3505050505050565b6109e56040518060a0016040528060008152602001600081526020016000815260200160008152602001600081525090565b506001600160a01b0316600090815260036020818152604092839020835160a08101855281548152600182015492810192909252600281015493820193909352908201546060820152600490910154608082015290565b610a44611160565b6001600160a01b038116610a935760405162461bcd60e51b8152602060048201526016602482015275496e76616c6964206f7261636c65206164647265737360501b6044820152606401610699565b600580546001600160a01b0319166001600160a01b0392909216919091179055565b6000610ac28360006112ae565b90505b92915050565b610b046040518060c001604052806000815260200160008152602001600081526020016000815260200160008152602001600081525090565b506001600160a01b0382166000908152600260208181526040808420858552825292839020835160c08101855281548152600182015492810192909252918201549281019290925260038101546060830152600481015460808301526005015460a082015292915050565b610b77611160565b80821015610bc75760405162461bcd60e51b815260206004820152601860248201527f496e76616c6964206d756c7469706c6965722072616e676500000000000000006044820152606401610699565b82841015610c175760405162461bcd60e51b815260206004820152601f60248201527f496e76616c69642064656d616e64206d756c7469706c6965722072616e6765006044820152606401610699565b600784905560088390556009829055600a8190556040805185815260208101859052908101839052606081018290527fcadce1a9ee9a17464907a61e783e74619f249708fba10b3df5688210d98631a49060800160405180910390a150505050565b610c81611160565b6103e8831115610ca35760405162461bcd60e51b815260040161069990611659565b6103e8821115610cc55760405162461bcd60e51b815260040161069990611659565b6103e8811115610ce75760405162461bcd60e51b815260040161069990611659565b600b92909255600c55600d55565b610cfd611160565b600680546001600160a01b0319166001600160a01b0392909216919091179055565b610d27611160565b610d316000611424565b565b3360009081526004602052604090205460ff1680610d5b57506000546001600160a01b031633145b610d985760405162461bcd60e51b815260206004820152600e60248201526d139bdd08185d5d1a1bdc9a5e995960921b6044820152606401610699565b6005546040516330f8853f60e21b81526001600160a01b0383811660048301529091169063c3e214fc90602401602060405180830381865afa925050508015610dfe575060408051601f3d908101601f19168201909252610dfb91810190611684565b60015b15610f835760055460405163b2a09dbf60e01b81526001600160a01b0384811660048301529091169063b2a09dbf90602401602060405180830381865afa925050508015610e69575060408051601f3d908101601f19168201909252610e6691810190611684565b60015b15610f8157600554604051631db593e560e01b81526001600160a01b03858116600483015290911690631db593e590602401602060405180830381865afa925050508015610ed4575060408051601f3d908101601f19168201909252610ed191810190611684565b60015b15610f7f576040805160a08101825284815260208082018581528284018581526000606080860182815242608088019081526001600160a01b038d168085526003808952948a90209851895595516001890155935160028801555191860191909155905160049094019390935583518781529182018690529281018490527ff1cc68d0c268aff9282382a029053500ca8d7269d038d5afda2d175bd5cdf892910160405180910390a2505b505b505b50565b610f8e611160565b6001600160a01b03166000908152600460205260409020805460ff19166001179055565b60008281610fc087876111ba565b9050612710610fcf82846115e1565b610fd991906115f8565b91506000610fe788886112ae565b9050801561102157612710610ffe82610bb86115e1565b61100a85611b586115e1565b611014919061161a565b61101e91906115f8565b92505b600061102c8661135c565b9050801561105857612710611041828261162d565b61104b90866115e1565b61105591906115f8565b93505b6000612710600a548961106b91906115e1565b61107591906115f8565b905060006127106009548a61108a91906115e1565b61109491906115f8565b9050818610156110a6578195506110b2565b808611156110b2578095505b50939998505050505050505050565b6110c9611160565b6001600160a01b03166000908152600460205260409020805460ff19169055565b6110f2611160565b6001600160a01b0381166111575760405162461bcd60e51b815260206004820152602660248201527f4f776e61626c653a206e6577206f776e657220697320746865207a65726f206160448201526564647265737360d01b6064820152608401610699565b610f8381611424565b6000546001600160a01b03163314610d315760405162461bcd60e51b815260206004820181905260248201527f4f776e61626c653a2063616c6c6572206973206e6f7420746865206f776e65726044820152606401610699565b6001600160a01b03821660009081526002602081815260408084208585528252808420815160c081018352815481526001820154938101849052938101549184019190915260038101546060840152600481015460808401526005015460a0830152611f401161122e575050600754610ac5565b6107d0816020015111611245575050600854610ac5565b60006112556107d0611f4061162d565b905060006107d0836020015161126b919061162d565b9050600060085460075461127f919061162d565b90508261128c83836115e1565b61129691906115f8565b6008546112a3919061161a565b945050505050610ac5565b6001600160a01b0382166000908152600360208181526040808420815160a0810183528154815260018201549381019390935260028101549183018290529283015460608301526004909201546080820152908290611311578160200151611317565b81604001515b90508060000361132c57600092505050610ac5565b61133c633b9aca00610e106115e1565b600e5461134990836115e1565b61135391906115f8565b95945050505050565b6006546000906001600160a01b031661137757506000919050565b600654604051631d699f5760e21b81526001600160a01b038481166004830152909116906375a67d5c90602401602060405180830381865afa9250505080156113dd575060408051601f3d908101601f191682019092526113da91810190611684565b60015b1561141c5761032081106113f5575050600b54919050565b6101f48110611408575050600c54919050565b6064811061141a575050600d54919050565b505b506000919050565b600080546001600160a01b038381166001600160a01b0319831681178455604051919092169283917f8be0079c531659141344cd1fd0a4f28419497f9722a3daafe3b4186f6b6457e09190a35050565b60006020828403121561148657600080fd5b5035919050565b80356001600160a01b03811681146114a457600080fd5b919050565b600080600080608085870312156114bf57600080fd5b6114c88561148d565b935060208501359250604085013591506114e46060860161148d565b905092959194509250565b60006020828403121561150157600080fd5b610ac28261148d565b6000806000806080858703121561152057600080fd5b6115298561148d565b966020860135965060408601359560600135945092505050565b6000806040838503121561155657600080fd5b61155f8361148d565b946020939093013593505050565b6000806000806080858703121561158357600080fd5b5050823594602084013594506040840135936060013592509050565b6000806000606084860312156115b457600080fd5b505081359360208301359350604090920135919050565b634e487b7160e01b600052601160045260246000fd5b8082028115828204841417610ac557610ac56115cb565b60008261161557634e487b7160e01b600052601260045260246000fd5b500490565b80820180821115610ac557610ac56115cb565b81810381811115610ac557610ac56115cb565b600060018201611652576116526115cb565b5060010190565b602080825260119082015270088d2e6c6deeadce840e8dede40d0d2ced607b1b604082015260600190565b60006020828403121561169657600080fd5b505191905056fea26469706673582212206de06db6383aabb672ca5a2e67302ed62b71488c165fe075222c62efb01523c164736f6c63430008130033","opcodes":"PUSH1 0x80 PUSH1 0x40 MSTORE PUSH2 0x3A98 PUSH1 0x7 SSTORE PUSH2 0x1D4C PUSH1 0x8 SSTORE PUSH2 0x4E20 PUSH1 0x9 SSTORE PUSH2 0x1388 PUSH1 0xA SSTORE PUSH2 0x1F4 PUSH1 0xB SSTORE PUSH1 0xFA PUSH1 0xC SSTORE PUSH1 0x64 PUSH1 0xD SSTORE PUSH1 0xB PUSH1 0xE SSTORE CALLVALUE DUP1 ISZERO PUSH3 0x3E JUMPI PUSH1 0x0 DUP1 REVERT JUMPDEST POP PUSH1 0x40 MLOAD PUSH3 0x182A CODESIZE SUB DUP1 PUSH3 0x182A DUP4 CODECOPY DUP2 ADD PUSH1 0x40 DUP2 SWAP1 MSTORE PUSH3 0x61 SWAP2 PUSH3 0x10F JUMP JUMPDEST PUSH3 0x6C CALLER PUSH3 0xA2 JUMP JUMPDEST PUSH1 0x1 DUP1 SSTORE PUSH1 0x5 DUP1 SLOAD PUSH1 0x1 PUSH1 0x1 PUSH1 0xA0 SHL SUB SWAP4 DUP5 AND PUSH1 0x1 PUSH1 0x1 PUSH1 0xA0 SHL SUB NOT SWAP2 DUP3 AND OR SWAP1 SWAP2 SSTORE PUSH1 0x6 DUP1 SLOAD SWAP3 SWAP1 SWAP4 AND SWAP2 AND OR SWAP1 SSTORE PUSH3 0x147 JUMP JUMPDEST PUSH1 0x0 DUP1 SLOAD PUSH1 0x1 PUSH1 0x1 PUSH1 0xA0 SHL SUB DUP4 DUP2 AND PUSH1 0x1 PUSH1 0x1 PUSH1 0xA0 SHL SUB NOT DUP4 AND DUP2 OR DUP5 SSTORE PUSH1 0x40 MLOAD SWAP2 SWAP1 SWAP3 AND SWAP3 DUP4 SWAP2 PUSH32 0x8BE0079C531659141344CD1FD0A4F28419497F9722A3DAAFE3B4186F6B6457E0 SWAP2 SWAP1 LOG3 POP POP JUMP JUMPDEST DUP1 MLOAD PUSH1 0x1 PUSH1 0x1 PUSH1 0xA0 SHL SUB DUP2 AND DUP2 EQ PUSH3 0x10A JUMPI PUSH1 0x0 DUP1 REVERT JUMPDEST SWAP2 SWAP1 POP JUMP JUMPDEST PUSH1 0x0 DUP1 PUSH1 0x40 DUP4 DUP6 SUB SLT ISZERO PUSH3 0x123 JUMPI PUSH1 0x0 DUP1 REVERT JUMPDEST PUSH3 0x12E DUP4 PUSH3 0xF2 JUMP JUMPDEST SWAP2 POP PUSH3 0x13E PUSH1 0x20 DUP5 ADD PUSH3 0xF2 JUMP JUMPDEST SWAP1 POP SWAP3 POP SWAP3 SWAP1 POP JUMP JUMPDEST PUSH2 0x16D3 DUP1 PUSH3 0x157 PUSH1 0x0 CODECOPY PUSH1 0x0 RETURN INVALID PUSH1 0x80 PUSH1 0x40 MSTORE CALLVALUE DUP1 ISZERO PUSH2 0x10 JUMPI PUSH1 0x0 DUP1 REVERT JUMPDEST POP PUSH1 0x4 CALLDATASIZE LT PUSH2 0x227 JUMPI PUSH1 0x0 CALLDATALOAD PUSH1 0xE0 SHR DUP1 PUSH4 0x66255CDA GT PUSH2 0x130 JUMPI DUP1 PUSH4 0xA24E0D87 GT PUSH2 0xB8 JUMPI DUP1 PUSH4 0xE38D7CD6 GT PUSH2 0x7C JUMPI DUP1 PUSH4 0xE38D7CD6 EQ PUSH2 0x5CD JUMPI DUP1 PUSH4 0xE6B165ED EQ PUSH2 0x60B JUMPI DUP1 PUSH4 0xEC2F37BD EQ PUSH2 0x61E JUMPI DUP1 PUSH4 0xED350A55 EQ PUSH2 0x627 JUMPI DUP1 PUSH4 0xF2FDE38B EQ PUSH2 0x632 JUMPI PUSH1 0x0 DUP1 REVERT JUMPDEST DUP1 PUSH4 0xA24E0D87 EQ PUSH2 0x56C JUMPI DUP1 PUSH4 0xB6254A9F EQ PUSH2 0x575 JUMPI DUP1 PUSH4 0xBAF5A236 EQ PUSH2 0x57E JUMPI DUP1 PUSH4 0xD5B9221B EQ PUSH2 0x591 JUMPI DUP1 PUSH4 0xE1F1C4A7 EQ PUSH2 0x5C4 JUMPI PUSH1 0x0 DUP1 REVERT JUMPDEST DUP1 PUSH4 0x88EABF8D GT PUSH2 0xFF JUMPI DUP1 PUSH4 0x88EABF8D EQ PUSH2 0x4B9 JUMPI DUP1 PUSH4 0x8DA5CB5B EQ PUSH2 0x4C2 JUMPI DUP1 PUSH4 0x965DBC9B EQ PUSH2 0x4D3 JUMPI DUP1 PUSH4 0x98EAA4A7 EQ PUSH2 0x520 JUMPI DUP1 PUSH4 0xA1B7C8BD EQ PUSH2 0x533 JUMPI PUSH1 0x0 DUP1 REVERT JUMPDEST DUP1 PUSH4 0x66255CDA EQ PUSH2 0x482 JUMPI DUP1 PUSH4 0x715018A6 EQ PUSH2 0x495 JUMPI DUP1 PUSH4 0x7CFDD937 EQ PUSH2 0x49D JUMPI DUP1 PUSH4 0x889CCFCF EQ PUSH2 0x4A6 JUMPI PUSH1 0x0 DUP1 REVERT JUMPDEST DUP1 PUSH4 0x3E678BF2 GT PUSH2 0x1B3 JUMPI DUP1 PUSH4 0x5B0A8FAD GT PUSH2 0x182 JUMPI DUP1 PUSH4 0x5B0A8FAD EQ PUSH2 0x436 JUMPI DUP1 PUSH4 0x5FA84C5A EQ PUSH2 0x440 JUMPI DUP1 PUSH4 0x629433E6 EQ PUSH2 0x449 JUMPI DUP1 PUSH4 0x653F6A99 EQ PUSH2 0x45C JUMPI DUP1 PUSH4 0x6587EDA1 EQ PUSH2 0x46F JUMPI PUSH1 0x0 DUP1 REVERT JUMPDEST DUP1 PUSH4 0x3E678BF2 EQ PUSH2 0x3B2 JUMPI DUP1 PUSH4 0x40B482A6 EQ PUSH2 0x3C5 JUMPI DUP1 PUSH4 0x469EF8A1 EQ PUSH2 0x3CE JUMPI DUP1 PUSH4 0x4E26DF03 EQ PUSH2 0x42D JUMPI PUSH1 0x0 DUP1 REVERT JUMPDEST DUP1 PUSH4 0x20854C6B GT PUSH2 0x1FA JUMPI DUP1 PUSH4 0x20854C6B EQ PUSH2 0x303 JUMPI DUP1 PUSH4 0x2630C12F EQ PUSH2 0x316 JUMPI DUP1 PUSH4 0x2821D34C EQ PUSH2 0x341 JUMPI DUP1 PUSH4 0x318F262A EQ PUSH2 0x34A JUMPI DUP1 PUSH4 0x39D1FC82 EQ PUSH2 0x39F JUMPI PUSH1 0x0 DUP1 REVERT JUMPDEST DUP1 PUSH4 0x187AEA0 EQ PUSH2 0x22C JUMPI DUP1 PUSH4 0xCF50163 EQ PUSH2 0x248 JUMPI DUP1 PUSH4 0x19813EA4 EQ PUSH2 0x25D JUMPI DUP1 PUSH4 0x1B32145C EQ PUSH2 0x29D JUMPI JUMPDEST PUSH1 0x0 DUP1 REVERT JUMPDEST PUSH2 0x235 PUSH1 0x9 SLOAD DUP2 JUMP JUMPDEST PUSH1 0x40 MLOAD SWAP1 DUP2 MSTORE PUSH1 0x20 ADD JUMPDEST PUSH1 0x40 MLOAD DUP1 SWAP2 SUB SWAP1 RETURN JUMPDEST PUSH2 0x25B PUSH2 0x256 CALLDATASIZE PUSH1 0x4 PUSH2 0x1474 JUMP JUMPDEST PUSH2 0x645 JUMP JUMPDEST STOP JUMPDEST PUSH2 0x270 PUSH2 0x26B CALLDATASIZE PUSH1 0x4 PUSH2 0x14A9 JUMP JUMPDEST PUSH2 0x6A7 JUMP JUMPDEST PUSH1 0x40 DUP1 MLOAD SWAP7 DUP8 MSTORE PUSH1 0x20 DUP8 ADD SWAP6 SWAP1 SWAP6 MSTORE SWAP4 DUP6 ADD SWAP3 SWAP1 SWAP3 MSTORE PUSH1 0x60 DUP5 ADD MSTORE PUSH1 0x80 DUP4 ADD MSTORE PUSH1 0xA0 DUP3 ADD MSTORE PUSH1 0xC0 ADD PUSH2 0x23F JUMP JUMPDEST PUSH2 0x2DB PUSH2 0x2AB CALLDATASIZE PUSH1 0x4 PUSH2 0x14EF JUMP JUMPDEST PUSH1 0x3 PUSH1 0x20 DUP2 SWAP1 MSTORE PUSH1 0x0 SWAP2 DUP3 MSTORE PUSH1 0x40 SWAP1 SWAP2 KECCAK256 DUP1 SLOAD PUSH1 0x1 DUP3 ADD SLOAD PUSH1 0x2 DUP4 ADD SLOAD SWAP4 DUP4 ADD SLOAD PUSH1 0x4 SWAP1 SWAP4 ADD SLOAD SWAP2 SWAP4 SWAP1 SWAP3 SWAP1 SWAP2 DUP6 JUMP JUMPDEST PUSH1 0x40 DUP1 MLOAD SWAP6 DUP7 MSTORE PUSH1 0x20 DUP7 ADD SWAP5 SWAP1 SWAP5 MSTORE SWAP3 DUP5 ADD SWAP2 SWAP1 SWAP2 MSTORE PUSH1 0x60 DUP4 ADD MSTORE PUSH1 0x80 DUP3 ADD MSTORE PUSH1 0xA0 ADD PUSH2 0x23F JUMP JUMPDEST PUSH2 0x25B PUSH2 0x311 CALLDATASIZE PUSH1 0x4 PUSH2 0x150A JUMP JUMPDEST PUSH2 0x822 JUMP JUMPDEST PUSH1 0x5 SLOAD PUSH2 0x329 SWAP1 PUSH1 0x1 PUSH1 0x1 PUSH1 0xA0 SHL SUB AND DUP2 JUMP JUMPDEST PUSH1 0x40 MLOAD PUSH1 0x1 PUSH1 0x1 PUSH1 0xA0 SHL SUB SWAP1 SWAP2 AND DUP2 MSTORE PUSH1 0x20 ADD PUSH2 0x23F JUMP JUMPDEST PUSH2 0x235 PUSH1 0xC SLOAD DUP2 JUMP JUMPDEST PUSH2 0x35D PUSH2 0x358 CALLDATASIZE PUSH1 0x4 PUSH2 0x14EF JUMP JUMPDEST PUSH2 0x9B3 JUMP JUMPDEST PUSH1 0x40 MLOAD PUSH2 0x23F SWAP2 SWAP1 PUSH1 0x0 PUSH1 0xA0 DUP3 ADD SWAP1 POP DUP3 MLOAD DUP3 MSTORE PUSH1 0x20 DUP4 ADD MLOAD PUSH1 0x20 DUP4 ADD MSTORE PUSH1 0x40 DUP4 ADD MLOAD PUSH1 0x40 DUP4 ADD MSTORE PUSH1 0x60 DUP4 ADD MLOAD PUSH1 0x60 DUP4 ADD MSTORE PUSH1 0x80 DUP4 ADD MLOAD PUSH1 0x80 DUP4 ADD MSTORE SWAP3 SWAP2 POP POP JUMP JUMPDEST PUSH2 0x25B PUSH2 0x3AD CALLDATASIZE PUSH1 0x4 PUSH2 0x14EF JUMP JUMPDEST PUSH2 0xA3C JUMP JUMPDEST PUSH2 0x235 PUSH2 0x3C0 CALLDATASIZE PUSH1 0x4 PUSH2 0x1543 JUMP JUMPDEST PUSH2 0xAB5 JUMP JUMPDEST PUSH2 0x235 PUSH1 0x7 SLOAD DUP2 JUMP JUMPDEST PUSH2 0x3E1 PUSH2 0x3DC CALLDATASIZE PUSH1 0x4 PUSH2 0x1543 JUMP JUMPDEST PUSH2 0xACB JUMP JUMPDEST PUSH1 0x40 MLOAD PUSH2 0x23F SWAP2 SWAP1 PUSH1 0x0 PUSH1 0xC0 DUP3 ADD SWAP1 POP DUP3 MLOAD DUP3 MSTORE PUSH1 0x20 DUP4 ADD MLOAD PUSH1 0x20 DUP4 ADD MSTORE PUSH1 0x40 DUP4 ADD MLOAD PUSH1 0x40 DUP4 ADD MSTORE PUSH1 0x60 DUP4 ADD MLOAD PUSH1 0x60 DUP4 ADD MSTORE PUSH1 0x80 DUP4 ADD MLOAD PUSH1 0x80 DUP4 ADD MSTORE PUSH1 0xA0 DUP4 ADD MLOAD PUSH1 0xA0 DUP4 ADD MSTORE SWAP3 SWAP2 POP POP JUMP JUMPDEST PUSH2 0x235 PUSH1 0xE SLOAD DUP2 JUMP JUMPDEST PUSH2 0x235 PUSH3 0x93A80 DUP2 JUMP JUMPDEST PUSH2 0x235 PUSH1 0xD SLOAD DUP2 JUMP JUMPDEST PUSH2 0x25B PUSH2 0x457 CALLDATASIZE PUSH1 0x4 PUSH2 0x156D JUMP JUMPDEST PUSH2 0xB6F JUMP JUMPDEST PUSH2 0x25B PUSH2 0x46A CALLDATASIZE PUSH1 0x4 PUSH2 0x159F JUMP JUMPDEST PUSH2 0xC79 JUMP JUMPDEST PUSH1 0x6 SLOAD PUSH2 0x329 SWAP1 PUSH1 0x1 PUSH1 0x1 PUSH1 0xA0 SHL SUB AND DUP2 JUMP JUMPDEST PUSH2 0x25B PUSH2 0x490 CALLDATASIZE PUSH1 0x4 PUSH2 0x14EF JUMP JUMPDEST PUSH2 0xCF5 JUMP JUMPDEST PUSH2 0x25B PUSH2 0xD1F JUMP JUMPDEST PUSH2 0x235 PUSH2 0x1F40 DUP2 JUMP JUMPDEST PUSH2 0x25B PUSH2 0x4B4 CALLDATASIZE PUSH1 0x4 PUSH2 0x14EF JUMP JUMPDEST PUSH2 0xD33 JUMP JUMPDEST PUSH2 0x235 PUSH1 0x8 SLOAD DUP2 JUMP JUMPDEST PUSH1 0x0 SLOAD PUSH1 0x1 PUSH1 0x1 PUSH1 0xA0 SHL SUB AND PUSH2 0x329 JUMP JUMPDEST PUSH2 0x270 PUSH2 0x4E1 CALLDATASIZE PUSH1 0x4 PUSH2 0x1543 JUMP JUMPDEST PUSH1 0x2 PUSH1 0x20 DUP2 DUP2 MSTORE PUSH1 0x0 SWAP4 DUP5 MSTORE PUSH1 0x40 DUP1 DUP6 KECCAK256 SWAP1 SWAP2 MSTORE SWAP2 DUP4 MSTORE SWAP2 KECCAK256 DUP1 SLOAD PUSH1 0x1 DUP3 ADD SLOAD SWAP3 DUP3 ADD SLOAD PUSH1 0x3 DUP4 ADD SLOAD PUSH1 0x4 DUP5 ADD SLOAD PUSH1 0x5 SWAP1 SWAP5 ADD SLOAD SWAP3 SWAP5 SWAP4 SWAP2 SWAP3 SWAP1 SWAP2 SWAP1 DUP7 JUMP JUMPDEST PUSH2 0x25B PUSH2 0x52E CALLDATASIZE PUSH1 0x4 PUSH2 0x14EF JUMP JUMPDEST PUSH2 0xF86 JUMP JUMPDEST PUSH2 0x235 PUSH2 0x541 CALLDATASIZE PUSH1 0x4 PUSH2 0x1543 JUMP JUMPDEST PUSH1 0x1 PUSH1 0x1 PUSH1 0xA0 SHL SUB SWAP2 SWAP1 SWAP2 AND PUSH1 0x0 SWAP1 DUP2 MSTORE PUSH1 0x2 PUSH1 0x20 SWAP1 DUP2 MSTORE PUSH1 0x40 DUP1 DUP4 KECCAK256 SWAP4 DUP4 MSTORE SWAP3 SWAP1 MSTORE KECCAK256 PUSH1 0x1 ADD SLOAD SWAP1 JUMP JUMPDEST PUSH2 0x235 PUSH1 0xA SLOAD DUP2 JUMP JUMPDEST PUSH2 0x235 PUSH1 0xB SLOAD DUP2 JUMP JUMPDEST PUSH2 0x235 PUSH2 0x58C CALLDATASIZE PUSH1 0x4 PUSH2 0x14A9 JUMP JUMPDEST PUSH2 0xFB2 JUMP JUMPDEST PUSH2 0x5B4 PUSH2 0x59F CALLDATASIZE PUSH1 0x4 PUSH2 0x14EF JUMP JUMPDEST PUSH1 0x4 PUSH1 0x20 MSTORE PUSH1 0x0 SWAP1 DUP2 MSTORE PUSH1 0x40 SWAP1 KECCAK256 SLOAD PUSH1 0xFF AND DUP2 JUMP JUMPDEST PUSH1 0x40 MLOAD SWAP1 ISZERO ISZERO DUP2 MSTORE PUSH1 0x20 ADD PUSH2 0x23F JUMP JUMPDEST PUSH2 0x235 PUSH2 0x2710 DUP2 JUMP JUMPDEST PUSH2 0x5B4 PUSH2 0x5DB CALLDATASIZE PUSH1 0x4 PUSH2 0x1543 JUMP JUMPDEST PUSH1 0x1 PUSH1 0x1 PUSH1 0xA0 SHL SUB SWAP2 SWAP1 SWAP2 AND PUSH1 0x0 SWAP1 DUP2 MSTORE PUSH1 0x2 PUSH1 0x20 SWAP1 DUP2 MSTORE PUSH1 0x40 DUP1 DUP4 KECCAK256 SWAP4 DUP4 MSTORE SWAP3 SWAP1 MSTORE KECCAK256 PUSH1 0x1 ADD SLOAD PUSH2 0x1F40 GT ISZERO SWAP1 JUMP JUMPDEST PUSH2 0x25B PUSH2 0x619 CALLDATASIZE PUSH1 0x4 PUSH2 0x14EF JUMP JUMPDEST PUSH2 0x10C1 JUMP JUMPDEST PUSH2 0x235 PUSH2 0x7D0 DUP2 JUMP JUMPDEST PUSH2 0x235 PUSH4 0x3B9ACA00 DUP2 JUMP JUMPDEST PUSH2 0x25B PUSH2 0x640 CALLDATASIZE PUSH1 0x4 PUSH2 0x14EF JUMP JUMPDEST PUSH2 0x10EA JUMP JUMPDEST PUSH2 0x64D PUSH2 0x1160 JUMP JUMPDEST PUSH1 0x0 DUP2 GT PUSH2 0x6A2 JUMPI PUSH1 0x40 MLOAD PUSH3 0x461BCD PUSH1 0xE5 SHL DUP2 MSTORE PUSH1 0x20 PUSH1 0x4 DUP3 ADD MSTORE PUSH1 0x1B PUSH1 0x24 DUP3 ADD MSTORE PUSH32 0x4D756C7469706C696572206D75737420626520706F7369746976650000000000 PUSH1 0x44 DUP3 ADD MSTORE PUSH1 0x64 ADD JUMPDEST PUSH1 0x40 MLOAD DUP1 SWAP2 SUB SWAP1 REVERT JUMPDEST PUSH1 0xE SSTORE JUMP JUMPDEST PUSH1 0x1 PUSH1 0x1 PUSH1 0xA0 SHL SUB DUP5 AND PUSH1 0x0 SWAP1 DUP2 MSTORE PUSH1 0x2 PUSH1 0x20 DUP2 DUP2 MSTORE PUSH1 0x40 DUP1 DUP5 KECCAK256 DUP8 DUP6 MSTORE DUP3 MSTORE DUP1 DUP5 KECCAK256 DUP2 MLOAD PUSH1 0xC0 DUP2 ADD DUP4 MSTORE DUP2 SLOAD DUP2 MSTORE PUSH1 0x1 DUP3 ADD SLOAD SWAP4 DUP2 ADD DUP5 SWAP1 MSTORE SWAP4 DUP2 ADD SLOAD SWAP2 DUP5 ADD SWAP2 SWAP1 SWAP2 MSTORE PUSH1 0x3 DUP2 ADD SLOAD PUSH1 0x60 DUP5 ADD MSTORE PUSH1 0x4 DUP2 ADD SLOAD PUSH1 0x80 DUP5 ADD MSTORE PUSH1 0x5 ADD SLOAD PUSH1 0xA0 DUP4 ADD MSTORE SWAP1 DUP3 SWAP1 DUP2 SWAP1 DUP2 SWAP1 DUP2 SWAP1 PUSH2 0x71C DUP12 DUP12 PUSH2 0x11BA JUMP JUMPDEST SWAP5 POP PUSH2 0x728 DUP12 DUP12 PUSH2 0x12AE JUMP JUMPDEST SWAP4 POP PUSH2 0x733 DUP9 PUSH2 0x135C JUMP JUMPDEST SWAP3 POP PUSH2 0x2710 PUSH2 0x742 DUP7 DUP12 PUSH2 0x15E1 JUMP JUMPDEST PUSH2 0x74C SWAP2 SWAP1 PUSH2 0x15F8 JUMP JUMPDEST SWAP7 POP DUP4 ISZERO PUSH2 0x786 JUMPI PUSH2 0x2710 PUSH2 0x763 DUP6 PUSH2 0xBB8 PUSH2 0x15E1 JUMP JUMPDEST PUSH2 0x76F DUP10 PUSH2 0x1B58 PUSH2 0x15E1 JUMP JUMPDEST PUSH2 0x779 SWAP2 SWAP1 PUSH2 0x161A JUMP JUMPDEST PUSH2 0x783 SWAP2 SWAP1 PUSH2 0x15F8 JUMP JUMPDEST SWAP7 POP JUMPDEST DUP3 ISZERO PUSH2 0x7B0 JUMPI PUSH2 0x2710 PUSH2 0x799 DUP5 DUP3 PUSH2 0x162D JUMP JUMPDEST PUSH2 0x7A3 SWAP1 DUP10 PUSH2 0x15E1 JUMP JUMPDEST PUSH2 0x7AD SWAP2 SWAP1 PUSH2 0x15F8 JUMP JUMPDEST SWAP7 POP JUMPDEST PUSH1 0x0 PUSH2 0x2710 PUSH1 0xA SLOAD DUP12 PUSH2 0x7C3 SWAP2 SWAP1 PUSH2 0x15E1 JUMP JUMPDEST PUSH2 0x7CD SWAP2 SWAP1 PUSH2 0x15F8 JUMP JUMPDEST SWAP1 POP PUSH1 0x0 PUSH2 0x2710 PUSH1 0x9 SLOAD DUP13 PUSH2 0x7E2 SWAP2 SWAP1 PUSH2 0x15E1 JUMP JUMPDEST PUSH2 0x7EC SWAP2 SWAP1 PUSH2 0x15F8 JUMP JUMPDEST SWAP1 POP DUP2 DUP10 LT ISZERO PUSH2 0x7FE JUMPI DUP2 SWAP4 POP PUSH2 0x812 JUMP JUMPDEST DUP1 DUP10 GT ISZERO PUSH2 0x80E JUMPI DUP1 SWAP4 POP PUSH2 0x812 JUMP JUMPDEST DUP9 SWAP4 POP JUMPDEST POP POP POP SWAP5 SWAP10 SWAP4 SWAP9 POP SWAP5 POP SWAP5 POP SWAP5 POP JUMP JUMPDEST CALLER PUSH1 0x0 SWAP1 DUP2 MSTORE PUSH1 0x4 PUSH1 0x20 MSTORE PUSH1 0x40 SWAP1 KECCAK256 SLOAD PUSH1 0xFF AND DUP1 PUSH2 0x84A JUMPI POP PUSH1 0x0 SLOAD PUSH1 0x1 PUSH1 0x1 PUSH1 0xA0 SHL SUB AND CALLER EQ JUMPDEST PUSH2 0x887 JUMPI PUSH1 0x40 MLOAD PUSH3 0x461BCD PUSH1 0xE5 SHL DUP2 MSTORE PUSH1 0x20 PUSH1 0x4 DUP3 ADD MSTORE PUSH1 0xE PUSH1 0x24 DUP3 ADD MSTORE PUSH14 0x139BDD08185D5D1A1BDC9A5E9959 PUSH1 0x92 SHL PUSH1 0x44 DUP3 ADD MSTORE PUSH1 0x64 ADD PUSH2 0x699 JUMP JUMPDEST PUSH1 0x1 PUSH1 0x1 PUSH1 0xA0 SHL SUB DUP5 AND PUSH1 0x0 SWAP1 DUP2 MSTORE PUSH1 0x2 PUSH1 0x20 SWAP1 DUP2 MSTORE PUSH1 0x40 DUP1 DUP4 KECCAK256 DUP7 DUP5 MSTORE SWAP1 SWAP2 MSTORE SWAP1 KECCAK256 PUSH1 0x5 DUP2 ADD SLOAD PUSH3 0x93A80 SWAP1 PUSH2 0x8BE SWAP1 TIMESTAMP PUSH2 0x162D JUMP JUMPDEST GT ISZERO PUSH2 0x8E5 JUMPI PUSH2 0x8D1 PUSH3 0x93A80 TIMESTAMP PUSH2 0x162D JUMP JUMPDEST PUSH1 0x5 DUP3 ADD SSTORE PUSH1 0x0 PUSH1 0x3 DUP3 ADD DUP2 SWAP1 SSTORE PUSH1 0x4 DUP3 ADD SSTORE JUMPDEST PUSH1 0x3 DUP2 ADD DUP1 SLOAD SWAP1 PUSH1 0x0 PUSH2 0x8F7 DUP4 PUSH2 0x1640 JUMP JUMPDEST SWAP2 SWAP1 POP SSTORE POP DUP3 DUP2 PUSH1 0x4 ADD PUSH1 0x0 DUP3 DUP3 SLOAD PUSH2 0x910 SWAP2 SWAP1 PUSH2 0x161A JUMP JUMPDEST SWAP1 SWAP2 SSTORE POP POP TIMESTAMP PUSH1 0x2 DUP3 ADD DUP2 SWAP1 SSTORE PUSH1 0x5 DUP3 ADD SLOAD PUSH1 0x0 SWAP2 PUSH2 0x92F SWAP2 SWAP1 PUSH2 0x162D JUMP JUMPDEST SWAP1 POP DUP1 ISZERO PUSH2 0x95A JUMPI DUP1 PUSH2 0x2710 DUP4 PUSH1 0x4 ADD SLOAD PUSH2 0x94A SWAP2 SWAP1 PUSH2 0x15E1 JUMP JUMPDEST PUSH2 0x954 SWAP2 SWAP1 PUSH2 0x15F8 JUMP JUMPDEST PUSH1 0x1 DUP4 ADD SSTORE JUMPDEST DUP5 DUP7 PUSH1 0x1 PUSH1 0x1 PUSH1 0xA0 SHL SUB AND PUSH32 0xF3D963898720BF292F7C54F617AA2C4E570CF4D3A5209174B7CE9D98CA0F3591 DUP5 PUSH1 0x1 ADD SLOAD DUP7 PUSH1 0x40 MLOAD PUSH2 0x9A3 SWAP3 SWAP2 SWAP1 SWAP2 DUP3 MSTORE PUSH1 0x20 DUP3 ADD MSTORE PUSH1 0x40 ADD SWAP1 JUMP JUMPDEST PUSH1 0x40 MLOAD DUP1 SWAP2 SUB SWAP1 LOG3 POP POP POP POP POP POP JUMP JUMPDEST PUSH2 0x9E5 PUSH1 0x40 MLOAD DUP1 PUSH1 0xA0 ADD PUSH1 0x40 MSTORE DUP1 PUSH1 0x0 DUP2 MSTORE PUSH1 0x20 ADD PUSH1 0x0 DUP2 MSTORE PUSH1 0x20 ADD PUSH1 0x0 DUP2 MSTORE PUSH1 0x20 ADD PUSH1 0x0 DUP2 MSTORE PUSH1 0x20 ADD PUSH1 0x0 DUP2 MSTORE POP SWAP1 JUMP JUMPDEST POP PUSH1 0x1 PUSH1 0x1 PUSH1 0xA0 SHL SUB AND PUSH1 0x0 SWAP1 DUP2 MSTORE PUSH1 0x3 PUSH1 0x20 DUP2 DUP2 MSTORE PUSH1 0x40 SWAP3 DUP4 SWAP1 KECCAK256 DUP4 MLOAD PUSH1 0xA0 DUP2 ADD DUP6 MSTORE DUP2 SLOAD DUP2 MSTORE PUSH1 0x1 DUP3 ADD SLOAD SWAP3 DUP2 ADD SWAP3 SWAP1 SWAP3 MSTORE PUSH1 0x2 DUP2 ADD SLOAD SWAP4 DUP3 ADD SWAP4 SWAP1 SWAP4 MSTORE SWAP1 DUP3 ADD SLOAD PUSH1 0x60 DUP3 ADD MSTORE PUSH1 0x4 SWAP1 SWAP2 ADD SLOAD PUSH1 0x80 DUP3 ADD MSTORE SWAP1 JUMP JUMPDEST PUSH2 0xA44 PUSH2 0x1160 JUMP JUMPDEST PUSH1 0x1 PUSH1 0x1 PUSH1 0xA0 SHL SUB DUP2 AND PUSH2 0xA93 JUMPI PUSH1 0x40 MLOAD PUSH3 0x461BCD PUSH1 0xE5 SHL DUP2 MSTORE PUSH1 0x20 PUSH1 0x4 DUP3 ADD MSTORE PUSH1 0x16 PUSH1 0x24 DUP3 ADD MSTORE PUSH22 0x496E76616C6964206F7261636C652061646472657373 PUSH1 0x50 SHL PUSH1 0x44 DUP3 ADD MSTORE PUSH1 0x64 ADD PUSH2 0x699 JUMP JUMPDEST PUSH1 0x5 DUP1 SLOAD PUSH1 0x1 PUSH1 0x1 PUSH1 0xA0 SHL SUB NOT AND PUSH1 0x1 PUSH1 0x1 PUSH1 0xA0 SHL SUB SWAP3 SWAP1 SWAP3 AND SWAP2 SWAP1 SWAP2 OR SWAP1 SSTORE JUMP JUMPDEST PUSH1 0x0 PUSH2 0xAC2 DUP4 PUSH1 0x0 PUSH2 0x12AE JUMP JUMPDEST SWAP1 POP JUMPDEST SWAP3 SWAP2 POP POP JUMP JUMPDEST PUSH2 0xB04 PUSH1 0x40 MLOAD DUP1 PUSH1 0xC0 ADD PUSH1 0x40 MSTORE DUP1 PUSH1 0x0 DUP2 MSTORE PUSH1 0x20 ADD PUSH1 0x0 DUP2 MSTORE PUSH1 0x20 ADD PUSH1 0x0 DUP2 MSTORE PUSH1 0x20 ADD PUSH1 0x0 DUP2 MSTORE PUSH1 0x20 ADD PUSH1 0x0 DUP2 MSTORE PUSH1 0x20 ADD PUSH1 0x0 DUP2 MSTORE POP SWAP1 JUMP JUMPDEST POP PUSH1 0x1 PUSH1 0x1 PUSH1 0xA0 SHL SUB DUP3 AND PUSH1 0x0 SWAP1 DUP2 MSTORE PUSH1 0x2 PUSH1 0x20 DUP2 DUP2 MSTORE PUSH1 0x40 DUP1 DUP5 KECCAK256 DUP6 DUP6 MSTORE DUP3 MSTORE SWAP3 DUP4 SWAP1 KECCAK256 DUP4 MLOAD PUSH1 0xC0 DUP2 ADD DUP6 MSTORE DUP2 SLOAD DUP2 MSTORE PUSH1 0x1 DUP3 ADD SLOAD SWAP3 DUP2 ADD SWAP3 SWAP1 SWAP3 MSTORE SWAP2 DUP3 ADD SLOAD SWAP3 DUP2 ADD SWAP3 SWAP1 SWAP3 MSTORE PUSH1 0x3 DUP2 ADD SLOAD PUSH1 0x60 DUP4 ADD MSTORE PUSH1 0x4 DUP2 ADD SLOAD PUSH1 0x80 DUP4 ADD MSTORE PUSH1 0x5 ADD SLOAD PUSH1 0xA0 DUP3 ADD MSTORE SWAP3 SWAP2 POP POP JUMP JUMPDEST PUSH2 0xB77 PUSH2 0x1160 JUMP JUMPDEST DUP1 DUP3 LT ISZERO PUSH2 0xBC7 JUMPI PUSH1 0x40 MLOAD PUSH3 0x461BCD PUSH1 0xE5 SHL DUP2 MSTORE PUSH1 0x20 PUSH1 0x4 DUP3 ADD MSTORE PUSH1 0x18 PUSH1 0x24 DUP3 ADD MSTORE PUSH32 0x496E76616C6964206D756C7469706C6965722072616E67650000000000000000 PUSH1 0x44 DUP3 ADD MSTORE PUSH1 0x64 ADD PUSH2 0x699 JUMP JUMPDEST DUP3 DUP5 LT ISZERO PUSH2 0xC17 JUMPI PUSH1 0x40 MLOAD PUSH3 0x461BCD PUSH1 0xE5 SHL DUP2 MSTORE PUSH1 0x20 PUSH1 0x4 DUP3 ADD MSTORE PUSH1 0x1F PUSH1 0x24 DUP3 ADD MSTORE PUSH32 0x496E76616C69642064656D616E64206D756C7469706C6965722072616E676500 PUSH1 0x44 DUP3 ADD MSTORE PUSH1 0x64 ADD PUSH2 0x699 JUMP JUMPDEST PUSH1 0x7 DUP5 SWAP1 SSTORE PUSH1 0x8 DUP4 SWAP1 SSTORE PUSH1 0x9 DUP3 SWAP1 SSTORE PUSH1 0xA DUP2 SWAP1 SSTORE PUSH1 0x40 DUP1 MLOAD DUP6 DUP2 MSTORE PUSH1 0x20 DUP2 ADD DUP6 SWAP1 MSTORE SWAP1 DUP2 ADD DUP4 SWAP1 MSTORE PUSH1 0x60 DUP2 ADD DUP3 SWAP1 MSTORE PUSH32 0xCADCE1A9EE9A17464907A61E783E74619F249708FBA10B3DF5688210D98631A4 SWAP1 PUSH1 0x80 ADD PUSH1 0x40 MLOAD DUP1 SWAP2 SUB SWAP1 LOG1 POP POP POP POP JUMP JUMPDEST PUSH2 0xC81 PUSH2 0x1160 JUMP JUMPDEST PUSH2 0x3E8 DUP4 GT ISZERO PUSH2 0xCA3 JUMPI PUSH1 0x40 MLOAD PUSH3 0x461BCD PUSH1 0xE5 SHL DUP2 MSTORE PUSH1 0x4 ADD PUSH2 0x699 SWAP1 PUSH2 0x1659 JUMP JUMPDEST PUSH2 0x3E8 DUP3 GT ISZERO PUSH2 0xCC5 JUMPI PUSH1 0x40 MLOAD PUSH3 0x461BCD PUSH1 0xE5 SHL DUP2 MSTORE PUSH1 0x4 ADD PUSH2 0x699 SWAP1 PUSH2 0x1659 JUMP JUMPDEST PUSH2 0x3E8 DUP2 GT ISZERO PUSH2 0xCE7 JUMPI PUSH1 0x40 MLOAD PUSH3 0x461BCD PUSH1 0xE5 SHL DUP2 MSTORE PUSH1 0x4 ADD PUSH2 0x699 SWAP1 PUSH2 0x1659 JUMP JUMPDEST PUSH1 0xB SWAP3 SWAP1 SWAP3 SSTORE PUSH1 0xC SSTORE PUSH1 0xD SSTORE JUMP JUMPDEST PUSH2 0xCFD PUSH2 0x1160 JUMP JUMPDEST PUSH1 0x6 DUP1 SLOAD PUSH1 0x1 PUSH1 0x1 PUSH1 0xA0 SHL SUB NOT AND PUSH1 0x1 PUSH1 0x1 PUSH1 0xA0 SHL SUB SWAP3 SWAP1 SWAP3 AND SWAP2 SWAP1 SWAP2 OR SWAP1 SSTORE JUMP JUMPDEST PUSH2 0xD27 PUSH2 0x1160 JUMP JUMPDEST PUSH2 0xD31 PUSH1 0x0 PUSH2 0x1424 JUMP JUMPDEST JUMP JUMPDEST CALLER PUSH1 0x0 SWAP1 DUP2 MSTORE PUSH1 0x4 PUSH1 0x20 MSTORE PUSH1 0x40 SWAP1 KECCAK256 SLOAD PUSH1 0xFF AND DUP1 PUSH2 0xD5B JUMPI POP PUSH1 0x0 SLOAD PUSH1 0x1 PUSH1 0x1 PUSH1 0xA0 SHL SUB AND CALLER EQ JUMPDEST PUSH2 0xD98 JUMPI PUSH1 0x40 MLOAD PUSH3 0x461BCD PUSH1 0xE5 SHL DUP2 MSTORE PUSH1 0x20 PUSH1 0x4 DUP3 ADD MSTORE PUSH1 0xE PUSH1 0x24 DUP3 ADD MSTORE PUSH14 0x139BDD08185D5D1A1BDC9A5E9959 PUSH1 0x92 SHL PUSH1 0x44 DUP3 ADD MSTORE PUSH1 0x64 ADD PUSH2 0x699 JUMP JUMPDEST PUSH1 0x5 SLOAD PUSH1 0x40 MLOAD PUSH4 0x30F8853F PUSH1 0xE2 SHL DUP2 MSTORE PUSH1 0x1 PUSH1 0x1 PUSH1 0xA0 SHL SUB DUP4 DUP2 AND PUSH1 0x4 DUP4 ADD MSTORE SWAP1 SWAP2 AND SWAP1 PUSH4 0xC3E214FC SWAP1 PUSH1 0x24 ADD PUSH1 0x20 PUSH1 0x40 MLOAD DUP1 DUP4 SUB DUP2 DUP7 GAS STATICCALL SWAP3 POP POP POP DUP1 ISZERO PUSH2 0xDFE JUMPI POP PUSH1 0x40 DUP1 MLOAD PUSH1 0x1F RETURNDATASIZE SWAP1 DUP2 ADD PUSH1 0x1F NOT AND DUP3 ADD SWAP1 SWAP3 MSTORE PUSH2 0xDFB SWAP2 DUP2 ADD SWAP1 PUSH2 0x1684 JUMP JUMPDEST PUSH1 0x1 JUMPDEST ISZERO PUSH2 0xF83 JUMPI PUSH1 0x5 SLOAD PUSH1 0x40 MLOAD PUSH4 0xB2A09DBF PUSH1 0xE0 SHL DUP2 MSTORE PUSH1 0x1 PUSH1 0x1 PUSH1 0xA0 SHL SUB DUP5 DUP2 AND PUSH1 0x4 DUP4 ADD MSTORE SWAP1 SWAP2 AND SWAP1 PUSH4 0xB2A09DBF SWAP1 PUSH1 0x24 ADD PUSH1 0x20 PUSH1 0x40 MLOAD DUP1 DUP4 SUB DUP2 DUP7 GAS STATICCALL SWAP3 POP POP POP DUP1 ISZERO PUSH2 0xE69 JUMPI POP PUSH1 0x40 DUP1 MLOAD PUSH1 0x1F RETURNDATASIZE SWAP1 DUP2 ADD PUSH1 0x1F NOT AND DUP3 ADD SWAP1 SWAP3 MSTORE PUSH2 0xE66 SWAP2 DUP2 ADD SWAP1 PUSH2 0x1684 JUMP JUMPDEST PUSH1 0x1 JUMPDEST ISZERO PUSH2 0xF81 JUMPI PUSH1 0x5 SLOAD PUSH1 0x40 MLOAD PUSH4 0x1DB593E5 PUSH1 0xE0 SHL DUP2 MSTORE PUSH1 0x1 PUSH1 0x1 PUSH1 0xA0 SHL SUB DUP6 DUP2 AND PUSH1 0x4 DUP4 ADD MSTORE SWAP1 SWAP2 AND SWAP1 PUSH4 0x1DB593E5 SWAP1 PUSH1 0x24 ADD PUSH1 0x20 PUSH1 0x40 MLOAD DUP1 DUP4 SUB DUP2 DUP7 GAS STATICCALL SWAP3 POP POP POP DUP1 ISZERO PUSH2 0xED4 JUMPI POP PUSH1 0x40 DUP1 MLOAD PUSH1 0x1F RETURNDATASIZE SWAP1 DUP2 ADD PUSH1 0x1F NOT AND DUP3 ADD SWAP1 SWAP3 MSTORE PUSH2 0xED1 SWAP2 DUP2 ADD SWAP1 PUSH2 0x1684 JUMP JUMPDEST PUSH1 0x1 JUMPDEST ISZERO PUSH2 0xF7F JUMPI PUSH1 0x40 DUP1 MLOAD PUSH1 0xA0 DUP2 ADD DUP3 MSTORE DUP5 DUP2 MSTORE PUSH1 0x20 DUP1 DUP3 ADD DUP6 DUP2 MSTORE DUP3 DUP5 ADD DUP6 DUP2 MSTORE PUSH1 0x0 PUSH1 0x60 DUP1 DUP7 ADD DUP3 DUP2 MSTORE TIMESTAMP PUSH1 0x80 DUP9 ADD SWAP1 DUP2 MSTORE PUSH1 0x1 PUSH1 0x1 PUSH1 0xA0 SHL SUB DUP14 AND DUP1 DUP6 MSTORE PUSH1 0x3 DUP1 DUP10 MSTORE SWAP5 DUP11 SWAP1 KECCAK256 SWAP9 MLOAD DUP10 SSTORE SWAP6 MLOAD PUSH1 0x1 DUP10 ADD SSTORE SWAP4 MLOAD PUSH1 0x2 DUP9 ADD SSTORE MLOAD SWAP2 DUP7 ADD SWAP2 SWAP1 SWAP2 SSTORE SWAP1 MLOAD PUSH1 0x4 SWAP1 SWAP5 ADD SWAP4 SWAP1 SWAP4 SSTORE DUP4 MLOAD DUP8 DUP2 MSTORE SWAP2 DUP3 ADD DUP7 SWAP1 MSTORE SWAP3 DUP2 ADD DUP5 SWAP1 MSTORE PUSH32 0xF1CC68D0C268AFF9282382A029053500CA8D7269D038D5AFDA2D175BD5CDF892 SWAP2 ADD PUSH1 0x40 MLOAD DUP1 SWAP2 SUB SWAP1 LOG2 POP JUMPDEST POP JUMPDEST POP JUMPDEST POP JUMP JUMPDEST PUSH2 0xF8E PUSH2 0x1160 JUMP JUMPDEST PUSH1 0x1 PUSH1 0x1 PUSH1 0xA0 SHL SUB AND PUSH1 0x0 SWAP1 DUP2 MSTORE PUSH1 0x4 PUSH1 0x20 MSTORE PUSH1 0x40 SWAP1 KECCAK256 DUP1 SLOAD PUSH1 0xFF NOT AND PUSH1 0x1 OR SWAP1 SSTORE JUMP JUMPDEST PUSH1 0x0 DUP3 DUP2 PUSH2 0xFC0 DUP8 DUP8 PUSH2 0x11BA JUMP JUMPDEST SWAP1 POP PUSH2 0x2710 PUSH2 0xFCF DUP3 DUP5 PUSH2 0x15E1 JUMP JUMPDEST PUSH2 0xFD9 SWAP2 SWAP1 PUSH2 0x15F8 JUMP JUMPDEST SWAP2 POP PUSH1 0x0 PUSH2 0xFE7 DUP9 DUP9 PUSH2 0x12AE JUMP JUMPDEST SWAP1 POP DUP1 ISZERO PUSH2 0x1021 JUMPI PUSH2 0x2710 PUSH2 0xFFE DUP3 PUSH2 0xBB8 PUSH2 0x15E1 JUMP JUMPDEST PUSH2 0x100A DUP6 PUSH2 0x1B58 PUSH2 0x15E1 JUMP JUMPDEST PUSH2 0x1014 SWAP2 SWAP1 PUSH2 0x161A JUMP JUMPDEST PUSH2 0x101E SWAP2 SWAP1 PUSH2 0x15F8 JUMP JUMPDEST SWAP3 POP JUMPDEST PUSH1 0x0 PUSH2 0x102C DUP7 PUSH2 0x135C JUMP JUMPDEST SWAP1 POP DUP1 ISZERO PUSH2 0x1058 JUMPI PUSH2 0x2710 PUSH2 0x1041 DUP3 DUP3 PUSH2 0x162D JUMP JUMPDEST PUSH2 0x104B SWAP1 DUP7 PUSH2 0x15E1 JUMP JUMPDEST PUSH2 0x1055 SWAP2 SWAP1 PUSH2 0x15F8 JUMP JUMPDEST SWAP4 POP JUMPDEST PUSH1 0x0 PUSH2 0x2710 PUSH1 0xA SLOAD DUP10 PUSH2 0x106B SWAP2 SWAP1 PUSH2 0x15E1 JUMP JUMPDEST PUSH2 0x1075 SWAP2 SWAP1 PUSH2 0x15F8 JUMP JUMPDEST SWAP1 POP PUSH1 0x0 PUSH2 0x2710 PUSH1 0x9 SLOAD DUP11 PUSH2 0x108A SWAP2 SWAP1 PUSH2 0x15E1 JUMP JUMPDEST PUSH2 0x1094 SWAP2 SWAP1 PUSH2 0x15F8 JUMP JUMPDEST SWAP1 POP DUP2 DUP7 LT ISZERO PUSH2 0x10A6 JUMPI DUP2 SWAP6 POP PUSH2 0x10B2 JUMP JUMPDEST DUP1 DUP7 GT ISZERO PUSH2 0x10B2 JUMPI DUP1 SWAP6 POP JUMPDEST POP SWAP4 SWAP10 SWAP9 POP POP POP POP POP POP POP POP POP JUMP JUMPDEST PUSH2 0x10C9 PUSH2 0x1160 JUMP JUMPDEST PUSH1 0x1 PUSH1 0x1 PUSH1 0xA0 SHL SUB AND PUSH1 0x0 SWAP1 DUP2 MSTORE PUSH1 0x4 PUSH1 0x20 MSTORE PUSH1 0x40 SWAP1 KECCAK256 DUP1 SLOAD PUSH1 0xFF NOT AND SWAP1 SSTORE JUMP JUMPDEST PUSH2 0x10F2 PUSH2 0x1160 JUMP JUMPDEST PUSH1 0x1 PUSH1 0x1 PUSH1 0xA0 SHL SUB DUP2 AND PUSH2 0x1157 JUMPI PUSH1 0x40 MLOAD PUSH3 0x461BCD PUSH1 0xE5 SHL DUP2 MSTORE PUSH1 0x20 PUSH1 0x4 DUP3 ADD MSTORE PUSH1 0x26 PUSH1 0x24 DUP3 ADD MSTORE PUSH32 0x4F776E61626C653A206E6577206F776E657220697320746865207A65726F2061 PUSH1 0x44 DUP3 ADD MSTORE PUSH6 0x646472657373 PUSH1 0xD0 SHL PUSH1 0x64 DUP3 ADD MSTORE PUSH1 0x84 ADD PUSH2 0x699 JUMP JUMPDEST PUSH2 0xF83 DUP2 PUSH2 0x1424 JUMP JUMPDEST PUSH1 0x0 SLOAD PUSH1 0x1 PUSH1 0x1 PUSH1 0xA0 SHL SUB AND CALLER EQ PUSH2 0xD31 JUMPI PUSH1 0x40 MLOAD PUSH3 0x461BCD PUSH1 0xE5 SHL DUP2 MSTORE PUSH1 0x20 PUSH1 0x4 DUP3 ADD DUP2 SWAP1 MSTORE PUSH1 0x24 DUP3 ADD MSTORE PUSH32 0x4F776E61626C653A2063616C6C6572206973206E6F7420746865206F776E6572 PUSH1 0x44 DUP3 ADD MSTORE PUSH1 0x64 ADD PUSH2 0x699 JUMP JUMPDEST PUSH1 0x1 PUSH1 0x1 PUSH1 0xA0 SHL SUB DUP3 AND PUSH1 0x0 SWAP1 DUP2 MSTORE PUSH1 0x2 PUSH1 0x20 DUP2 DUP2 MSTORE PUSH1 0x40 DUP1 DUP5 KECCAK256 DUP6 DUP6 MSTORE DUP3 MSTORE DUP1 DUP5 KECCAK256 DUP2 MLOAD PUSH1 0xC0 DUP2 ADD DUP4 MSTORE DUP2 SLOAD DUP2 MSTORE PUSH1 0x1 DUP3 ADD SLOAD SWAP4 DUP2 ADD DUP5 SWAP1 MSTORE SWAP4 DUP2 ADD SLOAD SWAP2 DUP5 ADD SWAP2 SWAP1 SWAP2 MSTORE PUSH1 0x3 DUP2 ADD SLOAD PUSH1 0x60 DUP5 ADD MSTORE PUSH1 0x4 DUP2 ADD SLOAD PUSH1 0x80 DUP5 ADD MSTORE PUSH1 0x5 ADD SLOAD PUSH1 0xA0 DUP4 ADD MSTORE PUSH2 0x1F40 GT PUSH2 0x122E JUMPI POP POP PUSH1 0x7 SLOAD PUSH2 0xAC5 JUMP JUMPDEST PUSH2 0x7D0 DUP2 PUSH1 0x20 ADD MLOAD GT PUSH2 0x1245 JUMPI POP POP PUSH1 0x8 SLOAD PUSH2 0xAC5 JUMP JUMPDEST PUSH1 0x0 PUSH2 0x1255 PUSH2 0x7D0 PUSH2 0x1F40 PUSH2 0x162D JUMP JUMPDEST SWAP1 POP PUSH1 0x0 PUSH2 0x7D0 DUP4 PUSH1 0x20 ADD MLOAD PUSH2 0x126B SWAP2 SWAP1 PUSH2 0x162D JUMP JUMPDEST SWAP1 POP PUSH1 0x0 PUSH1 0x8 SLOAD PUSH1 0x7 SLOAD PUSH2 0x127F SWAP2 SWAP1 PUSH2 0x162D JUMP JUMPDEST SWAP1 POP DUP3 PUSH2 0x128C DUP4 DUP4 PUSH2 0x15E1 JUMP JUMPDEST PUSH2 0x1296 SWAP2 SWAP1 PUSH2 0x15F8 JUMP JUMPDEST PUSH1 0x8 SLOAD PUSH2 0x12A3 SWAP2 SWAP1 PUSH2 0x161A JUMP JUMPDEST SWAP5 POP POP POP POP POP PUSH2 0xAC5 JUMP JUMPDEST PUSH1 0x1 PUSH1 0x1 PUSH1 0xA0 SHL SUB DUP3 AND PUSH1 0x0 SWAP1 DUP2 MSTORE PUSH1 0x3 PUSH1 0x20 DUP2 DUP2 MSTORE PUSH1 0x40 DUP1 DUP5 KECCAK256 DUP2 MLOAD PUSH1 0xA0 DUP2 ADD DUP4 MSTORE DUP2 SLOAD DUP2 MSTORE PUSH1 0x1 DUP3 ADD SLOAD SWAP4 DUP2 ADD SWAP4 SWAP1 SWAP4 MSTORE PUSH1 0x2 DUP2 ADD SLOAD SWAP2 DUP4 ADD DUP3 SWAP1 MSTORE SWAP3 DUP4 ADD SLOAD PUSH1 0x60 DUP4 ADD MSTORE PUSH1 0x4 SWAP1 SWAP3 ADD SLOAD PUSH1 0x80 DUP3 ADD MSTORE SWAP1 DUP3 SWAP1 PUSH2 0x1311 JUMPI DUP2 PUSH1 0x20 ADD MLOAD PUSH2 0x1317 JUMP JUMPDEST DUP2 PUSH1 0x40 ADD MLOAD JUMPDEST SWAP1 POP DUP1 PUSH1 0x0 SUB PUSH2 0x132C JUMPI PUSH1 0x0 SWAP3 POP POP POP PUSH2 0xAC5 JUMP JUMPDEST PUSH2 0x133C PUSH4 0x3B9ACA00 PUSH2 0xE10 PUSH2 0x15E1 JUMP JUMPDEST PUSH1 0xE SLOAD PUSH2 0x1349 SWAP1 DUP4 PUSH2 0x15E1 JUMP JUMPDEST PUSH2 0x1353 SWAP2 SWAP1 PUSH2 0x15F8 JUMP JUMPDEST SWAP6 SWAP5 POP POP POP POP POP JUMP JUMPDEST PUSH1 0x6 SLOAD PUSH1 0x0 SWAP1 PUSH1 0x1 PUSH1 0x1 PUSH1 0xA0 SHL SUB AND PUSH2 0x1377 JUMPI POP PUSH1 0x0 SWAP2 SWAP1 POP JUMP JUMPDEST PUSH1 0x6 SLOAD PUSH1 0x40 MLOAD PUSH4 0x1D699F57 PUSH1 0xE2 SHL DUP2 MSTORE PUSH1 0x1 PUSH1 0x1 PUSH1 0xA0 SHL SUB DUP5 DUP2 AND PUSH1 0x4 DUP4 ADD MSTORE SWAP1 SWAP2 AND SWAP1 PUSH4 0x75A67D5C SWAP1 PUSH1 0x24 ADD PUSH1 0x20 PUSH1 0x40 MLOAD DUP1 DUP4 SUB DUP2 DUP7 GAS STATICCALL SWAP3 POP POP POP DUP1 ISZERO PUSH2 0x13DD JUMPI POP PUSH1 0x40 DUP1 MLOAD PUSH1 0x1F RETURNDATASIZE SWAP1 DUP2 ADD PUSH1 0x1F NOT AND DUP3 ADD SWAP1 SWAP3 MSTORE PUSH2 0x13DA SWAP2 DUP2 ADD SWAP1 PUSH2 0x1684 JUMP JUMPDEST PUSH1 0x1 JUMPDEST ISZERO PUSH2 0x141C JUMPI PUSH2 0x320 DUP2 LT PUSH2 0x13F5 JUMPI POP POP PUSH1 0xB SLOAD SWAP2 SWAP1 POP JUMP JUMPDEST PUSH2 0x1F4 DUP2 LT PUSH2 0x1408 JUMPI POP POP PUSH1 0xC SLOAD SWAP2 SWAP1 POP JUMP JUMPDEST PUSH1 0x64 DUP2 LT PUSH2 0x141A JUMPI POP POP PUSH1 0xD SLOAD SWAP2 SWAP1 POP JUMP JUMPDEST POP JUMPDEST POP PUSH1 0x0 SWAP2 SWAP1 POP JUMP JUMPDEST PUSH1 0x0 DUP1 SLOAD PUSH1 0x1 PUSH1 0x1 PUSH1 0xA0 SHL SUB DUP4 DUP2 AND PUSH1 0x1 PUSH1 0x1 PUSH1 0xA0 SHL SUB NOT DUP4 AND DUP2 OR DUP5 SSTORE PUSH1 0x40 MLOAD SWAP2 SWAP1 SWAP3 AND SWAP3 DUP4 SWAP2 PUSH32 0x8BE0079C531659141344CD1FD0A4F28419497F9722A3DAAFE3B4186F6B6457E0 SWAP2 SWAP1 LOG3 POP POP JUMP JUMPDEST PUSH1 0x0 PUSH1 0x20 DUP3 DUP5 SUB SLT ISZERO PUSH2 0x1486 JUMPI PUSH1 0x0 DUP1 REVERT JUMPDEST POP CALLDATALOAD SWAP2 SWAP1 POP JUMP JUMPDEST DUP1 CALLDATALOAD PUSH1 0x1 PUSH1 0x1 PUSH1 0xA0 SHL SUB DUP2 AND DUP2 EQ PUSH2 0x14A4 JUMPI PUSH1 0x0 DUP1 REVERT JUMPDEST SWAP2 SWAP1 POP JUMP JUMPDEST PUSH1 0x0 DUP1 PUSH1 0x0 DUP1 PUSH1 0x80 DUP6 DUP8 SUB SLT ISZERO PUSH2 0x14BF JUMPI PUSH1 0x0 DUP1 REVERT JUMPDEST PUSH2 0x14C8 DUP6 PUSH2 0x148D JUMP JUMPDEST SWAP4 POP PUSH1 0x20 DUP6 ADD CALLDATALOAD SWAP3 POP PUSH1 0x40 DUP6 ADD CALLDATALOAD SWAP2 POP PUSH2 0x14E4 PUSH1 0x60 DUP7 ADD PUSH2 0x148D JUMP JUMPDEST SWAP1 POP SWAP3 SWAP6 SWAP2 SWAP5 POP SWAP3 POP JUMP JUMPDEST PUSH1 0x0 PUSH1 0x20 DUP3 DUP5 SUB SLT ISZERO PUSH2 0x1501 JUMPI PUSH1 0x0 DUP1 REVERT JUMPDEST PUSH2 0xAC2 DUP3 PUSH2 0x148D JUMP JUMPDEST PUSH1 0x0 DUP1 PUSH1 0x0 DUP1 PUSH1 0x80 DUP6 DUP8 SUB SLT ISZERO PUSH2 0x1520 JUMPI PUSH1 0x0 DUP1 REVERT JUMPDEST PUSH2 0x1529 DUP6 PUSH2 0x148D JUMP JUMPDEST SWAP7 PUSH1 0x20 DUP7 ADD CALLDATALOAD SWAP7 POP PUSH1 0x40 DUP7 ADD CALLDATALOAD SWAP6 PUSH1 0x60 ADD CALLDATALOAD SWAP5 POP SWAP3 POP POP POP JUMP JUMPDEST PUSH1 0x0 DUP1 PUSH1 0x40 DUP4 DUP6 SUB SLT ISZERO PUSH2 0x1556 JUMPI PUSH1 0x0 DUP1 REVERT JUMPDEST PUSH2 0x155F DUP4 PUSH2 0x148D JUMP JUMPDEST SWAP5 PUSH1 0x20 SWAP4 SWAP1 SWAP4 ADD CALLDATALOAD SWAP4 POP POP POP JUMP JUMPDEST PUSH1 0x0 DUP1 PUSH1 0x0 DUP1 PUSH1 0x80 DUP6 DUP8 SUB SLT ISZERO PUSH2 0x1583 JUMPI PUSH1 0x0 DUP1 REVERT JUMPDEST POP POP DUP3 CALLDATALOAD SWAP5 PUSH1 0x20 DUP5 ADD CALLDATALOAD SWAP5 POP PUSH1 0x40 DUP5 ADD CALLDATALOAD SWAP4 PUSH1 0x60 ADD CALLDATALOAD SWAP3 POP SWAP1 POP JUMP JUMPDEST PUSH1 0x0 DUP1 PUSH1 0x0 PUSH1 0x60 DUP5 DUP7 SUB SLT ISZERO PUSH2 0x15B4 JUMPI PUSH1 0x0 DUP1 REVERT JUMPDEST POP POP DUP2 CALLDATALOAD SWAP4 PUSH1 0x20 DUP4 ADD CALLDATALOAD SWAP4 POP PUSH1 0x40 SWAP1 SWAP3 ADD CALLDATALOAD SWAP2 SWAP1 POP JUMP JUMPDEST PUSH4 0x4E487B71 PUSH1 0xE0 SHL PUSH1 0x0 MSTORE PUSH1 0x11 PUSH1 0x4 MSTORE PUSH1 0x24 PUSH1 0x0 REVERT JUMPDEST DUP1 DUP3 MUL DUP2 ISZERO DUP3 DUP3 DIV DUP5 EQ OR PUSH2 0xAC5 JUMPI PUSH2 0xAC5 PUSH2 0x15CB JUMP JUMPDEST PUSH1 0x0 DUP3 PUSH2 0x1615 JUMPI PUSH4 0x4E487B71 PUSH1 0xE0 SHL PUSH1 0x0 MSTORE PUSH1 0x12 PUSH1 0x4 MSTORE PUSH1 0x24 PUSH1 0x0 REVERT JUMPDEST POP DIV SWAP1 JUMP JUMPDEST DUP1 DUP3 ADD DUP1 DUP3 GT ISZERO PUSH2 0xAC5 JUMPI PUSH2 0xAC5 PUSH2 0x15CB JUMP JUMPDEST DUP2 DUP2 SUB DUP2 DUP2 GT ISZERO PUSH2 0xAC5 JUMPI PUSH2 0xAC5 PUSH2 0x15CB JUMP JUMPDEST PUSH1 0x0 PUSH1 0x1 DUP3 ADD PUSH2 0x1652 JUMPI PUSH2 0x1652 PUSH2 0x15CB JUMP JUMPDEST POP PUSH1 0x1 ADD SWAP1 JUMP JUMPDEST PUSH1 0x20 DUP1 DUP3 MSTORE PUSH1 0x11 SWAP1 DUP3 ADD MSTORE PUSH17 0x88D2E6C6DEEADCE840E8DEDE40D0D2CED PUSH1 0x7B SHL PUSH1 0x40 DUP3 ADD MSTORE PUSH1 0x60 ADD SWAP1 JUMP JUMPDEST PUSH1 0x0 PUSH1 0x20 DUP3 DUP5 SUB SLT ISZERO PUSH2 0x1696 JUMPI PUSH1 0x0 DUP1 REVERT JUMPDEST POP MLOAD SWAP2 SWAP1 POP JUMP INVALID LOG2 PUSH5 0x6970667358 0x22 SLT KECCAK256 PUSH14 0xE06DB6383AABB672CA5A2E67302E 0xD6 0x2B PUSH18 0x488C165FE075222C62EFB01523C164736F6C PUSH4 0x43000813 STOP CALLER "},"methodIdentifiers":{"BASIS_POINTS()":"e1f1c4a7","HIGH_UTILIZATION_THRESHOLD()":"7cfdd937","LOW_UTILIZATION_THRESHOLD()":"ec2f37bd","ORACLE_DIVISOR()":"ed350a55","ROLLING_WINDOW()":"5b0a8fad","addAuthorizedContract(address)":"98eaa4a7","authorizedContracts(address)":"d5b9221b","collectionPricing(address)":"1b32145c","getCollectionPricing(address)":"318f262a","getComprehensivePricing(address,uint256,uint256,address)":"19813ea4","getDynamicPrice(address,uint256,uint256,address)":"baf5a236","getPricingData(address,uint256)":"469ef8a1","getSuggestedPrice(address,uint256)":"3e678bf2","getUtilizationRate(address,uint256)":"a1b7c8bd","hasHighUtilityDemand(address,uint256)":"e38d7cd6","highDemandMultiplier()":"40b482a6","highReputationDiscount()":"b6254a9f","lowDemandMultiplier()":"88eabf8d","lowReputationDiscount()":"5fa84c5a","maxMultiplier()":"0187aea0","midReputationDiscount()":"2821d34c","minMultiplier()":"a24e0d87","nftPricingData(address,uint256)":"965dbc9b","oraclePriceMultiplier()":"4e26df03","owner()":"8da5cb5b","priceOracle()":"2630c12f","removeAuthorizedContract(address)":"e6b165ed","renounceOwnership()":"715018a6","reputationSystem()":"6587eda1","transferOwnership(address)":"f2fde38b","updateCollectionPricing(address)":"889ccfcf","updateOraclePriceMultiplier(uint256)":"0cf50163","updatePriceOracle(address)":"39d1fc82","updatePricingData(address,uint256,uint256,uint256)":"20854c6b","updatePricingParameters(uint256,uint256,uint256,uint256)":"629433e6","updateReputationDiscounts(uint256,uint256,uint256)":"653f6a99","updateReputationSystem(address)":"66255cda"}}}}}