{"contracts/ReputationSystem.sol":{"ReputationSystem":{"abi":[{"anonymous":false,"inputs":[{"indexed":true,"internalType":"address","name":"user","type":"address"},{"indexed":true,"internalType":"uint256","name":"achievementId","type":"uint256"},{"indexed":false,"internalType":"string","name":"name","type":"string"}],"name":"AchievementUnlocked","type":"event"},{"anonymous":false,"inputs":[{"indexed":true,"internalType":"address","name":"user","type":"address"},{"indexed":false,"internalType":"uint256","name":"multiplier","type":"uint256"}],"name":"CollateralMultiplierUpdated","type":"event"},{"anonymous":false,"inputs":[{"indexed":true,"internalType":"address","name":"previousOwner","type":"address"},{"indexed":true,"internalType":"address","name":"newOwner","type":"address"}],"name":"OwnershipTransferred","type":"event"},{"anonymous":false,"inputs":[{"indexed":true,"internalType":"address","name":"user","type":"address"},{"indexed":false,"internalType":"uint256","name":"newScore","type":"uint256"},{"indexed":false,"internalType":"bool","name":"success","type":"bool"}],"name":"ReputationUpdated","type":"event"},{"anonymous":false,"inputs":[{"indexed":true,"internalType":"address","name":"user","type":"address"}],"name":"UserBlacklisted","type":"event"},{"anonymous":false,"inputs":[{"indexed":true,"internalType":"address","name":"user","type":"address"}],"name":"UserWhitelisted","type":"event"},{"inputs":[],"name":"COLLATERAL_FREE_THRESHOLD","outputs":[{"internalType":"uint256","name":"","type":"uint256"}],"stateMutability":"view","type":"function"},{"inputs":[],"name":"MAX_SCORE","outputs":[{"internalType":"uint256","name":"","type":"uint256"}],"stateMutability":"view","type":"function"},{"inputs":[],"name":"REDUCED_COLLATERAL_THRESHOLD","outputs":[{"internalType":"uint256","name":"","type":"uint256"}],"stateMutability":"view","type":"function"},{"inputs":[],"name":"REPUTATION_GAIN","outputs":[{"internalType":"uint256","name":"","type":"uint256"}],"stateMutability":"view","type":"function"},{"inputs":[],"name":"REPUTATION_LOSS","outputs":[{"internalType":"uint256","name":"","type":"uint256"}],"stateMutability":"view","type":"function"},{"inputs":[{"internalType":"address","name":"_contract","type":"address"}],"name":"addAuthorizedContract","outputs":[],"stateMutability":"nonpayable","type":"function"},{"inputs":[{"internalType":"address","name":"","type":"address"}],"name":"authorizedContracts","outputs":[{"internalType":"bool","name":"","type":"bool"}],"stateMutability":"view","type":"function"},{"inputs":[{"internalType":"address","name":"user","type":"address"}],"name":"blacklistUser","outputs":[],"stateMutability":"nonpayable","type":"function"},{"inputs":[{"internalType":"string","name":"name","type":"string"},{"internalType":"uint256","name":"requiredRentals","type":"uint256"}],"name":"createAchievement","outputs":[],"stateMutability":"nonpayable","type":"function"},{"inputs":[{"internalType":"uint256","name":"index","type":"uint256"}],"name":"getAchievement","outputs":[{"internalType":"string","name":"name","type":"string"},{"internalType":"uint256","name":"requiredRentals","type":"uint256"}],"stateMutability":"pure","type":"function"},{"inputs":[{"internalType":"address","name":"user","type":"address"}],"name":"getCollateralMultiplier","outputs":[{"internalType":"uint256","name":"multiplier","type":"uint256"}],"stateMutability":"view","type":"function"},{"inputs":[{"internalType":"address","name":"user","type":"address"}],"name":"getRentalStats","outputs":[{"internalType":"uint256","name":"totalRentals","type":"uint256"},{"internalType":"uint256","name":"successfulRentals","type":"uint256"},{"internalType":"uint256","name":"successRate","type":"uint256"}],"stateMutability":"view","type":"function"},{"inputs":[{"internalType":"address","name":"user","type":"address"}],"name":"getReputationData","outputs":[{"components":[{"internalType":"uint256","name":"score","type":"uint256"},{"internalType":"uint256","name":"totalRentals","type":"uint256"},{"internalType":"uint256","name":"successfulRentals","type":"uint256"},{"internalType":"uint256","name":"lastUpdate","type":"uint256"},{"internalType":"bool","name":"isWhitelisted","type":"bool"},{"internalType":"bool","name":"isBlacklisted","type":"bool"},{"internalType":"uint256","name":"collateralMultiplier","type":"uint256"}],"internalType":"struct ReputationSystem.Reputation","name":"rep","type":"tuple"}],"stateMutability":"view","type":"function"},{"inputs":[{"internalType":"address","name":"user","type":"address"}],"name":"getReputationScore","outputs":[{"internalType":"uint256","name":"","type":"uint256"}],"stateMutability":"view","type":"function"},{"inputs":[{"internalType":"address","name":"user","type":"address"}],"name":"getReputationTier","outputs":[{"internalType":"uint256","name":"tier","type":"uint256"}],"stateMutability":"view","type":"function"},{"inputs":[{"internalType":"address","name":"user","type":"address"}],"name":"getSuccessRate","outputs":[{"internalType":"uint256","name":"","type":"uint256"}],"stateMutability":"view","type":"function"},{"inputs":[],"name":"getTotalAchievements","outputs":[{"internalType":"uint256","name":"","type":"uint256"}],"stateMutability":"pure","type":"function"},{"inputs":[{"internalType":"address","name":"user","type":"address"}],"name":"getUserAchievements","outputs":[{"internalType":"uint256[]","name":"","type":"uint256[]"}],"stateMutability":"view","type":"function"},{"inputs":[{"internalType":"address","name":"user","type":"address"}],"name":"getUserReputation","outputs":[{"internalType":"uint256","name":"","type":"uint256"}],"stateMutability":"view","type":"function"},{"inputs":[{"internalType":"address","name":"user","type":"address"},{"internalType":"uint256","name":"achievementIndex","type":"uint256"}],"name":"hasAchievement","outputs":[{"internalType":"bool","name":"","type":"bool"}],"stateMutability":"view","type":"function"},{"inputs":[],"name":"owner","outputs":[{"internalType":"address","name":"","type":"address"}],"stateMutability":"view","type":"function"},{"inputs":[{"internalType":"address","name":"_contract","type":"address"}],"name":"removeAuthorizedContract","outputs":[],"stateMutability":"nonpayable","type":"function"},{"inputs":[{"internalType":"address","name":"user","type":"address"}],"name":"removeUserFromLists","outputs":[],"stateMutability":"nonpayable","type":"function"},{"inputs":[],"name":"renounceOwnership","outputs":[],"stateMutability":"nonpayable","type":"function"},{"inputs":[],"name":"rentalContract","outputs":[{"internalType":"address","name":"","type":"address"}],"stateMutability":"view","type":"function"},{"inputs":[{"internalType":"address","name":"","type":"address"}],"name":"reputations","outputs":[{"internalType":"uint256","name":"score","type":"uint256"},{"internalType":"uint256","name":"totalRentals","type":"uint256"},{"internalType":"uint256","name":"successfulRentals","type":"uint256"},{"internalType":"uint256","name":"lastUpdate","type":"uint256"},{"internalType":"bool","name":"isWhitelisted","type":"bool"},{"internalType":"bool","name":"isBlacklisted","type":"bool"},{"internalType":"uint256","name":"collateralMultiplier","type":"uint256"}],"stateMutability":"view","type":"function"},{"inputs":[{"internalType":"address","name":"user","type":"address"}],"name":"requiresCollateral","outputs":[{"internalType":"bool","name":"","type":"bool"}],"stateMutability":"view","type":"function"},{"inputs":[{"internalType":"address","name":"_rentalContract","type":"address"}],"name":"setRentalContract","outputs":[],"stateMutability":"nonpayable","type":"function"},{"inputs":[{"internalType":"address","name":"user","type":"address"},{"internalType":"uint256","name":"score","type":"uint256"}],"name":"setReputationScore","outputs":[],"stateMutability":"nonpayable","type":"function"},{"inputs":[{"internalType":"address","name":"user","type":"address"},{"internalType":"bool","name":"blacklisted","type":"bool"}],"name":"setUserBlacklisted","outputs":[],"stateMutability":"nonpayable","type":"function"},{"inputs":[{"internalType":"address","name":"newOwner","type":"address"}],"name":"transferOwnership","outputs":[],"stateMutability":"nonpayable","type":"function"},{"inputs":[{"internalType":"address","name":"user","type":"address"},{"internalType":"bool","name":"success","type":"bool"}],"name":"updateReputation","outputs":[],"stateMutability":"nonpayable","type":"function"},{"inputs":[{"internalType":"address","name":"user","type":"address"}],"name":"whitelistUser","outputs":[],"stateMutability":"nonpayable","type":"function"}],"evm":{"bytecode":{"linkReferences":{},"object":"608060405234801561001057600080fd5b5061001a3361001f565b61006f565b600080546001600160a01b038381166001600160a01b0319831681178455604051919092169283917f8be0079c531659141344cd1fd0a4f28419497f9722a3daafe3b4186f6b6457e09190a35050565b6117068061007e6000396000f3fe608060405234801561001057600080fd5b50600436106101fb5760003560e01c806398eaa4a71161011a578063e2c13e32116100ad578063f0860c011161007c578063f0860c011461050b578063f09153c414610512578063f2ccc54314610532578063f2fde38b14610553578063fcbca4561461056657600080fd5b8063e2c13e32146104bf578063e6b165ed146104d2578063e8f4e9d4146104e5578063eeade3a2146104f857600080fd5b8063baccbfdb116100e9578063baccbfdb14610329578063bddb7c8314610476578063cb51037314610489578063d5b9221b1461049c57600080fd5b806398eaa4a71461040a578063a0d541fa1461041d578063ab5eba1614610425578063b6b3a2611461044857600080fd5b80636a01703f116101925780637a00d3c4116101615780637a00d3c4146103525780637b8b5f72146103bf57806385196798146103d25780638da5cb5b146103e557600080fd5b80636a01703f146103065780636be2cefb1461030e578063715018a61461032157806375a67d5c1461032957600080fd5b806346ff0967116101ce57806346ff0967146102c45780634a3b6c2f146102cd5780634a4c560d146102e05780635a63427e146102f357600080fd5b8063018174351461020057806306fa15a71461021c57806318870e35146102a657806327ff6223146102bb575b600080fd5b6102096101f481565b6040519081526020015b60405180910390f35b61026d61022a36600461142e565b600160208190526000918252604090912080549181015460028201546003830154600484015460059094015492939192909160ff80821692610100909204169087565b60408051978852602088019690965294860193909352606085019190915215156080840152151560a083015260c082015260e001610213565b6102b96102b4366004611449565b610579565b005b6102096103e881565b6102096102ee81565b6102b96102db366004611489565b61068f565b6102b96102ee36600461142e565b6106d8565b6102b961030136600461142e565b61073e565b610209600a81565b61020961031c36600461142e565b610768565b6102b961083a565b61020961033736600461142e565b6001600160a01b031660009081526001602052604090205490565b61036561036036600461142e565b61084e565b6040516102139190600060e0820190508251825260208301516020830152604083015160408301526060830151606083015260808301511515608083015260a0830151151560a083015260c083015160c083015292915050565b6102b96103cd36600461142e565b610908565b6102096103e036600461142e565b610982565b6000546001600160a01b03165b6040516001600160a01b039091168152602001610213565b6102b961041836600461142e565b610a1c565b610209601481565b610438610433366004611449565b610a48565b6040519015158152602001610213565b61045b61045636600461142e565b610b1a565b60408051938452602084019290925290820152606001610213565b6102b961048436600461153e565b610bd2565b61020961049736600461142e565b610c67565b6104386104aa36600461142e565b60036020526000908152604090205460ff1681565b6102b96104cd36600461153e565b610d0b565b6102b96104e036600461142e565b610e73565b6002546103f2906001600160a01b031681565b61043861050636600461142e565b610e9c565b6003610209565b61052561052036600461142e565b610f34565b604051610213919061157a565b6105456105403660046115be565b61112b565b6040516102139291906115d7565b6102b961056136600461142e565b611216565b6102b961057436600461142e565b61128f565b6105816112f4565b6103e88111156105d05760405162461bcd60e51b815260206004820152601560248201527453636f72652065786365656473206d6178696d756d60581b60448201526064015b60405180910390fd5b6001600160a01b03821660009081526001602052604090208181556105f48261134e565b600582015542600382015560408051838152600160208201526001600160a01b038516917fdb3885afbba6debf9c1bda35746ffcd3e3c749b3742be7c9a0904981b5befb99910160405180910390a2826001600160a01b03167f22812190fa3c1db0f86a47a0e51ca5dbc2d016c8f250f0a25f0f21726db4c7dd826005015460405161068291815260200190565b60405180910390a2505050565b6106976112f4565b60408051600081526001602082015233917fdb3885afbba6debf9c1bda35746ffcd3e3c749b3742be7c9a0904981b5befb9991015b60405180910390a25050565b6106e06112f4565b6001600160a01b038116600081815260016020819052604080832060048101805461ffff191690931790925560058201839055519092917f7409cb8e690bcd1487fd4fd27dad3fa92388d201ba6f953631d6d6b26299f84991a25050565b6107466112f4565b600280546001600160a01b0319166001600160a01b0392909216919091179055565b6001600160a01b0381166000908152600160208181526040808420815160e08101835281548152938101549284019290925260028201549083015260038101546060830152600481015460ff808216158015608086015261010090920416151560a084015260059091015460c08301526107e55750600492915050565b8060a00151156107f85750600092915050565b80516103841161080b5750600392915050565b80516102ee1161081e5750600292915050565b80516101f4116108315750600192915050565b50600092915050565b6108426112f4565b61084c60006113b1565b565b6108926040518060e0016040528060008152602001600081526020016000815260200160008152602001600015158152602001600015158152602001600081525090565b506001600160a01b0316600090815260016020818152604092839020835160e08101855281548152928101549183019190915260028101549282019290925260038201546060820152600482015460ff8082161515608084015261010090910416151560a082015260059091015460c082015290565b6109106112f4565b6001600160a01b038116600090815260016020526040902060048101805461ffff1916905580546109409061134e565b600582018190556040519081526001600160a01b038316907f22812190fa3c1db0f86a47a0e51ca5dbc2d016c8f250f0a25f0f21726db4c7dd906020016106cc565b6001600160a01b0381166000908152600160208181526040808420815160e08101835281548152938101549284019290925260028201549083015260038101546060830152600481015460ff808216151560808501526101009091041615801560a084015260059091015460c08301526109ff5750606492915050565b806080015115610a125750600092915050565b60c0015192915050565b610a246112f4565b6001600160a01b03166000908152600360205260409020805460ff19166001179055565b6001600160a01b0382166000908152600160208181526040808420815160e08101835281548152938101549284019290925260028201549083015260038101546060830152600481015460ff8082161515608085015261010090910416151560a08301526005015460c0820152828203610acb5760200151600111159050610b14565b82600103610ae25760200151600511159050610b14565b82600203610b0e57600a816020015110158015610b06575080602001518160400151145b915050610b14565b60009150505b92915050565b6001600160a01b0381166000908152600160208181526040808420815160e081018352815481529381015492840183905260028101549184019190915260038101546060840152600481015460ff8082161515608086015261010090910416151560a08401526005015460c0830152829182918290610b9a576000610bb9565b60208201516040830151610baf906064611642565b610bb99190611659565b6020830151604090930151929792965094509092505050565b610bda6112f4565b6001600160a01b0382166000908152600160205260409020600481018054831580156101000261ff001990921691909117909155610c575760048101805460ff191690556040516001600160a01b038416907f7f8b7dc89dae85811a7a85800b892b5816ad5d381c856f1b56490f8fc470c9cb90600090a2505050565b600401805461ffff191690555050565b6001600160a01b0381166000908152600160208181526040808420815160e081018352815481529381015492840183905260028101549184019190915260038101546060840152600481015460ff8082161515608086015261010090910416151560a08401526005015460c08301528203610ce55750600092915050565b60208101516040820151610cfa906064611642565b610d049190611659565b9392505050565b6002546001600160a01b0316331480610d3357503360009081526003602052604090205460ff165b610d705760405162461bcd60e51b815260206004820152600e60248201526d139bdd08185d5d1a1bdc9a5e995960921b60448201526064016105c7565b6001600160a01b03821660009081526001602052604081206003810154909103610da1576101f48155606460058201555b600181018054906000610db38361167b565b91905055508115610df857600281018054906000610dd08361167b565b9190505550610df16103e8600a8360000154610dec9190611694565b611401565b8155610e19565b8054601410610e08576000610e16565b8054610e16906014906116a7565b81555b8054610e249061134e565b600582015542600382015580546040805191825283151560208301526001600160a01b038516917fdb3885afbba6debf9c1bda35746ffcd3e3c749b3742be7c9a0904981b5befb999101610682565b610e7b6112f4565b6001600160a01b03166000908152600360205260409020805460ff19169055565b6001600160a01b0381166000908152600160208181526040808420815160e08101835281548152938101549284019290925260028201549083015260038101546060830152600481015460ff808216151560808501526101009091041615801560a084015260059091015460c0830152610f195750600192915050565b806080015180610f2c575080516102ee11155b159392505050565b6001600160a01b0381166000908152600160208181526040808420815160e081018352815481529381015484840152600281015484830152600380820154606080870191909152600483015460ff80821615156080808a019190915261010090920416151560a088015260059093015460c0870152835182815292830190935291949290919082018580368337019050509050600060018360200151106110015760008282610fe28161167b565b935081518110610ff457610ff46116ba565b6020026020010181815250505b6005836020015110611039576001828261101a8161167b565b93508151811061102c5761102c6116ba565b6020026020010181815250505b600a836020015110158015611055575082602001518360400151145b1561108657600282826110678161167b565b935081518110611079576110796116ba565b6020026020010181815250505b60008167ffffffffffffffff8111156110a1576110a1611473565b6040519080825280602002602001820160405280156110ca578160200160208202803683370190505b50905060005b82811015611121578381815181106110ea576110ea6116ba565b6020026020010151828281518110611104576111046116ba565b6020908102919091010152806111198161167b565b9150506110d0565b5095945050505050565b606060008260000361116357505060408051808201909152600c81526b119a5c9cdd0814995b9d185b60a21b60208201529160019150565b8260010361119857505060408051808201909152600d81526c52656e74616c204e6f7669636560981b60208201529160059150565b826002036111ce57505060408051808201909152600e81526d14195c999958dd08149958dbdc9960921b602082015291600a9150565b60405162461bcd60e51b815260206004820152601960248201527f496e76616c696420616368696576656d656e7420696e6465780000000000000060448201526064016105c7565b61121e6112f4565b6001600160a01b0381166112835760405162461bcd60e51b815260206004820152602660248201527f4f776e61626c653a206e6577206f776e657220697320746865207a65726f206160448201526564647265737360d01b60648201526084016105c7565b61128c816113b1565b50565b6112976112f4565b6001600160a01b03811660008181526001602052604080822060048101805461ffff19166101001790556064600582015590519092917f7f8b7dc89dae85811a7a85800b892b5816ad5d381c856f1b56490f8fc470c9cb91a25050565b6000546001600160a01b0316331461084c5760405162461bcd60e51b815260206004820181905260248201527f4f776e61626c653a2063616c6c6572206973206e6f7420746865206f776e657260448201526064016105c7565b60006102ee821061136157506000919050565b6101f482106113a4576113786101f46102ee6116a7565b6113846101f4846116a7565b61138f906064611642565b6113999190611659565b610b149060646116a7565b506064919050565b919050565b600080546001600160a01b038381166001600160a01b0319831681178455604051919092169283917f8be0079c531659141344cd1fd0a4f28419497f9722a3daafe3b4186f6b6457e09190a35050565b60008183106114105781610d04565b5090919050565b80356001600160a01b03811681146113ac57600080fd5b60006020828403121561144057600080fd5b610d0482611417565b6000806040838503121561145c57600080fd5b61146583611417565b946020939093013593505050565b634e487b7160e01b600052604160045260246000fd5b6000806040838503121561149c57600080fd5b823567ffffffffffffffff808211156114b457600080fd5b818501915085601f8301126114c857600080fd5b8135818111156114da576114da611473565b604051601f8201601f19908116603f0116810190838211818310171561150257611502611473565b8160405282815288602084870101111561151b57600080fd5b826020860160208301376000602093820184015298969091013596505050505050565b6000806040838503121561155157600080fd5b61155a83611417565b91506020830135801515811461156f57600080fd5b809150509250929050565b6020808252825182820181905260009190848201906040850190845b818110156115b257835183529284019291840191600101611596565b50909695505050505050565b6000602082840312156115d057600080fd5b5035919050565b604081526000835180604084015260005b8181101561160557602081870181015160608684010152016115e8565b506000606082850101526060601f19601f8301168401019150508260208301529392505050565b634e487b7160e01b600052601160045260246000fd5b8082028115828204841417610b1457610b1461162c565b60008261167657634e487b7160e01b600052601260045260246000fd5b500490565b60006001820161168d5761168d61162c565b5060010190565b80820180821115610b1457610b1461162c565b81810381811115610b1457610b1461162c565b634e487b7160e01b600052603260045260246000fdfea2646970667358221220f5c747dfcf90e264974a167edc875dd9a6f9bc8c1408e50b7e75f2a8a26009b864736f6c63430008130033","opcodes":"PUSH1 0x80 PUSH1 0x40 MSTORE CALLVALUE DUP1 ISZERO PUSH2 0x10 JUMPI PUSH1 0x0 DUP1 REVERT JUMPDEST POP PUSH2 0x1A CALLER PUSH2 0x1F JUMP JUMPDEST PUSH2 0x6F JUMP JUMPDEST PUSH1 0x0 DUP1 SLOAD PUSH1 0x1 PUSH1 0x1 PUSH1 0xA0 SHL SUB DUP4 DUP2 AND PUSH1 0x1 PUSH1 0x1 PUSH1 0xA0 SHL SUB NOT DUP4 AND DUP2 OR DUP5 SSTORE PUSH1 0x40 MLOAD SWAP2 SWAP1 SWAP3 AND SWAP3 DUP4 SWAP2 PUSH32 0x8BE0079C531659141344CD1FD0A4F28419497F9722A3DAAFE3B4186F6B6457E0 SWAP2 SWAP1 LOG3 POP POP JUMP JUMPDEST PUSH2 0x1706 DUP1 PUSH2 0x7E PUSH1 0x0 CODECOPY PUSH1 0x0 RETURN INVALID PUSH1 0x80 PUSH1 0x40 MSTORE CALLVALUE DUP1 ISZERO PUSH2 0x10 JUMPI PUSH1 0x0 DUP1 REVERT JUMPDEST POP PUSH1 0x4 CALLDATASIZE LT PUSH2 0x1FB JUMPI PUSH1 0x0 CALLDATALOAD PUSH1 0xE0 SHR DUP1 PUSH4 0x98EAA4A7 GT PUSH2 0x11A JUMPI DUP1 PUSH4 0xE2C13E32 GT PUSH2 0xAD JUMPI DUP1 PUSH4 0xF0860C01 GT PUSH2 0x7C JUMPI DUP1 PUSH4 0xF0860C01 EQ PUSH2 0x50B JUMPI DUP1 PUSH4 0xF09153C4 EQ PUSH2 0x512 JUMPI DUP1 PUSH4 0xF2CCC543 EQ PUSH2 0x532 JUMPI DUP1 PUSH4 0xF2FDE38B EQ PUSH2 0x553 JUMPI DUP1 PUSH4 0xFCBCA456 EQ PUSH2 0x566 JUMPI PUSH1 0x0 DUP1 REVERT JUMPDEST DUP1 PUSH4 0xE2C13E32 EQ PUSH2 0x4BF JUMPI DUP1 PUSH4 0xE6B165ED EQ PUSH2 0x4D2 JUMPI DUP1 PUSH4 0xE8F4E9D4 EQ PUSH2 0x4E5 JUMPI DUP1 PUSH4 0xEEADE3A2 EQ PUSH2 0x4F8 JUMPI PUSH1 0x0 DUP1 REVERT JUMPDEST DUP1 PUSH4 0xBACCBFDB GT PUSH2 0xE9 JUMPI DUP1 PUSH4 0xBACCBFDB EQ PUSH2 0x329 JUMPI DUP1 PUSH4 0xBDDB7C83 EQ PUSH2 0x476 JUMPI DUP1 PUSH4 0xCB510373 EQ PUSH2 0x489 JUMPI DUP1 PUSH4 0xD5B9221B EQ PUSH2 0x49C JUMPI PUSH1 0x0 DUP1 REVERT JUMPDEST DUP1 PUSH4 0x98EAA4A7 EQ PUSH2 0x40A JUMPI DUP1 PUSH4 0xA0D541FA EQ PUSH2 0x41D JUMPI DUP1 PUSH4 0xAB5EBA16 EQ PUSH2 0x425 JUMPI DUP1 PUSH4 0xB6B3A261 EQ PUSH2 0x448 JUMPI PUSH1 0x0 DUP1 REVERT JUMPDEST DUP1 PUSH4 0x6A01703F GT PUSH2 0x192 JUMPI DUP1 PUSH4 0x7A00D3C4 GT PUSH2 0x161 JUMPI DUP1 PUSH4 0x7A00D3C4 EQ PUSH2 0x352 JUMPI DUP1 PUSH4 0x7B8B5F72 EQ PUSH2 0x3BF JUMPI DUP1 PUSH4 0x85196798 EQ PUSH2 0x3D2 JUMPI DUP1 PUSH4 0x8DA5CB5B EQ PUSH2 0x3E5 JUMPI PUSH1 0x0 DUP1 REVERT JUMPDEST DUP1 PUSH4 0x6A01703F EQ PUSH2 0x306 JUMPI DUP1 PUSH4 0x6BE2CEFB EQ PUSH2 0x30E JUMPI DUP1 PUSH4 0x715018A6 EQ PUSH2 0x321 JUMPI DUP1 PUSH4 0x75A67D5C EQ PUSH2 0x329 JUMPI PUSH1 0x0 DUP1 REVERT JUMPDEST DUP1 PUSH4 0x46FF0967 GT PUSH2 0x1CE JUMPI DUP1 PUSH4 0x46FF0967 EQ PUSH2 0x2C4 JUMPI DUP1 PUSH4 0x4A3B6C2F EQ PUSH2 0x2CD JUMPI DUP1 PUSH4 0x4A4C560D EQ PUSH2 0x2E0 JUMPI DUP1 PUSH4 0x5A63427E EQ PUSH2 0x2F3 JUMPI PUSH1 0x0 DUP1 REVERT JUMPDEST DUP1 PUSH4 0x1817435 EQ PUSH2 0x200 JUMPI DUP1 PUSH4 0x6FA15A7 EQ PUSH2 0x21C JUMPI DUP1 PUSH4 0x18870E35 EQ PUSH2 0x2A6 JUMPI DUP1 PUSH4 0x27FF6223 EQ PUSH2 0x2BB JUMPI JUMPDEST PUSH1 0x0 DUP1 REVERT JUMPDEST PUSH2 0x209 PUSH2 0x1F4 DUP2 JUMP JUMPDEST PUSH1 0x40 MLOAD SWAP1 DUP2 MSTORE PUSH1 0x20 ADD JUMPDEST PUSH1 0x40 MLOAD DUP1 SWAP2 SUB SWAP1 RETURN JUMPDEST PUSH2 0x26D PUSH2 0x22A CALLDATASIZE PUSH1 0x4 PUSH2 0x142E JUMP JUMPDEST PUSH1 0x1 PUSH1 0x20 DUP2 SWAP1 MSTORE PUSH1 0x0 SWAP2 DUP3 MSTORE PUSH1 0x40 SWAP1 SWAP2 KECCAK256 DUP1 SLOAD SWAP2 DUP2 ADD SLOAD PUSH1 0x2 DUP3 ADD SLOAD PUSH1 0x3 DUP4 ADD SLOAD PUSH1 0x4 DUP5 ADD SLOAD PUSH1 0x5 SWAP1 SWAP5 ADD SLOAD SWAP3 SWAP4 SWAP2 SWAP3 SWAP1 SWAP2 PUSH1 0xFF DUP1 DUP3 AND SWAP3 PUSH2 0x100 SWAP1 SWAP3 DIV AND SWAP1 DUP8 JUMP JUMPDEST PUSH1 0x40 DUP1 MLOAD SWAP8 DUP9 MSTORE PUSH1 0x20 DUP9 ADD SWAP7 SWAP1 SWAP7 MSTORE SWAP5 DUP7 ADD SWAP4 SWAP1 SWAP4 MSTORE PUSH1 0x60 DUP6 ADD SWAP2 SWAP1 SWAP2 MSTORE ISZERO ISZERO PUSH1 0x80 DUP5 ADD MSTORE ISZERO ISZERO PUSH1 0xA0 DUP4 ADD MSTORE PUSH1 0xC0 DUP3 ADD MSTORE PUSH1 0xE0 ADD PUSH2 0x213 JUMP JUMPDEST PUSH2 0x2B9 PUSH2 0x2B4 CALLDATASIZE PUSH1 0x4 PUSH2 0x1449 JUMP JUMPDEST PUSH2 0x579 JUMP JUMPDEST STOP JUMPDEST PUSH2 0x209 PUSH2 0x3E8 DUP2 JUMP JUMPDEST PUSH2 0x209 PUSH2 0x2EE DUP2 JUMP JUMPDEST PUSH2 0x2B9 PUSH2 0x2DB CALLDATASIZE PUSH1 0x4 PUSH2 0x1489 JUMP JUMPDEST PUSH2 0x68F JUMP JUMPDEST PUSH2 0x2B9 PUSH2 0x2EE CALLDATASIZE PUSH1 0x4 PUSH2 0x142E JUMP JUMPDEST PUSH2 0x6D8 JUMP JUMPDEST PUSH2 0x2B9 PUSH2 0x301 CALLDATASIZE PUSH1 0x4 PUSH2 0x142E JUMP JUMPDEST PUSH2 0x73E JUMP JUMPDEST PUSH2 0x209 PUSH1 0xA DUP2 JUMP JUMPDEST PUSH2 0x209 PUSH2 0x31C CALLDATASIZE PUSH1 0x4 PUSH2 0x142E JUMP JUMPDEST PUSH2 0x768 JUMP JUMPDEST PUSH2 0x2B9 PUSH2 0x83A JUMP JUMPDEST PUSH2 0x209 PUSH2 0x337 CALLDATASIZE PUSH1 0x4 PUSH2 0x142E JUMP JUMPDEST PUSH1 0x1 PUSH1 0x1 PUSH1 0xA0 SHL SUB AND PUSH1 0x0 SWAP1 DUP2 MSTORE PUSH1 0x1 PUSH1 0x20 MSTORE PUSH1 0x40 SWAP1 KECCAK256 SLOAD SWAP1 JUMP JUMPDEST PUSH2 0x365 PUSH2 0x360 CALLDATASIZE PUSH1 0x4 PUSH2 0x142E JUMP JUMPDEST PUSH2 0x84E JUMP JUMPDEST PUSH1 0x40 MLOAD PUSH2 0x213 SWAP2 SWAP1 PUSH1 0x0 PUSH1 0xE0 DUP3 ADD SWAP1 POP DUP3 MLOAD DUP3 MSTORE PUSH1 0x20 DUP4 ADD MLOAD PUSH1 0x20 DUP4 ADD MSTORE PUSH1 0x40 DUP4 ADD MLOAD PUSH1 0x40 DUP4 ADD MSTORE PUSH1 0x60 DUP4 ADD MLOAD PUSH1 0x60 DUP4 ADD MSTORE PUSH1 0x80 DUP4 ADD MLOAD ISZERO ISZERO PUSH1 0x80 DUP4 ADD MSTORE PUSH1 0xA0 DUP4 ADD MLOAD ISZERO ISZERO PUSH1 0xA0 DUP4 ADD MSTORE PUSH1 0xC0 DUP4 ADD MLOAD PUSH1 0xC0 DUP4 ADD MSTORE SWAP3 SWAP2 POP POP JUMP JUMPDEST PUSH2 0x2B9 PUSH2 0x3CD CALLDATASIZE PUSH1 0x4 PUSH2 0x142E JUMP JUMPDEST PUSH2 0x908 JUMP JUMPDEST PUSH2 0x209 PUSH2 0x3E0 CALLDATASIZE PUSH1 0x4 PUSH2 0x142E JUMP JUMPDEST PUSH2 0x982 JUMP JUMPDEST PUSH1 0x0 SLOAD PUSH1 0x1 PUSH1 0x1 PUSH1 0xA0 SHL SUB AND JUMPDEST PUSH1 0x40 MLOAD PUSH1 0x1 PUSH1 0x1 PUSH1 0xA0 SHL SUB SWAP1 SWAP2 AND DUP2 MSTORE PUSH1 0x20 ADD PUSH2 0x213 JUMP JUMPDEST PUSH2 0x2B9 PUSH2 0x418 CALLDATASIZE PUSH1 0x4 PUSH2 0x142E JUMP JUMPDEST PUSH2 0xA1C JUMP JUMPDEST PUSH2 0x209 PUSH1 0x14 DUP2 JUMP JUMPDEST PUSH2 0x438 PUSH2 0x433 CALLDATASIZE PUSH1 0x4 PUSH2 0x1449 JUMP JUMPDEST PUSH2 0xA48 JUMP JUMPDEST PUSH1 0x40 MLOAD SWAP1 ISZERO ISZERO DUP2 MSTORE PUSH1 0x20 ADD PUSH2 0x213 JUMP JUMPDEST PUSH2 0x45B PUSH2 0x456 CALLDATASIZE PUSH1 0x4 PUSH2 0x142E JUMP JUMPDEST PUSH2 0xB1A JUMP JUMPDEST PUSH1 0x40 DUP1 MLOAD SWAP4 DUP5 MSTORE PUSH1 0x20 DUP5 ADD SWAP3 SWAP1 SWAP3 MSTORE SWAP1 DUP3 ADD MSTORE PUSH1 0x60 ADD PUSH2 0x213 JUMP JUMPDEST PUSH2 0x2B9 PUSH2 0x484 CALLDATASIZE PUSH1 0x4 PUSH2 0x153E JUMP JUMPDEST PUSH2 0xBD2 JUMP JUMPDEST PUSH2 0x209 PUSH2 0x497 CALLDATASIZE PUSH1 0x4 PUSH2 0x142E JUMP JUMPDEST PUSH2 0xC67 JUMP JUMPDEST PUSH2 0x438 PUSH2 0x4AA CALLDATASIZE PUSH1 0x4 PUSH2 0x142E JUMP JUMPDEST PUSH1 0x3 PUSH1 0x20 MSTORE PUSH1 0x0 SWAP1 DUP2 MSTORE PUSH1 0x40 SWAP1 KECCAK256 SLOAD PUSH1 0xFF AND DUP2 JUMP JUMPDEST PUSH2 0x2B9 PUSH2 0x4CD CALLDATASIZE PUSH1 0x4 PUSH2 0x153E JUMP JUMPDEST PUSH2 0xD0B JUMP JUMPDEST PUSH2 0x2B9 PUSH2 0x4E0 CALLDATASIZE PUSH1 0x4 PUSH2 0x142E JUMP JUMPDEST PUSH2 0xE73 JUMP JUMPDEST PUSH1 0x2 SLOAD PUSH2 0x3F2 SWAP1 PUSH1 0x1 PUSH1 0x1 PUSH1 0xA0 SHL SUB AND DUP2 JUMP JUMPDEST PUSH2 0x438 PUSH2 0x506 CALLDATASIZE PUSH1 0x4 PUSH2 0x142E JUMP JUMPDEST PUSH2 0xE9C JUMP JUMPDEST PUSH1 0x3 PUSH2 0x209 JUMP JUMPDEST PUSH2 0x525 PUSH2 0x520 CALLDATASIZE PUSH1 0x4 PUSH2 0x142E JUMP JUMPDEST PUSH2 0xF34 JUMP JUMPDEST PUSH1 0x40 MLOAD PUSH2 0x213 SWAP2 SWAP1 PUSH2 0x157A JUMP JUMPDEST PUSH2 0x545 PUSH2 0x540 CALLDATASIZE PUSH1 0x4 PUSH2 0x15BE JUMP JUMPDEST PUSH2 0x112B JUMP JUMPDEST PUSH1 0x40 MLOAD PUSH2 0x213 SWAP3 SWAP2 SWAP1 PUSH2 0x15D7 JUMP JUMPDEST PUSH2 0x2B9 PUSH2 0x561 CALLDATASIZE PUSH1 0x4 PUSH2 0x142E JUMP JUMPDEST PUSH2 0x1216 JUMP JUMPDEST PUSH2 0x2B9 PUSH2 0x574 CALLDATASIZE PUSH1 0x4 PUSH2 0x142E JUMP JUMPDEST PUSH2 0x128F JUMP JUMPDEST PUSH2 0x581 PUSH2 0x12F4 JUMP JUMPDEST PUSH2 0x3E8 DUP2 GT ISZERO PUSH2 0x5D0 JUMPI PUSH1 0x40 MLOAD PUSH3 0x461BCD PUSH1 0xE5 SHL DUP2 MSTORE PUSH1 0x20 PUSH1 0x4 DUP3 ADD MSTORE PUSH1 0x15 PUSH1 0x24 DUP3 ADD MSTORE PUSH21 0x53636F72652065786365656473206D6178696D756D PUSH1 0x58 SHL PUSH1 0x44 DUP3 ADD MSTORE PUSH1 0x64 ADD JUMPDEST PUSH1 0x40 MLOAD DUP1 SWAP2 SUB SWAP1 REVERT JUMPDEST PUSH1 0x1 PUSH1 0x1 PUSH1 0xA0 SHL SUB DUP3 AND PUSH1 0x0 SWAP1 DUP2 MSTORE PUSH1 0x1 PUSH1 0x20 MSTORE PUSH1 0x40 SWAP1 KECCAK256 DUP2 DUP2 SSTORE PUSH2 0x5F4 DUP3 PUSH2 0x134E JUMP JUMPDEST PUSH1 0x5 DUP3 ADD SSTORE TIMESTAMP PUSH1 0x3 DUP3 ADD SSTORE PUSH1 0x40 DUP1 MLOAD DUP4 DUP2 MSTORE PUSH1 0x1 PUSH1 0x20 DUP3 ADD MSTORE PUSH1 0x1 PUSH1 0x1 PUSH1 0xA0 SHL SUB DUP6 AND SWAP2 PUSH32 0xDB3885AFBBA6DEBF9C1BDA35746FFCD3E3C749B3742BE7C9A0904981B5BEFB99 SWAP2 ADD PUSH1 0x40 MLOAD DUP1 SWAP2 SUB SWAP1 LOG2 DUP3 PUSH1 0x1 PUSH1 0x1 PUSH1 0xA0 SHL SUB AND PUSH32 0x22812190FA3C1DB0F86A47A0E51CA5DBC2D016C8F250F0A25F0F21726DB4C7DD DUP3 PUSH1 0x5 ADD SLOAD PUSH1 0x40 MLOAD PUSH2 0x682 SWAP2 DUP2 MSTORE PUSH1 0x20 ADD SWAP1 JUMP JUMPDEST PUSH1 0x40 MLOAD DUP1 SWAP2 SUB SWAP1 LOG2 POP POP POP JUMP JUMPDEST PUSH2 0x697 PUSH2 0x12F4 JUMP JUMPDEST PUSH1 0x40 DUP1 MLOAD PUSH1 0x0 DUP2 MSTORE PUSH1 0x1 PUSH1 0x20 DUP3 ADD MSTORE CALLER SWAP2 PUSH32 0xDB3885AFBBA6DEBF9C1BDA35746FFCD3E3C749B3742BE7C9A0904981B5BEFB99 SWAP2 ADD JUMPDEST PUSH1 0x40 MLOAD DUP1 SWAP2 SUB SWAP1 LOG2 POP POP JUMP JUMPDEST PUSH2 0x6E0 PUSH2 0x12F4 JUMP JUMPDEST PUSH1 0x1 PUSH1 0x1 PUSH1 0xA0 SHL SUB DUP2 AND PUSH1 0x0 DUP2 DUP2 MSTORE PUSH1 0x1 PUSH1 0x20 DUP2 SWAP1 MSTORE PUSH1 0x40 DUP1 DUP4 KECCAK256 PUSH1 0x4 DUP2 ADD DUP1 SLOAD PUSH2 0xFFFF NOT AND SWAP1 SWAP4 OR SWAP1 SWAP3 SSTORE PUSH1 0x5 DUP3 ADD DUP4 SWAP1 SSTORE MLOAD SWAP1 SWAP3 SWAP2 PUSH32 0x7409CB8E690BCD1487FD4FD27DAD3FA92388D201BA6F953631D6D6B26299F849 SWAP2 LOG2 POP POP JUMP JUMPDEST PUSH2 0x746 PUSH2 0x12F4 JUMP JUMPDEST PUSH1 0x2 DUP1 SLOAD PUSH1 0x1 PUSH1 0x1 PUSH1 0xA0 SHL SUB NOT AND PUSH1 0x1 PUSH1 0x1 PUSH1 0xA0 SHL SUB SWAP3 SWAP1 SWAP3 AND SWAP2 SWAP1 SWAP2 OR SWAP1 SSTORE JUMP JUMPDEST PUSH1 0x1 PUSH1 0x1 PUSH1 0xA0 SHL SUB DUP2 AND PUSH1 0x0 SWAP1 DUP2 MSTORE PUSH1 0x1 PUSH1 0x20 DUP2 DUP2 MSTORE PUSH1 0x40 DUP1 DUP5 KECCAK256 DUP2 MLOAD PUSH1 0xE0 DUP2 ADD DUP4 MSTORE DUP2 SLOAD DUP2 MSTORE SWAP4 DUP2 ADD SLOAD SWAP3 DUP5 ADD SWAP3 SWAP1 SWAP3 MSTORE PUSH1 0x2 DUP3 ADD SLOAD SWAP1 DUP4 ADD MSTORE PUSH1 0x3 DUP2 ADD SLOAD PUSH1 0x60 DUP4 ADD MSTORE PUSH1 0x4 DUP2 ADD SLOAD PUSH1 0xFF DUP1 DUP3 AND ISZERO DUP1 ISZERO PUSH1 0x80 DUP7 ADD MSTORE PUSH2 0x100 SWAP1 SWAP3 DIV AND ISZERO ISZERO PUSH1 0xA0 DUP5 ADD MSTORE PUSH1 0x5 SWAP1 SWAP2 ADD SLOAD PUSH1 0xC0 DUP4 ADD MSTORE PUSH2 0x7E5 JUMPI POP PUSH1 0x4 SWAP3 SWAP2 POP POP JUMP JUMPDEST DUP1 PUSH1 0xA0 ADD MLOAD ISZERO PUSH2 0x7F8 JUMPI POP PUSH1 0x0 SWAP3 SWAP2 POP POP JUMP JUMPDEST DUP1 MLOAD PUSH2 0x384 GT PUSH2 0x80B JUMPI POP PUSH1 0x3 SWAP3 SWAP2 POP POP JUMP JUMPDEST DUP1 MLOAD PUSH2 0x2EE GT PUSH2 0x81E JUMPI POP PUSH1 0x2 SWAP3 SWAP2 POP POP JUMP JUMPDEST DUP1 MLOAD PUSH2 0x1F4 GT PUSH2 0x831 JUMPI POP PUSH1 0x1 SWAP3 SWAP2 POP POP JUMP JUMPDEST POP PUSH1 0x0 SWAP3 SWAP2 POP POP JUMP JUMPDEST PUSH2 0x842 PUSH2 0x12F4 JUMP JUMPDEST PUSH2 0x84C PUSH1 0x0 PUSH2 0x13B1 JUMP JUMPDEST JUMP JUMPDEST PUSH2 0x892 PUSH1 0x40 MLOAD DUP1 PUSH1 0xE0 ADD PUSH1 0x40 MSTORE DUP1 PUSH1 0x0 DUP2 MSTORE PUSH1 0x20 ADD PUSH1 0x0 DUP2 MSTORE PUSH1 0x20 ADD PUSH1 0x0 DUP2 MSTORE PUSH1 0x20 ADD PUSH1 0x0 DUP2 MSTORE PUSH1 0x20 ADD PUSH1 0x0 ISZERO ISZERO DUP2 MSTORE PUSH1 0x20 ADD PUSH1 0x0 ISZERO ISZERO DUP2 MSTORE PUSH1 0x20 ADD PUSH1 0x0 DUP2 MSTORE POP SWAP1 JUMP JUMPDEST POP PUSH1 0x1 PUSH1 0x1 PUSH1 0xA0 SHL SUB AND PUSH1 0x0 SWAP1 DUP2 MSTORE PUSH1 0x1 PUSH1 0x20 DUP2 DUP2 MSTORE PUSH1 0x40 SWAP3 DUP4 SWAP1 KECCAK256 DUP4 MLOAD PUSH1 0xE0 DUP2 ADD DUP6 MSTORE DUP2 SLOAD DUP2 MSTORE SWAP3 DUP2 ADD SLOAD SWAP2 DUP4 ADD SWAP2 SWAP1 SWAP2 MSTORE PUSH1 0x2 DUP2 ADD SLOAD SWAP3 DUP3 ADD SWAP3 SWAP1 SWAP3 MSTORE PUSH1 0x3 DUP3 ADD SLOAD PUSH1 0x60 DUP3 ADD MSTORE PUSH1 0x4 DUP3 ADD SLOAD PUSH1 0xFF DUP1 DUP3 AND ISZERO ISZERO PUSH1 0x80 DUP5 ADD MSTORE PUSH2 0x100 SWAP1 SWAP2 DIV AND ISZERO ISZERO PUSH1 0xA0 DUP3 ADD MSTORE PUSH1 0x5 SWAP1 SWAP2 ADD SLOAD PUSH1 0xC0 DUP3 ADD MSTORE SWAP1 JUMP JUMPDEST PUSH2 0x910 PUSH2 0x12F4 JUMP JUMPDEST PUSH1 0x1 PUSH1 0x1 PUSH1 0xA0 SHL SUB DUP2 AND PUSH1 0x0 SWAP1 DUP2 MSTORE PUSH1 0x1 PUSH1 0x20 MSTORE PUSH1 0x40 SWAP1 KECCAK256 PUSH1 0x4 DUP2 ADD DUP1 SLOAD PUSH2 0xFFFF NOT AND SWAP1 SSTORE DUP1 SLOAD PUSH2 0x940 SWAP1 PUSH2 0x134E JUMP JUMPDEST PUSH1 0x5 DUP3 ADD DUP2 SWAP1 SSTORE PUSH1 0x40 MLOAD SWAP1 DUP2 MSTORE PUSH1 0x1 PUSH1 0x1 PUSH1 0xA0 SHL SUB DUP4 AND SWAP1 PUSH32 0x22812190FA3C1DB0F86A47A0E51CA5DBC2D016C8F250F0A25F0F21726DB4C7DD SWAP1 PUSH1 0x20 ADD PUSH2 0x6CC JUMP JUMPDEST PUSH1 0x1 PUSH1 0x1 PUSH1 0xA0 SHL SUB DUP2 AND PUSH1 0x0 SWAP1 DUP2 MSTORE PUSH1 0x1 PUSH1 0x20 DUP2 DUP2 MSTORE PUSH1 0x40 DUP1 DUP5 KECCAK256 DUP2 MLOAD PUSH1 0xE0 DUP2 ADD DUP4 MSTORE DUP2 SLOAD DUP2 MSTORE SWAP4 DUP2 ADD SLOAD SWAP3 DUP5 ADD SWAP3 SWAP1 SWAP3 MSTORE PUSH1 0x2 DUP3 ADD SLOAD SWAP1 DUP4 ADD MSTORE PUSH1 0x3 DUP2 ADD SLOAD PUSH1 0x60 DUP4 ADD MSTORE PUSH1 0x4 DUP2 ADD SLOAD PUSH1 0xFF DUP1 DUP3 AND ISZERO ISZERO PUSH1 0x80 DUP6 ADD MSTORE PUSH2 0x100 SWAP1 SWAP2 DIV AND ISZERO DUP1 ISZERO PUSH1 0xA0 DUP5 ADD MSTORE PUSH1 0x5 SWAP1 SWAP2 ADD SLOAD PUSH1 0xC0 DUP4 ADD MSTORE PUSH2 0x9FF JUMPI POP PUSH1 0x64 SWAP3 SWAP2 POP POP JUMP JUMPDEST DUP1 PUSH1 0x80 ADD MLOAD ISZERO PUSH2 0xA12 JUMPI POP PUSH1 0x0 SWAP3 SWAP2 POP POP JUMP JUMPDEST PUSH1 0xC0 ADD MLOAD SWAP3 SWAP2 POP POP JUMP JUMPDEST PUSH2 0xA24 PUSH2 0x12F4 JUMP JUMPDEST PUSH1 0x1 PUSH1 0x1 PUSH1 0xA0 SHL SUB AND PUSH1 0x0 SWAP1 DUP2 MSTORE PUSH1 0x3 PUSH1 0x20 MSTORE PUSH1 0x40 SWAP1 KECCAK256 DUP1 SLOAD PUSH1 0xFF NOT AND PUSH1 0x1 OR SWAP1 SSTORE JUMP JUMPDEST PUSH1 0x1 PUSH1 0x1 PUSH1 0xA0 SHL SUB DUP3 AND PUSH1 0x0 SWAP1 DUP2 MSTORE PUSH1 0x1 PUSH1 0x20 DUP2 DUP2 MSTORE PUSH1 0x40 DUP1 DUP5 KECCAK256 DUP2 MLOAD PUSH1 0xE0 DUP2 ADD DUP4 MSTORE DUP2 SLOAD DUP2 MSTORE SWAP4 DUP2 ADD SLOAD SWAP3 DUP5 ADD SWAP3 SWAP1 SWAP3 MSTORE PUSH1 0x2 DUP3 ADD SLOAD SWAP1 DUP4 ADD MSTORE PUSH1 0x3 DUP2 ADD SLOAD PUSH1 0x60 DUP4 ADD MSTORE PUSH1 0x4 DUP2 ADD SLOAD PUSH1 0xFF DUP1 DUP3 AND ISZERO ISZERO PUSH1 0x80 DUP6 ADD MSTORE PUSH2 0x100 SWAP1 SWAP2 DIV AND ISZERO ISZERO PUSH1 0xA0 DUP4 ADD MSTORE PUSH1 0x5 ADD SLOAD PUSH1 0xC0 DUP3 ADD MSTORE DUP3 DUP3 SUB PUSH2 0xACB JUMPI PUSH1 0x20 ADD MLOAD PUSH1 0x1 GT ISZERO SWAP1 POP PUSH2 0xB14 JUMP JUMPDEST DUP3 PUSH1 0x1 SUB PUSH2 0xAE2 JUMPI PUSH1 0x20 ADD MLOAD PUSH1 0x5 GT ISZERO SWAP1 POP PUSH2 0xB14 JUMP JUMPDEST DUP3 PUSH1 0x2 SUB PUSH2 0xB0E JUMPI PUSH1 0xA DUP2 PUSH1 0x20 ADD MLOAD LT ISZERO DUP1 ISZERO PUSH2 0xB06 JUMPI POP DUP1 PUSH1 0x20 ADD MLOAD DUP2 PUSH1 0x40 ADD MLOAD EQ JUMPDEST SWAP2 POP POP PUSH2 0xB14 JUMP JUMPDEST PUSH1 0x0 SWAP2 POP POP JUMPDEST SWAP3 SWAP2 POP POP JUMP JUMPDEST PUSH1 0x1 PUSH1 0x1 PUSH1 0xA0 SHL SUB DUP2 AND PUSH1 0x0 SWAP1 DUP2 MSTORE PUSH1 0x1 PUSH1 0x20 DUP2 DUP2 MSTORE PUSH1 0x40 DUP1 DUP5 KECCAK256 DUP2 MLOAD PUSH1 0xE0 DUP2 ADD DUP4 MSTORE DUP2 SLOAD DUP2 MSTORE SWAP4 DUP2 ADD SLOAD SWAP3 DUP5 ADD DUP4 SWAP1 MSTORE PUSH1 0x2 DUP2 ADD SLOAD SWAP2 DUP5 ADD SWAP2 SWAP1 SWAP2 MSTORE PUSH1 0x3 DUP2 ADD SLOAD PUSH1 0x60 DUP5 ADD MSTORE PUSH1 0x4 DUP2 ADD SLOAD PUSH1 0xFF DUP1 DUP3 AND ISZERO ISZERO PUSH1 0x80 DUP7 ADD MSTORE PUSH2 0x100 SWAP1 SWAP2 DIV AND ISZERO ISZERO PUSH1 0xA0 DUP5 ADD MSTORE PUSH1 0x5 ADD SLOAD PUSH1 0xC0 DUP4 ADD MSTORE DUP3 SWAP2 DUP3 SWAP2 DUP3 SWAP1 PUSH2 0xB9A JUMPI PUSH1 0x0 PUSH2 0xBB9 JUMP JUMPDEST PUSH1 0x20 DUP3 ADD MLOAD PUSH1 0x40 DUP4 ADD MLOAD PUSH2 0xBAF SWAP1 PUSH1 0x64 PUSH2 0x1642 JUMP JUMPDEST PUSH2 0xBB9 SWAP2 SWAP1 PUSH2 0x1659 JUMP JUMPDEST PUSH1 0x20 DUP4 ADD MLOAD PUSH1 0x40 SWAP1 SWAP4 ADD MLOAD SWAP3 SWAP8 SWAP3 SWAP7 POP SWAP5 POP SWAP1 SWAP3 POP POP POP JUMP JUMPDEST PUSH2 0xBDA PUSH2 0x12F4 JUMP JUMPDEST PUSH1 0x1 PUSH1 0x1 PUSH1 0xA0 SHL SUB DUP3 AND PUSH1 0x0 SWAP1 DUP2 MSTORE PUSH1 0x1 PUSH1 0x20 MSTORE PUSH1 0x40 SWAP1 KECCAK256 PUSH1 0x4 DUP2 ADD DUP1 SLOAD DUP4 ISZERO DUP1 ISZERO PUSH2 0x100 MUL PUSH2 0xFF00 NOT SWAP1 SWAP3 AND SWAP2 SWAP1 SWAP2 OR SWAP1 SWAP2 SSTORE PUSH2 0xC57 JUMPI PUSH1 0x4 DUP2 ADD DUP1 SLOAD PUSH1 0xFF NOT AND SWAP1 SSTORE PUSH1 0x40 MLOAD PUSH1 0x1 PUSH1 0x1 PUSH1 0xA0 SHL SUB DUP5 AND SWAP1 PUSH32 0x7F8B7DC89DAE85811A7A85800B892B5816AD5D381C856F1B56490F8FC470C9CB SWAP1 PUSH1 0x0 SWAP1 LOG2 POP POP POP JUMP JUMPDEST PUSH1 0x4 ADD DUP1 SLOAD PUSH2 0xFFFF NOT AND SWAP1 SSTORE POP POP JUMP JUMPDEST PUSH1 0x1 PUSH1 0x1 PUSH1 0xA0 SHL SUB DUP2 AND PUSH1 0x0 SWAP1 DUP2 MSTORE PUSH1 0x1 PUSH1 0x20 DUP2 DUP2 MSTORE PUSH1 0x40 DUP1 DUP5 KECCAK256 DUP2 MLOAD PUSH1 0xE0 DUP2 ADD DUP4 MSTORE DUP2 SLOAD DUP2 MSTORE SWAP4 DUP2 ADD SLOAD SWAP3 DUP5 ADD DUP4 SWAP1 MSTORE PUSH1 0x2 DUP2 ADD SLOAD SWAP2 DUP5 ADD SWAP2 SWAP1 SWAP2 MSTORE PUSH1 0x3 DUP2 ADD SLOAD PUSH1 0x60 DUP5 ADD MSTORE PUSH1 0x4 DUP2 ADD SLOAD PUSH1 0xFF DUP1 DUP3 AND ISZERO ISZERO PUSH1 0x80 DUP7 ADD MSTORE PUSH2 0x100 SWAP1 SWAP2 DIV AND ISZERO ISZERO PUSH1 0xA0 DUP5 ADD MSTORE PUSH1 0x5 ADD SLOAD PUSH1 0xC0 DUP4 ADD MSTORE DUP3 SUB PUSH2 0xCE5 JUMPI POP PUSH1 0x0 SWAP3 SWAP2 POP POP JUMP JUMPDEST PUSH1 0x20 DUP2 ADD MLOAD PUSH1 0x40 DUP3 ADD MLOAD PUSH2 0xCFA SWAP1 PUSH1 0x64 PUSH2 0x1642 JUMP JUMPDEST PUSH2 0xD04 SWAP2 SWAP1 PUSH2 0x1659 JUMP JUMPDEST SWAP4 SWAP3 POP POP POP JUMP JUMPDEST PUSH1 0x2 SLOAD PUSH1 0x1 PUSH1 0x1 PUSH1 0xA0 SHL SUB AND CALLER EQ DUP1 PUSH2 0xD33 JUMPI POP CALLER PUSH1 0x0 SWAP1 DUP2 MSTORE PUSH1 0x3 PUSH1 0x20 MSTORE PUSH1 0x40 SWAP1 KECCAK256 SLOAD PUSH1 0xFF AND JUMPDEST PUSH2 0xD70 JUMPI PUSH1 0x40 MLOAD PUSH3 0x461BCD PUSH1 0xE5 SHL DUP2 MSTORE PUSH1 0x20 PUSH1 0x4 DUP3 ADD MSTORE PUSH1 0xE PUSH1 0x24 DUP3 ADD MSTORE PUSH14 0x139BDD08185D5D1A1BDC9A5E9959 PUSH1 0x92 SHL PUSH1 0x44 DUP3 ADD MSTORE PUSH1 0x64 ADD PUSH2 0x5C7 JUMP JUMPDEST PUSH1 0x1 PUSH1 0x1 PUSH1 0xA0 SHL SUB DUP3 AND PUSH1 0x0 SWAP1 DUP2 MSTORE PUSH1 0x1 PUSH1 0x20 MSTORE PUSH1 0x40 DUP2 KECCAK256 PUSH1 0x3 DUP2 ADD SLOAD SWAP1 SWAP2 SUB PUSH2 0xDA1 JUMPI PUSH2 0x1F4 DUP2 SSTORE PUSH1 0x64 PUSH1 0x5 DUP3 ADD SSTORE JUMPDEST PUSH1 0x1 DUP2 ADD DUP1 SLOAD SWAP1 PUSH1 0x0 PUSH2 0xDB3 DUP4 PUSH2 0x167B JUMP JUMPDEST SWAP2 SWAP1 POP SSTORE POP DUP2 ISZERO PUSH2 0xDF8 JUMPI PUSH1 0x2 DUP2 ADD DUP1 SLOAD SWAP1 PUSH1 0x0 PUSH2 0xDD0 DUP4 PUSH2 0x167B JUMP JUMPDEST SWAP2 SWAP1 POP SSTORE POP PUSH2 0xDF1 PUSH2 0x3E8 PUSH1 0xA DUP4 PUSH1 0x0 ADD SLOAD PUSH2 0xDEC SWAP2 SWAP1 PUSH2 0x1694 JUMP JUMPDEST PUSH2 0x1401 JUMP JUMPDEST DUP2 SSTORE PUSH2 0xE19 JUMP JUMPDEST DUP1 SLOAD PUSH1 0x14 LT PUSH2 0xE08 JUMPI PUSH1 0x0 PUSH2 0xE16 JUMP JUMPDEST DUP1 SLOAD PUSH2 0xE16 SWAP1 PUSH1 0x14 SWAP1 PUSH2 0x16A7 JUMP JUMPDEST DUP2 SSTORE JUMPDEST DUP1 SLOAD PUSH2 0xE24 SWAP1 PUSH2 0x134E JUMP JUMPDEST PUSH1 0x5 DUP3 ADD SSTORE TIMESTAMP PUSH1 0x3 DUP3 ADD SSTORE DUP1 SLOAD PUSH1 0x40 DUP1 MLOAD SWAP2 DUP3 MSTORE DUP4 ISZERO ISZERO PUSH1 0x20 DUP4 ADD MSTORE PUSH1 0x1 PUSH1 0x1 PUSH1 0xA0 SHL SUB DUP6 AND SWAP2 PUSH32 0xDB3885AFBBA6DEBF9C1BDA35746FFCD3E3C749B3742BE7C9A0904981B5BEFB99 SWAP2 ADD PUSH2 0x682 JUMP JUMPDEST PUSH2 0xE7B PUSH2 0x12F4 JUMP JUMPDEST PUSH1 0x1 PUSH1 0x1 PUSH1 0xA0 SHL SUB AND PUSH1 0x0 SWAP1 DUP2 MSTORE PUSH1 0x3 PUSH1 0x20 MSTORE PUSH1 0x40 SWAP1 KECCAK256 DUP1 SLOAD PUSH1 0xFF NOT AND SWAP1 SSTORE JUMP JUMPDEST PUSH1 0x1 PUSH1 0x1 PUSH1 0xA0 SHL SUB DUP2 AND PUSH1 0x0 SWAP1 DUP2 MSTORE PUSH1 0x1 PUSH1 0x20 DUP2 DUP2 MSTORE PUSH1 0x40 DUP1 DUP5 KECCAK256 DUP2 MLOAD PUSH1 0xE0 DUP2 ADD DUP4 MSTORE DUP2 SLOAD DUP2 MSTORE SWAP4 DUP2 ADD SLOAD SWAP3 DUP5 ADD SWAP3 SWAP1 SWAP3 MSTORE PUSH1 0x2 DUP3 ADD SLOAD SWAP1 DUP4 ADD MSTORE PUSH1 0x3 DUP2 ADD SLOAD PUSH1 0x60 DUP4 ADD MSTORE PUSH1 0x4 DUP2 ADD SLOAD PUSH1 0xFF DUP1 DUP3 AND ISZERO ISZERO PUSH1 0x80 DUP6 ADD MSTORE PUSH2 0x100 SWAP1 SWAP2 DIV AND ISZERO DUP1 ISZERO PUSH1 0xA0 DUP5 ADD MSTORE PUSH1 0x5 SWAP1 SWAP2 ADD SLOAD PUSH1 0xC0 DUP4 ADD MSTORE PUSH2 0xF19 JUMPI POP PUSH1 0x1 SWAP3 SWAP2 POP POP JUMP JUMPDEST DUP1 PUSH1 0x80 ADD MLOAD DUP1 PUSH2 0xF2C JUMPI POP DUP1 MLOAD PUSH2 0x2EE GT ISZERO JUMPDEST ISZERO SWAP4 SWAP3 POP POP POP JUMP JUMPDEST PUSH1 0x1 PUSH1 0x1 PUSH1 0xA0 SHL SUB DUP2 AND PUSH1 0x0 SWAP1 DUP2 MSTORE PUSH1 0x1 PUSH1 0x20 DUP2 DUP2 MSTORE PUSH1 0x40 DUP1 DUP5 KECCAK256 DUP2 MLOAD PUSH1 0xE0 DUP2 ADD DUP4 MSTORE DUP2 SLOAD DUP2 MSTORE SWAP4 DUP2 ADD SLOAD DUP5 DUP5 ADD MSTORE PUSH1 0x2 DUP2 ADD SLOAD DUP5 DUP4 ADD MSTORE PUSH1 0x3 DUP1 DUP3 ADD SLOAD PUSH1 0x60 DUP1 DUP8 ADD SWAP2 SWAP1 SWAP2 MSTORE PUSH1 0x4 DUP4 ADD SLOAD PUSH1 0xFF DUP1 DUP3 AND ISZERO ISZERO PUSH1 0x80 DUP1 DUP11 ADD SWAP2 SWAP1 SWAP2 MSTORE PUSH2 0x100 SWAP1 SWAP3 DIV AND ISZERO ISZERO PUSH1 0xA0 DUP9 ADD MSTORE PUSH1 0x5 SWAP1 SWAP4 ADD SLOAD PUSH1 0xC0 DUP8 ADD MSTORE DUP4 MLOAD DUP3 DUP2 MSTORE SWAP3 DUP4 ADD SWAP1 SWAP4 MSTORE SWAP2 SWAP5 SWAP3 SWAP1 SWAP2 SWAP1 DUP3 ADD DUP6 DUP1 CALLDATASIZE DUP4 CALLDATACOPY ADD SWAP1 POP POP SWAP1 POP PUSH1 0x0 PUSH1 0x1 DUP4 PUSH1 0x20 ADD MLOAD LT PUSH2 0x1001 JUMPI PUSH1 0x0 DUP3 DUP3 PUSH2 0xFE2 DUP2 PUSH2 0x167B JUMP JUMPDEST SWAP4 POP DUP2 MLOAD DUP2 LT PUSH2 0xFF4 JUMPI PUSH2 0xFF4 PUSH2 0x16BA JUMP JUMPDEST PUSH1 0x20 MUL PUSH1 0x20 ADD ADD DUP2 DUP2 MSTORE POP POP JUMPDEST PUSH1 0x5 DUP4 PUSH1 0x20 ADD MLOAD LT PUSH2 0x1039 JUMPI PUSH1 0x1 DUP3 DUP3 PUSH2 0x101A DUP2 PUSH2 0x167B JUMP JUMPDEST SWAP4 POP DUP2 MLOAD DUP2 LT PUSH2 0x102C JUMPI PUSH2 0x102C PUSH2 0x16BA JUMP JUMPDEST PUSH1 0x20 MUL PUSH1 0x20 ADD ADD DUP2 DUP2 MSTORE POP POP JUMPDEST PUSH1 0xA DUP4 PUSH1 0x20 ADD MLOAD LT ISZERO DUP1 ISZERO PUSH2 0x1055 JUMPI POP DUP3 PUSH1 0x20 ADD MLOAD DUP4 PUSH1 0x40 ADD MLOAD EQ JUMPDEST ISZERO PUSH2 0x1086 JUMPI PUSH1 0x2 DUP3 DUP3 PUSH2 0x1067 DUP2 PUSH2 0x167B JUMP JUMPDEST SWAP4 POP DUP2 MLOAD DUP2 LT PUSH2 0x1079 JUMPI PUSH2 0x1079 PUSH2 0x16BA JUMP JUMPDEST PUSH1 0x20 MUL PUSH1 0x20 ADD ADD DUP2 DUP2 MSTORE POP POP JUMPDEST PUSH1 0x0 DUP2 PUSH8 0xFFFFFFFFFFFFFFFF DUP2 GT ISZERO PUSH2 0x10A1 JUMPI PUSH2 0x10A1 PUSH2 0x1473 JUMP JUMPDEST PUSH1 0x40 MLOAD SWAP1 DUP1 DUP3 MSTORE DUP1 PUSH1 0x20 MUL PUSH1 0x20 ADD DUP3 ADD PUSH1 0x40 MSTORE DUP1 ISZERO PUSH2 0x10CA JUMPI DUP2 PUSH1 0x20 ADD PUSH1 0x20 DUP3 MUL DUP1 CALLDATASIZE DUP4 CALLDATACOPY ADD SWAP1 POP JUMPDEST POP SWAP1 POP PUSH1 0x0 JUMPDEST DUP3 DUP2 LT ISZERO PUSH2 0x1121 JUMPI DUP4 DUP2 DUP2 MLOAD DUP2 LT PUSH2 0x10EA JUMPI PUSH2 0x10EA PUSH2 0x16BA JUMP JUMPDEST PUSH1 0x20 MUL PUSH1 0x20 ADD ADD MLOAD DUP3 DUP3 DUP2 MLOAD DUP2 LT PUSH2 0x1104 JUMPI PUSH2 0x1104 PUSH2 0x16BA JUMP JUMPDEST PUSH1 0x20 SWAP1 DUP2 MUL SWAP2 SWAP1 SWAP2 ADD ADD MSTORE DUP1 PUSH2 0x1119 DUP2 PUSH2 0x167B JUMP JUMPDEST SWAP2 POP POP PUSH2 0x10D0 JUMP JUMPDEST POP SWAP6 SWAP5 POP POP POP POP POP JUMP JUMPDEST PUSH1 0x60 PUSH1 0x0 DUP3 PUSH1 0x0 SUB PUSH2 0x1163 JUMPI POP POP PUSH1 0x40 DUP1 MLOAD DUP1 DUP3 ADD SWAP1 SWAP2 MSTORE PUSH1 0xC DUP2 MSTORE PUSH12 0x119A5C9CDD0814995B9D185B PUSH1 0xA2 SHL PUSH1 0x20 DUP3 ADD MSTORE SWAP2 PUSH1 0x1 SWAP2 POP JUMP JUMPDEST DUP3 PUSH1 0x1 SUB PUSH2 0x1198 JUMPI POP POP PUSH1 0x40 DUP1 MLOAD DUP1 DUP3 ADD SWAP1 SWAP2 MSTORE PUSH1 0xD DUP2 MSTORE PUSH13 0x52656E74616C204E6F76696365 PUSH1 0x98 SHL PUSH1 0x20 DUP3 ADD MSTORE SWAP2 PUSH1 0x5 SWAP2 POP JUMP JUMPDEST DUP3 PUSH1 0x2 SUB PUSH2 0x11CE JUMPI POP POP PUSH1 0x40 DUP1 MLOAD DUP1 DUP3 ADD SWAP1 SWAP2 MSTORE PUSH1 0xE DUP2 MSTORE PUSH14 0x14195C999958DD08149958DBDC99 PUSH1 0x92 SHL PUSH1 0x20 DUP3 ADD MSTORE SWAP2 PUSH1 0xA SWAP2 POP JUMP JUMPDEST PUSH1 0x40 MLOAD PUSH3 0x461BCD PUSH1 0xE5 SHL DUP2 MSTORE PUSH1 0x20 PUSH1 0x4 DUP3 ADD MSTORE PUSH1 0x19 PUSH1 0x24 DUP3 ADD MSTORE PUSH32 0x496E76616C696420616368696576656D656E7420696E64657800000000000000 PUSH1 0x44 DUP3 ADD MSTORE PUSH1 0x64 ADD PUSH2 0x5C7 JUMP JUMPDEST PUSH2 0x121E PUSH2 0x12F4 JUMP JUMPDEST PUSH1 0x1 PUSH1 0x1 PUSH1 0xA0 SHL SUB DUP2 AND PUSH2 0x1283 JUMPI PUSH1 0x40 MLOAD PUSH3 0x461BCD PUSH1 0xE5 SHL DUP2 MSTORE PUSH1 0x20 PUSH1 0x4 DUP3 ADD MSTORE PUSH1 0x26 PUSH1 0x24 DUP3 ADD MSTORE PUSH32 0x4F776E61626C653A206E6577206F776E657220697320746865207A65726F2061 PUSH1 0x44 DUP3 ADD MSTORE PUSH6 0x646472657373 PUSH1 0xD0 SHL PUSH1 0x64 DUP3 ADD MSTORE PUSH1 0x84 ADD PUSH2 0x5C7 JUMP JUMPDEST PUSH2 0x128C DUP2 PUSH2 0x13B1 JUMP JUMPDEST POP JUMP JUMPDEST PUSH2 0x1297 PUSH2 0x12F4 JUMP JUMPDEST PUSH1 0x1 PUSH1 0x1 PUSH1 0xA0 SHL SUB DUP2 AND PUSH1 0x0 DUP2 DUP2 MSTORE PUSH1 0x1 PUSH1 0x20 MSTORE PUSH1 0x40 DUP1 DUP3 KECCAK256 PUSH1 0x4 DUP2 ADD DUP1 SLOAD PUSH2 0xFFFF NOT AND PUSH2 0x100 OR SWAP1 SSTORE PUSH1 0x64 PUSH1 0x5 DUP3 ADD SSTORE SWAP1 MLOAD SWAP1 SWAP3 SWAP2 PUSH32 0x7F8B7DC89DAE85811A7A85800B892B5816AD5D381C856F1B56490F8FC470C9CB SWAP2 LOG2 POP POP JUMP JUMPDEST PUSH1 0x0 SLOAD PUSH1 0x1 PUSH1 0x1 PUSH1 0xA0 SHL SUB AND CALLER EQ PUSH2 0x84C JUMPI PUSH1 0x40 MLOAD PUSH3 0x461BCD PUSH1 0xE5 SHL DUP2 MSTORE PUSH1 0x20 PUSH1 0x4 DUP3 ADD DUP2 SWAP1 MSTORE PUSH1 0x24 DUP3 ADD MSTORE PUSH32 0x4F776E61626C653A2063616C6C6572206973206E6F7420746865206F776E6572 PUSH1 0x44 DUP3 ADD MSTORE PUSH1 0x64 ADD PUSH2 0x5C7 JUMP JUMPDEST PUSH1 0x0 PUSH2 0x2EE DUP3 LT PUSH2 0x1361 JUMPI POP PUSH1 0x0 SWAP2 SWAP1 POP JUMP JUMPDEST PUSH2 0x1F4 DUP3 LT PUSH2 0x13A4 JUMPI PUSH2 0x1378 PUSH2 0x1F4 PUSH2 0x2EE PUSH2 0x16A7 JUMP JUMPDEST PUSH2 0x1384 PUSH2 0x1F4 DUP5 PUSH2 0x16A7 JUMP JUMPDEST PUSH2 0x138F SWAP1 PUSH1 0x64 PUSH2 0x1642 JUMP JUMPDEST PUSH2 0x1399 SWAP2 SWAP1 PUSH2 0x1659 JUMP JUMPDEST PUSH2 0xB14 SWAP1 PUSH1 0x64 PUSH2 0x16A7 JUMP JUMPDEST POP PUSH1 0x64 SWAP2 SWAP1 POP JUMP JUMPDEST SWAP2 SWAP1 POP JUMP JUMPDEST PUSH1 0x0 DUP1 SLOAD PUSH1 0x1 PUSH1 0x1 PUSH1 0xA0 SHL SUB DUP4 DUP2 AND PUSH1 0x1 PUSH1 0x1 PUSH1 0xA0 SHL SUB NOT DUP4 AND DUP2 OR DUP5 SSTORE PUSH1 0x40 MLOAD SWAP2 SWAP1 SWAP3 AND SWAP3 DUP4 SWAP2 PUSH32 0x8BE0079C531659141344CD1FD0A4F28419497F9722A3DAAFE3B4186F6B6457E0 SWAP2 SWAP1 LOG3 POP POP JUMP JUMPDEST PUSH1 0x0 DUP2 DUP4 LT PUSH2 0x1410 JUMPI DUP2 PUSH2 0xD04 JUMP JUMPDEST POP SWAP1 SWAP2 SWAP1 POP JUMP JUMPDEST DUP1 CALLDATALOAD PUSH1 0x1 PUSH1 0x1 PUSH1 0xA0 SHL SUB DUP2 AND DUP2 EQ PUSH2 0x13AC JUMPI PUSH1 0x0 DUP1 REVERT JUMPDEST PUSH1 0x0 PUSH1 0x20 DUP3 DUP5 SUB SLT ISZERO PUSH2 0x1440 JUMPI PUSH1 0x0 DUP1 REVERT JUMPDEST PUSH2 0xD04 DUP3 PUSH2 0x1417 JUMP JUMPDEST PUSH1 0x0 DUP1 PUSH1 0x40 DUP4 DUP6 SUB SLT ISZERO PUSH2 0x145C JUMPI PUSH1 0x0 DUP1 REVERT JUMPDEST PUSH2 0x1465 DUP4 PUSH2 0x1417 JUMP JUMPDEST SWAP5 PUSH1 0x20 SWAP4 SWAP1 SWAP4 ADD CALLDATALOAD SWAP4 POP POP POP JUMP JUMPDEST PUSH4 0x4E487B71 PUSH1 0xE0 SHL PUSH1 0x0 MSTORE PUSH1 0x41 PUSH1 0x4 MSTORE PUSH1 0x24 PUSH1 0x0 REVERT JUMPDEST PUSH1 0x0 DUP1 PUSH1 0x40 DUP4 DUP6 SUB SLT ISZERO PUSH2 0x149C JUMPI PUSH1 0x0 DUP1 REVERT JUMPDEST DUP3 CALLDATALOAD PUSH8 0xFFFFFFFFFFFFFFFF DUP1 DUP3 GT ISZERO PUSH2 0x14B4 JUMPI PUSH1 0x0 DUP1 REVERT JUMPDEST DUP2 DUP6 ADD SWAP2 POP DUP6 PUSH1 0x1F DUP4 ADD SLT PUSH2 0x14C8 JUMPI PUSH1 0x0 DUP1 REVERT JUMPDEST DUP2 CALLDATALOAD DUP2 DUP2 GT ISZERO PUSH2 0x14DA JUMPI PUSH2 0x14DA PUSH2 0x1473 JUMP JUMPDEST PUSH1 0x40 MLOAD PUSH1 0x1F DUP3 ADD PUSH1 0x1F NOT SWAP1 DUP2 AND PUSH1 0x3F ADD AND DUP2 ADD SWAP1 DUP4 DUP3 GT DUP2 DUP4 LT OR ISZERO PUSH2 0x1502 JUMPI PUSH2 0x1502 PUSH2 0x1473 JUMP JUMPDEST DUP2 PUSH1 0x40 MSTORE DUP3 DUP2 MSTORE DUP9 PUSH1 0x20 DUP5 DUP8 ADD ADD GT ISZERO PUSH2 0x151B JUMPI PUSH1 0x0 DUP1 REVERT JUMPDEST DUP3 PUSH1 0x20 DUP7 ADD PUSH1 0x20 DUP4 ADD CALLDATACOPY PUSH1 0x0 PUSH1 0x20 SWAP4 DUP3 ADD DUP5 ADD MSTORE SWAP9 SWAP7 SWAP1 SWAP2 ADD CALLDATALOAD SWAP7 POP POP POP POP POP POP JUMP JUMPDEST PUSH1 0x0 DUP1 PUSH1 0x40 DUP4 DUP6 SUB SLT ISZERO PUSH2 0x1551 JUMPI PUSH1 0x0 DUP1 REVERT JUMPDEST PUSH2 0x155A DUP4 PUSH2 0x1417 JUMP JUMPDEST SWAP2 POP PUSH1 0x20 DUP4 ADD CALLDATALOAD DUP1 ISZERO ISZERO DUP2 EQ PUSH2 0x156F JUMPI PUSH1 0x0 DUP1 REVERT JUMPDEST DUP1 SWAP2 POP POP SWAP3 POP SWAP3 SWAP1 POP JUMP JUMPDEST PUSH1 0x20 DUP1 DUP3 MSTORE DUP3 MLOAD DUP3 DUP3 ADD DUP2 SWAP1 MSTORE PUSH1 0x0 SWAP2 SWAP1 DUP5 DUP3 ADD SWAP1 PUSH1 0x40 DUP6 ADD SWAP1 DUP5 JUMPDEST DUP2 DUP2 LT ISZERO PUSH2 0x15B2 JUMPI DUP4 MLOAD DUP4 MSTORE SWAP3 DUP5 ADD SWAP3 SWAP2 DUP5 ADD SWAP2 PUSH1 0x1 ADD PUSH2 0x1596 JUMP JUMPDEST POP SWAP1 SWAP7 SWAP6 POP POP POP POP POP POP JUMP JUMPDEST PUSH1 0x0 PUSH1 0x20 DUP3 DUP5 SUB SLT ISZERO PUSH2 0x15D0 JUMPI PUSH1 0x0 DUP1 REVERT JUMPDEST POP CALLDATALOAD SWAP2 SWAP1 POP JUMP JUMPDEST PUSH1 0x40 DUP2 MSTORE PUSH1 0x0 DUP4 MLOAD DUP1 PUSH1 0x40 DUP5 ADD MSTORE PUSH1 0x0 JUMPDEST DUP2 DUP2 LT ISZERO PUSH2 0x1605 JUMPI PUSH1 0x20 DUP2 DUP8 ADD DUP2 ADD MLOAD PUSH1 0x60 DUP7 DUP5 ADD ADD MSTORE ADD PUSH2 0x15E8 JUMP JUMPDEST POP PUSH1 0x0 PUSH1 0x60 DUP3 DUP6 ADD ADD MSTORE PUSH1 0x60 PUSH1 0x1F NOT PUSH1 0x1F DUP4 ADD AND DUP5 ADD ADD SWAP2 POP POP DUP3 PUSH1 0x20 DUP4 ADD MSTORE SWAP4 SWAP3 POP POP POP JUMP JUMPDEST PUSH4 0x4E487B71 PUSH1 0xE0 SHL PUSH1 0x0 MSTORE PUSH1 0x11 PUSH1 0x4 MSTORE PUSH1 0x24 PUSH1 0x0 REVERT JUMPDEST DUP1 DUP3 MUL DUP2 ISZERO DUP3 DUP3 DIV DUP5 EQ OR PUSH2 0xB14 JUMPI PUSH2 0xB14 PUSH2 0x162C JUMP JUMPDEST PUSH1 0x0 DUP3 PUSH2 0x1676 JUMPI PUSH4 0x4E487B71 PUSH1 0xE0 SHL PUSH1 0x0 MSTORE PUSH1 0x12 PUSH1 0x4 MSTORE PUSH1 0x24 PUSH1 0x0 REVERT JUMPDEST POP DIV SWAP1 JUMP JUMPDEST PUSH1 0x0 PUSH1 0x1 DUP3 ADD PUSH2 0x168D JUMPI PUSH2 0x168D PUSH2 0x162C JUMP JUMPDEST POP PUSH1 0x1 ADD SWAP1 JUMP JUMPDEST DUP1 DUP3 ADD DUP1 DUP3 GT ISZERO PUSH2 0xB14 JUMPI PUSH2 0xB14 PUSH2 0x162C JUMP JUMPDEST DUP2 DUP2 SUB DUP2 DUP2 GT ISZERO PUSH2 0xB14 JUMPI PUSH2 0xB14 PUSH2 0x162C JUMP JUMPDEST PUSH4 0x4E487B71 PUSH1 0xE0 SHL PUSH1 0x0 MSTORE PUSH1 0x32 PUSH1 0x4 MSTORE PUSH1 0x24 PUSH1 0x0 REVERT INVALID LOG2 PUSH5 0x6970667358 0x22 SLT KECCAK256 CREATE2 0xC7 SELFBALANCE 0xDF 0xCF SWAP1 0xE2 PUSH5 0x974A167EDC DUP8 0x5D 0xD9 0xA6 0xF9 0xBC DUP13 EQ ADDMOD 0xE5 SIGNEXTEND PUSH31 0x75F2A8A26009B864736F6C6343000813003300000000000000000000000000 "},"methodIdentifiers":{"COLLATERAL_FREE_THRESHOLD()":"46ff0967","MAX_SCORE()":"27ff6223","REDUCED_COLLATERAL_THRESHOLD()":"01817435","REPUTATION_GAIN()":"6a01703f","REPUTATION_LOSS()":"a0d541fa","addAuthorizedContract(address)":"98eaa4a7","authorizedContracts(address)":"d5b9221b","blacklistUser(address)":"fcbca456","createAchievement(string,uint256)":"4a3b6c2f","getAchievement(uint256)":"f2ccc543","getCollateralMultiplier(address)":"85196798","getRentalStats(address)":"b6b3a261","getReputationData(address)":"7a00d3c4","getReputationScore(address)":"75a67d5c","getReputationTier(address)":"6be2cefb","getSuccessRate(address)":"cb510373","getTotalAchievements()":"f0860c01","getUserAchievements(address)":"f09153c4","getUserReputation(address)":"baccbfdb","hasAchievement(address,uint256)":"ab5eba16","owner()":"8da5cb5b","removeAuthorizedContract(address)":"e6b165ed","removeUserFromLists(address)":"7b8b5f72","renounceOwnership()":"715018a6","rentalContract()":"e8f4e9d4","reputations(address)":"06fa15a7","requiresCollateral(address)":"eeade3a2","setRentalContract(address)":"5a63427e","setReputationScore(address,uint256)":"18870e35","setUserBlacklisted(address,bool)":"bddb7c83","transferOwnership(address)":"f2fde38b","updateReputation(address,bool)":"e2c13e32","whitelistUser(address)":"4a4c560d"}}}}}