{"contracts/utils/MultiCaller.sol":{"MultiCaller":{"abi":[{"inputs":[],"name":"MULTICALL_V3","outputs":[{"internalType":"address","name":"","type":"address"}],"stateMutability":"view","type":"function"},{"inputs":[{"internalType":"address","name":"nftContract","type":"address"},{"internalType":"uint256","name":"tokenId","type":"uint256"},{"internalType":"address","name":"user","type":"address"},{"internalType":"uint64","name":"expires","type":"uint64"}],"name":"createRentalCalls","outputs":[{"components":[{"internalType":"address","name":"target","type":"address"},{"internalType":"bytes","name":"callData","type":"bytes"}],"internalType":"struct IMultiCall.Call[]","name":"","type":"tuple[]"}],"stateMutability":"view","type":"function"},{"inputs":[{"components":[{"internalType":"address","name":"target","type":"address"},{"internalType":"bytes","name":"callData","type":"bytes"}],"internalType":"struct IMultiCall.Call[]","name":"calls","type":"tuple[]"}],"name":"multiCall","outputs":[{"internalType":"bytes[]","name":"results","type":"bytes[]"}],"stateMutability":"nonpayable","type":"function"}],"evm":{"bytecode":{"linkReferences":{},"object":"608060405234801561001057600080fd5b50610793806100206000396000f3fe608060405234801561001057600080fd5b50600436106100415760003560e01c80631e8c992614610046578063bdedd7051461006f578063df0525d71461008f575b600080fd5b6100596100543660046102ce565b6100c2565b604051610066919061037a565b60405180910390f35b61008261007d3660046104b3565b610226565b60405161006691906105ed565b6100aa73841b8199e6d3db3c6f264f6c2bd8848b3ca6422381565b6040516001600160a01b039091168152602001610066565b604080516002808252606082810190935260009190816020015b6040805180820190915260008152606060208201528152602001906001900390816100dc579050506040805180820182526001600160a01b038916815290513060248201526044810188905291925090602082019060640160408051601f198184030181529190526020810180516001600160e01b031663095ea7b360e01b1790529052815182906000906101735761017361064f565b60200260200101819052506040518060400160405280876001600160a01b031681526020018686866040516024016101d1939291909283526001600160a01b0391909116602083015267ffffffffffffffff16604082015260600190565b60408051601f198184030181529190526020810180516001600160e01b03166370182b2f60e11b17905290528151829060019081106102125761021261064f565b602090810291909101015295945050505050565b604051631296dd2160e11b815260609060009073841b8199e6d3db3c6f264f6c2bd8848b3ca642239063252dba429061026390869060040161037a565b6000604051808303816000875af1158015610282573d6000803e3d6000fd5b505050506040513d6000823e601f3d908101601f191682016040526102aa9190810190610665565b949350505050565b80356001600160a01b03811681146102c957600080fd5b919050565b600080600080608085870312156102e457600080fd5b6102ed856102b2565b935060208501359250610302604086016102b2565b9150606085013567ffffffffffffffff8116811461031f57600080fd5b939692955090935050565b60005b8381101561034557818101518382015260200161032d565b50506000910152565b6000815180845261036681602086016020860161032a565b601f01601f19169290920160200192915050565b60006020808301818452808551808352604092508286019150828160051b87010184880160005b838110156103e957888303603f19018552815180516001600160a01b031684528701518784018790526103d68785018261034e565b95880195935050908601906001016103a1565b509098975050505050505050565b634e487b7160e01b600052604160045260246000fd5b6040805190810167ffffffffffffffff81118282101715610430576104306103f7565b60405290565b604051601f8201601f1916810167ffffffffffffffff8111828210171561045f5761045f6103f7565b604052919050565b600067ffffffffffffffff821115610481576104816103f7565b5060051b60200190565b600067ffffffffffffffff8211156104a5576104a56103f7565b50601f01601f191660200190565b600060208083850312156104c657600080fd5b823567ffffffffffffffff808211156104de57600080fd5b818501915085601f8301126104f257600080fd5b813561050561050082610467565b610436565b81815260059190911b8301840190848101908883111561052457600080fd5b8585015b838110156105e0578035858111156105405760008081fd5b86016040818c03601f19018113156105585760008081fd5b61056061040d565b61056b8a84016102b2565b8152818301358881111561057f5760008081fd5b8084019350508c603f8401126105955760008081fd5b898301356105a56105008261048b565b8181528e848387010111156105ba5760008081fd5b818486018d83013760009181018c0191909152818b015285525050918601918601610528565b5098975050505050505050565b6000602080830181845280855180835260408601915060408160051b870101925083870160005b8281101561064257603f1988860301845261063085835161034e565b94509285019290850190600101610614565b5092979650505050505050565b634e487b7160e01b600052603260045260246000fd5b600080604080848603121561067957600080fd5b8351925060208085015167ffffffffffffffff8082111561069957600080fd5b818701915087601f8301126106ad57600080fd5b81516106bb61050082610467565b81815260059190911b8301840190848101908a8311156106da57600080fd5b8585015b8381101561074b578051858111156106f65760008081fd5b8601603f81018d136107085760008081fd5b878101516107186105008261048b565b8181528e8b83850101111561072d5760008081fd5b61073c828b83018d860161032a565b855250509186019186016106de565b5080975050505050505050925092905056fea2646970667358221220e5b021c9bda8fefd9c72e12c3aeed447e5014b30b2df886ce6e861feffe91adb64736f6c63430008130033","opcodes":"PUSH1 0x80 PUSH1 0x40 MSTORE CALLVALUE DUP1 ISZERO PUSH2 0x10 JUMPI PUSH1 0x0 DUP1 REVERT JUMPDEST POP PUSH2 0x793 DUP1 PUSH2 0x20 PUSH1 0x0 CODECOPY PUSH1 0x0 RETURN INVALID PUSH1 0x80 PUSH1 0x40 MSTORE CALLVALUE DUP1 ISZERO PUSH2 0x10 JUMPI PUSH1 0x0 DUP1 REVERT JUMPDEST POP PUSH1 0x4 CALLDATASIZE LT PUSH2 0x41 JUMPI PUSH1 0x0 CALLDATALOAD PUSH1 0xE0 SHR DUP1 PUSH4 0x1E8C9926 EQ PUSH2 0x46 JUMPI DUP1 PUSH4 0xBDEDD705 EQ PUSH2 0x6F JUMPI DUP1 PUSH4 0xDF0525D7 EQ PUSH2 0x8F JUMPI JUMPDEST PUSH1 0x0 DUP1 REVERT JUMPDEST PUSH2 0x59 PUSH2 0x54 CALLDATASIZE PUSH1 0x4 PUSH2 0x2CE JUMP JUMPDEST PUSH2 0xC2 JUMP JUMPDEST PUSH1 0x40 MLOAD PUSH2 0x66 SWAP2 SWAP1 PUSH2 0x37A JUMP JUMPDEST PUSH1 0x40 MLOAD DUP1 SWAP2 SUB SWAP1 RETURN JUMPDEST PUSH2 0x82 PUSH2 0x7D CALLDATASIZE PUSH1 0x4 PUSH2 0x4B3 JUMP JUMPDEST PUSH2 0x226 JUMP JUMPDEST PUSH1 0x40 MLOAD PUSH2 0x66 SWAP2 SWAP1 PUSH2 0x5ED JUMP JUMPDEST PUSH2 0xAA PUSH20 0x841B8199E6D3DB3C6F264F6C2BD8848B3CA64223 DUP2 JUMP JUMPDEST PUSH1 0x40 MLOAD PUSH1 0x1 PUSH1 0x1 PUSH1 0xA0 SHL SUB SWAP1 SWAP2 AND DUP2 MSTORE PUSH1 0x20 ADD PUSH2 0x66 JUMP JUMPDEST PUSH1 0x40 DUP1 MLOAD PUSH1 0x2 DUP1 DUP3 MSTORE PUSH1 0x60 DUP3 DUP2 ADD SWAP1 SWAP4 MSTORE PUSH1 0x0 SWAP2 SWAP1 DUP2 PUSH1 0x20 ADD JUMPDEST PUSH1 0x40 DUP1 MLOAD DUP1 DUP3 ADD SWAP1 SWAP2 MSTORE PUSH1 0x0 DUP2 MSTORE PUSH1 0x60 PUSH1 0x20 DUP3 ADD MSTORE DUP2 MSTORE PUSH1 0x20 ADD SWAP1 PUSH1 0x1 SWAP1 SUB SWAP1 DUP2 PUSH2 0xDC JUMPI SWAP1 POP POP PUSH1 0x40 DUP1 MLOAD DUP1 DUP3 ADD DUP3 MSTORE PUSH1 0x1 PUSH1 0x1 PUSH1 0xA0 SHL SUB DUP10 AND DUP2 MSTORE SWAP1 MLOAD ADDRESS PUSH1 0x24 DUP3 ADD MSTORE PUSH1 0x44 DUP2 ADD DUP9 SWAP1 MSTORE SWAP2 SWAP3 POP SWAP1 PUSH1 0x20 DUP3 ADD SWAP1 PUSH1 0x64 ADD PUSH1 0x40 DUP1 MLOAD PUSH1 0x1F NOT DUP2 DUP5 SUB ADD DUP2 MSTORE SWAP2 SWAP1 MSTORE PUSH1 0x20 DUP2 ADD DUP1 MLOAD PUSH1 0x1 PUSH1 0x1 PUSH1 0xE0 SHL SUB AND PUSH4 0x95EA7B3 PUSH1 0xE0 SHL OR SWAP1 MSTORE SWAP1 MSTORE DUP2 MLOAD DUP3 SWAP1 PUSH1 0x0 SWAP1 PUSH2 0x173 JUMPI PUSH2 0x173 PUSH2 0x64F JUMP JUMPDEST PUSH1 0x20 MUL PUSH1 0x20 ADD ADD DUP2 SWAP1 MSTORE POP PUSH1 0x40 MLOAD DUP1 PUSH1 0x40 ADD PUSH1 0x40 MSTORE DUP1 DUP8 PUSH1 0x1 PUSH1 0x1 PUSH1 0xA0 SHL SUB AND DUP2 MSTORE PUSH1 0x20 ADD DUP7 DUP7 DUP7 PUSH1 0x40 MLOAD PUSH1 0x24 ADD PUSH2 0x1D1 SWAP4 SWAP3 SWAP2 SWAP1 SWAP3 DUP4 MSTORE PUSH1 0x1 PUSH1 0x1 PUSH1 0xA0 SHL SUB SWAP2 SWAP1 SWAP2 AND PUSH1 0x20 DUP4 ADD MSTORE PUSH8 0xFFFFFFFFFFFFFFFF AND PUSH1 0x40 DUP3 ADD MSTORE PUSH1 0x60 ADD SWAP1 JUMP JUMPDEST PUSH1 0x40 DUP1 MLOAD PUSH1 0x1F NOT DUP2 DUP5 SUB ADD DUP2 MSTORE SWAP2 SWAP1 MSTORE PUSH1 0x20 DUP2 ADD DUP1 MLOAD PUSH1 0x1 PUSH1 0x1 PUSH1 0xE0 SHL SUB AND PUSH4 0x70182B2F PUSH1 0xE1 SHL OR SWAP1 MSTORE SWAP1 MSTORE DUP2 MLOAD DUP3 SWAP1 PUSH1 0x1 SWAP1 DUP2 LT PUSH2 0x212 JUMPI PUSH2 0x212 PUSH2 0x64F JUMP JUMPDEST PUSH1 0x20 SWAP1 DUP2 MUL SWAP2 SWAP1 SWAP2 ADD ADD MSTORE SWAP6 SWAP5 POP POP POP POP POP JUMP JUMPDEST PUSH1 0x40 MLOAD PUSH4 0x1296DD21 PUSH1 0xE1 SHL DUP2 MSTORE PUSH1 0x60 SWAP1 PUSH1 0x0 SWAP1 PUSH20 0x841B8199E6D3DB3C6F264F6C2BD8848B3CA64223 SWAP1 PUSH4 0x252DBA42 SWAP1 PUSH2 0x263 SWAP1 DUP7 SWAP1 PUSH1 0x4 ADD PUSH2 0x37A JUMP JUMPDEST PUSH1 0x0 PUSH1 0x40 MLOAD DUP1 DUP4 SUB DUP2 PUSH1 0x0 DUP8 GAS CALL ISZERO DUP1 ISZERO PUSH2 0x282 JUMPI RETURNDATASIZE PUSH1 0x0 DUP1 RETURNDATACOPY RETURNDATASIZE PUSH1 0x0 REVERT JUMPDEST POP POP POP POP PUSH1 0x40 MLOAD RETURNDATASIZE PUSH1 0x0 DUP3 RETURNDATACOPY PUSH1 0x1F RETURNDATASIZE SWAP1 DUP2 ADD PUSH1 0x1F NOT AND DUP3 ADD PUSH1 0x40 MSTORE PUSH2 0x2AA SWAP2 SWAP1 DUP2 ADD SWAP1 PUSH2 0x665 JUMP JUMPDEST SWAP5 SWAP4 POP POP POP POP JUMP JUMPDEST DUP1 CALLDATALOAD PUSH1 0x1 PUSH1 0x1 PUSH1 0xA0 SHL SUB DUP2 AND DUP2 EQ PUSH2 0x2C9 JUMPI PUSH1 0x0 DUP1 REVERT JUMPDEST SWAP2 SWAP1 POP JUMP JUMPDEST PUSH1 0x0 DUP1 PUSH1 0x0 DUP1 PUSH1 0x80 DUP6 DUP8 SUB SLT ISZERO PUSH2 0x2E4 JUMPI PUSH1 0x0 DUP1 REVERT JUMPDEST PUSH2 0x2ED DUP6 PUSH2 0x2B2 JUMP JUMPDEST SWAP4 POP PUSH1 0x20 DUP6 ADD CALLDATALOAD SWAP3 POP PUSH2 0x302 PUSH1 0x40 DUP7 ADD PUSH2 0x2B2 JUMP JUMPDEST SWAP2 POP PUSH1 0x60 DUP6 ADD CALLDATALOAD PUSH8 0xFFFFFFFFFFFFFFFF DUP2 AND DUP2 EQ PUSH2 0x31F JUMPI PUSH1 0x0 DUP1 REVERT JUMPDEST SWAP4 SWAP7 SWAP3 SWAP6 POP SWAP1 SWAP4 POP POP JUMP JUMPDEST PUSH1 0x0 JUMPDEST DUP4 DUP2 LT ISZERO PUSH2 0x345 JUMPI DUP2 DUP2 ADD MLOAD DUP4 DUP3 ADD MSTORE PUSH1 0x20 ADD PUSH2 0x32D JUMP JUMPDEST POP POP PUSH1 0x0 SWAP2 ADD MSTORE JUMP JUMPDEST PUSH1 0x0 DUP2 MLOAD DUP1 DUP5 MSTORE PUSH2 0x366 DUP2 PUSH1 0x20 DUP7 ADD PUSH1 0x20 DUP7 ADD PUSH2 0x32A JUMP JUMPDEST PUSH1 0x1F ADD PUSH1 0x1F NOT AND SWAP3 SWAP1 SWAP3 ADD PUSH1 0x20 ADD SWAP3 SWAP2 POP POP JUMP JUMPDEST PUSH1 0x0 PUSH1 0x20 DUP1 DUP4 ADD DUP2 DUP5 MSTORE DUP1 DUP6 MLOAD DUP1 DUP4 MSTORE PUSH1 0x40 SWAP3 POP DUP3 DUP7 ADD SWAP2 POP DUP3 DUP2 PUSH1 0x5 SHL DUP8 ADD ADD DUP5 DUP9 ADD PUSH1 0x0 JUMPDEST DUP4 DUP2 LT ISZERO PUSH2 0x3E9 JUMPI DUP9 DUP4 SUB PUSH1 0x3F NOT ADD DUP6 MSTORE DUP2 MLOAD DUP1 MLOAD PUSH1 0x1 PUSH1 0x1 PUSH1 0xA0 SHL SUB AND DUP5 MSTORE DUP8 ADD MLOAD DUP8 DUP5 ADD DUP8 SWAP1 MSTORE PUSH2 0x3D6 DUP8 DUP6 ADD DUP3 PUSH2 0x34E JUMP JUMPDEST SWAP6 DUP9 ADD SWAP6 SWAP4 POP POP SWAP1 DUP7 ADD SWAP1 PUSH1 0x1 ADD PUSH2 0x3A1 JUMP JUMPDEST POP SWAP1 SWAP9 SWAP8 POP POP POP POP POP POP POP POP JUMP JUMPDEST PUSH4 0x4E487B71 PUSH1 0xE0 SHL PUSH1 0x0 MSTORE PUSH1 0x41 PUSH1 0x4 MSTORE PUSH1 0x24 PUSH1 0x0 REVERT JUMPDEST PUSH1 0x40 DUP1 MLOAD SWAP1 DUP2 ADD PUSH8 0xFFFFFFFFFFFFFFFF DUP2 GT DUP3 DUP3 LT OR ISZERO PUSH2 0x430 JUMPI PUSH2 0x430 PUSH2 0x3F7 JUMP JUMPDEST PUSH1 0x40 MSTORE SWAP1 JUMP JUMPDEST PUSH1 0x40 MLOAD PUSH1 0x1F DUP3 ADD PUSH1 0x1F NOT AND DUP2 ADD PUSH8 0xFFFFFFFFFFFFFFFF DUP2 GT DUP3 DUP3 LT OR ISZERO PUSH2 0x45F JUMPI PUSH2 0x45F PUSH2 0x3F7 JUMP JUMPDEST PUSH1 0x40 MSTORE SWAP2 SWAP1 POP JUMP JUMPDEST PUSH1 0x0 PUSH8 0xFFFFFFFFFFFFFFFF DUP3 GT ISZERO PUSH2 0x481 JUMPI PUSH2 0x481 PUSH2 0x3F7 JUMP JUMPDEST POP PUSH1 0x5 SHL PUSH1 0x20 ADD SWAP1 JUMP JUMPDEST PUSH1 0x0 PUSH8 0xFFFFFFFFFFFFFFFF DUP3 GT ISZERO PUSH2 0x4A5 JUMPI PUSH2 0x4A5 PUSH2 0x3F7 JUMP JUMPDEST POP PUSH1 0x1F ADD PUSH1 0x1F NOT AND PUSH1 0x20 ADD SWAP1 JUMP JUMPDEST PUSH1 0x0 PUSH1 0x20 DUP1 DUP4 DUP6 SUB SLT ISZERO PUSH2 0x4C6 JUMPI PUSH1 0x0 DUP1 REVERT JUMPDEST DUP3 CALLDATALOAD PUSH8 0xFFFFFFFFFFFFFFFF DUP1 DUP3 GT ISZERO PUSH2 0x4DE JUMPI PUSH1 0x0 DUP1 REVERT JUMPDEST DUP2 DUP6 ADD SWAP2 POP DUP6 PUSH1 0x1F DUP4 ADD SLT PUSH2 0x4F2 JUMPI PUSH1 0x0 DUP1 REVERT JUMPDEST DUP2 CALLDATALOAD PUSH2 0x505 PUSH2 0x500 DUP3 PUSH2 0x467 JUMP JUMPDEST PUSH2 0x436 JUMP JUMPDEST DUP2 DUP2 MSTORE PUSH1 0x5 SWAP2 SWAP1 SWAP2 SHL DUP4 ADD DUP5 ADD SWAP1 DUP5 DUP2 ADD SWAP1 DUP9 DUP4 GT ISZERO PUSH2 0x524 JUMPI PUSH1 0x0 DUP1 REVERT JUMPDEST DUP6 DUP6 ADD JUMPDEST DUP4 DUP2 LT ISZERO PUSH2 0x5E0 JUMPI DUP1 CALLDATALOAD DUP6 DUP2 GT ISZERO PUSH2 0x540 JUMPI PUSH1 0x0 DUP1 DUP2 REVERT JUMPDEST DUP7 ADD PUSH1 0x40 DUP2 DUP13 SUB PUSH1 0x1F NOT ADD DUP2 SGT ISZERO PUSH2 0x558 JUMPI PUSH1 0x0 DUP1 DUP2 REVERT JUMPDEST PUSH2 0x560 PUSH2 0x40D JUMP JUMPDEST PUSH2 0x56B DUP11 DUP5 ADD PUSH2 0x2B2 JUMP JUMPDEST DUP2 MSTORE DUP2 DUP4 ADD CALLDATALOAD DUP9 DUP2 GT ISZERO PUSH2 0x57F JUMPI PUSH1 0x0 DUP1 DUP2 REVERT JUMPDEST DUP1 DUP5 ADD SWAP4 POP POP DUP13 PUSH1 0x3F DUP5 ADD SLT PUSH2 0x595 JUMPI PUSH1 0x0 DUP1 DUP2 REVERT JUMPDEST DUP10 DUP4 ADD CALLDATALOAD PUSH2 0x5A5 PUSH2 0x500 DUP3 PUSH2 0x48B JUMP JUMPDEST DUP2 DUP2 MSTORE DUP15 DUP5 DUP4 DUP8 ADD ADD GT ISZERO PUSH2 0x5BA JUMPI PUSH1 0x0 DUP1 DUP2 REVERT JUMPDEST DUP2 DUP5 DUP7 ADD DUP14 DUP4 ADD CALLDATACOPY PUSH1 0x0 SWAP2 DUP2 ADD DUP13 ADD SWAP2 SWAP1 SWAP2 MSTORE DUP2 DUP12 ADD MSTORE DUP6 MSTORE POP POP SWAP2 DUP7 ADD SWAP2 DUP7 ADD PUSH2 0x528 JUMP JUMPDEST POP SWAP9 SWAP8 POP POP POP POP POP POP POP POP JUMP JUMPDEST PUSH1 0x0 PUSH1 0x20 DUP1 DUP4 ADD DUP2 DUP5 MSTORE DUP1 DUP6 MLOAD DUP1 DUP4 MSTORE PUSH1 0x40 DUP7 ADD SWAP2 POP PUSH1 0x40 DUP2 PUSH1 0x5 SHL DUP8 ADD ADD SWAP3 POP DUP4 DUP8 ADD PUSH1 0x0 JUMPDEST DUP3 DUP2 LT ISZERO PUSH2 0x642 JUMPI PUSH1 0x3F NOT DUP9 DUP7 SUB ADD DUP5 MSTORE PUSH2 0x630 DUP6 DUP4 MLOAD PUSH2 0x34E JUMP JUMPDEST SWAP5 POP SWAP3 DUP6 ADD SWAP3 SWAP1 DUP6 ADD SWAP1 PUSH1 0x1 ADD PUSH2 0x614 JUMP JUMPDEST POP SWAP3 SWAP8 SWAP7 POP POP POP POP POP POP POP JUMP JUMPDEST PUSH4 0x4E487B71 PUSH1 0xE0 SHL PUSH1 0x0 MSTORE PUSH1 0x32 PUSH1 0x4 MSTORE PUSH1 0x24 PUSH1 0x0 REVERT JUMPDEST PUSH1 0x0 DUP1 PUSH1 0x40 DUP1 DUP5 DUP7 SUB SLT ISZERO PUSH2 0x679 JUMPI PUSH1 0x0 DUP1 REVERT JUMPDEST DUP4 MLOAD SWAP3 POP PUSH1 0x20 DUP1 DUP6 ADD MLOAD PUSH8 0xFFFFFFFFFFFFFFFF DUP1 DUP3 GT ISZERO PUSH2 0x699 JUMPI PUSH1 0x0 DUP1 REVERT JUMPDEST DUP2 DUP8 ADD SWAP2 POP DUP8 PUSH1 0x1F DUP4 ADD SLT PUSH2 0x6AD JUMPI PUSH1 0x0 DUP1 REVERT JUMPDEST DUP2 MLOAD PUSH2 0x6BB PUSH2 0x500 DUP3 PUSH2 0x467 JUMP JUMPDEST DUP2 DUP2 MSTORE PUSH1 0x5 SWAP2 SWAP1 SWAP2 SHL DUP4 ADD DUP5 ADD SWAP1 DUP5 DUP2 ADD SWAP1 DUP11 DUP4 GT ISZERO PUSH2 0x6DA JUMPI PUSH1 0x0 DUP1 REVERT JUMPDEST DUP6 DUP6 ADD JUMPDEST DUP4 DUP2 LT ISZERO PUSH2 0x74B JUMPI DUP1 MLOAD DUP6 DUP2 GT ISZERO PUSH2 0x6F6 JUMPI PUSH1 0x0 DUP1 DUP2 REVERT JUMPDEST DUP7 ADD PUSH1 0x3F DUP2 ADD DUP14 SGT PUSH2 0x708 JUMPI PUSH1 0x0 DUP1 DUP2 REVERT JUMPDEST DUP8 DUP2 ADD MLOAD PUSH2 0x718 PUSH2 0x500 DUP3 PUSH2 0x48B JUMP JUMPDEST DUP2 DUP2 MSTORE DUP15 DUP12 DUP4 DUP6 ADD ADD GT ISZERO PUSH2 0x72D JUMPI PUSH1 0x0 DUP1 DUP2 REVERT JUMPDEST PUSH2 0x73C DUP3 DUP12 DUP4 ADD DUP14 DUP7 ADD PUSH2 0x32A JUMP JUMPDEST DUP6 MSTORE POP POP SWAP2 DUP7 ADD SWAP2 DUP7 ADD PUSH2 0x6DE JUMP JUMPDEST POP DUP1 SWAP8 POP POP POP POP POP POP POP POP SWAP3 POP SWAP3 SWAP1 POP JUMP INVALID LOG2 PUSH5 0x6970667358 0x22 SLT KECCAK256 0xE5 0xB0 0x21 0xC9 0xBD 0xA8 INVALID REVERT SWAP13 PUSH19 0xE12C3AEED447E5014B30B2DF886CE6E861FEFF 0xE9 BYTE 0xDB PUSH5 0x736F6C6343 STOP ADDMOD SGT STOP CALLER "},"methodIdentifiers":{"MULTICALL_V3()":"df0525d7","createRentalCalls(address,uint256,address,uint64)":"1e8c9926","multiCall((address,bytes)[])":"bdedd705"}}}}}