{"contracts/ReputationSystem.sol":{"ReputationSystem":{"abi":[{"inputs":[],"stateMutability":"nonpayable","type":"constructor"},{"anonymous":false,"inputs":[{"indexed":true,"internalType":"address","name":"user","type":"address"},{"indexed":true,"internalType":"uint256","name":"achievementId","type":"uint256"},{"indexed":false,"internalType":"string","name":"achievementName","type":"string"}],"name":"AchievementUnlocked","type":"event"},{"anonymous":false,"inputs":[{"indexed":true,"internalType":"address","name":"previousOwner","type":"address"},{"indexed":true,"internalType":"address","name":"newOwner","type":"address"}],"name":"OwnershipTransferred","type":"event"},{"anonymous":false,"inputs":[{"indexed":true,"internalType":"address","name":"user","type":"address"},{"indexed":false,"internalType":"uint256","name":"oldScore","type":"uint256"},{"indexed":false,"internalType":"uint256","name":"newScore","type":"uint256"},{"indexed":false,"internalType":"bool","name":"success","type":"bool"}],"name":"ReputationUpdated","type":"event"},{"anonymous":false,"inputs":[{"indexed":true,"internalType":"address","name":"user","type":"address"},{"indexed":false,"internalType":"bool","name":"blacklisted","type":"bool"}],"name":"UserBlacklisted","type":"event"},{"inputs":[],"name":"MAX_REPUTATION_SCORE","outputs":[{"internalType":"uint256","name":"","type":"uint256"}],"stateMutability":"view","type":"function"},{"inputs":[],"name":"REPUTATION_GAIN","outputs":[{"internalType":"uint256","name":"","type":"uint256"}],"stateMutability":"view","type":"function"},{"inputs":[],"name":"REPUTATION_LOSS","outputs":[{"internalType":"uint256","name":"","type":"uint256"}],"stateMutability":"view","type":"function"},{"inputs":[],"name":"REPUTATION_THRESHOLD_HIGH","outputs":[{"internalType":"uint256","name":"","type":"uint256"}],"stateMutability":"view","type":"function"},{"inputs":[],"name":"REPUTATION_THRESHOLD_LOW","outputs":[{"internalType":"uint256","name":"","type":"uint256"}],"stateMutability":"view","type":"function"},{"inputs":[],"name":"REPUTATION_THRESHOLD_MID","outputs":[{"internalType":"uint256","name":"","type":"uint256"}],"stateMutability":"view","type":"function"},{"inputs":[{"internalType":"uint256","name":"","type":"uint256"}],"name":"achievements","outputs":[{"internalType":"string","name":"name","type":"string"},{"internalType":"string","name":"description","type":"string"},{"internalType":"uint256","name":"requirement","type":"uint256"},{"internalType":"uint256","name":"rewardPoints","type":"uint256"},{"internalType":"bool","name":"active","type":"bool"}],"stateMutability":"view","type":"function"},{"inputs":[{"internalType":"address","name":"contractAddr","type":"address"}],"name":"addAuthorizedContract","outputs":[],"stateMutability":"nonpayable","type":"function"},{"inputs":[{"internalType":"address","name":"","type":"address"}],"name":"authorizedContracts","outputs":[{"internalType":"bool","name":"","type":"bool"}],"stateMutability":"view","type":"function"},{"inputs":[{"internalType":"string","name":"name","type":"string"},{"internalType":"string","name":"description","type":"string"},{"internalType":"uint256","name":"requirement","type":"uint256"},{"internalType":"uint256","name":"rewardPoints","type":"uint256"}],"name":"createAchievement","outputs":[],"stateMutability":"nonpayable","type":"function"},{"inputs":[{"internalType":"uint256","name":"achievementId","type":"uint256"}],"name":"getAchievement","outputs":[{"components":[{"internalType":"string","name":"name","type":"string"},{"internalType":"string","name":"description","type":"string"},{"internalType":"uint256","name":"requirement","type":"uint256"},{"internalType":"uint256","name":"rewardPoints","type":"uint256"},{"internalType":"bool","name":"active","type":"bool"}],"internalType":"struct ReputationSystem.Achievement","name":"","type":"tuple"}],"stateMutability":"view","type":"function"},{"inputs":[{"internalType":"address","name":"user","type":"address"}],"name":"getCollateralMultiplier","outputs":[{"internalType":"uint256","name":"","type":"uint256"}],"stateMutability":"view","type":"function"},{"inputs":[{"internalType":"address","name":"user","type":"address"}],"name":"getSuccessRate","outputs":[{"internalType":"uint256","name":"","type":"uint256"}],"stateMutability":"view","type":"function"},{"inputs":[],"name":"getTotalAchievements","outputs":[{"internalType":"uint256","name":"","type":"uint256"}],"stateMutability":"view","type":"function"},{"inputs":[{"internalType":"address","name":"user","type":"address"}],"name":"getUserAchievements","outputs":[{"internalType":"uint256[]","name":"","type":"uint256[]"}],"stateMutability":"view","type":"function"},{"inputs":[{"internalType":"address","name":"user","type":"address"}],"name":"getUserReputation","outputs":[{"components":[{"internalType":"uint256","name":"totalRentals","type":"uint256"},{"internalType":"uint256","name":"successfulRentals","type":"uint256"},{"internalType":"uint256","name":"reputationScore","type":"uint256"},{"internalType":"uint256","name":"lastUpdated","type":"uint256"},{"internalType":"bool","name":"blacklisted","type":"bool"}],"internalType":"struct ReputationSystem.UserReputation","name":"","type":"tuple"}],"stateMutability":"view","type":"function"},{"inputs":[{"internalType":"address","name":"user","type":"address"},{"internalType":"uint256","name":"achievementId","type":"uint256"}],"name":"hasAchievement","outputs":[{"internalType":"bool","name":"","type":"bool"}],"stateMutability":"view","type":"function"},{"inputs":[],"name":"nextAchievementId","outputs":[{"internalType":"uint256","name":"","type":"uint256"}],"stateMutability":"view","type":"function"},{"inputs":[],"name":"owner","outputs":[{"internalType":"address","name":"","type":"address"}],"stateMutability":"view","type":"function"},{"inputs":[{"internalType":"address","name":"contractAddr","type":"address"}],"name":"removeAuthorizedContract","outputs":[],"stateMutability":"nonpayable","type":"function"},{"inputs":[],"name":"renounceOwnership","outputs":[],"stateMutability":"nonpayable","type":"function"},{"inputs":[{"internalType":"address","name":"user","type":"address"},{"internalType":"bool","name":"blacklisted","type":"bool"}],"name":"setUserBlacklisted","outputs":[],"stateMutability":"nonpayable","type":"function"},{"inputs":[{"internalType":"address","name":"newOwner","type":"address"}],"name":"transferOwnership","outputs":[],"stateMutability":"nonpayable","type":"function"},{"inputs":[{"internalType":"address","name":"user","type":"address"},{"internalType":"bool","name":"success","type":"bool"}],"name":"updateReputation","outputs":[],"stateMutability":"nonpayable","type":"function"},{"inputs":[{"internalType":"address","name":"","type":"address"},{"internalType":"uint256","name":"","type":"uint256"}],"name":"userAchievements","outputs":[{"internalType":"bool","name":"","type":"bool"}],"stateMutability":"view","type":"function"},{"inputs":[{"internalType":"address","name":"","type":"address"}],"name":"userReputations","outputs":[{"internalType":"uint256","name":"totalRentals","type":"uint256"},{"internalType":"uint256","name":"successfulRentals","type":"uint256"},{"internalType":"uint256","name":"reputationScore","type":"uint256"},{"internalType":"uint256","name":"lastUpdated","type":"uint256"},{"internalType":"bool","name":"blacklisted","type":"bool"}],"stateMutability":"view","type":"function"}],"evm":{"bytecode":{"linkReferences":{},"object":"60806040523480156200001157600080fd5b506200001d3362000233565b6200008c6040518060400160405280600c81526020016b119a5c9cdd0814995b9d185b60a21b8152506040518060400160405280601a81526020017f436f6d706c65746520796f75722066697273742072656e74616c000000000000815250600160326200028360201b60201c565b620000fc6040518060400160405280600d81526020016c52656e74616c204e6f7669636560981b8152506040518060400160405280601381526020017f436f6d706c6574652031302072656e74616c7300000000000000000000000000815250600a60646200028360201b60201c565b6200016c6040518060400160405280600d81526020016c14995b9d185b08115e1c195c9d609a1b8152506040518060400160405280601381526020017f436f6d706c6574652035302072656e74616c7300000000000000000000000000815250603260c86200028360201b60201c565b620001dd6040518060400160405280600d81526020016c2932b73a30b61026b0b9ba32b960991b8152506040518060400160405280601481526020017f436f6d706c657465203130302072656e74616c73000000000000000000000000815250606461012c6200028360201b60201c565b6200022d6040518060400160405280600e81526020016d14195c999958dd08149958dbdc9960921b8152506040518060600160405280602b815260200162001b6a602b913960146101f462000283565b620004cc565b600080546001600160a01b038381166001600160a01b0319831681178455604051919092169283917f8be0079c531659141344cd1fd0a4f28419497f9722a3daafe3b4186f6b6457e09190a35050565b6005805460009182620002968362000333565b909155506040805160a081018252878152602080820188905281830187905260608201869052600160808301526000848152600390915291909120815192935090918190620002e6908262000400565b5060208201516001820190620002fd908262000400565b5060408201516002820155606082015160038201556080909101516004909101805460ff19169115159190911790555050505050565b6000600182016200035457634e487b7160e01b600052601160045260246000fd5b5060010190565b634e487b7160e01b600052604160045260246000fd5b600181811c908216806200038657607f821691505b602082108103620003a757634e487b7160e01b600052602260045260246000fd5b50919050565b601f821115620003fb57600081815260208120601f850160051c81016020861015620003d65750805b601f850160051c820191505b81811015620003f757828155600101620003e2565b5050505b505050565b81516001600160401b038111156200041c576200041c6200035b565b62000434816200042d845462000371565b84620003ad565b602080601f8311600181146200046c5760008415620004535750858301515b600019600386901b1c1916600185901b178555620003f7565b600085815260208120601f198616915b828110156200049d578886015182559484019460019091019084016200047c565b5085821015620004bc5787850151600019600388901b60f8161c191681555b5050505050600190811b01905550565b61168e80620004dc6000396000f3fe608060405234801561001057600080fd5b506004361061018e5760003560e01c8063a0d541fa116100de578063e2c13e3211610097578063f09153c411610071578063f09153c414610383578063f2ccc543146103a3578063f2fde38b146103c3578063f8b11691146103d657600080fd5b8063e2c13e3214610355578063e6b165ed14610368578063f0860c011461037b57600080fd5b8063a0d541fa1461029a578063ab5eba16146102a2578063baccbfdb146102b5578063bddb7c831461030c578063cb5103731461031f578063d5b9221b1461033257600080fd5b80636a01703f1161014b578063779c215911610125578063779c21591461025057806385196798146102595780638da5cb5b1461026c57806398eaa4a71461028757600080fd5b80636a01703f1461022b578063715018a614610233578063720514961461023d57600080fd5b806324548c601461019357806327aed72e146101d6578063347201ec146101fa57806342be153e14610211578063451135481461021a578063661d7cc214610223575b600080fd5b6101c16101a1366004611101565b600260209081526000928352604080842090915290825290205460ff1681565b60405190151581526020015b60405180910390f35b6101e96101e436600461112b565b61043f565b6040516101cd95949392919061118a565b6102036101f481565b6040519081526020016101cd565b61020360055481565b6102036103e881565b610203606481565b610203600a81565b61023b610582565b005b61023b61024b366004611272565b610596565b61020361032081565b6102036102673660046112e6565b6105b0565b6000546040516001600160a01b0390911681526020016101cd565b61023b6102953660046112e6565b610640565b610203601981565b6101c16102b0366004611101565b61066c565b6102c86102c33660046112e6565b61069a565b6040516101cd9190600060a0820190508251825260208301516020830152604083015160408301526060830151606083015260808301511515608083015292915050565b61023b61031a366004611301565b61072a565b61020361032d3660046112e6565b610794565b6101c16103403660046112e6565b60046020526000908152604090205460ff1681565b61023b610363366004611301565b61081e565b61023b6103763660046112e6565b6109ef565b600554610203565b6103966103913660046112e6565b610a18565b6040516101cd919061133d565b6103b66103b136600461112b565b610b3e565b6040516101cd9190611381565b61023b6103d13660046112e6565b610cd8565b6104156103e43660046112e6565b6001602081905260009182526040909120805491810154600282015460038301546004909301549192909160ff1685565b6040805195865260208601949094529284019190915260608301521515608082015260a0016101cd565b60036020526000908152604090208054819061045a906113e7565b80601f0160208091040260200160405190810160405280929190818152602001828054610486906113e7565b80156104d35780601f106104a8576101008083540402835291602001916104d3565b820191906000526020600020905b8154815290600101906020018083116104b657829003601f168201915b5050505050908060010180546104e8906113e7565b80601f0160208091040260200160405190810160405280929190818152602001828054610514906113e7565b80156105615780601f1061053657610100808354040283529160200191610561565b820191906000526020600020905b81548152906001019060200180831161054457829003601f168201915b50505050600283015460038401546004909401549293909290915060ff1685565b61058a610d51565b6105946000610dab565b565b61059e610d51565b6105aa84848484610dfb565b50505050565b6001600160a01b03811660009081526001602052604081206004015460ff16156105dd5750614e20919050565b6001600160a01b038216600090815260016020526040902060020154610320811061060b5750600092915050565b6101f4811061061e57506109c492915050565b60648110610630575061138892915050565b5061271092915050565b50919050565b610648610d51565b6001600160a01b03166000908152600460205260409020805460ff19166001179055565b6001600160a01b038216600090815260026020908152604080832084845290915290205460ff165b92915050565b6106ce6040518060a00160405280600081526020016000815260200160008152602001600081526020016000151581525090565b506001600160a01b0316600090815260016020818152604092839020835160a0810185528154815292810154918301919091526002810154928201929092526003820154606082015260049091015460ff161515608082015290565b610732610d51565b6001600160a01b038216600081815260016020908152604091829020600401805460ff191685151590811790915591519182527f5b7ef9d8e7fd7ff1dae13005391bc3aa7cc048c7ba41af348e5da4dcbe7323e0910160405180910390a25050565b6001600160a01b0381166000908152600160208181526040808420815160a08101835281548082529482015493810193909352600281015491830191909152600381015460608301526004015460ff16151560808201529082036107fb5750600092915050565b8051602082015161080d906064611431565b6108179190611448565b9392505050565b3360009081526004602052604090205460ff168061084657506000546001600160a01b031633145b6108885760405162461bcd60e51b815260206004820152600e60248201526d139bdd08185d5d1a1bdc9a5e995960921b60448201526064015b60405180910390fd5b6001600160a01b03821660009081526001602052604090206004015460ff16156108ea5760405162461bcd60e51b8152602060048201526013602482015272155cd95c881a5cc8189b1858dadb1a5cdd1959606a1b604482015260640161087f565b6001600160a01b038216600090815260016020819052604090912060028101548154919290916109199161146a565b8255821561095d576001808301546109309161146a565b60018301556002820154610953906103e89061094e90600a9061146a565b610ea5565b6002830155610987565b6019826002015411610970576000610981565b60198260020154610981919061147d565b60028301555b42600383015561099684610ebb565b6002820154604080518381526020810192909252841515908201526001600160a01b038516907f57937c3230bca65bddb26bb4536ac3c4186490482e16ca58549f88791c7f9ed79060600160405180910390a250505050565b6109f7610d51565b6001600160a01b03166000908152600460205260409020805460ff19169055565b60606000805b600554811015610a74576001600160a01b038416600090815260026020908152604080832084845290915290205460ff1615610a625781610a5e81611490565b9250505b80610a6c81611490565b915050610a1e565b5060008167ffffffffffffffff811115610a9057610a906111cf565b604051908082528060200260200182016040528015610ab9578160200160208202803683370190505b5090506000805b600554811015610b34576001600160a01b038616600090815260026020908152604080832084845290915290205460ff1615610b225780838381518110610b0957610b096114a9565b602090810291909101015281610b1e81611490565b9250505b80610b2c81611490565b915050610ac0565b5090949350505050565b610b726040518060a00160405280606081526020016060815260200160008152602001600081526020016000151581525090565b60008281526003602052604090819020815160a08101909252805482908290610b9a906113e7565b80601f0160208091040260200160405190810160405280929190818152602001828054610bc6906113e7565b8015610c135780601f10610be857610100808354040283529160200191610c13565b820191906000526020600020905b815481529060010190602001808311610bf657829003601f168201915b50505050508152602001600182018054610c2c906113e7565b80601f0160208091040260200160405190810160405280929190818152602001828054610c58906113e7565b8015610ca55780601f10610c7a57610100808354040283529160200191610ca5565b820191906000526020600020905b815481529060010190602001808311610c8857829003601f168201915b5050509183525050600282015460208201526003820154604082015260049091015460ff16151560609091015292915050565b610ce0610d51565b6001600160a01b038116610d455760405162461bcd60e51b815260206004820152602660248201527f4f776e61626c653a206e6577206f776e657220697320746865207a65726f206160448201526564647265737360d01b606482015260840161087f565b610d4e81610dab565b50565b6000546001600160a01b031633146105945760405162461bcd60e51b815260206004820181905260248201527f4f776e61626c653a2063616c6c6572206973206e6f7420746865206f776e6572604482015260640161087f565b600080546001600160a01b038381166001600160a01b0319831681178455604051919092169283917f8be0079c531659141344cd1fd0a4f28419497f9722a3daafe3b4186f6b6457e09190a35050565b6005805460009182610e0c83611490565b909155506040805160a081018252878152602080820188905281830187905260608201869052600160808301526000848152600390915291909120815192935090918190610e5a908261150d565b5060208201516001820190610e6f908261150d565b5060408201516002820155606082015160038201556080909101516004909101805460ff19169115159190911790555050505050565b6000818310610eb45781610817565b5090919050565b6001600160a01b0381166000908152600160208181526040808420815160a081018352815481529381015492840192909252600282015490830152600381015460608301526004015460ff1615156080820152905b6005548110156110e05760008181526003602052604090206004015460ff161580610f5e57506001600160a01b038316600090815260026020908152604080832084845290915290205460ff165b6110ce57600081158015610f7457508251600111155b15610f8157506001611009565b816001148015610f9357508251600a11155b15610fa057506001611009565b816002148015610fb257508251603211155b15610fbf57506001611009565b816003148015610fd157508251606411155b15610fde57506001611009565b816004148015610ff057508251601411155b8015611000575082516020840151145b15611009575060015b80156110cc576001600160a01b03841660008181526002602081815260408084208785528252808420805460ff19166001908117909155600380845282862001549585529091529091200154611067916103e89161094e919061146a565b6001600160a01b03851660008181526001602090815260408083206002019490945585825260039052829020915184927f5808713f30d1d277897adb26ef9590a7ff17fddbde59fbfc3139ad01929ce421916110c391906115cd565b60405180910390a35b505b806110d881611490565b915050610f10565b505050565b80356001600160a01b03811681146110fc57600080fd5b919050565b6000806040838503121561111457600080fd5b61111d836110e5565b946020939093013593505050565b60006020828403121561113d57600080fd5b5035919050565b6000815180845260005b8181101561116a5760208185018101518683018201520161114e565b506000602082860101526020601f19601f83011685010191505092915050565b60a08152600061119d60a0830188611144565b82810360208401526111af8188611144565b604084019690965250506060810192909252151560809091015292915050565b634e487b7160e01b600052604160045260246000fd5b600082601f8301126111f657600080fd5b813567ffffffffffffffff80821115611211576112116111cf565b604051601f8301601f19908116603f01168101908282118183101715611239576112396111cf565b8160405283815286602085880101111561125257600080fd5b836020870160208301376000602085830101528094505050505092915050565b6000806000806080858703121561128857600080fd5b843567ffffffffffffffff808211156112a057600080fd5b6112ac888389016111e5565b955060208701359150808211156112c257600080fd5b506112cf878288016111e5565b949794965050505060408301359260600135919050565b6000602082840312156112f857600080fd5b610817826110e5565b6000806040838503121561131457600080fd5b61131d836110e5565b91506020830135801515811461133257600080fd5b809150509250929050565b6020808252825182820181905260009190848201906040850190845b8181101561137557835183529284019291840191600101611359565b50909695505050505050565b602081526000825160a0602084015261139d60c0840182611144565b90506020840151601f198483030160408501526113ba8282611144565b91505060408401516060840152606084015160808401526080840151151560a08401528091505092915050565b600181811c908216806113fb57607f821691505b60208210810361063a57634e487b7160e01b600052602260045260246000fd5b634e487b7160e01b600052601160045260246000fd5b80820281158282048414176106945761069461141b565b60008261146557634e487b7160e01b600052601260045260246000fd5b500490565b808201808211156106945761069461141b565b818103818111156106945761069461141b565b6000600182016114a2576114a261141b565b5060010190565b634e487b7160e01b600052603260045260246000fd5b601f8211156110e057600081815260208120601f850160051c810160208610156114e65750805b601f850160051c820191505b81811015611505578281556001016114f2565b505050505050565b815167ffffffffffffffff811115611527576115276111cf565b61153b8161153584546113e7565b846114bf565b602080601f83116001811461157057600084156115585750858301515b600019600386901b1c1916600185901b178555611505565b600085815260208120601f198616915b8281101561159f57888601518255948401946001909101908401611580565b50858210156115bd5787850151600019600388901b60f8161c191681555b5050505050600190811b01905550565b60006020808352600084546115e1816113e7565b80848701526040600180841660008114611602576001811461161c5761164a565b60ff1985168984015283151560051b89018301955061164a565b896000528660002060005b858110156116425781548b8201860152908301908801611627565b8a0184019650505b50939897505050505050505056fea264697066735822122022a17bc91ef71b847adc184de8ba0ac5f1c3cacb84fb5258bb0a21cc3a07995464736f6c634300081300334d61696e7461696e20313030252073756363657373207261746520776974682032302b2072656e74616c73","opcodes":"PUSH1 0x80 PUSH1 0x40 MSTORE CALLVALUE DUP1 ISZERO PUSH3 0x11 JUMPI PUSH1 0x0 DUP1 REVERT JUMPDEST POP PUSH3 0x1D CALLER PUSH3 0x233 JUMP JUMPDEST PUSH3 0x8C PUSH1 0x40 MLOAD DUP1 PUSH1 0x40 ADD PUSH1 0x40 MSTORE DUP1 PUSH1 0xC DUP2 MSTORE PUSH1 0x20 ADD PUSH12 0x119A5C9CDD0814995B9D185B PUSH1 0xA2 SHL DUP2 MSTORE POP PUSH1 0x40 MLOAD DUP1 PUSH1 0x40 ADD PUSH1 0x40 MSTORE DUP1 PUSH1 0x1A DUP2 MSTORE PUSH1 0x20 ADD PUSH32 0x436F6D706C65746520796F75722066697273742072656E74616C000000000000 DUP2 MSTORE POP PUSH1 0x1 PUSH1 0x32 PUSH3 0x283 PUSH1 0x20 SHL PUSH1 0x20 SHR JUMP JUMPDEST PUSH3 0xFC PUSH1 0x40 MLOAD DUP1 PUSH1 0x40 ADD PUSH1 0x40 MSTORE DUP1 PUSH1 0xD DUP2 MSTORE PUSH1 0x20 ADD PUSH13 0x52656E74616C204E6F76696365 PUSH1 0x98 SHL DUP2 MSTORE POP PUSH1 0x40 MLOAD DUP1 PUSH1 0x40 ADD PUSH1 0x40 MSTORE DUP1 PUSH1 0x13 DUP2 MSTORE PUSH1 0x20 ADD PUSH32 0x436F6D706C6574652031302072656E74616C7300000000000000000000000000 DUP2 MSTORE POP PUSH1 0xA PUSH1 0x64 PUSH3 0x283 PUSH1 0x20 SHL PUSH1 0x20 SHR JUMP JUMPDEST PUSH3 0x16C PUSH1 0x40 MLOAD DUP1 PUSH1 0x40 ADD PUSH1 0x40 MSTORE DUP1 PUSH1 0xD DUP2 MSTORE PUSH1 0x20 ADD PUSH13 0x14995B9D185B08115E1C195C9D PUSH1 0x9A SHL DUP2 MSTORE POP PUSH1 0x40 MLOAD DUP1 PUSH1 0x40 ADD PUSH1 0x40 MSTORE DUP1 PUSH1 0x13 DUP2 MSTORE PUSH1 0x20 ADD PUSH32 0x436F6D706C6574652035302072656E74616C7300000000000000000000000000 DUP2 MSTORE POP PUSH1 0x32 PUSH1 0xC8 PUSH3 0x283 PUSH1 0x20 SHL PUSH1 0x20 SHR JUMP JUMPDEST PUSH3 0x1DD PUSH1 0x40 MLOAD DUP1 PUSH1 0x40 ADD PUSH1 0x40 MSTORE DUP1 PUSH1 0xD DUP2 MSTORE PUSH1 0x20 ADD PUSH13 0x2932B73A30B61026B0B9BA32B9 PUSH1 0x99 SHL DUP2 MSTORE POP PUSH1 0x40 MLOAD DUP1 PUSH1 0x40 ADD PUSH1 0x40 MSTORE DUP1 PUSH1 0x14 DUP2 MSTORE PUSH1 0x20 ADD PUSH32 0x436F6D706C657465203130302072656E74616C73000000000000000000000000 DUP2 MSTORE POP PUSH1 0x64 PUSH2 0x12C PUSH3 0x283 PUSH1 0x20 SHL PUSH1 0x20 SHR JUMP JUMPDEST PUSH3 0x22D PUSH1 0x40 MLOAD DUP1 PUSH1 0x40 ADD PUSH1 0x40 MSTORE DUP1 PUSH1 0xE DUP2 MSTORE PUSH1 0x20 ADD PUSH14 0x14195C999958DD08149958DBDC99 PUSH1 0x92 SHL DUP2 MSTORE POP PUSH1 0x40 MLOAD DUP1 PUSH1 0x60 ADD PUSH1 0x40 MSTORE DUP1 PUSH1 0x2B DUP2 MSTORE PUSH1 0x20 ADD PUSH3 0x1B6A PUSH1 0x2B SWAP2 CODECOPY PUSH1 0x14 PUSH2 0x1F4 PUSH3 0x283 JUMP JUMPDEST PUSH3 0x4CC JUMP JUMPDEST PUSH1 0x0 DUP1 SLOAD PUSH1 0x1 PUSH1 0x1 PUSH1 0xA0 SHL SUB DUP4 DUP2 AND PUSH1 0x1 PUSH1 0x1 PUSH1 0xA0 SHL SUB NOT DUP4 AND DUP2 OR DUP5 SSTORE PUSH1 0x40 MLOAD SWAP2 SWAP1 SWAP3 AND SWAP3 DUP4 SWAP2 PUSH32 0x8BE0079C531659141344CD1FD0A4F28419497F9722A3DAAFE3B4186F6B6457E0 SWAP2 SWAP1 LOG3 POP POP JUMP JUMPDEST PUSH1 0x5 DUP1 SLOAD PUSH1 0x0 SWAP2 DUP3 PUSH3 0x296 DUP4 PUSH3 0x333 JUMP JUMPDEST SWAP1 SWAP2 SSTORE POP PUSH1 0x40 DUP1 MLOAD PUSH1 0xA0 DUP2 ADD DUP3 MSTORE DUP8 DUP2 MSTORE PUSH1 0x20 DUP1 DUP3 ADD DUP9 SWAP1 MSTORE DUP2 DUP4 ADD DUP8 SWAP1 MSTORE PUSH1 0x60 DUP3 ADD DUP7 SWAP1 MSTORE PUSH1 0x1 PUSH1 0x80 DUP4 ADD MSTORE PUSH1 0x0 DUP5 DUP2 MSTORE PUSH1 0x3 SWAP1 SWAP2 MSTORE SWAP2 SWAP1 SWAP2 KECCAK256 DUP2 MLOAD SWAP3 SWAP4 POP SWAP1 SWAP2 DUP2 SWAP1 PUSH3 0x2E6 SWAP1 DUP3 PUSH3 0x400 JUMP JUMPDEST POP PUSH1 0x20 DUP3 ADD MLOAD PUSH1 0x1 DUP3 ADD SWAP1 PUSH3 0x2FD SWAP1 DUP3 PUSH3 0x400 JUMP JUMPDEST POP PUSH1 0x40 DUP3 ADD MLOAD PUSH1 0x2 DUP3 ADD SSTORE PUSH1 0x60 DUP3 ADD MLOAD PUSH1 0x3 DUP3 ADD SSTORE PUSH1 0x80 SWAP1 SWAP2 ADD MLOAD PUSH1 0x4 SWAP1 SWAP2 ADD DUP1 SLOAD PUSH1 0xFF NOT AND SWAP2 ISZERO ISZERO SWAP2 SWAP1 SWAP2 OR SWAP1 SSTORE POP POP POP POP POP JUMP JUMPDEST PUSH1 0x0 PUSH1 0x1 DUP3 ADD PUSH3 0x354 JUMPI PUSH4 0x4E487B71 PUSH1 0xE0 SHL PUSH1 0x0 MSTORE PUSH1 0x11 PUSH1 0x4 MSTORE PUSH1 0x24 PUSH1 0x0 REVERT JUMPDEST POP PUSH1 0x1 ADD SWAP1 JUMP JUMPDEST PUSH4 0x4E487B71 PUSH1 0xE0 SHL PUSH1 0x0 MSTORE PUSH1 0x41 PUSH1 0x4 MSTORE PUSH1 0x24 PUSH1 0x0 REVERT JUMPDEST PUSH1 0x1 DUP2 DUP2 SHR SWAP1 DUP3 AND DUP1 PUSH3 0x386 JUMPI PUSH1 0x7F DUP3 AND SWAP2 POP JUMPDEST PUSH1 0x20 DUP3 LT DUP2 SUB PUSH3 0x3A7 JUMPI PUSH4 0x4E487B71 PUSH1 0xE0 SHL PUSH1 0x0 MSTORE PUSH1 0x22 PUSH1 0x4 MSTORE PUSH1 0x24 PUSH1 0x0 REVERT JUMPDEST POP SWAP2 SWAP1 POP JUMP JUMPDEST PUSH1 0x1F DUP3 GT ISZERO PUSH3 0x3FB JUMPI PUSH1 0x0 DUP2 DUP2 MSTORE PUSH1 0x20 DUP2 KECCAK256 PUSH1 0x1F DUP6 ADD PUSH1 0x5 SHR DUP2 ADD PUSH1 0x20 DUP7 LT ISZERO PUSH3 0x3D6 JUMPI POP DUP1 JUMPDEST PUSH1 0x1F DUP6 ADD PUSH1 0x5 SHR DUP3 ADD SWAP2 POP JUMPDEST DUP2 DUP2 LT ISZERO PUSH3 0x3F7 JUMPI DUP3 DUP2 SSTORE PUSH1 0x1 ADD PUSH3 0x3E2 JUMP JUMPDEST POP POP POP JUMPDEST POP POP POP JUMP JUMPDEST DUP2 MLOAD PUSH1 0x1 PUSH1 0x1 PUSH1 0x40 SHL SUB DUP2 GT ISZERO PUSH3 0x41C JUMPI PUSH3 0x41C PUSH3 0x35B JUMP JUMPDEST PUSH3 0x434 DUP2 PUSH3 0x42D DUP5 SLOAD PUSH3 0x371 JUMP JUMPDEST DUP5 PUSH3 0x3AD JUMP JUMPDEST PUSH1 0x20 DUP1 PUSH1 0x1F DUP4 GT PUSH1 0x1 DUP2 EQ PUSH3 0x46C JUMPI PUSH1 0x0 DUP5 ISZERO PUSH3 0x453 JUMPI POP DUP6 DUP4 ADD MLOAD JUMPDEST PUSH1 0x0 NOT PUSH1 0x3 DUP7 SWAP1 SHL SHR NOT AND PUSH1 0x1 DUP6 SWAP1 SHL OR DUP6 SSTORE PUSH3 0x3F7 JUMP JUMPDEST PUSH1 0x0 DUP6 DUP2 MSTORE PUSH1 0x20 DUP2 KECCAK256 PUSH1 0x1F NOT DUP7 AND SWAP2 JUMPDEST DUP3 DUP2 LT ISZERO PUSH3 0x49D JUMPI DUP9 DUP7 ADD MLOAD DUP3 SSTORE SWAP5 DUP5 ADD SWAP5 PUSH1 0x1 SWAP1 SWAP2 ADD SWAP1 DUP5 ADD PUSH3 0x47C JUMP JUMPDEST POP DUP6 DUP3 LT ISZERO PUSH3 0x4BC JUMPI DUP8 DUP6 ADD MLOAD PUSH1 0x0 NOT PUSH1 0x3 DUP9 SWAP1 SHL PUSH1 0xF8 AND SHR NOT AND DUP2 SSTORE JUMPDEST POP POP POP POP POP PUSH1 0x1 SWAP1 DUP2 SHL ADD SWAP1 SSTORE POP JUMP JUMPDEST PUSH2 0x168E DUP1 PUSH3 0x4DC PUSH1 0x0 CODECOPY PUSH1 0x0 RETURN INVALID PUSH1 0x80 PUSH1 0x40 MSTORE CALLVALUE DUP1 ISZERO PUSH2 0x10 JUMPI PUSH1 0x0 DUP1 REVERT JUMPDEST POP PUSH1 0x4 CALLDATASIZE LT PUSH2 0x18E JUMPI PUSH1 0x0 CALLDATALOAD PUSH1 0xE0 SHR DUP1 PUSH4 0xA0D541FA GT PUSH2 0xDE JUMPI DUP1 PUSH4 0xE2C13E32 GT PUSH2 0x97 JUMPI DUP1 PUSH4 0xF09153C4 GT PUSH2 0x71 JUMPI DUP1 PUSH4 0xF09153C4 EQ PUSH2 0x383 JUMPI DUP1 PUSH4 0xF2CCC543 EQ PUSH2 0x3A3 JUMPI DUP1 PUSH4 0xF2FDE38B EQ PUSH2 0x3C3 JUMPI DUP1 PUSH4 0xF8B11691 EQ PUSH2 0x3D6 JUMPI PUSH1 0x0 DUP1 REVERT JUMPDEST DUP1 PUSH4 0xE2C13E32 EQ PUSH2 0x355 JUMPI DUP1 PUSH4 0xE6B165ED EQ PUSH2 0x368 JUMPI DUP1 PUSH4 0xF0860C01 EQ PUSH2 0x37B JUMPI PUSH1 0x0 DUP1 REVERT JUMPDEST DUP1 PUSH4 0xA0D541FA EQ PUSH2 0x29A JUMPI DUP1 PUSH4 0xAB5EBA16 EQ PUSH2 0x2A2 JUMPI DUP1 PUSH4 0xBACCBFDB EQ PUSH2 0x2B5 JUMPI DUP1 PUSH4 0xBDDB7C83 EQ PUSH2 0x30C JUMPI DUP1 PUSH4 0xCB510373 EQ PUSH2 0x31F JUMPI DUP1 PUSH4 0xD5B9221B EQ PUSH2 0x332 JUMPI PUSH1 0x0 DUP1 REVERT JUMPDEST DUP1 PUSH4 0x6A01703F GT PUSH2 0x14B JUMPI DUP1 PUSH4 0x779C2159 GT PUSH2 0x125 JUMPI DUP1 PUSH4 0x779C2159 EQ PUSH2 0x250 JUMPI DUP1 PUSH4 0x85196798 EQ PUSH2 0x259 JUMPI DUP1 PUSH4 0x8DA5CB5B EQ PUSH2 0x26C JUMPI DUP1 PUSH4 0x98EAA4A7 EQ PUSH2 0x287 JUMPI PUSH1 0x0 DUP1 REVERT JUMPDEST DUP1 PUSH4 0x6A01703F EQ PUSH2 0x22B JUMPI DUP1 PUSH4 0x715018A6 EQ PUSH2 0x233 JUMPI DUP1 PUSH4 0x72051496 EQ PUSH2 0x23D JUMPI PUSH1 0x0 DUP1 REVERT JUMPDEST DUP1 PUSH4 0x24548C60 EQ PUSH2 0x193 JUMPI DUP1 PUSH4 0x27AED72E EQ PUSH2 0x1D6 JUMPI DUP1 PUSH4 0x347201EC EQ PUSH2 0x1FA JUMPI DUP1 PUSH4 0x42BE153E EQ PUSH2 0x211 JUMPI DUP1 PUSH4 0x45113548 EQ PUSH2 0x21A JUMPI DUP1 PUSH4 0x661D7CC2 EQ PUSH2 0x223 JUMPI JUMPDEST PUSH1 0x0 DUP1 REVERT JUMPDEST PUSH2 0x1C1 PUSH2 0x1A1 CALLDATASIZE PUSH1 0x4 PUSH2 0x1101 JUMP JUMPDEST PUSH1 0x2 PUSH1 0x20 SWAP1 DUP2 MSTORE PUSH1 0x0 SWAP3 DUP4 MSTORE PUSH1 0x40 DUP1 DUP5 KECCAK256 SWAP1 SWAP2 MSTORE SWAP1 DUP3 MSTORE SWAP1 KECCAK256 SLOAD PUSH1 0xFF AND DUP2 JUMP JUMPDEST PUSH1 0x40 MLOAD SWAP1 ISZERO ISZERO DUP2 MSTORE PUSH1 0x20 ADD JUMPDEST PUSH1 0x40 MLOAD DUP1 SWAP2 SUB SWAP1 RETURN JUMPDEST PUSH2 0x1E9 PUSH2 0x1E4 CALLDATASIZE PUSH1 0x4 PUSH2 0x112B JUMP JUMPDEST PUSH2 0x43F JUMP JUMPDEST PUSH1 0x40 MLOAD PUSH2 0x1CD SWAP6 SWAP5 SWAP4 SWAP3 SWAP2 SWAP1 PUSH2 0x118A JUMP JUMPDEST PUSH2 0x203 PUSH2 0x1F4 DUP2 JUMP JUMPDEST PUSH1 0x40 MLOAD SWAP1 DUP2 MSTORE PUSH1 0x20 ADD PUSH2 0x1CD JUMP JUMPDEST PUSH2 0x203 PUSH1 0x5 SLOAD DUP2 JUMP JUMPDEST PUSH2 0x203 PUSH2 0x3E8 DUP2 JUMP JUMPDEST PUSH2 0x203 PUSH1 0x64 DUP2 JUMP JUMPDEST PUSH2 0x203 PUSH1 0xA DUP2 JUMP JUMPDEST PUSH2 0x23B PUSH2 0x582 JUMP JUMPDEST STOP JUMPDEST PUSH2 0x23B PUSH2 0x24B CALLDATASIZE PUSH1 0x4 PUSH2 0x1272 JUMP JUMPDEST PUSH2 0x596 JUMP JUMPDEST PUSH2 0x203 PUSH2 0x320 DUP2 JUMP JUMPDEST PUSH2 0x203 PUSH2 0x267 CALLDATASIZE PUSH1 0x4 PUSH2 0x12E6 JUMP JUMPDEST PUSH2 0x5B0 JUMP JUMPDEST PUSH1 0x0 SLOAD PUSH1 0x40 MLOAD PUSH1 0x1 PUSH1 0x1 PUSH1 0xA0 SHL SUB SWAP1 SWAP2 AND DUP2 MSTORE PUSH1 0x20 ADD PUSH2 0x1CD JUMP JUMPDEST PUSH2 0x23B PUSH2 0x295 CALLDATASIZE PUSH1 0x4 PUSH2 0x12E6 JUMP JUMPDEST PUSH2 0x640 JUMP JUMPDEST PUSH2 0x203 PUSH1 0x19 DUP2 JUMP JUMPDEST PUSH2 0x1C1 PUSH2 0x2B0 CALLDATASIZE PUSH1 0x4 PUSH2 0x1101 JUMP JUMPDEST PUSH2 0x66C JUMP JUMPDEST PUSH2 0x2C8 PUSH2 0x2C3 CALLDATASIZE PUSH1 0x4 PUSH2 0x12E6 JUMP JUMPDEST PUSH2 0x69A JUMP JUMPDEST PUSH1 0x40 MLOAD PUSH2 0x1CD SWAP2 SWAP1 PUSH1 0x0 PUSH1 0xA0 DUP3 ADD SWAP1 POP DUP3 MLOAD DUP3 MSTORE PUSH1 0x20 DUP4 ADD MLOAD PUSH1 0x20 DUP4 ADD MSTORE PUSH1 0x40 DUP4 ADD MLOAD PUSH1 0x40 DUP4 ADD MSTORE PUSH1 0x60 DUP4 ADD MLOAD PUSH1 0x60 DUP4 ADD MSTORE PUSH1 0x80 DUP4 ADD MLOAD ISZERO ISZERO PUSH1 0x80 DUP4 ADD MSTORE SWAP3 SWAP2 POP POP JUMP JUMPDEST PUSH2 0x23B PUSH2 0x31A CALLDATASIZE PUSH1 0x4 PUSH2 0x1301 JUMP JUMPDEST PUSH2 0x72A JUMP JUMPDEST PUSH2 0x203 PUSH2 0x32D CALLDATASIZE PUSH1 0x4 PUSH2 0x12E6 JUMP JUMPDEST PUSH2 0x794 JUMP JUMPDEST PUSH2 0x1C1 PUSH2 0x340 CALLDATASIZE PUSH1 0x4 PUSH2 0x12E6 JUMP JUMPDEST PUSH1 0x4 PUSH1 0x20 MSTORE PUSH1 0x0 SWAP1 DUP2 MSTORE PUSH1 0x40 SWAP1 KECCAK256 SLOAD PUSH1 0xFF AND DUP2 JUMP JUMPDEST PUSH2 0x23B PUSH2 0x363 CALLDATASIZE PUSH1 0x4 PUSH2 0x1301 JUMP JUMPDEST PUSH2 0x81E JUMP JUMPDEST PUSH2 0x23B PUSH2 0x376 CALLDATASIZE PUSH1 0x4 PUSH2 0x12E6 JUMP JUMPDEST PUSH2 0x9EF JUMP JUMPDEST PUSH1 0x5 SLOAD PUSH2 0x203 JUMP JUMPDEST PUSH2 0x396 PUSH2 0x391 CALLDATASIZE PUSH1 0x4 PUSH2 0x12E6 JUMP JUMPDEST PUSH2 0xA18 JUMP JUMPDEST PUSH1 0x40 MLOAD PUSH2 0x1CD SWAP2 SWAP1 PUSH2 0x133D JUMP JUMPDEST PUSH2 0x3B6 PUSH2 0x3B1 CALLDATASIZE PUSH1 0x4 PUSH2 0x112B JUMP JUMPDEST PUSH2 0xB3E JUMP JUMPDEST PUSH1 0x40 MLOAD PUSH2 0x1CD SWAP2 SWAP1 PUSH2 0x1381 JUMP JUMPDEST PUSH2 0x23B PUSH2 0x3D1 CALLDATASIZE PUSH1 0x4 PUSH2 0x12E6 JUMP JUMPDEST PUSH2 0xCD8 JUMP JUMPDEST PUSH2 0x415 PUSH2 0x3E4 CALLDATASIZE PUSH1 0x4 PUSH2 0x12E6 JUMP JUMPDEST PUSH1 0x1 PUSH1 0x20 DUP2 SWAP1 MSTORE PUSH1 0x0 SWAP2 DUP3 MSTORE PUSH1 0x40 SWAP1 SWAP2 KECCAK256 DUP1 SLOAD SWAP2 DUP2 ADD SLOAD PUSH1 0x2 DUP3 ADD SLOAD PUSH1 0x3 DUP4 ADD SLOAD PUSH1 0x4 SWAP1 SWAP4 ADD SLOAD SWAP2 SWAP3 SWAP1 SWAP2 PUSH1 0xFF AND DUP6 JUMP JUMPDEST PUSH1 0x40 DUP1 MLOAD SWAP6 DUP7 MSTORE PUSH1 0x20 DUP7 ADD SWAP5 SWAP1 SWAP5 MSTORE SWAP3 DUP5 ADD SWAP2 SWAP1 SWAP2 MSTORE PUSH1 0x60 DUP4 ADD MSTORE ISZERO ISZERO PUSH1 0x80 DUP3 ADD MSTORE PUSH1 0xA0 ADD PUSH2 0x1CD JUMP JUMPDEST PUSH1 0x3 PUSH1 0x20 MSTORE PUSH1 0x0 SWAP1 DUP2 MSTORE PUSH1 0x40 SWAP1 KECCAK256 DUP1 SLOAD DUP2 SWAP1 PUSH2 0x45A SWAP1 PUSH2 0x13E7 JUMP JUMPDEST DUP1 PUSH1 0x1F ADD PUSH1 0x20 DUP1 SWAP2 DIV MUL PUSH1 0x20 ADD PUSH1 0x40 MLOAD SWAP1 DUP2 ADD PUSH1 0x40 MSTORE DUP1 SWAP3 SWAP2 SWAP1 DUP2 DUP2 MSTORE PUSH1 0x20 ADD DUP3 DUP1 SLOAD PUSH2 0x486 SWAP1 PUSH2 0x13E7 JUMP JUMPDEST DUP1 ISZERO PUSH2 0x4D3 JUMPI DUP1 PUSH1 0x1F LT PUSH2 0x4A8 JUMPI PUSH2 0x100 DUP1 DUP4 SLOAD DIV MUL DUP4 MSTORE SWAP2 PUSH1 0x20 ADD SWAP2 PUSH2 0x4D3 JUMP JUMPDEST DUP3 ADD SWAP2 SWAP1 PUSH1 0x0 MSTORE PUSH1 0x20 PUSH1 0x0 KECCAK256 SWAP1 JUMPDEST DUP2 SLOAD DUP2 MSTORE SWAP1 PUSH1 0x1 ADD SWAP1 PUSH1 0x20 ADD DUP1 DUP4 GT PUSH2 0x4B6 JUMPI DUP3 SWAP1 SUB PUSH1 0x1F AND DUP3 ADD SWAP2 JUMPDEST POP POP POP POP POP SWAP1 DUP1 PUSH1 0x1 ADD DUP1 SLOAD PUSH2 0x4E8 SWAP1 PUSH2 0x13E7 JUMP JUMPDEST DUP1 PUSH1 0x1F ADD PUSH1 0x20 DUP1 SWAP2 DIV MUL PUSH1 0x20 ADD PUSH1 0x40 MLOAD SWAP1 DUP2 ADD PUSH1 0x40 MSTORE DUP1 SWAP3 SWAP2 SWAP1 DUP2 DUP2 MSTORE PUSH1 0x20 ADD DUP3 DUP1 SLOAD PUSH2 0x514 SWAP1 PUSH2 0x13E7 JUMP JUMPDEST DUP1 ISZERO PUSH2 0x561 JUMPI DUP1 PUSH1 0x1F LT PUSH2 0x536 JUMPI PUSH2 0x100 DUP1 DUP4 SLOAD DIV MUL DUP4 MSTORE SWAP2 PUSH1 0x20 ADD SWAP2 PUSH2 0x561 JUMP JUMPDEST DUP3 ADD SWAP2 SWAP1 PUSH1 0x0 MSTORE PUSH1 0x20 PUSH1 0x0 KECCAK256 SWAP1 JUMPDEST DUP2 SLOAD DUP2 MSTORE SWAP1 PUSH1 0x1 ADD SWAP1 PUSH1 0x20 ADD DUP1 DUP4 GT PUSH2 0x544 JUMPI DUP3 SWAP1 SUB PUSH1 0x1F AND DUP3 ADD SWAP2 JUMPDEST POP POP POP POP PUSH1 0x2 DUP4 ADD SLOAD PUSH1 0x3 DUP5 ADD SLOAD PUSH1 0x4 SWAP1 SWAP5 ADD SLOAD SWAP3 SWAP4 SWAP1 SWAP3 SWAP1 SWAP2 POP PUSH1 0xFF AND DUP6 JUMP JUMPDEST PUSH2 0x58A PUSH2 0xD51 JUMP JUMPDEST PUSH2 0x594 PUSH1 0x0 PUSH2 0xDAB JUMP JUMPDEST JUMP JUMPDEST PUSH2 0x59E PUSH2 0xD51 JUMP JUMPDEST PUSH2 0x5AA DUP5 DUP5 DUP5 DUP5 PUSH2 0xDFB JUMP JUMPDEST POP POP POP POP JUMP JUMPDEST PUSH1 0x1 PUSH1 0x1 PUSH1 0xA0 SHL SUB DUP2 AND PUSH1 0x0 SWAP1 DUP2 MSTORE PUSH1 0x1 PUSH1 0x20 MSTORE PUSH1 0x40 DUP2 KECCAK256 PUSH1 0x4 ADD SLOAD PUSH1 0xFF AND ISZERO PUSH2 0x5DD JUMPI POP PUSH2 0x4E20 SWAP2 SWAP1 POP JUMP JUMPDEST PUSH1 0x1 PUSH1 0x1 PUSH1 0xA0 SHL SUB DUP3 AND PUSH1 0x0 SWAP1 DUP2 MSTORE PUSH1 0x1 PUSH1 0x20 MSTORE PUSH1 0x40 SWAP1 KECCAK256 PUSH1 0x2 ADD SLOAD PUSH2 0x320 DUP2 LT PUSH2 0x60B JUMPI POP PUSH1 0x0 SWAP3 SWAP2 POP POP JUMP JUMPDEST PUSH2 0x1F4 DUP2 LT PUSH2 0x61E JUMPI POP PUSH2 0x9C4 SWAP3 SWAP2 POP POP JUMP JUMPDEST PUSH1 0x64 DUP2 LT PUSH2 0x630 JUMPI POP PUSH2 0x1388 SWAP3 SWAP2 POP POP JUMP JUMPDEST POP PUSH2 0x2710 SWAP3 SWAP2 POP POP JUMP JUMPDEST POP SWAP2 SWAP1 POP JUMP JUMPDEST PUSH2 0x648 PUSH2 0xD51 JUMP JUMPDEST PUSH1 0x1 PUSH1 0x1 PUSH1 0xA0 SHL SUB AND PUSH1 0x0 SWAP1 DUP2 MSTORE PUSH1 0x4 PUSH1 0x20 MSTORE PUSH1 0x40 SWAP1 KECCAK256 DUP1 SLOAD PUSH1 0xFF NOT AND PUSH1 0x1 OR SWAP1 SSTORE JUMP JUMPDEST PUSH1 0x1 PUSH1 0x1 PUSH1 0xA0 SHL SUB DUP3 AND PUSH1 0x0 SWAP1 DUP2 MSTORE PUSH1 0x2 PUSH1 0x20 SWAP1 DUP2 MSTORE PUSH1 0x40 DUP1 DUP4 KECCAK256 DUP5 DUP5 MSTORE SWAP1 SWAP2 MSTORE SWAP1 KECCAK256 SLOAD PUSH1 0xFF AND JUMPDEST SWAP3 SWAP2 POP POP JUMP JUMPDEST PUSH2 0x6CE PUSH1 0x40 MLOAD DUP1 PUSH1 0xA0 ADD PUSH1 0x40 MSTORE DUP1 PUSH1 0x0 DUP2 MSTORE PUSH1 0x20 ADD PUSH1 0x0 DUP2 MSTORE PUSH1 0x20 ADD PUSH1 0x0 DUP2 MSTORE PUSH1 0x20 ADD PUSH1 0x0 DUP2 MSTORE PUSH1 0x20 ADD PUSH1 0x0 ISZERO ISZERO DUP2 MSTORE POP SWAP1 JUMP JUMPDEST POP PUSH1 0x1 PUSH1 0x1 PUSH1 0xA0 SHL SUB AND PUSH1 0x0 SWAP1 DUP2 MSTORE PUSH1 0x1 PUSH1 0x20 DUP2 DUP2 MSTORE PUSH1 0x40 SWAP3 DUP4 SWAP1 KECCAK256 DUP4 MLOAD PUSH1 0xA0 DUP2 ADD DUP6 MSTORE DUP2 SLOAD DUP2 MSTORE SWAP3 DUP2 ADD SLOAD SWAP2 DUP4 ADD SWAP2 SWAP1 SWAP2 MSTORE PUSH1 0x2 DUP2 ADD SLOAD SWAP3 DUP3 ADD SWAP3 SWAP1 SWAP3 MSTORE PUSH1 0x3 DUP3 ADD SLOAD PUSH1 0x60 DUP3 ADD MSTORE PUSH1 0x4 SWAP1 SWAP2 ADD SLOAD PUSH1 0xFF AND ISZERO ISZERO PUSH1 0x80 DUP3 ADD MSTORE SWAP1 JUMP JUMPDEST PUSH2 0x732 PUSH2 0xD51 JUMP JUMPDEST PUSH1 0x1 PUSH1 0x1 PUSH1 0xA0 SHL SUB DUP3 AND PUSH1 0x0 DUP2 DUP2 MSTORE PUSH1 0x1 PUSH1 0x20 SWAP1 DUP2 MSTORE PUSH1 0x40 SWAP2 DUP3 SWAP1 KECCAK256 PUSH1 0x4 ADD DUP1 SLOAD PUSH1 0xFF NOT AND DUP6 ISZERO ISZERO SWAP1 DUP2 OR SWAP1 SWAP2 SSTORE SWAP2 MLOAD SWAP2 DUP3 MSTORE PUSH32 0x5B7EF9D8E7FD7FF1DAE13005391BC3AA7CC048C7BA41AF348E5DA4DCBE7323E0 SWAP2 ADD PUSH1 0x40 MLOAD DUP1 SWAP2 SUB SWAP1 LOG2 POP POP JUMP JUMPDEST PUSH1 0x1 PUSH1 0x1 PUSH1 0xA0 SHL SUB DUP2 AND PUSH1 0x0 SWAP1 DUP2 MSTORE PUSH1 0x1 PUSH1 0x20 DUP2 DUP2 MSTORE PUSH1 0x40 DUP1 DUP5 KECCAK256 DUP2 MLOAD PUSH1 0xA0 DUP2 ADD DUP4 MSTORE DUP2 SLOAD DUP1 DUP3 MSTORE SWAP5 DUP3 ADD SLOAD SWAP4 DUP2 ADD SWAP4 SWAP1 SWAP4 MSTORE PUSH1 0x2 DUP2 ADD SLOAD SWAP2 DUP4 ADD SWAP2 SWAP1 SWAP2 MSTORE PUSH1 0x3 DUP2 ADD SLOAD PUSH1 0x60 DUP4 ADD MSTORE PUSH1 0x4 ADD SLOAD PUSH1 0xFF AND ISZERO ISZERO PUSH1 0x80 DUP3 ADD MSTORE SWAP1 DUP3 SUB PUSH2 0x7FB JUMPI POP PUSH1 0x0 SWAP3 SWAP2 POP POP JUMP JUMPDEST DUP1 MLOAD PUSH1 0x20 DUP3 ADD MLOAD PUSH2 0x80D SWAP1 PUSH1 0x64 PUSH2 0x1431 JUMP JUMPDEST PUSH2 0x817 SWAP2 SWAP1 PUSH2 0x1448 JUMP JUMPDEST SWAP4 SWAP3 POP POP POP JUMP JUMPDEST CALLER PUSH1 0x0 SWAP1 DUP2 MSTORE PUSH1 0x4 PUSH1 0x20 MSTORE PUSH1 0x40 SWAP1 KECCAK256 SLOAD PUSH1 0xFF AND DUP1 PUSH2 0x846 JUMPI POP PUSH1 0x0 SLOAD PUSH1 0x1 PUSH1 0x1 PUSH1 0xA0 SHL SUB AND CALLER EQ JUMPDEST PUSH2 0x888 JUMPI PUSH1 0x40 MLOAD PUSH3 0x461BCD PUSH1 0xE5 SHL DUP2 MSTORE PUSH1 0x20 PUSH1 0x4 DUP3 ADD MSTORE PUSH1 0xE PUSH1 0x24 DUP3 ADD MSTORE PUSH14 0x139BDD08185D5D1A1BDC9A5E9959 PUSH1 0x92 SHL PUSH1 0x44 DUP3 ADD MSTORE PUSH1 0x64 ADD JUMPDEST PUSH1 0x40 MLOAD DUP1 SWAP2 SUB SWAP1 REVERT JUMPDEST PUSH1 0x1 PUSH1 0x1 PUSH1 0xA0 SHL SUB DUP3 AND PUSH1 0x0 SWAP1 DUP2 MSTORE PUSH1 0x1 PUSH1 0x20 MSTORE PUSH1 0x40 SWAP1 KECCAK256 PUSH1 0x4 ADD SLOAD PUSH1 0xFF AND ISZERO PUSH2 0x8EA JUMPI PUSH1 0x40 MLOAD PUSH3 0x461BCD PUSH1 0xE5 SHL DUP2 MSTORE PUSH1 0x20 PUSH1 0x4 DUP3 ADD MSTORE PUSH1 0x13 PUSH1 0x24 DUP3 ADD MSTORE PUSH19 0x155CD95C881A5CC8189B1858DADB1A5CDD1959 PUSH1 0x6A SHL PUSH1 0x44 DUP3 ADD MSTORE PUSH1 0x64 ADD PUSH2 0x87F JUMP JUMPDEST PUSH1 0x1 PUSH1 0x1 PUSH1 0xA0 SHL SUB DUP3 AND PUSH1 0x0 SWAP1 DUP2 MSTORE PUSH1 0x1 PUSH1 0x20 DUP2 SWAP1 MSTORE PUSH1 0x40 SWAP1 SWAP2 KECCAK256 PUSH1 0x2 DUP2 ADD SLOAD DUP2 SLOAD SWAP2 SWAP3 SWAP1 SWAP2 PUSH2 0x919 SWAP2 PUSH2 0x146A JUMP JUMPDEST DUP3 SSTORE DUP3 ISZERO PUSH2 0x95D JUMPI PUSH1 0x1 DUP1 DUP4 ADD SLOAD PUSH2 0x930 SWAP2 PUSH2 0x146A JUMP JUMPDEST PUSH1 0x1 DUP4 ADD SSTORE PUSH1 0x2 DUP3 ADD SLOAD PUSH2 0x953 SWAP1 PUSH2 0x3E8 SWAP1 PUSH2 0x94E SWAP1 PUSH1 0xA SWAP1 PUSH2 0x146A JUMP JUMPDEST PUSH2 0xEA5 JUMP JUMPDEST PUSH1 0x2 DUP4 ADD SSTORE PUSH2 0x987 JUMP JUMPDEST PUSH1 0x19 DUP3 PUSH1 0x2 ADD SLOAD GT PUSH2 0x970 JUMPI PUSH1 0x0 PUSH2 0x981 JUMP JUMPDEST PUSH1 0x19 DUP3 PUSH1 0x2 ADD SLOAD PUSH2 0x981 SWAP2 SWAP1 PUSH2 0x147D JUMP JUMPDEST PUSH1 0x2 DUP4 ADD SSTORE JUMPDEST TIMESTAMP PUSH1 0x3 DUP4 ADD SSTORE PUSH2 0x996 DUP5 PUSH2 0xEBB JUMP JUMPDEST PUSH1 0x2 DUP3 ADD SLOAD PUSH1 0x40 DUP1 MLOAD DUP4 DUP2 MSTORE PUSH1 0x20 DUP2 ADD SWAP3 SWAP1 SWAP3 MSTORE DUP5 ISZERO ISZERO SWAP1 DUP3 ADD MSTORE PUSH1 0x1 PUSH1 0x1 PUSH1 0xA0 SHL SUB DUP6 AND SWAP1 PUSH32 0x57937C3230BCA65BDDB26BB4536AC3C4186490482E16CA58549F88791C7F9ED7 SWAP1 PUSH1 0x60 ADD PUSH1 0x40 MLOAD DUP1 SWAP2 SUB SWAP1 LOG2 POP POP POP POP JUMP JUMPDEST PUSH2 0x9F7 PUSH2 0xD51 JUMP JUMPDEST PUSH1 0x1 PUSH1 0x1 PUSH1 0xA0 SHL SUB AND PUSH1 0x0 SWAP1 DUP2 MSTORE PUSH1 0x4 PUSH1 0x20 MSTORE PUSH1 0x40 SWAP1 KECCAK256 DUP1 SLOAD PUSH1 0xFF NOT AND SWAP1 SSTORE JUMP JUMPDEST PUSH1 0x60 PUSH1 0x0 DUP1 JUMPDEST PUSH1 0x5 SLOAD DUP2 LT ISZERO PUSH2 0xA74 JUMPI PUSH1 0x1 PUSH1 0x1 PUSH1 0xA0 SHL SUB DUP5 AND PUSH1 0x0 SWAP1 DUP2 MSTORE PUSH1 0x2 PUSH1 0x20 SWAP1 DUP2 MSTORE PUSH1 0x40 DUP1 DUP4 KECCAK256 DUP5 DUP5 MSTORE SWAP1 SWAP2 MSTORE SWAP1 KECCAK256 SLOAD PUSH1 0xFF AND ISZERO PUSH2 0xA62 JUMPI DUP2 PUSH2 0xA5E DUP2 PUSH2 0x1490 JUMP JUMPDEST SWAP3 POP POP JUMPDEST DUP1 PUSH2 0xA6C DUP2 PUSH2 0x1490 JUMP JUMPDEST SWAP2 POP POP PUSH2 0xA1E JUMP JUMPDEST POP PUSH1 0x0 DUP2 PUSH8 0xFFFFFFFFFFFFFFFF DUP2 GT ISZERO PUSH2 0xA90 JUMPI PUSH2 0xA90 PUSH2 0x11CF JUMP JUMPDEST PUSH1 0x40 MLOAD SWAP1 DUP1 DUP3 MSTORE DUP1 PUSH1 0x20 MUL PUSH1 0x20 ADD DUP3 ADD PUSH1 0x40 MSTORE DUP1 ISZERO PUSH2 0xAB9 JUMPI DUP2 PUSH1 0x20 ADD PUSH1 0x20 DUP3 MUL DUP1 CALLDATASIZE DUP4 CALLDATACOPY ADD SWAP1 POP JUMPDEST POP SWAP1 POP PUSH1 0x0 DUP1 JUMPDEST PUSH1 0x5 SLOAD DUP2 LT ISZERO PUSH2 0xB34 JUMPI PUSH1 0x1 PUSH1 0x1 PUSH1 0xA0 SHL SUB DUP7 AND PUSH1 0x0 SWAP1 DUP2 MSTORE PUSH1 0x2 PUSH1 0x20 SWAP1 DUP2 MSTORE PUSH1 0x40 DUP1 DUP4 KECCAK256 DUP5 DUP5 MSTORE SWAP1 SWAP2 MSTORE SWAP1 KECCAK256 SLOAD PUSH1 0xFF AND ISZERO PUSH2 0xB22 JUMPI DUP1 DUP4 DUP4 DUP2 MLOAD DUP2 LT PUSH2 0xB09 JUMPI PUSH2 0xB09 PUSH2 0x14A9 JUMP JUMPDEST PUSH1 0x20 SWAP1 DUP2 MUL SWAP2 SWAP1 SWAP2 ADD ADD MSTORE DUP2 PUSH2 0xB1E DUP2 PUSH2 0x1490 JUMP JUMPDEST SWAP3 POP POP JUMPDEST DUP1 PUSH2 0xB2C DUP2 PUSH2 0x1490 JUMP JUMPDEST SWAP2 POP POP PUSH2 0xAC0 JUMP JUMPDEST POP SWAP1 SWAP5 SWAP4 POP POP POP POP JUMP JUMPDEST PUSH2 0xB72 PUSH1 0x40 MLOAD DUP1 PUSH1 0xA0 ADD PUSH1 0x40 MSTORE DUP1 PUSH1 0x60 DUP2 MSTORE PUSH1 0x20 ADD PUSH1 0x60 DUP2 MSTORE PUSH1 0x20 ADD PUSH1 0x0 DUP2 MSTORE PUSH1 0x20 ADD PUSH1 0x0 DUP2 MSTORE PUSH1 0x20 ADD PUSH1 0x0 ISZERO ISZERO DUP2 MSTORE POP SWAP1 JUMP JUMPDEST PUSH1 0x0 DUP3 DUP2 MSTORE PUSH1 0x3 PUSH1 0x20 MSTORE PUSH1 0x40 SWAP1 DUP2 SWAP1 KECCAK256 DUP2 MLOAD PUSH1 0xA0 DUP2 ADD SWAP1 SWAP3 MSTORE DUP1 SLOAD DUP3 SWAP1 DUP3 SWAP1 PUSH2 0xB9A SWAP1 PUSH2 0x13E7 JUMP JUMPDEST DUP1 PUSH1 0x1F ADD PUSH1 0x20 DUP1 SWAP2 DIV MUL PUSH1 0x20 ADD PUSH1 0x40 MLOAD SWAP1 DUP2 ADD PUSH1 0x40 MSTORE DUP1 SWAP3 SWAP2 SWAP1 DUP2 DUP2 MSTORE PUSH1 0x20 ADD DUP3 DUP1 SLOAD PUSH2 0xBC6 SWAP1 PUSH2 0x13E7 JUMP JUMPDEST DUP1 ISZERO PUSH2 0xC13 JUMPI DUP1 PUSH1 0x1F LT PUSH2 0xBE8 JUMPI PUSH2 0x100 DUP1 DUP4 SLOAD DIV MUL DUP4 MSTORE SWAP2 PUSH1 0x20 ADD SWAP2 PUSH2 0xC13 JUMP JUMPDEST DUP3 ADD SWAP2 SWAP1 PUSH1 0x0 MSTORE PUSH1 0x20 PUSH1 0x0 KECCAK256 SWAP1 JUMPDEST DUP2 SLOAD DUP2 MSTORE SWAP1 PUSH1 0x1 ADD SWAP1 PUSH1 0x20 ADD DUP1 DUP4 GT PUSH2 0xBF6 JUMPI DUP3 SWAP1 SUB PUSH1 0x1F AND DUP3 ADD SWAP2 JUMPDEST POP POP POP POP POP DUP2 MSTORE PUSH1 0x20 ADD PUSH1 0x1 DUP3 ADD DUP1 SLOAD PUSH2 0xC2C SWAP1 PUSH2 0x13E7 JUMP JUMPDEST DUP1 PUSH1 0x1F ADD PUSH1 0x20 DUP1 SWAP2 DIV MUL PUSH1 0x20 ADD PUSH1 0x40 MLOAD SWAP1 DUP2 ADD PUSH1 0x40 MSTORE DUP1 SWAP3 SWAP2 SWAP1 DUP2 DUP2 MSTORE PUSH1 0x20 ADD DUP3 DUP1 SLOAD PUSH2 0xC58 SWAP1 PUSH2 0x13E7 JUMP JUMPDEST DUP1 ISZERO PUSH2 0xCA5 JUMPI DUP1 PUSH1 0x1F LT PUSH2 0xC7A JUMPI PUSH2 0x100 DUP1 DUP4 SLOAD DIV MUL DUP4 MSTORE SWAP2 PUSH1 0x20 ADD SWAP2 PUSH2 0xCA5 JUMP JUMPDEST DUP3 ADD SWAP2 SWAP1 PUSH1 0x0 MSTORE PUSH1 0x20 PUSH1 0x0 KECCAK256 SWAP1 JUMPDEST DUP2 SLOAD DUP2 MSTORE SWAP1 PUSH1 0x1 ADD SWAP1 PUSH1 0x20 ADD DUP1 DUP4 GT PUSH2 0xC88 JUMPI DUP3 SWAP1 SUB PUSH1 0x1F AND DUP3 ADD SWAP2 JUMPDEST POP POP POP SWAP2 DUP4 MSTORE POP POP PUSH1 0x2 DUP3 ADD SLOAD PUSH1 0x20 DUP3 ADD MSTORE PUSH1 0x3 DUP3 ADD SLOAD PUSH1 0x40 DUP3 ADD MSTORE PUSH1 0x4 SWAP1 SWAP2 ADD SLOAD PUSH1 0xFF AND ISZERO ISZERO PUSH1 0x60 SWAP1 SWAP2 ADD MSTORE SWAP3 SWAP2 POP POP JUMP JUMPDEST PUSH2 0xCE0 PUSH2 0xD51 JUMP JUMPDEST PUSH1 0x1 PUSH1 0x1 PUSH1 0xA0 SHL SUB DUP2 AND PUSH2 0xD45 JUMPI PUSH1 0x40 MLOAD PUSH3 0x461BCD PUSH1 0xE5 SHL DUP2 MSTORE PUSH1 0x20 PUSH1 0x4 DUP3 ADD MSTORE PUSH1 0x26 PUSH1 0x24 DUP3 ADD MSTORE PUSH32 0x4F776E61626C653A206E6577206F776E657220697320746865207A65726F2061 PUSH1 0x44 DUP3 ADD MSTORE PUSH6 0x646472657373 PUSH1 0xD0 SHL PUSH1 0x64 DUP3 ADD MSTORE PUSH1 0x84 ADD PUSH2 0x87F JUMP JUMPDEST PUSH2 0xD4E DUP2 PUSH2 0xDAB JUMP JUMPDEST POP JUMP JUMPDEST PUSH1 0x0 SLOAD PUSH1 0x1 PUSH1 0x1 PUSH1 0xA0 SHL SUB AND CALLER EQ PUSH2 0x594 JUMPI PUSH1 0x40 MLOAD PUSH3 0x461BCD PUSH1 0xE5 SHL DUP2 MSTORE PUSH1 0x20 PUSH1 0x4 DUP3 ADD DUP2 SWAP1 MSTORE PUSH1 0x24 DUP3 ADD MSTORE PUSH32 0x4F776E61626C653A2063616C6C6572206973206E6F7420746865206F776E6572 PUSH1 0x44 DUP3 ADD MSTORE PUSH1 0x64 ADD PUSH2 0x87F JUMP JUMPDEST PUSH1 0x0 DUP1 SLOAD PUSH1 0x1 PUSH1 0x1 PUSH1 0xA0 SHL SUB DUP4 DUP2 AND PUSH1 0x1 PUSH1 0x1 PUSH1 0xA0 SHL SUB NOT DUP4 AND DUP2 OR DUP5 SSTORE PUSH1 0x40 MLOAD SWAP2 SWAP1 SWAP3 AND SWAP3 DUP4 SWAP2 PUSH32 0x8BE0079C531659141344CD1FD0A4F28419497F9722A3DAAFE3B4186F6B6457E0 SWAP2 SWAP1 LOG3 POP POP JUMP JUMPDEST PUSH1 0x5 DUP1 SLOAD PUSH1 0x0 SWAP2 DUP3 PUSH2 0xE0C DUP4 PUSH2 0x1490 JUMP JUMPDEST SWAP1 SWAP2 SSTORE POP PUSH1 0x40 DUP1 MLOAD PUSH1 0xA0 DUP2 ADD DUP3 MSTORE DUP8 DUP2 MSTORE PUSH1 0x20 DUP1 DUP3 ADD DUP9 SWAP1 MSTORE DUP2 DUP4 ADD DUP8 SWAP1 MSTORE PUSH1 0x60 DUP3 ADD DUP7 SWAP1 MSTORE PUSH1 0x1 PUSH1 0x80 DUP4 ADD MSTORE PUSH1 0x0 DUP5 DUP2 MSTORE PUSH1 0x3 SWAP1 SWAP2 MSTORE SWAP2 SWAP1 SWAP2 KECCAK256 DUP2 MLOAD SWAP3 SWAP4 POP SWAP1 SWAP2 DUP2 SWAP1 PUSH2 0xE5A SWAP1 DUP3 PUSH2 0x150D JUMP JUMPDEST POP PUSH1 0x20 DUP3 ADD MLOAD PUSH1 0x1 DUP3 ADD SWAP1 PUSH2 0xE6F SWAP1 DUP3 PUSH2 0x150D JUMP JUMPDEST POP PUSH1 0x40 DUP3 ADD MLOAD PUSH1 0x2 DUP3 ADD SSTORE PUSH1 0x60 DUP3 ADD MLOAD PUSH1 0x3 DUP3 ADD SSTORE PUSH1 0x80 SWAP1 SWAP2 ADD MLOAD PUSH1 0x4 SWAP1 SWAP2 ADD DUP1 SLOAD PUSH1 0xFF NOT AND SWAP2 ISZERO ISZERO SWAP2 SWAP1 SWAP2 OR SWAP1 SSTORE POP POP POP POP POP JUMP JUMPDEST PUSH1 0x0 DUP2 DUP4 LT PUSH2 0xEB4 JUMPI DUP2 PUSH2 0x817 JUMP JUMPDEST POP SWAP1 SWAP2 SWAP1 POP JUMP JUMPDEST PUSH1 0x1 PUSH1 0x1 PUSH1 0xA0 SHL SUB DUP2 AND PUSH1 0x0 SWAP1 DUP2 MSTORE PUSH1 0x1 PUSH1 0x20 DUP2 DUP2 MSTORE PUSH1 0x40 DUP1 DUP5 KECCAK256 DUP2 MLOAD PUSH1 0xA0 DUP2 ADD DUP4 MSTORE DUP2 SLOAD DUP2 MSTORE SWAP4 DUP2 ADD SLOAD SWAP3 DUP5 ADD SWAP3 SWAP1 SWAP3 MSTORE PUSH1 0x2 DUP3 ADD SLOAD SWAP1 DUP4 ADD MSTORE PUSH1 0x3 DUP2 ADD SLOAD PUSH1 0x60 DUP4 ADD MSTORE PUSH1 0x4 ADD SLOAD PUSH1 0xFF AND ISZERO ISZERO PUSH1 0x80 DUP3 ADD MSTORE SWAP1 JUMPDEST PUSH1 0x5 SLOAD DUP2 LT ISZERO PUSH2 0x10E0 JUMPI PUSH1 0x0 DUP2 DUP2 MSTORE PUSH1 0x3 PUSH1 0x20 MSTORE PUSH1 0x40 SWAP1 KECCAK256 PUSH1 0x4 ADD SLOAD PUSH1 0xFF AND ISZERO DUP1 PUSH2 0xF5E JUMPI POP PUSH1 0x1 PUSH1 0x1 PUSH1 0xA0 SHL SUB DUP4 AND PUSH1 0x0 SWAP1 DUP2 MSTORE PUSH1 0x2 PUSH1 0x20 SWAP1 DUP2 MSTORE PUSH1 0x40 DUP1 DUP4 KECCAK256 DUP5 DUP5 MSTORE SWAP1 SWAP2 MSTORE SWAP1 KECCAK256 SLOAD PUSH1 0xFF AND JUMPDEST PUSH2 0x10CE JUMPI PUSH1 0x0 DUP2 ISZERO DUP1 ISZERO PUSH2 0xF74 JUMPI POP DUP3 MLOAD PUSH1 0x1 GT ISZERO JUMPDEST ISZERO PUSH2 0xF81 JUMPI POP PUSH1 0x1 PUSH2 0x1009 JUMP JUMPDEST DUP2 PUSH1 0x1 EQ DUP1 ISZERO PUSH2 0xF93 JUMPI POP DUP3 MLOAD PUSH1 0xA GT ISZERO JUMPDEST ISZERO PUSH2 0xFA0 JUMPI POP PUSH1 0x1 PUSH2 0x1009 JUMP JUMPDEST DUP2 PUSH1 0x2 EQ DUP1 ISZERO PUSH2 0xFB2 JUMPI POP DUP3 MLOAD PUSH1 0x32 GT ISZERO JUMPDEST ISZERO PUSH2 0xFBF JUMPI POP PUSH1 0x1 PUSH2 0x1009 JUMP JUMPDEST DUP2 PUSH1 0x3 EQ DUP1 ISZERO PUSH2 0xFD1 JUMPI POP DUP3 MLOAD PUSH1 0x64 GT ISZERO JUMPDEST ISZERO PUSH2 0xFDE JUMPI POP PUSH1 0x1 PUSH2 0x1009 JUMP JUMPDEST DUP2 PUSH1 0x4 EQ DUP1 ISZERO PUSH2 0xFF0 JUMPI POP DUP3 MLOAD PUSH1 0x14 GT ISZERO JUMPDEST DUP1 ISZERO PUSH2 0x1000 JUMPI POP DUP3 MLOAD PUSH1 0x20 DUP5 ADD MLOAD EQ JUMPDEST ISZERO PUSH2 0x1009 JUMPI POP PUSH1 0x1 JUMPDEST DUP1 ISZERO PUSH2 0x10CC JUMPI PUSH1 0x1 PUSH1 0x1 PUSH1 0xA0 SHL SUB DUP5 AND PUSH1 0x0 DUP2 DUP2 MSTORE PUSH1 0x2 PUSH1 0x20 DUP2 DUP2 MSTORE PUSH1 0x40 DUP1 DUP5 KECCAK256 DUP8 DUP6 MSTORE DUP3 MSTORE DUP1 DUP5 KECCAK256 DUP1 SLOAD PUSH1 0xFF NOT AND PUSH1 0x1 SWAP1 DUP2 OR SWAP1 SWAP2 SSTORE PUSH1 0x3 DUP1 DUP5 MSTORE DUP3 DUP7 KECCAK256 ADD SLOAD SWAP6 DUP6 MSTORE SWAP1 SWAP2 MSTORE SWAP1 SWAP2 KECCAK256 ADD SLOAD PUSH2 0x1067 SWAP2 PUSH2 0x3E8 SWAP2 PUSH2 0x94E SWAP2 SWAP1 PUSH2 0x146A JUMP JUMPDEST PUSH1 0x1 PUSH1 0x1 PUSH1 0xA0 SHL SUB DUP6 AND PUSH1 0x0 DUP2 DUP2 MSTORE PUSH1 0x1 PUSH1 0x20 SWAP1 DUP2 MSTORE PUSH1 0x40 DUP1 DUP4 KECCAK256 PUSH1 0x2 ADD SWAP5 SWAP1 SWAP5 SSTORE DUP6 DUP3 MSTORE PUSH1 0x3 SWAP1 MSTORE DUP3 SWAP1 KECCAK256 SWAP2 MLOAD DUP5 SWAP3 PUSH32 0x5808713F30D1D277897ADB26EF9590A7FF17FDDBDE59FBFC3139AD01929CE421 SWAP2 PUSH2 0x10C3 SWAP2 SWAP1 PUSH2 0x15CD JUMP JUMPDEST PUSH1 0x40 MLOAD DUP1 SWAP2 SUB SWAP1 LOG3 JUMPDEST POP JUMPDEST DUP1 PUSH2 0x10D8 DUP2 PUSH2 0x1490 JUMP JUMPDEST SWAP2 POP POP PUSH2 0xF10 JUMP JUMPDEST POP POP POP JUMP JUMPDEST DUP1 CALLDATALOAD PUSH1 0x1 PUSH1 0x1 PUSH1 0xA0 SHL SUB DUP2 AND DUP2 EQ PUSH2 0x10FC JUMPI PUSH1 0x0 DUP1 REVERT JUMPDEST SWAP2 SWAP1 POP JUMP JUMPDEST PUSH1 0x0 DUP1 PUSH1 0x40 DUP4 DUP6 SUB SLT ISZERO PUSH2 0x1114 JUMPI PUSH1 0x0 DUP1 REVERT JUMPDEST PUSH2 0x111D DUP4 PUSH2 0x10E5 JUMP JUMPDEST SWAP5 PUSH1 0x20 SWAP4 SWAP1 SWAP4 ADD CALLDATALOAD SWAP4 POP POP POP JUMP JUMPDEST PUSH1 0x0 PUSH1 0x20 DUP3 DUP5 SUB SLT ISZERO PUSH2 0x113D JUMPI PUSH1 0x0 DUP1 REVERT JUMPDEST POP CALLDATALOAD SWAP2 SWAP1 POP JUMP JUMPDEST PUSH1 0x0 DUP2 MLOAD DUP1 DUP5 MSTORE PUSH1 0x0 JUMPDEST DUP2 DUP2 LT ISZERO PUSH2 0x116A JUMPI PUSH1 0x20 DUP2 DUP6 ADD DUP2 ADD MLOAD DUP7 DUP4 ADD DUP3 ADD MSTORE ADD PUSH2 0x114E JUMP JUMPDEST POP PUSH1 0x0 PUSH1 0x20 DUP3 DUP7 ADD ADD MSTORE PUSH1 0x20 PUSH1 0x1F NOT PUSH1 0x1F DUP4 ADD AND DUP6 ADD ADD SWAP2 POP POP SWAP3 SWAP2 POP POP JUMP JUMPDEST PUSH1 0xA0 DUP2 MSTORE PUSH1 0x0 PUSH2 0x119D PUSH1 0xA0 DUP4 ADD DUP9 PUSH2 0x1144 JUMP JUMPDEST DUP3 DUP2 SUB PUSH1 0x20 DUP5 ADD MSTORE PUSH2 0x11AF DUP2 DUP9 PUSH2 0x1144 JUMP JUMPDEST PUSH1 0x40 DUP5 ADD SWAP7 SWAP1 SWAP7 MSTORE POP POP PUSH1 0x60 DUP2 ADD SWAP3 SWAP1 SWAP3 MSTORE ISZERO ISZERO PUSH1 0x80 SWAP1 SWAP2 ADD MSTORE SWAP3 SWAP2 POP POP JUMP JUMPDEST PUSH4 0x4E487B71 PUSH1 0xE0 SHL PUSH1 0x0 MSTORE PUSH1 0x41 PUSH1 0x4 MSTORE PUSH1 0x24 PUSH1 0x0 REVERT JUMPDEST PUSH1 0x0 DUP3 PUSH1 0x1F DUP4 ADD SLT PUSH2 0x11F6 JUMPI PUSH1 0x0 DUP1 REVERT JUMPDEST DUP2 CALLDATALOAD PUSH8 0xFFFFFFFFFFFFFFFF DUP1 DUP3 GT ISZERO PUSH2 0x1211 JUMPI PUSH2 0x1211 PUSH2 0x11CF JUMP JUMPDEST PUSH1 0x40 MLOAD PUSH1 0x1F DUP4 ADD PUSH1 0x1F NOT SWAP1 DUP2 AND PUSH1 0x3F ADD AND DUP2 ADD SWAP1 DUP3 DUP3 GT DUP2 DUP4 LT OR ISZERO PUSH2 0x1239 JUMPI PUSH2 0x1239 PUSH2 0x11CF JUMP JUMPDEST DUP2 PUSH1 0x40 MSTORE DUP4 DUP2 MSTORE DUP7 PUSH1 0x20 DUP6 DUP9 ADD ADD GT ISZERO PUSH2 0x1252 JUMPI PUSH1 0x0 DUP1 REVERT JUMPDEST DUP4 PUSH1 0x20 DUP8 ADD PUSH1 0x20 DUP4 ADD CALLDATACOPY PUSH1 0x0 PUSH1 0x20 DUP6 DUP4 ADD ADD MSTORE DUP1 SWAP5 POP POP POP POP POP SWAP3 SWAP2 POP POP JUMP JUMPDEST PUSH1 0x0 DUP1 PUSH1 0x0 DUP1 PUSH1 0x80 DUP6 DUP8 SUB SLT ISZERO PUSH2 0x1288 JUMPI PUSH1 0x0 DUP1 REVERT JUMPDEST DUP5 CALLDATALOAD PUSH8 0xFFFFFFFFFFFFFFFF DUP1 DUP3 GT ISZERO PUSH2 0x12A0 JUMPI PUSH1 0x0 DUP1 REVERT JUMPDEST PUSH2 0x12AC DUP9 DUP4 DUP10 ADD PUSH2 0x11E5 JUMP JUMPDEST SWAP6 POP PUSH1 0x20 DUP8 ADD CALLDATALOAD SWAP2 POP DUP1 DUP3 GT ISZERO PUSH2 0x12C2 JUMPI PUSH1 0x0 DUP1 REVERT JUMPDEST POP PUSH2 0x12CF DUP8 DUP3 DUP9 ADD PUSH2 0x11E5 JUMP JUMPDEST SWAP5 SWAP8 SWAP5 SWAP7 POP POP POP POP PUSH1 0x40 DUP4 ADD CALLDATALOAD SWAP3 PUSH1 0x60 ADD CALLDATALOAD SWAP2 SWAP1 POP JUMP JUMPDEST PUSH1 0x0 PUSH1 0x20 DUP3 DUP5 SUB SLT ISZERO PUSH2 0x12F8 JUMPI PUSH1 0x0 DUP1 REVERT JUMPDEST PUSH2 0x817 DUP3 PUSH2 0x10E5 JUMP JUMPDEST PUSH1 0x0 DUP1 PUSH1 0x40 DUP4 DUP6 SUB SLT ISZERO PUSH2 0x1314 JUMPI PUSH1 0x0 DUP1 REVERT JUMPDEST PUSH2 0x131D DUP4 PUSH2 0x10E5 JUMP JUMPDEST SWAP2 POP PUSH1 0x20 DUP4 ADD CALLDATALOAD DUP1 ISZERO ISZERO DUP2 EQ PUSH2 0x1332 JUMPI PUSH1 0x0 DUP1 REVERT JUMPDEST DUP1 SWAP2 POP POP SWAP3 POP SWAP3 SWAP1 POP JUMP JUMPDEST PUSH1 0x20 DUP1 DUP3 MSTORE DUP3 MLOAD DUP3 DUP3 ADD DUP2 SWAP1 MSTORE PUSH1 0x0 SWAP2 SWAP1 DUP5 DUP3 ADD SWAP1 PUSH1 0x40 DUP6 ADD SWAP1 DUP5 JUMPDEST DUP2 DUP2 LT ISZERO PUSH2 0x1375 JUMPI DUP4 MLOAD DUP4 MSTORE SWAP3 DUP5 ADD SWAP3 SWAP2 DUP5 ADD SWAP2 PUSH1 0x1 ADD PUSH2 0x1359 JUMP JUMPDEST POP SWAP1 SWAP7 SWAP6 POP POP POP POP POP POP JUMP JUMPDEST PUSH1 0x20 DUP2 MSTORE PUSH1 0x0 DUP3 MLOAD PUSH1 0xA0 PUSH1 0x20 DUP5 ADD MSTORE PUSH2 0x139D PUSH1 0xC0 DUP5 ADD DUP3 PUSH2 0x1144 JUMP JUMPDEST SWAP1 POP PUSH1 0x20 DUP5 ADD MLOAD PUSH1 0x1F NOT DUP5 DUP4 SUB ADD PUSH1 0x40 DUP6 ADD MSTORE PUSH2 0x13BA DUP3 DUP3 PUSH2 0x1144 JUMP JUMPDEST SWAP2 POP POP PUSH1 0x40 DUP5 ADD MLOAD PUSH1 0x60 DUP5 ADD MSTORE PUSH1 0x60 DUP5 ADD MLOAD PUSH1 0x80 DUP5 ADD MSTORE PUSH1 0x80 DUP5 ADD MLOAD ISZERO ISZERO PUSH1 0xA0 DUP5 ADD MSTORE DUP1 SWAP2 POP POP SWAP3 SWAP2 POP POP JUMP JUMPDEST PUSH1 0x1 DUP2 DUP2 SHR SWAP1 DUP3 AND DUP1 PUSH2 0x13FB JUMPI PUSH1 0x7F DUP3 AND SWAP2 POP JUMPDEST PUSH1 0x20 DUP3 LT DUP2 SUB PUSH2 0x63A JUMPI PUSH4 0x4E487B71 PUSH1 0xE0 SHL PUSH1 0x0 MSTORE PUSH1 0x22 PUSH1 0x4 MSTORE PUSH1 0x24 PUSH1 0x0 REVERT JUMPDEST PUSH4 0x4E487B71 PUSH1 0xE0 SHL PUSH1 0x0 MSTORE PUSH1 0x11 PUSH1 0x4 MSTORE PUSH1 0x24 PUSH1 0x0 REVERT JUMPDEST DUP1 DUP3 MUL DUP2 ISZERO DUP3 DUP3 DIV DUP5 EQ OR PUSH2 0x694 JUMPI PUSH2 0x694 PUSH2 0x141B JUMP JUMPDEST PUSH1 0x0 DUP3 PUSH2 0x1465 JUMPI PUSH4 0x4E487B71 PUSH1 0xE0 SHL PUSH1 0x0 MSTORE PUSH1 0x12 PUSH1 0x4 MSTORE PUSH1 0x24 PUSH1 0x0 REVERT JUMPDEST POP DIV SWAP1 JUMP JUMPDEST DUP1 DUP3 ADD DUP1 DUP3 GT ISZERO PUSH2 0x694 JUMPI PUSH2 0x694 PUSH2 0x141B JUMP JUMPDEST DUP2 DUP2 SUB DUP2 DUP2 GT ISZERO PUSH2 0x694 JUMPI PUSH2 0x694 PUSH2 0x141B JUMP JUMPDEST PUSH1 0x0 PUSH1 0x1 DUP3 ADD PUSH2 0x14A2 JUMPI PUSH2 0x14A2 PUSH2 0x141B JUMP JUMPDEST POP PUSH1 0x1 ADD SWAP1 JUMP JUMPDEST PUSH4 0x4E487B71 PUSH1 0xE0 SHL PUSH1 0x0 MSTORE PUSH1 0x32 PUSH1 0x4 MSTORE PUSH1 0x24 PUSH1 0x0 REVERT JUMPDEST PUSH1 0x1F DUP3 GT ISZERO PUSH2 0x10E0 JUMPI PUSH1 0x0 DUP2 DUP2 MSTORE PUSH1 0x20 DUP2 KECCAK256 PUSH1 0x1F DUP6 ADD PUSH1 0x5 SHR DUP2 ADD PUSH1 0x20 DUP7 LT ISZERO PUSH2 0x14E6 JUMPI POP DUP1 JUMPDEST PUSH1 0x1F DUP6 ADD PUSH1 0x5 SHR DUP3 ADD SWAP2 POP JUMPDEST DUP2 DUP2 LT ISZERO PUSH2 0x1505 JUMPI DUP3 DUP2 SSTORE PUSH1 0x1 ADD PUSH2 0x14F2 JUMP JUMPDEST POP POP POP POP POP POP JUMP JUMPDEST DUP2 MLOAD PUSH8 0xFFFFFFFFFFFFFFFF DUP2 GT ISZERO PUSH2 0x1527 JUMPI PUSH2 0x1527 PUSH2 0x11CF JUMP JUMPDEST PUSH2 0x153B DUP2 PUSH2 0x1535 DUP5 SLOAD PUSH2 0x13E7 JUMP JUMPDEST DUP5 PUSH2 0x14BF JUMP JUMPDEST PUSH1 0x20 DUP1 PUSH1 0x1F DUP4 GT PUSH1 0x1 DUP2 EQ PUSH2 0x1570 JUMPI PUSH1 0x0 DUP5 ISZERO PUSH2 0x1558 JUMPI POP DUP6 DUP4 ADD MLOAD JUMPDEST PUSH1 0x0 NOT PUSH1 0x3 DUP7 SWAP1 SHL SHR NOT AND PUSH1 0x1 DUP6 SWAP1 SHL OR DUP6 SSTORE PUSH2 0x1505 JUMP JUMPDEST PUSH1 0x0 DUP6 DUP2 MSTORE PUSH1 0x20 DUP2 KECCAK256 PUSH1 0x1F NOT DUP7 AND SWAP2 JUMPDEST DUP3 DUP2 LT ISZERO PUSH2 0x159F JUMPI DUP9 DUP7 ADD MLOAD DUP3 SSTORE SWAP5 DUP5 ADD SWAP5 PUSH1 0x1 SWAP1 SWAP2 ADD SWAP1 DUP5 ADD PUSH2 0x1580 JUMP JUMPDEST POP DUP6 DUP3 LT ISZERO PUSH2 0x15BD JUMPI DUP8 DUP6 ADD MLOAD PUSH1 0x0 NOT PUSH1 0x3 DUP9 SWAP1 SHL PUSH1 0xF8 AND SHR NOT AND DUP2 SSTORE JUMPDEST POP POP POP POP POP PUSH1 0x1 SWAP1 DUP2 SHL ADD SWAP1 SSTORE POP JUMP JUMPDEST PUSH1 0x0 PUSH1 0x20 DUP1 DUP4 MSTORE PUSH1 0x0 DUP5 SLOAD PUSH2 0x15E1 DUP2 PUSH2 0x13E7 JUMP JUMPDEST DUP1 DUP5 DUP8 ADD MSTORE PUSH1 0x40 PUSH1 0x1 DUP1 DUP5 AND PUSH1 0x0 DUP2 EQ PUSH2 0x1602 JUMPI PUSH1 0x1 DUP2 EQ PUSH2 0x161C JUMPI PUSH2 0x164A JUMP JUMPDEST PUSH1 0xFF NOT DUP6 AND DUP10 DUP5 ADD MSTORE DUP4 ISZERO ISZERO PUSH1 0x5 SHL DUP10 ADD DUP4 ADD SWAP6 POP PUSH2 0x164A JUMP JUMPDEST DUP10 PUSH1 0x0 MSTORE DUP7 PUSH1 0x0 KECCAK256 PUSH1 0x0 JUMPDEST DUP6 DUP2 LT ISZERO PUSH2 0x1642 JUMPI DUP2 SLOAD DUP12 DUP3 ADD DUP7 ADD MSTORE SWAP1 DUP4 ADD SWAP1 DUP9 ADD PUSH2 0x1627 JUMP JUMPDEST DUP11 ADD DUP5 ADD SWAP7 POP POP JUMPDEST POP SWAP4 SWAP9 SWAP8 POP POP POP POP POP POP POP POP JUMP INVALID LOG2 PUSH5 0x6970667358 0x22 SLT KECCAK256 0x22 LOG1 PUSH28 0xC91EF71B847ADC184DE8BA0AC5F1C3CACB84FB5258BB0A21CC3A0799 SLOAD PUSH5 0x736F6C6343 STOP ADDMOD SGT STOP CALLER 0x4D PUSH2 0x696E PUSH21 0x61696E203130302520737563636573732072617465 KECCAK256 PUSH24 0x6974682032302B2072656E74616C73000000000000000000 "},"methodIdentifiers":{"MAX_REPUTATION_SCORE()":"45113548","REPUTATION_GAIN()":"6a01703f","REPUTATION_LOSS()":"a0d541fa","REPUTATION_THRESHOLD_HIGH()":"779c2159","REPUTATION_THRESHOLD_LOW()":"661d7cc2","REPUTATION_THRESHOLD_MID()":"347201ec","achievements(uint256)":"27aed72e","addAuthorizedContract(address)":"98eaa4a7","authorizedContracts(address)":"d5b9221b","createAchievement(string,string,uint256,uint256)":"72051496","getAchievement(uint256)":"f2ccc543","getCollateralMultiplier(address)":"85196798","getSuccessRate(address)":"cb510373","getTotalAchievements()":"f0860c01","getUserAchievements(address)":"f09153c4","getUserReputation(address)":"baccbfdb","hasAchievement(address,uint256)":"ab5eba16","nextAchievementId()":"42be153e","owner()":"8da5cb5b","removeAuthorizedContract(address)":"e6b165ed","renounceOwnership()":"715018a6","setUserBlacklisted(address,bool)":"bddb7c83","transferOwnership(address)":"f2fde38b","updateReputation(address,bool)":"e2c13e32","userAchievements(address,uint256)":"24548c60","userReputations(address)":"f8b11691"}}}}}