{
  "_format": "hh-sol-artifact-1",
  "contractName": "PaymentStream",
  "sourceName": "contracts/PaymentStream.sol",
  "abi": [
    {
      "anonymous": false,
      "inputs": [
        {
          "indexed": true,
          "internalType": "address",
          "name": "previousOwner",
          "type": "address"
        },
        {
          "indexed": true,
          "internalType": "address",
          "name": "newOwner",
          "type": "address"
        }
      ],
      "name": "OwnershipTransferred",
      "type": "event"
    },
    {
      "anonymous": false,
      "inputs": [
        {
          "indexed": true,
          "internalType": "uint256",
          "name": "streamId",
          "type": "uint256"
        },
        {
          "indexed": true,
          "internalType": "address",
          "name": "sender",
          "type": "address"
        },
        {
          "indexed": true,
          "internalType": "address",
          "name": "recipient",
          "type": "address"
        },
        {
          "indexed": false,
          "internalType": "uint256",
          "name": "senderBalance",
          "type": "uint256"
        },
        {
          "indexed": false,
          "internalType": "uint256",
          "name": "recipientBalance",
          "type": "uint256"
        }
      ],
      "name": "StreamCancelled",
      "type": "event"
    },
    {
      "anonymous": false,
      "inputs": [
        {
          "indexed": true,
          "internalType": "uint256",
          "name": "streamId",
          "type": "uint256"
        },
        {
          "indexed": true,
          "internalType": "address",
          "name": "sender",
          "type": "address"
        },
        {
          "indexed": true,
          "internalType": "address",
          "name": "recipient",
          "type": "address"
        },
        {
          "indexed": false,
          "internalType": "uint256",
          "name": "deposit",
          "type": "uint256"
        },
        {
          "indexed": false,
          "internalType": "uint256",
          "name": "ratePerSecond",
          "type": "uint256"
        },
        {
          "indexed": false,
          "internalType": "uint256",
          "name": "startTime",
          "type": "uint256"
        },
        {
          "indexed": false,
          "internalType": "uint256",
          "name": "stopTime",
          "type": "uint256"
        }
      ],
      "name": "StreamCreated",
      "type": "event"
    },
    {
      "anonymous": false,
      "inputs": [
        {
          "indexed": true,
          "internalType": "uint256",
          "name": "streamId",
          "type": "uint256"
        },
        {
          "indexed": true,
          "internalType": "address",
          "name": "recipient",
          "type": "address"
        },
        {
          "indexed": false,
          "internalType": "uint256",
          "name": "amount",
          "type": "uint256"
        }
      ],
      "name": "StreamWithdrawn",
      "type": "event"
    },
    {
      "inputs": [],
      "name": "MINIMUM_STREAM_DURATION",
      "outputs": [
        {
          "internalType": "uint256",
          "name": "",
          "type": "uint256"
        }
      ],
      "stateMutability": "view",
      "type": "function"
    },
    {
      "inputs": [
        {
          "internalType": "uint256",
          "name": "streamId",
          "type": "uint256"
        }
      ],
      "name": "balanceOf",
      "outputs": [
        {
          "internalType": "uint256",
          "name": "",
          "type": "uint256"
        }
      ],
      "stateMutability": "view",
      "type": "function"
    },
    {
      "inputs": [
        {
          "internalType": "uint256",
          "name": "streamId",
          "type": "uint256"
        }
      ],
      "name": "cancelStream",
      "outputs": [],
      "stateMutability": "nonpayable",
      "type": "function"
    },
    {
      "inputs": [
        {
          "internalType": "address",
          "name": "recipient",
          "type": "address"
        },
        {
          "internalType": "uint256",
          "name": "startTime",
          "type": "uint256"
        },
        {
          "internalType": "uint256",
          "name": "stopTime",
          "type": "uint256"
        }
      ],
      "name": "createStream",
      "outputs": [
        {
          "internalType": "uint256",
          "name": "streamId",
          "type": "uint256"
        }
      ],
      "stateMutability": "payable",
      "type": "function"
    },
    {
      "inputs": [
        {
          "internalType": "uint256",
          "name": "streamId",
          "type": "uint256"
        }
      ],
      "name": "emergencyWithdraw",
      "outputs": [],
      "stateMutability": "nonpayable",
      "type": "function"
    },
    {
      "inputs": [
        {
          "internalType": "address",
          "name": "user",
          "type": "address"
        }
      ],
      "name": "getRecipientStreams",
      "outputs": [
        {
          "internalType": "uint256[]",
          "name": "",
          "type": "uint256[]"
        }
      ],
      "stateMutability": "view",
      "type": "function"
    },
    {
      "inputs": [
        {
          "internalType": "address",
          "name": "user",
          "type": "address"
        }
      ],
      "name": "getSenderStreams",
      "outputs": [
        {
          "internalType": "uint256[]",
          "name": "",
          "type": "uint256[]"
        }
      ],
      "stateMutability": "view",
      "type": "function"
    },
    {
      "inputs": [
        {
          "internalType": "uint256",
          "name": "streamId",
          "type": "uint256"
        }
      ],
      "name": "getStream",
      "outputs": [
        {
          "components": [
            {
              "internalType": "address",
              "name": "sender",
              "type": "address"
            },
            {
              "internalType": "address",
              "name": "recipient",
              "type": "address"
            },
            {
              "internalType": "uint256",
              "name": "deposit",
              "type": "uint256"
            },
            {
              "internalType": "uint256",
              "name": "ratePerSecond",
              "type": "uint256"
            },
            {
              "internalType": "uint256",
              "name": "startTime",
              "type": "uint256"
            },
            {
              "internalType": "uint256",
              "name": "stopTime",
              "type": "uint256"
            },
            {
              "internalType": "uint256",
              "name": "remainingBalance",
              "type": "uint256"
            },
            {
              "internalType": "bool",
              "name": "active",
              "type": "bool"
            }
          ],
          "internalType": "struct PaymentStream.Stream",
          "name": "",
          "type": "tuple"
        }
      ],
      "stateMutability": "view",
      "type": "function"
    },
    {
      "inputs": [
        {
          "internalType": "uint256",
          "name": "streamId",
          "type": "uint256"
        }
      ],
      "name": "getStreamRate",
      "outputs": [
        {
          "internalType": "uint256",
          "name": "",
          "type": "uint256"
        }
      ],
      "stateMutability": "view",
      "type": "function"
    },
    {
      "inputs": [
        {
          "internalType": "uint256",
          "name": "streamId",
          "type": "uint256"
        }
      ],
      "name": "getTotalStreamed",
      "outputs": [
        {
          "internalType": "uint256",
          "name": "",
          "type": "uint256"
        }
      ],
      "stateMutability": "view",
      "type": "function"
    },
    {
      "inputs": [
        {
          "internalType": "uint256",
          "name": "streamId",
          "type": "uint256"
        }
      ],
      "name": "isStreamActive",
      "outputs": [
        {
          "internalType": "bool",
          "name": "",
          "type": "bool"
        }
      ],
      "stateMutability": "view",
      "type": "function"
    },
    {
      "inputs": [],
      "name": "nextStreamId",
      "outputs": [
        {
          "internalType": "uint256",
          "name": "",
          "type": "uint256"
        }
      ],
      "stateMutability": "view",
      "type": "function"
    },
    {
      "inputs": [],
      "name": "owner",
      "outputs": [
        {
          "internalType": "address",
          "name": "",
          "type": "address"
        }
      ],
      "stateMutability": "view",
      "type": "function"
    },
    {
      "inputs": [
        {
          "internalType": "address",
          "name": "",
          "type": "address"
        },
        {
          "internalType": "uint256",
          "name": "",
          "type": "uint256"
        }
      ],
      "name": "recipientStreams",
      "outputs": [
        {
          "internalType": "uint256",
          "name": "",
          "type": "uint256"
        }
      ],
      "stateMutability": "view",
      "type": "function"
    },
    {
      "inputs": [],
      "name": "renounceOwnership",
      "outputs": [],
      "stateMutability": "nonpayable",
      "type": "function"
    },
    {
      "inputs": [
        {
          "internalType": "address",
          "name": "",
          "type": "address"
        },
        {
          "internalType": "uint256",
          "name": "",
          "type": "uint256"
        }
      ],
      "name": "senderStreams",
      "outputs": [
        {
          "internalType": "uint256",
          "name": "",
          "type": "uint256"
        }
      ],
      "stateMutability": "view",
      "type": "function"
    },
    {
      "inputs": [
        {
          "internalType": "uint256",
          "name": "",
          "type": "uint256"
        }
      ],
      "name": "streams",
      "outputs": [
        {
          "internalType": "address",
          "name": "sender",
          "type": "address"
        },
        {
          "internalType": "address",
          "name": "recipient",
          "type": "address"
        },
        {
          "internalType": "uint256",
          "name": "deposit",
          "type": "uint256"
        },
        {
          "internalType": "uint256",
          "name": "ratePerSecond",
          "type": "uint256"
        },
        {
          "internalType": "uint256",
          "name": "startTime",
          "type": "uint256"
        },
        {
          "internalType": "uint256",
          "name": "stopTime",
          "type": "uint256"
        },
        {
          "internalType": "uint256",
          "name": "remainingBalance",
          "type": "uint256"
        },
        {
          "internalType": "bool",
          "name": "active",
          "type": "bool"
        }
      ],
      "stateMutability": "view",
      "type": "function"
    },
    {
      "inputs": [
        {
          "internalType": "address",
          "name": "newOwner",
          "type": "address"
        }
      ],
      "name": "transferOwnership",
      "outputs": [],
      "stateMutability": "nonpayable",
      "type": "function"
    },
    {
      "inputs": [
        {
          "internalType": "uint256",
          "name": "streamId",
          "type": "uint256"
        },
        {
          "internalType": "uint256",
          "name": "amount",
          "type": "uint256"
        }
      ],
      "name": "withdrawFromStream",
      "outputs": [],
      "stateMutability": "nonpayable",
      "type": "function"
    }
  ],
  "bytecode": "0x608060405234801561001057600080fd5b50600160005561001f33610024565b610076565b600180546001600160a01b038381166001600160a01b0319831681179093556040519116919082907f8be0079c531659141344cd1fd0a4f28419497f9722a3daafe3b4186f6b6457e090600090a35050565b611716806100856000396000f3fe6080604052600436106101145760003560e01c80637a9b2c6c116100a0578063c019f4fc11610064578063c019f4fc146103fd578063cd9e3fe81461042a578063dbf131221461043d578063f2fde38b1461045d578063f7afe9021461047d57600080fd5b80637a9b2c6c146102d6578063894e9a0d146102f65780638da5cb5b1461038557806399d8c28e146103ad5780639cc7f708146103dd57600080fd5b806364d60d91116100e757806364d60d91146101995780636db9241b146102515780636e4f2ee914610271578063715018a6146102a157806371f921a4146102b657600080fd5b80631e99d569146101195780632019de28146101425780635312ea8e146101625780635a08ca4814610184575b600080fd5b34801561012557600080fd5b5061012f60055481565b6040519081526020015b60405180910390f35b34801561014e57600080fd5b5061012f61015d36600461154f565b61049d565b34801561016e57600080fd5b5061018261017d366004611579565b6104ce565b005b34801561019057600080fd5b5061012f600181565b3480156101a557600080fd5b506102096101b4366004611579565b6002602081905260009182526040909120805460018201549282015460038301546004840154600585015460068601546007909601546001600160a01b03958616979095169593949293919290919060ff1688565b604080516001600160a01b03998a168152989097166020890152958701949094526060860192909252608085015260a084015260c0830152151560e082015261010001610139565b34801561025d57600080fd5b5061018261026c366004611579565b610594565b34801561027d57600080fd5b5061029161028c366004611579565b6107c6565b6040519015158152602001610139565b3480156102ad57600080fd5b50610182610874565b3480156102c257600080fd5b5061012f6102d1366004611579565b610888565b3480156102e257600080fd5b506101826102f1366004611592565b6109a3565b34801561030257600080fd5b50610316610311366004611579565b610c33565b604051610139919060006101008201905060018060a01b038084511683528060208501511660208401525060408301516040830152606083015160608301526080830151608083015260a083015160a083015260c083015160c083015260e0830151151560e083015292915050565b34801561039157600080fd5b506001546040516001600160a01b039091168152602001610139565b3480156103b957600080fd5b5061012f6103c8366004611579565b60009081526002602052604090206003015490565b3480156103e957600080fd5b5061012f6103f8366004611579565b610d0b565b34801561040957600080fd5b5061041d6104183660046115b4565b610e46565b60405161013991906115cf565b61012f610438366004611613565b610eb2565b34801561044957600080fd5b5061012f61045836600461154f565b611332565b34801561046957600080fd5b506101826104783660046115b4565b61134e565b34801561048957600080fd5b5061041d6104983660046115b4565b6113c4565b600360205281600052604060002081815481106104b957600080fd5b90600052602060002001600091509150505481565b6104d661142e565b600081815260026020526040902060068101546105335760405162461bcd60e51b81526020600482015260166024820152754e6f2062616c616e636520746f20776974686472617760501b60448201526064015b60405180910390fd5b600681018054600090915560078201805460ff191690556001546001600160a01b03166001600160a01b03166108fc829081150290604051600060405180830381858888f1935050505015801561058e573d6000803e3d6000fd5b50505050565b61059c611488565b600081815260026020526040902080546001600160a01b03163314806105ce575060018101546001600160a01b031633145b61060b5760405162461bcd60e51b815260206004820152600e60248201526d139bdd08185d5d1a1bdc9a5e995960921b604482015260640161052a565b600781015460ff166106535760405162461bcd60e51b815260206004820152601160248201527053747265616d206e6f742061637469766560781b604482015260640161052a565b604051631398fee160e31b8152600481018390526000903090639cc7f70890602401602060405180830381865afa158015610692573d6000803e3d6000fd5b505050506040513d601f19601f820116820180604052508101906106b69190611646565b905060008183600601546106ca9190611675565b60078401805460ff1916905560006006850155905081156107235760018301546040516001600160a01b039091169083156108fc029084906000818181858888f19350505050158015610721573d6000803e3d6000fd5b505b80156107645782546040516001600160a01b039091169082156108fc029083906000818181858888f19350505050158015610762573d6000803e3d6000fd5b505b6001830154835460408051848152602081018690526001600160a01b03938416939092169187917fb6e64e9a8283cc563b12fc25832dcf2be0fe8b949c63eccb2ba81a4f997c8a1e910160405180910390a45050506107c36001600055565b50565b600081815260026020818152604080842081516101008101835281546001600160a01b0390811682526001830154169381019390935292830154908201526003820154606082015260048201546080820152600582015460a0820152600682015460c082015260079091015460ff1615801560e083018190529061084e575080608001514210155b801561085d57508060a0015142105b801561086d575060008160c00151115b9392505050565b61087c61142e565b61088660006114e1565b565b600081815260026020818152604080842081516101008101835281546001600160a01b0390811680835260018401549091169482019490945293810154918401919091526003810154606084015260048101546080840152600581015460a0840152600681015460c08401526007015460ff16151560e08301526109465760405162461bcd60e51b815260206004820152601560248201527414dd1c99585b48191bd95cc81b9bdd08195e1a5cdd605a1b604482015260640161052a565b8060800151421161095a5750600092915050565b60008160a0015142101561096e5742610974565b8160a001515b905060008260800151826109889190611675565b905082606001518161099a919061168e565b95945050505050565b6109ab611488565b600082815260026020526040902060018101546001600160a01b03163314610a095760405162461bcd60e51b8152602060048201526011602482015270139bdd081d1a19481c9958da5c1a595b9d607a1b604482015260640161052a565b600781015460ff16610a515760405162461bcd60e51b815260206004820152601160248201527053747265616d206e6f742061637469766560781b604482015260640161052a565b604051631398fee160e31b8152600481018490526000903090639cc7f70890602401602060405180830381865afa158015610a90573d6000803e3d6000fd5b505050506040513d601f19601f82011682018060405250810190610ab49190611646565b905060008111610afb5760405162461bcd60e51b81526020600482015260126024820152714e6f2066756e647320617661696c61626c6560701b604482015260640161052a565b60008315610b095783610b0b565b815b905081811115610b545760405162461bcd60e51b8152602060048201526014602482015273496e73756666696369656e742062616c616e636560601b604482015260640161052a565b8260060154811115610ba85760405162461bcd60e51b815260206004820152601960248201527f457863656564732072656d61696e696e672062616c616e636500000000000000604482015260640161052a565b808360060154610bb89190611675565b6006840155604051339082156108fc029083906000818181858888f19350505050158015610bea573d6000803e3d6000fd5b50604051818152339086907fb8794a93ad70d58bd94788f8523cd8ebcff47f5541f8816ade60c636f1b578279060200160405180910390a3505050610c2f6001600055565b5050565b610c8f60405180610100016040528060006001600160a01b0316815260200160006001600160a01b0316815260200160008152602001600081526020016000815260200160008152602001600081526020016000151581525090565b5060009081526002602081815260409283902083516101008101855281546001600160a01b0390811682526001830154169281019290925291820154928101929092526003810154606083015260048101546080830152600581015460a0830152600681015460c08301526007015460ff16151560e082015290565b600081815260026020818152604080842081516101008101835281546001600160a01b0390811680835260018401549091169482019490945293810154918401919091526003810154606084015260048101546080840152600581015460a0840152600681015460c08401526007015460ff16151560e0830152610dc95760405162461bcd60e51b815260206004820152601560248201527414dd1c99585b48191bd95cc81b9bdd08195e1a5cdd605a1b604482015260640161052a565b80608001514211610ddd5750600092915050565b8060a001514210610df25760c0015192915050565b6000816080015142610e049190611675565b90506000826060015182610e18919061168e565b905060008360c001518460400151610e309190611675565b9050610e3c8183611675565b9695505050505050565b6001600160a01b038116600090815260036020908152604091829020805483518184028101840190945280845260609392830182828015610ea657602002820191906000526020600020905b815481526020019060010190808311610e92575b50505050509050919050565b6000610ebc611488565b6001600160a01b038416610f065760405162461bcd60e51b8152602060048201526011602482015270125b9d985b1a59081c9958da5c1a595b9d607a1b604482015260640161052a565b336001600160a01b03851603610f565760405162461bcd60e51b815260206004820152601560248201527421b0b73737ba1039ba3932b0b6903a379039b2b63360591b604482015260640161052a565b60003411610fa65760405162461bcd60e51b815260206004820152601e60248201527f4465706f736974206d7573742062652067726561746572207468616e20300000604482015260640161052a565b42831015610fef5760405162461bcd60e51b815260206004820152601660248201527514dd185c9d081d1a5b59481a5b881d1a19481c185cdd60521b604482015260640161052a565b82821161103e5760405162461bcd60e51b815260206004820152601b60248201527f53746f702074696d65206265666f72652073746172742074696d650000000000604482015260640161052a565b600061104a8484611675565b905060018110156110925760405162461bcd60e51b8152602060048201526012602482015271111d5c985d1a5bdb881d1bdbc81cda1bdc9d60721b604482015260640161052a565b600061109e82346116a5565b9050600081116110ff5760405162461bcd60e51b815260206004820152602660248201527f5261746520706572207365636f6e64206d75737420626520677265617465722060448201526507468616e20360d41b606482015260840161052a565b6005805490600061110f836116c7565b919050559250604051806101000160405280336001600160a01b03168152602001876001600160a01b03168152602001348152602001828152602001868152602001858152602001348152602001600115158152506002600085815260200190815260200160002060008201518160000160006101000a8154816001600160a01b0302191690836001600160a01b0316021790555060208201518160010160006101000a8154816001600160a01b0302191690836001600160a01b0316021790555060408201518160020155606082015181600301556080820151816004015560a0820151816005015560c0820151816006015560e08201518160070160006101000a81548160ff02191690831515021790555090505060036000336001600160a01b03166001600160a01b0316815260200190815260200160002083908060018154018082558091505060019003906000526020600020016000909190919091505560046000876001600160a01b03166001600160a01b03168152602001908152602001600020839080600181540180825580915050600190039060005260206000200160009091909190915055856001600160a01b0316336001600160a01b0316847fd80a6b1b16413b68ed1b3d897d20b532ca4da67c8305062ad462e256967fa3df34858a8a60405161131e949392919093845260208401929092526040830152606082015260800190565b60405180910390a4505061086d6001600055565b600460205281600052604060002081815481106104b957600080fd5b61135661142e565b6001600160a01b0381166113bb5760405162461bcd60e51b815260206004820152602660248201527f4f776e61626c653a206e6577206f776e657220697320746865207a65726f206160448201526564647265737360d01b606482015260840161052a565b6107c3816114e1565b6001600160a01b038116600090815260046020908152604091829020805483518184028101840190945280845260609392830182828015610ea65760200282019190600052602060002090815481526020019060010190808311610e925750505050509050919050565b6001546001600160a01b031633146108865760405162461bcd60e51b815260206004820181905260248201527f4f776e61626c653a2063616c6c6572206973206e6f7420746865206f776e6572604482015260640161052a565b6002600054036114da5760405162461bcd60e51b815260206004820152601f60248201527f5265656e7472616e637947756172643a207265656e7472616e742063616c6c00604482015260640161052a565b6002600055565b600180546001600160a01b038381166001600160a01b0319831681179093556040519116919082907f8be0079c531659141344cd1fd0a4f28419497f9722a3daafe3b4186f6b6457e090600090a35050565b80356001600160a01b038116811461154a57600080fd5b919050565b6000806040838503121561156257600080fd5b61156b83611533565b946020939093013593505050565b60006020828403121561158b57600080fd5b5035919050565b600080604083850312156115a557600080fd5b50508035926020909101359150565b6000602082840312156115c657600080fd5b61086d82611533565b6020808252825182820181905260009190848201906040850190845b81811015611607578351835292840192918401916001016115eb565b50909695505050505050565b60008060006060848603121561162857600080fd5b61163184611533565b95602085013595506040909401359392505050565b60006020828403121561165857600080fd5b5051919050565b634e487b7160e01b600052601160045260246000fd5b818103818111156116885761168861165f565b92915050565b80820281158282048414176116885761168861165f565b6000826116c257634e487b7160e01b600052601260045260246000fd5b500490565b6000600182016116d9576116d961165f565b506001019056fea2646970667358221220ee32ee592b2e91dc2f069579b23898ce1fa6fd31b9dbca116b51c0d0fbf2423464736f6c63430008130033",
  "linkReferences": {},
  "deployedLinkReferences": {}
}