{
  "_format": "hh-sol-artifact-1",
  "contractName": "PaymentStream",
  "sourceName": "contracts/PaymentStream.sol",
  "abi": [
    {
      "inputs": [
        {
          "internalType": "address",
          "name": "_treasury",
          "type": "address"
        }
      ],
      "stateMutability": "nonpayable",
      "type": "constructor"
    },
    {
      "anonymous": false,
      "inputs": [
        {
          "indexed": true,
          "internalType": "address",
          "name": "creator",
          "type": "address"
        },
        {
          "indexed": false,
          "internalType": "uint256",
          "name": "amount",
          "type": "uint256"
        }
      ],
      "name": "CreatorRoyaltyPaid",
      "type": "event"
    },
    {
      "anonymous": false,
      "inputs": [
        {
          "indexed": true,
          "internalType": "address",
          "name": "previousOwner",
          "type": "address"
        },
        {
          "indexed": true,
          "internalType": "address",
          "name": "newOwner",
          "type": "address"
        }
      ],
      "name": "OwnershipTransferred",
      "type": "event"
    },
    {
      "anonymous": false,
      "inputs": [
        {
          "indexed": false,
          "internalType": "address",
          "name": "account",
          "type": "address"
        }
      ],
      "name": "Paused",
      "type": "event"
    },
    {
      "anonymous": false,
      "inputs": [
        {
          "indexed": true,
          "internalType": "address",
          "name": "treasury",
          "type": "address"
        },
        {
          "indexed": false,
          "internalType": "uint256",
          "name": "amount",
          "type": "uint256"
        }
      ],
      "name": "PlatformFeeWithdrawn",
      "type": "event"
    },
    {
      "anonymous": false,
      "inputs": [
        {
          "indexed": true,
          "internalType": "uint256",
          "name": "streamId",
          "type": "uint256"
        },
        {
          "indexed": true,
          "internalType": "address",
          "name": "sender",
          "type": "address"
        },
        {
          "indexed": true,
          "internalType": "address",
          "name": "recipient",
          "type": "address"
        },
        {
          "indexed": false,
          "internalType": "uint256",
          "name": "senderBalance",
          "type": "uint256"
        },
        {
          "indexed": false,
          "internalType": "uint256",
          "name": "recipientBalance",
          "type": "uint256"
        }
      ],
      "name": "StreamCancelled",
      "type": "event"
    },
    {
      "anonymous": false,
      "inputs": [
        {
          "indexed": true,
          "internalType": "uint256",
          "name": "streamId",
          "type": "uint256"
        },
        {
          "indexed": true,
          "internalType": "address",
          "name": "sender",
          "type": "address"
        },
        {
          "indexed": true,
          "internalType": "address",
          "name": "recipient",
          "type": "address"
        },
        {
          "indexed": false,
          "internalType": "uint256",
          "name": "deposit",
          "type": "uint256"
        },
        {
          "indexed": false,
          "internalType": "uint256",
          "name": "ratePerSecond",
          "type": "uint256"
        },
        {
          "indexed": false,
          "internalType": "uint256",
          "name": "startTime",
          "type": "uint256"
        },
        {
          "indexed": false,
          "internalType": "uint256",
          "name": "stopTime",
          "type": "uint256"
        },
        {
          "indexed": false,
          "internalType": "uint256",
          "name": "platformFeeAmount",
          "type": "uint256"
        },
        {
          "indexed": false,
          "internalType": "uint256",
          "name": "creatorRoyaltyAmount",
          "type": "uint256"
        }
      ],
      "name": "StreamCreated",
      "type": "event"
    },
    {
      "anonymous": false,
      "inputs": [
        {
          "indexed": true,
          "internalType": "uint256",
          "name": "streamId",
          "type": "uint256"
        },
        {
          "indexed": false,
          "internalType": "uint256",
          "name": "totalPaid",
          "type": "uint256"
        },
        {
          "indexed": false,
          "internalType": "uint256",
          "name": "platformFeeCollected",
          "type": "uint256"
        },
        {
          "indexed": false,
          "internalType": "uint256",
          "name": "creatorRoyaltyCollected",
          "type": "uint256"
        }
      ],
      "name": "StreamFinalized",
      "type": "event"
    },
    {
      "anonymous": false,
      "inputs": [
        {
          "indexed": true,
          "internalType": "uint256",
          "name": "streamId",
          "type": "uint256"
        },
        {
          "indexed": true,
          "internalType": "address",
          "name": "recipient",
          "type": "address"
        },
        {
          "indexed": false,
          "internalType": "uint256",
          "name": "amount",
          "type": "uint256"
        },
        {
          "indexed": false,
          "internalType": "uint256",
          "name": "totalWithdrawn",
          "type": "uint256"
        }
      ],
      "name": "StreamWithdrawn",
      "type": "event"
    },
    {
      "anonymous": false,
      "inputs": [
        {
          "indexed": false,
          "internalType": "address",
          "name": "account",
          "type": "address"
        }
      ],
      "name": "Unpaused",
      "type": "event"
    },
    {
      "inputs": [],
      "name": "BASIS_POINTS",
      "outputs": [
        {
          "internalType": "uint256",
          "name": "",
          "type": "uint256"
        }
      ],
      "stateMutability": "view",
      "type": "function"
    },
    {
      "inputs": [],
      "name": "MINIMUM_STREAM_DURATION",
      "outputs": [
        {
          "internalType": "uint256",
          "name": "",
          "type": "uint256"
        }
      ],
      "stateMutability": "view",
      "type": "function"
    },
    {
      "inputs": [
        {
          "internalType": "address",
          "name": "contractAddr",
          "type": "address"
        }
      ],
      "name": "addAuthorizedContract",
      "outputs": [],
      "stateMutability": "nonpayable",
      "type": "function"
    },
    {
      "inputs": [
        {
          "internalType": "address",
          "name": "",
          "type": "address"
        }
      ],
      "name": "authorizedContracts",
      "outputs": [
        {
          "internalType": "bool",
          "name": "",
          "type": "bool"
        }
      ],
      "stateMutability": "view",
      "type": "function"
    },
    {
      "inputs": [
        {
          "internalType": "uint256",
          "name": "streamId",
          "type": "uint256"
        }
      ],
      "name": "balanceOf",
      "outputs": [
        {
          "internalType": "uint256",
          "name": "",
          "type": "uint256"
        }
      ],
      "stateMutability": "view",
      "type": "function"
    },
    {
      "inputs": [
        {
          "internalType": "uint256",
          "name": "streamId",
          "type": "uint256"
        }
      ],
      "name": "cancelStream",
      "outputs": [],
      "stateMutability": "nonpayable",
      "type": "function"
    },
    {
      "inputs": [
        {
          "internalType": "address",
          "name": "",
          "type": "address"
        }
      ],
      "name": "collectionCreators",
      "outputs": [
        {
          "internalType": "address",
          "name": "",
          "type": "address"
        }
      ],
      "stateMutability": "view",
      "type": "function"
    },
    {
      "inputs": [
        {
          "internalType": "address",
          "name": "recipient",
          "type": "address"
        },
        {
          "internalType": "uint256",
          "name": "startTime",
          "type": "uint256"
        },
        {
          "internalType": "uint256",
          "name": "stopTime",
          "type": "uint256"
        },
        {
          "internalType": "address",
          "name": "nftContract",
          "type": "address"
        }
      ],
      "name": "createStream",
      "outputs": [
        {
          "internalType": "uint256",
          "name": "streamId",
          "type": "uint256"
        }
      ],
      "stateMutability": "payable",
      "type": "function"
    },
    {
      "inputs": [],
      "name": "creatorRoyaltyPercentage",
      "outputs": [
        {
          "internalType": "uint256",
          "name": "",
          "type": "uint256"
        }
      ],
      "stateMutability": "view",
      "type": "function"
    },
    {
      "inputs": [
        {
          "internalType": "uint256",
          "name": "streamId",
          "type": "uint256"
        }
      ],
      "name": "emergencyWithdraw",
      "outputs": [],
      "stateMutability": "nonpayable",
      "type": "function"
    },
    {
      "inputs": [
        {
          "internalType": "uint256",
          "name": "streamId",
          "type": "uint256"
        }
      ],
      "name": "finalizeStream",
      "outputs": [],
      "stateMutability": "nonpayable",
      "type": "function"
    },
    {
      "inputs": [
        {
          "internalType": "address",
          "name": "user",
          "type": "address"
        }
      ],
      "name": "getRecipientStreams",
      "outputs": [
        {
          "internalType": "uint256[]",
          "name": "",
          "type": "uint256[]"
        }
      ],
      "stateMutability": "view",
      "type": "function"
    },
    {
      "inputs": [
        {
          "internalType": "address",
          "name": "user",
          "type": "address"
        }
      ],
      "name": "getSenderStreams",
      "outputs": [
        {
          "internalType": "uint256[]",
          "name": "",
          "type": "uint256[]"
        }
      ],
      "stateMutability": "view",
      "type": "function"
    },
    {
      "inputs": [
        {
          "internalType": "uint256",
          "name": "streamId",
          "type": "uint256"
        }
      ],
      "name": "getStream",
      "outputs": [
        {
          "components": [
            {
              "internalType": "address",
              "name": "sender",
              "type": "address"
            },
            {
              "internalType": "address",
              "name": "recipient",
              "type": "address"
            },
            {
              "internalType": "uint256",
              "name": "deposit",
              "type": "uint256"
            },
            {
              "internalType": "uint256",
              "name": "ratePerSecond",
              "type": "uint256"
            },
            {
              "internalType": "uint256",
              "name": "startTime",
              "type": "uint256"
            },
            {
              "internalType": "uint256",
              "name": "stopTime",
              "type": "uint256"
            },
            {
              "internalType": "uint256",
              "name": "remainingBalance",
              "type": "uint256"
            },
            {
              "internalType": "uint256",
              "name": "totalWithdrawn",
              "type": "uint256"
            },
            {
              "internalType": "bool",
              "name": "active",
              "type": "bool"
            },
            {
              "internalType": "bool",
              "name": "finalized",
              "type": "bool"
            },
            {
              "internalType": "uint256",
              "name": "platformFeeAmount",
              "type": "uint256"
            },
            {
              "internalType": "uint256",
              "name": "creatorRoyaltyAmount",
              "type": "uint256"
            },
            {
              "internalType": "address",
              "name": "creatorAddress",
              "type": "address"
            }
          ],
          "internalType": "struct PaymentStream.Stream",
          "name": "",
          "type": "tuple"
        }
      ],
      "stateMutability": "view",
      "type": "function"
    },
    {
      "inputs": [
        {
          "internalType": "uint256",
          "name": "streamId",
          "type": "uint256"
        }
      ],
      "name": "getStreamDetails",
      "outputs": [
        {
          "components": [
            {
              "internalType": "address",
              "name": "sender",
              "type": "address"
            },
            {
              "internalType": "address",
              "name": "recipient",
              "type": "address"
            },
            {
              "internalType": "uint256",
              "name": "deposit",
              "type": "uint256"
            },
            {
              "internalType": "uint256",
              "name": "ratePerSecond",
              "type": "uint256"
            },
            {
              "internalType": "uint256",
              "name": "startTime",
              "type": "uint256"
            },
            {
              "internalType": "uint256",
              "name": "stopTime",
              "type": "uint256"
            },
            {
              "internalType": "uint256",
              "name": "remainingBalance",
              "type": "uint256"
            },
            {
              "internalType": "uint256",
              "name": "totalWithdrawn",
              "type": "uint256"
            },
            {
              "internalType": "bool",
              "name": "active",
              "type": "bool"
            },
            {
              "internalType": "bool",
              "name": "finalized",
              "type": "bool"
            },
            {
              "internalType": "uint256",
              "name": "platformFeeAmount",
              "type": "uint256"
            },
            {
              "internalType": "uint256",
              "name": "creatorRoyaltyAmount",
              "type": "uint256"
            },
            {
              "internalType": "address",
              "name": "creatorAddress",
              "type": "address"
            }
          ],
          "internalType": "struct PaymentStream.Stream",
          "name": "",
          "type": "tuple"
        }
      ],
      "stateMutability": "view",
      "type": "function"
    },
    {
      "inputs": [
        {
          "internalType": "uint256",
          "name": "streamId",
          "type": "uint256"
        }
      ],
      "name": "getStreamRate",
      "outputs": [
        {
          "internalType": "uint256",
          "name": "",
          "type": "uint256"
        }
      ],
      "stateMutability": "view",
      "type": "function"
    },
    {
      "inputs": [],
      "name": "getTotalCreatorRoyalties",
      "outputs": [
        {
          "internalType": "uint256",
          "name": "",
          "type": "uint256"
        }
      ],
      "stateMutability": "view",
      "type": "function"
    },
    {
      "inputs": [],
      "name": "getTotalPlatformFees",
      "outputs": [
        {
          "internalType": "uint256",
          "name": "",
          "type": "uint256"
        }
      ],
      "stateMutability": "view",
      "type": "function"
    },
    {
      "inputs": [
        {
          "internalType": "uint256",
          "name": "streamId",
          "type": "uint256"
        }
      ],
      "name": "getTotalStreamed",
      "outputs": [
        {
          "internalType": "uint256",
          "name": "",
          "type": "uint256"
        }
      ],
      "stateMutability": "view",
      "type": "function"
    },
    {
      "inputs": [
        {
          "internalType": "uint256",
          "name": "streamId",
          "type": "uint256"
        }
      ],
      "name": "isStreamActive",
      "outputs": [
        {
          "internalType": "bool",
          "name": "",
          "type": "bool"
        }
      ],
      "stateMutability": "view",
      "type": "function"
    },
    {
      "inputs": [],
      "name": "maxStreamDuration",
      "outputs": [
        {
          "internalType": "uint256",
          "name": "",
          "type": "uint256"
        }
      ],
      "stateMutability": "view",
      "type": "function"
    },
    {
      "inputs": [],
      "name": "nextStreamId",
      "outputs": [
        {
          "internalType": "uint256",
          "name": "",
          "type": "uint256"
        }
      ],
      "stateMutability": "view",
      "type": "function"
    },
    {
      "inputs": [],
      "name": "owner",
      "outputs": [
        {
          "internalType": "address",
          "name": "",
          "type": "address"
        }
      ],
      "stateMutability": "view",
      "type": "function"
    },
    {
      "inputs": [],
      "name": "pause",
      "outputs": [],
      "stateMutability": "nonpayable",
      "type": "function"
    },
    {
      "inputs": [],
      "name": "paused",
      "outputs": [
        {
          "internalType": "bool",
          "name": "",
          "type": "bool"
        }
      ],
      "stateMutability": "view",
      "type": "function"
    },
    {
      "inputs": [],
      "name": "platformFeePercentage",
      "outputs": [
        {
          "internalType": "uint256",
          "name": "",
          "type": "uint256"
        }
      ],
      "stateMutability": "view",
      "type": "function"
    },
    {
      "inputs": [
        {
          "internalType": "address",
          "name": "",
          "type": "address"
        },
        {
          "internalType": "uint256",
          "name": "",
          "type": "uint256"
        }
      ],
      "name": "recipientStreams",
      "outputs": [
        {
          "internalType": "uint256",
          "name": "",
          "type": "uint256"
        }
      ],
      "stateMutability": "view",
      "type": "function"
    },
    {
      "inputs": [
        {
          "internalType": "uint256",
          "name": "streamId",
          "type": "uint256"
        }
      ],
      "name": "releaseFunds",
      "outputs": [],
      "stateMutability": "nonpayable",
      "type": "function"
    },
    {
      "inputs": [
        {
          "internalType": "address",
          "name": "contractAddr",
          "type": "address"
        }
      ],
      "name": "removeAuthorizedContract",
      "outputs": [],
      "stateMutability": "nonpayable",
      "type": "function"
    },
    {
      "inputs": [],
      "name": "renounceOwnership",
      "outputs": [],
      "stateMutability": "nonpayable",
      "type": "function"
    },
    {
      "inputs": [
        {
          "internalType": "address",
          "name": "",
          "type": "address"
        },
        {
          "internalType": "uint256",
          "name": "",
          "type": "uint256"
        }
      ],
      "name": "senderStreams",
      "outputs": [
        {
          "internalType": "uint256",
          "name": "",
          "type": "uint256"
        }
      ],
      "stateMutability": "view",
      "type": "function"
    },
    {
      "inputs": [
        {
          "internalType": "address",
          "name": "nftContract",
          "type": "address"
        },
        {
          "internalType": "address",
          "name": "creator",
          "type": "address"
        }
      ],
      "name": "setCollectionCreator",
      "outputs": [],
      "stateMutability": "nonpayable",
      "type": "function"
    },
    {
      "inputs": [
        {
          "internalType": "uint256",
          "name": "",
          "type": "uint256"
        }
      ],
      "name": "streams",
      "outputs": [
        {
          "internalType": "address",
          "name": "sender",
          "type": "address"
        },
        {
          "internalType": "address",
          "name": "recipient",
          "type": "address"
        },
        {
          "internalType": "uint256",
          "name": "deposit",
          "type": "uint256"
        },
        {
          "internalType": "uint256",
          "name": "ratePerSecond",
          "type": "uint256"
        },
        {
          "internalType": "uint256",
          "name": "startTime",
          "type": "uint256"
        },
        {
          "internalType": "uint256",
          "name": "stopTime",
          "type": "uint256"
        },
        {
          "internalType": "uint256",
          "name": "remainingBalance",
          "type": "uint256"
        },
        {
          "internalType": "uint256",
          "name": "totalWithdrawn",
          "type": "uint256"
        },
        {
          "internalType": "bool",
          "name": "active",
          "type": "bool"
        },
        {
          "internalType": "bool",
          "name": "finalized",
          "type": "bool"
        },
        {
          "internalType": "uint256",
          "name": "platformFeeAmount",
          "type": "uint256"
        },
        {
          "internalType": "uint256",
          "name": "creatorRoyaltyAmount",
          "type": "uint256"
        },
        {
          "internalType": "address",
          "name": "creatorAddress",
          "type": "address"
        }
      ],
      "stateMutability": "view",
      "type": "function"
    },
    {
      "inputs": [
        {
          "internalType": "address",
          "name": "newOwner",
          "type": "address"
        }
      ],
      "name": "transferOwnership",
      "outputs": [],
      "stateMutability": "nonpayable",
      "type": "function"
    },
    {
      "inputs": [],
      "name": "treasury",
      "outputs": [
        {
          "internalType": "address",
          "name": "",
          "type": "address"
        }
      ],
      "stateMutability": "view",
      "type": "function"
    },
    {
      "inputs": [],
      "name": "unpause",
      "outputs": [],
      "stateMutability": "nonpayable",
      "type": "function"
    },
    {
      "inputs": [
        {
          "internalType": "uint256",
          "name": "newRoyaltyPercentage",
          "type": "uint256"
        }
      ],
      "name": "updateCreatorRoyalty",
      "outputs": [],
      "stateMutability": "nonpayable",
      "type": "function"
    },
    {
      "inputs": [
        {
          "internalType": "uint256",
          "name": "newMaxDuration",
          "type": "uint256"
        }
      ],
      "name": "updateMaxStreamDuration",
      "outputs": [],
      "stateMutability": "nonpayable",
      "type": "function"
    },
    {
      "inputs": [
        {
          "internalType": "uint256",
          "name": "newFeePercentage",
          "type": "uint256"
        }
      ],
      "name": "updatePlatformFee",
      "outputs": [],
      "stateMutability": "nonpayable",
      "type": "function"
    },
    {
      "inputs": [
        {
          "internalType": "address",
          "name": "newTreasury",
          "type": "address"
        }
      ],
      "name": "updateTreasury",
      "outputs": [],
      "stateMutability": "nonpayable",
      "type": "function"
    },
    {
      "inputs": [
        {
          "internalType": "uint256",
          "name": "streamId",
          "type": "uint256"
        },
        {
          "internalType": "uint256",
          "name": "amount",
          "type": "uint256"
        }
      ],
      "name": "withdrawFromStream",
      "outputs": [],
      "stateMutability": "nonpayable",
      "type": "function"
    },
    {
      "inputs": [],
      "name": "withdrawPlatformFees",
      "outputs": [],
      "stateMutability": "nonpayable",
      "type": "function"
    },
    {
      "stateMutability": "payable",
      "type": "receive"
    }
  ],
  "bytecode": "0x608060405260fa600655603260075562278d00600b553480156200002257600080fd5b5060405162002a2b38038062002a2b8339810160408190526200004591620000f3565b60016000556200005533620000a1565b6001805460ff60a01b191690556001600160a01b0381166200007857336200007a565b805b600880546001600160a01b0319166001600160a01b03929092169190911790555062000125565b600180546001600160a01b038381166001600160a01b0319831681179093556040519116919082907f8be0079c531659141344cd1fd0a4f28419497f9722a3daafe3b4186f6b6457e090600090a35050565b6000602082840312156200010657600080fd5b81516001600160a01b03811681146200011e57600080fd5b9392505050565b6128f680620001356000396000f3fe6080604052600436106102555760003560e01c80638456cb5911610139578063c019f4fc116100b6578063dbf131221161007a578063dbf13122146107ba578063e1f1c4a7146107da578063e6b165ed146107f0578063e88d3ae614610810578063f2fde38b14610825578063f7afe9021461084557600080fd5b8063c019f4fc1461071c578063ccb1a56e14610749578063cdd78cfc1461075f578063d0b7830b14610775578063d5b9221b1461078a57600080fd5b806399d8c28e116100fd57806399d8c28e1461066c5780639cc7f7081461069c578063aa0b5988146106bc578063b5db9c54146106dc578063bbc99172146106fc57600080fd5b80638456cb5914610603578063894e9a0d146102615780638b910701146106185780638da5cb5b1461062e57806398eaa4a71461064c57600080fd5b80635312ea8e116101d25780636db9241b116101965780636db9241b1461054e5780636e4f2ee91461056e578063715018a61461058e57806371f921a4146105a35780637a9b2c6c146105c35780637f51bb1f146105e357600080fd5b80635312ea8e146103c85780635a08ca48146103e85780635c975abb146103fd57806361d027b31461042857806364d60d911461044857600080fd5b8063393d867211610219578063393d8672146103035780633ac97c75146103255780633f4ba83a146103455780634d68282f1461035a5780634d801b651461037a57600080fd5b80631764e895146102615780631e99d569146102975780632019de28146102bb57806331521d57146102db57806332f6700c146102f057600080fd5b3661025c57005b600080fd5b34801561026d57600080fd5b5061028161027c3660046125d2565b610865565b60405161028e91906125eb565b60405180910390f35b3480156102a357600080fd5b506102ad60055481565b60405190815260200161028e565b3480156102c757600080fd5b506102ad6102d63660046126c4565b6109af565b3480156102e757600080fd5b506102ad6109e0565b6102ad6102fe3660046126ee565b610a45565b34801561030f57600080fd5b5061032361031e3660046125d2565b61105e565b005b34801561033157600080fd5b506103236103403660046125d2565b6110b0565b34801561035157600080fd5b50610323611103565b34801561036657600080fd5b506103236103753660046125d2565b611115565b34801561038657600080fd5b506103b0610395366004612734565b6009602052600090815260409020546001600160a01b031681565b6040516001600160a01b03909116815260200161028e565b3480156103d457600080fd5b506103236103e33660046125d2565b6112e7565b3480156103f457600080fd5b506102ad600181565b34801561040957600080fd5b50600154600160a01b900460ff165b604051901515815260200161028e565b34801561043457600080fd5b506008546103b0906001600160a01b031681565b34801561045457600080fd5b506104dc6104633660046125d2565b600260208190526000918252604090912080546001820154928201546003830154600484015460058501546006860154600787015460088801546009890154600a8a0154600b909a01546001600160a01b03998a169b8a169a98999798969795969495939460ff8085169561010090950416939091168d565b604080516001600160a01b039e8f1681529c8e1660208e01528c019a909a5260608b019890985260808a019690965260a089019490945260c088019290925260e0870152151561010086015215156101208501526101408401526101608301529091166101808201526101a00161028e565b34801561055a57600080fd5b506103236105693660046125d2565b6113b3565b34801561057a57600080fd5b506104186105893660046125d2565b6115f3565b34801561059a57600080fd5b506103236116e4565b3480156105af57600080fd5b506102ad6105be3660046125d2565b6116f6565b3480156105cf57600080fd5b506103236105de36600461274f565b611851565b3480156105ef57600080fd5b506103236105fe366004612734565b611afc565b34801561060f57600080fd5b50610323611b7c565b34801561062457600080fd5b506102ad600b5481565b34801561063a57600080fd5b506001546001600160a01b03166103b0565b34801561065857600080fd5b50610323610667366004612734565b611b8c565b34801561067857600080fd5b506102ad6106873660046125d2565b60009081526002602052604090206003015490565b3480156106a857600080fd5b506102ad6106b73660046125d2565b611bb8565b3480156106c857600080fd5b506103236106d73660046125d2565b611d33565b3480156106e857600080fd5b506103236106f73660046125d2565b611d81565b34801561070857600080fd5b50610323610717366004612771565b61205a565b34801561072857600080fd5b5061073c610737366004612734565b612090565b60405161028e91906127a4565b34801561075557600080fd5b506102ad60075481565b34801561076b57600080fd5b506102ad60065481565b34801561078157600080fd5b506103236120fc565b34801561079657600080fd5b506104186107a5366004612734565b600a6020526000908152604090205460ff1681565b3480156107c657600080fd5b506102ad6107d53660046126c4565b612214565b3480156107e657600080fd5b506102ad61271081565b3480156107fc57600080fd5b5061032361080b366004612734565b612230565b34801561081c57600080fd5b506102ad612259565b34801561083157600080fd5b50610323610840366004612734565b6122b8565b34801561085157600080fd5b5061073c610860366004612734565b61232e565b6108ef604051806101a0016040528060006001600160a01b0316815260200160006001600160a01b03168152602001600081526020016000815260200160008152602001600081526020016000815260200160008152602001600015158152602001600015158152602001600081526020016000815260200160006001600160a01b031681525090565b5060009081526002602081815260409283902083516101a08101855281546001600160a01b039081168252600183015481169382019390935292810154938301939093526003830154606083015260048301546080830152600583015460a0830152600683015460c0830152600783015460e0830152600883015460ff8082161515610100808601919091529091041615156101208301526009830154610140830152600a830154610160830152600b9092015490911661018082015290565b600360205281600052604060002081815481106109cb57600080fd5b90600052602060002001600091509150505481565b600080805b600554811015610a3f57600081815260026020526040902060080154610100900460ff1615610a2d57600081815260026020526040902060090154610a2a90836127fe565b91505b80610a3781612817565b9150506109e5565b50919050565b6000610a4f612398565b610a576123f1565b6001600160a01b038516610aa65760405162461bcd60e51b8152602060048201526011602482015270125b9d985b1a59081c9958da5c1a595b9d607a1b60448201526064015b60405180910390fd5b336001600160a01b03861603610af65760405162461bcd60e51b815260206004820152601560248201527421b0b73737ba1039ba3932b0b6903a379039b2b63360591b6044820152606401610a9d565b60003411610b465760405162461bcd60e51b815260206004820152601e60248201527f4465706f736974206d7573742062652067726561746572207468616e203000006044820152606401610a9d565b42841015610b8f5760405162461bcd60e51b815260206004820152601660248201527514dd185c9d081d1a5b59481a5b881d1a19481c185cdd60521b6044820152606401610a9d565b838311610bde5760405162461bcd60e51b815260206004820152601b60248201527f53746f702074696d65206265666f72652073746172742074696d6500000000006044820152606401610a9d565b6000610bea8585612830565b90506001811015610c325760405162461bcd60e51b8152602060048201526012602482015271111d5c985d1a5bdb881d1bdbc81cda1bdc9d60721b6044820152606401610a9d565b600b54811115610c785760405162461bcd60e51b81526020600482015260116024820152704475726174696f6e20746f6f206c6f6e6760781b6044820152606401610a9d565b600061271060065434610c8b9190612843565b610c95919061285a565b9050600061271060075434610caa9190612843565b610cb4919061285a565b9050600081610cc38434612830565b610ccd9190612830565b90506000610cdb858361285a565b905060008111610d3c5760405162461bcd60e51b815260206004820152602660248201527f5261746520706572207365636f6e64206d75737420626520677265617465722060448201526507468616e20360d41b6064820152608401610a9d565b60058054906000610d4c83612817565b919050559550604051806101a00160405280336001600160a01b031681526020018b6001600160a01b031681526020018381526020018281526020018a815260200189815260200183815260200160008152602001600115158152602001600015158152602001858152602001848152602001600960008a6001600160a01b03166001600160a01b0316815260200190815260200160002060009054906101000a90046001600160a01b03166001600160a01b03168152506002600088815260200190815260200160002060008201518160000160006101000a8154816001600160a01b0302191690836001600160a01b0316021790555060208201518160010160006101000a8154816001600160a01b0302191690836001600160a01b0316021790555060408201518160020155606082015181600301556080820151816004015560a0820151816005015560c0820151816006015560e082015181600701556101008201518160080160006101000a81548160ff0219169083151502179055506101208201518160080160016101000a81548160ff021916908315150217905550610140820151816009015561016082015181600a015561018082015181600b0160006101000a8154816001600160a01b0302191690836001600160a01b0316021790555090505060036000336001600160a01b03166001600160a01b03168152602001908152602001600020869080600181540180825580915050600190039060005260206000200160009091909190915055600460008b6001600160a01b03166001600160a01b03168152602001908152602001600020869080600181540180825580915050600190039060005260206000200160009091909190915055896001600160a01b0316336001600160a01b0316877f49b2c7db1e09f529a1181c4b779a2126ee0ee200d11221c5c29719e28ff3076a85858e8e8b8b60405161103f96959493929190958652602086019490945260408501929092526060840152608083015260a082015260c00190565b60405180910390a450505050506110566001600055565b949350505050565b61106661243e565b6101f48111156110ab5760405162461bcd60e51b815260206004820152601060248201526f0a4def2c2d8e8f240e8dede40d0d2ced60831b6044820152606401610a9d565b600755565b6110b861243e565b60018110156110fe5760405162461bcd60e51b8152602060048201526012602482015271111d5c985d1a5bdb881d1bdbc81cda1bdc9d60721b6044820152606401610a9d565b600b55565b61110b61243e565b611113612498565b565b61111d612398565b6000818152600260205260409020600881015460ff16801561114957506008810154610100900460ff16155b6111655760405162461bcd60e51b8152600401610a9d9061287c565b80600401544210156111ae5760405162461bcd60e51b815260206004820152601260248201527114dd1c99585b481b9bdd081cdd185c9d195960721b6044820152606401610a9d565b604051631398fee160e31b8152600481018390526000903090639cc7f70890602401602060405180830381865afa1580156111ed573d6000803e3d6000fd5b505050506040513d601f19601f8201168201806040525081019061121191906128a7565b905080156112d8578082600601546112299190612830565b6006830155600782015461123e9082906127fe565b600783015560018201546040516001600160a01b039091169082156108fc029083906000818181858888f1935050505015801561127f573d6000803e3d6000fd5b50600182015460078301546040516001600160a01b039092169185917fdae97814ec2feb955747a9981c313720939734f53eb57560df7c3ac5546c368f916112cf91868252602082015260400190565b60405180910390a35b50506112e46001600055565b50565b6112ef61243e565b600081815260026020526040902060068101546113475760405162461bcd60e51b81526020600482015260166024820152754e6f2062616c616e636520746f20776974686472617760501b6044820152606401610a9d565b600681018054600090915560088201805461ffff19166101001790556113756001546001600160a01b031690565b6001600160a01b03166108fc829081150290604051600060405180830381858888f193505050501580156113ad573d6000803e3d6000fd5b50505050565b6113bb612398565b600081815260026020526040902080546001600160a01b03163314806113ed575060018101546001600160a01b031633145b806114075750336000908152600a602052604090205460ff165b6114445760405162461bcd60e51b815260206004820152600e60248201526d139bdd08185d5d1a1bdc9a5e995960921b6044820152606401610a9d565b600881015460ff16801561146257506008810154610100900460ff16155b61147e5760405162461bcd60e51b8152600401610a9d9061287c565b604051631398fee160e31b8152600481018390526000903090639cc7f70890602401602060405180830381865afa1580156114bd573d6000803e3d6000fd5b505050506040513d601f19601f820116820180604052508101906114e191906128a7565b905060008183600601546114f59190612830565b60088401805461ffff191661010017905560006006850155905081156115535760018301546040516001600160a01b039091169083156108fc029084906000818181858888f19350505050158015611551573d6000803e3d6000fd5b505b80156115945782546040516001600160a01b039091169082156108fc029083906000818181858888f19350505050158015611592573d6000803e3d6000fd5b505b6001830154835460408051848152602081018690526001600160a01b03938416939092169187917fb6e64e9a8283cc563b12fc25832dcf2be0fe8b949c63eccb2ba81a4f997c8a1e910160405180910390a45050506112e46001600055565b600081815260026020818152604080842081516101a08101835281546001600160a01b039081168252600183015481169482019490945293810154918401919091526003810154606084015260048101546080840152600581015460a0840152600681015460c0840152600781015460e0840152600881015460ff80821615801561010080880182905290930490911615156101208601526009830154610140860152600a830154610160860152600b909201549092166101808401526116be575080608001514210155b80156116cd57508060a0015142105b80156116dd575060008160c00151115b9392505050565b6116ec61243e565b61111360006124ed565b600081815260026020818152604080842081516101a08101835281546001600160a01b03908116808352600184015482169583019590955294820154928101929092526003810154606083015260048101546080830152600581015460a0830152600681015460c0830152600781015460e0830152600881015460ff8082161515610100808601919091529091041615156101208301526009810154610140830152600a810154610160830152600b01549092166101808301526117f45760405162461bcd60e51b815260206004820152601560248201527414dd1c99585b48191bd95cc81b9bdd08195e1a5cdd605a1b6044820152606401610a9d565b806080015142116118085750600092915050565b60008160a0015142101561181c5742611822565b8160a001515b905060008260800151826118369190612830565b90508260600151816118489190612843565b95945050505050565b611859612398565b6118616123f1565b600082815260026020526040902060018101546001600160a01b031633146118bf5760405162461bcd60e51b8152602060048201526011602482015270139bdd081d1a19481c9958da5c1a595b9d607a1b6044820152606401610a9d565b600881015460ff1680156118dd57506008810154610100900460ff16155b6118f95760405162461bcd60e51b8152600401610a9d9061287c565b604051631398fee160e31b8152600481018490526000903090639cc7f70890602401602060405180830381865afa158015611938573d6000803e3d6000fd5b505050506040513d601f19601f8201168201806040525081019061195c91906128a7565b9050600081116119a35760405162461bcd60e51b81526020600482015260126024820152714e6f2066756e647320617661696c61626c6560701b6044820152606401610a9d565b600083156119b157836119b3565b815b9050818111156119fc5760405162461bcd60e51b8152602060048201526014602482015273496e73756666696369656e742062616c616e636560601b6044820152606401610a9d565b8260060154811115611a505760405162461bcd60e51b815260206004820152601960248201527f457863656564732072656d61696e696e672062616c616e6365000000000000006044820152606401610a9d565b808360060154611a609190612830565b60068401556007830154611a759082906127fe565b6007840155604051339082156108fc029083906000818181858888f19350505050158015611aa7573d6000803e3d6000fd5b506007830154604080518381526020810192909252339187917fdae97814ec2feb955747a9981c313720939734f53eb57560df7c3ac5546c368f910160405180910390a3505050611af86001600055565b5050565b611b0461243e565b6001600160a01b038116611b5a5760405162461bcd60e51b815260206004820152601860248201527f496e76616c6964207472656173757279206164647265737300000000000000006044820152606401610a9d565b600880546001600160a01b0319166001600160a01b0392909216919091179055565b611b8461243e565b61111361253f565b611b9461243e565b6001600160a01b03166000908152600a60205260409020805460ff19166001179055565b600081815260026020818152604080842081516101a08101835281546001600160a01b03908116808352600184015482169583019590955294820154928101929092526003810154606083015260048101546080830152600581015460a0830152600681015460c0830152600781015460e0830152600881015460ff8082161515610100808601919091529091041615156101208301526009810154610140830152600a810154610160830152600b0154909216610180830152611cb65760405162461bcd60e51b815260206004820152601560248201527414dd1c99585b48191bd95cc81b9bdd08195e1a5cdd605a1b6044820152606401610a9d565b80608001514211611cca5750600092915050565b8060a001514210611cdf5760c0015192915050565b6000816080015142611cf19190612830565b90506000826060015182611d059190612843565b905060008360c001518460400151611d1d9190612830565b9050611d298183612830565b9695505050505050565b611d3b61243e565b6103e8811115611d7c5760405162461bcd60e51b815260206004820152600c60248201526b08ccaca40e8dede40d0d2ced60a31b6044820152606401610a9d565b600655565b336000908152600a602052604090205460ff1680611da957506001546001600160a01b031633145b611de65760405162461bcd60e51b815260206004820152600e60248201526d139bdd08185d5d1a1bdc9a5e995960921b6044820152606401610a9d565b6000818152600260205260409020600881015460ff168015611e1257506008810154610100900460ff16155b611e2e5760405162461bcd60e51b8152600401610a9d9061287c565b60088101805461ffff1916610100179055600681015415611eab57600181015460068201546040516001600160a01b039092169181156108fc0291906000818181858888f19350505050158015611e89573d6000803e3d6000fd5b5080600601548160070154611e9e91906127fe565b6007820155600060068201555b60008160090154118015611ec957506008546001600160a01b031615155b15611f555760085460098201546040516001600160a01b039092169181156108fc0291906000818181858888f19350505050158015611f0c573d6000803e3d6000fd5b5060085460098201546040519081526001600160a01b03909116907fd116803f8b8538a601b6096e8d1196e3ce3ef43dec6dbbe4cd4e5c69dd171d8b9060200160405180910390a25b600081600a0154118015611f755750600b8101546001600160a01b031615155b1561200557600b810154600a8201546040516001600160a01b039092169181156108fc0291906000818181858888f19350505050158015611fba573d6000803e3d6000fd5b50600b810154600a8201546040519081526001600160a01b03909116907fe3038306a5cf80d051343e765e61e359e32256f464077ba8f28f6f6e0b374c6c9060200160405180910390a25b60078101546009820154600a8301546040805193845260208401929092529082015282907f396e05366b20834c7c4fe1ee65d451cb62d9730f45f7cda214444581b2e8febd9060600160405180910390a25050565b61206261243e565b6001600160a01b03918216600090815260096020526040902080546001600160a01b03191691909216179055565b6001600160a01b0381166000908152600360209081526040918290208054835181840281018401909452808452606093928301828280156120f057602002820191906000526020600020905b8154815260200190600101908083116120dc575b50505050509050919050565b61210461243e565b6008546001600160a01b031661214f5760405162461bcd60e51b815260206004820152601060248201526f151c99585cdd5c9e481b9bdd081cd95d60821b6044820152606401610a9d565b47806121945760405162461bcd60e51b81526020600482015260146024820152734e6f2066756e647320746f20776974686472617760601b6044820152606401610a9d565b6008546040516001600160a01b039091169082156108fc029083906000818181858888f193505050501580156121ce573d6000803e3d6000fd5b506008546040518281526001600160a01b03909116907fd116803f8b8538a601b6096e8d1196e3ce3ef43dec6dbbe4cd4e5c69dd171d8b9060200160405180910390a250565b600460205281600052604060002081815481106109cb57600080fd5b61223861243e565b6001600160a01b03166000908152600a60205260409020805460ff19169055565b600080805b600554811015610a3f57600081815260026020526040902060080154610100900460ff16156122a6576000818152600260205260409020600a01546122a390836127fe565b91505b806122b081612817565b91505061225e565b6122c061243e565b6001600160a01b0381166123255760405162461bcd60e51b815260206004820152602660248201527f4f776e61626c653a206e6577206f776e657220697320746865207a65726f206160448201526564647265737360d01b6064820152608401610a9d565b6112e4816124ed565b6001600160a01b0381166000908152600460209081526040918290208054835181840281018401909452808452606093928301828280156120f057602002820191906000526020600020908154815260200190600101908083116120dc5750505050509050919050565b6002600054036123ea5760405162461bcd60e51b815260206004820152601f60248201527f5265656e7472616e637947756172643a207265656e7472616e742063616c6c006044820152606401610a9d565b6002600055565b600154600160a01b900460ff16156111135760405162461bcd60e51b815260206004820152601060248201526f14185d5cd8589b194e881c185d5cd95960821b6044820152606401610a9d565b6001546001600160a01b031633146111135760405162461bcd60e51b815260206004820181905260248201527f4f776e61626c653a2063616c6c6572206973206e6f7420746865206f776e65726044820152606401610a9d565b6124a0612582565b6001805460ff60a01b191690557f5db9ee0a495bf2e6ff9c91a7834c1ba4fdd244a5e8aa4e537bd38aeae4b073aa335b6040516001600160a01b03909116815260200160405180910390a1565b600180546001600160a01b038381166001600160a01b0319831681179093556040519116919082907f8be0079c531659141344cd1fd0a4f28419497f9722a3daafe3b4186f6b6457e090600090a35050565b6125476123f1565b6001805460ff60a01b1916600160a01b1790557f62e78cea01bee320cd4e420270b5ea74000d11b0c9f74754ebdbfc544b05a2586124d03390565b600154600160a01b900460ff166111135760405162461bcd60e51b815260206004820152601460248201527314185d5cd8589b194e881b9bdd081c185d5cd95960621b6044820152606401610a9d565b6000602082840312156125e457600080fd5b5035919050565b81516001600160a01b031681526101a08101602083015161261760208401826001600160a01b03169052565b5060408301516040830152606083015160608301526080830151608083015260a083015160a083015260c083015160c083015260e083015160e0830152610100808401516126688285018215159052565b50506101208381015115159083015261014080840151908301526101608084015190830152610180928301516001600160a01b0316929091019190915290565b80356001600160a01b03811681146126bf57600080fd5b919050565b600080604083850312156126d757600080fd5b6126e0836126a8565b946020939093013593505050565b6000806000806080858703121561270457600080fd5b61270d856126a8565b93506020850135925060408501359150612729606086016126a8565b905092959194509250565b60006020828403121561274657600080fd5b6116dd826126a8565b6000806040838503121561276257600080fd5b50508035926020909101359150565b6000806040838503121561278457600080fd5b61278d836126a8565b915061279b602084016126a8565b90509250929050565b6020808252825182820181905260009190848201906040850190845b818110156127dc578351835292840192918401916001016127c0565b50909695505050505050565b634e487b7160e01b600052601160045260246000fd5b80820180821115612811576128116127e8565b92915050565b600060018201612829576128296127e8565b5060010190565b81810381811115612811576128116127e8565b8082028115828204841417612811576128116127e8565b60008261287757634e487b7160e01b600052601260045260246000fd5b500490565b60208082526011908201527053747265616d206e6f742061637469766560781b604082015260600190565b6000602082840312156128b957600080fd5b505191905056fea26469706673582212202677311a60031ed275457aef2bb434e9a153ac1e02b869a5d1077a3dbcd2243264736f6c63430008130033",
  "linkReferences": {},
  "deployedLinkReferences": {}
}