{
  "_format": "hh-sol-artifact-1",
  "contractName": "PaymentStreamSomnia",
  "sourceName": "contracts/PaymentStreamSomnia.sol",
  "abi": [
    {
      "inputs": [],
      "stateMutability": "nonpayable",
      "type": "constructor"
    },
    {
      "anonymous": false,
      "inputs": [
        {
          "indexed": true,
          "internalType": "address",
          "name": "streamId",
          "type": "address"
        },
        {
          "indexed": false,
          "internalType": "uint256",
          "name": "amount",
          "type": "uint256"
        },
        {
          "indexed": false,
          "internalType": "uint256",
          "name": "timestamp",
          "type": "uint256"
        },
        {
          "indexed": false,
          "internalType": "uint256",
          "name": "totalReleased",
          "type": "uint256"
        }
      ],
      "name": "FundsReleased",
      "type": "event"
    },
    {
      "anonymous": false,
      "inputs": [
        {
          "indexed": true,
          "internalType": "address",
          "name": "previousOwner",
          "type": "address"
        },
        {
          "indexed": true,
          "internalType": "address",
          "name": "newOwner",
          "type": "address"
        }
      ],
      "name": "OwnershipTransferred",
      "type": "event"
    },
    {
      "anonymous": false,
      "inputs": [
        {
          "indexed": true,
          "internalType": "address",
          "name": "streamId",
          "type": "address"
        },
        {
          "indexed": false,
          "internalType": "uint256",
          "name": "refundAmount",
          "type": "uint256"
        },
        {
          "indexed": false,
          "internalType": "uint256",
          "name": "reason",
          "type": "uint256"
        }
      ],
      "name": "StreamCancelled",
      "type": "event"
    },
    {
      "anonymous": false,
      "inputs": [
        {
          "indexed": true,
          "internalType": "address",
          "name": "streamId",
          "type": "address"
        },
        {
          "indexed": false,
          "internalType": "uint256",
          "name": "finalAmount",
          "type": "uint256"
        }
      ],
      "name": "StreamCompleted",
      "type": "event"
    },
    {
      "anonymous": false,
      "inputs": [
        {
          "indexed": true,
          "internalType": "address",
          "name": "streamId",
          "type": "address"
        },
        {
          "indexed": true,
          "internalType": "address",
          "name": "payer",
          "type": "address"
        },
        {
          "indexed": true,
          "internalType": "address",
          "name": "payee",
          "type": "address"
        },
        {
          "indexed": false,
          "internalType": "uint256",
          "name": "totalAmount",
          "type": "uint256"
        },
        {
          "indexed": false,
          "internalType": "uint256",
          "name": "startTime",
          "type": "uint256"
        },
        {
          "indexed": false,
          "internalType": "uint256",
          "name": "endTime",
          "type": "uint256"
        },
        {
          "indexed": false,
          "internalType": "uint8",
          "name": "streamType",
          "type": "uint8"
        }
      ],
      "name": "StreamCreated",
      "type": "event"
    },
    {
      "inputs": [],
      "name": "MAX_STREAM_DURATION",
      "outputs": [
        {
          "internalType": "uint256",
          "name": "",
          "type": "uint256"
        }
      ],
      "stateMutability": "view",
      "type": "function"
    },
    {
      "inputs": [],
      "name": "MIN_STREAM_AMOUNT",
      "outputs": [
        {
          "internalType": "uint256",
          "name": "",
          "type": "uint256"
        }
      ],
      "stateMutability": "view",
      "type": "function"
    },
    {
      "inputs": [],
      "name": "MIN_STREAM_DURATION",
      "outputs": [
        {
          "internalType": "uint256",
          "name": "",
          "type": "uint256"
        }
      ],
      "stateMutability": "view",
      "type": "function"
    },
    {
      "inputs": [],
      "name": "PROTOCOL_FEE_PERCENTAGE",
      "outputs": [
        {
          "internalType": "uint256",
          "name": "",
          "type": "uint256"
        }
      ],
      "stateMutability": "view",
      "type": "function"
    },
    {
      "inputs": [
        {
          "internalType": "address[]",
          "name": "streamIds",
          "type": "address[]"
        }
      ],
      "name": "batchReleaseFunds",
      "outputs": [],
      "stateMutability": "nonpayable",
      "type": "function"
    },
    {
      "inputs": [
        {
          "internalType": "address",
          "name": "streamId",
          "type": "address"
        }
      ],
      "name": "calculateReleasable",
      "outputs": [
        {
          "internalType": "uint256",
          "name": "",
          "type": "uint256"
        }
      ],
      "stateMutability": "view",
      "type": "function"
    },
    {
      "inputs": [
        {
          "internalType": "address",
          "name": "streamId",
          "type": "address"
        },
        {
          "internalType": "uint256",
          "name": "reason",
          "type": "uint256"
        }
      ],
      "name": "cancelStream",
      "outputs": [],
      "stateMutability": "nonpayable",
      "type": "function"
    },
    {
      "inputs": [
        {
          "internalType": "address",
          "name": "payee",
          "type": "address"
        },
        {
          "internalType": "uint256",
          "name": "duration",
          "type": "uint256"
        },
        {
          "internalType": "uint8",
          "name": "streamType",
          "type": "uint8"
        }
      ],
      "name": "createStream",
      "outputs": [
        {
          "internalType": "address",
          "name": "",
          "type": "address"
        }
      ],
      "stateMutability": "payable",
      "type": "function"
    },
    {
      "inputs": [],
      "name": "emergencyWithdraw",
      "outputs": [],
      "stateMutability": "nonpayable",
      "type": "function"
    },
    {
      "inputs": [],
      "name": "getGlobalStats",
      "outputs": [
        {
          "internalType": "uint256",
          "name": "totalStreamsCount",
          "type": "uint256"
        },
        {
          "internalType": "uint256",
          "name": "totalVolumeAmount",
          "type": "uint256"
        },
        {
          "internalType": "uint256",
          "name": "activeStreamsCount",
          "type": "uint256"
        }
      ],
      "stateMutability": "view",
      "type": "function"
    },
    {
      "inputs": [
        {
          "internalType": "address",
          "name": "streamId",
          "type": "address"
        }
      ],
      "name": "getStreamInfo",
      "outputs": [
        {
          "internalType": "address",
          "name": "payer",
          "type": "address"
        },
        {
          "internalType": "address",
          "name": "payee",
          "type": "address"
        },
        {
          "internalType": "uint256",
          "name": "startTime",
          "type": "uint256"
        },
        {
          "internalType": "uint256",
          "name": "endTime",
          "type": "uint256"
        },
        {
          "internalType": "uint256",
          "name": "totalAmount",
          "type": "uint256"
        },
        {
          "internalType": "uint256",
          "name": "releasedAmount",
          "type": "uint256"
        },
        {
          "internalType": "uint256",
          "name": "releasableAmount",
          "type": "uint256"
        },
        {
          "internalType": "bool",
          "name": "isActive",
          "type": "bool"
        },
        {
          "internalType": "uint8",
          "name": "streamType",
          "type": "uint8"
        }
      ],
      "stateMutability": "view",
      "type": "function"
    },
    {
      "inputs": [
        {
          "internalType": "address",
          "name": "user",
          "type": "address"
        }
      ],
      "name": "getUserStreamStats",
      "outputs": [
        {
          "internalType": "uint256",
          "name": "streamCount",
          "type": "uint256"
        },
        {
          "internalType": "uint256",
          "name": "totalStreamed",
          "type": "uint256"
        },
        {
          "internalType": "uint256",
          "name": "activeStreams",
          "type": "uint256"
        }
      ],
      "stateMutability": "view",
      "type": "function"
    },
    {
      "inputs": [],
      "name": "owner",
      "outputs": [
        {
          "internalType": "address",
          "name": "",
          "type": "address"
        }
      ],
      "stateMutability": "view",
      "type": "function"
    },
    {
      "inputs": [],
      "name": "protocolFeeRecipient",
      "outputs": [
        {
          "internalType": "address",
          "name": "",
          "type": "address"
        }
      ],
      "stateMutability": "view",
      "type": "function"
    },
    {
      "inputs": [
        {
          "internalType": "address",
          "name": "streamId",
          "type": "address"
        }
      ],
      "name": "releaseFunds",
      "outputs": [],
      "stateMutability": "nonpayable",
      "type": "function"
    },
    {
      "inputs": [],
      "name": "renounceOwnership",
      "outputs": [],
      "stateMutability": "nonpayable",
      "type": "function"
    },
    {
      "inputs": [
        {
          "internalType": "address",
          "name": "newRecipient",
          "type": "address"
        }
      ],
      "name": "setProtocolFeeRecipient",
      "outputs": [],
      "stateMutability": "nonpayable",
      "type": "function"
    },
    {
      "inputs": [
        {
          "internalType": "address",
          "name": "",
          "type": "address"
        }
      ],
      "name": "streams",
      "outputs": [
        {
          "internalType": "address",
          "name": "payer",
          "type": "address"
        },
        {
          "internalType": "address",
          "name": "payee",
          "type": "address"
        },
        {
          "internalType": "uint40",
          "name": "startTime",
          "type": "uint40"
        },
        {
          "internalType": "uint40",
          "name": "endTime",
          "type": "uint40"
        },
        {
          "internalType": "uint96",
          "name": "totalAmount",
          "type": "uint96"
        },
        {
          "internalType": "uint96",
          "name": "releasedAmount",
          "type": "uint96"
        },
        {
          "internalType": "uint40",
          "name": "lastReleaseTime",
          "type": "uint40"
        },
        {
          "internalType": "bool",
          "name": "isActive",
          "type": "bool"
        },
        {
          "internalType": "uint8",
          "name": "streamType",
          "type": "uint8"
        }
      ],
      "stateMutability": "view",
      "type": "function"
    },
    {
      "inputs": [
        {
          "internalType": "address",
          "name": "",
          "type": "address"
        }
      ],
      "name": "totalStreamedAmount",
      "outputs": [
        {
          "internalType": "uint256",
          "name": "",
          "type": "uint256"
        }
      ],
      "stateMutability": "view",
      "type": "function"
    },
    {
      "inputs": [],
      "name": "totalStreams",
      "outputs": [
        {
          "internalType": "uint256",
          "name": "",
          "type": "uint256"
        }
      ],
      "stateMutability": "view",
      "type": "function"
    },
    {
      "inputs": [],
      "name": "totalVolume",
      "outputs": [
        {
          "internalType": "uint256",
          "name": "",
          "type": "uint256"
        }
      ],
      "stateMutability": "view",
      "type": "function"
    },
    {
      "inputs": [
        {
          "internalType": "address",
          "name": "newOwner",
          "type": "address"
        }
      ],
      "name": "transferOwnership",
      "outputs": [],
      "stateMutability": "nonpayable",
      "type": "function"
    },
    {
      "inputs": [
        {
          "internalType": "address",
          "name": "",
          "type": "address"
        }
      ],
      "name": "userStreamCount",
      "outputs": [
        {
          "internalType": "uint256",
          "name": "",
          "type": "uint256"
        }
      ],
      "stateMutability": "view",
      "type": "function"
    }
  ],
  "bytecode": "0x608060405234801561001057600080fd5b50600160005561001f33610036565b600780546001600160a01b03191633179055610088565b600180546001600160a01b038381166001600160a01b0319831681179093556040519116919082907f8be0079c531659141344cd1fd0a4f28419497f9722a3daafe3b4186f6b6457e090600090a35050565b611c9f806100976000396000f3fe6080604052600436106101405760003560e01c806371b8eca6116100b6578063ac6f18c31161006f578063ac6f18c3146104e5578063db2e21bc146104fe578063e4d7d6dc14610513578063e521cb9214610528578063f2fde38b14610548578063fc6ff96f1461056857600080fd5b806371b8eca6146102bb5780637dc14a8e1461030057806383699275146103205780638da5cb5b146104265780638fa6dbc9146104445780639b87a40d1461047157600080fd5b80635f81a57c116101085780635f81a57c146101fd57806364df049e146102135780636b4169c3146102335780636fd11a79146102645780637130fda714610291578063715018a6146102a657600080fd5b8063192e7a7b146101455780631b9300a81461016757806327fda43b1461019a57806346bcb3c8146101ba57806347051706146101e5575b600080fd5b34801561015157600080fd5b50610165610160366004611a60565b61057e565b005b34801561017357600080fd5b50610187610182366004611a60565b610996565b6040519081526020015b60405180910390f35b3480156101a657600080fd5b506101656101b5366004611a7b565b610b33565b6101cd6101c8366004611af0565b610f20565b6040516001600160a01b039091168152602001610191565b3480156101f157600080fd5b506101876301e1338081565b34801561020957600080fd5b5061018760065481565b34801561021f57600080fd5b506007546101cd906001600160a01b031681565b34801561023f57600080fd5b5060055460065460005b60408051938452602084019290925290820152606001610191565b34801561027057600080fd5b5061018761027f366004611a60565b60036020526000908152604090205481565b34801561029d57600080fd5b50610187603c81565b3480156102b257600080fd5b5061016561141c565b3480156102c757600080fd5b506102496102d6366004611a60565b6001600160a01b031660009081526003602090815260408083205460049092528220549092909190565b34801561030c57600080fd5b5061016561031b366004611b36565b611430565b34801561032c57600080fd5b506103bb61033b366004611a60565b60026020819052600091825260409091208054600182015491909201546001600160a01b039283169282169164ffffffffff600160a01b8204811692600160c81b9092048116916001600160601b0380821692600160601b830490911691600160c01b81049091169060ff600160e81b8204811691600160f01b90041689565b604080516001600160a01b039a8b1681529990981660208a015264ffffffffff9687169789019790975293851660608801526001600160601b039283166080880152911660a08601529190911660c0840152151560e083015260ff1661010082015261012001610191565b34801561043257600080fd5b506001546001600160a01b03166101cd565b34801561045057600080fd5b5061018761045f366004611a60565b60046020526000908152604090205481565b34801561047d57600080fd5b5061049161048c366004611a60565b6116a0565b604080516001600160a01b039a8b1681529990981660208a0152968801959095526060870193909352608086019190915260a085015260c0840152151560e083015260ff1661010082015261012001610191565b3480156104f157600080fd5b5061018764e8d4a5100081565b34801561050a57600080fd5b506101656117e7565b34801561051f57600080fd5b5061018760fa81565b34801561053457600080fd5b50610165610543366004611a60565b611828565b34801561055457600080fd5b50610165610563366004611a60565b61189c565b34801561057457600080fd5b5061018760055481565b610586611912565b6001600160a01b038116600090815260026020819052604090912090810154600160e81b900460ff166105f45760405162461bcd60e51b815260206004820152601160248201527053747265616d206e6f742061637469766560781b60448201526064015b60405180910390fd5b6001810154600160a01b900464ffffffffff1642101561064b5760405162461bcd60e51b815260206004820152601260248201527114dd1c99585b481b9bdd081cdd185c9d195960721b60448201526064016105eb565b600061065683610996565b90506000811161069e5760405162461bcd60e51b81526020600482015260136024820152724e6f2066756e647320746f2072656c6561736560681b60448201526064016105eb565b8082600201600c8282829054906101000a90046001600160601b03166106c49190611b76565b82546101009290920a6001600160601b038181021990931691909216919091021790555060028201805464ffffffffff60c01b1916600160c01b4264ffffffffff1602179055600061072361271061071d8460fa61196b565b90611980565b90506000610731838361198c565b905080156107d25760018401546040516000916001600160a01b03169083908381818185875af1925050503d8060008114610788576040519150601f19603f3d011682016040523d82523d6000602084013e61078d565b606091505b50509050806107d05760405162461bcd60e51b815260206004820152600f60248201526e151c985b9cd9995c8819985a5b1959608a1b60448201526064016105eb565b505b811561087d576007546040516000916001600160a01b03169084908381818185875af1925050503d8060008114610825576040519150601f19603f3d011682016040523d82523d6000602084013e61082a565b606091505b505090508061087b5760405162461bcd60e51b815260206004820152601c60248201527f50726f746f636f6c20666565207472616e73666572206661696c65640000000060448201526064016105eb565b505b60018401546001600160a01b0316600090815260046020526040812080548392906108a9908490611b9d565b9091555050600284015460408051858152426020820152600160601b9092046001600160601b0316908201526001600160a01b038616907f6b765b6a8c37aee50acf03a789f21db8104a257443a10a53a4ebce87ed6745b89060600160405180910390a260028401546001600160601b03808216600160601b90920416106109855760028401805460ff60e81b1981169091556040516001600160601b0390911681526001600160a01b038616907f0656df3409804b081b8983c383139682dea52b0b1cf166df212cf1dc7c68655b9060200160405180910390a25b505050506109936001600055565b50565b6001600160a01b03808216600090815260026020818152604080842081516101208101835281548716815260018201549687169381019390935264ffffffffff600160a01b8704811692840192909252600160c81b9095048116606083015293909101546001600160601b038082166080840152600160601b82041660a0830152600160c01b810490931660c082015260ff600160e81b84048116151560e08301819052600160f01b909404166101008201529091610a585750600092915050565b6040810151429064ffffffffff168111610a76575060009392505050565b816060015164ffffffffff168110610aad578160a001518260800151610a9c9190611bb0565b6001600160601b0316949350505050565b600082604001518360600151610ac39190611bd0565b64ffffffffff1690506000836040015164ffffffffff1683610ae59190611bee565b90506000828286608001516001600160601b0316610b039190611c01565b610b0d9190611c18565b90508460a001516001600160601b031681610b289190611bee565b979650505050505050565b610b3b611912565b6032811115610b7f5760405162461bcd60e51b815260206004820152601060248201526f546f6f206d616e792073747265616d7360801b60448201526064016105eb565b60005b81811015610f11576000838383818110610b9e57610b9e611c3a565b9050602002016020810190610bb39190611a60565b6001600160a01b03811660009081526002602081905260409091209081015491925090600160e81b900460ff168015610bfe57506001810154600160a01b900464ffffffffff164210155b15610efc576000610c0e83610996565b90508015610efa578082600201600c8282829054906101000a90046001600160601b0316610c3c9190611b76565b82546101009290920a6001600160601b038181021990931691909216919091021790555060028201805464ffffffffff60c01b1916600160c01b4264ffffffffff16021790556000610c9561271061071d8460fa61196b565b90506000610ca3838361198c565b90508015610d445760018401546040516000916001600160a01b03169083908381818185875af1925050503d8060008114610cfa576040519150601f19603f3d011682016040523d82523d6000602084013e610cff565b606091505b5050905080610d425760405162461bcd60e51b815260206004820152600f60248201526e151c985b9cd9995c8819985a5b1959608a1b60448201526064016105eb565b505b8115610def576007546040516000916001600160a01b03169084908381818185875af1925050503d8060008114610d97576040519150601f19603f3d011682016040523d82523d6000602084013e610d9c565b606091505b5050905080610ded5760405162461bcd60e51b815260206004820152601c60248201527f50726f746f636f6c20666565207472616e73666572206661696c65640000000060448201526064016105eb565b505b60018401546001600160a01b031660009081526004602052604081208054839290610e1b908490611b9d565b9091555050600284015460408051858152426020820152600160601b9092046001600160601b0316908201526001600160a01b038616907f6b765b6a8c37aee50acf03a789f21db8104a257443a10a53a4ebce87ed6745b89060600160405180910390a260028401546001600160601b03808216600160601b9092041610610ef75760028401805460ff60e81b1981169091556040516001600160601b0390911681526001600160a01b038616907f0656df3409804b081b8983c383139682dea52b0b1cf166df212cf1dc7c68655b9060200160405180910390a25b50505b505b50508080610f0990611c50565b915050610b82565b50610f1c6001600055565b5050565b6000610f2a611912565b64e8d4a51000341015610f7f5760405162461bcd60e51b815260206004820152601760248201527f53747265616d20616d6f756e7420746f6f20736d616c6c00000000000000000060448201526064016105eb565b603c831015610fc55760405162461bcd60e51b8152602060048201526012602482015271111d5c985d1a5bdb881d1bdbc81cda1bdc9d60721b60448201526064016105eb565b6301e1338083111561100d5760405162461bcd60e51b81526020600482015260116024820152704475726174696f6e20746f6f206c6f6e6760781b60448201526064016105eb565b6001600160a01b0384166110535760405162461bcd60e51b815260206004820152600d60248201526c496e76616c696420706179656560981b60448201526064016105eb565b336001600160a01b038516036110a35760405162461bcd60e51b815260206004820152601560248201527421b0b73737ba1039ba3932b0b6903a379039b2b63360591b60448201526064016105eb565b60008260ff161180156110ba5750600a8260ff1611155b6110fc5760405162461bcd60e51b8152602060048201526013602482015272496e76616c69642073747265616d207479706560681b60448201526064016105eb565b6005546040805133606090811b6bffffffffffffffffffffffff199081166020808501919091529189901b166034830152604882018790524260688301526088808301949094528251808303909401845260a890910190915281519101206000906001600160a01b038116600090815260026020819052604090912001549091506001600160601b0316156111cb5760405162461bcd60e51b815260206004820152601560248201527453747265616d20616c72656164792065786973747360581b60448201526064016105eb565b604051806101200160405280336001600160a01b03168152602001866001600160a01b031681526020014264ffffffffff168152602001854261120e9190611b9d565b64ffffffffff90811682526001600160601b03348116602080850191909152600060408086018290524285166060808801919091526001608080890182905260ff808e1660a09a8b01526001600160a01b03808d16875260028089528688208d5181549084166001600160a01b0319909116178155988d01519489018054978e0151968e01518c16600160c81b0264ffffffffff60c81b19978d16600160a01b026001600160c81b031990991696909316959095179690961794909416939093179091558801519390910180549688015160c089015160e08a0151610100909a0151909316600160f01b0260ff60f01b19991515600160e81b0260ff60e81b1994909816600160c01b029390931665ffffffffffff60c01b19918716600160601b026001600160c01b031990991695909616949094179690961792909216929092179290921793909316179055600580549161136983611c50565b919050555034600660008282546113809190611b9d565b90915550503360009081526003602052604081208054916113a083611c50565b90915550506001600160a01b0380861690339083167f9912ed8094ef270d5cc82924ceb2145f44a00069d8a48bf3b6e2ed19f1b2107934426113e28a82611b9d565b6040805193845260208401929092529082015260ff8816606082015260800160405180910390a490506114156001600055565b9392505050565b611424611998565b61142e60006119f2565b565b611438611912565b6001600160a01b038216600090815260026020819052604090912090810154600160e81b900460ff166114a15760405162461bcd60e51b815260206004820152601160248201527053747265616d206e6f742061637469766560781b60448201526064016105eb565b80546001600160a01b03163314806114c357506001546001600160a01b031633145b6115005760405162461bcd60e51b815260206004820152600e60248201526d139bdd08185d5d1a1bdc9a5e995960921b60448201526064016105eb565b60028101805460ff60e81b1916905560018101546000906115389064ffffffffff600160a01b8204811691600160c81b900416611bd0565b600183015464ffffffffff918216925060009161155d91600160a01b90041642611bee565b90508181111561156a5750805b600283015460009083906115889084906001600160601b0316611c01565b6115929190611c18565b60028501549091506000906115b19083906001600160601b0316611bee565b9050801561164d5784546040516000916001600160a01b03169083908381818185875af1925050503d8060008114611605576040519150601f19603f3d011682016040523d82523d6000602084013e61160a565b606091505b505090508061164b5760405162461bcd60e51b815260206004820152600d60248201526c1499599d5b990819985a5b1959609a1b60448201526064016105eb565b505b60408051828152602081018890526001600160a01b038916917f73d74d92043ffdb7d9a093d41b19498fec7a4079d9e863d54d341e01762e1011910160405180910390a25050505050610f1c6001600055565b6001600160a01b03808216600090815260026020818152604080842081516101208101835281548716815260018201549687169381019390935264ffffffffff600160a01b8704811692840192909252600160c81b9095048116606083015293909101546001600160601b038082166080840152600160601b82041660a0830152600160c01b810490931660c082015260ff600160e81b84048116151560e0830152600160f01b90930490921661010083015290819081908190819081908190819081908161176e8c610996565b9050816000015182602001518360400151846060015185608001518660a00151868860e001518961010001518664ffffffffff1696508564ffffffffff169550846001600160601b03169450836001600160601b031693509a509a509a509a509a509a509a509a509a5050509193959799909294969850565b6117ef611998565b6001546040516001600160a01b03909116904780156108fc02916000818181858888f19350505050158015610993573d6000803e3d6000fd5b611830611998565b6001600160a01b03811661187a5760405162461bcd60e51b8152602060048201526011602482015270125b9d985b1a59081c9958da5c1a595b9d607a1b60448201526064016105eb565b600780546001600160a01b0319166001600160a01b0392909216919091179055565b6118a4611998565b6001600160a01b0381166119095760405162461bcd60e51b815260206004820152602660248201527f4f776e61626c653a206e6577206f776e657220697320746865207a65726f206160448201526564647265737360d01b60648201526084016105eb565b610993816119f2565b6002600054036119645760405162461bcd60e51b815260206004820152601f60248201527f5265656e7472616e637947756172643a207265656e7472616e742063616c6c0060448201526064016105eb565b6002600055565b60006119778284611c01565b90505b92915050565b60006119778284611c18565b60006119778284611bee565b6001546001600160a01b0316331461142e5760405162461bcd60e51b815260206004820181905260248201527f4f776e61626c653a2063616c6c6572206973206e6f7420746865206f776e657260448201526064016105eb565b600180546001600160a01b038381166001600160a01b0319831681179093556040519116919082907f8be0079c531659141344cd1fd0a4f28419497f9722a3daafe3b4186f6b6457e090600090a35050565b80356001600160a01b0381168114611a5b57600080fd5b919050565b600060208284031215611a7257600080fd5b61197782611a44565b60008060208385031215611a8e57600080fd5b823567ffffffffffffffff80821115611aa657600080fd5b818501915085601f830112611aba57600080fd5b813581811115611ac957600080fd5b8660208260051b8501011115611ade57600080fd5b60209290920196919550909350505050565b600080600060608486031215611b0557600080fd5b611b0e84611a44565b925060208401359150604084013560ff81168114611b2b57600080fd5b809150509250925092565b60008060408385031215611b4957600080fd5b611b5283611a44565b946020939093013593505050565b634e487b7160e01b600052601160045260246000fd5b6001600160601b03818116838216019080821115611b9657611b96611b60565b5092915050565b8082018082111561197a5761197a611b60565b6001600160601b03828116828216039080821115611b9657611b96611b60565b64ffffffffff828116828216039080821115611b9657611b96611b60565b8181038181111561197a5761197a611b60565b808202811582820484141761197a5761197a611b60565b600082611c3557634e487b7160e01b600052601260045260246000fd5b500490565b634e487b7160e01b600052603260045260246000fd5b600060018201611c6257611c62611b60565b506001019056fea26469706673582212201c98fe2dbb52246c0fe73c9059b9a9db86b19ae54c6af61774946e3324d7ae9064736f6c63430008130033",
  "linkReferences": {},
  "deployedLinkReferences": {}
}