{
  "_format": "hh-sol-artifact-1",
  "contractName": "SomniaOptimizedFeatures",
  "sourceName": "contracts/SomniaOptimizedFeatures.sol",
  "abi": [
    {
      "anonymous": false,
      "inputs": [
        {
          "indexed": true,
          "internalType": "uint256",
          "name": "eventId",
          "type": "uint256"
        },
        {
          "indexed": false,
          "internalType": "string",
          "name": "eventType",
          "type": "string"
        },
        {
          "indexed": false,
          "internalType": "uint256",
          "name": "participantCount",
          "type": "uint256"
        },
        {
          "indexed": false,
          "internalType": "uint256",
          "name": "totalValue",
          "type": "uint256"
        }
      ],
      "name": "HighFrequencyEventStarted",
      "type": "event"
    },
    {
      "anonymous": false,
      "inputs": [
        {
          "indexed": true,
          "internalType": "uint256",
          "name": "transactionId",
          "type": "uint256"
        },
        {
          "indexed": true,
          "internalType": "address",
          "name": "from",
          "type": "address"
        },
        {
          "indexed": true,
          "internalType": "address",
          "name": "to",
          "type": "address"
        },
        {
          "indexed": false,
          "internalType": "uint256",
          "name": "amount",
          "type": "uint256"
        },
        {
          "indexed": false,
          "internalType": "string",
          "name": "purpose",
          "type": "string"
        }
      ],
      "name": "MicroTransactionCreated",
      "type": "event"
    },
    {
      "anonymous": false,
      "inputs": [
        {
          "indexed": true,
          "internalType": "address",
          "name": "previousOwner",
          "type": "address"
        },
        {
          "indexed": true,
          "internalType": "address",
          "name": "newOwner",
          "type": "address"
        }
      ],
      "name": "OwnershipTransferred",
      "type": "event"
    },
    {
      "anonymous": false,
      "inputs": [
        {
          "indexed": true,
          "internalType": "uint256",
          "name": "streamId",
          "type": "uint256"
        },
        {
          "indexed": true,
          "internalType": "address",
          "name": "streamer",
          "type": "address"
        },
        {
          "indexed": true,
          "internalType": "address",
          "name": "recipient",
          "type": "address"
        },
        {
          "indexed": false,
          "internalType": "uint256",
          "name": "totalAmount",
          "type": "uint256"
        },
        {
          "indexed": false,
          "internalType": "uint256",
          "name": "duration",
          "type": "uint256"
        }
      ],
      "name": "RealTimeStreamCreated",
      "type": "event"
    },
    {
      "anonymous": false,
      "inputs": [
        {
          "indexed": false,
          "internalType": "string",
          "name": "capability",
          "type": "string"
        },
        {
          "indexed": false,
          "internalType": "uint256",
          "name": "value",
          "type": "uint256"
        },
        {
          "indexed": false,
          "internalType": "uint256",
          "name": "timestamp",
          "type": "uint256"
        }
      ],
      "name": "SomniaCapabilityDemonstrated",
      "type": "event"
    },
    {
      "anonymous": false,
      "inputs": [
        {
          "indexed": true,
          "internalType": "uint256",
          "name": "streamId",
          "type": "uint256"
        },
        {
          "indexed": false,
          "internalType": "uint256",
          "name": "newStreamedAmount",
          "type": "uint256"
        },
        {
          "indexed": false,
          "internalType": "uint256",
          "name": "timestamp",
          "type": "uint256"
        }
      ],
      "name": "StreamUpdated",
      "type": "event"
    },
    {
      "inputs": [],
      "name": "MAX_MICRO_TRANSACTION_VALUE",
      "outputs": [
        {
          "internalType": "uint256",
          "name": "",
          "type": "uint256"
        }
      ],
      "stateMutability": "view",
      "type": "function"
    },
    {
      "inputs": [],
      "name": "MAX_PARTICIPANTS_PER_EVENT",
      "outputs": [
        {
          "internalType": "uint256",
          "name": "",
          "type": "uint256"
        }
      ],
      "stateMutability": "view",
      "type": "function"
    },
    {
      "inputs": [],
      "name": "MIN_STREAM_DURATION",
      "outputs": [
        {
          "internalType": "uint256",
          "name": "",
          "type": "uint256"
        }
      ],
      "stateMutability": "view",
      "type": "function"
    },
    {
      "inputs": [
        {
          "internalType": "address[]",
          "name": "recipients",
          "type": "address[]"
        },
        {
          "internalType": "uint256[]",
          "name": "amounts",
          "type": "uint256[]"
        },
        {
          "internalType": "string[]",
          "name": "purposes",
          "type": "string[]"
        }
      ],
      "name": "batchMicroTransactions",
      "outputs": [],
      "stateMutability": "payable",
      "type": "function"
    },
    {
      "inputs": [
        {
          "internalType": "address",
          "name": "to",
          "type": "address"
        },
        {
          "internalType": "string",
          "name": "purpose",
          "type": "string"
        }
      ],
      "name": "createMicroTransaction",
      "outputs": [],
      "stateMutability": "payable",
      "type": "function"
    },
    {
      "inputs": [
        {
          "internalType": "address",
          "name": "recipient",
          "type": "address"
        },
        {
          "internalType": "uint256",
          "name": "duration",
          "type": "uint256"
        }
      ],
      "name": "createRealTimeStream",
      "outputs": [],
      "stateMutability": "payable",
      "type": "function"
    },
    {
      "inputs": [],
      "name": "demonstrateSubSecondFinality",
      "outputs": [],
      "stateMutability": "payable",
      "type": "function"
    },
    {
      "inputs": [],
      "name": "emergencyWithdraw",
      "outputs": [],
      "stateMutability": "nonpayable",
      "type": "function"
    },
    {
      "inputs": [
        {
          "internalType": "uint256",
          "name": "eventId",
          "type": "uint256"
        }
      ],
      "name": "getHighFrequencyEvent",
      "outputs": [
        {
          "components": [
            {
              "internalType": "uint256",
              "name": "eventId",
              "type": "uint256"
            },
            {
              "internalType": "string",
              "name": "eventType",
              "type": "string"
            },
            {
              "internalType": "uint256",
              "name": "timestamp",
              "type": "uint256"
            },
            {
              "internalType": "address[]",
              "name": "participants",
              "type": "address[]"
            },
            {
              "internalType": "uint256",
              "name": "totalValue",
              "type": "uint256"
            },
            {
              "internalType": "bool",
              "name": "isActive",
              "type": "bool"
            }
          ],
          "internalType": "struct SomniaOptimizedFeatures.HighFrequencyEvent",
          "name": "",
          "type": "tuple"
        }
      ],
      "stateMutability": "view",
      "type": "function"
    },
    {
      "inputs": [
        {
          "internalType": "uint256",
          "name": "transactionId",
          "type": "uint256"
        }
      ],
      "name": "getMicroTransaction",
      "outputs": [
        {
          "components": [
            {
              "internalType": "address",
              "name": "from",
              "type": "address"
            },
            {
              "internalType": "address",
              "name": "to",
              "type": "address"
            },
            {
              "internalType": "uint256",
              "name": "amount",
              "type": "uint256"
            },
            {
              "internalType": "uint256",
              "name": "timestamp",
              "type": "uint256"
            },
            {
              "internalType": "string",
              "name": "purpose",
              "type": "string"
            },
            {
              "internalType": "bool",
              "name": "completed",
              "type": "bool"
            }
          ],
          "internalType": "struct SomniaOptimizedFeatures.MicroTransaction",
          "name": "",
          "type": "tuple"
        }
      ],
      "stateMutability": "view",
      "type": "function"
    },
    {
      "inputs": [],
      "name": "getPlatformStats",
      "outputs": [
        {
          "internalType": "uint256",
          "name": "_totalMicroTransactions",
          "type": "uint256"
        },
        {
          "internalType": "uint256",
          "name": "_totalHighFrequencyEvents",
          "type": "uint256"
        },
        {
          "internalType": "uint256",
          "name": "_totalRealTimeStreams",
          "type": "uint256"
        },
        {
          "internalType": "uint256",
          "name": "_totalValueProcessed",
          "type": "uint256"
        }
      ],
      "stateMutability": "view",
      "type": "function"
    },
    {
      "inputs": [
        {
          "internalType": "uint256",
          "name": "streamId",
          "type": "uint256"
        }
      ],
      "name": "getRealTimeStream",
      "outputs": [
        {
          "components": [
            {
              "internalType": "address",
              "name": "streamer",
              "type": "address"
            },
            {
              "internalType": "address",
              "name": "recipient",
              "type": "address"
            },
            {
              "internalType": "uint256",
              "name": "totalAmount",
              "type": "uint256"
            },
            {
              "internalType": "uint256",
              "name": "startTime",
              "type": "uint256"
            },
            {
              "internalType": "uint256",
              "name": "endTime",
              "type": "uint256"
            },
            {
              "internalType": "uint256",
              "name": "lastUpdateTime",
              "type": "uint256"
            },
            {
              "internalType": "uint256",
              "name": "streamedAmount",
              "type": "uint256"
            },
            {
              "internalType": "bool",
              "name": "isActive",
              "type": "bool"
            }
          ],
          "internalType": "struct SomniaOptimizedFeatures.RealTimeStream",
          "name": "",
          "type": "tuple"
        }
      ],
      "stateMutability": "view",
      "type": "function"
    },
    {
      "inputs": [
        {
          "internalType": "uint256",
          "name": "",
          "type": "uint256"
        }
      ],
      "name": "highFrequencyEvents",
      "outputs": [
        {
          "internalType": "uint256",
          "name": "eventId",
          "type": "uint256"
        },
        {
          "internalType": "string",
          "name": "eventType",
          "type": "string"
        },
        {
          "internalType": "uint256",
          "name": "timestamp",
          "type": "uint256"
        },
        {
          "internalType": "uint256",
          "name": "totalValue",
          "type": "uint256"
        },
        {
          "internalType": "bool",
          "name": "isActive",
          "type": "bool"
        }
      ],
      "stateMutability": "view",
      "type": "function"
    },
    {
      "inputs": [
        {
          "internalType": "uint256",
          "name": "",
          "type": "uint256"
        }
      ],
      "name": "microTransactions",
      "outputs": [
        {
          "internalType": "address",
          "name": "from",
          "type": "address"
        },
        {
          "internalType": "address",
          "name": "to",
          "type": "address"
        },
        {
          "internalType": "uint256",
          "name": "amount",
          "type": "uint256"
        },
        {
          "internalType": "uint256",
          "name": "timestamp",
          "type": "uint256"
        },
        {
          "internalType": "string",
          "name": "purpose",
          "type": "string"
        },
        {
          "internalType": "bool",
          "name": "completed",
          "type": "bool"
        }
      ],
      "stateMutability": "view",
      "type": "function"
    },
    {
      "inputs": [],
      "name": "nextEventId",
      "outputs": [
        {
          "internalType": "uint256",
          "name": "",
          "type": "uint256"
        }
      ],
      "stateMutability": "view",
      "type": "function"
    },
    {
      "inputs": [],
      "name": "nextMicroTransactionId",
      "outputs": [
        {
          "internalType": "uint256",
          "name": "",
          "type": "uint256"
        }
      ],
      "stateMutability": "view",
      "type": "function"
    },
    {
      "inputs": [],
      "name": "nextStreamId",
      "outputs": [
        {
          "internalType": "uint256",
          "name": "",
          "type": "uint256"
        }
      ],
      "stateMutability": "view",
      "type": "function"
    },
    {
      "inputs": [],
      "name": "owner",
      "outputs": [
        {
          "internalType": "address",
          "name": "",
          "type": "address"
        }
      ],
      "stateMutability": "view",
      "type": "function"
    },
    {
      "inputs": [
        {
          "internalType": "uint256",
          "name": "",
          "type": "uint256"
        }
      ],
      "name": "realTimeStreams",
      "outputs": [
        {
          "internalType": "address",
          "name": "streamer",
          "type": "address"
        },
        {
          "internalType": "address",
          "name": "recipient",
          "type": "address"
        },
        {
          "internalType": "uint256",
          "name": "totalAmount",
          "type": "uint256"
        },
        {
          "internalType": "uint256",
          "name": "startTime",
          "type": "uint256"
        },
        {
          "internalType": "uint256",
          "name": "endTime",
          "type": "uint256"
        },
        {
          "internalType": "uint256",
          "name": "lastUpdateTime",
          "type": "uint256"
        },
        {
          "internalType": "uint256",
          "name": "streamedAmount",
          "type": "uint256"
        },
        {
          "internalType": "bool",
          "name": "isActive",
          "type": "bool"
        }
      ],
      "stateMutability": "view",
      "type": "function"
    },
    {
      "inputs": [],
      "name": "renounceOwnership",
      "outputs": [],
      "stateMutability": "nonpayable",
      "type": "function"
    },
    {
      "inputs": [
        {
          "internalType": "string",
          "name": "eventType",
          "type": "string"
        },
        {
          "internalType": "address[]",
          "name": "participants",
          "type": "address[]"
        },
        {
          "internalType": "uint256",
          "name": "totalValue",
          "type": "uint256"
        }
      ],
      "name": "startHighFrequencyEvent",
      "outputs": [],
      "stateMutability": "payable",
      "type": "function"
    },
    {
      "inputs": [],
      "name": "totalHighFrequencyEvents",
      "outputs": [
        {
          "internalType": "uint256",
          "name": "",
          "type": "uint256"
        }
      ],
      "stateMutability": "view",
      "type": "function"
    },
    {
      "inputs": [],
      "name": "totalMicroTransactions",
      "outputs": [
        {
          "internalType": "uint256",
          "name": "",
          "type": "uint256"
        }
      ],
      "stateMutability": "view",
      "type": "function"
    },
    {
      "inputs": [],
      "name": "totalRealTimeStreams",
      "outputs": [
        {
          "internalType": "uint256",
          "name": "",
          "type": "uint256"
        }
      ],
      "stateMutability": "view",
      "type": "function"
    },
    {
      "inputs": [],
      "name": "totalValueProcessed",
      "outputs": [
        {
          "internalType": "uint256",
          "name": "",
          "type": "uint256"
        }
      ],
      "stateMutability": "view",
      "type": "function"
    },
    {
      "inputs": [
        {
          "internalType": "address",
          "name": "newOwner",
          "type": "address"
        }
      ],
      "name": "transferOwnership",
      "outputs": [],
      "stateMutability": "nonpayable",
      "type": "function"
    },
    {
      "inputs": [
        {
          "internalType": "uint256",
          "name": "streamId",
          "type": "uint256"
        }
      ],
      "name": "updateRealTimeStream",
      "outputs": [],
      "stateMutability": "nonpayable",
      "type": "function"
    }
  ],
  "bytecode": "0x608060405234801561001057600080fd5b5061001a33610023565b60018055610073565b600080546001600160a01b038381166001600160a01b0319831681178455604051919092169283917f8be0079c531659141344cd1fd0a4f28419497f9722a3daafe3b4186f6b6457e09190a35050565b612654806100826000396000f3fe60806040526004361061019c5760003560e01c80638322f754116100ec5780639fcab5de1161008a578063dd40daec11610064578063dd40daec1461044a578063e97fbf5c14610500578063ebe8815e14610508578063f2fde38b1461059757600080fd5b80639fcab5de14610409578063a38aa7dd1461041f578063db2e21bc1461043557600080fd5b80638da5cb5b116100c65780638da5cb5b146103885780638eeb0c66146103b05780639b1bd994146103c65780639f9d903a146103f357600080fd5b80638322f7541461032f578063884aabfd1461035c5780638aa4b3a41461037257600080fd5b80634bae1769116101595780637130fda7116101335780637130fda7146102c0578063715018a6146102d55780637fd298ff146102ea578063818f994d146102fd57600080fd5b80634bae176914610266578063503984ba1461029757806367dad9e9146102ad57600080fd5b80630d821757146101a1578063136d8883146101cf5780631e99d5691461020857806320f75ef51461021e5780633e1d9d501461024057806348d40c7e14610253575b600080fd5b3480156101ad57600080fd5b506101bc66038d7ea4c6800081565b6040519081526020015b60405180910390f35b3480156101db57600080fd5b50600854600954600a54600b546040805194855260208501939093529183015260608201526080016101c6565b34801561021457600080fd5b506101bc60075481565b34801561022a57600080fd5b5061023e610239366004611ef9565b6105b7565b005b61023e61024e366004611f5e565b61080f565b61023e610261366004612014565b610cfb565b34801561027257600080fd5b50610286610281366004611ef9565b610fad565b6040516101c6959493929190612084565b3480156102a357600080fd5b506101bc61271081565b61023e6102bb3660046120fe565b611069565b3480156102cc57600080fd5b506101bc600181565b3480156102e157600080fd5b5061023e61134b565b61023e6102f8366004612151565b61135f565b34801561030957600080fd5b5061031d610318366004611ef9565b61164f565b6040516101c6969594939291906121c5565b34801561033b57600080fd5b5061034f61034a366004611ef9565b611720565b6040516101c69190612214565b34801561036857600080fd5b506101bc600a5481565b34801561037e57600080fd5b506101bc60055481565b34801561039457600080fd5b506000546040516001600160a01b0390911681526020016101c6565b3480156103bc57600080fd5b506101bc600b5481565b3480156103d257600080fd5b506103e66103e1366004611ef9565b61184a565b6040516101c6919061227c565b3480156103ff57600080fd5b506101bc60065481565b34801561041557600080fd5b506101bc60095481565b34801561042b57600080fd5b506101bc60085481565b34801561044157600080fd5b5061023e6119cb565b34801561045657600080fd5b506104b8610465366004611ef9565b6004602081905260009182526040909120805460018201546002830154600384015494840154600585015460068601546007909601546001600160a01b0395861697949095169592949192909160ff1688565b604080516001600160a01b03998a168152989097166020890152958701949094526060860192909252608085015260a084015260c0830152151560e0820152610100016101c6565b61023e611a0d565b34801561051457600080fd5b50610528610523366004611ef9565b611b1b565b6040516101c6919060006101008201905060018060a01b038084511683528060208501511660208401525060408301516040830152606083015160608301526080830151608083015260a083015160a083015260c083015160c083015260e0830151151560e083015292915050565b3480156105a357600080fd5b5061023e6105b2366004612322565b611bf5565b6105bf611c6b565b6000818152600460205260409020600781015460ff1661061a5760405162461bcd60e51b815260206004820152601160248201527053747265616d206e6f742061637469766560781b60448201526064015b60405180910390fd5b80600301544210156106635760405162461bcd60e51b815260206004820152601260248201527114dd1c99585b481b9bdd081cdd185c9d195960721b6044820152606401610611565b60058101544290600090610677908361235a565b9050826004015482106106fc5760008360060154846002015461069a919061235a565b905080156106ea5760018401546040516001600160a01b039091169082156108fc029083906000818181858888f193505050501580156106de573d6000803e3d6000fd5b50600284015460068501555b5060078301805460ff19169055610800565b600083600301548460040154610712919061235a565b905060008185600201546107269190612373565b905060006107348483612395565b90506000811180156107595750856002015481876006015461075691906123ac565b11155b156107fc5760018601546040516001600160a01b039091169082156108fc029083906000818181858888f1935050505015801561079a573d6000803e3d6000fd5b50808660060160008282546107af91906123ac565b9091555050600586018590556006860154604080519182526020820187905288917f392cfc859f59da9a8a4fadd129a9bfee7414927d1c4e215b73785c1ef8b0563a910160405180910390a25b5050505b50505061080c60018055565b50565b610817611c6b565b848314801561082557508281145b6108695760405162461bcd60e51b8152602060048201526015602482015274082e4e4c2f240d8cadccee8d040dad2e6dac2e8c6d605b1b6044820152606401610611565b6103e88511156108b35760405162461bcd60e51b8152602060048201526015602482015274546f6f206d616e79207472616e73616374696f6e7360581b6044820152606401610611565b6000805b848110156108f7578585828181106108d1576108d16123bf565b90506020020135826108e391906123ac565b9150806108ef816123d5565b9150506108b7565b508034101561093f5760405162461bcd60e51b8152602060048201526014602482015273125b9cdd59999a58da595b9d081c185e5b595b9d60621b6044820152606401610611565b60005b86811015610c675766038d7ea4c68000868683818110610964576109646123bf565b9050602002013511156109ac5760405162461bcd60e51b815260206004820152601060248201526f416d6f756e7420746f6f206c6172676560801b6044820152606401610611565b60058054600091826109bd836123d5565b9190505590506040518060c00160405280336001600160a01b031681526020018a8a858181106109ef576109ef6123bf565b9050602002016020810190610a049190612322565b6001600160a01b03168152602001888885818110610a2457610a246123bf565b905060200201358152602001428152602001868685818110610a4857610a486123bf565b9050602002810190610a5a91906123ee565b8080601f016020809104026020016040519081016040528093929190818152602001838380828437600092018290525093855250505060209182018190528381526002808352604091829020845181546001600160a01b03199081166001600160a01b039283161783559486015160018301805490961691161790935590830151908201556060820151600382015560808201516004820190610afd90826124cb565b5060a091909101516005909101805460ff1916911515919091179055888883818110610b2b57610b2b6123bf565b9050602002016020810190610b409190612322565b6001600160a01b03166108fc888885818110610b5e57610b5e6123bf565b905060200201359081150290604051600060405180830381858888f19350505050158015610b90573d6000803e3d6000fd5b506000818152600260205260409020600501805460ff19166001179055888883818110610bbf57610bbf6123bf565b9050602002016020810190610bd49190612322565b6001600160a01b031633827f7c2336ac1d5afeea614992f2b7a352108e85addabd7da846cf767cf4513eb1278a8a87818110610c1257610c126123bf565b90506020020135898988818110610c2b57610c2b6123bf565b9050602002810190610c3d91906123ee565b604051610c4c939291906125b4565b60405180910390a45080610c5f816123d5565b915050610942565b508686905060086000828254610c7d91906123ac565b9250508190555080600b6000828254610c9691906123ac565b90915550506040805160608082526010908201526f42617463682070726f63657373696e6760801b608082015260208101889052428183015290516000805160206125ff8339815191529181900360a00190a150610cf360018055565b505050505050565b610d03611c6b565b6001600160a01b038216610d4d5760405162461bcd60e51b8152602060048201526011602482015270125b9d985b1a59081c9958da5c1a595b9d607a1b6044820152606401610611565b6001811015610d935760405162461bcd60e51b8152602060048201526012602482015271111d5c985d1a5bdb881d1bdbc81cda1bdc9d60721b6044820152606401610611565b60003411610dda5760405162461bcd60e51b81526020600482015260146024820152734d7573742073656e6420736f6d652076616c756560601b6044820152606401610611565b6007805460009182610deb836123d5565b919050559050604051806101000160405280336001600160a01b03168152602001846001600160a01b031681526020013481526020014281526020018342610e3391906123ac565b81524260208083019190915260006040808401829052600160609485018190528683526004808552828420875181546001600160a01b03199081166001600160a01b0392831617835596890151938201805490971693169290921790945590850151600282015592840151600384015560808401519183019190915560a0830151600583015560c0830151600683015560e0909201516007909101805460ff1916911515919091179055600a805491610eeb836123d5565b919050555034600b6000828254610f0291906123ac565b909155505060408051348152602081018490526001600160a01b03851691339184917fb63070bfe723563f9491f450e0f5a247c7caabcf5fd53364e41d5b527a6f5d98910160405180910390a4604080516060808252601390820152725265616c2d74696d652073747265616d696e6760681b6080820152346020820152428183015290516000805160206125ff8339815191529181900360a00190a150610fa960018055565b5050565b60036020526000908152604090208054600182018054919291610fcf9061244b565b80601f0160208091040260200160405190810160405280929190818152602001828054610ffb9061244b565b80156110485780601f1061101d57610100808354040283529160200191611048565b820191906000526020600020905b81548152906001019060200180831161102b57829003601f168201915b50505050600283015460048401546005909401549293909290915060ff1685565b611071611c6b565b600034118015611088575066038d7ea4c680003411155b6110c55760405162461bcd60e51b815260206004820152600e60248201526d125b9d985b1a5908185b5bdd5b9d60921b6044820152606401610611565b6001600160a01b03831661110f5760405162461bcd60e51b8152602060048201526011602482015270125b9d985b1a59081c9958da5c1a595b9d607a1b6044820152606401610611565b8061114f5760405162461bcd60e51b815260206004820152601060248201526f141d5c9c1bdcd9481c995c5d5a5c995960821b6044820152606401610611565b6005805460009182611160836123d5565b9190505590506040518060c00160405280336001600160a01b03168152602001856001600160a01b0316815260200134815260200142815260200184848080601f016020809104026020016040519081016040528093929190818152602001838380828437600092018290525093855250505060209182018190528381526002808352604091829020845181546001600160a01b03199081166001600160a01b03928316178355948601516001830180549096169116179093559083015190820155606082015160038201556080820151600482019061124090826124cb565b5060a091909101516005909101805460ff19169115159190911790556008805490600061126c836123d5565b919050555034600b600082825461128391906123ac565b90915550611292905081611cc4565b836001600160a01b0316336001600160a01b0316827f7c2336ac1d5afeea614992f2b7a352108e85addabd7da846cf767cf4513eb1273487876040516112da939291906125b4565b60405180910390a4604080516060808252601a908201527f5375622d63656e74206d6963726f2d7472616e73616374696f6e0000000000006080820152346020820152428183015290516000805160206125ff8339815191529181900360a00190a15061134660018055565b505050565b611353611d26565b61135d6000611d80565b565b611367611c6b565b811580159061137857506127108211155b6113c45760405162461bcd60e51b815260206004820152601960248201527f496e76616c6964207061727469636970616e7420636f756e74000000000000006044820152606401610611565b8034101561140b5760405162461bcd60e51b8152602060048201526014602482015273125b9cdd59999a58da595b9d081c185e5b595b9d60621b6044820152606401610611565b8361144e5760405162461bcd60e51b8152602060048201526013602482015272115d995b9d081d1e5c19481c995c5d5a5c9959606a1b6044820152606401610611565b600680546000918261145f836123d5565b9190505590506040518060c0016040528082815260200187878080601f01602080910402602001604051908101604052809392919081815260200183838082843760009201919091525050509082525042602080830191909152604080518783028181018401835288825291909301929188918891829190850190849080828437600092018290525093855250505060208083018690526001604093840181905285835260038252929091208351815590830151909182019061152290826124cb565b506040820151600282015560608201518051611548916003840191602090910190611e7f565b506080820151600482015560a0909101516005909101805460ff19169115159190911790556009805490600061157d836123d5565b919050555081600b600082825461159491906123ac565b909155506115a3905081611dd0565b60405181907fb47dc389c1f4fab313104955a863872f2a0412bb0551c69ef42a807a416336af906115db9089908990889088906125d7565b60405180910390a26040805160608082526019908201527f486967682d6672657175656e63792070726f63657373696e6700000000000000608082015260208101859052428183015290516000805160206125ff8339815191529181900360a00190a15061164860018055565b5050505050565b6002602081905260009182526040909120805460018201549282015460038301546004840180546001600160a01b03948516969094169492939192916116949061244b565b80601f01602080910402602001604051908101604052809291908181526020018280546116c09061244b565b801561170d5780601f106116e25761010080835404028352916020019161170d565b820191906000526020600020905b8154815290600101906020018083116116f057829003601f168201915b5050506005909301549192505060ff1686565b6040805160c0810182526000808252602082018190529181018290526060808201839052608082015260a0810191909152600082815260026020818152604092839020835160c08101855281546001600160a01b039081168252600183015416928101929092529182015492810192909252600381015460608301526004810180546080840191906117b19061244b565b80601f01602080910402602001604051908101604052809291908181526020018280546117dd9061244b565b801561182a5780601f106117ff5761010080835404028352916020019161182a565b820191906000526020600020905b81548152906001019060200180831161180d57829003601f168201915b50505091835250506005919091015460ff16151560209091015292915050565b6118856040518060c0016040528060008152602001606081526020016000815260200160608152602001600081526020016000151581525090565b600360008381526020019081526020016000206040518060c0016040529081600082015481526020016001820180546118bd9061244b565b80601f01602080910402602001604051908101604052809291908181526020018280546118e99061244b565b80156119365780601f1061190b57610100808354040283529160200191611936565b820191906000526020600020905b81548152906001019060200180831161191957829003601f168201915b5050505050815260200160028201548152602001600382018054806020026020016040519081016040528092919081815260200182805480156119a257602002820191906000526020600020905b81546001600160a01b03168152600190910190602001808311611984575b50505091835250506004820154602082015260059091015460ff16151560409091015292915050565b6119d3611d26565b600080546040516001600160a01b03909116914780156108fc02929091818181858888f1935050505015801561080c573d6000803e3d6000fd5b60003411611a545760405162461bcd60e51b81526020600482015260146024820152734d7573742073656e6420736f6d652076616c756560601b6044820152606401610611565b426000805b6103e8811015611a8b57611a6d8180612395565b611a7790836123ac565b915080611a83816123d5565b915050611a59565b50426000611a99848361235a565b604080516060808252601390820152725375622d7365636f6e642066696e616c69747960681b6080820152602081018390529081018490529091506000805160206125ff8339815191529060a00160405180910390a160405133903480156108fc02916000818181858888f19350505050158015611648573d6000803e3d6000fd5b611b7760405180610100016040528060006001600160a01b0316815260200160006001600160a01b0316815260200160008152602001600081526020016000815260200160008152602001600081526020016000151581525090565b5060009081526004602081815260409283902083516101008101855281546001600160a01b0390811682526001830154169281019290925260028101549382019390935260038301546060820152908201546080820152600582015460a0820152600682015460c082015260079091015460ff16151560e082015290565b611bfd611d26565b6001600160a01b038116611c625760405162461bcd60e51b815260206004820152602660248201527f4f776e61626c653a206e6577206f776e657220697320746865207a65726f206160448201526564647265737360d01b6064820152608401610611565b61080c81611d80565b600260015403611cbd5760405162461bcd60e51b815260206004820152601f60248201527f5265656e7472616e637947756172643a207265656e7472616e742063616c6c006044820152606401610611565b6002600155565b6000818152600260208190526040808320600181015492810154915190936001600160a01b039093169282156108fc02929190818181858888f19350505050158015611d14573d6000803e3d6000fd5b50600501805460ff1916600117905550565b6000546001600160a01b0316331461135d5760405162461bcd60e51b815260206004820181905260248201527f4f776e61626c653a2063616c6c6572206973206e6f7420746865206f776e65726044820152606401610611565b600080546001600160a01b038381166001600160a01b0319831681178455604051919092169283917f8be0079c531659141344cd1fd0a4f28419497f9722a3daafe3b4186f6b6457e09190a35050565b60008181526003602081905260408220908101546004820154919291611df69190612373565b905060005b6003830154811015611e6f57826003018181548110611e1c57611e1c6123bf565b60009182526020822001546040516001600160a01b039091169184156108fc02918591818181858888f19350505050158015611e5c573d6000803e3d6000fd5b5080611e67816123d5565b915050611dfb565b5050600501805460ff1916905550565b828054828255906000526020600020908101928215611ed4579160200282015b82811115611ed457825182546001600160a01b0319166001600160a01b03909116178255602090920191600190910190611e9f565b50611ee0929150611ee4565b5090565b5b80821115611ee05760008155600101611ee5565b600060208284031215611f0b57600080fd5b5035919050565b60008083601f840112611f2457600080fd5b50813567ffffffffffffffff811115611f3c57600080fd5b6020830191508360208260051b8501011115611f5757600080fd5b9250929050565b60008060008060008060608789031215611f7757600080fd5b863567ffffffffffffffff80821115611f8f57600080fd5b611f9b8a838b01611f12565b90985096506020890135915080821115611fb457600080fd5b611fc08a838b01611f12565b90965094506040890135915080821115611fd957600080fd5b50611fe689828a01611f12565b979a9699509497509295939492505050565b80356001600160a01b038116811461200f57600080fd5b919050565b6000806040838503121561202757600080fd5b61203083611ff8565b946020939093013593505050565b6000815180845260005b8181101561206457602081850181015186830182015201612048565b506000602082860101526020601f19601f83011685010191505092915050565b85815260a06020820152600061209d60a083018761203e565b6040830195909552506060810192909252151560809091015292915050565b60008083601f8401126120ce57600080fd5b50813567ffffffffffffffff8111156120e657600080fd5b602083019150836020828501011115611f5757600080fd5b60008060006040848603121561211357600080fd5b61211c84611ff8565b9250602084013567ffffffffffffffff81111561213857600080fd5b612144868287016120bc565b9497909650939450505050565b60008060008060006060868803121561216957600080fd5b853567ffffffffffffffff8082111561218157600080fd5b61218d89838a016120bc565b909750955060208801359150808211156121a657600080fd5b506121b388828901611f12565b96999598509660400135949350505050565b6001600160a01b03878116825286166020820152604081018590526060810184905260c0608082018190526000906121ff9083018561203e565b905082151560a0830152979650505050505050565b60208152600060018060a01b03808451166020840152806020850151166040840152506040830151606083015260608301516080830152608083015160c060a084015261226460e084018261203e565b905060a0840151151560c08401528091505092915050565b600060208083528351818401528084015160c060408501526122a160e085018261203e565b6040860151606086810191909152860151858203601f19016080870152805180835290840192506000918401905b808310156122f85783516001600160a01b031682529284019260019290920191908401906122cf565b50608087015160a087015260a0870151935061231860c087018515159052565b9695505050505050565b60006020828403121561233457600080fd5b61233d82611ff8565b9392505050565b634e487b7160e01b600052601160045260246000fd5b8181038181111561236d5761236d612344565b92915050565b60008261239057634e487b7160e01b600052601260045260246000fd5b500490565b808202811582820484141761236d5761236d612344565b8082018082111561236d5761236d612344565b634e487b7160e01b600052603260045260246000fd5b6000600182016123e7576123e7612344565b5060010190565b6000808335601e1984360301811261240557600080fd5b83018035915067ffffffffffffffff82111561242057600080fd5b602001915036819003821315611f5757600080fd5b634e487b7160e01b600052604160045260246000fd5b600181811c9082168061245f57607f821691505b60208210810361247f57634e487b7160e01b600052602260045260246000fd5b50919050565b601f82111561134657600081815260208120601f850160051c810160208610156124ac5750805b601f850160051c820191505b81811015610cf3578281556001016124b8565b815167ffffffffffffffff8111156124e5576124e5612435565b6124f9816124f3845461244b565b84612485565b602080601f83116001811461252e57600084156125165750858301515b600019600386901b1c1916600185901b178555610cf3565b600085815260208120601f198616915b8281101561255d5788860151825594840194600190910190840161253e565b508582101561257b5787850151600019600388901b60f8161c191681555b5050505050600190811b01905550565b81835281816020850137506000828201602090810191909152601f909101601f19169091010190565b8381526040602082015260006125ce60408301848661258b565b95945050505050565b6060815260006125eb60608301868861258b565b602083019490945250604001529291505056fe308a07533563b21f67a6beb5c2c409370de3e2c055cb1fe55166c713de80ae35a2646970667358221220ced8bc8c16acf2d92ee227785c18e0dc3b9d3b0543d5eab84e42afa07564d25464736f6c63430008130033",
  "linkReferences": {},
  "deployedLinkReferences": {}
}