{
  "_format": "hh-sol-artifact-1",
  "contractName": "NFTUtilityGamification",
  "sourceName": "contracts/NFTUtilityGamification.sol",
  "abi": [
    {
      "inputs": [],
      "stateMutability": "nonpayable",
      "type": "constructor"
    },
    {
      "anonymous": false,
      "inputs": [
        {
          "indexed": true,
          "internalType": "address",
          "name": "user",
          "type": "address"
        },
        {
          "indexed": true,
          "internalType": "enum NFTUtilityGamification.AchievementType",
          "name": "achievementType",
          "type": "uint8"
        },
        {
          "indexed": false,
          "internalType": "uint256",
          "name": "points",
          "type": "uint256"
        }
      ],
      "name": "AchievementUnlocked",
      "type": "event"
    },
    {
      "anonymous": false,
      "inputs": [
        {
          "indexed": true,
          "internalType": "address",
          "name": "user",
          "type": "address"
        },
        {
          "indexed": false,
          "internalType": "uint256",
          "name": "newRank",
          "type": "uint256"
        },
        {
          "indexed": false,
          "internalType": "uint256",
          "name": "totalPoints",
          "type": "uint256"
        }
      ],
      "name": "LeaderboardUpdated",
      "type": "event"
    },
    {
      "anonymous": false,
      "inputs": [
        {
          "indexed": true,
          "internalType": "address",
          "name": "previousOwner",
          "type": "address"
        },
        {
          "indexed": true,
          "internalType": "address",
          "name": "newOwner",
          "type": "address"
        }
      ],
      "name": "OwnershipTransferred",
      "type": "event"
    },
    {
      "anonymous": false,
      "inputs": [
        {
          "indexed": true,
          "internalType": "address",
          "name": "user",
          "type": "address"
        },
        {
          "indexed": false,
          "internalType": "uint256",
          "name": "points",
          "type": "uint256"
        },
        {
          "indexed": false,
          "internalType": "string",
          "name": "reason",
          "type": "string"
        }
      ],
      "name": "PointsEarned",
      "type": "event"
    },
    {
      "inputs": [],
      "name": "LEADERBOARD_SIZE",
      "outputs": [
        {
          "internalType": "uint256",
          "name": "",
          "type": "uint256"
        }
      ],
      "stateMutability": "view",
      "type": "function"
    },
    {
      "inputs": [
        {
          "internalType": "enum NFTUtilityGamification.AchievementType",
          "name": "",
          "type": "uint8"
        }
      ],
      "name": "achievements",
      "outputs": [
        {
          "internalType": "enum NFTUtilityGamification.AchievementType",
          "name": "achievementType",
          "type": "uint8"
        },
        {
          "internalType": "string",
          "name": "name",
          "type": "string"
        },
        {
          "internalType": "string",
          "name": "description",
          "type": "string"
        },
        {
          "internalType": "uint256",
          "name": "points",
          "type": "uint256"
        },
        {
          "internalType": "bool",
          "name": "isActive",
          "type": "bool"
        }
      ],
      "stateMutability": "view",
      "type": "function"
    },
    {
      "inputs": [
        {
          "internalType": "enum NFTUtilityGamification.AchievementType",
          "name": "achievementType",
          "type": "uint8"
        }
      ],
      "name": "getAchievement",
      "outputs": [
        {
          "components": [
            {
              "internalType": "enum NFTUtilityGamification.AchievementType",
              "name": "achievementType",
              "type": "uint8"
            },
            {
              "internalType": "string",
              "name": "name",
              "type": "string"
            },
            {
              "internalType": "string",
              "name": "description",
              "type": "string"
            },
            {
              "internalType": "uint256",
              "name": "points",
              "type": "uint256"
            },
            {
              "internalType": "bool",
              "name": "isActive",
              "type": "bool"
            }
          ],
          "internalType": "struct NFTUtilityGamification.Achievement",
          "name": "",
          "type": "tuple"
        }
      ],
      "stateMutability": "view",
      "type": "function"
    },
    {
      "inputs": [
        {
          "internalType": "uint256",
          "name": "count",
          "type": "uint256"
        }
      ],
      "name": "getTopLeaderboard",
      "outputs": [
        {
          "components": [
            {
              "internalType": "address",
              "name": "user",
              "type": "address"
            },
            {
              "internalType": "uint256",
              "name": "points",
              "type": "uint256"
            },
            {
              "internalType": "uint256",
              "name": "rank",
              "type": "uint256"
            }
          ],
          "internalType": "struct NFTUtilityGamification.LeaderboardEntry[]",
          "name": "",
          "type": "tuple[]"
        }
      ],
      "stateMutability": "view",
      "type": "function"
    },
    {
      "inputs": [
        {
          "internalType": "address",
          "name": "user",
          "type": "address"
        }
      ],
      "name": "getUserAchievements",
      "outputs": [
        {
          "internalType": "enum NFTUtilityGamification.AchievementType[]",
          "name": "",
          "type": "uint8[]"
        }
      ],
      "stateMutability": "view",
      "type": "function"
    },
    {
      "inputs": [
        {
          "internalType": "address",
          "name": "user",
          "type": "address"
        }
      ],
      "name": "getUserProfile",
      "outputs": [
        {
          "internalType": "uint256",
          "name": "totalPoints",
          "type": "uint256"
        },
        {
          "internalType": "uint256",
          "name": "rentalCount",
          "type": "uint256"
        },
        {
          "internalType": "uint256",
          "name": "totalSpent",
          "type": "uint256"
        },
        {
          "internalType": "uint256",
          "name": "streakDays",
          "type": "uint256"
        },
        {
          "internalType": "uint256",
          "name": "rank",
          "type": "uint256"
        }
      ],
      "stateMutability": "view",
      "type": "function"
    },
    {
      "inputs": [
        {
          "internalType": "address",
          "name": "user",
          "type": "address"
        },
        {
          "internalType": "enum NFTUtilityGamification.AchievementType",
          "name": "achievementType",
          "type": "uint8"
        }
      ],
      "name": "hasAchievement",
      "outputs": [
        {
          "internalType": "bool",
          "name": "",
          "type": "bool"
        }
      ],
      "stateMutability": "view",
      "type": "function"
    },
    {
      "inputs": [
        {
          "internalType": "uint256",
          "name": "",
          "type": "uint256"
        },
        {
          "internalType": "uint256",
          "name": "",
          "type": "uint256"
        }
      ],
      "name": "leaderboard",
      "outputs": [
        {
          "internalType": "address",
          "name": "",
          "type": "address"
        }
      ],
      "stateMutability": "view",
      "type": "function"
    },
    {
      "inputs": [],
      "name": "owner",
      "outputs": [
        {
          "internalType": "address",
          "name": "",
          "type": "address"
        }
      ],
      "stateMutability": "view",
      "type": "function"
    },
    {
      "inputs": [
        {
          "internalType": "address",
          "name": "user",
          "type": "address"
        },
        {
          "internalType": "uint256",
          "name": "rentalValue",
          "type": "uint256"
        },
        {
          "internalType": "uint256",
          "name": "duration",
          "type": "uint256"
        },
        {
          "internalType": "address",
          "name": "nftContract",
          "type": "address"
        },
        {
          "internalType": "uint256",
          "name": "tokenId",
          "type": "uint256"
        }
      ],
      "name": "recordRental",
      "outputs": [],
      "stateMutability": "nonpayable",
      "type": "function"
    },
    {
      "inputs": [],
      "name": "renounceOwnership",
      "outputs": [],
      "stateMutability": "nonpayable",
      "type": "function"
    },
    {
      "inputs": [],
      "name": "totalUsers",
      "outputs": [
        {
          "internalType": "uint256",
          "name": "",
          "type": "uint256"
        }
      ],
      "stateMutability": "view",
      "type": "function"
    },
    {
      "inputs": [
        {
          "internalType": "address",
          "name": "newOwner",
          "type": "address"
        }
      ],
      "name": "transferOwnership",
      "outputs": [],
      "stateMutability": "nonpayable",
      "type": "function"
    },
    {
      "inputs": [
        {
          "internalType": "address",
          "name": "",
          "type": "address"
        }
      ],
      "name": "userProfiles",
      "outputs": [
        {
          "internalType": "uint256",
          "name": "totalPoints",
          "type": "uint256"
        },
        {
          "internalType": "uint256",
          "name": "rentalCount",
          "type": "uint256"
        },
        {
          "internalType": "uint256",
          "name": "totalSpent",
          "type": "uint256"
        },
        {
          "internalType": "uint256",
          "name": "streakDays",
          "type": "uint256"
        },
        {
          "internalType": "uint256",
          "name": "lastRentalTime",
          "type": "uint256"
        }
      ],
      "stateMutability": "view",
      "type": "function"
    },
    {
      "inputs": [
        {
          "internalType": "address",
          "name": "",
          "type": "address"
        }
      ],
      "name": "userRank",
      "outputs": [
        {
          "internalType": "uint256",
          "name": "",
          "type": "uint256"
        }
      ],
      "stateMutability": "view",
      "type": "function"
    }
  ],
  "bytecode": "0x60806040523480156200001157600080fd5b506200001d3362000031565b600180556200002b62000081565b62000e01565b600080546001600160a01b038381166001600160a01b0319831681178455604051919092169283917f8be0079c531659141344cd1fd0a4f28419497f9722a3daafe3b4186f6b6457e09190a35050565b6040805160a0810190915280600081526020016040518060400160405280600b81526020016a466972737420537465707360a81b81525081526020016040518060400160405280601e81526020017f436f6d706c65746520796f7572206669727374204e46542072656e74616c000081525081526020016064815260200160011515815250600360008060098111156200011f576200011f62000c7a565b600981111562000133576200013362000c7a565b8152602081019190915260400160002081518154829060ff1916600183600981111562000164576200016462000c7a565b0217905550602082015160018201906200017f908262000d35565b506040820151600282019062000196908262000d35565b50606082015160038201556080909101516004909101805460ff19169115159190911790556040805160a0810190915280600181526020016040518060400160405280600a8152602001692837bbb2b9102ab9b2b960b11b81525081526020016040518060400160405280601f81526020017f436f6d706c6574652031302b207375636365737366756c2072656e74616c730081525081526020016101f481526020016001151581525060036000600160098111156200025a576200025a62000c7a565b60098111156200026e576200026e62000c7a565b8152602081019190915260400160002081518154829060ff191660018360098111156200029f576200029f62000c7a565b021790555060208201516001820190620002ba908262000d35565b5060408201516002820190620002d1908262000d35565b50606082015160038201556080909101516004909101805460ff19169115159190911790556040805160a0810190915280600281526020016040518060400160405280600d81526020016c27232a1021b7b63632b1ba37b960991b81525081526020016040518060400160405280601f81526020017f52656e7420352b20646966666572656e74207479706573206f66204e46547300815250815260200161012c815260200160011515815250600360006002600981111562000398576200039862000c7a565b6009811115620003ac57620003ac62000c7a565b8152602081019190915260400160002081518154829060ff19166001836009811115620003dd57620003dd62000c7a565b021790555060208201516001820190620003f8908262000d35565b50604082015160028201906200040f908262000d35565b5060608201516003828101919091556080909201516004909101805460ff19169115159190911790556040805160a0810190915290819081526020016040518060400160405280600b81526020016a29b832b2b2102232b6b7b760a91b8152508152602001604051806060016040528060238152602001620024d160239139815260c86020820152600160409091015260036000818152602081019190915260400160002081518154829060ff19166001836009811115620004d557620004d562000c7a565b021790555060208201516001820190620004f0908262000d35565b506040820151600282019062000507908262000d35565b50606082015160038201556080909101516004918201805460ff19169115159190911790556040805160a0810190915290819081526020016040518060400160405280600b81526020016a2434b3b4102937b63632b960a91b81525081526020016040518060400160405280601781526020017f5370656e6420312b20455448206f6e2072656e74616c7300000000000000000081525081526020016103e88152602001600115158152506003600060046009811115620005cc57620005cc62000c7a565b6009811115620005e057620005e062000c7a565b8152602081019190915260400160002081518154829060ff1916600183600981111562000611576200061162000c7a565b0217905550602082015160018201906200062c908262000d35565b506040820151600282019062000643908262000d35565b50606082015160038201556080909101516004909101805460ff19169115159190911790556040805160a0810190915280600581526020016040518060400160405280601181526020017021b7b6b6bab734ba3c90213ab4b63232b960791b81525081526020016040518060400160405280601e81526020017f526566657220352b20757365727320746f2074686520706c6174666f726d000081525081526020016102ee81526020016001151581525060036000600560098111156200070e576200070e62000c7a565b600981111562000722576200072262000c7a565b8152602081019190915260400160002081518154829060ff1916600183600981111562000753576200075362000c7a565b0217905550602082015160018201906200076e908262000d35565b506040820151600282019062000785908262000d35565b50606082015160038201556080909101516004909101805460ff19169115159190911790556040805160a0810190915280600681526020016040518060400160405280601081526020016f2aba34b634ba3c9022bc383637b932b960811b81525081526020016040518060400160405280601e81526020017f54727920332b20646966666572656e74207574696c6974792074797065730000815250815260200161019081526020016001151581525060036000600660098111156200084f576200084f62000c7a565b600981111562000863576200086362000c7a565b8152602081019190915260400160002081518154829060ff1916600183600981111562000894576200089462000c7a565b021790555060208201516001820190620008af908262000d35565b5060408201516002820190620008c6908262000d35565b50606082015160038201556080909101516004909101805460ff19169115159190911790556040805160a0810190915280600781526020016040518060400160405280600d81526020016c29ba3932b0b59026b0b9ba32b960991b81525081526020016040518060400160405280601d81526020017f4d61696e7461696e20372b206461792072656e74616c2073747265616b000000815250815260200161025881526020016001151581525060036000600760098111156200098d576200098d62000c7a565b6009811115620009a157620009a162000c7a565b8152602081019190915260400160002081518154829060ff19166001836009811115620009d257620009d262000c7a565b021790555060208201516001820190620009ed908262000d35565b506040820151600282019062000a04908262000d35565b50606082015160038201556080909101516004909101805460ff19169115159190911790556040805160a0810190915280600881526020016040518060400160405280600c81526020016b26b4b1b937902932b73a32b960a11b8152508152602001604051806060016040528060258152602001620024ac6025913981526103206020808301919091526001604090920182905260086000526003905281517f85aaa47b6dc46495bb8824fad4583769726fea36efd831a35556690b830a8fbe80549092839160ff19169083600981111562000ae45762000ae462000c7a565b02179055506020820151600182019062000aff908262000d35565b506040820151600282019062000b16908262000d35565b50606082015160038201556080909101516004909101805460ff19169115159190911790556040805160a0810190915280600981526020016040518060400160405280600d81526020016c27232a102bb434b9b832b932b960991b81525081526020016040518060400160405280601b81526020017f52656e74207468652073616d65204e46542031302b2074696d65730000000000815250815260200161015e8152602001600115158152506003600060098081111562000bdc5762000bdc62000c7a565b600981111562000bf05762000bf062000c7a565b8152602081019190915260400160002081518154829060ff1916600183600981111562000c215762000c2162000c7a565b02179055506020820151600182019062000c3c908262000d35565b506040820151600282019062000c53908262000d35565b50606082015160038201556080909101516004909101805460ff1916911515919091179055565b634e487b7160e01b600052602160045260246000fd5b634e487b7160e01b600052604160045260246000fd5b600181811c9082168062000cbb57607f821691505b60208210810362000cdc57634e487b7160e01b600052602260045260246000fd5b50919050565b601f82111562000d3057600081815260208120601f850160051c8101602086101562000d0b5750805b601f850160051c820191505b8181101562000d2c5782815560010162000d17565b5050505b505050565b81516001600160401b0381111562000d515762000d5162000c90565b62000d698162000d62845462000ca6565b8462000ce2565b602080601f83116001811462000da1576000841562000d885750858301515b600019600386901b1c1916600185901b17855562000d2c565b600085815260208120601f198616915b8281101562000dd25788860151825594840194600190910190840162000db1565b508582101562000df15787850151600019600388901b60f8161c191681555b5050505050600190811b01905550565b61169b8062000e116000396000f3fe608060405234801561001057600080fd5b50600436106100f55760003560e01c80638da5cb5b11610097578063e9c6c8e811610066578063e9c6c8e81461028d578063edc1eed0146102ad578063f09153c4146102cd578063f2fde38b146102ed57600080fd5b80638da5cb5b14610202578063987ee15614610227578063aee6c69c14610271578063bff1f9e11461028457600080fd5b806345fd14b0116100d357806345fd14b0146101ac5780634f085f42146101cf5780635297be54146101e5578063715018a6146101fa57600080fd5b80630f7598ca146100fa57806313e407bf14610127578063332d56d714610147575b600080fd5b61010d61010836600461126e565b610300565b60405161011e959493929190611307565b60405180910390f35b61013a610135366004611353565b610447565b60405161011e919061136c565b6101846101553660046113e5565b600260208190526000918252604090912080546001820154928201546003830154600490930154919392909185565b604080519586526020860194909452928401919091526060830152608082015260a00161011e565b6101bf6101ba366004611400565b61060b565b604051901515815260200161011e565b6101d7606481565b60405190815260200161011e565b6101f86101f3366004611433565b610667565b005b6101f861076f565b6000546001600160a01b03165b6040516001600160a01b03909116815260200161011e565b6101846102353660046113e5565b6001600160a01b031660009081526002602081815260408084208054600182015494820154600390920154600590945291909420549094929392565b61020f61027f366004611481565b610783565b6101d760065481565b6102a061029b36600461126e565b6107bb565b60405161011e91906114a3565b6101d76102bb3660046113e5565b60056020526000908152604090205481565b6102e06102db3660046113e5565b6109a3565b60405161011e9190611510565b6101f86102fb3660046113e5565b610aa3565b6003602052600090815260409020805460018201805460ff90921692916103269061155b565b80601f01602080910402602001604051908101604052809291908181526020018280546103529061155b565b801561039f5780601f106103745761010080835404028352916020019161039f565b820191906000526020600020905b81548152906001019060200180831161038257829003601f168201915b5050505050908060020180546103b49061155b565b80601f01602080910402602001604051908101604052809291908181526020018280546103e09061155b565b801561042d5780601f106104025761010080835404028352916020019161042d565b820191906000526020600020905b81548152906001019060200180831161041057829003601f168201915b50505050600383015460049093015491929160ff16905085565b606060648211156104915760405162461bcd60e51b815260206004820152600f60248201526e436f756e7420746f6f206c6172676560881b60448201526064015b60405180910390fd5b60008267ffffffffffffffff8111156104ac576104ac611595565b60405190808252806020026020018201604052801561050a57816020015b6104f7604051806060016040528060006001600160a01b0316815260200160008152602001600081525090565b8152602001906001900390816104ca5790505b509050600060015b6064811115801561052257508482105b156106025760005b6000828152600460205260409020548110801561054657508583105b156105ef57600082815260046020526040812080548390811061056b5761056b6115ab565b6000918252602080832090910154604080516060810182526001600160a01b03909216808352808552600284529381902054928201929092529081018590528651919250908690869081106105c2576105c26115ab565b602002602001018190525083806105d8906115d7565b9450505080806105e7906115d7565b91505061052a565b50806105fa816115d7565b915050610512565b50909392505050565b6001600160a01b03821660009081526002602052604081206005018183600981111561063957610639611289565b600981111561064a5761064a611289565b815260208101919091526040016000205460ff1690505b92915050565b61066f610b1c565b6001600160a01b03851660009081526002602052604081206001810180549192610698836115d7565b9190505550848160020160008282546106b191906115f0565b909155505042600482015560006106c88686610b76565b9050808260000160008282546106de91906115f0565b92505081905550866001600160a01b03167fb51b16cb4103a8ce441e52afe5cfabab49df83ba6b570adcde7724f975bdf7d0826040516107489181526040602082018190526010908201526f14995b9d185b0818dbdb5c1b195d195960821b606082015260800190565b60405180910390a261075d8787878787610bab565b61076687610cee565b50505050505050565b610777610b1c565b6107816000610dca565b565b6004602052816000526040600020818154811061079f57600080fd5b6000918252602090912001546001600160a01b03169150829050565b6107f06040805160a0810190915280600081526020016060815260200160608152602001600081526020016000151581525090565b6003600083600981111561080657610806611289565b600981111561081757610817611289565b815260208101919091526040908101600020815160a081019092528054829060ff16600981111561084a5761084a611289565b600981111561085b5761085b611289565b815260200160018201805461086f9061155b565b80601f016020809104026020016040519081016040528092919081815260200182805461089b9061155b565b80156108e85780601f106108bd576101008083540402835291602001916108e8565b820191906000526020600020905b8154815290600101906020018083116108cb57829003601f168201915b505050505081526020016002820180546109019061155b565b80601f016020809104026020016040519081016040528092919081815260200182805461092d9061155b565b801561097a5780601f1061094f5761010080835404028352916020019161097a565b820191906000526020600020905b81548152906001019060200180831161095d57829003601f168201915b50505091835250506003820154602082015260049091015460ff16151560409091015292915050565b6001600160a01b038116600090815260026020526040812060068101546060929067ffffffffffffffff8111156109dc576109dc611595565b604051908082528060200260200182016040528015610a05578160200160208202803683370190505b50905060005b6006830154811015610a9b57826006018181548110610a2c57610a2c6115ab565b90600052602060002001546009811115610a4857610a48611289565b828281518110610a5a57610a5a6115ab565b60200260200101906009811115610a7357610a73611289565b90816009811115610a8657610a86611289565b90525080610a93816115d7565b915050610a0b565b509392505050565b610aab610b1c565b6001600160a01b038116610b105760405162461bcd60e51b815260206004820152602660248201527f4f776e61626c653a206e6577206f776e657220697320746865207a65726f206160448201526564647265737360d01b6064820152608401610488565b610b1981610dca565b50565b6000546001600160a01b031633146107815760405162461bcd60e51b815260206004820181905260248201527f4f776e61626c653a2063616c6c6572206973206e6f7420746865206f776e65726044820152606401610488565b600080610b8a66038d7ea4c6800085611603565b9050610e10831015610ba457610ba1816002611625565b90505b9392505050565b6001600160a01b0385166000908152600260205260409020600180820154148015610be75750600080805260058201602052604090205460ff16155b15610bf757610bf7866000610e1a565b600a816001015410158015610c1f57506001600090815260058201602052604090205460ff16155b15610c2f57610c2f866001610e1a565b603c84108015610c5257506003600090815260058201602052604090205460ff16155b15610c6257610c62866003610e1a565b670de0b6b3a7640000816002015410158015610c9157506004600090815260058201602052604090205460ff16155b15610ca157610ca1866004610e1a565b610e1084108015610cb757506064816001015410155b8015610cd657506008600090815260058201602052604090205460ff16155b15610ce657610ce6866008610e1a565b505050505050565b6001600160a01b03811660009081526002602090815260408083206005909252822054815491929091610d2290859061102e565b9050818114610dc4578115610d3b57610d3b8483611127565b60648111610dc457600081815260046020908152604080832080546001810182559084528284200180546001600160a01b0319166001600160a01b038916908117909155808452600583529281902084905585548151858152928301527f5c874adf9d1c93ab636130bb7e727993f1d6a3d33d1ffd925556815d0eec2308910160405180910390a25b50505050565b600080546001600160a01b038381166001600160a01b0319831681178455604051919092169283917f8be0079c531659141344cd1fd0a4f28419497f9722a3daafe3b4186f6b6457e09190a35050565b6001600160a01b038216600090815260026020526040812090600381846009811115610e4857610e48611289565b6009811115610e5957610e59611289565b81526020019081526020016000209050816005016000846009811115610e8157610e81611289565b6009811115610e9257610e92611289565b815260208101919091526040016000205460ff1615610ef35760405162461bcd60e51b815260206004820152601c60248201527f416368696576656d656e7420616c726561647920756e6c6f636b6564000000006044820152606401610488565b600481015460ff16610f405760405162461bcd60e51b8152602060048201526016602482015275416368696576656d656e74206e6f742061637469766560501b6044820152606401610488565b6001826005016000856009811115610f5a57610f5a611289565b6009811115610f6b57610f6b611289565b81526020810191909152604001600020805460ff191691151591909117905560068201836009811115610fa057610fa0611289565b815460018101835560009283526020832001556003820154835490918491610fc99084906115f0565b909155508390506009811115610fe157610fe1611289565b846001600160a01b03167f4a6601ee750cec6b98251f26f4680f6937e0c3ce2f685306a708bdadf3fe66a5836003015460405161102091815260200190565b60405180910390a350505050565b60006001805b60648111610a9b5760005b60008281526004602052604090205481101561111457600082815260046020526040902080546001600160a01b038816919083908110611081576110816115ab565b6000918252602090912001546001600160a01b0316148015906110ef575084600260006004600086815260200190815260200160002084815481106110c8576110c86115ab565b60009182526020808320909101546001600160a01b03168352820192909252604001902054115b1561110257826110fe816115d7565b9350505b8061110c816115d7565b91505061103f565b508061111f816115d7565b915050611034565b6000818152600460205260408120905b815481101561123d57836001600160a01b031682828154811061115c5761115c6115ab565b6000918252602090912001546001600160a01b03160361122b57815482906111869060019061163c565b81548110611196576111966115ab565b9060005260206000200160009054906101000a90046001600160a01b03168282815481106111c6576111c66115ab565b9060005260206000200160006101000a8154816001600160a01b0302191690836001600160a01b03160217905550818054806112045761120461164f565b600082815260209020810160001990810180546001600160a01b031916905501905561123d565b80611235816115d7565b915050611137565b5050506001600160a01b0316600090815260056020526040812055565b8035600a811061126957600080fd5b919050565b60006020828403121561128057600080fd5b610ba48261125a565b634e487b7160e01b600052602160045260246000fd5b600a81106112bd57634e487b7160e01b600052602160045260246000fd5b9052565b6000815180845260005b818110156112e7576020818501810151868301820152016112cb565b506000602082860101526020601f19601f83011685010191505092915050565b611311818761129f565b60a06020820152600061132760a08301876112c1565b828103604084015261133981876112c1565b606084019590955250509015156080909101529392505050565b60006020828403121561136557600080fd5b5035919050565b602080825282518282018190526000919060409081850190868401855b828110156113c157815180516001600160a01b0316855286810151878601528501518585015260609093019290850190600101611389565b5091979650505050505050565b80356001600160a01b038116811461126957600080fd5b6000602082840312156113f757600080fd5b610ba4826113ce565b6000806040838503121561141357600080fd5b61141c836113ce565b915061142a6020840161125a565b90509250929050565b600080600080600060a0868803121561144b57600080fd5b611454866113ce565b94506020860135935060408601359250611470606087016113ce565b949793965091946080013592915050565b6000806040838503121561149457600080fd5b50508035926020909101359150565b602081526114b560208201835161129f565b6000602083015160a060408401526114d060c08401826112c1565b90506040840151601f198483030160608501526114ed82826112c1565b915050606084015160808401526080840151151560a08401528091505092915050565b6020808252825182820181905260009190848201906040850190845b8181101561154f5761153f83855161129f565b928401929184019160010161152c565b50909695505050505050565b600181811c9082168061156f57607f821691505b60208210810361158f57634e487b7160e01b600052602260045260246000fd5b50919050565b634e487b7160e01b600052604160045260246000fd5b634e487b7160e01b600052603260045260246000fd5b634e487b7160e01b600052601160045260246000fd5b6000600182016115e9576115e96115c1565b5060010190565b80820180821115610661576106616115c1565b60008261162057634e487b7160e01b600052601260045260246000fd5b500490565b8082028115828204841417610661576106616115c1565b81810381811115610661576106616115c1565b634e487b7160e01b600052603160045260246000fdfea26469706673582212208aedea8c987728209af1f138ec58f213b71b9beca22b45d3e2f754bc0da69d7a64736f6c63430008130033436f6d706c657465203130302b206d6963726f2d72656e74616c7320283c3120686f757229436f6d706c65746520612072656e74616c20696e20756e6465722031206d696e757465",
  "linkReferences": {},
  "deployedLinkReferences": {}
}