{
  "_format": "hh-sol-artifact-1",
  "contractName": "DynamicPricing",
  "sourceName": "contracts/DynamicPricing.sol",
  "abi": [
    {
      "inputs": [
        {
          "internalType": "address",
          "name": "_priceOracle",
          "type": "address"
        },
        {
          "internalType": "address",
          "name": "_reputationSystem",
          "type": "address"
        }
      ],
      "stateMutability": "nonpayable",
      "type": "constructor"
    },
    {
      "anonymous": false,
      "inputs": [
        {
          "indexed": true,
          "internalType": "address",
          "name": "nftContract",
          "type": "address"
        },
        {
          "indexed": false,
          "internalType": "uint256",
          "name": "floorPrice",
          "type": "uint256"
        },
        {
          "indexed": false,
          "internalType": "uint256",
          "name": "averagePrice",
          "type": "uint256"
        },
        {
          "indexed": false,
          "internalType": "uint256",
          "name": "lastSalePrice",
          "type": "uint256"
        }
      ],
      "name": "CollectionPricingUpdated",
      "type": "event"
    },
    {
      "anonymous": false,
      "inputs": [
        {
          "indexed": true,
          "internalType": "address",
          "name": "previousOwner",
          "type": "address"
        },
        {
          "indexed": true,
          "internalType": "address",
          "name": "newOwner",
          "type": "address"
        }
      ],
      "name": "OwnershipTransferred",
      "type": "event"
    },
    {
      "anonymous": false,
      "inputs": [
        {
          "indexed": true,
          "internalType": "address",
          "name": "nftContract",
          "type": "address"
        },
        {
          "indexed": true,
          "internalType": "uint256",
          "name": "tokenId",
          "type": "uint256"
        },
        {
          "indexed": false,
          "internalType": "uint256",
          "name": "newUtilizationRate",
          "type": "uint256"
        },
        {
          "indexed": false,
          "internalType": "uint256",
          "name": "newPrice",
          "type": "uint256"
        }
      ],
      "name": "PricingDataUpdated",
      "type": "event"
    },
    {
      "anonymous": false,
      "inputs": [
        {
          "indexed": false,
          "internalType": "uint256",
          "name": "highDemandMultiplier",
          "type": "uint256"
        },
        {
          "indexed": false,
          "internalType": "uint256",
          "name": "lowDemandMultiplier",
          "type": "uint256"
        },
        {
          "indexed": false,
          "internalType": "uint256",
          "name": "maxMultiplier",
          "type": "uint256"
        },
        {
          "indexed": false,
          "internalType": "uint256",
          "name": "minMultiplier",
          "type": "uint256"
        }
      ],
      "name": "PricingParametersUpdated",
      "type": "event"
    },
    {
      "inputs": [],
      "name": "BASIS_POINTS",
      "outputs": [
        {
          "internalType": "uint256",
          "name": "",
          "type": "uint256"
        }
      ],
      "stateMutability": "view",
      "type": "function"
    },
    {
      "inputs": [],
      "name": "HIGH_UTILIZATION_THRESHOLD",
      "outputs": [
        {
          "internalType": "uint256",
          "name": "",
          "type": "uint256"
        }
      ],
      "stateMutability": "view",
      "type": "function"
    },
    {
      "inputs": [],
      "name": "LOW_UTILIZATION_THRESHOLD",
      "outputs": [
        {
          "internalType": "uint256",
          "name": "",
          "type": "uint256"
        }
      ],
      "stateMutability": "view",
      "type": "function"
    },
    {
      "inputs": [],
      "name": "ORACLE_DIVISOR",
      "outputs": [
        {
          "internalType": "uint256",
          "name": "",
          "type": "uint256"
        }
      ],
      "stateMutability": "view",
      "type": "function"
    },
    {
      "inputs": [],
      "name": "ROLLING_WINDOW",
      "outputs": [
        {
          "internalType": "uint256",
          "name": "",
          "type": "uint256"
        }
      ],
      "stateMutability": "view",
      "type": "function"
    },
    {
      "inputs": [
        {
          "internalType": "address",
          "name": "contractAddr",
          "type": "address"
        }
      ],
      "name": "addAuthorizedContract",
      "outputs": [],
      "stateMutability": "nonpayable",
      "type": "function"
    },
    {
      "inputs": [
        {
          "internalType": "address",
          "name": "",
          "type": "address"
        }
      ],
      "name": "authorizedContracts",
      "outputs": [
        {
          "internalType": "bool",
          "name": "",
          "type": "bool"
        }
      ],
      "stateMutability": "view",
      "type": "function"
    },
    {
      "inputs": [
        {
          "internalType": "address",
          "name": "",
          "type": "address"
        }
      ],
      "name": "collectionPricing",
      "outputs": [
        {
          "internalType": "uint256",
          "name": "floorPrice",
          "type": "uint256"
        },
        {
          "internalType": "uint256",
          "name": "averagePrice",
          "type": "uint256"
        },
        {
          "internalType": "uint256",
          "name": "lastSalePrice",
          "type": "uint256"
        },
        {
          "internalType": "uint256",
          "name": "rarityScore",
          "type": "uint256"
        },
        {
          "internalType": "uint256",
          "name": "lastUpdate",
          "type": "uint256"
        }
      ],
      "stateMutability": "view",
      "type": "function"
    },
    {
      "inputs": [
        {
          "internalType": "address",
          "name": "nftContract",
          "type": "address"
        }
      ],
      "name": "getCollectionPricing",
      "outputs": [
        {
          "components": [
            {
              "internalType": "uint256",
              "name": "floorPrice",
              "type": "uint256"
            },
            {
              "internalType": "uint256",
              "name": "averagePrice",
              "type": "uint256"
            },
            {
              "internalType": "uint256",
              "name": "lastSalePrice",
              "type": "uint256"
            },
            {
              "internalType": "uint256",
              "name": "rarityScore",
              "type": "uint256"
            },
            {
              "internalType": "uint256",
              "name": "lastUpdate",
              "type": "uint256"
            }
          ],
          "internalType": "struct DynamicPricing.CollectionPricing",
          "name": "",
          "type": "tuple"
        }
      ],
      "stateMutability": "view",
      "type": "function"
    },
    {
      "inputs": [
        {
          "internalType": "address",
          "name": "nftContract",
          "type": "address"
        },
        {
          "internalType": "uint256",
          "name": "tokenId",
          "type": "uint256"
        },
        {
          "internalType": "uint256",
          "name": "basePrice",
          "type": "uint256"
        },
        {
          "internalType": "address",
          "name": "user",
          "type": "address"
        }
      ],
      "name": "getComprehensivePricing",
      "outputs": [
        {
          "internalType": "uint256",
          "name": "dynamicPrice",
          "type": "uint256"
        },
        {
          "internalType": "uint256",
          "name": "utilizationRate",
          "type": "uint256"
        },
        {
          "internalType": "uint256",
          "name": "utilizationMultiplier",
          "type": "uint256"
        },
        {
          "internalType": "uint256",
          "name": "oraclePrice",
          "type": "uint256"
        },
        {
          "internalType": "uint256",
          "name": "reputationDiscount",
          "type": "uint256"
        },
        {
          "internalType": "uint256",
          "name": "finalPrice",
          "type": "uint256"
        }
      ],
      "stateMutability": "view",
      "type": "function"
    },
    {
      "inputs": [
        {
          "internalType": "address",
          "name": "nftContract",
          "type": "address"
        },
        {
          "internalType": "uint256",
          "name": "tokenId",
          "type": "uint256"
        },
        {
          "internalType": "uint256",
          "name": "basePrice",
          "type": "uint256"
        },
        {
          "internalType": "address",
          "name": "user",
          "type": "address"
        }
      ],
      "name": "getDynamicPrice",
      "outputs": [
        {
          "internalType": "uint256",
          "name": "",
          "type": "uint256"
        }
      ],
      "stateMutability": "view",
      "type": "function"
    },
    {
      "inputs": [
        {
          "internalType": "address",
          "name": "nftContract",
          "type": "address"
        },
        {
          "internalType": "uint256",
          "name": "tokenId",
          "type": "uint256"
        }
      ],
      "name": "getPricingData",
      "outputs": [
        {
          "components": [
            {
              "internalType": "uint256",
              "name": "basePrice",
              "type": "uint256"
            },
            {
              "internalType": "uint256",
              "name": "utilizationRate",
              "type": "uint256"
            },
            {
              "internalType": "uint256",
              "name": "lastUpdate",
              "type": "uint256"
            },
            {
              "internalType": "uint256",
              "name": "rentalCount",
              "type": "uint256"
            },
            {
              "internalType": "uint256",
              "name": "totalRentalTime",
              "type": "uint256"
            },
            {
              "internalType": "uint256",
              "name": "rollingWindowStart",
              "type": "uint256"
            }
          ],
          "internalType": "struct DynamicPricing.PricingData",
          "name": "",
          "type": "tuple"
        }
      ],
      "stateMutability": "view",
      "type": "function"
    },
    {
      "inputs": [
        {
          "internalType": "address",
          "name": "nftContract",
          "type": "address"
        },
        {
          "internalType": "uint256",
          "name": "",
          "type": "uint256"
        }
      ],
      "name": "getSuggestedPrice",
      "outputs": [
        {
          "internalType": "uint256",
          "name": "",
          "type": "uint256"
        }
      ],
      "stateMutability": "view",
      "type": "function"
    },
    {
      "inputs": [
        {
          "internalType": "address",
          "name": "nftContract",
          "type": "address"
        },
        {
          "internalType": "uint256",
          "name": "tokenId",
          "type": "uint256"
        }
      ],
      "name": "getUtilizationRate",
      "outputs": [
        {
          "internalType": "uint256",
          "name": "",
          "type": "uint256"
        }
      ],
      "stateMutability": "view",
      "type": "function"
    },
    {
      "inputs": [
        {
          "internalType": "address",
          "name": "nftContract",
          "type": "address"
        },
        {
          "internalType": "uint256",
          "name": "tokenId",
          "type": "uint256"
        }
      ],
      "name": "hasHighUtilityDemand",
      "outputs": [
        {
          "internalType": "bool",
          "name": "",
          "type": "bool"
        }
      ],
      "stateMutability": "view",
      "type": "function"
    },
    {
      "inputs": [],
      "name": "highDemandMultiplier",
      "outputs": [
        {
          "internalType": "uint256",
          "name": "",
          "type": "uint256"
        }
      ],
      "stateMutability": "view",
      "type": "function"
    },
    {
      "inputs": [],
      "name": "highReputationDiscount",
      "outputs": [
        {
          "internalType": "uint256",
          "name": "",
          "type": "uint256"
        }
      ],
      "stateMutability": "view",
      "type": "function"
    },
    {
      "inputs": [],
      "name": "lowDemandMultiplier",
      "outputs": [
        {
          "internalType": "uint256",
          "name": "",
          "type": "uint256"
        }
      ],
      "stateMutability": "view",
      "type": "function"
    },
    {
      "inputs": [],
      "name": "lowReputationDiscount",
      "outputs": [
        {
          "internalType": "uint256",
          "name": "",
          "type": "uint256"
        }
      ],
      "stateMutability": "view",
      "type": "function"
    },
    {
      "inputs": [],
      "name": "maxMultiplier",
      "outputs": [
        {
          "internalType": "uint256",
          "name": "",
          "type": "uint256"
        }
      ],
      "stateMutability": "view",
      "type": "function"
    },
    {
      "inputs": [],
      "name": "midReputationDiscount",
      "outputs": [
        {
          "internalType": "uint256",
          "name": "",
          "type": "uint256"
        }
      ],
      "stateMutability": "view",
      "type": "function"
    },
    {
      "inputs": [],
      "name": "minMultiplier",
      "outputs": [
        {
          "internalType": "uint256",
          "name": "",
          "type": "uint256"
        }
      ],
      "stateMutability": "view",
      "type": "function"
    },
    {
      "inputs": [
        {
          "internalType": "address",
          "name": "",
          "type": "address"
        },
        {
          "internalType": "uint256",
          "name": "",
          "type": "uint256"
        }
      ],
      "name": "nftPricingData",
      "outputs": [
        {
          "internalType": "uint256",
          "name": "basePrice",
          "type": "uint256"
        },
        {
          "internalType": "uint256",
          "name": "utilizationRate",
          "type": "uint256"
        },
        {
          "internalType": "uint256",
          "name": "lastUpdate",
          "type": "uint256"
        },
        {
          "internalType": "uint256",
          "name": "rentalCount",
          "type": "uint256"
        },
        {
          "internalType": "uint256",
          "name": "totalRentalTime",
          "type": "uint256"
        },
        {
          "internalType": "uint256",
          "name": "rollingWindowStart",
          "type": "uint256"
        }
      ],
      "stateMutability": "view",
      "type": "function"
    },
    {
      "inputs": [],
      "name": "oraclePriceMultiplier",
      "outputs": [
        {
          "internalType": "uint256",
          "name": "",
          "type": "uint256"
        }
      ],
      "stateMutability": "view",
      "type": "function"
    },
    {
      "inputs": [],
      "name": "owner",
      "outputs": [
        {
          "internalType": "address",
          "name": "",
          "type": "address"
        }
      ],
      "stateMutability": "view",
      "type": "function"
    },
    {
      "inputs": [],
      "name": "priceOracle",
      "outputs": [
        {
          "internalType": "contract IPriceOracle",
          "name": "",
          "type": "address"
        }
      ],
      "stateMutability": "view",
      "type": "function"
    },
    {
      "inputs": [
        {
          "internalType": "address",
          "name": "contractAddr",
          "type": "address"
        }
      ],
      "name": "removeAuthorizedContract",
      "outputs": [],
      "stateMutability": "nonpayable",
      "type": "function"
    },
    {
      "inputs": [],
      "name": "renounceOwnership",
      "outputs": [],
      "stateMutability": "nonpayable",
      "type": "function"
    },
    {
      "inputs": [],
      "name": "reputationSystem",
      "outputs": [
        {
          "internalType": "contract ReputationSystem",
          "name": "",
          "type": "address"
        }
      ],
      "stateMutability": "view",
      "type": "function"
    },
    {
      "inputs": [
        {
          "internalType": "address",
          "name": "newOwner",
          "type": "address"
        }
      ],
      "name": "transferOwnership",
      "outputs": [],
      "stateMutability": "nonpayable",
      "type": "function"
    },
    {
      "inputs": [
        {
          "internalType": "address",
          "name": "nftContract",
          "type": "address"
        }
      ],
      "name": "updateCollectionPricing",
      "outputs": [],
      "stateMutability": "nonpayable",
      "type": "function"
    },
    {
      "inputs": [
        {
          "internalType": "uint256",
          "name": "_multiplier",
          "type": "uint256"
        }
      ],
      "name": "updateOraclePriceMultiplier",
      "outputs": [],
      "stateMutability": "nonpayable",
      "type": "function"
    },
    {
      "inputs": [
        {
          "internalType": "address",
          "name": "_priceOracle",
          "type": "address"
        }
      ],
      "name": "updatePriceOracle",
      "outputs": [],
      "stateMutability": "nonpayable",
      "type": "function"
    },
    {
      "inputs": [
        {
          "internalType": "address",
          "name": "nftContract",
          "type": "address"
        },
        {
          "internalType": "uint256",
          "name": "tokenId",
          "type": "uint256"
        },
        {
          "internalType": "uint256",
          "name": "rentalDuration",
          "type": "uint256"
        },
        {
          "internalType": "uint256",
          "name": "pricePerSecond",
          "type": "uint256"
        }
      ],
      "name": "updatePricingData",
      "outputs": [],
      "stateMutability": "nonpayable",
      "type": "function"
    },
    {
      "inputs": [
        {
          "internalType": "uint256",
          "name": "_highDemandMultiplier",
          "type": "uint256"
        },
        {
          "internalType": "uint256",
          "name": "_lowDemandMultiplier",
          "type": "uint256"
        },
        {
          "internalType": "uint256",
          "name": "_maxMultiplier",
          "type": "uint256"
        },
        {
          "internalType": "uint256",
          "name": "_minMultiplier",
          "type": "uint256"
        }
      ],
      "name": "updatePricingParameters",
      "outputs": [],
      "stateMutability": "nonpayable",
      "type": "function"
    },
    {
      "inputs": [
        {
          "internalType": "uint256",
          "name": "_highReputationDiscount",
          "type": "uint256"
        },
        {
          "internalType": "uint256",
          "name": "_midReputationDiscount",
          "type": "uint256"
        },
        {
          "internalType": "uint256",
          "name": "_lowReputationDiscount",
          "type": "uint256"
        }
      ],
      "name": "updateReputationDiscounts",
      "outputs": [],
      "stateMutability": "nonpayable",
      "type": "function"
    },
    {
      "inputs": [
        {
          "internalType": "address",
          "name": "_reputationSystem",
          "type": "address"
        }
      ],
      "name": "updateReputationSystem",
      "outputs": [],
      "stateMutability": "nonpayable",
      "type": "function"
    }
  ],
  "bytecode": "0x6080604052613a98600755611d4c600855614e20600955611388600a556101f4600b5560fa600c556064600d55600b600e553480156200003e57600080fd5b506040516200182a3803806200182a83398101604081905262000061916200010f565b6200006c33620000a2565b60018055600580546001600160a01b039384166001600160a01b0319918216179091556006805492909316911617905562000147565b600080546001600160a01b038381166001600160a01b0319831681178455604051919092169283917f8be0079c531659141344cd1fd0a4f28419497f9722a3daafe3b4186f6b6457e09190a35050565b80516001600160a01b03811681146200010a57600080fd5b919050565b600080604083850312156200012357600080fd5b6200012e83620000f2565b91506200013e60208401620000f2565b90509250929050565b6116d380620001576000396000f3fe608060405234801561001057600080fd5b50600436106102275760003560e01c806366255cda11610130578063a24e0d87116100b8578063e38d7cd61161007c578063e38d7cd6146105cd578063e6b165ed1461060b578063ec2f37bd1461061e578063ed350a5514610627578063f2fde38b1461063257600080fd5b8063a24e0d871461056c578063b6254a9f14610575578063baf5a2361461057e578063d5b9221b14610591578063e1f1c4a7146105c457600080fd5b806388eabf8d116100ff57806388eabf8d146104b95780638da5cb5b146104c2578063965dbc9b146104d357806398eaa4a714610520578063a1b7c8bd1461053357600080fd5b806366255cda14610482578063715018a6146104955780637cfdd9371461049d578063889ccfcf146104a657600080fd5b80633e678bf2116101b35780635b0a8fad116101825780635b0a8fad146104365780635fa84c5a14610440578063629433e614610449578063653f6a991461045c5780636587eda11461046f57600080fd5b80633e678bf2146103b257806340b482a6146103c5578063469ef8a1146103ce5780634e26df031461042d57600080fd5b806320854c6b116101fa57806320854c6b146103035780632630c12f146103165780632821d34c14610341578063318f262a1461034a57806339d1fc821461039f57600080fd5b80630187aea01461022c5780630cf501631461024857806319813ea41461025d5780631b32145c1461029d575b600080fd5b61023560095481565b6040519081526020015b60405180910390f35b61025b610256366004611474565b610645565b005b61027061026b3660046114a9565b6106a7565b604080519687526020870195909552938501929092526060840152608083015260a082015260c00161023f565b6102db6102ab3660046114ef565b60036020819052600091825260409091208054600182015460028301549383015460049093015491939092909185565b604080519586526020860194909452928401919091526060830152608082015260a00161023f565b61025b61031136600461150a565b610822565b600554610329906001600160a01b031681565b6040516001600160a01b03909116815260200161023f565b610235600c5481565b61035d6103583660046114ef565b6109b3565b60405161023f9190600060a082019050825182526020830151602083015260408301516040830152606083015160608301526080830151608083015292915050565b61025b6103ad3660046114ef565b610a3c565b6102356103c0366004611543565b610ab5565b61023560075481565b6103e16103dc366004611543565b610acb565b60405161023f9190600060c082019050825182526020830151602083015260408301516040830152606083015160608301526080830151608083015260a083015160a083015292915050565b610235600e5481565b61023562093a8081565b610235600d5481565b61025b61045736600461156d565b610b6f565b61025b61046a36600461159f565b610c79565b600654610329906001600160a01b031681565b61025b6104903660046114ef565b610cf5565b61025b610d1f565b610235611f4081565b61025b6104b43660046114ef565b610d33565b61023560085481565b6000546001600160a01b0316610329565b6102706104e1366004611543565b60026020818152600093845260408085209091529183529120805460018201549282015460038301546004840154600590940154929493919290919086565b61025b61052e3660046114ef565b610f86565b610235610541366004611543565b6001600160a01b03919091166000908152600260209081526040808320938352929052206001015490565b610235600a5481565b610235600b5481565b61023561058c3660046114a9565b610fb2565b6105b461059f3660046114ef565b60046020526000908152604090205460ff1681565b604051901515815260200161023f565b61023561271081565b6105b46105db366004611543565b6001600160a01b039190911660009081526002602090815260408083209383529290522060010154611f40111590565b61025b6106193660046114ef565b6110c1565b6102356107d081565b610235633b9aca0081565b61025b6106403660046114ef565b6110ea565b61064d611160565b600081116106a25760405162461bcd60e51b815260206004820152601b60248201527f4d756c7469706c696572206d75737420626520706f736974697665000000000060448201526064015b60405180910390fd5b600e55565b6001600160a01b03841660009081526002602081815260408084208785528252808420815160c081018352815481526001820154938101849052938101549184019190915260038101546060840152600481015460808401526005015460a083015290829081908190819061071c8b8b6111ba565b94506107288b8b6112ae565b93506107338861135c565b9250612710610742868b6115e1565b61074c91906115f8565b965083156107865761271061076385610bb86115e1565b61076f89611b586115e1565b610779919061161a565b61078391906115f8565b96505b82156107b057612710610799848261162d565b6107a390896115e1565b6107ad91906115f8565b96505b6000612710600a548b6107c391906115e1565b6107cd91906115f8565b905060006127106009548c6107e291906115e1565b6107ec91906115f8565b9050818910156107fe57819350610812565b8089111561080e57809350610812565b8893505b5050509499939850945094509450565b3360009081526004602052604090205460ff168061084a57506000546001600160a01b031633145b6108875760405162461bcd60e51b815260206004820152600e60248201526d139bdd08185d5d1a1bdc9a5e995960921b6044820152606401610699565b6001600160a01b03841660009081526002602090815260408083208684529091529020600581015462093a80906108be904261162d565b11156108e5576108d162093a804261162d565b600582015560006003820181905560048201555b6003810180549060006108f783611640565b919050555082816004016000828254610910919061161a565b90915550504260028201819055600582015460009161092f919061162d565b9050801561095a5780612710836004015461094a91906115e1565b61095491906115f8565b60018301555b84866001600160a01b03167ff3d963898720bf292f7c54f617aa2c4e570cf4d3a5209174b7ce9d98ca0f35918460010154866040516109a3929190918252602082015260400190565b60405180910390a3505050505050565b6109e56040518060a0016040528060008152602001600081526020016000815260200160008152602001600081525090565b506001600160a01b0316600090815260036020818152604092839020835160a08101855281548152600182015492810192909252600281015493820193909352908201546060820152600490910154608082015290565b610a44611160565b6001600160a01b038116610a935760405162461bcd60e51b8152602060048201526016602482015275496e76616c6964206f7261636c65206164647265737360501b6044820152606401610699565b600580546001600160a01b0319166001600160a01b0392909216919091179055565b6000610ac28360006112ae565b90505b92915050565b610b046040518060c001604052806000815260200160008152602001600081526020016000815260200160008152602001600081525090565b506001600160a01b0382166000908152600260208181526040808420858552825292839020835160c08101855281548152600182015492810192909252918201549281019290925260038101546060830152600481015460808301526005015460a082015292915050565b610b77611160565b80821015610bc75760405162461bcd60e51b815260206004820152601860248201527f496e76616c6964206d756c7469706c6965722072616e676500000000000000006044820152606401610699565b82841015610c175760405162461bcd60e51b815260206004820152601f60248201527f496e76616c69642064656d616e64206d756c7469706c6965722072616e6765006044820152606401610699565b600784905560088390556009829055600a8190556040805185815260208101859052908101839052606081018290527fcadce1a9ee9a17464907a61e783e74619f249708fba10b3df5688210d98631a49060800160405180910390a150505050565b610c81611160565b6103e8831115610ca35760405162461bcd60e51b815260040161069990611659565b6103e8821115610cc55760405162461bcd60e51b815260040161069990611659565b6103e8811115610ce75760405162461bcd60e51b815260040161069990611659565b600b92909255600c55600d55565b610cfd611160565b600680546001600160a01b0319166001600160a01b0392909216919091179055565b610d27611160565b610d316000611424565b565b3360009081526004602052604090205460ff1680610d5b57506000546001600160a01b031633145b610d985760405162461bcd60e51b815260206004820152600e60248201526d139bdd08185d5d1a1bdc9a5e995960921b6044820152606401610699565b6005546040516330f8853f60e21b81526001600160a01b0383811660048301529091169063c3e214fc90602401602060405180830381865afa925050508015610dfe575060408051601f3d908101601f19168201909252610dfb91810190611684565b60015b15610f835760055460405163b2a09dbf60e01b81526001600160a01b0384811660048301529091169063b2a09dbf90602401602060405180830381865afa925050508015610e69575060408051601f3d908101601f19168201909252610e6691810190611684565b60015b15610f8157600554604051631db593e560e01b81526001600160a01b03858116600483015290911690631db593e590602401602060405180830381865afa925050508015610ed4575060408051601f3d908101601f19168201909252610ed191810190611684565b60015b15610f7f576040805160a08101825284815260208082018581528284018581526000606080860182815242608088019081526001600160a01b038d168085526003808952948a90209851895595516001890155935160028801555191860191909155905160049094019390935583518781529182018690529281018490527ff1cc68d0c268aff9282382a029053500ca8d7269d038d5afda2d175bd5cdf892910160405180910390a2505b505b505b50565b610f8e611160565b6001600160a01b03166000908152600460205260409020805460ff19166001179055565b60008281610fc087876111ba565b9050612710610fcf82846115e1565b610fd991906115f8565b91506000610fe788886112ae565b9050801561102157612710610ffe82610bb86115e1565b61100a85611b586115e1565b611014919061161a565b61101e91906115f8565b92505b600061102c8661135c565b9050801561105857612710611041828261162d565b61104b90866115e1565b61105591906115f8565b93505b6000612710600a548961106b91906115e1565b61107591906115f8565b905060006127106009548a61108a91906115e1565b61109491906115f8565b9050818610156110a6578195506110b2565b808611156110b2578095505b50939998505050505050505050565b6110c9611160565b6001600160a01b03166000908152600460205260409020805460ff19169055565b6110f2611160565b6001600160a01b0381166111575760405162461bcd60e51b815260206004820152602660248201527f4f776e61626c653a206e6577206f776e657220697320746865207a65726f206160448201526564647265737360d01b6064820152608401610699565b610f8381611424565b6000546001600160a01b03163314610d315760405162461bcd60e51b815260206004820181905260248201527f4f776e61626c653a2063616c6c6572206973206e6f7420746865206f776e65726044820152606401610699565b6001600160a01b03821660009081526002602081815260408084208585528252808420815160c081018352815481526001820154938101849052938101549184019190915260038101546060840152600481015460808401526005015460a0830152611f401161122e575050600754610ac5565b6107d0816020015111611245575050600854610ac5565b60006112556107d0611f4061162d565b905060006107d0836020015161126b919061162d565b9050600060085460075461127f919061162d565b90508261128c83836115e1565b61129691906115f8565b6008546112a3919061161a565b945050505050610ac5565b6001600160a01b0382166000908152600360208181526040808420815160a0810183528154815260018201549381019390935260028101549183018290529283015460608301526004909201546080820152908290611311578160200151611317565b81604001515b90508060000361132c57600092505050610ac5565b61133c633b9aca00610e106115e1565b600e5461134990836115e1565b61135391906115f8565b95945050505050565b6006546000906001600160a01b031661137757506000919050565b600654604051631d699f5760e21b81526001600160a01b038481166004830152909116906375a67d5c90602401602060405180830381865afa9250505080156113dd575060408051601f3d908101601f191682019092526113da91810190611684565b60015b1561141c5761032081106113f5575050600b54919050565b6101f48110611408575050600c54919050565b6064811061141a575050600d54919050565b505b506000919050565b600080546001600160a01b038381166001600160a01b0319831681178455604051919092169283917f8be0079c531659141344cd1fd0a4f28419497f9722a3daafe3b4186f6b6457e09190a35050565b60006020828403121561148657600080fd5b5035919050565b80356001600160a01b03811681146114a457600080fd5b919050565b600080600080608085870312156114bf57600080fd5b6114c88561148d565b935060208501359250604085013591506114e46060860161148d565b905092959194509250565b60006020828403121561150157600080fd5b610ac28261148d565b6000806000806080858703121561152057600080fd5b6115298561148d565b966020860135965060408601359560600135945092505050565b6000806040838503121561155657600080fd5b61155f8361148d565b946020939093013593505050565b6000806000806080858703121561158357600080fd5b5050823594602084013594506040840135936060013592509050565b6000806000606084860312156115b457600080fd5b505081359360208301359350604090920135919050565b634e487b7160e01b600052601160045260246000fd5b8082028115828204841417610ac557610ac56115cb565b60008261161557634e487b7160e01b600052601260045260246000fd5b500490565b80820180821115610ac557610ac56115cb565b81810381811115610ac557610ac56115cb565b600060018201611652576116526115cb565b5060010190565b602080825260119082015270088d2e6c6deeadce840e8dede40d0d2ced607b1b604082015260600190565b60006020828403121561169657600080fd5b505191905056fea2646970667358221220a88c61a9b1271425acf041c3b34d620c257c5cb9e4e7941bf249f2e963dd1ccc64736f6c63430008130033",
  "linkReferences": {},
  "deployedLinkReferences": {}
}