{
  "_format": "hh-sol-artifact-1",
  "contractName": "NFTSocialFeatures",
  "sourceName": "contracts/NFTSocialFeatures.sol",
  "abi": [
    {
      "anonymous": false,
      "inputs": [
        {
          "indexed": true,
          "internalType": "address",
          "name": "previousOwner",
          "type": "address"
        },
        {
          "indexed": true,
          "internalType": "address",
          "name": "newOwner",
          "type": "address"
        }
      ],
      "name": "OwnershipTransferred",
      "type": "event"
    },
    {
      "anonymous": false,
      "inputs": [
        {
          "indexed": true,
          "internalType": "address",
          "name": "user",
          "type": "address"
        },
        {
          "indexed": false,
          "internalType": "string",
          "name": "username",
          "type": "string"
        },
        {
          "indexed": false,
          "internalType": "string",
          "name": "bio",
          "type": "string"
        },
        {
          "indexed": false,
          "internalType": "string",
          "name": "avatarUrl",
          "type": "string"
        }
      ],
      "name": "ProfileUpdated",
      "type": "event"
    },
    {
      "anonymous": false,
      "inputs": [
        {
          "indexed": true,
          "internalType": "address",
          "name": "reviewer",
          "type": "address"
        },
        {
          "indexed": true,
          "internalType": "address",
          "name": "nftContract",
          "type": "address"
        },
        {
          "indexed": true,
          "internalType": "uint256",
          "name": "tokenId",
          "type": "uint256"
        },
        {
          "indexed": false,
          "internalType": "uint8",
          "name": "rating",
          "type": "uint8"
        },
        {
          "indexed": false,
          "internalType": "string",
          "name": "comment",
          "type": "string"
        },
        {
          "indexed": false,
          "internalType": "bool",
          "name": "isVerified",
          "type": "bool"
        }
      ],
      "name": "ReviewSubmitted",
      "type": "event"
    },
    {
      "anonymous": false,
      "inputs": [
        {
          "indexed": true,
          "internalType": "address",
          "name": "follower",
          "type": "address"
        },
        {
          "indexed": true,
          "internalType": "address",
          "name": "following",
          "type": "address"
        },
        {
          "indexed": false,
          "internalType": "uint256",
          "name": "timestamp",
          "type": "uint256"
        }
      ],
      "name": "UserFollowed",
      "type": "event"
    },
    {
      "anonymous": false,
      "inputs": [
        {
          "indexed": true,
          "internalType": "address",
          "name": "user",
          "type": "address"
        },
        {
          "indexed": false,
          "internalType": "string",
          "name": "username",
          "type": "string"
        },
        {
          "indexed": false,
          "internalType": "uint256",
          "name": "timestamp",
          "type": "uint256"
        }
      ],
      "name": "UserRegistered",
      "type": "event"
    },
    {
      "anonymous": false,
      "inputs": [
        {
          "indexed": true,
          "internalType": "address",
          "name": "follower",
          "type": "address"
        },
        {
          "indexed": true,
          "internalType": "address",
          "name": "unfollowed",
          "type": "address"
        },
        {
          "indexed": false,
          "internalType": "uint256",
          "name": "timestamp",
          "type": "uint256"
        }
      ],
      "name": "UserUnfollowed",
      "type": "event"
    },
    {
      "inputs": [
        {
          "internalType": "address",
          "name": "userToFollow",
          "type": "address"
        }
      ],
      "name": "followUser",
      "outputs": [],
      "stateMutability": "nonpayable",
      "type": "function"
    },
    {
      "inputs": [
        {
          "internalType": "address",
          "name": "user",
          "type": "address"
        }
      ],
      "name": "getFollowers",
      "outputs": [
        {
          "internalType": "address[]",
          "name": "",
          "type": "address[]"
        }
      ],
      "stateMutability": "view",
      "type": "function"
    },
    {
      "inputs": [
        {
          "internalType": "address",
          "name": "user",
          "type": "address"
        }
      ],
      "name": "getFollowing",
      "outputs": [
        {
          "internalType": "address[]",
          "name": "",
          "type": "address[]"
        }
      ],
      "stateMutability": "view",
      "type": "function"
    },
    {
      "inputs": [
        {
          "internalType": "address",
          "name": "nftContract",
          "type": "address"
        },
        {
          "internalType": "uint256",
          "name": "tokenId",
          "type": "uint256"
        }
      ],
      "name": "getNFTRating",
      "outputs": [
        {
          "internalType": "uint256",
          "name": "totalRatings",
          "type": "uint256"
        },
        {
          "internalType": "uint256",
          "name": "averageRating",
          "type": "uint256"
        },
        {
          "internalType": "uint256",
          "name": "reviewCount",
          "type": "uint256"
        }
      ],
      "stateMutability": "view",
      "type": "function"
    },
    {
      "inputs": [
        {
          "internalType": "address",
          "name": "nftContract",
          "type": "address"
        },
        {
          "internalType": "uint256",
          "name": "tokenId",
          "type": "uint256"
        }
      ],
      "name": "getNFTReviews",
      "outputs": [
        {
          "components": [
            {
              "internalType": "address",
              "name": "reviewer",
              "type": "address"
            },
            {
              "internalType": "address",
              "name": "nftContract",
              "type": "address"
            },
            {
              "internalType": "uint256",
              "name": "tokenId",
              "type": "uint256"
            },
            {
              "internalType": "uint8",
              "name": "rating",
              "type": "uint8"
            },
            {
              "internalType": "string",
              "name": "comment",
              "type": "string"
            },
            {
              "internalType": "uint256",
              "name": "timestamp",
              "type": "uint256"
            },
            {
              "internalType": "bool",
              "name": "isVerified",
              "type": "bool"
            }
          ],
          "internalType": "struct NFTSocialFeatures.Review[]",
          "name": "",
          "type": "tuple[]"
        }
      ],
      "stateMutability": "view",
      "type": "function"
    },
    {
      "inputs": [
        {
          "internalType": "address",
          "name": "nftContract",
          "type": "address"
        },
        {
          "internalType": "uint256",
          "name": "tokenId",
          "type": "uint256"
        }
      ],
      "name": "getRatingDistribution",
      "outputs": [
        {
          "internalType": "uint256[5]",
          "name": "",
          "type": "uint256[5]"
        }
      ],
      "stateMutability": "view",
      "type": "function"
    },
    {
      "inputs": [
        {
          "internalType": "uint256",
          "name": "count",
          "type": "uint256"
        }
      ],
      "name": "getTopRatedNFTs",
      "outputs": [
        {
          "internalType": "address[]",
          "name": "contracts",
          "type": "address[]"
        },
        {
          "internalType": "uint256[]",
          "name": "tokenIds",
          "type": "uint256[]"
        },
        {
          "internalType": "uint256[]",
          "name": "ratings",
          "type": "uint256[]"
        }
      ],
      "stateMutability": "view",
      "type": "function"
    },
    {
      "inputs": [
        {
          "internalType": "address",
          "name": "user",
          "type": "address"
        }
      ],
      "name": "getUserFollows",
      "outputs": [
        {
          "internalType": "address[]",
          "name": "followers",
          "type": "address[]"
        },
        {
          "internalType": "address[]",
          "name": "following",
          "type": "address[]"
        },
        {
          "internalType": "uint256",
          "name": "followerCount",
          "type": "uint256"
        },
        {
          "internalType": "uint256",
          "name": "followingCount",
          "type": "uint256"
        }
      ],
      "stateMutability": "view",
      "type": "function"
    },
    {
      "inputs": [
        {
          "internalType": "address",
          "name": "user",
          "type": "address"
        }
      ],
      "name": "getUserProfile",
      "outputs": [
        {
          "components": [
            {
              "internalType": "string",
              "name": "username",
              "type": "string"
            },
            {
              "internalType": "string",
              "name": "bio",
              "type": "string"
            },
            {
              "internalType": "string",
              "name": "avatarUrl",
              "type": "string"
            },
            {
              "internalType": "uint256",
              "name": "joinDate",
              "type": "uint256"
            },
            {
              "internalType": "bool",
              "name": "isVerified",
              "type": "bool"
            },
            {
              "internalType": "uint256",
              "name": "totalReviews",
              "type": "uint256"
            },
            {
              "internalType": "uint256",
              "name": "averageRating",
              "type": "uint256"
            }
          ],
          "internalType": "struct NFTSocialFeatures.UserProfile",
          "name": "",
          "type": "tuple"
        }
      ],
      "stateMutability": "view",
      "type": "function"
    },
    {
      "inputs": [
        {
          "internalType": "address",
          "name": "follower",
          "type": "address"
        },
        {
          "internalType": "address",
          "name": "following",
          "type": "address"
        }
      ],
      "name": "isFollowing",
      "outputs": [
        {
          "internalType": "bool",
          "name": "",
          "type": "bool"
        }
      ],
      "stateMutability": "view",
      "type": "function"
    },
    {
      "inputs": [
        {
          "internalType": "bytes32",
          "name": "",
          "type": "bytes32"
        }
      ],
      "name": "nftRatings",
      "outputs": [
        {
          "internalType": "uint256",
          "name": "totalRatings",
          "type": "uint256"
        },
        {
          "internalType": "uint256",
          "name": "sumOfRatings",
          "type": "uint256"
        },
        {
          "internalType": "uint256",
          "name": "reviewCount",
          "type": "uint256"
        }
      ],
      "stateMutability": "view",
      "type": "function"
    },
    {
      "inputs": [
        {
          "internalType": "bytes32",
          "name": "",
          "type": "bytes32"
        },
        {
          "internalType": "uint256",
          "name": "",
          "type": "uint256"
        }
      ],
      "name": "nftReviews",
      "outputs": [
        {
          "internalType": "address",
          "name": "reviewer",
          "type": "address"
        },
        {
          "internalType": "address",
          "name": "nftContract",
          "type": "address"
        },
        {
          "internalType": "uint256",
          "name": "tokenId",
          "type": "uint256"
        },
        {
          "internalType": "uint8",
          "name": "rating",
          "type": "uint8"
        },
        {
          "internalType": "string",
          "name": "comment",
          "type": "string"
        },
        {
          "internalType": "uint256",
          "name": "timestamp",
          "type": "uint256"
        },
        {
          "internalType": "bool",
          "name": "isVerified",
          "type": "bool"
        }
      ],
      "stateMutability": "view",
      "type": "function"
    },
    {
      "inputs": [],
      "name": "owner",
      "outputs": [
        {
          "internalType": "address",
          "name": "",
          "type": "address"
        }
      ],
      "stateMutability": "view",
      "type": "function"
    },
    {
      "inputs": [
        {
          "internalType": "string",
          "name": "username",
          "type": "string"
        },
        {
          "internalType": "string",
          "name": "bio",
          "type": "string"
        },
        {
          "internalType": "string",
          "name": "avatarUrl",
          "type": "string"
        }
      ],
      "name": "registerUser",
      "outputs": [],
      "stateMutability": "nonpayable",
      "type": "function"
    },
    {
      "inputs": [
        {
          "internalType": "address",
          "name": "",
          "type": "address"
        }
      ],
      "name": "registeredUsers",
      "outputs": [
        {
          "internalType": "bool",
          "name": "",
          "type": "bool"
        }
      ],
      "stateMutability": "view",
      "type": "function"
    },
    {
      "inputs": [],
      "name": "renounceOwnership",
      "outputs": [],
      "stateMutability": "nonpayable",
      "type": "function"
    },
    {
      "inputs": [
        {
          "internalType": "address",
          "name": "nftContract",
          "type": "address"
        },
        {
          "internalType": "uint256",
          "name": "tokenId",
          "type": "uint256"
        },
        {
          "internalType": "uint8",
          "name": "rating",
          "type": "uint8"
        },
        {
          "internalType": "string",
          "name": "comment",
          "type": "string"
        },
        {
          "internalType": "bool",
          "name": "isVerified",
          "type": "bool"
        }
      ],
      "name": "submitReview",
      "outputs": [],
      "stateMutability": "nonpayable",
      "type": "function"
    },
    {
      "inputs": [],
      "name": "totalReviews",
      "outputs": [
        {
          "internalType": "uint256",
          "name": "",
          "type": "uint256"
        }
      ],
      "stateMutability": "view",
      "type": "function"
    },
    {
      "inputs": [],
      "name": "totalUsers",
      "outputs": [
        {
          "internalType": "uint256",
          "name": "",
          "type": "uint256"
        }
      ],
      "stateMutability": "view",
      "type": "function"
    },
    {
      "inputs": [
        {
          "internalType": "address",
          "name": "newOwner",
          "type": "address"
        }
      ],
      "name": "transferOwnership",
      "outputs": [],
      "stateMutability": "nonpayable",
      "type": "function"
    },
    {
      "inputs": [
        {
          "internalType": "address",
          "name": "userToUnfollow",
          "type": "address"
        }
      ],
      "name": "unfollowUser",
      "outputs": [],
      "stateMutability": "nonpayable",
      "type": "function"
    },
    {
      "inputs": [
        {
          "internalType": "string",
          "name": "username",
          "type": "string"
        },
        {
          "internalType": "string",
          "name": "bio",
          "type": "string"
        },
        {
          "internalType": "string",
          "name": "avatarUrl",
          "type": "string"
        }
      ],
      "name": "updateProfile",
      "outputs": [],
      "stateMutability": "nonpayable",
      "type": "function"
    },
    {
      "inputs": [
        {
          "internalType": "address",
          "name": "",
          "type": "address"
        }
      ],
      "name": "userProfiles",
      "outputs": [
        {
          "internalType": "string",
          "name": "username",
          "type": "string"
        },
        {
          "internalType": "string",
          "name": "bio",
          "type": "string"
        },
        {
          "internalType": "string",
          "name": "avatarUrl",
          "type": "string"
        },
        {
          "internalType": "uint256",
          "name": "joinDate",
          "type": "uint256"
        },
        {
          "internalType": "bool",
          "name": "isVerified",
          "type": "bool"
        },
        {
          "internalType": "uint256",
          "name": "totalReviews",
          "type": "uint256"
        },
        {
          "internalType": "uint256",
          "name": "averageRating",
          "type": "uint256"
        }
      ],
      "stateMutability": "view",
      "type": "function"
    },
    {
      "inputs": [
        {
          "internalType": "string",
          "name": "",
          "type": "string"
        }
      ],
      "name": "usernamesTaken",
      "outputs": [
        {
          "internalType": "bool",
          "name": "",
          "type": "bool"
        }
      ],
      "stateMutability": "view",
      "type": "function"
    },
    {
      "inputs": [
        {
          "internalType": "address",
          "name": "user",
          "type": "address"
        }
      ],
      "name": "verifyUser",
      "outputs": [],
      "stateMutability": "nonpayable",
      "type": "function"
    }
  ],
  "bytecode": "0x608060405234801561001057600080fd5b5061001a33610023565b60018055610073565b600080546001600160a01b038381166001600160a01b0319831681178455604051919092169283917f8be0079c531659141344cd1fd0a4f28419497f9722a3daafe3b4186f6b6457e09190a35050565b612976806100826000396000f3fe608060405234801561001057600080fd5b50600436106101735760003560e01c80638da5cb5b116100de578063bff1f9e111610097578063d8236dff11610071578063d8236dff14610444578063e236789014610457578063f107cfcb14610460578063f2fde38b1461047357600080fd5b8063bff1f9e1146103fa578063c2fe202214610411578063d637dcfa1461043157600080fd5b80638da5cb5b1461031e578063987ee1561461033957806399ec3a4214610359578063a70806f714610395578063a7e7092d146103a8578063b9b6d731146103e757600080fd5b80634aac68b1116101305780634aac68b1146102635780634d81312014610276578063529a33dc146102895780635d71a8bf146102a9578063666634e5146102cc578063715018a61461031657600080fd5b806309037e1f146101785780630e50cee5146101a15780630e74c095146101d45780631105a5eb146101fa5780631b0d9ecf1461020f578063332d56d71461023d575b600080fd5b61018b610186366004611e5c565b610486565b6040516101989190611e86565b60405180910390f35b6101c46101af366004611eb7565b60066020526000908152604090205460ff1681565b6040519015158152602001610198565b6101e76101e2366004611ed9565b610524565b6040516101989796959493929190611f41565b61020d610208366004611fe1565b610620565b005b6101c461021d366004612091565b805160208183018101805160078252928201919093012091525460ff1681565b61025061024b366004611eb7565b610846565b6040516101989796959493929190612142565b61020d6102713660046121a2565b610a1d565b61020d610284366004611eb7565b610e18565b61029c610297366004611e5c565b610e7f565b6040516101989190612230565b6102bc6102b7366004611eb7565b610ffd565b604051610198949392919061233d565b6102fb6102da366004612376565b60046020526000908152604090208054600182015460029092015490919083565b60408051938452602084019290925290820152606001610198565b61020d6110f0565b6000546040516001600160a01b039091168152602001610198565b61034c610347366004611eb7565b611104565b604051610198919061238f565b6101c461036736600461241f565b6001600160a01b03918216600090815260056020908152604080832093909416825291909152205460ff1690565b61020d6103a3366004611eb7565b611352565b6103d86103b6366004612376565b5060408051600080825260208201818152828401918252606083019093529092565b60405161019893929190612482565b6102fb6103f5366004611e5c565b61152c565b61040360085481565b604051908152602001610198565b61042461041f366004611eb7565b6115a6565b60405161019891906124c5565b61020d61043f366004611fe1565b61161f565b610424610452366004611eb7565b61193f565b61040360095481565b61020d61046e366004611eb7565b6119b6565b61020d610481366004611eb7565b611cff565b61048e611e22565b600083836040516020016104a39291906124d8565b60408051601f1981840301815282825280516020918201206000908152600480835283822060a086018552600183526003908101808552858420548752600284528085528584205487860152908352808452848320548686015290825280835283822054606086015260058252909152205460808201529150505b92915050565b6003602052816000526040600020818154811061054057600080fd5b6000918252602090912060079091020180546001820154600283015460038401546004850180546001600160a01b039586169850939094169550909360ff90911692909161058d906124fa565b80601f01602080910402602001604051908101604052809291908181526020018280546105b9906124fa565b80156106065780601f106105db57610100808354040283529160200191610606565b820191906000526020600020905b8154815290600101906020018083116105e957829003601f168201915b50505050600583015460069093015491929160ff16905087565b3360009081526006602052604090205460ff166106585760405162461bcd60e51b815260040161064f90612534565b60405180910390fd5b336000908152600260205260409081902090516106789088908890612561565b6040519081900381209061068d9083906125e4565b6040518091039020146107d257600787876040516106ac929190612561565b9081526040519081900360200190205460ff16156107055760405162461bcd60e51b81526020600482015260166024820152752ab9b2b93730b6b29030b63932b0b23c903a30b5b2b760511b604482015260640161064f565b8515801590610715575060208611155b61075b5760405162461bcd60e51b8152602060048201526017602482015276092dcecc2d8d2c840eae6cae4dcc2daca40d8cadccee8d604b1b604482015260640161064f565b600060078260000160405161077091906125e4565b908152604051908190036020018120805492151560ff19909316929092179091556001906007906107a4908a908a90612561565b908152604051908190036020019020805491151560ff19909216919091179055806107d087898361263f565b505b600181016107e185878361263f565b50600281016107f183858361263f565b50336001600160a01b03167f6420daf1b58438e85465ef21dee378d307a509caab491149e3f066c5caf1266d88888888888860405161083596959493929190612729565b60405180910390a250505050505050565b600260205260009081526040902080548190610861906124fa565b80601f016020809104026020016040519081016040528092919081815260200182805461088d906124fa565b80156108da5780601f106108af576101008083540402835291602001916108da565b820191906000526020600020905b8154815290600101906020018083116108bd57829003601f168201915b5050505050908060010180546108ef906124fa565b80601f016020809104026020016040519081016040528092919081815260200182805461091b906124fa565b80156109685780601f1061093d57610100808354040283529160200191610968565b820191906000526020600020905b81548152906001019060200180831161094b57829003601f168201915b50505050509080600201805461097d906124fa565b80601f01602080910402602001604051908101604052809291908181526020018280546109a9906124fa565b80156109f65780601f106109cb576101008083540402835291602001916109f6565b820191906000526020600020905b8154815290600101906020018083116109d957829003601f168201915b505050506003830154600484015460058501546006909501549394919360ff909116925087565b3360009081526006602052604090205460ff16610a4c5760405162461bcd60e51b815260040161064f90612534565b8360018160ff1610158015610a65575060058160ff1611155b610aa65760405162461bcd60e51b8152602060048201526012602482015271526174696e67206d75737420626520312d3560701b604482015260640161064f565b6101f4831115610aeb5760405162461bcd60e51b815260206004820152601060248201526f436f6d6d656e7420746f6f206c6f6e6760801b604482015260640161064f565b60008787604051602001610b009291906124d8565b60408051601f19818403018152918152815160209283012060008181526003909352908220909250905b8154811015610bc857336001600160a01b0316828281548110610b4f57610b4f612772565b60009182526020909120600790910201546001600160a01b031603610bb65760405162461bcd60e51b815260206004820152601960248201527f416c72656164792072657669657765642074686973204e465400000000000000604482015260640161064f565b80610bc08161279e565b915050610b2a565b5060006040518060e00160405280336001600160a01b031681526020018b6001600160a01b031681526020018a81526020018960ff16815260200188888080601f016020809104026020016040519081016040528093929190818152602001838380828437600092018290525093855250504260208085019190915289151560409485015286546001808201895588855293829020865160079092020180546001600160a01b03199081166001600160a01b039384161782559287015194810180549093169490911693909317905550908201516002820155606082015160038201805460ff191660ff909216919091179055608082015191925082916004820190610cd490826127b7565b5060a0820151600582015560c0909101516006909101805460ff19169115159190911790556000838152600460205260408120805490918290610d168361279e565b91905055508860ff16816001016000828254610d329190612877565b9091555050600281018054906000610d498361279e565b909155505060ff891660009081526003820160205260408120805491610d6e8361279e565b90915550503360009081526002602052604081206005810180549192610d938361279e565b909155505060006006820181905560098054829182610db18361279e565b91905055508c8e6001600160a01b0316336001600160a01b03167f40a090c16051b4e69dae81fc296fd38324c24d1a7448c42b0682b6f2c7bae4e88f8f8f8f604051610e00949392919061288a565b60405180910390a45050505050505050505050505050565b610e20611d78565b6001600160a01b03811660009081526006602052604090205460ff16610e585760405162461bcd60e51b815260040161064f90612534565b6001600160a01b03166000908152600260205260409020600401805460ff19166001179055565b606060008383604051602001610e969291906124d8565b60408051601f19818403018152828252805160209182012060008181526003835283812080548085028701850190955284865291955090929184015b82821015610ff05760008481526020908190206040805160e0810182526007860290920180546001600160a01b03908116845260018201541693830193909352600283015490820152600382015460ff166060820152600482018054919291608084019190610f40906124fa565b80601f0160208091040260200160405190810160405280929190818152602001828054610f6c906124fa565b8015610fb95780601f10610f8e57610100808354040283529160200191610fb9565b820191906000526020600020905b815481529060010190602001808311610f9c57829003601f168201915b5050509183525050600582015460208083019190915260069092015460ff1615156040909101529082526001929092019101610ed2565b5050505091505092915050565b6001600160a01b0381166000908152600560209081526040808320600281018054600183018054855183880281018801909652828652606097889790968796959492918590849083018282801561107d57602002820191906000526020600020905b81546001600160a01b0316815260019091019060200180831161105f575b50505050509350828054806020026020016040519081016040528092919081815260200182805480156110d957602002820191906000526020600020905b81546001600160a01b031681526001909101906020018083116110bb575b505050505092509450945094509450509193509193565b6110f8611d78565b6111026000611dd2565b565b6111466040518060e001604052806060815260200160608152602001606081526020016000815260200160001515815260200160008152602001600081525090565b6001600160a01b03821660009081526002602052604090819020815160e08101909252805482908290611178906124fa565b80601f01602080910402602001604051908101604052809291908181526020018280546111a4906124fa565b80156111f15780601f106111c6576101008083540402835291602001916111f1565b820191906000526020600020905b8154815290600101906020018083116111d457829003601f168201915b5050505050815260200160018201805461120a906124fa565b80601f0160208091040260200160405190810160405280929190818152602001828054611236906124fa565b80156112835780601f1061125857610100808354040283529160200191611283565b820191906000526020600020905b81548152906001019060200180831161126657829003601f168201915b5050505050815260200160028201805461129c906124fa565b80601f01602080910402602001604051908101604052809291908181526020018280546112c8906124fa565b80156113155780601f106112ea57610100808354040283529160200191611315565b820191906000526020600020905b8154815290600101906020018083116112f857829003601f168201915b505050918352505060038201546020820152600482015460ff16151560408201526005820154606082015260069091015460809091015292915050565b3360009081526006602052604090205460ff166113815760405162461bcd60e51b815260040161064f90612534565b336001600160a01b038216036113d25760405162461bcd60e51b815260206004820152601660248201527521b0b73737ba103337b63637bb903cb7bab939b2b63360511b604482015260640161064f565b6001600160a01b03811660009081526006602052604090205460ff1661140a5760405162461bcd60e51b815260040161064f90612534565b3360009081526005602090815260408083206001600160a01b038516845290915290205460ff16156114725760405162461bcd60e51b8152602060048201526011602482015270416c726561647920666f6c6c6f77696e6760781b604482015260640161064f565b3360008181526005602081815260408084206001600160a01b038716808652818452828620805460ff19166001908117909155948452908401805480860182559086528386200180546001600160a01b0319908116831790915581865282862060020180549586018155865292909420909201805490911684179055519091907f53e62c84b456cda6228f6c0acd671088271c8bb9627a72d3f8c3d631c8473724906115219042815260200190565b60405180910390a350565b60008060008085856040516020016115459291906124d8565b60408051601f198184030181529181528151602092830120600081815260049093529120805460028201549096509350909150841561159d57805460018201546115909060646128ba565b61159a91906128d1565b93505b50509250925092565b6001600160a01b03811660009081526005602090815260409182902060020180548351818402810184019094528084526060939283018282801561161357602002820191906000526020600020905b81546001600160a01b031681526001909101906020018083116115f5575b50505050509050919050565b3360009081526006602052604090205460ff161561167f5760405162461bcd60e51b815260206004820152601760248201527f5573657220616c72656164792072656769737465726564000000000000000000604482015260640161064f565b60078686604051611691929190612561565b9081526040519081900360200190205460ff16156116ea5760405162461bcd60e51b81526020600482015260166024820152752ab9b2b93730b6b29030b63932b0b23c903a30b5b2b760511b604482015260640161064f565b84158015906116fa575060208511155b6117405760405162461bcd60e51b8152602060048201526017602482015276092dcecc2d8d2c840eae6cae4dcc2daca40d8cadccee8d604b1b604482015260640161064f565b3360009081526006602052604090819020805460ff1916600190811790915590516007906117719089908990612561565b908152604051908190036020019020805491151560ff19909216919091179055600880549060006117a18361279e565b91905055506040518060e0016040528087878080601f016020809104026020016040519081016040528093929190818152602001838380828437600092019190915250505090825250604080516020601f880181900481028201810190925286815291810191908790879081908401838280828437600092019190915250505090825250604080516020601f860181900481028201810190925284815291810191908590859081908401838280828437600092018290525093855250504260208085019190915260408085018490526060850184905260809094018390523383526002905250208151819061189690826127b7565b50602082015160018201906118ab90826127b7565b50604082015160028201906118c090826127b7565b5060608201516003820155608082015160048201805460ff191691151591909117905560a0820151600582015560c09091015160069091015560405133907f89105a1c6a3c2fbd471255c66a31ccab604af5697f67d7e2e9a0028c5e4dbd919061192f908990899042906128f3565b60405180910390a2505050505050565b6001600160a01b038116600090815260056020908152604091829020600101805483518184028101840190945280845260609392830182828015611613576020028201919060005260206000209081546001600160a01b031681526001909101906020018083116115f55750505050509050919050565b3360009081526006602052604090205460ff166119e55760405162461bcd60e51b815260040161064f90612534565b3360009081526005602090815260408083206001600160a01b038516845290915290205460ff16611a585760405162461bcd60e51b815260206004820152601760248201527f4e6f7420666f6c6c6f77696e6720746869732075736572000000000000000000604482015260640161064f565b3360008181526005602081815260408084206001600160a01b0387168552808352908420805460ff19169055938352526001909101905b8154811015611b9557826001600160a01b0316828281548110611ab457611ab4612772565b6000918252602090912001546001600160a01b031603611b835781548290611ade90600190612917565b81548110611aee57611aee612772565b9060005260206000200160009054906101000a90046001600160a01b0316828281548110611b1e57611b1e612772565b9060005260206000200160006101000a8154816001600160a01b0302191690836001600160a01b0316021790555081805480611b5c57611b5c61292a565b600082815260209020810160001990810180546001600160a01b0319169055019055611b95565b80611b8d8161279e565b915050611a8f565b506001600160a01b0382166000908152600560205260408120600201905b8154811015611cb957336001600160a01b0316828281548110611bd857611bd8612772565b6000918252602090912001546001600160a01b031603611ca75781548290611c0290600190612917565b81548110611c1257611c12612772565b9060005260206000200160009054906101000a90046001600160a01b0316828281548110611c4257611c42612772565b9060005260206000200160006101000a8154816001600160a01b0302191690836001600160a01b0316021790555081805480611c8057611c8061292a565b600082815260209020810160001990810180546001600160a01b0319169055019055611cb9565b80611cb18161279e565b915050611bb3565b506040514281526001600160a01b0384169033907f594a48474c36e0d85b16b86393fc3d3a2ed770e7b4f0915b2972d5fbdaa993299060200160405180910390a3505050565b611d07611d78565b6001600160a01b038116611d6c5760405162461bcd60e51b815260206004820152602660248201527f4f776e61626c653a206e6577206f776e657220697320746865207a65726f206160448201526564647265737360d01b606482015260840161064f565b611d7581611dd2565b50565b6000546001600160a01b031633146111025760405162461bcd60e51b815260206004820181905260248201527f4f776e61626c653a2063616c6c6572206973206e6f7420746865206f776e6572604482015260640161064f565b600080546001600160a01b038381166001600160a01b0319831681178455604051919092169283917f8be0079c531659141344cd1fd0a4f28419497f9722a3daafe3b4186f6b6457e09190a35050565b6040518060a001604052806005906020820280368337509192915050565b80356001600160a01b0381168114611e5757600080fd5b919050565b60008060408385031215611e6f57600080fd5b611e7883611e40565b946020939093013593505050565b60a08101818360005b6005811015611eae578151835260209283019290910190600101611e8f565b50505092915050565b600060208284031215611ec957600080fd5b611ed282611e40565b9392505050565b60008060408385031215611eec57600080fd5b50508035926020909101359150565b6000815180845260005b81811015611f2157602081850181015186830182015201611f05565b506000602082860101526020601f19601f83011685010191505092915050565b6001600160a01b038881168252871660208201526040810186905260ff8516606082015260e060808201819052600090611f7d90830186611efb565b60a08301949094525090151560c09091015295945050505050565b60008083601f840112611faa57600080fd5b50813567ffffffffffffffff811115611fc257600080fd5b602083019150836020828501011115611fda57600080fd5b9250929050565b60008060008060008060608789031215611ffa57600080fd5b863567ffffffffffffffff8082111561201257600080fd5b61201e8a838b01611f98565b9098509650602089013591508082111561203757600080fd5b6120438a838b01611f98565b9096509450604089013591508082111561205c57600080fd5b5061206989828a01611f98565b979a9699509497509295939492505050565b634e487b7160e01b600052604160045260246000fd5b6000602082840312156120a357600080fd5b813567ffffffffffffffff808211156120bb57600080fd5b818401915084601f8301126120cf57600080fd5b8135818111156120e1576120e161207b565b604051601f8201601f19908116603f011681019083821181831017156121095761210961207b565b8160405282815287602084870101111561212257600080fd5b826020860160208301376000928101602001929092525095945050505050565b60e08152600061215560e083018a611efb565b8281036020840152612167818a611efb565b9050828103604084015261217b8189611efb565b60608401979097525050921515608084015260a083019190915260c0909101529392505050565b60008060008060008060a087890312156121bb57600080fd5b6121c487611e40565b955060208701359450604087013560ff811681146121e157600080fd5b9350606087013567ffffffffffffffff8111156121fd57600080fd5b61220989828a01611f98565b9094509250506080870135801515811461222257600080fd5b809150509295509295509295565b60006020808301818452808551808352604092508286019150828160051b87010184880160005b838110156122eb57888303603f19018552815180516001600160a01b039081168552888201511688850152868101518785015260608082015160ff169085015260808082015160e082870181905291906122b383880182611efb565b9250505060a080830151818701525060c08083015192506122d78187018415159052565b509588019593505090860190600101612257565b509098975050505050505050565b600081518084526020808501945080840160005b838110156123325781516001600160a01b03168752958201959082019060010161230d565b509495945050505050565b60808152600061235060808301876122f9565b828103602084015261236281876122f9565b604084019590955250506060015292915050565b60006020828403121561238857600080fd5b5035919050565b602081526000825160e060208401526123ac610100840182611efb565b90506020840151601f19808584030160408601526123ca8383611efb565b92506040860151915080858403016060860152506123e88282611efb565b915050606084015160808401526080840151151560a084015260a084015160c084015260c084015160e08401528091505092915050565b6000806040838503121561243257600080fd5b61243b83611e40565b915061244960208401611e40565b90509250929050565b600081518084526020808501945080840160005b8381101561233257815187529582019590820190600101612466565b60608152600061249560608301866122f9565b82810360208401526124a78186612452565b905082810360408401526124bb8185612452565b9695505050505050565b602081526000611ed260208301846122f9565b60609290921b6bffffffffffffffffffffffff19168252601482015260340190565b600181811c9082168061250e57607f821691505b60208210810361252e57634e487b7160e01b600052602260045260246000fd5b50919050565b602080825260139082015272155cd95c881b9bdd081c9959da5cdd195c9959606a1b604082015260600190565b8183823760009101908152919050565b6000815461257e816124fa565b6001828116801561259657600181146125ab576125da565b60ff19841687528215158302870194506125da565b8560005260208060002060005b858110156125d15781548a8201529084019082016125b8565b50505082870194505b5050505092915050565b6000611ed28284612571565b601f82111561263a57600081815260208120601f850160051c810160208610156126175750805b601f850160051c820191505b8181101561263657828155600101612623565b5050505b505050565b67ffffffffffffffff8311156126575761265761207b565b61266b8361266583546124fa565b836125f0565b6000601f84116001811461269f57600085156126875750838201355b600019600387901b1c1916600186901b1783556126f9565b600083815260209020601f19861690835b828110156126d057868501358255602094850194600190920191016126b0565b50868210156126ed5760001960f88860031b161c19848701351681555b505060018560011b0183555b5050505050565b81835281816020850137506000828201602090810191909152601f909101601f19169091010190565b60608152600061273d60608301888a612700565b8281036020840152612750818789612700565b90508281036040840152612765818587612700565b9998505050505050505050565b634e487b7160e01b600052603260045260246000fd5b634e487b7160e01b600052601160045260246000fd5b6000600182016127b0576127b0612788565b5060010190565b815167ffffffffffffffff8111156127d1576127d161207b565b6127e5816127df84546124fa565b846125f0565b602080601f83116001811461281a57600084156128025750858301515b600019600386901b1c1916600185901b178555612636565b600085815260208120601f198616915b828110156128495788860151825594840194600190910190840161282a565b50858210156128675787850151600019600388901b60f8161c191681555b5050505050600190811b01905550565b8082018082111561051e5761051e612788565b60ff851681526060602082015260006128a7606083018587612700565b9050821515604083015295945050505050565b808202811582820484141761051e5761051e612788565b6000826128ee57634e487b7160e01b600052601260045260246000fd5b500490565b604081526000612907604083018587612700565b9050826020830152949350505050565b8181038181111561051e5761051e612788565b634e487b7160e01b600052603160045260246000fdfea2646970667358221220619c5ac57cba780572f0aa1468031c8c643a59415dd5eb9d143a992ea35dd6fc64736f6c63430008130033",
  "linkReferences": {},
  "deployedLinkReferences": {}
}