{
  "_format": "hh-sol-artifact-1",
  "contractName": "MockERC4907",
  "sourceName": "contracts/MockERC4907.sol",
  "abi": [
    {
      "inputs": [],
      "stateMutability": "nonpayable",
      "type": "constructor"
    },
    {
      "anonymous": false,
      "inputs": [
        {
          "indexed": true,
          "internalType": "address",
          "name": "owner",
          "type": "address"
        },
        {
          "indexed": true,
          "internalType": "address",
          "name": "approved",
          "type": "address"
        },
        {
          "indexed": true,
          "internalType": "uint256",
          "name": "tokenId",
          "type": "uint256"
        }
      ],
      "name": "Approval",
      "type": "event"
    },
    {
      "anonymous": false,
      "inputs": [
        {
          "indexed": true,
          "internalType": "address",
          "name": "owner",
          "type": "address"
        },
        {
          "indexed": true,
          "internalType": "address",
          "name": "operator",
          "type": "address"
        },
        {
          "indexed": false,
          "internalType": "bool",
          "name": "approved",
          "type": "bool"
        }
      ],
      "name": "ApprovalForAll",
      "type": "event"
    },
    {
      "anonymous": false,
      "inputs": [
        {
          "indexed": true,
          "internalType": "address",
          "name": "from",
          "type": "address"
        },
        {
          "indexed": true,
          "internalType": "address",
          "name": "to",
          "type": "address"
        },
        {
          "indexed": true,
          "internalType": "uint256",
          "name": "tokenId",
          "type": "uint256"
        }
      ],
      "name": "Transfer",
      "type": "event"
    },
    {
      "anonymous": false,
      "inputs": [
        {
          "indexed": true,
          "internalType": "uint256",
          "name": "tokenId",
          "type": "uint256"
        },
        {
          "indexed": true,
          "internalType": "address",
          "name": "user",
          "type": "address"
        },
        {
          "indexed": false,
          "internalType": "uint64",
          "name": "expires",
          "type": "uint64"
        }
      ],
      "name": "UpdateUser",
      "type": "event"
    },
    {
      "inputs": [
        {
          "internalType": "address",
          "name": "to",
          "type": "address"
        },
        {
          "internalType": "uint256",
          "name": "tokenId",
          "type": "uint256"
        }
      ],
      "name": "approve",
      "outputs": [],
      "stateMutability": "nonpayable",
      "type": "function"
    },
    {
      "inputs": [
        {
          "internalType": "address",
          "name": "owner",
          "type": "address"
        }
      ],
      "name": "balanceOf",
      "outputs": [
        {
          "internalType": "uint256",
          "name": "",
          "type": "uint256"
        }
      ],
      "stateMutability": "view",
      "type": "function"
    },
    {
      "inputs": [
        {
          "internalType": "uint256",
          "name": "tokenId",
          "type": "uint256"
        }
      ],
      "name": "getApproved",
      "outputs": [
        {
          "internalType": "address",
          "name": "",
          "type": "address"
        }
      ],
      "stateMutability": "view",
      "type": "function"
    },
    {
      "inputs": [
        {
          "internalType": "address",
          "name": "owner",
          "type": "address"
        },
        {
          "internalType": "address",
          "name": "operator",
          "type": "address"
        }
      ],
      "name": "isApprovedForAll",
      "outputs": [
        {
          "internalType": "bool",
          "name": "",
          "type": "bool"
        }
      ],
      "stateMutability": "view",
      "type": "function"
    },
    {
      "inputs": [
        {
          "internalType": "address",
          "name": "to",
          "type": "address"
        },
        {
          "internalType": "uint256",
          "name": "tokenId",
          "type": "uint256"
        }
      ],
      "name": "mint",
      "outputs": [],
      "stateMutability": "nonpayable",
      "type": "function"
    },
    {
      "inputs": [],
      "name": "name",
      "outputs": [
        {
          "internalType": "string",
          "name": "",
          "type": "string"
        }
      ],
      "stateMutability": "view",
      "type": "function"
    },
    {
      "inputs": [
        {
          "internalType": "uint256",
          "name": "tokenId",
          "type": "uint256"
        }
      ],
      "name": "ownerOf",
      "outputs": [
        {
          "internalType": "address",
          "name": "",
          "type": "address"
        }
      ],
      "stateMutability": "view",
      "type": "function"
    },
    {
      "inputs": [
        {
          "internalType": "address",
          "name": "from",
          "type": "address"
        },
        {
          "internalType": "address",
          "name": "to",
          "type": "address"
        },
        {
          "internalType": "uint256",
          "name": "tokenId",
          "type": "uint256"
        }
      ],
      "name": "safeTransferFrom",
      "outputs": [],
      "stateMutability": "nonpayable",
      "type": "function"
    },
    {
      "inputs": [
        {
          "internalType": "address",
          "name": "from",
          "type": "address"
        },
        {
          "internalType": "address",
          "name": "to",
          "type": "address"
        },
        {
          "internalType": "uint256",
          "name": "tokenId",
          "type": "uint256"
        },
        {
          "internalType": "bytes",
          "name": "data",
          "type": "bytes"
        }
      ],
      "name": "safeTransferFrom",
      "outputs": [],
      "stateMutability": "nonpayable",
      "type": "function"
    },
    {
      "inputs": [
        {
          "internalType": "address",
          "name": "operator",
          "type": "address"
        },
        {
          "internalType": "bool",
          "name": "approved",
          "type": "bool"
        }
      ],
      "name": "setApprovalForAll",
      "outputs": [],
      "stateMutability": "nonpayable",
      "type": "function"
    },
    {
      "inputs": [
        {
          "internalType": "uint256",
          "name": "tokenId",
          "type": "uint256"
        },
        {
          "internalType": "address",
          "name": "user",
          "type": "address"
        },
        {
          "internalType": "uint64",
          "name": "expires",
          "type": "uint64"
        }
      ],
      "name": "setUser",
      "outputs": [],
      "stateMutability": "nonpayable",
      "type": "function"
    },
    {
      "inputs": [
        {
          "internalType": "bytes4",
          "name": "interfaceId",
          "type": "bytes4"
        }
      ],
      "name": "supportsInterface",
      "outputs": [
        {
          "internalType": "bool",
          "name": "",
          "type": "bool"
        }
      ],
      "stateMutability": "view",
      "type": "function"
    },
    {
      "inputs": [],
      "name": "symbol",
      "outputs": [
        {
          "internalType": "string",
          "name": "",
          "type": "string"
        }
      ],
      "stateMutability": "view",
      "type": "function"
    },
    {
      "inputs": [
        {
          "internalType": "uint256",
          "name": "tokenId",
          "type": "uint256"
        }
      ],
      "name": "tokenURI",
      "outputs": [
        {
          "internalType": "string",
          "name": "",
          "type": "string"
        }
      ],
      "stateMutability": "view",
      "type": "function"
    },
    {
      "inputs": [
        {
          "internalType": "address",
          "name": "from",
          "type": "address"
        },
        {
          "internalType": "address",
          "name": "to",
          "type": "address"
        },
        {
          "internalType": "uint256",
          "name": "tokenId",
          "type": "uint256"
        }
      ],
      "name": "transferFrom",
      "outputs": [],
      "stateMutability": "nonpayable",
      "type": "function"
    },
    {
      "inputs": [
        {
          "internalType": "uint256",
          "name": "tokenId",
          "type": "uint256"
        }
      ],
      "name": "userExpires",
      "outputs": [
        {
          "internalType": "uint256",
          "name": "",
          "type": "uint256"
        }
      ],
      "stateMutability": "view",
      "type": "function"
    },
    {
      "inputs": [
        {
          "internalType": "uint256",
          "name": "tokenId",
          "type": "uint256"
        }
      ],
      "name": "userOf",
      "outputs": [
        {
          "internalType": "address",
          "name": "",
          "type": "address"
        }
      ],
      "stateMutability": "view",
      "type": "function"
    }
  ],
  "bytecode": "0x60806040523480156200001157600080fd5b506040518060400160405280600b81526020016a4d6f636b4552433439303760a81b815250604051806040016040528060088152602001674d4f434b3439303760c01b815250816000908162000068919062000125565b50600162000077828262000125565b505050620001f1565b634e487b7160e01b600052604160045260246000fd5b600181811c90821680620000ab57607f821691505b602082108103620000cc57634e487b7160e01b600052602260045260246000fd5b50919050565b601f8211156200012057600081815260208120601f850160051c81016020861015620000fb5750805b601f850160051c820191505b818110156200011c5782815560010162000107565b5050505b505050565b81516001600160401b0381111562000141576200014162000080565b620001598162000152845462000096565b84620000d2565b602080601f831160018114620001915760008415620001785750858301515b600019600386901b1c1916600185901b1785556200011c565b600085815260208120601f198616915b82811015620001c257888601518255948401946001909101908401620001a1565b5085821015620001e15787850151600019600388901b60f8161c191681555b5050505050600190811b01905550565b6114e180620002016000396000f3fe608060405234801561001057600080fd5b506004361061010b5760003560e01c806370a08231116100a2578063b88d4fde11610071578063b88d4fde14610246578063c2f1f14a14610259578063c87b56dd1461026c578063e030565e1461027f578063e985e9c51461029257600080fd5b806370a08231146101d95780638fc88c48146101fa57806395d89b411461022b578063a22cb4651461023357600080fd5b806323b872dd116100de57806323b872dd1461018d57806340c10f19146101a057806342842e0e146101b35780636352211e146101c657600080fd5b806301ffc9a71461011057806306fdde0314610138578063081812fc1461014d578063095ea7b314610178575b600080fd5b61012361011e366004611025565b6102ce565b60405190151581526020015b60405180910390f35b6101406102f9565b60405161012f9190611092565b61016061015b3660046110a5565b61038b565b6040516001600160a01b03909116815260200161012f565b61018b6101863660046110d5565b6103b2565b005b61018b61019b3660046110ff565b6104cc565b61018b6101ae3660046110d5565b6104fd565b61018b6101c13660046110ff565b61050b565b6101606101d43660046110a5565b610526565b6101ec6101e736600461113b565b610586565b60405190815260200161012f565b6101ec6102083660046110a5565b600090815260066020526040902054600160a01b900467ffffffffffffffff1690565b61014061060c565b61018b610241366004611156565b61061b565b61018b6102543660046111a8565b610626565b6101606102673660046110a5565b61065e565b61014061027a3660046110a5565b6106ae565b61018b61028d366004611284565b610722565b6101236102a03660046112d1565b6001600160a01b03918216600090815260056020908152604080832093909416825291909152205460ff1690565b60006001600160e01b03198216632b424ad760e21b14806102f357506102f382610814565b92915050565b60606000805461030890611304565b80601f016020809104026020016040519081016040528092919081815260200182805461033490611304565b80156103815780601f1061035657610100808354040283529160200191610381565b820191906000526020600020905b81548152906001019060200180831161036457829003601f168201915b5050505050905090565b600061039682610864565b506000908152600460205260409020546001600160a01b031690565b60006103bd82610526565b9050806001600160a01b0316836001600160a01b03160361042f5760405162461bcd60e51b815260206004820152602160248201527f4552433732313a20617070726f76616c20746f2063757272656e74206f776e656044820152603960f91b60648201526084015b60405180910390fd5b336001600160a01b038216148061044b575061044b81336102a0565b6104bd5760405162461bcd60e51b815260206004820152603d60248201527f4552433732313a20617070726f76652063616c6c6572206973206e6f7420746f60448201527f6b656e206f776e6572206f7220617070726f76656420666f7220616c6c0000006064820152608401610426565b6104c783836108c6565b505050565b6104d63382610934565b6104f25760405162461bcd60e51b81526004016104269061133e565b6104c78383836109b3565b6105078282610b17565b5050565b6104c783838360405180602001604052806000815250610626565b6000818152600260205260408120546001600160a01b0316806102f35760405162461bcd60e51b8152602060048201526018602482015277115490cdcc8c4e881a5b9d985b1a59081d1bdad95b88125160421b6044820152606401610426565b60006001600160a01b0382166105f05760405162461bcd60e51b815260206004820152602960248201527f4552433732313a2061646472657373207a65726f206973206e6f7420612076616044820152683634b21037bbb732b960b91b6064820152608401610426565b506001600160a01b031660009081526003602052604090205490565b60606001805461030890611304565b610507338383610ca2565b6106303383610934565b61064c5760405162461bcd60e51b81526004016104269061133e565b61065884848484610d70565b50505050565b60008181526006602052604081205442600160a01b90910467ffffffffffffffff16106106a157506000908152600660205260409020546001600160a01b031690565b506000919050565b919050565b60606106b982610864565b60006106d060408051602081019091526000815290565b905060008151116106f0576040518060200160405280600081525061071b565b806106fa84610da3565b60405160200161070b92919061138b565b6040516020818303038152906040525b9392505050565b61072c3384610934565b6107935760405162461bcd60e51b815260206004820152603260248201527f455243343930373a207472616e736665722063616c6c6572206973206e6f74206044820152711bdddb995c881b9bdc88185c1c1c9bdd995960721b6064820152608401610426565b60008381526006602090815260409182902080546001600160a01b0386166001600160e01b03199091168117600160a01b67ffffffffffffffff871690810291909117835593519384529092909186917f4e06b4e7000e659094299b3533b47b6aa8ad048e95e872d23d1f4ee55af89cfe910160405180910390a350505050565b60006001600160e01b031982166380ac58cd60e01b148061084557506001600160e01b03198216635b5e139f60e01b145b806102f357506301ffc9a760e01b6001600160e01b03198316146102f3565b6000818152600260205260409020546001600160a01b03166108c35760405162461bcd60e51b8152602060048201526018602482015277115490cdcc8c4e881a5b9d985b1a59081d1bdad95b88125160421b6044820152606401610426565b50565b600081815260046020526040902080546001600160a01b0319166001600160a01b03841690811790915581906108fb82610526565b6001600160a01b03167f8c5be1e5ebec7d5bd14f71427d1e84f3dd0314c0f7b2291e5b200ac8c7c3b92560405160405180910390a45050565b60008061094083610526565b9050806001600160a01b0316846001600160a01b0316148061098757506001600160a01b0380821660009081526005602090815260408083209388168352929052205460ff165b806109ab5750836001600160a01b03166109a08461038b565b6001600160a01b0316145b949350505050565b826001600160a01b03166109c682610526565b6001600160a01b0316146109ec5760405162461bcd60e51b8152600401610426906113ba565b6001600160a01b038216610a4e5760405162461bcd60e51b8152602060048201526024808201527f4552433732313a207472616e7366657220746f20746865207a65726f206164646044820152637265737360e01b6064820152608401610426565b826001600160a01b0316610a6182610526565b6001600160a01b031614610a875760405162461bcd60e51b8152600401610426906113ba565b600081815260046020908152604080832080546001600160a01b03199081169091556001600160a01b0387811680865260038552838620805460001901905590871680865283862080546001019055868652600290945282852080549092168417909155905184937fddf252ad1be2c89b69c2b068fc378daa952ba7f163c4a11628f55a4df523b3ef91a4505050565b6001600160a01b038216610b6d5760405162461bcd60e51b815260206004820181905260248201527f4552433732313a206d696e7420746f20746865207a65726f20616464726573736044820152606401610426565b6000818152600260205260409020546001600160a01b031615610bd25760405162461bcd60e51b815260206004820152601c60248201527f4552433732313a20746f6b656e20616c7265616479206d696e746564000000006044820152606401610426565b6000818152600260205260409020546001600160a01b031615610c375760405162461bcd60e51b815260206004820152601c60248201527f4552433732313a20746f6b656e20616c7265616479206d696e746564000000006044820152606401610426565b6001600160a01b038216600081815260036020908152604080832080546001019055848352600290915280822080546001600160a01b0319168417905551839291907fddf252ad1be2c89b69c2b068fc378daa952ba7f163c4a11628f55a4df523b3ef908290a45050565b816001600160a01b0316836001600160a01b031603610d035760405162461bcd60e51b815260206004820152601960248201527f4552433732313a20617070726f766520746f2063616c6c6572000000000000006044820152606401610426565b6001600160a01b03838116600081815260056020908152604080832094871680845294825291829020805460ff191686151590811790915591519182527f17307eab39ab6107e8899845ad3d59bd9653f200f220920489ca2b5937696c31910160405180910390a3505050565b610d7b8484846109b3565b610d8784848484610e36565b6106585760405162461bcd60e51b8152600401610426906113ff565b60606000610db083610f37565b600101905060008167ffffffffffffffff811115610dd057610dd0611192565b6040519080825280601f01601f191660200182016040528015610dfa576020820181803683370190505b5090508181016020015b600019016f181899199a1a9b1b9c1cb0b131b232b360811b600a86061a8153600a8504945084610e0457509392505050565b60006001600160a01b0384163b15610f2c57604051630a85bd0160e11b81526001600160a01b0385169063150b7a0290610e7a903390899088908890600401611451565b6020604051808303816000875af1925050508015610eb5575060408051601f3d908101601f19168201909252610eb29181019061148e565b60015b610f12573d808015610ee3576040519150601f19603f3d011682016040523d82523d6000602084013e610ee8565b606091505b508051600003610f0a5760405162461bcd60e51b8152600401610426906113ff565b805181602001fd5b6001600160e01b031916630a85bd0160e11b1490506109ab565b506001949350505050565b60008072184f03e93ff9f4daa797ed6e38ed64bf6a1f0160401b8310610f765772184f03e93ff9f4daa797ed6e38ed64bf6a1f0160401b830492506040015b6d04ee2d6d415b85acef81000000008310610fa2576d04ee2d6d415b85acef8100000000830492506020015b662386f26fc100008310610fc057662386f26fc10000830492506010015b6305f5e1008310610fd8576305f5e100830492506008015b6127108310610fec57612710830492506004015b60648310610ffe576064830492506002015b600a83106102f35760010192915050565b6001600160e01b0319811681146108c357600080fd5b60006020828403121561103757600080fd5b813561071b8161100f565b60005b8381101561105d578181015183820152602001611045565b50506000910152565b6000815180845261107e816020860160208601611042565b601f01601f19169290920160200192915050565b60208152600061071b6020830184611066565b6000602082840312156110b757600080fd5b5035919050565b80356001600160a01b03811681146106a957600080fd5b600080604083850312156110e857600080fd5b6110f1836110be565b946020939093013593505050565b60008060006060848603121561111457600080fd5b61111d846110be565b925061112b602085016110be565b9150604084013590509250925092565b60006020828403121561114d57600080fd5b61071b826110be565b6000806040838503121561116957600080fd5b611172836110be565b91506020830135801515811461118757600080fd5b809150509250929050565b634e487b7160e01b600052604160045260246000fd5b600080600080608085870312156111be57600080fd5b6111c7856110be565b93506111d5602086016110be565b925060408501359150606085013567ffffffffffffffff808211156111f957600080fd5b818701915087601f83011261120d57600080fd5b81358181111561121f5761121f611192565b604051601f8201601f19908116603f0116810190838211818310171561124757611247611192565b816040528281528a602084870101111561126057600080fd5b82602086016020830137600060208483010152809550505050505092959194509250565b60008060006060848603121561129957600080fd5b833592506112a9602085016110be565b9150604084013567ffffffffffffffff811681146112c657600080fd5b809150509250925092565b600080604083850312156112e457600080fd5b6112ed836110be565b91506112fb602084016110be565b90509250929050565b600181811c9082168061131857607f821691505b60208210810361133857634e487b7160e01b600052602260045260246000fd5b50919050565b6020808252602d908201527f4552433732313a2063616c6c6572206973206e6f7420746f6b656e206f776e6560408201526c1c881bdc88185c1c1c9bdd9959609a1b606082015260800190565b6000835161139d818460208801611042565b8351908301906113b1818360208801611042565b01949350505050565b60208082526025908201527f4552433732313a207472616e736665722066726f6d20696e636f72726563742060408201526437bbb732b960d91b606082015260800190565b60208082526032908201527f4552433732313a207472616e7366657220746f206e6f6e20455243373231526560408201527131b2b4bb32b91034b6b83632b6b2b73a32b960711b606082015260800190565b6001600160a01b038581168252841660208201526040810183905260806060820181905260009061148490830184611066565b9695505050505050565b6000602082840312156114a057600080fd5b815161071b8161100f56fea26469706673582212200fea0a8880958059c411595cf1b615d675e0bdce0dd7f938c99905438ceb6dbd64736f6c63430008130033",
  "linkReferences": {},
  "deployedLinkReferences": {}
}