{
  "_format": "hh-sol-artifact-1",
  "contractName": "DIAPriceOracle",
  "sourceName": "contracts/oracles/DIAPriceOracle.sol",
  "abi": [
    {
      "anonymous": false,
      "inputs": [
        {
          "indexed": true,
          "internalType": "address",
          "name": "nftContract",
          "type": "address"
        },
        {
          "indexed": true,
          "internalType": "uint256",
          "name": "tokenId",
          "type": "uint256"
        },
        {
          "indexed": false,
          "internalType": "uint256",
          "name": "price",
          "type": "uint256"
        }
      ],
      "name": "CustomPriceSet",
      "type": "event"
    },
    {
      "anonymous": false,
      "inputs": [
        {
          "indexed": true,
          "internalType": "address",
          "name": "previousOwner",
          "type": "address"
        },
        {
          "indexed": true,
          "internalType": "address",
          "name": "newOwner",
          "type": "address"
        }
      ],
      "name": "OwnershipTransferred",
      "type": "event"
    },
    {
      "anonymous": false,
      "inputs": [
        {
          "indexed": true,
          "internalType": "address",
          "name": "nftContract",
          "type": "address"
        },
        {
          "indexed": true,
          "internalType": "uint256",
          "name": "tokenId",
          "type": "uint256"
        },
        {
          "indexed": false,
          "internalType": "uint256",
          "name": "price",
          "type": "uint256"
        }
      ],
      "name": "PriceFetched",
      "type": "event"
    },
    {
      "inputs": [],
      "name": "DIA_ORACLE",
      "outputs": [
        {
          "internalType": "address",
          "name": "",
          "type": "address"
        }
      ],
      "stateMutability": "view",
      "type": "function"
    },
    {
      "inputs": [],
      "name": "MAX_PRICE_PER_SECOND",
      "outputs": [
        {
          "internalType": "uint256",
          "name": "",
          "type": "uint256"
        }
      ],
      "stateMutability": "view",
      "type": "function"
    },
    {
      "inputs": [],
      "name": "MIN_PRICE_PER_SECOND",
      "outputs": [
        {
          "internalType": "uint256",
          "name": "",
          "type": "uint256"
        }
      ],
      "stateMutability": "view",
      "type": "function"
    },
    {
      "inputs": [
        {
          "internalType": "address",
          "name": "",
          "type": "address"
        }
      ],
      "name": "basePriceMultipliers",
      "outputs": [
        {
          "internalType": "uint256",
          "name": "",
          "type": "uint256"
        }
      ],
      "stateMutability": "view",
      "type": "function"
    },
    {
      "inputs": [
        {
          "internalType": "address[]",
          "name": "nftContracts",
          "type": "address[]"
        },
        {
          "internalType": "uint256[]",
          "name": "tokenIds",
          "type": "uint256[]"
        },
        {
          "internalType": "uint256[]",
          "name": "prices",
          "type": "uint256[]"
        }
      ],
      "name": "batchSetCustomPrices",
      "outputs": [],
      "stateMutability": "nonpayable",
      "type": "function"
    },
    {
      "inputs": [
        {
          "internalType": "address",
          "name": "",
          "type": "address"
        },
        {
          "internalType": "uint256",
          "name": "",
          "type": "uint256"
        }
      ],
      "name": "customPrices",
      "outputs": [
        {
          "internalType": "uint256",
          "name": "",
          "type": "uint256"
        }
      ],
      "stateMutability": "view",
      "type": "function"
    },
    {
      "inputs": [],
      "name": "emergencyWithdraw",
      "outputs": [],
      "stateMutability": "nonpayable",
      "type": "function"
    },
    {
      "inputs": [
        {
          "internalType": "address",
          "name": "nftContract",
          "type": "address"
        },
        {
          "internalType": "uint256",
          "name": "tokenId",
          "type": "uint256"
        }
      ],
      "name": "getEstimatedPrice",
      "outputs": [
        {
          "internalType": "uint256",
          "name": "pricePerSecond",
          "type": "uint256"
        }
      ],
      "stateMutability": "view",
      "type": "function"
    },
    {
      "inputs": [
        {
          "internalType": "address",
          "name": "nftContract",
          "type": "address"
        },
        {
          "internalType": "uint256",
          "name": "tokenId",
          "type": "uint256"
        }
      ],
      "name": "getLastUpdated",
      "outputs": [
        {
          "internalType": "uint256",
          "name": "timestamp",
          "type": "uint256"
        }
      ],
      "stateMutability": "view",
      "type": "function"
    },
    {
      "inputs": [
        {
          "internalType": "address",
          "name": "nftContract",
          "type": "address"
        },
        {
          "internalType": "uint256",
          "name": "tokenId",
          "type": "uint256"
        }
      ],
      "name": "getPrice",
      "outputs": [
        {
          "internalType": "uint256",
          "name": "pricePerSecond",
          "type": "uint256"
        }
      ],
      "stateMutability": "payable",
      "type": "function"
    },
    {
      "inputs": [],
      "name": "oracleFee",
      "outputs": [
        {
          "internalType": "uint256",
          "name": "",
          "type": "uint256"
        }
      ],
      "stateMutability": "view",
      "type": "function"
    },
    {
      "inputs": [],
      "name": "owner",
      "outputs": [
        {
          "internalType": "address",
          "name": "",
          "type": "address"
        }
      ],
      "stateMutability": "view",
      "type": "function"
    },
    {
      "inputs": [],
      "name": "renounceOwnership",
      "outputs": [],
      "stateMutability": "nonpayable",
      "type": "function"
    },
    {
      "inputs": [
        {
          "internalType": "address",
          "name": "nftContract",
          "type": "address"
        },
        {
          "internalType": "uint256",
          "name": "multiplier",
          "type": "uint256"
        }
      ],
      "name": "setBasePriceMultiplier",
      "outputs": [],
      "stateMutability": "nonpayable",
      "type": "function"
    },
    {
      "inputs": [
        {
          "internalType": "address",
          "name": "nftContract",
          "type": "address"
        },
        {
          "internalType": "uint256",
          "name": "tokenId",
          "type": "uint256"
        },
        {
          "internalType": "uint256",
          "name": "price",
          "type": "uint256"
        }
      ],
      "name": "setCustomPrice",
      "outputs": [],
      "stateMutability": "nonpayable",
      "type": "function"
    },
    {
      "inputs": [
        {
          "internalType": "uint256",
          "name": "fee",
          "type": "uint256"
        }
      ],
      "name": "setOracleFee",
      "outputs": [],
      "stateMutability": "nonpayable",
      "type": "function"
    },
    {
      "inputs": [
        {
          "internalType": "address",
          "name": "newOwner",
          "type": "address"
        }
      ],
      "name": "transferOwnership",
      "outputs": [],
      "stateMutability": "nonpayable",
      "type": "function"
    },
    {
      "inputs": [
        {
          "internalType": "address",
          "name": "nftContract",
          "type": "address"
        },
        {
          "internalType": "uint256",
          "name": "tokenId",
          "type": "uint256"
        },
        {
          "internalType": "uint256",
          "name": "newPrice",
          "type": "uint256"
        }
      ],
      "name": "updatePrice",
      "outputs": [],
      "stateMutability": "nonpayable",
      "type": "function"
    },
    {
      "inputs": [],
      "name": "withdrawFees",
      "outputs": [],
      "stateMutability": "nonpayable",
      "type": "function"
    }
  ],
  "bytecode": "0x608060405266038d7ea4c6800060035534801561001b57600080fd5b506100253361002a565b61007a565b600080546001600160a01b038381166001600160a01b0319831681178455604051919092169283917f8be0079c531659141344cd1fd0a4f28419497f9722a3daafe3b4186f6b6457e09190a35050565b611357806100896000396000f3fe6080604052600436106101145760003560e01c80638da5cb5b116100a0578063e557698211610064578063e5576982146102f0578063e57d6fb714610318578063f2054a4314610338578063f2fde38b14610354578063f9cd3ceb1461037457600080fd5b80638da5cb5b14610250578063b6d9ef6014610282578063bdcfa7d9146102a2578063d743bf80146102c2578063db2e21bc146102db57600080fd5b8063476343ee116100e7578063476343ee146101a1578063588a0e6b146101b6578063715018a6146101ee5780638b15fac2146102035780638ca1dbfd1461023057600080fd5b806302da448d146101195780633b05166d1461014c578063449e815d1461016e578063464afcb914610181575b600080fd5b34801561012557600080fd5b50610139610134366004611076565b61038a565b6040519081526020015b60405180910390f35b34801561015857600080fd5b5061016c6101673660046110ee565b610392565b005b61013961017c366004611076565b610769565b34801561018d57600080fd5b5061013961019c366004611076565b610a30565b3480156101ad57600080fd5b5061016c610b13565b3480156101c257600080fd5b506101396101d1366004611076565b600260209081526000928352604080842090915290825290205481565b3480156101fa57600080fd5b5061016c610b9c565b34801561020f57600080fd5b5061013961021e366004611188565b60016020526000908152604090205481565b34801561023c57600080fd5b5061016c61024b3660046111ac565b610bb0565b34801561025c57600080fd5b506000546001600160a01b03165b6040516001600160a01b039091168152602001610143565b34801561028e57600080fd5b5061016c61029d3660046111e1565b610da4565b3480156102ae57600080fd5b5061016c6102bd366004611076565b610df7565b3480156102ce57600080fd5b5061013964e8d4a5100081565b3480156102e757600080fd5b5061016c610e75565b3480156102fc57600080fd5b5061026a73ba0e0750a56e995506ca458b2bdd752754cf39c481565b34801561032457600080fd5b5061016c6103333660046111ac565b610eba565b34801561034457600080fd5b50610139670de0b6b3a764000081565b34801561036057600080fd5b5061016c61036f366004611188565b610f41565b34801561038057600080fd5b5061013960035481565b425b92915050565b84831480156103a057508281145b6103e95760405162461bcd60e51b8152602060048201526015602482015274082e4e4c2f240d8cadccee8d040dad2e6dac2e8c6d605b1b60448201526064015b60405180910390fd5b60005b858110156107605764e8d4a5100083838381811061040c5761040c6111fa565b90506020020135101580156104415750670de0b6b3a7640000838383818110610437576104376111fa565b9050602002013511155b6104825760405162461bcd60e51b81526020600482015260126024820152715072696365206f7574206f662072616e676560701b60448201526064016103e0565b868682818110610494576104946111fa565b90506020020160208101906104a99190611188565b6001600160a01b0316638da5cb5b6040518163ffffffff1660e01b8152600401602060405180830381865afa1580156104e6573d6000803e3d6000fd5b505050506040513d601f19601f8201168201806040525081019061050a9190611210565b6001600160a01b0316336001600160a01b031614806105e65750868682818110610536576105366111fa565b905060200201602081019061054b9190611188565b6001600160a01b0316636352211e86868481811061056b5761056b6111fa565b905060200201356040518263ffffffff1660e01b815260040161059091815260200190565b602060405180830381865afa1580156105ad573d6000803e3d6000fd5b505050506040513d601f19601f820116820180604052508101906105d19190611210565b6001600160a01b0316336001600160a01b0316145b6106235760405162461bcd60e51b815260206004820152600e60248201526d139bdd08185d5d1a1bdc9a5e995960921b60448201526064016103e0565b828282818110610635576106356111fa565b9050602002013560026000898985818110610652576106526111fa565b90506020020160208101906106679190611188565b6001600160a01b03166001600160a01b03168152602001908152602001600020600087878581811061069b5761069b6111fa565b905060200201358152602001908152602001600020819055508484828181106106c6576106c66111fa565b905060200201358787838181106106df576106df6111fa565b90506020020160208101906106f49190611188565b6001600160a01b03167f36fc8aca0832d41d6924f8446c7ec6fa6b97a7f81d3d6c0b828d892fba66cc60858585818110610730576107306111fa565b9050602002013560405161074691815260200190565b60405180910390a38061075881611243565b9150506103ec565b50505050505050565b60006003543410156107bd5760405162461bcd60e51b815260206004820152601760248201527f496e73756666696369656e74206f7261636c652066656500000000000000000060448201526064016103e0565b6001600160a01b03831660009081526002602090815260408083208584529091529020541561081057506001600160a01b038216600090815260026020908152604080832084845290915290205461038c565b604051634e46542f60e01b60208201526bffffffffffffffffffffffff19606085901b166024820152602f60f81b603882015260398101839052600090819073ba0e0750a56e995506ca458b2bdd752754cf39c490349060590160408051601f198184030181529082905261088791602401611280565b60408051601f198184030181529181526020820180516001600160e01b03166304b01c2560e51b179052516108bc91906112b3565b60006040518083038185875af1925050503d80600081146108f9576040519150601f19603f3d011682016040523d82523d6000602084013e6108fe565b606091505b5091509150816109495760405162461bcd60e51b81526020600482015260166024820152751112504813dc9858db194818d85b1b0819985a5b195960521b60448201526064016103e0565b60008180602001905181019061095f91906112cf565b6001600160a01b03871660009081526001602052604081205491925081900361098d5750670de0b6b3a76400005b670de0b6b3a76400006109a082846112e8565b6109aa91906112ff565b945064e8d4a510008510156109c65764e8d4a5100094506109e2565b670de0b6b3a76400008511156109e257670de0b6b3a764000094505b85876001600160a01b03167f7bf83000b5e0a2fef3d14c0ab566f01d854ebb59ead14177f11b6c2e966e6cbe87604051610a1e91815260200190565b60405180910390a35050505092915050565b6001600160a01b038216600090815260026020908152604080832084845290915281205415610a8357506001600160a01b038216600090815260026020908152604080832084845290915290205461038c565b6001600160a01b03831660009081526001602052604081205490819003610aaf5750670de0b6b3a76400005b6509184e72a000670de0b6b3a7640000610ac983836112e8565b610ad391906112ff565b925064e8d4a51000831015610aef5764e8d4a510009250610b0b565b670de0b6b3a7640000831115610b0b57670de0b6b3a764000092505b505092915050565b610b1b610fb7565b4780610b5f5760405162461bcd60e51b81526020600482015260136024820152724e6f206665657320746f20776974686472617760681b60448201526064016103e0565b600080546040516001600160a01b039091169183156108fc02918491818181858888f19350505050158015610b98573d6000803e3d6000fd5b5050565b610ba4610fb7565b610bae6000611011565b565b64e8d4a510008110158015610bcd5750670de0b6b3a76400008111155b610c0e5760405162461bcd60e51b81526020600482015260126024820152715072696365206f7574206f662072616e676560701b60448201526064016103e0565b826001600160a01b0316638da5cb5b6040518163ffffffff1660e01b8152600401602060405180830381865afa158015610c4c573d6000803e3d6000fd5b505050506040513d601f19601f82011682018060405250810190610c709190611210565b6001600160a01b0316336001600160a01b03161480610d0857506040516331a9108f60e11b8152600481018390526001600160a01b03841690636352211e90602401602060405180830381865afa158015610ccf573d6000803e3d6000fd5b505050506040513d601f19601f82011682018060405250810190610cf39190611210565b6001600160a01b0316336001600160a01b0316145b610d455760405162461bcd60e51b815260206004820152600e60248201526d139bdd08185d5d1a1bdc9a5e995960921b60448201526064016103e0565b6001600160a01b038316600081815260026020908152604080832086845282529182902084905590518381528492917f36fc8aca0832d41d6924f8446c7ec6fa6b97a7f81d3d6c0b828d892fba66cc60910160405180910390a3505050565b610dac610fb7565b662386f26fc10000811115610df25760405162461bcd60e51b815260206004820152600c60248201526b08ccaca40e8dede40d0d2ced60a31b60448201526064016103e0565b600355565b610dff610fb7565b60008111610e595760405162461bcd60e51b815260206004820152602160248201527f4d756c7469706c696572206d7573742062652067726561746572207468616e206044820152600360fc1b60648201526084016103e0565b6001600160a01b03909116600090815260016020526040902055565b610e7d610fb7565b600080546040516001600160a01b03909116914780156108fc02929091818181858888f19350505050158015610eb7573d6000803e3d6000fd5b50565b610ec2610fb7565b64e8d4a510008110158015610edf5750670de0b6b3a76400008111155b610f1b5760405162461bcd60e51b815260206004820152600d60248201526c496e76616c696420707269636560981b60448201526064016103e0565b6001600160a01b0390921660009081526002602090815260408083209383529290522055565b610f49610fb7565b6001600160a01b038116610fae5760405162461bcd60e51b815260206004820152602660248201527f4f776e61626c653a206e6577206f776e657220697320746865207a65726f206160448201526564647265737360d01b60648201526084016103e0565b610eb781611011565b6000546001600160a01b03163314610bae5760405162461bcd60e51b815260206004820181905260248201527f4f776e61626c653a2063616c6c6572206973206e6f7420746865206f776e657260448201526064016103e0565b600080546001600160a01b038381166001600160a01b0319831681178455604051919092169283917f8be0079c531659141344cd1fd0a4f28419497f9722a3daafe3b4186f6b6457e09190a35050565b6001600160a01b0381168114610eb757600080fd5b6000806040838503121561108957600080fd5b823561109481611061565b946020939093013593505050565b60008083601f8401126110b457600080fd5b50813567ffffffffffffffff8111156110cc57600080fd5b6020830191508360208260051b85010111156110e757600080fd5b9250929050565b6000806000806000806060878903121561110757600080fd5b863567ffffffffffffffff8082111561111f57600080fd5b61112b8a838b016110a2565b9098509650602089013591508082111561114457600080fd5b6111508a838b016110a2565b9096509450604089013591508082111561116957600080fd5b5061117689828a016110a2565b979a9699509497509295939492505050565b60006020828403121561119a57600080fd5b81356111a581611061565b9392505050565b6000806000606084860312156111c157600080fd5b83356111cc81611061565b95602085013595506040909401359392505050565b6000602082840312156111f357600080fd5b5035919050565b634e487b7160e01b600052603260045260246000fd5b60006020828403121561122257600080fd5b81516111a581611061565b634e487b7160e01b600052601160045260246000fd5b6000600182016112555761125561122d565b5060010190565b60005b8381101561127757818101518382015260200161125f565b50506000910152565b602081526000825180602084015261129f81604085016020870161125c565b601f01601f19169190910160400192915050565b600082516112c581846020870161125c565b9190910192915050565b6000602082840312156112e157600080fd5b5051919050565b808202811582820484141761038c5761038c61122d565b60008261131c57634e487b7160e01b600052601260045260246000fd5b50049056fea2646970667358221220d5177e8d189d42ffbb9f2ac1bd0819e6e2ebd7dee70c764ddd2cac4f8a178d7164736f6c63430008130033",
  "linkReferences": {},
  "deployedLinkReferences": {}
}