{
  "_format": "hh-sol-artifact-1",
  "contractName": "DIAPriceOracle",
  "sourceName": "contracts/oracles/DIAPriceOracle.sol",
  "abi": [
    {
      "anonymous": false,
      "inputs": [
        {
          "indexed": true,
          "internalType": "address",
          "name": "nftContract",
          "type": "address"
        },
        {
          "indexed": true,
          "internalType": "uint256",
          "name": "tokenId",
          "type": "uint256"
        },
        {
          "indexed": false,
          "internalType": "uint256",
          "name": "price",
          "type": "uint256"
        }
      ],
      "name": "CustomPriceSet",
      "type": "event"
    },
    {
      "anonymous": false,
      "inputs": [
        {
          "indexed": true,
          "internalType": "address",
          "name": "previousOwner",
          "type": "address"
        },
        {
          "indexed": true,
          "internalType": "address",
          "name": "newOwner",
          "type": "address"
        }
      ],
      "name": "OwnershipTransferred",
      "type": "event"
    },
    {
      "anonymous": false,
      "inputs": [
        {
          "indexed": true,
          "internalType": "address",
          "name": "nftContract",
          "type": "address"
        },
        {
          "indexed": true,
          "internalType": "uint256",
          "name": "tokenId",
          "type": "uint256"
        },
        {
          "indexed": false,
          "internalType": "uint256",
          "name": "price",
          "type": "uint256"
        }
      ],
      "name": "PriceFetched",
      "type": "event"
    },
    {
      "inputs": [],
      "name": "DEFAULT_PRICE_PER_SECOND",
      "outputs": [
        {
          "internalType": "uint256",
          "name": "",
          "type": "uint256"
        }
      ],
      "stateMutability": "view",
      "type": "function"
    },
    {
      "inputs": [],
      "name": "DIA_ORACLE",
      "outputs": [
        {
          "internalType": "address",
          "name": "",
          "type": "address"
        }
      ],
      "stateMutability": "view",
      "type": "function"
    },
    {
      "inputs": [],
      "name": "MAX_PRICE_PER_SECOND",
      "outputs": [
        {
          "internalType": "uint256",
          "name": "",
          "type": "uint256"
        }
      ],
      "stateMutability": "view",
      "type": "function"
    },
    {
      "inputs": [],
      "name": "MIN_PRICE_PER_SECOND",
      "outputs": [
        {
          "internalType": "uint256",
          "name": "",
          "type": "uint256"
        }
      ],
      "stateMutability": "view",
      "type": "function"
    },
    {
      "inputs": [
        {
          "internalType": "address",
          "name": "",
          "type": "address"
        }
      ],
      "name": "basePriceMultipliers",
      "outputs": [
        {
          "internalType": "uint256",
          "name": "",
          "type": "uint256"
        }
      ],
      "stateMutability": "view",
      "type": "function"
    },
    {
      "inputs": [
        {
          "internalType": "address[]",
          "name": "nftContracts",
          "type": "address[]"
        },
        {
          "internalType": "uint256[]",
          "name": "tokenIds",
          "type": "uint256[]"
        },
        {
          "internalType": "uint256[]",
          "name": "prices",
          "type": "uint256[]"
        }
      ],
      "name": "batchSetCustomPrices",
      "outputs": [],
      "stateMutability": "nonpayable",
      "type": "function"
    },
    {
      "inputs": [
        {
          "internalType": "address",
          "name": "",
          "type": "address"
        },
        {
          "internalType": "uint256",
          "name": "",
          "type": "uint256"
        }
      ],
      "name": "customPrices",
      "outputs": [
        {
          "internalType": "uint256",
          "name": "",
          "type": "uint256"
        }
      ],
      "stateMutability": "view",
      "type": "function"
    },
    {
      "inputs": [],
      "name": "emergencyWithdraw",
      "outputs": [],
      "stateMutability": "nonpayable",
      "type": "function"
    },
    {
      "inputs": [
        {
          "internalType": "address",
          "name": "nftContract",
          "type": "address"
        },
        {
          "internalType": "uint256",
          "name": "tokenId",
          "type": "uint256"
        }
      ],
      "name": "getEstimatedPrice",
      "outputs": [
        {
          "internalType": "uint256",
          "name": "pricePerSecond",
          "type": "uint256"
        }
      ],
      "stateMutability": "view",
      "type": "function"
    },
    {
      "inputs": [
        {
          "internalType": "address",
          "name": "nftContract",
          "type": "address"
        },
        {
          "internalType": "uint256",
          "name": "tokenId",
          "type": "uint256"
        }
      ],
      "name": "getLastUpdated",
      "outputs": [
        {
          "internalType": "uint256",
          "name": "timestamp",
          "type": "uint256"
        }
      ],
      "stateMutability": "view",
      "type": "function"
    },
    {
      "inputs": [
        {
          "internalType": "address",
          "name": "nftContract",
          "type": "address"
        },
        {
          "internalType": "uint256",
          "name": "tokenId",
          "type": "uint256"
        }
      ],
      "name": "getPrice",
      "outputs": [
        {
          "internalType": "uint256",
          "name": "pricePerSecond",
          "type": "uint256"
        }
      ],
      "stateMutability": "payable",
      "type": "function"
    },
    {
      "inputs": [],
      "name": "oracleFee",
      "outputs": [
        {
          "internalType": "uint256",
          "name": "",
          "type": "uint256"
        }
      ],
      "stateMutability": "view",
      "type": "function"
    },
    {
      "inputs": [],
      "name": "owner",
      "outputs": [
        {
          "internalType": "address",
          "name": "",
          "type": "address"
        }
      ],
      "stateMutability": "view",
      "type": "function"
    },
    {
      "inputs": [],
      "name": "renounceOwnership",
      "outputs": [],
      "stateMutability": "nonpayable",
      "type": "function"
    },
    {
      "inputs": [
        {
          "internalType": "address",
          "name": "nftContract",
          "type": "address"
        },
        {
          "internalType": "uint256",
          "name": "multiplier",
          "type": "uint256"
        }
      ],
      "name": "setBasePriceMultiplier",
      "outputs": [],
      "stateMutability": "nonpayable",
      "type": "function"
    },
    {
      "inputs": [
        {
          "internalType": "address",
          "name": "nftContract",
          "type": "address"
        },
        {
          "internalType": "uint256",
          "name": "tokenId",
          "type": "uint256"
        },
        {
          "internalType": "uint256",
          "name": "price",
          "type": "uint256"
        }
      ],
      "name": "setCustomPrice",
      "outputs": [],
      "stateMutability": "nonpayable",
      "type": "function"
    },
    {
      "inputs": [
        {
          "internalType": "uint256",
          "name": "fee",
          "type": "uint256"
        }
      ],
      "name": "setOracleFee",
      "outputs": [],
      "stateMutability": "nonpayable",
      "type": "function"
    },
    {
      "inputs": [
        {
          "internalType": "address",
          "name": "newOwner",
          "type": "address"
        }
      ],
      "name": "transferOwnership",
      "outputs": [],
      "stateMutability": "nonpayable",
      "type": "function"
    },
    {
      "inputs": [
        {
          "internalType": "address",
          "name": "nftContract",
          "type": "address"
        },
        {
          "internalType": "uint256",
          "name": "tokenId",
          "type": "uint256"
        },
        {
          "internalType": "uint256",
          "name": "newPrice",
          "type": "uint256"
        }
      ],
      "name": "updatePrice",
      "outputs": [],
      "stateMutability": "nonpayable",
      "type": "function"
    },
    {
      "inputs": [],
      "name": "withdrawFees",
      "outputs": [],
      "stateMutability": "nonpayable",
      "type": "function"
    }
  ],
  "bytecode": "0x608060405266038d7ea4c6800060035534801561001b57600080fd5b506100253361002a565b61007a565b600080546001600160a01b038381166001600160a01b0319831681178455604051919092169283917f8be0079c531659141344cd1fd0a4f28419497f9722a3daafe3b4186f6b6457e09190a35050565b6112cd806100896000396000f3fe60806040526004361061011f5760003560e01c8063b6d9ef60116100a0578063e57d6fb711610064578063e57d6fb714610323578063f2054a4314610343578063f2fde38b1461035f578063f9cd3ceb1461037f578063ff1e0ebe1461039557600080fd5b8063b6d9ef601461028d578063bdcfa7d9146102ad578063d743bf80146102cd578063db2e21bc146102e6578063e5576982146102fb57600080fd5b8063588a0e6b116100e7578063588a0e6b146101c1578063715018a6146101f95780638b15fac21461020e5780638ca1dbfd1461023b5780638da5cb5b1461025b57600080fd5b806302da448d146101245780633b05166d14610157578063449e815d14610179578063464afcb91461018c578063476343ee146101ac575b600080fd5b34801561013057600080fd5b5061014461013f366004610fec565b6103af565b6040519081526020015b60405180910390f35b34801561016357600080fd5b50610177610172366004611064565b6103b7565b005b610144610187366004610fec565b61078e565b34801561019857600080fd5b506101446101a7366004610fec565b610a23565b3480156101b857600080fd5b50610177610b06565b3480156101cd57600080fd5b506101446101dc366004610fec565b600260209081526000928352604080842090915290825290205481565b34801561020557600080fd5b50610177610b8f565b34801561021a57600080fd5b506101446102293660046110fe565b60016020526000908152604090205481565b34801561024757600080fd5b50610177610256366004611122565b610ba3565b34801561026757600080fd5b506000546001600160a01b03165b6040516001600160a01b03909116815260200161014e565b34801561029957600080fd5b506101776102a8366004611157565b610d1a565b3480156102b957600080fd5b506101776102c8366004610fec565b610d6d565b3480156102d957600080fd5b5061014464e8d4a5100081565b3480156102f257600080fd5b50610177610deb565b34801561030757600080fd5b5061027573ba0e0750a56e995506ca458b2bdd752754cf39c481565b34801561032f57600080fd5b5061017761033e366004611122565b610e30565b34801561034f57600080fd5b50610144670de0b6b3a764000081565b34801561036b57600080fd5b5061017761037a3660046110fe565b610eb7565b34801561038b57600080fd5b5061014460035481565b3480156103a157600080fd5b50610144655af3107a400081565b425b92915050565b84831480156103c557508281145b61040e5760405162461bcd60e51b8152602060048201526015602482015274082e4e4c2f240d8cadccee8d040dad2e6dac2e8c6d605b1b60448201526064015b60405180910390fd5b60005b858110156107855764e8d4a5100083838381811061043157610431611170565b90506020020135101580156104665750670de0b6b3a764000083838381811061045c5761045c611170565b9050602002013511155b6104a75760405162461bcd60e51b81526020600482015260126024820152715072696365206f7574206f662072616e676560701b6044820152606401610405565b8686828181106104b9576104b9611170565b90506020020160208101906104ce91906110fe565b6001600160a01b0316638da5cb5b6040518163ffffffff1660e01b8152600401602060405180830381865afa15801561050b573d6000803e3d6000fd5b505050506040513d601f19601f8201168201806040525081019061052f9190611186565b6001600160a01b0316336001600160a01b0316148061060b575086868281811061055b5761055b611170565b905060200201602081019061057091906110fe565b6001600160a01b0316636352211e86868481811061059057610590611170565b905060200201356040518263ffffffff1660e01b81526004016105b591815260200190565b602060405180830381865afa1580156105d2573d6000803e3d6000fd5b505050506040513d601f19601f820116820180604052508101906105f69190611186565b6001600160a01b0316336001600160a01b0316145b6106485760405162461bcd60e51b815260206004820152600e60248201526d139bdd08185d5d1a1bdc9a5e995960921b6044820152606401610405565b82828281811061065a5761065a611170565b905060200201356002600089898581811061067757610677611170565b905060200201602081019061068c91906110fe565b6001600160a01b03166001600160a01b0316815260200190815260200160002060008787858181106106c0576106c0611170565b905060200201358152602001908152602001600020819055508484828181106106eb576106eb611170565b9050602002013587878381811061070457610704611170565b905060200201602081019061071991906110fe565b6001600160a01b03167f36fc8aca0832d41d6924f8446c7ec6fa6b97a7f81d3d6c0b828d892fba66cc6085858581811061075557610755611170565b9050602002013560405161076b91815260200190565b60405180910390a38061077d816111b9565b915050610411565b50505050505050565b60006003543410156107e25760405162461bcd60e51b815260206004820152601760248201527f496e73756666696369656e74206f7261636c65206665650000000000000000006044820152606401610405565b6001600160a01b03831660009081526002602090815260408083208584529091529020541561083557506001600160a01b03821660009081526002602090815260408083208484529091529020546103b1565b604051634e46542f60e01b60208201526bffffffffffffffffffffffff19606085901b166024820152602f60f81b603882015260398101839052600090819073ba0e0750a56e995506ca458b2bdd752754cf39c490349060590160408051601f19818403018152908290526108ac916024016111f6565b60408051601f198184030181529181526020820180516001600160e01b03166304b01c2560e51b179052516108e19190611229565b60006040518083038185875af1925050503d806000811461091e576040519150601f19603f3d011682016040523d82523d6000602084013e610923565b606091505b50915091506000821561094b57818060200190518101906109449190611245565b9050610954565b50655af3107a40005b6001600160a01b038616600090815260016020526040812054908190036109805750670de0b6b3a76400005b670de0b6b3a7640000610993828461125e565b61099d9190611275565b945064e8d4a510008510156109b95764e8d4a5100094506109d5565b670de0b6b3a76400008511156109d557670de0b6b3a764000094505b85876001600160a01b03167f7bf83000b5e0a2fef3d14c0ab566f01d854ebb59ead14177f11b6c2e966e6cbe87604051610a1191815260200190565b60405180910390a35050505092915050565b6001600160a01b038216600090815260026020908152604080832084845290915281205415610a7657506001600160a01b03821660009081526002602090815260408083208484529091529020546103b1565b6001600160a01b03831660009081526001602052604081205490819003610aa25750670de0b6b3a76400005b6509184e72a000670de0b6b3a7640000610abc838361125e565b610ac69190611275565b925064e8d4a51000831015610ae25764e8d4a510009250610afe565b670de0b6b3a7640000831115610afe57670de0b6b3a764000092505b505092915050565b610b0e610f2d565b4780610b525760405162461bcd60e51b81526020600482015260136024820152724e6f206665657320746f20776974686472617760681b6044820152606401610405565b600080546040516001600160a01b039091169183156108fc02918491818181858888f19350505050158015610b8b573d6000803e3d6000fd5b5050565b610b97610f2d565b610ba16000610f87565b565b64e8d4a510008110158015610bc05750670de0b6b3a76400008111155b610c015760405162461bcd60e51b81526020600482015260126024820152715072696365206f7574206f662072616e676560701b6044820152606401610405565b6040516331a9108f60e11b8152600481018390526001600160a01b03841690636352211e90602401602060405180830381865afa158015610c46573d6000803e3d6000fd5b505050506040513d601f19601f82011682018060405250810190610c6a9190611186565b6001600160a01b0316336001600160a01b031614610cbb5760405162461bcd60e51b815260206004820152600e60248201526d139bdd08185d5d1a1bdc9a5e995960921b6044820152606401610405565b6001600160a01b038316600081815260026020908152604080832086845282529182902084905590518381528492917f36fc8aca0832d41d6924f8446c7ec6fa6b97a7f81d3d6c0b828d892fba66cc60910160405180910390a3505050565b610d22610f2d565b662386f26fc10000811115610d685760405162461bcd60e51b815260206004820152600c60248201526b08ccaca40e8dede40d0d2ced60a31b6044820152606401610405565b600355565b610d75610f2d565b60008111610dcf5760405162461bcd60e51b815260206004820152602160248201527f4d756c7469706c696572206d7573742062652067726561746572207468616e206044820152600360fc1b6064820152608401610405565b6001600160a01b03909116600090815260016020526040902055565b610df3610f2d565b600080546040516001600160a01b03909116914780156108fc02929091818181858888f19350505050158015610e2d573d6000803e3d6000fd5b50565b610e38610f2d565b64e8d4a510008110158015610e555750670de0b6b3a76400008111155b610e915760405162461bcd60e51b815260206004820152600d60248201526c496e76616c696420707269636560981b6044820152606401610405565b6001600160a01b0390921660009081526002602090815260408083209383529290522055565b610ebf610f2d565b6001600160a01b038116610f245760405162461bcd60e51b815260206004820152602660248201527f4f776e61626c653a206e6577206f776e657220697320746865207a65726f206160448201526564647265737360d01b6064820152608401610405565b610e2d81610f87565b6000546001600160a01b03163314610ba15760405162461bcd60e51b815260206004820181905260248201527f4f776e61626c653a2063616c6c6572206973206e6f7420746865206f776e65726044820152606401610405565b600080546001600160a01b038381166001600160a01b0319831681178455604051919092169283917f8be0079c531659141344cd1fd0a4f28419497f9722a3daafe3b4186f6b6457e09190a35050565b6001600160a01b0381168114610e2d57600080fd5b60008060408385031215610fff57600080fd5b823561100a81610fd7565b946020939093013593505050565b60008083601f84011261102a57600080fd5b50813567ffffffffffffffff81111561104257600080fd5b6020830191508360208260051b850101111561105d57600080fd5b9250929050565b6000806000806000806060878903121561107d57600080fd5b863567ffffffffffffffff8082111561109557600080fd5b6110a18a838b01611018565b909850965060208901359150808211156110ba57600080fd5b6110c68a838b01611018565b909650945060408901359150808211156110df57600080fd5b506110ec89828a01611018565b979a9699509497509295939492505050565b60006020828403121561111057600080fd5b813561111b81610fd7565b9392505050565b60008060006060848603121561113757600080fd5b833561114281610fd7565b95602085013595506040909401359392505050565b60006020828403121561116957600080fd5b5035919050565b634e487b7160e01b600052603260045260246000fd5b60006020828403121561119857600080fd5b815161111b81610fd7565b634e487b7160e01b600052601160045260246000fd5b6000600182016111cb576111cb6111a3565b5060010190565b60005b838110156111ed5781810151838201526020016111d5565b50506000910152565b60208152600082518060208401526112158160408501602087016111d2565b601f01601f19169190910160400192915050565b6000825161123b8184602087016111d2565b9190910192915050565b60006020828403121561125757600080fd5b5051919050565b80820281158282048414176103b1576103b16111a3565b60008261129257634e487b7160e01b600052601260045260246000fd5b50049056fea2646970667358221220ee78454199ab4da72a53d5f04fca79ad5d527f562bfe369f5ea35513070ea93664736f6c63430008130033",
  "linkReferences": {},
  "deployedLinkReferences": {}
}