{
  "_format": "hh-sol-artifact-1",
  "contractName": "NFTFlowGasOptimized",
  "sourceName": "contracts/NFTFlowGasOptimized.sol",
  "abi": [
    {
      "inputs": [
        {
          "internalType": "address",
          "name": "_reputationSystem",
          "type": "address"
        }
      ],
      "stateMutability": "nonpayable",
      "type": "constructor"
    },
    {
      "anonymous": false,
      "inputs": [
        {
          "indexed": true,
          "internalType": "address",
          "name": "previousOwner",
          "type": "address"
        },
        {
          "indexed": true,
          "internalType": "address",
          "name": "newOwner",
          "type": "address"
        }
      ],
      "name": "OwnershipTransferred",
      "type": "event"
    },
    {
      "anonymous": false,
      "inputs": [
        {
          "indexed": true,
          "internalType": "address",
          "name": "nftContract",
          "type": "address"
        },
        {
          "indexed": true,
          "internalType": "uint256",
          "name": "tokenId",
          "type": "uint256"
        },
        {
          "indexed": true,
          "internalType": "address",
          "name": "lender",
          "type": "address"
        },
        {
          "indexed": false,
          "internalType": "address",
          "name": "tenant",
          "type": "address"
        }
      ],
      "name": "RentalCompleted",
      "type": "event"
    },
    {
      "anonymous": false,
      "inputs": [
        {
          "indexed": true,
          "internalType": "address",
          "name": "nftContract",
          "type": "address"
        },
        {
          "indexed": true,
          "internalType": "uint256",
          "name": "tokenId",
          "type": "uint256"
        },
        {
          "indexed": true,
          "internalType": "address",
          "name": "lender",
          "type": "address"
        },
        {
          "indexed": false,
          "internalType": "address",
          "name": "tenant",
          "type": "address"
        },
        {
          "indexed": false,
          "internalType": "uint64",
          "name": "expires",
          "type": "uint64"
        },
        {
          "indexed": false,
          "internalType": "uint256",
          "name": "price",
          "type": "uint256"
        }
      ],
      "name": "RentalCreated",
      "type": "event"
    },
    {
      "inputs": [],
      "name": "MAX_RENTAL_DURATION",
      "outputs": [
        {
          "internalType": "uint256",
          "name": "",
          "type": "uint256"
        }
      ],
      "stateMutability": "view",
      "type": "function"
    },
    {
      "inputs": [],
      "name": "MULTICALL_V3",
      "outputs": [
        {
          "internalType": "address",
          "name": "",
          "type": "address"
        }
      ],
      "stateMutability": "view",
      "type": "function"
    },
    {
      "inputs": [
        {
          "internalType": "address",
          "name": "nftContract",
          "type": "address"
        },
        {
          "internalType": "uint256",
          "name": "tokenId",
          "type": "uint256"
        }
      ],
      "name": "completeRental",
      "outputs": [],
      "stateMutability": "nonpayable",
      "type": "function"
    },
    {
      "inputs": [
        {
          "internalType": "address",
          "name": "nftContract",
          "type": "address"
        },
        {
          "internalType": "uint256",
          "name": "tokenId",
          "type": "uint256"
        },
        {
          "internalType": "address",
          "name": "user",
          "type": "address"
        },
        {
          "internalType": "uint64",
          "name": "expires",
          "type": "uint64"
        }
      ],
      "name": "createRentalCalls",
      "outputs": [
        {
          "components": [
            {
              "internalType": "address",
              "name": "target",
              "type": "address"
            },
            {
              "internalType": "bytes",
              "name": "callData",
              "type": "bytes"
            }
          ],
          "internalType": "struct IMultiCall.Call[]",
          "name": "",
          "type": "tuple[]"
        }
      ],
      "stateMutability": "view",
      "type": "function"
    },
    {
      "inputs": [
        {
          "internalType": "address",
          "name": "nftContract",
          "type": "address"
        },
        {
          "internalType": "uint256",
          "name": "tokenId",
          "type": "uint256"
        }
      ],
      "name": "emergencyRecoverNFT",
      "outputs": [],
      "stateMutability": "nonpayable",
      "type": "function"
    },
    {
      "inputs": [
        {
          "components": [
            {
              "internalType": "address",
              "name": "target",
              "type": "address"
            },
            {
              "internalType": "bytes",
              "name": "callData",
              "type": "bytes"
            }
          ],
          "internalType": "struct IMultiCall.Call[]",
          "name": "calls",
          "type": "tuple[]"
        }
      ],
      "name": "multiCall",
      "outputs": [
        {
          "internalType": "bytes[]",
          "name": "results",
          "type": "bytes[]"
        }
      ],
      "stateMutability": "nonpayable",
      "type": "function"
    },
    {
      "inputs": [],
      "name": "owner",
      "outputs": [
        {
          "internalType": "address",
          "name": "",
          "type": "address"
        }
      ],
      "stateMutability": "view",
      "type": "function"
    },
    {
      "inputs": [],
      "name": "protocolFeePercentage",
      "outputs": [
        {
          "internalType": "uint256",
          "name": "",
          "type": "uint256"
        }
      ],
      "stateMutability": "view",
      "type": "function"
    },
    {
      "inputs": [],
      "name": "renounceOwnership",
      "outputs": [],
      "stateMutability": "nonpayable",
      "type": "function"
    },
    {
      "inputs": [
        {
          "internalType": "address",
          "name": "nftContract",
          "type": "address"
        },
        {
          "internalType": "uint256",
          "name": "tokenId",
          "type": "uint256"
        },
        {
          "internalType": "uint64",
          "name": "expires",
          "type": "uint64"
        },
        {
          "internalType": "uint256",
          "name": "price",
          "type": "uint256"
        }
      ],
      "name": "rentNFT",
      "outputs": [],
      "stateMutability": "payable",
      "type": "function"
    },
    {
      "inputs": [
        {
          "internalType": "address",
          "name": "",
          "type": "address"
        },
        {
          "internalType": "uint256",
          "name": "",
          "type": "uint256"
        }
      ],
      "name": "rentals",
      "outputs": [
        {
          "internalType": "address",
          "name": "lender",
          "type": "address"
        },
        {
          "internalType": "address",
          "name": "tenant",
          "type": "address"
        },
        {
          "internalType": "uint64",
          "name": "expires",
          "type": "uint64"
        },
        {
          "internalType": "uint256",
          "name": "price",
          "type": "uint256"
        },
        {
          "internalType": "bool",
          "name": "active",
          "type": "bool"
        }
      ],
      "stateMutability": "view",
      "type": "function"
    },
    {
      "inputs": [],
      "name": "reputationSystem",
      "outputs": [
        {
          "internalType": "contract IReputationSystem",
          "name": "",
          "type": "address"
        }
      ],
      "stateMutability": "view",
      "type": "function"
    },
    {
      "inputs": [
        {
          "internalType": "address",
          "name": "user",
          "type": "address"
        }
      ],
      "name": "requiresCollateral",
      "outputs": [
        {
          "internalType": "bool",
          "name": "",
          "type": "bool"
        }
      ],
      "stateMutability": "view",
      "type": "function"
    },
    {
      "inputs": [
        {
          "internalType": "uint256",
          "name": "_feePercentage",
          "type": "uint256"
        }
      ],
      "name": "setProtocolFeePercentage",
      "outputs": [],
      "stateMutability": "nonpayable",
      "type": "function"
    },
    {
      "inputs": [
        {
          "internalType": "address",
          "name": "newOwner",
          "type": "address"
        }
      ],
      "name": "transferOwnership",
      "outputs": [],
      "stateMutability": "nonpayable",
      "type": "function"
    },
    {
      "inputs": [],
      "name": "withdrawFees",
      "outputs": [],
      "stateMutability": "nonpayable",
      "type": "function"
    }
  ],
  "bytecode": "0x608060405260fa60045534801561001557600080fd5b5060405161177c38038061177c833981016040819052610034916100b9565b600160005561004233610067565b600380546001600160a01b0319166001600160a01b03929092169190911790556100e9565b600180546001600160a01b038381166001600160a01b0319831681179093556040519116919082907f8be0079c531659141344cd1fd0a4f28419497f9722a3daafe3b4186f6b6457e090600090a35050565b6000602082840312156100cb57600080fd5b81516001600160a01b03811681146100e257600080fd5b9392505050565b611684806100f86000396000f3fe6080604052600436106100f35760003560e01c80638e50e5091161008a578063eeade3a211610059578063eeade3a21461032d578063f2fde38b1461035d578063f9c390911461037d578063fa1e1ffc1461039057600080fd5b80638e50e509146102a2578063bdedd705146102b8578063d8a5e936146102e5578063df0525d71461030557600080fd5b80634f65473c116100c65780634f65473c146102125780636587eda114610237578063715018a61461026f5780638da5cb5b1461028457600080fd5b8063090fc58b146100f85780631e8c9926146101ae5780632466234b146101db578063476343ee146101fd575b600080fd5b34801561010457600080fd5b50610166610113366004611007565b6002602081815260009384526040808520909152918352912080546001820154928201546003909201546001600160a01b039182169391821692600160a01b9092046001600160401b0316919060ff1685565b604080516001600160a01b0396871681529590941660208601526001600160401b039092169284019290925260608301919091521515608082015260a0015b60405180910390f35b3480156101ba57600080fd5b506101ce6101c936600461104f565b6103b0565b6040516101a591906110f0565b3480156101e757600080fd5b506101fb6101f6366004611007565b6104f0565b005b34801561020957600080fd5b506101fb610654565b34801561021e57600080fd5b5061022962278d0081565b6040519081526020016101a5565b34801561024357600080fd5b50600354610257906001600160a01b031681565b6040516001600160a01b0390911681526020016101a5565b34801561027b57600080fd5b506101fb610698565b34801561029057600080fd5b506001546001600160a01b0316610257565b3480156102ae57600080fd5b5061022960045481565b3480156102c457600080fd5b506102d86102d3366004611225565b6106ac565b6040516101a59190611360565b3480156102f157600080fd5b506101fb6103003660046113c2565b610734565b34801561031157600080fd5b5061025773841b8199e6d3db3c6f264f6c2bd8848b3ca6422381565b34801561033957600080fd5b5061034d6103483660046113db565b61078b565b60405190151581526020016101a5565b34801561036957600080fd5b506101fb6103783660046113db565b610800565b6101fb61038b3660046113f8565b610876565b34801561039c57600080fd5b506101fb6103ab366004611007565b610ced565b604080516002808252606082810190935260009190816020015b6040805180820190915260008152606060208201528152602001906001900390816103ca579050506040805180820182526001600160a01b038916815290513060248201526044810188905291925090602082019060640160408051601f198184030181529190526020810180516001600160e01b031663095ea7b360e01b1790529052815182906000906104615761046161143e565b60200260200101819052506040518060400160405280876001600160a01b0316815260200186868660405160240161049b93929190611454565b60408051601f198184030181529190526020810180516001600160e01b03166370182b2f60e11b17905290528151829060019081106104dc576104dc61143e565b602090810291909101015295945050505050565b6104f8610eed565b6001600160a01b03821660009081526002602090815260408083208484529091529020600381015460ff166105675760405162461bcd60e51b815260206004820152601060248201526f139bc81858dd1a5d99481c995b9d185b60821b60448201526064015b60405180910390fd5b600181015461058990600160a01b90046001600160401b031662093a80611492565b6001600160401b031642116105e05760405162461bcd60e51b815260206004820152601b60248201527f5265636f7665727920706572696f64206e6f7420726561636865640000000000604482015260640161055e565b60038101805460ff191690556040516370182b2f60e11b81526001600160a01b0384169063e030565e9061061d9085906000908190600401611454565b600060405180830381600087803b15801561063757600080fd5b505af115801561064b573d6000803e3d6000fd5b50505050505050565b61065c610eed565b6001546040516001600160a01b03909116904780156108fc02916000818181858888f19350505050158015610695573d6000803e3d6000fd5b50565b6106a0610eed565b6106aa6000610f47565b565b604051631296dd2160e11b815260609073841b8199e6d3db3c6f264f6c2bd8848b3ca642239063252dba42906106e69085906004016110f0565b6000604051808303816000875af1158015610705573d6000803e3d6000fd5b505050506040513d6000823e601f3d908101601f1916820160405261072d91908101906114b9565b9392505050565b61073c610eed565b6103e88111156107865760405162461bcd60e51b81526020600482015260156024820152744665652063616e6e6f74206578636565642031302560581b604482015260640161055e565b600455565b600354604051637756f1d160e11b81526001600160a01b038381166004830152600092169063eeade3a290602401602060405180830381865afa1580156107d6573d6000803e3d6000fd5b505050506040513d601f19601f820116820180604052508101906107fa91906115b0565b92915050565b610808610eed565b6001600160a01b03811661086d5760405162461bcd60e51b815260206004820152602660248201527f4f776e61626c653a206e6577206f776e657220697320746865207a65726f206160448201526564647265737360d01b606482015260840161055e565b61069581610f47565b61087e610f99565b42826001600160401b0316116108e65760405162461bcd60e51b815260206004820152602760248201527f52656e74616c2065787069726174696f6e206d75737420626520696e207468656044820152662066757475726560c81b606482015260840161055e565b6108f362278d00426115d2565b826001600160401b0316111561094b5760405162461bcd60e51b815260206004820152601860248201527f52656e74616c206475726174696f6e20746f6f206c6f6e670000000000000000604482015260640161055e565b803410156109925760405162461bcd60e51b8152602060048201526014602482015273125b9cdd59999a58da595b9d081c185e5b595b9d60621b604482015260640161055e565b6001600160a01b03841660009081526002602090815260408083208684529091529020600381015460ff1615806109dd5750600181015442600160a01b9091046001600160401b0316105b610a1e5760405162461bcd60e51b815260206004820152601260248201527113919508185b1c9958591e481c995b9d195960721b604482015260640161055e565b6040516331a9108f60e11b8152600481018590526000906001600160a01b03871690636352211e90602401602060405180830381865afa158015610a66573d6000803e3d6000fd5b505050506040513d601f19601f82011682018060405250810190610a8a91906115e5565b90506001600160a01b038116610ad05760405162461bcd60e51b815260206004820152600b60248201526a125b9d985b1a590813919560aa1b604482015260640161055e565b6000610ade878733886103b0565b9050610ae9816106ac565b506040518060a00160405280836001600160a01b03168152602001336001600160a01b03168152602001866001600160401b031681526020018581526020016001151581525060026000896001600160a01b03166001600160a01b03168152602001908152602001600020600088815260200190815260200160002060008201518160000160006101000a8154816001600160a01b0302191690836001600160a01b0316021790555060208201518160010160006101000a8154816001600160a01b0302191690836001600160a01b0316021790555060408201518160010160146101000a8154816001600160401b0302191690836001600160401b031602179055506060820151816002015560808201518160030160006101000a81548160ff021916908315150217905550905050600061271060045486610c2c9190611602565b610c369190611619565b90506000610c44828761163b565b6040519091506001600160a01b0385169082156108fc029083906000818181858888f19350505050158015610c7d573d6000803e3d6000fd5b50604080513381526001600160401b03891660208201529081018790526001600160a01b03808616918a918c16907f7f79e7bfb2f738fb26d15b9e98be80b45f28239fb586d2b3613fb6375b104b929060600160405180910390a45050505050610ce76001600055565b50505050565b6001600160a01b03821660009081526002602090815260408083208484529091529020600381015460ff16610d585760405162461bcd60e51b815260206004820152601160248201527052656e74616c206e6f742061637469766560781b604482015260640161055e565b6001810154600160a01b90046001600160401b0316421015610dbc5760405162461bcd60e51b815260206004820152601760248201527f52656e74616c20706572696f64206e6f7420656e646564000000000000000000604482015260640161055e565b8054600182015460038301805460ff191690556040516370182b2f60e11b81526001600160a01b03928316929182169186169063e030565e90610e089087906000908190600401611454565b600060405180830381600087803b158015610e2257600080fd5b505af1158015610e36573d6000803e3d6000fd5b50506003546040516371609f1960e11b81526001600160a01b03858116600483015260016024830152909116925063e2c13e329150604401600060405180830381600087803b158015610e8857600080fd5b505af1158015610e9c573d6000803e3d6000fd5b50506040516001600160a01b03848116825280861693508792508816907f61d5e144a26a89ff43bdf429b2d2a5f750101a41c143862789432112d1e502c29060200160405180910390a45050505050565b6001546001600160a01b031633146106aa5760405162461bcd60e51b815260206004820181905260248201527f4f776e61626c653a2063616c6c6572206973206e6f7420746865206f776e6572604482015260640161055e565b600180546001600160a01b038381166001600160a01b0319831681179093556040519116919082907f8be0079c531659141344cd1fd0a4f28419497f9722a3daafe3b4186f6b6457e090600090a35050565b600260005403610feb5760405162461bcd60e51b815260206004820152601f60248201527f5265656e7472616e637947756172643a207265656e7472616e742063616c6c00604482015260640161055e565b6002600055565b6001600160a01b038116811461069557600080fd5b6000806040838503121561101a57600080fd5b823561102581610ff2565b946020939093013593505050565b80356001600160401b038116811461104a57600080fd5b919050565b6000806000806080858703121561106557600080fd5b843561107081610ff2565b935060208501359250604085013561108781610ff2565b915061109560608601611033565b905092959194509250565b60005b838110156110bb5781810151838201526020016110a3565b50506000910152565b600081518084526110dc8160208601602086016110a0565b601f01601f19169290920160200192915050565b60006020808301818452808551808352604092508286019150828160051b87010184880160005b8381101561115f57888303603f19018552815180516001600160a01b0316845287015187840187905261114c878501826110c4565b9588019593505090860190600101611117565b509098975050505050505050565b634e487b7160e01b600052604160045260246000fd5b604080519081016001600160401b03811182821017156111a5576111a561116d565b60405290565b604051601f8201601f191681016001600160401b03811182821017156111d3576111d361116d565b604052919050565b60006001600160401b038211156111f4576111f461116d565b5060051b60200190565b60006001600160401b038211156112175761121761116d565b50601f01601f191660200190565b6000602080838503121561123857600080fd5b82356001600160401b038082111561124f57600080fd5b818501915085601f83011261126357600080fd5b8135611276611271826111db565b6111ab565b81815260059190911b8301840190848101908883111561129557600080fd5b8585015b83811015611353578035858111156112b15760008081fd5b86016040818c03601f19018113156112c95760008081fd5b6112d1611183565b898301356112de81610ff2565b815282820135888111156112f25760008081fd5b8084019350508c603f8401126113085760008081fd5b89830135611318611271826111fe565b8181528e8483870101111561132d5760008081fd5b818486018d83013760009181018c0191909152818b015285525050918601918601611299565b5098975050505050505050565b6000602080830181845280855180835260408601915060408160051b870101925083870160005b828110156113b557603f198886030184526113a38583516110c4565b94509285019290850190600101611387565b5092979650505050505050565b6000602082840312156113d457600080fd5b5035919050565b6000602082840312156113ed57600080fd5b813561072d81610ff2565b6000806000806080858703121561140e57600080fd5b843561141981610ff2565b93506020850135925061142e60408601611033565b9396929550929360600135925050565b634e487b7160e01b600052603260045260246000fd5b9283526001600160a01b039190911660208301526001600160401b0316604082015260600190565b634e487b7160e01b600052601160045260246000fd5b6001600160401b038181168382160190808211156114b2576114b261147c565b5092915050565b60008060408084860312156114cd57600080fd5b835192506020808501516001600160401b03808211156114ec57600080fd5b818701915087601f83011261150057600080fd5b815161150e611271826111db565b81815260059190911b8301840190848101908a83111561152d57600080fd5b8585015b8381101561159e578051858111156115495760008081fd5b8601603f81018d1361155b5760008081fd5b8781015161156b611271826111fe565b8181528e8b8385010111156115805760008081fd5b61158f828b83018d86016110a0565b85525050918601918601611531565b50809750505050505050509250929050565b6000602082840312156115c257600080fd5b8151801515811461072d57600080fd5b808201808211156107fa576107fa61147c565b6000602082840312156115f757600080fd5b815161072d81610ff2565b80820281158282048414176107fa576107fa61147c565b60008261163657634e487b7160e01b600052601260045260246000fd5b500490565b818103818111156107fa576107fa61147c56fea2646970667358221220e527ecf6d8ec3ccf7d2359719342dd4beb9d56e711cdf3225eaea0636cd6aad364736f6c63430008130033",
  "linkReferences": {},
  "deployedLinkReferences": {}
}