{
  "_format": "hh-sol-artifact-1",
  "contractName": "NFTFlowCore",
  "sourceName": "contracts/NFTFlowCore.sol",
  "abi": [
    {
      "inputs": [
        {
          "internalType": "address",
          "name": "_paymentStreamFactory",
          "type": "address"
        },
        {
          "internalType": "address",
          "name": "_reputationSystem",
          "type": "address"
        },
        {
          "internalType": "address",
          "name": "_priceOracle",
          "type": "address"
        }
      ],
      "stateMutability": "nonpayable",
      "type": "constructor"
    },
    {
      "anonymous": false,
      "inputs": [
        {
          "indexed": true,
          "internalType": "bytes32",
          "name": "listingId",
          "type": "bytes32"
        },
        {
          "indexed": true,
          "internalType": "address",
          "name": "nftContract",
          "type": "address"
        },
        {
          "indexed": true,
          "internalType": "uint256",
          "name": "tokenId",
          "type": "uint256"
        },
        {
          "indexed": false,
          "internalType": "address",
          "name": "owner",
          "type": "address"
        },
        {
          "indexed": false,
          "internalType": "uint256",
          "name": "pricePerSecond",
          "type": "uint256"
        },
        {
          "indexed": false,
          "internalType": "uint256",
          "name": "minDuration",
          "type": "uint256"
        },
        {
          "indexed": false,
          "internalType": "uint256",
          "name": "maxDuration",
          "type": "uint256"
        }
      ],
      "name": "NFTListedForRent",
      "type": "event"
    },
    {
      "anonymous": false,
      "inputs": [
        {
          "indexed": true,
          "internalType": "bytes32",
          "name": "rentalId",
          "type": "bytes32"
        },
        {
          "indexed": true,
          "internalType": "address",
          "name": "nftContract",
          "type": "address"
        },
        {
          "indexed": true,
          "internalType": "uint256",
          "name": "tokenId",
          "type": "uint256"
        },
        {
          "indexed": false,
          "internalType": "address",
          "name": "tenant",
          "type": "address"
        },
        {
          "indexed": false,
          "internalType": "uint256",
          "name": "duration",
          "type": "uint256"
        },
        {
          "indexed": false,
          "internalType": "uint256",
          "name": "totalPrice",
          "type": "uint256"
        }
      ],
      "name": "NFTRented",
      "type": "event"
    },
    {
      "anonymous": false,
      "inputs": [
        {
          "indexed": true,
          "internalType": "address",
          "name": "previousOwner",
          "type": "address"
        },
        {
          "indexed": true,
          "internalType": "address",
          "name": "newOwner",
          "type": "address"
        }
      ],
      "name": "OwnershipTransferred",
      "type": "event"
    },
    {
      "anonymous": false,
      "inputs": [
        {
          "indexed": true,
          "internalType": "bytes32",
          "name": "rentalId",
          "type": "bytes32"
        },
        {
          "indexed": false,
          "internalType": "uint256",
          "name": "refundAmount",
          "type": "uint256"
        }
      ],
      "name": "RentalCancelled",
      "type": "event"
    },
    {
      "anonymous": false,
      "inputs": [
        {
          "indexed": true,
          "internalType": "bytes32",
          "name": "rentalId",
          "type": "bytes32"
        }
      ],
      "name": "RentalCompleted",
      "type": "event"
    },
    {
      "inputs": [],
      "name": "MAX_RENTAL_DURATION",
      "outputs": [
        {
          "internalType": "uint256",
          "name": "",
          "type": "uint256"
        }
      ],
      "stateMutability": "view",
      "type": "function"
    },
    {
      "inputs": [],
      "name": "MIN_RENTAL_DURATION",
      "outputs": [
        {
          "internalType": "uint256",
          "name": "",
          "type": "uint256"
        }
      ],
      "stateMutability": "view",
      "type": "function"
    },
    {
      "inputs": [
        {
          "internalType": "bytes32",
          "name": "rentalId",
          "type": "bytes32"
        }
      ],
      "name": "cancelRental",
      "outputs": [],
      "stateMutability": "nonpayable",
      "type": "function"
    },
    {
      "inputs": [
        {
          "internalType": "bytes32",
          "name": "rentalId",
          "type": "bytes32"
        }
      ],
      "name": "completeRental",
      "outputs": [],
      "stateMutability": "nonpayable",
      "type": "function"
    },
    {
      "inputs": [],
      "name": "emergencyWithdraw",
      "outputs": [],
      "stateMutability": "nonpayable",
      "type": "function"
    },
    {
      "inputs": [],
      "name": "getAvailableNFTs",
      "outputs": [
        {
          "components": [
            {
              "internalType": "address",
              "name": "nftContract",
              "type": "address"
            },
            {
              "internalType": "uint256",
              "name": "tokenId",
              "type": "uint256"
            },
            {
              "internalType": "address",
              "name": "owner",
              "type": "address"
            },
            {
              "internalType": "uint256",
              "name": "pricePerSecond",
              "type": "uint256"
            },
            {
              "internalType": "uint256",
              "name": "minDuration",
              "type": "uint256"
            },
            {
              "internalType": "uint256",
              "name": "maxDuration",
              "type": "uint256"
            },
            {
              "internalType": "uint256",
              "name": "collateralRequired",
              "type": "uint256"
            },
            {
              "internalType": "bool",
              "name": "active",
              "type": "bool"
            }
          ],
          "internalType": "struct NFTFlowCore.NFTListing[]",
          "name": "",
          "type": "tuple[]"
        }
      ],
      "stateMutability": "view",
      "type": "function"
    },
    {
      "inputs": [
        {
          "internalType": "address",
          "name": "user",
          "type": "address"
        }
      ],
      "name": "getUserRentals",
      "outputs": [
        {
          "internalType": "bytes32[]",
          "name": "",
          "type": "bytes32[]"
        }
      ],
      "stateMutability": "view",
      "type": "function"
    },
    {
      "inputs": [
        {
          "internalType": "address",
          "name": "nftContract",
          "type": "address"
        },
        {
          "internalType": "uint256",
          "name": "tokenId",
          "type": "uint256"
        },
        {
          "internalType": "uint256",
          "name": "pricePerSecond",
          "type": "uint256"
        },
        {
          "internalType": "uint256",
          "name": "minDuration",
          "type": "uint256"
        },
        {
          "internalType": "uint256",
          "name": "maxDuration",
          "type": "uint256"
        },
        {
          "internalType": "uint256",
          "name": "collateralRequired",
          "type": "uint256"
        }
      ],
      "name": "listNFTForRent",
      "outputs": [
        {
          "internalType": "bytes32",
          "name": "listingId",
          "type": "bytes32"
        }
      ],
      "stateMutability": "nonpayable",
      "type": "function"
    },
    {
      "inputs": [
        {
          "internalType": "bytes32",
          "name": "",
          "type": "bytes32"
        }
      ],
      "name": "listings",
      "outputs": [
        {
          "internalType": "address",
          "name": "nftContract",
          "type": "address"
        },
        {
          "internalType": "uint256",
          "name": "tokenId",
          "type": "uint256"
        },
        {
          "internalType": "address",
          "name": "owner",
          "type": "address"
        },
        {
          "internalType": "uint256",
          "name": "pricePerSecond",
          "type": "uint256"
        },
        {
          "internalType": "uint256",
          "name": "minDuration",
          "type": "uint256"
        },
        {
          "internalType": "uint256",
          "name": "maxDuration",
          "type": "uint256"
        },
        {
          "internalType": "uint256",
          "name": "collateralRequired",
          "type": "uint256"
        },
        {
          "internalType": "bool",
          "name": "active",
          "type": "bool"
        }
      ],
      "stateMutability": "view",
      "type": "function"
    },
    {
      "inputs": [],
      "name": "owner",
      "outputs": [
        {
          "internalType": "address",
          "name": "",
          "type": "address"
        }
      ],
      "stateMutability": "view",
      "type": "function"
    },
    {
      "inputs": [],
      "name": "paymentStreamFactory",
      "outputs": [
        {
          "internalType": "contract PaymentStream",
          "name": "",
          "type": "address"
        }
      ],
      "stateMutability": "view",
      "type": "function"
    },
    {
      "inputs": [],
      "name": "priceOracle",
      "outputs": [
        {
          "internalType": "contract IPriceOracle",
          "name": "",
          "type": "address"
        }
      ],
      "stateMutability": "view",
      "type": "function"
    },
    {
      "inputs": [],
      "name": "renounceOwnership",
      "outputs": [],
      "stateMutability": "nonpayable",
      "type": "function"
    },
    {
      "inputs": [
        {
          "internalType": "bytes32",
          "name": "listingId",
          "type": "bytes32"
        },
        {
          "internalType": "uint256",
          "name": "duration",
          "type": "uint256"
        }
      ],
      "name": "rentNFT",
      "outputs": [],
      "stateMutability": "payable",
      "type": "function"
    },
    {
      "inputs": [
        {
          "internalType": "bytes32",
          "name": "",
          "type": "bytes32"
        }
      ],
      "name": "rentals",
      "outputs": [
        {
          "internalType": "address",
          "name": "lender",
          "type": "address"
        },
        {
          "internalType": "address",
          "name": "tenant",
          "type": "address"
        },
        {
          "internalType": "address",
          "name": "nftContract",
          "type": "address"
        },
        {
          "internalType": "uint256",
          "name": "tokenId",
          "type": "uint256"
        },
        {
          "internalType": "uint256",
          "name": "startTime",
          "type": "uint256"
        },
        {
          "internalType": "uint256",
          "name": "endTime",
          "type": "uint256"
        },
        {
          "internalType": "uint256",
          "name": "totalPrice",
          "type": "uint256"
        },
        {
          "internalType": "uint256",
          "name": "paymentStreamId",
          "type": "uint256"
        },
        {
          "internalType": "bool",
          "name": "active",
          "type": "bool"
        }
      ],
      "stateMutability": "view",
      "type": "function"
    },
    {
      "inputs": [],
      "name": "reputationSystem",
      "outputs": [
        {
          "internalType": "contract ReputationSystem",
          "name": "",
          "type": "address"
        }
      ],
      "stateMutability": "view",
      "type": "function"
    },
    {
      "inputs": [
        {
          "internalType": "address",
          "name": "newOwner",
          "type": "address"
        }
      ],
      "name": "transferOwnership",
      "outputs": [],
      "stateMutability": "nonpayable",
      "type": "function"
    },
    {
      "inputs": [
        {
          "internalType": "address",
          "name": "newOracle",
          "type": "address"
        }
      ],
      "name": "updatePriceOracle",
      "outputs": [],
      "stateMutability": "nonpayable",
      "type": "function"
    },
    {
      "inputs": [
        {
          "internalType": "address",
          "name": "",
          "type": "address"
        }
      ],
      "name": "userReputation",
      "outputs": [
        {
          "internalType": "uint256",
          "name": "",
          "type": "uint256"
        }
      ],
      "stateMutability": "view",
      "type": "function"
    },
    {
      "inputs": [],
      "name": "withdraw",
      "outputs": [],
      "stateMutability": "nonpayable",
      "type": "function"
    },
    {
      "stateMutability": "payable",
      "type": "receive"
    }
  ],
  "bytecode": "0x60806040523480156200001157600080fd5b5060405162001946380380620019468339810160408190526200003491620000f6565b6001600055620000443362000087565b600580546001600160a01b039485166001600160a01b03199182161790915560068054938516938216939093179092556007805491909316911617905562000140565b600180546001600160a01b038381166001600160a01b0319831681179093556040519116919082907f8be0079c531659141344cd1fd0a4f28419497f9722a3daafe3b4186f6b6457e090600090a35050565b80516001600160a01b0381168114620000f157600080fd5b919050565b6000806000606084860312156200010c57600080fd5b6200011784620000d9565b92506200012760208501620000d9565b91506200013760408501620000d9565b90509250925092565b6117f680620001506000396000f3fe6080604052600436106101235760003560e01c8063715018a6116100a0578063d84b89cd11610064578063d84b89cd14610469578063db2e21bc1461022e578063e503bb0514610489578063f2fde38b146104b6578063fe8e8d53146104d657600080fd5b8063715018a61461028d5780637df8768e146102a25780638da5cb5b1461036f578063b7c399641461038d578063c18b8db4146103ad57600080fd5b80633b6702a1116100e75780633b6702a1146101f35780633ccfd60b1461022e5780634f65473c1461024357806351b1de1a1461025a5780636587eda11461026d57600080fd5b80630a60d6c81461012f57806322ac1fbe146101575780632630c12f1461018f57806332702c95146101af57806339d1fc82146101d157600080fd5b3661012a57005b600080fd5b34801561013b57600080fd5b50610144603c81565b6040519081526020015b60405180910390f35b34801561016357600080fd5b50600554610177906001600160a01b031681565b6040516001600160a01b03909116815260200161014e565b34801561019b57600080fd5b50600754610177906001600160a01b031681565b3480156101bb57600080fd5b506101c46104f6565b60405161014e919061157c565b3480156101dd57600080fd5b506101f16101ec36600461162c565b610586565b005b3480156101ff57600080fd5b5061022161020e36600461162c565b5060408051600081526020810190915290565b60405161014e9190611650565b34801561023a57600080fd5b506101f1610604565b34801561024f57600080fd5b5061014462278d0081565b6101f1610268366004611694565b610648565b34801561027957600080fd5b50600654610177906001600160a01b031681565b34801561029957600080fd5b506101f1610c5d565b3480156102ae57600080fd5b5061031a6102bd3660046116b6565b60026020819052600091825260409091208054600182015492820154600383015460048401546005850154600686015460078701546008909701546001600160a01b03968716988716979590961695939492939192909160ff1689565b604080516001600160a01b039a8b168152988a1660208a015296909816958701959095526060860193909352608085019190915260a084015260c083015260e08201529015156101008201526101200161014e565b34801561037b57600080fd5b506001546001600160a01b0316610177565b34801561039957600080fd5b506101f16103a83660046116b6565b610c71565b3480156103b957600080fd5b5061041d6103c83660046116b6565b6003602081905260009182526040909120805460018201546002830154938301546004840154600585015460068601546007909601546001600160a01b03958616979496959094169492939192909160ff1688565b604080516001600160a01b03998a168152602081019890985295909716948601949094526060850192909252608084015260a083015260c082015290151560e08201526101000161014e565b34801561047557600080fd5b506101f16104843660046116b6565b610e8a565b34801561049557600080fd5b506101446104a436600461162c565b60046020526000908152604090205481565b3480156104c257600080fd5b506101f16104d136600461162c565b611056565b3480156104e257600080fd5b506101446104f13660046116cf565b6110cc565b60408051600080825260208201909252606091908161057f565b61056c60405180610100016040528060006001600160a01b031681526020016000815260200160006001600160a01b03168152602001600081526020016000815260200160008152602001600081526020016000151581525090565b8152602001906001900390816105105790505b5092915050565b61058e611477565b6001600160a01b0381166105e25760405162461bcd60e51b8152602060048201526016602482015275496e76616c6964206f7261636c65206164647265737360501b60448201526064015b60405180910390fd5b600780546001600160a01b0319166001600160a01b0392909216919091179055565b61060c611477565b6001546040516001600160a01b03909116904780156108fc02916000818181858888f19350505050158015610645573d6000803e3d6000fd5b50565b6106506114d1565b6000828152600360205260409020600781015460ff166106a75760405162461bcd60e51b81526020600482015260126024820152714c697374696e67206e6f742061637469766560701b60448201526064016105d9565b80600401548210156106f05760405162461bcd60e51b8152602060048201526012602482015271111d5c985d1a5bdb881d1bdbc81cda1bdc9d60721b60448201526064016105d9565b80600501548211156107385760405162461bcd60e51b81526020600482015260116024820152704475726174696f6e20746f6f206c6f6e6760781b60448201526064016105d9565b6002810154336001600160a01b039091160361078c5760405162461bcd60e51b815260206004820152601360248201527210d85b9b9bdd081c995b9d081bdddb88139195606a1b60448201526064016105d9565b8054600182015460405160609290921b6bffffffffffffffffffffffff19166020830152603482015260009060540160408051601f1981840301815291815281516020928301206000818152600290935291206008015490915060ff161561082b5760405162461bcd60e51b815260206004820152601260248201527113919508185b1c9958591e481c995b9d195960721b60448201526064016105d9565b600083836003015461083d9190611731565b9050803410156108865760405162461bcd60e51b8152602060048201526014602482015273125b9cdd59999a58da595b9d081c185e5b595b9d60621b60448201526064016105d9565b600654604051631d699f5760e21b81523360048201526000916001600160a01b0316906375a67d5c90602401602060405180830381865afa1580156108cf573d6000803e3d6000fd5b505050506040513d601f19601f820116820180604052508101906108f3919061174e565b6006850154909150606482101561095d5761090e8184611767565b34101561095d5760405162461bcd60e51b815260206004820152601760248201527f496e73756666696369656e7420636f6c6c61746572616c00000000000000000060448201526064016105d9565b60055460028601546000916001600160a01b03908116916332f6700c91349116426109888c82611767565b8b5460405160e087901b6001600160e01b03191681526001600160a01b0394851660048201526024810193909352604483019190915291909116606482015260840160206040518083038185885af11580156109e8573d6000803e3d6000fd5b50505050506040513d601f19601f82011682018060405250810190610a0d919061174e565b865460018801549192506001600160a01b03169063e030565e9033610a328b42611767565b6040518463ffffffff1660e01b8152600401610a509392919061177a565b600060405180830381600087803b158015610a6a57600080fd5b505af1925050508015610a7b575060015b610af5578554600287015460018801546040516323b872dd60e01b81526001600160a01b03928316600482015230602482015260448101919091529116906323b872dd90606401600060405180830381600087803b158015610adc57600080fd5b505af1158015610af0573d6000803e3d6000fd5b505050505b604080516101208101825260028801546001600160a01b0390811682523360208301528854169181019190915260018701546060820152426080820181905260a0820190610b44908a90611767565b8152602080820187905260408083018590526001606093840181905260008a8152600280855290839020865181546001600160a01b03199081166001600160a01b039283161783558887015183860180548316918416919091179055888601519383018054909116938216939093179092558686015160038201556080870151600482015560a0870151600582015560c0870151600682015560e08701516007820155610100909601516008909601805460ff1916961515969096179095558a01548a5482513381529384018d905291830189905293169188917fc0f2f794cbf78e29a61d42476fec5f60452d6bb0ed288a51b8d8edacd6f38b5b910160405180910390a4505050505050610c596001600055565b5050565b610c65611477565b610c6f600061152a565b565b6000818152600260205260409020600881015460ff16610cc75760405162461bcd60e51b815260206004820152601160248201527052656e74616c206e6f742061637469766560781b60448201526064016105d9565b8060050154421015610d1b5760405162461bcd60e51b815260206004820152601760248201527f52656e74616c20706572696f64206e6f7420656e64656400000000000000000060448201526064016105d9565b60018101546001600160a01b0316331480610d3f575080546001600160a01b031633145b610d7c5760405162461bcd60e51b815260206004820152600e60248201526d139bdd08185d5d1a1bdc9a5e995960921b60448201526064016105d9565b600281015460038201546040516370182b2f60e11b81526001600160a01b039092169163e030565e91610db691600090819060040161177a565b600060405180830381600087803b158015610dd057600080fd5b505af1925050508015610de1575060015b506006546001828101546040516371609f1960e11b81526001600160a01b03918216600482015260248101929092529091169063e2c13e3290604401600060405180830381600087803b158015610e3757600080fd5b505af1158015610e4b573d6000803e3d6000fd5b50505060088201805460ff191690555060405182907f388c050efd8c142c04b4f718e41bb252109421c7776836d5c72e9c57364dbb1c90600090a25050565b6000818152600260205260409020600881015460ff16610ee05760405162461bcd60e51b815260206004820152601160248201527052656e74616c206e6f742061637469766560781b60448201526064016105d9565b60018101546001600160a01b0316331480610f04575080546001600160a01b031633145b610f415760405162461bcd60e51b815260206004820152600e60248201526d139bdd08185d5d1a1bdc9a5e995960921b60448201526064016105d9565b6005546007820154604051636db9241b60e01b81526001600160a01b0390921691636db9241b91610f789160040190815260200190565b600060405180830381600087803b158015610f9257600080fd5b505af1158015610fa6573d6000803e3d6000fd5b50505050600281015460038201546040516370182b2f60e11b81526001600160a01b039092169163e030565e91610fe491600090819060040161177a565b600060405180830381600087803b158015610ffe57600080fd5b505af192505050801561100f575060015b5060088101805460ff191690556040516000815282907f86ee28fda2d012392f3abd3d46f268713b253e11305d22db5803a337e97890c59060200160405180910390a25050565b61105e611477565b6001600160a01b0381166110c35760405162461bcd60e51b815260206004820152602660248201527f4f776e61626c653a206e6577206f776e657220697320746865207a65726f206160448201526564647265737360d01b60648201526084016105d9565b6106458161152a565b6040516331a9108f60e11b81526004810186905260009033906001600160a01b03891690636352211e90602401602060405180830381865afa158015611116573d6000803e3d6000fd5b505050506040513d601f19601f8201168201806040525081019061113a91906117a3565b6001600160a01b0316146111805760405162461bcd60e51b815260206004820152600d60248201526c2737ba1027232a1037bbb732b960991b60448201526064016105d9565b600085116111d05760405162461bcd60e51b815260206004820152601c60248201527f5072696365206d7573742062652067726561746572207468616e20300000000060448201526064016105d9565b603c84101561121a5760405162461bcd60e51b8152602060048201526016602482015275135a5b88191d5c985d1a5bdb881d1bdbc81cda1bdc9d60521b60448201526064016105d9565b62278d008311156112655760405162461bcd60e51b81526020600482015260156024820152744d6178206475726174696f6e20746f6f206c6f6e6760581b60448201526064016105d9565b828411156112ae5760405162461bcd60e51b8152602060048201526016602482015275496e76616c6964206475726174696f6e2072616e676560501b60448201526064016105d9565b6040516bffffffffffffffffffffffff19606089901b16602082015260348101879052426054820152607401604051602081830303815290604052805190602001209050604051806101000160405280886001600160a01b03168152602001878152602001336001600160a01b03168152602001868152602001858152602001848152602001838152602001600115158152506003600083815260200190815260200160002060008201518160000160006101000a8154816001600160a01b0302191690836001600160a01b031602179055506020820151816001015560408201518160020160006101000a8154816001600160a01b0302191690836001600160a01b03160217905550606082015181600301556080820151816004015560a0820151816005015560c0820151816006015560e08201518160070160006101000a81548160ff02191690831515021790555090505085876001600160a01b0316827f7a1b58ab9903f3d6d02360abb61aff5f725df938bb363b9d4f524d132fed41d23389898960405161146594939291906001600160a01b0394909416845260208401929092526040830152606082015260800190565b60405180910390a49695505050505050565b6001546001600160a01b03163314610c6f5760405162461bcd60e51b815260206004820181905260248201527f4f776e61626c653a2063616c6c6572206973206e6f7420746865206f776e657260448201526064016105d9565b6002600054036115235760405162461bcd60e51b815260206004820152601f60248201527f5265656e7472616e637947756172643a207265656e7472616e742063616c6c0060448201526064016105d9565b6002600055565b600180546001600160a01b038381166001600160a01b0319831681179093556040519116919082907f8be0079c531659141344cd1fd0a4f28419497f9722a3daafe3b4186f6b6457e090600090a35050565b602080825282518282018190526000919060409081850190868401855b8281101561160a57815180516001600160a01b0390811686528782015188870152868201511686860152606080820151908601526080808201519086015260a0808201519086015260c0808201519086015260e0908101511515908501526101009093019290850190600101611599565b5091979650505050505050565b6001600160a01b038116811461064557600080fd5b60006020828403121561163e57600080fd5b813561164981611617565b9392505050565b6020808252825182820181905260009190848201906040850190845b818110156116885783518352928401929184019160010161166c565b50909695505050505050565b600080604083850312156116a757600080fd5b50508035926020909101359150565b6000602082840312156116c857600080fd5b5035919050565b60008060008060008060c087890312156116e857600080fd5b86356116f381611617565b9860208801359850604088013597606081013597506080810135965060a00135945092505050565b634e487b7160e01b600052601160045260246000fd5b80820281158282048414176117485761174861171b565b92915050565b60006020828403121561176057600080fd5b5051919050565b808201808211156117485761174861171b565b9283526001600160a01b0391909116602083015267ffffffffffffffff16604082015260600190565b6000602082840312156117b557600080fd5b81516116498161161756fea2646970667358221220db9e0339b5e65454574c7501b7fe61c9762d77deead9396e064eb879af7cdf4d64736f6c63430008130033",
  "linkReferences": {},
  "deployedLinkReferences": {}
}