{
  "_format": "hh-sol-artifact-1",
  "contractName": "NFTFlowCore",
  "sourceName": "contracts/NFTFlowCore.sol",
  "abi": [
    {
      "anonymous": false,
      "inputs": [
        {
          "indexed": false,
          "internalType": "address",
          "name": "previousAdmin",
          "type": "address"
        },
        {
          "indexed": false,
          "internalType": "address",
          "name": "newAdmin",
          "type": "address"
        }
      ],
      "name": "AdminChanged",
      "type": "event"
    },
    {
      "anonymous": false,
      "inputs": [
        {
          "indexed": true,
          "internalType": "address",
          "name": "beacon",
          "type": "address"
        }
      ],
      "name": "BeaconUpgraded",
      "type": "event"
    },
    {
      "anonymous": false,
      "inputs": [
        {
          "indexed": true,
          "internalType": "address",
          "name": "user",
          "type": "address"
        },
        {
          "indexed": false,
          "internalType": "uint256",
          "name": "amount",
          "type": "uint256"
        }
      ],
      "name": "CollateralDeposited",
      "type": "event"
    },
    {
      "anonymous": false,
      "inputs": [
        {
          "indexed": true,
          "internalType": "address",
          "name": "user",
          "type": "address"
        },
        {
          "indexed": false,
          "internalType": "uint256",
          "name": "amount",
          "type": "uint256"
        }
      ],
      "name": "CollateralWithdrawn",
      "type": "event"
    },
    {
      "anonymous": false,
      "inputs": [
        {
          "indexed": true,
          "internalType": "address",
          "name": "nftContract",
          "type": "address"
        },
        {
          "indexed": true,
          "internalType": "address",
          "name": "creator",
          "type": "address"
        }
      ],
      "name": "CreatorRoyaltySet",
      "type": "event"
    },
    {
      "anonymous": false,
      "inputs": [
        {
          "indexed": false,
          "internalType": "uint8",
          "name": "version",
          "type": "uint8"
        }
      ],
      "name": "Initialized",
      "type": "event"
    },
    {
      "anonymous": false,
      "inputs": [
        {
          "indexed": true,
          "internalType": "address",
          "name": "previousOwner",
          "type": "address"
        },
        {
          "indexed": true,
          "internalType": "address",
          "name": "newOwner",
          "type": "address"
        }
      ],
      "name": "OwnershipTransferred",
      "type": "event"
    },
    {
      "anonymous": false,
      "inputs": [
        {
          "indexed": false,
          "internalType": "address",
          "name": "account",
          "type": "address"
        }
      ],
      "name": "Paused",
      "type": "event"
    },
    {
      "anonymous": false,
      "inputs": [
        {
          "indexed": true,
          "internalType": "uint256",
          "name": "rentalId",
          "type": "uint256"
        },
        {
          "indexed": true,
          "internalType": "address",
          "name": "cancelledBy",
          "type": "address"
        },
        {
          "indexed": false,
          "internalType": "string",
          "name": "reason",
          "type": "string"
        },
        {
          "indexed": false,
          "internalType": "uint256",
          "name": "refundAmount",
          "type": "uint256"
        }
      ],
      "name": "RentalCancelled",
      "type": "event"
    },
    {
      "anonymous": false,
      "inputs": [
        {
          "indexed": true,
          "internalType": "uint256",
          "name": "rentalId",
          "type": "uint256"
        },
        {
          "indexed": true,
          "internalType": "address",
          "name": "renter",
          "type": "address"
        },
        {
          "indexed": false,
          "internalType": "bool",
          "name": "successful",
          "type": "bool"
        },
        {
          "indexed": false,
          "internalType": "uint256",
          "name": "totalPaid",
          "type": "uint256"
        }
      ],
      "name": "RentalCompleted",
      "type": "event"
    },
    {
      "anonymous": false,
      "inputs": [
        {
          "indexed": true,
          "internalType": "bytes32",
          "name": "listingId",
          "type": "bytes32"
        },
        {
          "indexed": true,
          "internalType": "address",
          "name": "nftContract",
          "type": "address"
        },
        {
          "indexed": true,
          "internalType": "uint256",
          "name": "tokenId",
          "type": "uint256"
        },
        {
          "indexed": false,
          "internalType": "address",
          "name": "owner",
          "type": "address"
        },
        {
          "indexed": false,
          "internalType": "uint256",
          "name": "pricePerSecond",
          "type": "uint256"
        },
        {
          "indexed": false,
          "internalType": "uint256",
          "name": "collateralMultiplier",
          "type": "uint256"
        }
      ],
      "name": "RentalListed",
      "type": "event"
    },
    {
      "anonymous": false,
      "inputs": [
        {
          "indexed": true,
          "internalType": "uint256",
          "name": "rentalId",
          "type": "uint256"
        },
        {
          "indexed": true,
          "internalType": "address",
          "name": "nftContract",
          "type": "address"
        },
        {
          "indexed": true,
          "internalType": "uint256",
          "name": "tokenId",
          "type": "uint256"
        },
        {
          "indexed": false,
          "internalType": "address",
          "name": "owner",
          "type": "address"
        },
        {
          "indexed": false,
          "internalType": "address",
          "name": "renter",
          "type": "address"
        },
        {
          "indexed": false,
          "internalType": "uint256",
          "name": "duration",
          "type": "uint256"
        },
        {
          "indexed": false,
          "internalType": "uint256",
          "name": "totalCost",
          "type": "uint256"
        },
        {
          "indexed": false,
          "internalType": "uint256",
          "name": "streamId",
          "type": "uint256"
        }
      ],
      "name": "RentalStarted",
      "type": "event"
    },
    {
      "anonymous": false,
      "inputs": [
        {
          "indexed": false,
          "internalType": "address",
          "name": "account",
          "type": "address"
        }
      ],
      "name": "Unpaused",
      "type": "event"
    },
    {
      "anonymous": false,
      "inputs": [
        {
          "indexed": true,
          "internalType": "address",
          "name": "newImplementation",
          "type": "address"
        }
      ],
      "name": "UpgradeExecuted",
      "type": "event"
    },
    {
      "anonymous": false,
      "inputs": [
        {
          "indexed": true,
          "internalType": "address",
          "name": "newImplementation",
          "type": "address"
        },
        {
          "indexed": false,
          "internalType": "uint256",
          "name": "upgradeTime",
          "type": "uint256"
        }
      ],
      "name": "UpgradeProposed",
      "type": "event"
    },
    {
      "anonymous": false,
      "inputs": [
        {
          "indexed": true,
          "internalType": "address",
          "name": "implementation",
          "type": "address"
        }
      ],
      "name": "Upgraded",
      "type": "event"
    },
    {
      "inputs": [],
      "name": "BASIS_POINTS",
      "outputs": [
        {
          "internalType": "uint256",
          "name": "",
          "type": "uint256"
        }
      ],
      "stateMutability": "view",
      "type": "function"
    },
    {
      "inputs": [],
      "name": "MAX_RENTAL_DURATION",
      "outputs": [
        {
          "internalType": "uint256",
          "name": "",
          "type": "uint256"
        }
      ],
      "stateMutability": "view",
      "type": "function"
    },
    {
      "inputs": [],
      "name": "MIN_RENTAL_DURATION",
      "outputs": [
        {
          "internalType": "uint256",
          "name": "",
          "type": "uint256"
        }
      ],
      "stateMutability": "view",
      "type": "function"
    },
    {
      "inputs": [
        {
          "internalType": "uint256",
          "name": "rentalId",
          "type": "uint256"
        },
        {
          "internalType": "string",
          "name": "reason",
          "type": "string"
        }
      ],
      "name": "cancelRental",
      "outputs": [],
      "stateMutability": "nonpayable",
      "type": "function"
    },
    {
      "inputs": [
        {
          "internalType": "address",
          "name": "",
          "type": "address"
        }
      ],
      "name": "collectionCreators",
      "outputs": [
        {
          "internalType": "address",
          "name": "",
          "type": "address"
        }
      ],
      "stateMutability": "view",
      "type": "function"
    },
    {
      "inputs": [
        {
          "internalType": "uint256",
          "name": "rentalId",
          "type": "uint256"
        }
      ],
      "name": "completeRental",
      "outputs": [],
      "stateMutability": "nonpayable",
      "type": "function"
    },
    {
      "inputs": [],
      "name": "creatorRoyaltyPercentage",
      "outputs": [
        {
          "internalType": "uint256",
          "name": "",
          "type": "uint256"
        }
      ],
      "stateMutability": "view",
      "type": "function"
    },
    {
      "inputs": [],
      "name": "depositCollateral",
      "outputs": [],
      "stateMutability": "payable",
      "type": "function"
    },
    {
      "inputs": [],
      "name": "dynamicPricingContract",
      "outputs": [
        {
          "internalType": "address",
          "name": "",
          "type": "address"
        }
      ],
      "stateMutability": "view",
      "type": "function"
    },
    {
      "inputs": [],
      "name": "executeUpgrade",
      "outputs": [],
      "stateMutability": "nonpayable",
      "type": "function"
    },
    {
      "inputs": [
        {
          "internalType": "bytes32",
          "name": "listingId",
          "type": "bytes32"
        }
      ],
      "name": "getListing",
      "outputs": [
        {
          "components": [
            {
              "internalType": "address",
              "name": "nftContract",
              "type": "address"
            },
            {
              "internalType": "uint256",
              "name": "tokenId",
              "type": "uint256"
            },
            {
              "internalType": "address",
              "name": "owner",
              "type": "address"
            },
            {
              "internalType": "uint256",
              "name": "pricePerSecond",
              "type": "uint256"
            },
            {
              "internalType": "uint256",
              "name": "minRentalDuration",
              "type": "uint256"
            },
            {
              "internalType": "uint256",
              "name": "maxRentalDuration",
              "type": "uint256"
            },
            {
              "internalType": "uint256",
              "name": "collateralMultiplier",
              "type": "uint256"
            },
            {
              "internalType": "bool",
              "name": "active",
              "type": "bool"
            },
            {
              "internalType": "uint256",
              "name": "createdAt",
              "type": "uint256"
            },
            {
              "internalType": "uint256",
              "name": "lastPriceUpdate",
              "type": "uint256"
            }
          ],
          "internalType": "struct NFTFlowCore.RentalListing",
          "name": "",
          "type": "tuple"
        }
      ],
      "stateMutability": "view",
      "type": "function"
    },
    {
      "inputs": [
        {
          "internalType": "uint256",
          "name": "rentalId",
          "type": "uint256"
        }
      ],
      "name": "getRental",
      "outputs": [
        {
          "components": [
            {
              "internalType": "address",
              "name": "nftContract",
              "type": "address"
            },
            {
              "internalType": "uint256",
              "name": "tokenId",
              "type": "uint256"
            },
            {
              "internalType": "address",
              "name": "owner",
              "type": "address"
            },
            {
              "internalType": "address",
              "name": "renter",
              "type": "address"
            },
            {
              "internalType": "uint256",
              "name": "pricePerSecond",
              "type": "uint256"
            },
            {
              "internalType": "uint256",
              "name": "startTime",
              "type": "uint256"
            },
            {
              "internalType": "uint256",
              "name": "endTime",
              "type": "uint256"
            },
            {
              "internalType": "uint256",
              "name": "collateralAmount",
              "type": "uint256"
            },
            {
              "internalType": "uint256",
              "name": "streamId",
              "type": "uint256"
            },
            {
              "internalType": "enum NFTFlowCore.RentalState",
              "name": "state",
              "type": "uint8"
            },
            {
              "internalType": "uint256",
              "name": "createdAt",
              "type": "uint256"
            },
            {
              "internalType": "uint256",
              "name": "lastUpdated",
              "type": "uint256"
            }
          ],
          "internalType": "struct NFTFlowCore.Rental",
          "name": "",
          "type": "tuple"
        }
      ],
      "stateMutability": "view",
      "type": "function"
    },
    {
      "inputs": [
        {
          "internalType": "uint256",
          "name": "rentalId",
          "type": "uint256"
        }
      ],
      "name": "getRentalState",
      "outputs": [
        {
          "internalType": "enum NFTFlowCore.RentalState",
          "name": "",
          "type": "uint8"
        }
      ],
      "stateMutability": "view",
      "type": "function"
    },
    {
      "inputs": [
        {
          "internalType": "address",
          "name": "_priceOracle",
          "type": "address"
        },
        {
          "internalType": "address",
          "name": "_paymentStreamContract",
          "type": "address"
        },
        {
          "internalType": "address",
          "name": "_reputationContract",
          "type": "address"
        },
        {
          "internalType": "address",
          "name": "_dynamicPricingContract",
          "type": "address"
        },
        {
          "internalType": "address",
          "name": "_utilityTrackerContract",
          "type": "address"
        },
        {
          "internalType": "address",
          "name": "_treasury",
          "type": "address"
        }
      ],
      "name": "initialize",
      "outputs": [],
      "stateMutability": "nonpayable",
      "type": "function"
    },
    {
      "inputs": [
        {
          "internalType": "address",
          "name": "nftContract",
          "type": "address"
        },
        {
          "internalType": "uint256",
          "name": "tokenId",
          "type": "uint256"
        },
        {
          "internalType": "uint256",
          "name": "basePricePerSecond",
          "type": "uint256"
        },
        {
          "internalType": "uint256",
          "name": "minDuration",
          "type": "uint256"
        },
        {
          "internalType": "uint256",
          "name": "maxDuration",
          "type": "uint256"
        },
        {
          "internalType": "uint256",
          "name": "collateralMultiplier",
          "type": "uint256"
        }
      ],
      "name": "listForRental",
      "outputs": [],
      "stateMutability": "nonpayable",
      "type": "function"
    },
    {
      "inputs": [
        {
          "internalType": "bytes32",
          "name": "",
          "type": "bytes32"
        }
      ],
      "name": "listings",
      "outputs": [
        {
          "internalType": "address",
          "name": "nftContract",
          "type": "address"
        },
        {
          "internalType": "uint256",
          "name": "tokenId",
          "type": "uint256"
        },
        {
          "internalType": "address",
          "name": "owner",
          "type": "address"
        },
        {
          "internalType": "uint256",
          "name": "pricePerSecond",
          "type": "uint256"
        },
        {
          "internalType": "uint256",
          "name": "minRentalDuration",
          "type": "uint256"
        },
        {
          "internalType": "uint256",
          "name": "maxRentalDuration",
          "type": "uint256"
        },
        {
          "internalType": "uint256",
          "name": "collateralMultiplier",
          "type": "uint256"
        },
        {
          "internalType": "bool",
          "name": "active",
          "type": "bool"
        },
        {
          "internalType": "uint256",
          "name": "createdAt",
          "type": "uint256"
        },
        {
          "internalType": "uint256",
          "name": "lastPriceUpdate",
          "type": "uint256"
        }
      ],
      "stateMutability": "view",
      "type": "function"
    },
    {
      "inputs": [],
      "name": "nextRentalId",
      "outputs": [
        {
          "internalType": "uint256",
          "name": "",
          "type": "uint256"
        }
      ],
      "stateMutability": "view",
      "type": "function"
    },
    {
      "inputs": [],
      "name": "owner",
      "outputs": [
        {
          "internalType": "address",
          "name": "",
          "type": "address"
        }
      ],
      "stateMutability": "view",
      "type": "function"
    },
    {
      "inputs": [
        {
          "internalType": "address",
          "name": "",
          "type": "address"
        },
        {
          "internalType": "uint256",
          "name": "",
          "type": "uint256"
        }
      ],
      "name": "ownerListings",
      "outputs": [
        {
          "internalType": "uint256",
          "name": "",
          "type": "uint256"
        }
      ],
      "stateMutability": "view",
      "type": "function"
    },
    {
      "inputs": [],
      "name": "pause",
      "outputs": [],
      "stateMutability": "nonpayable",
      "type": "function"
    },
    {
      "inputs": [],
      "name": "paused",
      "outputs": [
        {
          "internalType": "bool",
          "name": "",
          "type": "bool"
        }
      ],
      "stateMutability": "view",
      "type": "function"
    },
    {
      "inputs": [],
      "name": "paymentStreamContract",
      "outputs": [
        {
          "internalType": "address",
          "name": "",
          "type": "address"
        }
      ],
      "stateMutability": "view",
      "type": "function"
    },
    {
      "inputs": [],
      "name": "platformFeePercentage",
      "outputs": [
        {
          "internalType": "uint256",
          "name": "",
          "type": "uint256"
        }
      ],
      "stateMutability": "view",
      "type": "function"
    },
    {
      "inputs": [],
      "name": "priceOracle",
      "outputs": [
        {
          "internalType": "contract IPriceOracle",
          "name": "",
          "type": "address"
        }
      ],
      "stateMutability": "view",
      "type": "function"
    },
    {
      "inputs": [
        {
          "internalType": "address",
          "name": "newImplementation",
          "type": "address"
        }
      ],
      "name": "proposeUpgrade",
      "outputs": [],
      "stateMutability": "nonpayable",
      "type": "function"
    },
    {
      "inputs": [],
      "name": "proposedImplementation",
      "outputs": [
        {
          "internalType": "address",
          "name": "",
          "type": "address"
        }
      ],
      "stateMutability": "view",
      "type": "function"
    },
    {
      "inputs": [],
      "name": "proposedUpgradeTime",
      "outputs": [
        {
          "internalType": "uint256",
          "name": "",
          "type": "uint256"
        }
      ],
      "stateMutability": "view",
      "type": "function"
    },
    {
      "inputs": [],
      "name": "proxiableUUID",
      "outputs": [
        {
          "internalType": "bytes32",
          "name": "",
          "type": "bytes32"
        }
      ],
      "stateMutability": "view",
      "type": "function"
    },
    {
      "inputs": [],
      "name": "renounceOwnership",
      "outputs": [],
      "stateMutability": "nonpayable",
      "type": "function"
    },
    {
      "inputs": [
        {
          "internalType": "bytes32",
          "name": "listingId",
          "type": "bytes32"
        },
        {
          "internalType": "uint256",
          "name": "duration",
          "type": "uint256"
        }
      ],
      "name": "rentNFT",
      "outputs": [],
      "stateMutability": "payable",
      "type": "function"
    },
    {
      "inputs": [
        {
          "internalType": "uint256",
          "name": "",
          "type": "uint256"
        }
      ],
      "name": "rentals",
      "outputs": [
        {
          "internalType": "address",
          "name": "nftContract",
          "type": "address"
        },
        {
          "internalType": "uint256",
          "name": "tokenId",
          "type": "uint256"
        },
        {
          "internalType": "address",
          "name": "owner",
          "type": "address"
        },
        {
          "internalType": "address",
          "name": "renter",
          "type": "address"
        },
        {
          "internalType": "uint256",
          "name": "pricePerSecond",
          "type": "uint256"
        },
        {
          "internalType": "uint256",
          "name": "startTime",
          "type": "uint256"
        },
        {
          "internalType": "uint256",
          "name": "endTime",
          "type": "uint256"
        },
        {
          "internalType": "uint256",
          "name": "collateralAmount",
          "type": "uint256"
        },
        {
          "internalType": "uint256",
          "name": "streamId",
          "type": "uint256"
        },
        {
          "internalType": "enum NFTFlowCore.RentalState",
          "name": "state",
          "type": "uint8"
        },
        {
          "internalType": "uint256",
          "name": "createdAt",
          "type": "uint256"
        },
        {
          "internalType": "uint256",
          "name": "lastUpdated",
          "type": "uint256"
        }
      ],
      "stateMutability": "view",
      "type": "function"
    },
    {
      "inputs": [],
      "name": "reputationContract",
      "outputs": [
        {
          "internalType": "address",
          "name": "",
          "type": "address"
        }
      ],
      "stateMutability": "view",
      "type": "function"
    },
    {
      "inputs": [
        {
          "internalType": "address",
          "name": "nftContract",
          "type": "address"
        },
        {
          "internalType": "address",
          "name": "creator",
          "type": "address"
        }
      ],
      "name": "setCreatorRoyalty",
      "outputs": [],
      "stateMutability": "nonpayable",
      "type": "function"
    },
    {
      "inputs": [
        {
          "internalType": "address",
          "name": "newOwner",
          "type": "address"
        }
      ],
      "name": "transferOwnership",
      "outputs": [],
      "stateMutability": "nonpayable",
      "type": "function"
    },
    {
      "inputs": [],
      "name": "treasury",
      "outputs": [
        {
          "internalType": "address",
          "name": "",
          "type": "address"
        }
      ],
      "stateMutability": "view",
      "type": "function"
    },
    {
      "inputs": [],
      "name": "unpause",
      "outputs": [],
      "stateMutability": "nonpayable",
      "type": "function"
    },
    {
      "inputs": [
        {
          "internalType": "uint256",
          "name": "newRoyaltyPercentage",
          "type": "uint256"
        }
      ],
      "name": "updateCreatorRoyalty",
      "outputs": [],
      "stateMutability": "nonpayable",
      "type": "function"
    },
    {
      "inputs": [
        {
          "internalType": "uint256",
          "name": "newFeePercentage",
          "type": "uint256"
        }
      ],
      "name": "updatePlatformFee",
      "outputs": [],
      "stateMutability": "nonpayable",
      "type": "function"
    },
    {
      "inputs": [],
      "name": "upgradeTimelock",
      "outputs": [
        {
          "internalType": "uint256",
          "name": "",
          "type": "uint256"
        }
      ],
      "stateMutability": "view",
      "type": "function"
    },
    {
      "inputs": [
        {
          "internalType": "address",
          "name": "newImplementation",
          "type": "address"
        }
      ],
      "name": "upgradeTo",
      "outputs": [],
      "stateMutability": "nonpayable",
      "type": "function"
    },
    {
      "inputs": [
        {
          "internalType": "address",
          "name": "newImplementation",
          "type": "address"
        },
        {
          "internalType": "bytes",
          "name": "data",
          "type": "bytes"
        }
      ],
      "name": "upgradeToAndCall",
      "outputs": [],
      "stateMutability": "payable",
      "type": "function"
    },
    {
      "inputs": [
        {
          "internalType": "address",
          "name": "",
          "type": "address"
        }
      ],
      "name": "userCollateralBalance",
      "outputs": [
        {
          "internalType": "uint256",
          "name": "",
          "type": "uint256"
        }
      ],
      "stateMutability": "view",
      "type": "function"
    },
    {
      "inputs": [
        {
          "internalType": "address",
          "name": "",
          "type": "address"
        },
        {
          "internalType": "uint256",
          "name": "",
          "type": "uint256"
        }
      ],
      "name": "userRentals",
      "outputs": [
        {
          "internalType": "uint256",
          "name": "",
          "type": "uint256"
        }
      ],
      "stateMutability": "view",
      "type": "function"
    },
    {
      "inputs": [],
      "name": "utilityTrackerContract",
      "outputs": [
        {
          "internalType": "address",
          "name": "",
          "type": "address"
        }
      ],
      "stateMutability": "view",
      "type": "function"
    },
    {
      "inputs": [
        {
          "internalType": "uint256",
          "name": "amount",
          "type": "uint256"
        }
      ],
      "name": "withdrawCollateral",
      "outputs": [],
      "stateMutability": "nonpayable",
      "type": "function"
    },
    {
      "inputs": [],
      "name": "withdrawPlatformFees",
      "outputs": [],
      "stateMutability": "nonpayable",
      "type": "function"
    },
    {
      "stateMutability": "payable",
      "type": "receive"
    }
  ],
  "bytecode": "0x60a06040523060805260fa6101335560326101345562093a8061013c5534801561002857600080fd5b50608051613e9561006060003960008181610a6f01528181610ab801528181610c1c01528181610c5c01526112b80152613e956000f3fe6080604052600436106102815760003560e01c80637e8962141161014f578063b5af3062116100c1578063ccb1a56e1161007a578063ccb1a56e146108c9578063cdd78cfc146108e0578063d0b7830b146108f7578063e1f1c4a71461090c578063f0609f3514610922578063f2fde38b1461094357600080fd5b8063b5af306214610749578063bb057c5e14610777578063c18b8db414610798578063c8af69a614610872578063c915fc9314610889578063cc2a9a5b146108a957600080fd5b80638c879fb9116101135780638c879fb91461060d5780638da5cb5b1461062457806399124a6514610642578063a7911aa814610662578063aa0b598814610683578063af94a1d1146106a357600080fd5b80637e8962141461058b5780638456cb59146105a057806387bc1425146105b5578063891a66c9146105d6578063896f018f146105ed57600080fd5b806351b1de1a116101f35780636112fe2e116101ac5780636112fe2e146104e057806361715bb51461050057806361d027b314610520578063652bd29e146105415780636f7581401461056e578063715018a61461057657600080fd5b806351b1de1a1461043457806352d1902d14610447578063562e3db81461045c5780635704acf81461047c57806358e679ed1461049d5780635c975abb146104bd57600080fd5b8063393d867211610245578063393d86721461037e5780633f4ba83a1461039e57806343837e3e146103b35780634d801b65146103d35780634f1ef2861461040a5780634f65473c1461041d57600080fd5b80630a60d6c81461028d578063175c0d16146102b557806319da9f1a146102e25780632630c12f146103235780633659cfe61461035c57600080fd5b3661028857005b600080fd5b34801561029957600080fd5b506102a2600181565b6040519081526020015b60405180910390f35b3480156102c157600080fd5b506102d56102d0366004613680565b610963565b6040516102ac9190613699565b3480156102ee57600080fd5b506103166102fd366004613680565b600090815261012d602052604090206009015460ff1690565b6040516102ac9190613761565b34801561032f57600080fd5b5061013954610344906001600160a01b031681565b6040516001600160a01b0390911681526020016102ac565b34801561036857600080fd5b5061037c610377366004613784565b610a65565b005b34801561038a57600080fd5b5061037c610399366004613680565b610b4d565b3480156103aa57600080fd5b5061037c610ba0565b3480156103bf57600080fd5b5061037c6103ce3660046137a1565b610bb2565b3480156103df57600080fd5b506103446103ee366004613784565b61013b602052600090815260409020546001600160a01b031681565b61037c6104183660046137f0565b610c12565b34801561042957600080fd5b506102a262278d0081565b61037c6104423660046138b4565b610ce2565b34801561045357600080fd5b506102a26112ab565b34801561046857600080fd5b5061037c6104773660046138d6565b61135e565b34801561048857600080fd5b5061013854610344906001600160a01b031681565b3480156104a957600080fd5b506102a26104b8366004613952565b6118a9565b3480156104c957600080fd5b5060fb5460ff1660405190151581526020016102ac565b3480156104ec57600080fd5b5061037c6104fb366004613680565b6118db565b34801561050c57600080fd5b5061037c61051b36600461397e565b6119d5565b34801561052c57600080fd5b5061013a54610344906001600160a01b031681565b34801561054d57600080fd5b5061056161055c366004613680565b611f08565b6040516102ac91906139ca565b61037c611fe5565b34801561058257600080fd5b5061037c6120a2565b34801561059757600080fd5b5061037c6120b4565b3480156105ac57600080fd5b5061037c6121d5565b3480156105c157600080fd5b5061013654610344906001600160a01b031681565b3480156105e257600080fd5b506102a261013d5481565b3480156105f957600080fd5b5061037c610608366004613680565b6121e5565b34801561061957600080fd5b506102a261013c5481565b34801561063057600080fd5b506097546001600160a01b0316610344565b34801561064e57600080fd5b506102a261065d366004613952565b61278c565b34801561066e57600080fd5b5061013754610344906001600160a01b031681565b34801561068f57600080fd5b5061037c61069e366004613680565b6127a9565b3480156106af57600080fd5b506107316106be366004613680565b61012d60205260009081526040902080546001820154600283015460038401546004850154600586015460068701546007880154600889015460098a0154600a8b0154600b909b01546001600160a01b039a8b169b999a9889169997909816979596949593949293919260ff909116918c565b6040516102ac9c9b9a99989796959493929190613a82565b34801561075557600080fd5b506102a2610764366004613784565b6101316020526000908152604090205481565b34801561078357600080fd5b5061013e54610344906001600160a01b031681565b3480156107a457600080fd5b506108156107b3366004613680565b61012e6020526000908152604090208054600182015460028301546003840154600485015460058601546006870154600788015460088901546009909901546001600160a01b0398891699979890961696949593949293919260ff909116918a565b604080516001600160a01b039b8c168152602081019a909a5297909916968801969096526060870194909452608086019290925260a085015260c0840152151560e0830152610100820152610120810191909152610140016102ac565b34801561087e57600080fd5b506102a26101325481565b34801561089557600080fd5b5061037c6108a4366004613784565b6127f8565b3480156108b557600080fd5b5061037c6108c4366004613af8565b6128c0565b3480156108d557600080fd5b506102a26101345481565b3480156108ec57600080fd5b506102a26101335481565b34801561090357600080fd5b5061037c612a57565b34801561091857600080fd5b506102a261271081565b34801561092e57600080fd5b5061013554610344906001600160a01b031681565b34801561094f57600080fd5b5061037c61095e366004613784565b612a99565b6109cd60405180610140016040528060006001600160a01b031681526020016000815260200160006001600160a01b031681526020016000815260200160008152602001600081526020016000815260200160001515815260200160008152602001600081525090565b50600090815261012e602090815260409182902082516101408101845281546001600160a01b0390811682526001830154938201939093526002820154909216928201929092526003820154606082015260048201546080820152600582015460a0820152600682015460c0820152600782015460ff16151560e0820152600882015461010082015260099091015461012082015290565b6001600160a01b037f0000000000000000000000000000000000000000000000000000000000000000163003610ab65760405162461bcd60e51b8152600401610aad90613b7a565b60405180910390fd5b7f00000000000000000000000000000000000000000000000000000000000000006001600160a01b0316610aff600080516020613e19833981519152546001600160a01b031690565b6001600160a01b031614610b255760405162461bcd60e51b8152600401610aad90613bc6565b610b2e81612b0f565b60408051600080825260208201909252610b4a91839190612b17565b50565b610b55612c82565b6101f4811115610b9a5760405162461bcd60e51b815260206004820152601060248201526f0a4def2c2d8e8f240e8dede40d0d2ced60831b6044820152606401610aad565b61013455565b610ba8612c82565b610bb0612cdc565b565b610bba612c82565b6001600160a01b03828116600081815261013b602052604080822080546001600160a01b0319169486169485179055517f8ec0824595857cf1483e8d4933527694a32a4e32cf746487847834a96a7172cd9190a35050565b6001600160a01b037f0000000000000000000000000000000000000000000000000000000000000000163003610c5a5760405162461bcd60e51b8152600401610aad90613b7a565b7f00000000000000000000000000000000000000000000000000000000000000006001600160a01b0316610ca3600080516020613e19833981519152546001600160a01b031690565b6001600160a01b031614610cc95760405162461bcd60e51b8152600401610aad90613bc6565b610cd282612b0f565b610cde82826001612b17565b5050565b610cea612d2e565b610cf2612d87565b600082815261012e60205260409020600781015460ff16610d4a5760405162461bcd60e51b81526020600482015260126024820152714c697374696e67206e6f742061637469766560701b6044820152606401610aad565b8060040154821015610d935760405162461bcd60e51b8152602060048201526012602482015271111d5c985d1a5bdb881d1bdbc81cda1bdc9d60721b6044820152606401610aad565b8060050154821115610ddb5760405162461bcd60e51b81526020600482015260116024820152704475726174696f6e20746f6f206c6f6e6760781b6044820152606401610aad565b6003810154610137546001600160a01b031615610e895761013754825460018401546003850154604051635d7ad11b60e11b81526001600160a01b0393841660048201526024810192909252604482015233606482015291169063baf5a23690608401602060405180830381865afa925050508015610e77575060408051601f3d908101601f19168201909252610e7491810190613c12565b60015b610e8657506003810154610e89565b90505b6000610e958483613c41565b90506000610ea882856006015433612dcd565b9050610eb48183613c58565b341015610efa5760405162461bcd60e51b8152602060048201526014602482015273125b9cdd59999a58da595b9d081c185e5b595b9d60621b6044820152606401610aad565b33600090815261013160205260409020548190610f18903490613c58565b1015610f665760405162461bcd60e51b815260206004820152601760248201527f496e73756666696369656e7420636f6c6c61746572616c0000000000000000006044820152606401610aad565b610132805460009182610f7883613c6b565b909155509050426000610f8b8883613c58565b6002880154909150600090610fab906001600160a01b0316848489612ea7565b60408051610180810182528a546001600160a01b0390811682526001808d0154602084015260028d015490911692820192909252336060820152608081018a905260a0810186905260c0810185905260e0810188905261010081018390529192506101208201908152426020808301829052604092830191909152600087815261012d8252829020835181546001600160a01b03199081166001600160a01b03928316178355928501516001808401919091559385015160028301805485169183169190911790556060850151600383018054909416911617909155608083015160048083019190915560a0840151600583015560c0840151600683015560e08401516007830155610100840151600883015561012084015160098301805493949193909260ff19909116919084908111156110e9576110e9613729565b0217905550610140820151600a82015561016090910151600b9091015533600090815261012f60209081526040822080546001810182559083529120018490558754611145906001600160a01b0316632b424ad760e21b612f03565b156111b357875460018901546040516370182b2f60e11b81526001600160a01b039092169163e030565e916111809133908790600401613c84565b600060405180830381600087803b15801561119a57600080fd5b505af11580156111ae573d6000803e3d6000fd5b505050505b600084815261012d6020908152604080832060098101805460ff1916600217905542600b909101553383526101319091529020546111f2908690613c58565b336000818152610131602090815260408083209490945560078c01805460ff191690558351610140810185528c546001600160a01b03908116825260018e01549282019290925260028d01549091169381019390935260038b0154606084015260048b0154608084015260058b015460a084015260068b015460c084015260e083015260088a015461010083015260098a01546101208301526112999186918c8a86612f85565b5050505050505050610cde600160c955565b6000306001600160a01b037f0000000000000000000000000000000000000000000000000000000000000000161461134b5760405162461bcd60e51b815260206004820152603860248201527f555550535570677261646561626c653a206d757374206e6f742062652063616c60448201527f6c6564207468726f7567682064656c656761746563616c6c00000000000000006064820152608401610aad565b50600080516020613e1983398151915290565b611366612d2e565b600083815261012d602052604090206002600982015460ff16600481111561139057611390613729565b146113d15760405162461bcd60e51b815260206004820152601160248201527052656e74616c206e6f742061637469766560781b6044820152606401610aad565b60038101546001600160a01b03163314806113f8575060028101546001600160a01b031633145b8061140d57506097546001600160a01b031633145b61144a5760405162461bcd60e51b815260206004820152600e60248201526d139bdd08185d5d1a1bdc9a5e995960921b6044820152606401610aad565b60098101805460ff1916600417905542600b820181905560058201546000916114739190613cad565b905060008260050154836006015461148b9190613cad565b9050600082846004015461149f9190613c41565b90506000818386600401546114b49190613c41565b6114be9190613cad565b60088601549091501561153657610135546008860154604051636db9241b60e01b81526001600160a01b0390921691636db9241b916115039160040190815260200190565b600060405180830381600087803b15801561151d57600080fd5b505af1158015611531573d6000803e3d6000fd5b505050505b801561157a5760038501546040516001600160a01b039091169082156108fc029083906000818181858888f19350505050158015611578573d6000803e3d6000fd5b505b60078501541561160b57600785015460038601546001600160a01b0316600090815261013160205260409020546115b19190613cad565b6003860180546001600160a01b03908116600090815261013160205260408082209490945591546007890154935191169280156108fc0292909190818181858888f19350505050158015611609573d6000803e3d6000fd5b505b8454611627906001600160a01b0316632b424ad760e21b612f03565b1561169657845460018601546040516370182b2f60e11b81526001600160a01b039092169163e030565e91611663916000908190600401613c84565b600060405180830381600087803b15801561167d57600080fd5b505af1158015611691573d6000803e3d6000fd5b505050505b610136546001600160a01b031615611787576003850154610136546040516371609f1960e11b81526001600160a01b0392831660048201819052331480156024830152929091169063e2c13e3290604401600060405180830381600087803b15801561170157600080fd5b505af1158015611715573d6000803e3d6000fd5b50506101365460028901546040516371609f1960e11b81526001600160a01b03918216600482015285151560248201529116925063e2c13e329150604401600060405180830381600087803b15801561176d57600080fd5b505af1158015611781573d6000803e3d6000fd5b50505050505b604080516101808101825286546001600160a01b039081168252600188015460208301526002880154811692820192909252600387015490911660608201526004808701546080830152600587015460a0830152600687015460c0830152600787015460e08301526008870154610100830152600987015461184f9291889161012084019160ff9091169081111561182157611821613729565b600481111561183257611832613729565b8152602001600a8201548152602001600b82015481525050613003565b336001600160a01b0316887fb2d1b2eac15a9b89a9fc5b1924d96b92a54d5b345ebca9fba68b3db1f2856e0d89898560405161188d93929190613cc0565b60405180910390a350505050506118a4600160c955565b505050565b61012f60205281600052604060002081815481106118c657600080fd5b90600052602060002001600091509150505481565b6118e3612d2e565b336000908152610131602052604090205481111561193a5760405162461bcd60e51b8152602060048201526014602482015273496e73756666696369656e742062616c616e636560601b6044820152606401610aad565b3360009081526101316020526040902054611956908290613cad565b3360008181526101316020526040808220939093559151909183156108fc02918491818181858888f19350505050158015611995573d6000803e3d6000fd5b5060405181815233907fc30fcfbcaac9e0deffa719714eaa82396ff506a0d0d0eebe170830177288715d9060200160405180910390a2610b4a600160c955565b6119dd612d2e565b6119e5612d87565b6040516331a9108f60e11b81526004810186905233906001600160a01b03881690636352211e90602401602060405180830381865afa158015611a2c573d6000803e3d6000fd5b505050506040513d601f19601f82011682018060405250810190611a509190613cf9565b6001600160a01b031614611a985760405162461bcd60e51b815260206004820152600f60248201526e2737ba103a37b5b2b71037bbb732b960891b6044820152606401610aad565b60405163e985e9c560e01b81523360048201523060248201526001600160a01b0387169063e985e9c590604401602060405180830381865afa158015611ae2573d6000803e3d6000fd5b505050506040513d601f19601f82011682018060405250810190611b069190613d16565b611b4a5760405162461bcd60e51b815260206004820152601560248201527410dbdb9d1c9858dd081b9bdd08185c1c1c9bdd9959605a1b6044820152606401610aad565b60008411611b9a5760405162461bcd60e51b815260206004820152601c60248201527f5072696365206d7573742062652067726561746572207468616e2030000000006044820152606401610aad565b6001831015611be05760405162461bcd60e51b8152602060048201526012602482015271111d5c985d1a5bdb881d1bdbc81cda1bdc9d60721b6044820152606401610aad565b62278d00821115611c275760405162461bcd60e51b81526020600482015260116024820152704475726174696f6e20746f6f206c6f6e6760781b6044820152606401610aad565b81831115611c705760405162461bcd60e51b8152602060048201526016602482015275496e76616c6964206475726174696f6e2072616e676560501b6044820152606401610aad565b614e20811115611cc25760405162461bcd60e51b815260206004820152601e60248201527f436f6c6c61746572616c206d756c7469706c69657220746f6f206869676800006044820152606401610aad565b6040516001600160601b0319606088811b821660208401526034830188905233901b166054820152426068820152600090608801604051602081830303815290604052805190602001209050604051806101400160405280886001600160a01b03168152602001878152602001336001600160a01b031681526020018681526020018581526020018481526020018381526020016001151581526020014281526020014281525061012e600083815260200190815260200160002060008201518160000160006101000a8154816001600160a01b0302191690836001600160a01b031602179055506020820151816001015560408201518160020160006101000a8154816001600160a01b0302191690836001600160a01b03160217905550606082015181600301556080820151816004015560a0820151816005015560c0820151816006015560e08201518160070160006101000a81548160ff021916908315150217905550610100820151816008015561012082015181600901559050506101306000336001600160a01b03166001600160a01b031681526020019081526020016000208160001c908060018154018082558091505060019003906000526020600020016000909190919091505585876001600160a01b0316827f539d3f92ba39a6040cf71ccf19c28aa525ee25b290f2da10fff309dc8ffbeeac338987604051611eed939291906001600160a01b039390931683526020830191909152604082015260600190565b60405180910390a450611f00600160c955565b505050505050565b611f106135f3565b600082815261012d602090815260409182902082516101808101845281546001600160a01b0390811682526001830154938201939093526002820154831693810193909352600381015490911660608301526004808201546080840152600582015460a0840152600682015460c0840152600782015460e08401526008820154610100840152600982015461012084019160ff90911690811115611fb657611fb6613729565b6004811115611fc757611fc7613729565b8152600a8201546020820152600b9091015460409091015292915050565b600034116120355760405162461bcd60e51b815260206004820152601860248201527f4d757374206465706f73697420736f6d6520616d6f756e7400000000000000006044820152606401610aad565b3360009081526101316020526040902054612051903490613c58565b3360008181526101316020526040908190209290925590517fd7243f6f8212d5188fd054141cf6ea89cfc0d91facb8c3afe2f88a1358480142906120989034815260200190565b60405180910390a2565b6120aa612c82565b610bb0600061309e565b6120bc612c82565b600061013d541180156120d2575061013d544210155b61211e5760405162461bcd60e51b815260206004820152601c60248201527f557067726164652074696d656c6f636b206e6f742065787069726564000000006044820152606401610aad565b61013e546001600160a01b031661216d5760405162461bcd60e51b8152602060048201526013602482015272139bc81d5c19dc985919481c1c9bdc1bdcd959606a1b6044820152606401610aad565b61013e54612183906001600160a01b03166130f0565b61013e546040516001600160a01b03909116907ffd5a9ae7c73c11fde86dd61704e937a04c99e7eef668050f685aabc5d8a6b2e490600090a261013e80546001600160a01b0319169055600061013d55565b6121dd612c82565b610bb0613130565b6121ed612d2e565b600081815261012d602052604090206002600982015460ff16600481111561221757612217613729565b146122585760405162461bcd60e51b815260206004820152601160248201527052656e74616c206e6f742061637469766560781b6044820152606401610aad565b80600601544210156122a15760405162461bcd60e51b815260206004820152601260248201527114995b9d185b081b9bdd08195e1c1a5c995960721b6044820152606401610aad565b60038101546001600160a01b03163314806122c8575060028101546001600160a01b031633145b806122dd57506097546001600160a01b031633145b61231a5760405162461bcd60e51b815260206004820152600e60248201526d139bdd08185d5d1a1bdc9a5e995960921b6044820152606401610aad565b60098101805460ff1916600317905542600b8201556008810154156123a457610135546008820154604051632d76e71560e21b81526001600160a01b039092169163b5db9c54916123719160040190815260200190565b600060405180830381600087803b15801561238b57600080fd5b505af115801561239f573d6000803e3d6000fd5b505050505b60078101541561243557600781015460038201546001600160a01b0316600090815261013160205260409020546123db9190613cad565b6003820180546001600160a01b03908116600090815261013160205260408082209490945591546007850154935191169280156108fc0292909190818181858888f19350505050158015612433573d6000803e3d6000fd5b505b8054612451906001600160a01b0316632b424ad760e21b612f03565b156124c057805460018201546040516370182b2f60e11b81526001600160a01b039092169163e030565e9161248d916000908190600401613c84565b600060405180830381600087803b1580156124a757600080fd5b505af11580156124bb573d6000803e3d6000fd5b505050505b610136546001600160a01b0316156125a9576101365460038201546040516371609f1960e11b81526001600160a01b0391821660048201526001602482015291169063e2c13e3290604401600060405180830381600087803b15801561252557600080fd5b505af1158015612539573d6000803e3d6000fd5b50506101365460028401546040516371609f1960e11b81526001600160a01b039182166004820152600160248201529116925063e2c13e329150604401600060405180830381600087803b15801561259057600080fd5b505af11580156125a4573d6000803e3d6000fd5b505050505b604080516101808101825282546001600160a01b039081168252600184015460208301526002840154811692820192909252600383015490911660608201526004808301546080830152600583015460a0830152600683015460c0830152600783015460e0830152600883015461010083015260098301546126719291849161012084019160ff9091169081111561264357612643613729565b600481111561265457612654613729565b8152602001600a8201548152602001600b8201548152505061316d565b604080516101808101825282546001600160a01b039081168252600184015460208301526002840154811692820192909252600383015490911660608201526004808301546080830152600583015460a0830152600683015460c0830152600783015460e08301526008830154610100830152600983015461270b9291849161012084019160ff9091169081111561182157611821613729565b6000816005015482600601546127219190613cad565b82600401546127309190613c41565b60038301546040805160018152602081018490529293506001600160a01b039091169185917f881c8ce26f0e63c84206daa4cd007d59643f1d8edc3fd59e61afb8ace945f9d2910160405180910390a35050610b4a600160c955565b61013060205281600052604060002081815481106118c657600080fd5b6127b1612c82565b6103e88111156127f25760405162461bcd60e51b815260206004820152600c60248201526b08ccaca40e8dede40d0d2ced60a31b6044820152606401610aad565b61013355565b612800612c82565b6001600160a01b03811661284f5760405162461bcd60e51b815260206004820152601660248201527524b73b30b634b21034b6b83632b6b2b73a30ba34b7b760511b6044820152606401610aad565b61013e80546001600160a01b0319166001600160a01b03831617905561013c546128799042613c58565b61013d8190556040519081526001600160a01b038216907fea80d7bcdb5b960a75976c0e94d2d4b2077378cfea983c73b49501b8613da2249060200160405180910390a250565b600054610100900460ff16158080156128e05750600054600160ff909116105b806128fa5750303b1580156128fa575060005460ff166001145b61295d5760405162461bcd60e51b815260206004820152602e60248201527f496e697469616c697a61626c653a20636f6e747261637420697320616c72656160448201526d191e481a5b9a5d1a585b1a5e995960921b6064820152608401610aad565b6000805460ff191660011790558015612980576000805461ff0019166101001790555b61298861327e565b6129906132ad565b6129986132dc565b6129a061330b565b61013980546001600160a01b03199081166001600160a01b038a8116919091179092556101358054821689841617905561013680548216888416179055610137805482168784161790556101388054821686841617905561013a80549091169184169190911790558015612a4e576000805461ff0019169055604051600181527f7f26b83ff96e1f2b6a682f133852f6798a09c465da95921460cefb38474024989060200160405180910390a15b50505050505050565b612a5f612c82565b61013a546040516001600160a01b03909116904780156108fc02916000818181858888f19350505050158015610b4a573d6000803e3d6000fd5b612aa1612c82565b6001600160a01b038116612b065760405162461bcd60e51b815260206004820152602660248201527f4f776e61626c653a206e6577206f776e657220697320746865207a65726f206160448201526564647265737360d01b6064820152608401610aad565b610b4a8161309e565b610b4a612c82565b7f4910fdfa16fed3260ed0e7147f7cc6da11a60208b5b9406d12a635614ffd91435460ff1615612b4a576118a483613332565b826001600160a01b03166352d1902d6040518163ffffffff1660e01b8152600401602060405180830381865afa925050508015612ba4575060408051601f3d908101601f19168201909252612ba191810190613c12565b60015b612c075760405162461bcd60e51b815260206004820152602e60248201527f45524331393637557067726164653a206e657720696d706c656d656e7461746960448201526d6f6e206973206e6f74205555505360901b6064820152608401610aad565b600080516020613e198339815191528114612c765760405162461bcd60e51b815260206004820152602960248201527f45524331393637557067726164653a20756e737570706f727465642070726f786044820152681a58589b195555525160ba1b6064820152608401610aad565b506118a48383836133ce565b6097546001600160a01b03163314610bb05760405162461bcd60e51b815260206004820181905260248201527f4f776e61626c653a2063616c6c6572206973206e6f7420746865206f776e65726044820152606401610aad565b612ce46133f9565b60fb805460ff191690557f5db9ee0a495bf2e6ff9c91a7834c1ba4fdd244a5e8aa4e537bd38aeae4b073aa335b6040516001600160a01b03909116815260200160405180910390a1565b600260c95403612d805760405162461bcd60e51b815260206004820152601f60248201527f5265656e7472616e637947756172643a207265656e7472616e742063616c6c006044820152606401610aad565b600260c955565b60fb5460ff1615610bb05760405162461bcd60e51b815260206004820152601060248201526f14185d5cd8589b194e881c185d5cd95960821b6044820152606401610aad565b610136546000906001600160a01b0316612dff57612710612dee8486613c41565b612df89190613d38565b9050612ea0565b610136546040516310a32cf360e31b81526001600160a01b0384811660048301526000921690638519679890602401602060405180830381865afa158015612e4b573d6000803e3d6000fd5b505050506040513d601f19601f82011682018060405250810190612e6f9190613c12565b90506000818511612e805781612e82565b845b9050612710612e918288613c41565b612e9b9190613d38565b925050505b9392505050565b6040516001600160601b0319606086901b16602082015260348101849052605481018390526074810182905242609482015260009060b4016040516020818303038152906040528051906020012060001c90505b949350505050565b6040516301ffc9a760e01b81526001600160e01b0319821660048201526000906001600160a01b038416906301ffc9a790602401602060405180830381865afa925050508015612f70575060408051601f3d908101601f19168201909252612f6d91810190613d16565b60015b612f7c57506000612f7f565b90505b92915050565b602080860151865160408089015181516001600160a01b039182168152898216958101959095529084018790526060840186905260808401859052919291169088907f8ee6aaa920f89d64cb1d724a0c5a1b4115df9ee4eee5a16d22a85a18713f0d439060a00160405180910390a4505050505050565b600160c955565b80516020808301516040808501805182516001600160601b0319606097881b8116828801526034820195909552951b909216605485015280518085036048018152606890940181528351938301939093209051600082815261012e909352929091206002015490916001600160a01b03908116911603610cde57600081815261012e60205260409020600701805460ff191660011790555050565b609780546001600160a01b038381166001600160a01b0319831681179093556040519116919082907f8be0079c531659141344cd1fd0a4f28419497f9722a3daafe3b4186f6b6457e090600090a35050565b6130f981613332565b6040516001600160a01b038216907fbc7cd75a20ee27fd9adebab32041f755214dbc6bffa90cc0225b39da2e5c2d3b90600090a250565b613138612d87565b60fb805460ff191660011790557f62e78cea01bee320cd4e420270b5ea74000d11b0c9f74754ebdbfc544b05a258612d113390565b610138546001600160a01b03166131815750565b60008160a001518260c001516131979190613cad565b905060008183608001516131ab9190613c41565b6101385484516020860151606087015160a088015160c08901516040516001600160a01b03958616602482015260448101949094529184166064840152608483015260a4820152600060c4820181905260e482018590529394509116906101040160408051601f198184030181529181526020820180516001600160e01b03166393df721760e01b179052516132419190613d7e565b6000604051808303816000865af19150503d8060008114612a4e576040519150601f19603f3d011682016040523d82523d6000602084013e612a4e565b600054610100900460ff166132a55760405162461bcd60e51b8152600401610aad90613d9a565b610bb0613442565b600054610100900460ff166132d45760405162461bcd60e51b8152600401610aad90613d9a565b610bb0613472565b600054610100900460ff166133035760405162461bcd60e51b8152600401610aad90613d9a565b610bb0613499565b600054610100900460ff16610bb05760405162461bcd60e51b8152600401610aad90613d9a565b6001600160a01b0381163b61339f5760405162461bcd60e51b815260206004820152602d60248201527f455243313936373a206e657720696d706c656d656e746174696f6e206973206e60448201526c1bdd08184818dbdb9d1c9858dd609a1b6064820152608401610aad565b600080516020613e1983398151915280546001600160a01b0319166001600160a01b0392909216919091179055565b6133d7836130f0565b6000825111806133e45750805b156118a4576133f383836134cc565b50505050565b60fb5460ff16610bb05760405162461bcd60e51b815260206004820152601460248201527314185d5cd8589b194e881b9bdd081c185d5cd95960621b6044820152606401610aad565b600054610100900460ff166134695760405162461bcd60e51b8152600401610aad90613d9a565b610bb03361309e565b600054610100900460ff16612ffc5760405162461bcd60e51b8152600401610aad90613d9a565b600054610100900460ff166134c05760405162461bcd60e51b8152600401610aad90613d9a565b60fb805460ff19169055565b6060612f7c8383604051806060016040528060278152602001613e39602791396060600080856001600160a01b0316856040516135099190613d7e565b600060405180830381855af49150503d8060008114613544576040519150601f19603f3d011682016040523d82523d6000602084013e613549565b606091505b5091509150612e9b86838387606083156135c45782516000036135bd576001600160a01b0385163b6135bd5760405162461bcd60e51b815260206004820152601d60248201527f416464726573733a2063616c6c20746f206e6f6e2d636f6e74726163740000006044820152606401610aad565b5081612efb565b612efb83838151156135d95781518083602001fd5b8060405162461bcd60e51b8152600401610aad9190613de5565b60405180610180016040528060006001600160a01b031681526020016000815260200160006001600160a01b0316815260200160006001600160a01b0316815260200160008152602001600081526020016000815260200160008152602001600081526020016000600481111561366c5761366c613729565b815260200160008152602001600081525090565b60006020828403121561369257600080fd5b5035919050565b81516001600160a01b0316815261014081016020830151602083015260408301516136cf60408401826001600160a01b03169052565b50606083015160608301526080830151608083015260a083015160a083015260c083015160c083015260e083015161370b60e084018215159052565b50610100838101519083015261012092830151929091019190915290565b634e487b7160e01b600052602160045260246000fd5b6005811061375d57634e487b7160e01b600052602160045260246000fd5b9052565b60208101612f7f828461373f565b6001600160a01b0381168114610b4a57600080fd5b60006020828403121561379657600080fd5b8135612ea08161376f565b600080604083850312156137b457600080fd5b82356137bf8161376f565b915060208301356137cf8161376f565b809150509250929050565b634e487b7160e01b600052604160045260246000fd5b6000806040838503121561380357600080fd5b823561380e8161376f565b9150602083013567ffffffffffffffff8082111561382b57600080fd5b818501915085601f83011261383f57600080fd5b813581811115613851576138516137da565b604051601f8201601f19908116603f01168101908382118183101715613879576138796137da565b8160405282815288602084870101111561389257600080fd5b8260208601602083013760006020848301015280955050505050509250929050565b600080604083850312156138c757600080fd5b50508035926020909101359150565b6000806000604084860312156138eb57600080fd5b83359250602084013567ffffffffffffffff8082111561390a57600080fd5b818601915086601f83011261391e57600080fd5b81358181111561392d57600080fd5b87602082850101111561393f57600080fd5b6020830194508093505050509250925092565b6000806040838503121561396557600080fd5b82356139708161376f565b946020939093013593505050565b60008060008060008060c0878903121561399757600080fd5b86356139a28161376f565b9860208801359850604088013597606081013597506080810135965060a00135945092505050565b81516001600160a01b031681526101808101602083015160208301526040830151613a0060408401826001600160a01b03169052565b506060830151613a1b60608401826001600160a01b03169052565b506080830151608083015260a083015160a083015260c083015160c083015260e083015160e083015261010080840151818401525061012080840151613a638285018261373f565b5050610140838101519083015261016092830151929091019190915290565b6001600160a01b038d81168252602082018d90528b811660408301528a1660608201526080810189905260a0810188905260c0810187905260e0810186905261010081018590526101808101613adc61012083018661373f565b61014082019390935261016001529a9950505050505050505050565b60008060008060008060c08789031215613b1157600080fd5b8635613b1c8161376f565b95506020870135613b2c8161376f565b94506040870135613b3c8161376f565b93506060870135613b4c8161376f565b92506080870135613b5c8161376f565b915060a0870135613b6c8161376f565b809150509295509295509295565b6020808252602c908201527f46756e6374696f6e206d7573742062652063616c6c6564207468726f7567682060408201526b19195b1959d85d1958d85b1b60a21b606082015260800190565b6020808252602c908201527f46756e6374696f6e206d7573742062652063616c6c6564207468726f7567682060408201526b6163746976652070726f787960a01b606082015260800190565b600060208284031215613c2457600080fd5b5051919050565b634e487b7160e01b600052601160045260246000fd5b8082028115828204841417612f7f57612f7f613c2b565b80820180821115612f7f57612f7f613c2b565b600060018201613c7d57613c7d613c2b565b5060010190565b9283526001600160a01b0391909116602083015267ffffffffffffffff16604082015260600190565b81810381811115612f7f57612f7f613c2b565b604081528260408201528284606083013760006060848301015260006060601f19601f8601168301019050826020830152949350505050565b600060208284031215613d0b57600080fd5b8151612ea08161376f565b600060208284031215613d2857600080fd5b81518015158114612ea057600080fd5b600082613d5557634e487b7160e01b600052601260045260246000fd5b500490565b60005b83811015613d75578181015183820152602001613d5d565b50506000910152565b60008251613d90818460208701613d5a565b9190910192915050565b6020808252602b908201527f496e697469616c697a61626c653a20636f6e7472616374206973206e6f74206960408201526a6e697469616c697a696e6760a81b606082015260800190565b6020815260008251806020840152613e04816040850160208701613d5a565b601f01601f1916919091016040019291505056fe360894a13ba1a3210667c828492db98dca3e2076cc3735a920a3ca505d382bbc416464726573733a206c6f772d6c6576656c2064656c65676174652063616c6c206661696c6564a2646970667358221220a934d2e678527f3ae17de62f3a2e27ec39a4af68640e558616818882fbacd8f764736f6c63430008130033",
  "linkReferences": {},
  "deployedLinkReferences": {}
}